{
	"contracts/RecoveryPegRate.sol": {
		"RecoveryPegRate": {
			"abi": [
				{
					"anonymous": false,
					"inputs": [
						{
							"indexed": true,
							"internalType": "address",
							"name": "tokenIn",
							"type": "address"
						},
						{
							"indexed": false,
							"internalType": "uint256",
							"name": "amountIn",
							"type": "uint256"
						},
						{
							"indexed": false,
							"internalType": "address",
							"name": "refundToken",
							"type": "address"
						},
						{
							"indexed": false,
							"internalType": "uint256",
							"name": "amountOut",
							"type": "uint256"
						}
					],
					"name": "BurnToken",
					"type": "event"
				},
				{
					"anonymous": false,
					"inputs": [
						{
							"indexed": false,
							"internalType": "uint256",
							"name": "roundId",
							"type": "uint256"
						},
						{
							"indexed": false,
							"internalType": "uint256",
							"name": "availableFunds",
							"type": "uint256"
						},
						{
							"indexed": false,
							"internalType": "uint256",
							"name": "startTime",
							"type": "uint256"
						}
					],
					"name": "NewRoundStarted",
					"type": "event"
				},
				{
					"anonymous": false,
					"inputs": [
						{
							"indexed": true,
							"internalType": "address",
							"name": "previousOwner",
							"type": "address"
						},
						{
							"indexed": true,
							"internalType": "address",
							"name": "newOwner",
							"type": "address"
						}
					],
					"name": "OwnershipTransferred",
					"type": "event"
				},
				{
					"anonymous": false,
					"inputs": [
						{
							"indexed": true,
							"internalType": "address",
							"name": "user",
							"type": "address"
						},
						{
							"indexed": true,
							"internalType": "address",
							"name": "tokenIn",
							"type": "address"
						},
						{
							"indexed": false,
							"internalType": "uint256",
							"name": "amountIn",
							"type": "uint256"
						},
						{
							"indexed": false,
							"internalType": "uint256",
							"name": "amountOut",
							"type": "uint256"
						}
					],
					"name": "RedeemProcessed",
					"type": "event"
				},
				{
					"inputs": [],
					"name": "FEE_BPS",
					"outputs": [
						{
							"internalType": "uint256",
							"name": "",
							"type": "uint256"
						}
					],
					"stateMutability": "view",
					"type": "function"
				},
				{
					"inputs": [],
					"name": "MAX_REDEEM_PER_WALLET",
					"outputs": [
						{
							"internalType": "uint256",
							"name": "",
							"type": "uint256"
						}
					],
					"stateMutability": "view",
					"type": "function"
				},
				{
					"inputs": [],
					"name": "ROUND_DELAY",
					"outputs": [
						{
							"internalType": "uint256",
							"name": "",
							"type": "uint256"
						}
					],
					"stateMutability": "view",
					"type": "function"
				},
				{
					"inputs": [],
					"name": "WALLET_RESET_INTERVAL",
					"outputs": [
						{
							"internalType": "uint256",
							"name": "",
							"type": "uint256"
						}
					],
					"stateMutability": "view",
					"type": "function"
				},
				{
					"inputs": [],
					"name": "currentRound",
					"outputs": [
						{
							"internalType": "uint256",
							"name": "",
							"type": "uint256"
						}
					],
					"stateMutability": "view",
					"type": "function"
				},
				{
					"inputs": [],
					"name": "isLocked",
					"outputs": [
						{
							"internalType": "bool",
							"name": "",
							"type": "bool"
						}
					],
					"stateMutability": "view",
					"type": "function"
				},
				{
					"inputs": [
						{
							"internalType": "address",
							"name": "",
							"type": "address"
						}
					],
					"name": "lastRedeemTimestamp",
					"outputs": [
						{
							"internalType": "uint256",
							"name": "",
							"type": "uint256"
						}
					],
					"stateMutability": "view",
					"type": "function"
				},
				{
					"inputs": [
						{
							"internalType": "bool",
							"name": "_status",
							"type": "bool"
						}
					],
					"name": "lock",
					"outputs": [],
					"stateMutability": "nonpayable",
					"type": "function"
				},
				{
					"inputs": [],
					"name": "merkleRoot",
					"outputs": [
						{
							"internalType": "bytes32",
							"name": "",
							"type": "bytes32"
						}
					],
					"stateMutability": "view",
					"type": "function"
				},
				{
					"inputs": [],
					"name": "owner",
					"outputs": [
						{
							"internalType": "address",
							"name": "",
							"type": "address"
						}
					],
					"stateMutability": "view",
					"type": "function"
				},
				{
					"inputs": [
						{
							"internalType": "address",
							"name": "tokenIn",
							"type": "address"
						},
						{
							"internalType": "uint256",
							"name": "amountIn",
							"type": "uint256"
						},
						{
							"internalType": "bytes32[]",
							"name": "proof",
							"type": "bytes32[]"
						}
					],
					"name": "redeem",
					"outputs": [],
					"stateMutability": "nonpayable",
					"type": "function"
				},
				{
					"inputs": [
						{
							"internalType": "uint256",
							"name": "",
							"type": "uint256"
						},
						{
							"internalType": "address",
							"name": "",
							"type": "address"
						}
					],
					"name": "redeemedInRound",
					"outputs": [
						{
							"internalType": "uint256",
							"name": "",
							"type": "uint256"
						}
					],
					"stateMutability": "view",
					"type": "function"
				},
				{
					"inputs": [],
					"name": "refundToken",
					"outputs": [
						{
							"internalType": "address",
							"name": "",
							"type": "address"
						}
					],
					"stateMutability": "view",
					"type": "function"
				},
				{
					"inputs": [],
					"name": "renounceOwnership",
					"outputs": [],
					"stateMutability": "nonpayable",
					"type": "function"
				},
				{
					"inputs": [],
					"name": "roundFunds",
					"outputs": [
						{
							"internalType": "uint256",
							"name": "",
							"type": "uint256"
						}
					],
					"stateMutability": "view",
					"type": "function"
				},
				{
					"inputs": [],
					"name": "roundStart",
					"outputs": [
						{
							"internalType": "uint256",
							"name": "",
							"type": "uint256"
						}
					],
					"stateMutability": "view",
					"type": "function"
				},
				{
					"inputs": [
						{
							"internalType": "bytes32",
							"name": "_root",
							"type": "bytes32"
						}
					],
					"name": "setMerkleRoot",
					"outputs": [],
					"stateMutability": "nonpayable",
					"type": "function"
				},
				{
					"inputs": [
						{
							"internalType": "address",
							"name": "_usdc",
							"type": "address"
						}
					],
					"name": "setRefundToken",
					"outputs": [],
					"stateMutability": "nonpayable",
					"type": "function"
				},
				{
					"inputs": [
						{
							"internalType": "uint256",
							"name": "_roundId",
							"type": "uint256"
						}
					],
					"name": "startNewRound",
					"outputs": [],
					"stateMutability": "nonpayable",
					"type": "function"
				},
				{
					"inputs": [
						{
							"internalType": "address",
							"name": "newOwner",
							"type": "address"
						}
					],
					"name": "transferOwnership",
					"outputs": [],
					"stateMutability": "nonpayable",
					"type": "function"
				}
			],
			"devdoc": {
				"kind": "dev",
				"methods": {
					"owner()": {
						"details": "Returns the address of the current owner."
					},
					"renounceOwnership()": {
						"details": "Leaves the contract without owner. It will not be possible to call `onlyOwner` functions. Can only be called by the current owner. NOTE: Renouncing ownership will leave the contract without an owner, thereby disabling any functionality that is only available to the owner."
					},
					"transferOwnership(address)": {
						"details": "Transfers ownership of the contract to a new account (`newOwner`). Can only be called by the current owner."
					}
				},
				"version": 1
			},
			"evm": {
				"assembly": "    /* \"contracts/RecoveryPegRate.sol\":512:3916  contract RecoveryPegRate is Ownable {... */\n  mstore(0x40, 0x80)\n  callvalue\n  dup1\n  iszero\n  tag_1\n  jumpi\n  0x00\n  dup1\n  revert\ntag_1:\n  pop\n    /* \"https://raw.githubusercontent.com/OpenZeppelin/openzeppelin-contracts/refs/tags/v4.9.3/contracts/access/Ownable.sol\":936:968  _transferOwnership(_msgSender()) */\n  tag_4\n    /* \"https://raw.githubusercontent.com/OpenZeppelin/openzeppelin-contracts/refs/tags/v4.9.3/contracts/access/Ownable.sol\":955:967  _msgSender() */\n  tag_5\n    /* \"https://raw.githubusercontent.com/OpenZeppelin/openzeppelin-contracts/refs/tags/v4.9.3/contracts/access/Ownable.sol\":955:965  _msgSender */\n  shl(0x20, tag_6)\n    /* \"https://raw.githubusercontent.com/OpenZeppelin/openzeppelin-contracts/refs/tags/v4.9.3/contracts/access/Ownable.sol\":955:967  _msgSender() */\n  0x20\n  shr\n  jump\t// in\ntag_5:\n    /* \"https://raw.githubusercontent.com/OpenZeppelin/openzeppelin-contracts/refs/tags/v4.9.3/contracts/access/Ownable.sol\":936:954  _transferOwnership */\n  shl(0x20, tag_7)\n    /* \"https://raw.githubusercontent.com/OpenZeppelin/openzeppelin-contracts/refs/tags/v4.9.3/contracts/access/Ownable.sol\":936:968  _transferOwnership(_msgSender()) */\n  0x20\n  shr\n  jump\t// in\ntag_4:\n    /* \"contracts/RecoveryPegRate.sol\":512:3916  contract RecoveryPegRate is Ownable {... */\n  jump(tag_8)\n    /* \"https://raw.githubusercontent.com/OpenZeppelin/openzeppelin-contracts/refs/tags/v4.9.3/contracts/utils/Context.sol\":640:736  function _msgSender() internal view virtual returns (address) {... */\ntag_6:\n    /* \"https://raw.githubusercontent.com/OpenZeppelin/openzeppelin-contracts/refs/tags/v4.9.3/contracts/utils/Context.sol\":693:700  address */\n  0x00\n    /* \"https://raw.githubusercontent.com/OpenZeppelin/openzeppelin-contracts/refs/tags/v4.9.3/contracts/utils/Context.sol\":719:729  msg.sender */\n  caller\n    /* \"https://raw.githubusercontent.com/OpenZeppelin/openzeppelin-contracts/refs/tags/v4.9.3/contracts/utils/Context.sol\":712:729  return msg.sender */\n  swap1\n  pop\n    /* \"https://raw.githubusercontent.com/OpenZeppelin/openzeppelin-contracts/refs/tags/v4.9.3/contracts/utils/Context.sol\":640:736  function _msgSender() internal view virtual returns (address) {... */\n  swap1\n  jump\t// out\n    /* \"https://raw.githubusercontent.com/OpenZeppelin/openzeppelin-contracts/refs/tags/v4.9.3/contracts/access/Ownable.sol\":2426:2613  function _transferOwnership(address newOwner) internal virtual {... */\ntag_7:\n    /* \"https://raw.githubusercontent.com/OpenZeppelin/openzeppelin-contracts/refs/tags/v4.9.3/contracts/access/Ownable.sol\":2499:2515  address oldOwner */\n  0x00\n    /* \"https://raw.githubusercontent.com/OpenZeppelin/openzeppelin-contracts/refs/tags/v4.9.3/contracts/access/Ownable.sol\":2518:2524  _owner */\n  dup1\n  0x00\n  swap1\n  sload\n  swap1\n  0x0100\n  exp\n  swap1\n  div\n  0xffffffffffffffffffffffffffffffffffffffff\n  and\n    /* \"https://raw.githubusercontent.com/OpenZeppelin/openzeppelin-contracts/refs/tags/v4.9.3/contracts/access/Ownable.sol\":2499:2524  address oldOwner = _owner */\n  swap1\n  pop\n    /* \"https://raw.githubusercontent.com/OpenZeppelin/openzeppelin-contracts/refs/tags/v4.9.3/contracts/access/Ownable.sol\":2543:2551  newOwner */\n  dup2\n    /* \"https://raw.githubusercontent.com/OpenZeppelin/openzeppelin-contracts/refs/tags/v4.9.3/contracts/access/Ownable.sol\":2534:2540  _owner */\n  0x00\n  dup1\n    /* \"https://raw.githubusercontent.com/OpenZeppelin/openzeppelin-contracts/refs/tags/v4.9.3/contracts/access/Ownable.sol\":2534:2551  _owner = newOwner */\n  0x0100\n  exp\n  dup2\n  sload\n  dup2\n  0xffffffffffffffffffffffffffffffffffffffff\n  mul\n  not\n  and\n  swap1\n  dup4\n  0xffffffffffffffffffffffffffffffffffffffff\n  and\n  mul\n  or\n  swap1\n  sstore\n  pop\n    /* \"https://raw.githubusercontent.com/OpenZeppelin/openzeppelin-contracts/refs/tags/v4.9.3/contracts/access/Ownable.sol\":2597:2605  newOwner */\n  dup2\n    /* \"https://raw.githubusercontent.com/OpenZeppelin/openzeppelin-contracts/refs/tags/v4.9.3/contracts/access/Ownable.sol\":2566:2606  OwnershipTransferred(oldOwner, newOwner) */\n  0xffffffffffffffffffffffffffffffffffffffff\n  and\n    /* \"https://raw.githubusercontent.com/OpenZeppelin/openzeppelin-contracts/refs/tags/v4.9.3/contracts/access/Ownable.sol\":2587:2595  oldOwner */\n  dup2\n    /* \"https://raw.githubusercontent.com/OpenZeppelin/openzeppelin-contracts/refs/tags/v4.9.3/contracts/access/Ownable.sol\":2566:2606  OwnershipTransferred(oldOwner, newOwner) */\n  0xffffffffffffffffffffffffffffffffffffffff\n  and\n  0x8be0079c531659141344cd1fd0a4f28419497f9722a3daafe3b4186f6b6457e0\n  mload(0x40)\n  mload(0x40)\n  dup1\n  swap2\n  sub\n  swap1\n  log3\n    /* \"https://raw.githubusercontent.com/OpenZeppelin/openzeppelin-contracts/refs/tags/v4.9.3/contracts/access/Ownable.sol\":2489:2613  {... */\n  pop\n    /* \"https://raw.githubusercontent.com/OpenZeppelin/openzeppelin-contracts/refs/tags/v4.9.3/contracts/access/Ownable.sol\":2426:2613  function _transferOwnership(address newOwner) internal virtual {... */\n  pop\n  jump\t// out\n    /* \"contracts/RecoveryPegRate.sol\":512:3916  contract RecoveryPegRate is Ownable {... */\ntag_8:\n  dataSize(sub_0)\n  dup1\n  dataOffset(sub_0)\n  0x00\n  codecopy\n  0x00\n  return\nstop\n\nsub_0: assembly {\n        /* \"contracts/RecoveryPegRate.sol\":512:3916  contract RecoveryPegRate is Ownable {... */\n      mstore(0x40, 0x80)\n      callvalue\n      dup1\n      iszero\n      tag_1\n      jumpi\n      0x00\n      dup1\n      revert\n    tag_1:\n      pop\n      jumpi(tag_2, lt(calldatasize, 0x04))\n      shr(0xe0, calldataload(0x00))\n      dup1\n      0x73a1a252\n      gt\n      tag_23\n      jumpi\n      dup1\n      0xaa91d81c\n      gt\n      tag_24\n      jumpi\n      dup1\n      0xaa91d81c\n      eq\n      tag_18\n      jumpi\n      dup1\n      0xad655ef6\n      eq\n      tag_19\n      jumpi\n      dup1\n      0xbf333f2c\n      eq\n      tag_20\n      jumpi\n      dup1\n      0xe10de678\n      eq\n      tag_21\n      jumpi\n      dup1\n      0xf2fde38b\n      eq\n      tag_22\n      jumpi\n      jump(tag_2)\n    tag_24:\n      dup1\n      0x73a1a252\n      eq\n      tag_13\n      jumpi\n      dup1\n      0x7cb64759\n      eq\n      tag_14\n      jumpi\n      dup1\n      0x8a19c8bc\n      eq\n      tag_15\n      jumpi\n      dup1\n      0x8da5cb5b\n      eq\n      tag_16\n      jumpi\n      dup1\n      0xa4e2d634\n      eq\n      tag_17\n      jumpi\n      jump(tag_2)\n    tag_23:\n      dup1\n      0x4615102c\n      gt\n      tag_25\n      jumpi\n      dup1\n      0x4615102c\n      eq\n      tag_8\n      jumpi\n      dup1\n      0x589db8d4\n      eq\n      tag_9\n      jumpi\n      dup1\n      0x5cb732be\n      eq\n      tag_10\n      jumpi\n      dup1\n      0x620d025c\n      eq\n      tag_11\n      jumpi\n      dup1\n      0x715018a6\n      eq\n      tag_12\n      jumpi\n      jump(tag_2)\n    tag_25:\n      dup1\n      0x0dd0a042\n      eq\n      tag_3\n      jumpi\n      dup1\n      0x1073e2a7\n      eq\n      tag_4\n      jumpi\n      dup1\n      0x14132f48\n      eq\n      tag_5\n      jumpi\n      dup1\n      0x2eb4a7ab\n      eq\n      tag_6\n      jumpi\n      dup1\n      0x40365852\n      eq\n      tag_7\n      jumpi\n    tag_2:\n      0x00\n      dup1\n      revert\n        /* \"contracts/RecoveryPegRate.sol\":1993:2077  function lock(bool _status) external onlyOwner {... */\n    tag_3:\n      tag_26\n      0x04\n      dup1\n      calldatasize\n      sub\n      dup2\n      add\n      swap1\n      tag_27\n      swap2\n      swap1\n      tag_28\n      jump\t// in\n    tag_27:\n      tag_29\n      jump\t// in\n    tag_26:\n      stop\n        /* \"contracts/RecoveryPegRate.sol\":1019:1075  uint256 public constant WALLET_RESET_INTERVAL = 48 hours */\n    tag_4:\n      tag_30\n      tag_31\n      jump\t// in\n    tag_30:\n      mload(0x40)\n      tag_32\n      swap2\n      swap1\n      tag_33\n      jump\t// in\n    tag_32:\n      mload(0x40)\n      dup1\n      swap2\n      sub\n      swap1\n      return\n        /* \"contracts/RecoveryPegRate.sol\":2528:3445  function redeem(... */\n    tag_5:\n      tag_34\n      0x04\n      dup1\n      calldatasize\n      sub\n      dup2\n      add\n      swap1\n      tag_35\n      swap2\n      swap1\n      tag_36\n      jump\t// in\n    tag_35:\n      tag_37\n      jump\t// in\n    tag_34:\n      stop\n        /* \"contracts/RecoveryPegRate.sol\":1117:1142  bytes32 public merkleRoot */\n    tag_6:\n      tag_38\n      tag_39\n      jump\t// in\n    tag_38:\n      mload(0x40)\n      tag_40\n      swap2\n      swap1\n      tag_41\n      jump\t// in\n    tag_40:\n      mload(0x40)\n      dup1\n      swap2\n      sub\n      swap1\n      return\n        /* \"contracts/RecoveryPegRate.sol\":1183:1208  uint256 public roundStart */\n    tag_7:\n      tag_42\n      tag_43\n      jump\t// in\n    tag_42:\n      mload(0x40)\n      tag_44\n      swap2\n      swap1\n      tag_33\n      jump\t// in\n    tag_44:\n      mload(0x40)\n      dup1\n      swap2\n      sub\n      swap1\n      return\n        /* \"contracts/RecoveryPegRate.sol\":2085:2520  function startNewRound(uint256 _roundId) external onlyOwner {... */\n    tag_8:\n      tag_45\n      0x04\n      dup1\n      calldatasize\n      sub\n      dup2\n      add\n      swap1\n      tag_46\n      swap2\n      swap1\n      tag_47\n      jump\t// in\n    tag_46:\n      tag_48\n      jump\t// in\n    tag_45:\n      stop\n        /* \"contracts/RecoveryPegRate.sol\":1353:1407  mapping(address => uint256) public lastRedeemTimestamp */\n    tag_9:\n      tag_49\n      0x04\n      dup1\n      calldatasize\n      sub\n      dup2\n      add\n      swap1\n      tag_50\n      swap2\n      swap1\n      tag_51\n      jump\t// in\n    tag_50:\n      tag_52\n      jump\t// in\n    tag_49:\n      mload(0x40)\n      tag_53\n      swap2\n      swap1\n      tag_33\n      jump\t// in\n    tag_53:\n      mload(0x40)\n      dup1\n      swap2\n      sub\n      swap1\n      return\n        /* \"contracts/RecoveryPegRate.sol\":1084:1110  address public refundToken */\n    tag_10:\n      tag_54\n      tag_55\n      jump\t// in\n    tag_54:\n      mload(0x40)\n      tag_56\n      swap2\n      swap1\n      tag_57\n      jump\t// in\n    tag_56:\n      mload(0x40)\n      dup1\n      swap2\n      sub\n      swap1\n      return\n        /* \"contracts/RecoveryPegRate.sol\":1215:1240  uint256 public roundFunds */\n    tag_11:\n      tag_58\n      tag_59\n      jump\t// in\n    tag_58:\n      mload(0x40)\n      tag_60\n      swap2\n      swap1\n      tag_33\n      jump\t// in\n    tag_60:\n      mload(0x40)\n      dup1\n      swap2\n      sub\n      swap1\n      return\n        /* \"https://raw.githubusercontent.com/OpenZeppelin/openzeppelin-contracts/refs/tags/v4.9.3/contracts/access/Ownable.sol\":1824:1925  function renounceOwnership() public virtual onlyOwner {... */\n    tag_12:\n      tag_61\n      tag_62\n      jump\t// in\n    tag_61:\n      stop\n        /* \"contracts/RecoveryPegRate.sol\":1276:1346  mapping(uint256 => mapping(address => uint256)) public redeemedInRound */\n    tag_13:\n      tag_63\n      0x04\n      dup1\n      calldatasize\n      sub\n      dup2\n      add\n      swap1\n      tag_64\n      swap2\n      swap1\n      tag_65\n      jump\t// in\n    tag_64:\n      tag_66\n      jump\t// in\n    tag_63:\n      mload(0x40)\n      tag_67\n      swap2\n      swap1\n      tag_33\n      jump\t// in\n    tag_67:\n      mload(0x40)\n      dup1\n      swap2\n      sub\n      swap1\n      return\n        /* \"contracts/RecoveryPegRate.sol\":1787:1881  function setMerkleRoot(bytes32 _root) external onlyOwner {... */\n    tag_14:\n      tag_68\n      0x04\n      dup1\n      calldatasize\n      sub\n      dup2\n      add\n      swap1\n      tag_69\n      swap2\n      swap1\n      tag_70\n      jump\t// in\n    tag_69:\n      tag_71\n      jump\t// in\n    tag_68:\n      stop\n        /* \"contracts/RecoveryPegRate.sol\":1149:1176  uint256 public currentRound */\n    tag_15:\n      tag_72\n      tag_73\n      jump\t// in\n    tag_72:\n      mload(0x40)\n      tag_74\n      swap2\n      swap1\n      tag_33\n      jump\t// in\n    tag_74:\n      mload(0x40)\n      dup1\n      swap2\n      sub\n      swap1\n      return\n        /* \"https://raw.githubusercontent.com/OpenZeppelin/openzeppelin-contracts/refs/tags/v4.9.3/contracts/access/Ownable.sol\":1201:1286  function owner() public view virtual returns (address) {... */\n    tag_16:\n      tag_75\n      tag_76\n      jump\t// in\n    tag_75:\n      mload(0x40)\n      tag_77\n      swap2\n      swap1\n      tag_57\n      jump\t// in\n    tag_77:\n      mload(0x40)\n      dup1\n      swap2\n      sub\n      swap1\n      return\n        /* \"contracts/RecoveryPegRate.sol\":1247:1267  bool public isLocked */\n    tag_17:\n      tag_78\n      tag_79\n      jump\t// in\n    tag_78:\n      mload(0x40)\n      tag_80\n      swap2\n      swap1\n      tag_81\n      jump\t// in\n    tag_80:\n      mload(0x40)\n      dup1\n      swap2\n      sub\n      swap1\n      return\n        /* \"contracts/RecoveryPegRate.sol\":906:959  uint256 public constant MAX_REDEEM_PER_WALLET = 200e6 */\n    tag_18:\n      tag_82\n      tag_83\n      jump\t// in\n    tag_82:\n      mload(0x40)\n      tag_84\n      swap2\n      swap1\n      tag_33\n      jump\t// in\n    tag_84:\n      mload(0x40)\n      dup1\n      swap2\n      sub\n      swap1\n      return\n        /* \"contracts/RecoveryPegRate.sol\":966:1012  uint256 public constant ROUND_DELAY = 24 hours */\n    tag_19:\n      tag_85\n      tag_86\n      jump\t// in\n    tag_85:\n      mload(0x40)\n      tag_87\n      swap2\n      swap1\n      tag_33\n      jump\t// in\n    tag_87:\n      mload(0x40)\n      dup1\n      swap2\n      sub\n      swap1\n      return\n        /* \"contracts/RecoveryPegRate.sol\":862:899  uint256 public constant FEE_BPS = 100 */\n    tag_20:\n      tag_88\n      tag_89\n      jump\t// in\n    tag_88:\n      mload(0x40)\n      tag_90\n      swap2\n      swap1\n      tag_33\n      jump\t// in\n    tag_90:\n      mload(0x40)\n      dup1\n      swap2\n      sub\n      swap1\n      return\n        /* \"contracts/RecoveryPegRate.sol\":1889:1985  function setRefundToken(address _usdc) external onlyOwner {... */\n    tag_21:\n      tag_91\n      0x04\n      dup1\n      calldatasize\n      sub\n      dup2\n      add\n      swap1\n      tag_92\n      swap2\n      swap1\n      tag_51\n      jump\t// in\n    tag_92:\n      tag_93\n      jump\t// in\n    tag_91:\n      stop\n        /* \"https://raw.githubusercontent.com/OpenZeppelin/openzeppelin-contracts/refs/tags/v4.9.3/contracts/access/Ownable.sol\":2074:2272  function transferOwnership(address newOwner) public virtual onlyOwner {... */\n    tag_22:\n      tag_94\n      0x04\n      dup1\n      calldatasize\n      sub\n      dup2\n      add\n      swap1\n      tag_95\n      swap2\n      swap1\n      tag_51\n      jump\t// in\n    tag_95:\n      tag_96\n      jump\t// in\n    tag_94:\n      stop\n        /* \"contracts/RecoveryPegRate.sol\":1993:2077  function lock(bool _status) external onlyOwner {... */\n    tag_29:\n        /* \"https://raw.githubusercontent.com/OpenZeppelin/openzeppelin-contracts/refs/tags/v4.9.3/contracts/access/Ownable.sol\":1094:1107  _checkOwner() */\n      tag_98\n        /* \"https://raw.githubusercontent.com/OpenZeppelin/openzeppelin-contracts/refs/tags/v4.9.3/contracts/access/Ownable.sol\":1094:1105  _checkOwner */\n      tag_99\n        /* \"https://raw.githubusercontent.com/OpenZeppelin/openzeppelin-contracts/refs/tags/v4.9.3/contracts/access/Ownable.sol\":1094:1107  _checkOwner() */\n      jump\t// in\n    tag_98:\n        /* \"contracts/RecoveryPegRate.sol\":2062:2069  _status */\n      dup1\n        /* \"contracts/RecoveryPegRate.sol\":2051:2059  isLocked */\n      0x06\n      0x00\n        /* \"contracts/RecoveryPegRate.sol\":2051:2069  isLocked = _status */\n      0x0100\n      exp\n      dup2\n      sload\n      dup2\n      0xff\n      mul\n      not\n      and\n      swap1\n      dup4\n      iszero\n      iszero\n      mul\n      or\n      swap1\n      sstore\n      pop\n        /* \"contracts/RecoveryPegRate.sol\":1993:2077  function lock(bool _status) external onlyOwner {... */\n      pop\n      jump\t// out\n        /* \"contracts/RecoveryPegRate.sol\":1019:1075  uint256 public constant WALLET_RESET_INTERVAL = 48 hours */\n    tag_31:\n        /* \"contracts/RecoveryPegRate.sol\":1067:1075  48 hours */\n      0x02a300\n        /* \"contracts/RecoveryPegRate.sol\":1019:1075  uint256 public constant WALLET_RESET_INTERVAL = 48 hours */\n      dup2\n      jump\t// out\n        /* \"contracts/RecoveryPegRate.sol\":2528:3445  function redeem(... */\n    tag_37:\n        /* \"contracts/RecoveryPegRate.sol\":1612:1620  isLocked */\n      0x06\n      0x00\n      swap1\n      sload\n      swap1\n      0x0100\n      exp\n      swap1\n      div\n      0xff\n      and\n        /* \"contracts/RecoveryPegRate.sol\":1611:1620  !isLocked */\n      iszero\n        /* \"contracts/RecoveryPegRate.sol\":1603:1643  require(!isLocked, \"Contract is locked\") */\n      tag_102\n      jumpi\n      mload(0x40)\n      0x08c379a000000000000000000000000000000000000000000000000000000000\n      dup2\n      mstore\n      0x04\n      add\n      tag_103\n      swap1\n      tag_104\n      jump\t// in\n    tag_103:\n      mload(0x40)\n      dup1\n      swap2\n      sub\n      swap1\n      revert\n    tag_102:\n        /* \"contracts/RecoveryPegRate.sol\":1681:1691  roundStart */\n      sload(0x04)\n        /* \"contracts/RecoveryPegRate.sol\":1662:1677  block.timestamp */\n      timestamp\n        /* \"contracts/RecoveryPegRate.sol\":1662:1691  block.timestamp >= roundStart */\n      lt\n      iszero\n        /* \"contracts/RecoveryPegRate.sol\":1654:1713  require(block.timestamp >= roundStart, \"Round not started\") */\n      tag_105\n      jumpi\n      mload(0x40)\n      0x08c379a000000000000000000000000000000000000000000000000000000000\n      dup2\n      mstore\n      0x04\n      add\n      tag_106\n      swap1\n      tag_107\n      jump\t// in\n    tag_106:\n      mload(0x40)\n      dup1\n      swap2\n      sub\n      swap1\n      revert\n    tag_105:\n        /* \"contracts/RecoveryPegRate.sol\":1745:1746  0 */\n      0x00\n        /* \"contracts/RecoveryPegRate.sol\":1732:1742  roundFunds */\n      sload(0x05)\n        /* \"contracts/RecoveryPegRate.sol\":1732:1746  roundFunds > 0 */\n      gt\n        /* \"contracts/RecoveryPegRate.sol\":1724:1759  require(roundFunds > 0, \"No funds\") */\n      tag_108\n      jumpi\n      mload(0x40)\n      0x08c379a000000000000000000000000000000000000000000000000000000000\n      dup2\n      mstore\n      0x04\n      add\n      tag_109\n      swap1\n      tag_110\n      jump\t// in\n    tag_109:\n      mload(0x40)\n      dup1\n      swap2\n      sub\n      swap1\n      revert\n    tag_108:\n        /* \"contracts/RecoveryPegRate.sol\":2676:2681  proof */\n      dup2\n      dup2\n        /* \"contracts/RecoveryPegRate.sol\":1486:1521  _verifyWhitelist(msg.sender, proof) */\n      tag_112\n        /* \"contracts/RecoveryPegRate.sol\":1503:1513  msg.sender */\n      caller\n        /* \"contracts/RecoveryPegRate.sol\":1515:1520  proof */\n      dup4\n      dup4\n        /* \"contracts/RecoveryPegRate.sol\":1486:1502  _verifyWhitelist */\n      tag_113\n        /* \"contracts/RecoveryPegRate.sol\":1486:1521  _verifyWhitelist(msg.sender, proof) */\n      jump\t// in\n    tag_112:\n        /* \"contracts/RecoveryPegRate.sol\":1478:1541  require(_verifyWhitelist(msg.sender, proof), \"Not whitelisted\") */\n      tag_114\n      jumpi\n      mload(0x40)\n      0x08c379a000000000000000000000000000000000000000000000000000000000\n      dup2\n      mstore\n      0x04\n      add\n      tag_115\n      swap1\n      tag_116\n      jump\t// in\n    tag_115:\n      mload(0x40)\n      dup1\n      swap2\n      sub\n      swap1\n      revert\n    tag_114:\n        /* \"contracts/RecoveryPegRate.sol\":2713:2714  0 */\n      0x00\n        /* \"contracts/RecoveryPegRate.sol\":2702:2710  amountIn */\n      dup6\n        /* \"contracts/RecoveryPegRate.sol\":2702:2714  amountIn > 0 */\n      gt\n        /* \"contracts/RecoveryPegRate.sol\":2694:2733  require(amountIn > 0, \"Invalid amount\") */\n      tag_118\n      jumpi\n      mload(0x40)\n      0x08c379a000000000000000000000000000000000000000000000000000000000\n      dup2\n      mstore\n      0x04\n      add\n      tag_119\n      swap1\n      tag_120\n      jump\t// in\n    tag_119:\n      mload(0x40)\n      dup1\n      swap2\n      sub\n      swap1\n      revert\n    tag_118:\n        /* \"contracts/RecoveryPegRate.sol\":2759:2766  tokenIn */\n      dup6\n        /* \"contracts/RecoveryPegRate.sol\":2752:2780  IERC20(tokenIn).transferFrom */\n      0xffffffffffffffffffffffffffffffffffffffff\n      and\n      0x23b872dd\n        /* \"contracts/RecoveryPegRate.sol\":2781:2791  msg.sender */\n      caller\n        /* \"contracts/RecoveryPegRate.sol\":2801:2805  this */\n      address\n        /* \"contracts/RecoveryPegRate.sol\":2808:2816  amountIn */\n      dup9\n        /* \"contracts/RecoveryPegRate.sol\":2752:2817  IERC20(tokenIn).transferFrom(msg.sender, address(this), amountIn) */\n      mload(0x40)\n      dup5\n      0xffffffff\n      and\n      0xe0\n      shl\n      dup2\n      mstore\n      0x04\n      add\n      tag_121\n      swap4\n      swap3\n      swap2\n      swap1\n      tag_122\n      jump\t// in\n    tag_121:\n      0x20\n      mload(0x40)\n      dup1\n      dup4\n      sub\n      dup2\n      0x00\n      dup8\n      gas\n      call\n      iszero\n      dup1\n      iszero\n      tag_124\n      jumpi\n      returndatasize\n      0x00\n      dup1\n      returndatacopy\n      revert(0x00, returndatasize)\n    tag_124:\n      pop\n      pop\n      pop\n      pop\n      mload(0x40)\n      returndatasize\n      not(0x1f)\n      0x1f\n      dup3\n      add\n      and\n      dup3\n      add\n      dup1\n      0x40\n      mstore\n      pop\n      dup2\n      add\n      swap1\n      tag_125\n      swap2\n      swap1\n      tag_126\n      jump\t// in\n    tag_125:\n        /* \"contracts/RecoveryPegRate.sol\":2744:2837  require(IERC20(tokenIn).transferFrom(msg.sender, address(this), amountIn), \"Transfer failed\") */\n      tag_127\n      jumpi\n      mload(0x40)\n      0x08c379a000000000000000000000000000000000000000000000000000000000\n      dup2\n      mstore\n      0x04\n      add\n      tag_128\n      swap1\n      tag_129\n      jump\t// in\n    tag_128:\n      mload(0x40)\n      dup1\n      swap2\n      sub\n      swap1\n      revert\n    tag_127:\n        /* \"contracts/RecoveryPegRate.sol\":2850:2876  _resetIfNeeded(msg.sender) */\n      tag_130\n        /* \"contracts/RecoveryPegRate.sol\":2865:2875  msg.sender */\n      caller\n        /* \"contracts/RecoveryPegRate.sol\":2850:2864  _resetIfNeeded */\n      tag_131\n        /* \"contracts/RecoveryPegRate.sol\":2850:2876  _resetIfNeeded(msg.sender) */\n      jump\t// in\n    tag_130:\n        /* \"contracts/RecoveryPegRate.sol\":954:959  200e6 */\n      0x0bebc200\n        /* \"contracts/RecoveryPegRate.sol\":2939:2947  amountIn */\n      dup6\n        /* \"contracts/RecoveryPegRate.sol\":2895:2910  redeemedInRound */\n      0x07\n        /* \"contracts/RecoveryPegRate.sol\":2895:2924  redeemedInRound[currentRound] */\n      0x00\n        /* \"contracts/RecoveryPegRate.sol\":2911:2923  currentRound */\n      sload(0x03)\n        /* \"contracts/RecoveryPegRate.sol\":2895:2924  redeemedInRound[currentRound] */\n      dup2\n      mstore\n      0x20\n      add\n      swap1\n      dup2\n      mstore\n      0x20\n      add\n      0x00\n      keccak256\n        /* \"contracts/RecoveryPegRate.sol\":2895:2936  redeemedInRound[currentRound][msg.sender] */\n      0x00\n        /* \"contracts/RecoveryPegRate.sol\":2925:2935  msg.sender */\n      caller\n        /* \"contracts/RecoveryPegRate.sol\":2895:2936  redeemedInRound[currentRound][msg.sender] */\n      0xffffffffffffffffffffffffffffffffffffffff\n      and\n      0xffffffffffffffffffffffffffffffffffffffff\n      and\n      dup2\n      mstore\n      0x20\n      add\n      swap1\n      dup2\n      mstore\n      0x20\n      add\n      0x00\n      keccak256\n      sload\n        /* \"contracts/RecoveryPegRate.sol\":2895:2947  redeemedInRound[currentRound][msg.sender] + amountIn */\n      tag_132\n      swap2\n      swap1\n      tag_133\n      jump\t// in\n    tag_132:\n        /* \"contracts/RecoveryPegRate.sol\":2895:2972  redeemedInRound[currentRound][msg.sender] + amountIn <= MAX_REDEEM_PER_WALLET */\n      gt\n      iszero\n        /* \"contracts/RecoveryPegRate.sol\":2887:2990  require(redeemedInRound[currentRound][msg.sender] + amountIn <= MAX_REDEEM_PER_WALLET, \"Exceeds limit\") */\n      tag_134\n      jumpi\n      mload(0x40)\n      0x08c379a000000000000000000000000000000000000000000000000000000000\n      dup2\n      mstore\n      0x04\n      add\n      tag_135\n      swap1\n      tag_136\n      jump\t// in\n    tag_135:\n      mload(0x40)\n      dup1\n      swap2\n      sub\n      swap1\n      revert\n    tag_134:\n        /* \"contracts/RecoveryPegRate.sol\":3003:3014  uint256 fee */\n      0x00\n        /* \"contracts/RecoveryPegRate.sol\":3040:3046  10_000 */\n      0x2710\n        /* \"contracts/RecoveryPegRate.sol\":896:899  100 */\n      0x64\n        /* \"contracts/RecoveryPegRate.sol\":3018:3026  amountIn */\n      dup8\n        /* \"contracts/RecoveryPegRate.sol\":3018:3036  amountIn * FEE_BPS */\n      tag_137\n      swap2\n      swap1\n      tag_138\n      jump\t// in\n    tag_137:\n        /* \"contracts/RecoveryPegRate.sol\":3017:3046  (amountIn * FEE_BPS) / 10_000 */\n      tag_139\n      swap2\n      swap1\n      tag_140\n      jump\t// in\n    tag_139:\n        /* \"contracts/RecoveryPegRate.sol\":3003:3046  uint256 fee = (amountIn * FEE_BPS) / 10_000 */\n      swap1\n      pop\n        /* \"contracts/RecoveryPegRate.sol\":3057:3077  uint256 refundAmount */\n      0x00\n        /* \"contracts/RecoveryPegRate.sol\":3091:3094  fee */\n      dup2\n        /* \"contracts/RecoveryPegRate.sol\":3080:3088  amountIn */\n      dup8\n        /* \"contracts/RecoveryPegRate.sol\":3080:3094  amountIn - fee */\n      tag_141\n      swap2\n      swap1\n      tag_142\n      jump\t// in\n    tag_141:\n        /* \"contracts/RecoveryPegRate.sol\":3057:3094  uint256 refundAmount = amountIn - fee */\n      swap1\n      pop\n        /* \"contracts/RecoveryPegRate.sol\":3150:3158  amountIn */\n      dup7\n        /* \"contracts/RecoveryPegRate.sol\":3105:3120  redeemedInRound */\n      0x07\n        /* \"contracts/RecoveryPegRate.sol\":3105:3134  redeemedInRound[currentRound] */\n      0x00\n        /* \"contracts/RecoveryPegRate.sol\":3121:3133  currentRound */\n      sload(0x03)\n        /* \"contracts/RecoveryPegRate.sol\":3105:3134  redeemedInRound[currentRound] */\n      dup2\n      mstore\n      0x20\n      add\n      swap1\n      dup2\n      mstore\n      0x20\n      add\n      0x00\n      keccak256\n        /* \"contracts/RecoveryPegRate.sol\":3105:3146  redeemedInRound[currentRound][msg.sender] */\n      0x00\n        /* \"contracts/RecoveryPegRate.sol\":3135:3145  msg.sender */\n      caller\n        /* \"contracts/RecoveryPegRate.sol\":3105:3146  redeemedInRound[currentRound][msg.sender] */\n      0xffffffffffffffffffffffffffffffffffffffff\n      and\n      0xffffffffffffffffffffffffffffffffffffffff\n      and\n      dup2\n      mstore\n      0x20\n      add\n      swap1\n      dup2\n      mstore\n      0x20\n      add\n      0x00\n      keccak256\n      0x00\n        /* \"contracts/RecoveryPegRate.sol\":3105:3158  redeemedInRound[currentRound][msg.sender] += amountIn */\n      dup3\n      dup3\n      sload\n      tag_143\n      swap2\n      swap1\n      tag_133\n      jump\t// in\n    tag_143:\n      swap3\n      pop\n      pop\n      dup2\n      swap1\n      sstore\n      pop\n        /* \"contracts/RecoveryPegRate.sol\":3183:3195  refundAmount */\n      dup1\n        /* \"contracts/RecoveryPegRate.sol\":3169:3179  roundFunds */\n      0x05\n      0x00\n        /* \"contracts/RecoveryPegRate.sol\":3169:3195  roundFunds -= refundAmount */\n      dup3\n      dup3\n      sload\n      tag_144\n      swap2\n      swap1\n      tag_142\n      jump\t// in\n    tag_144:\n      swap3\n      pop\n      pop\n      dup2\n      swap1\n      sstore\n      pop\n        /* \"contracts/RecoveryPegRate.sol\":3223:3234  refundToken */\n      0x01\n      0x00\n      swap1\n      sload\n      swap1\n      0x0100\n      exp\n      swap1\n      div\n      0xffffffffffffffffffffffffffffffffffffffff\n      and\n        /* \"contracts/RecoveryPegRate.sol\":3216:3244  IERC20(refundToken).transfer */\n      0xffffffffffffffffffffffffffffffffffffffff\n      and\n      0xa9059cbb\n        /* \"contracts/RecoveryPegRate.sol\":3245:3255  msg.sender */\n      caller\n        /* \"contracts/RecoveryPegRate.sol\":3257:3269  refundAmount */\n      dup4\n        /* \"contracts/RecoveryPegRate.sol\":3216:3270  IERC20(refundToken).transfer(msg.sender, refundAmount) */\n      mload(0x40)\n      dup4\n      0xffffffff\n      and\n      0xe0\n      shl\n      dup2\n      mstore\n      0x04\n      add\n      tag_145\n      swap3\n      swap2\n      swap1\n      tag_146\n      jump\t// in\n    tag_145:\n      0x20\n      mload(0x40)\n      dup1\n      dup4\n      sub\n      dup2\n      0x00\n      dup8\n      gas\n      call\n      iszero\n      dup1\n      iszero\n      tag_148\n      jumpi\n      returndatasize\n      0x00\n      dup1\n      returndatacopy\n      revert(0x00, returndatasize)\n    tag_148:\n      pop\n      pop\n      pop\n      pop\n      mload(0x40)\n      returndatasize\n      not(0x1f)\n      0x1f\n      dup3\n      add\n      and\n      dup3\n      add\n      dup1\n      0x40\n      mstore\n      pop\n      dup2\n      add\n      swap1\n      tag_149\n      swap2\n      swap1\n      tag_126\n      jump\t// in\n    tag_149:\n        /* \"contracts/RecoveryPegRate.sol\":3208:3288  require(IERC20(refundToken).transfer(msg.sender, refundAmount), \"Refund failed\") */\n      tag_150\n      jumpi\n      mload(0x40)\n      0x08c379a000000000000000000000000000000000000000000000000000000000\n      dup2\n      mstore\n      0x04\n      add\n      tag_151\n      swap1\n      tag_152\n      jump\t// in\n    tag_151:\n      mload(0x40)\n      dup1\n      swap2\n      sub\n      swap1\n      revert\n    tag_150:\n        /* \"contracts/RecoveryPegRate.sol\":3316:3323  tokenIn */\n      dup8\n        /* \"contracts/RecoveryPegRate.sol\":3306:3361  BurnToken(tokenIn, amountIn, refundToken, refundAmount) */\n      0xffffffffffffffffffffffffffffffffffffffff\n      and\n      0xf0c71be01e59205b10ea5ae42439ab4504c7e3da732743531ff44e98bd9fd63f\n        /* \"contracts/RecoveryPegRate.sol\":3325:3333  amountIn */\n      dup9\n        /* \"contracts/RecoveryPegRate.sol\":3335:3346  refundToken */\n      0x01\n      0x00\n      swap1\n      sload\n      swap1\n      0x0100\n      exp\n      swap1\n      div\n      0xffffffffffffffffffffffffffffffffffffffff\n      and\n        /* \"contracts/RecoveryPegRate.sol\":3348:3360  refundAmount */\n      dup5\n        /* \"contracts/RecoveryPegRate.sol\":3306:3361  BurnToken(tokenIn, amountIn, refundToken, refundAmount) */\n      mload(0x40)\n      tag_153\n      swap4\n      swap3\n      swap2\n      swap1\n      tag_154\n      jump\t// in\n    tag_153:\n      mload(0x40)\n      dup1\n      swap2\n      sub\n      swap1\n      log2\n        /* \"contracts/RecoveryPegRate.sol\":3405:3412  tokenIn */\n      dup8\n        /* \"contracts/RecoveryPegRate.sol\":3377:3437  RedeemProcessed(msg.sender, tokenIn, amountIn, refundAmount) */\n      0xffffffffffffffffffffffffffffffffffffffff\n      and\n        /* \"contracts/RecoveryPegRate.sol\":3393:3403  msg.sender */\n      caller\n        /* \"contracts/RecoveryPegRate.sol\":3377:3437  RedeemProcessed(msg.sender, tokenIn, amountIn, refundAmount) */\n      0xffffffffffffffffffffffffffffffffffffffff\n      and\n      0xc7e914640e860fbcf42ef4d9dceced8880d343828101f1fa389c7e1c06072817\n        /* \"contracts/RecoveryPegRate.sol\":3414:3422  amountIn */\n      dup10\n        /* \"contracts/RecoveryPegRate.sol\":3424:3436  refundAmount */\n      dup5\n        /* \"contracts/RecoveryPegRate.sol\":3377:3437  RedeemProcessed(msg.sender, tokenIn, amountIn, refundAmount) */\n      mload(0x40)\n      tag_155\n      swap3\n      swap2\n      swap1\n      tag_156\n      jump\t// in\n    tag_155:\n      mload(0x40)\n      dup1\n      swap2\n      sub\n      swap1\n      log3\n        /* \"contracts/RecoveryPegRate.sol\":2683:3445  {... */\n      pop\n      pop\n        /* \"contracts/RecoveryPegRate.sol\":1770:1771  _ */\n      pop\n      pop\n        /* \"contracts/RecoveryPegRate.sol\":2528:3445  function redeem(... */\n      pop\n      pop\n      pop\n      pop\n      jump\t// out\n        /* \"contracts/RecoveryPegRate.sol\":1117:1142  bytes32 public merkleRoot */\n    tag_39:\n      sload(0x02)\n      dup2\n      jump\t// out\n        /* \"contracts/RecoveryPegRate.sol\":1183:1208  uint256 public roundStart */\n    tag_43:\n      sload(0x04)\n      dup2\n      jump\t// out\n        /* \"contracts/RecoveryPegRate.sol\":2085:2520  function startNewRound(uint256 _roundId) external onlyOwner {... */\n    tag_48:\n        /* \"https://raw.githubusercontent.com/OpenZeppelin/openzeppelin-contracts/refs/tags/v4.9.3/contracts/access/Ownable.sol\":1094:1107  _checkOwner() */\n      tag_158\n        /* \"https://raw.githubusercontent.com/OpenZeppelin/openzeppelin-contracts/refs/tags/v4.9.3/contracts/access/Ownable.sol\":1094:1105  _checkOwner */\n      tag_99\n        /* \"https://raw.githubusercontent.com/OpenZeppelin/openzeppelin-contracts/refs/tags/v4.9.3/contracts/access/Ownable.sol\":1094:1107  _checkOwner() */\n      jump\t// in\n    tag_158:\n        /* \"contracts/RecoveryPegRate.sol\":2175:2187  currentRound */\n      sload(0x03)\n        /* \"contracts/RecoveryPegRate.sol\":2164:2172  _roundId */\n      dup2\n        /* \"contracts/RecoveryPegRate.sol\":2164:2187  _roundId > currentRound */\n      gt\n        /* \"contracts/RecoveryPegRate.sol\":2156:2214  require(_roundId > currentRound, \"Round ID must increase\") */\n      tag_160\n      jumpi\n      mload(0x40)\n      0x08c379a000000000000000000000000000000000000000000000000000000000\n      dup2\n      mstore\n      0x04\n      add\n      tag_161\n      swap1\n      tag_162\n      jump\t// in\n    tag_161:\n      mload(0x40)\n      dup1\n      swap2\n      sub\n      swap1\n      revert\n    tag_160:\n        /* \"contracts/RecoveryPegRate.sol\":2225:2240  uint256 balance */\n      0x00\n        /* \"contracts/RecoveryPegRate.sol\":2250:2261  refundToken */\n      0x01\n      0x00\n      swap1\n      sload\n      swap1\n      0x0100\n      exp\n      swap1\n      div\n      0xffffffffffffffffffffffffffffffffffffffff\n      and\n        /* \"contracts/RecoveryPegRate.sol\":2243:2272  IERC20(refundToken).balanceOf */\n      0xffffffffffffffffffffffffffffffffffffffff\n      and\n      0x70a08231\n        /* \"contracts/RecoveryPegRate.sol\":2281:2285  this */\n      address\n        /* \"contracts/RecoveryPegRate.sol\":2243:2287  IERC20(refundToken).balanceOf(address(this)) */\n      mload(0x40)\n      dup3\n      0xffffffff\n      and\n      0xe0\n      shl\n      dup2\n      mstore\n      0x04\n      add\n      tag_163\n      swap2\n      swap1\n      tag_57\n      jump\t// in\n    tag_163:\n      0x20\n      mload(0x40)\n      dup1\n      dup4\n      sub\n      dup2\n      dup7\n      gas\n      staticcall\n      iszero\n      dup1\n      iszero\n      tag_165\n      jumpi\n      returndatasize\n      0x00\n      dup1\n      returndatacopy\n      revert(0x00, returndatasize)\n    tag_165:\n      pop\n      pop\n      pop\n      pop\n      mload(0x40)\n      returndatasize\n      not(0x1f)\n      0x1f\n      dup3\n      add\n      and\n      dup3\n      add\n      dup1\n      0x40\n      mstore\n      pop\n      dup2\n      add\n      swap1\n      tag_166\n      swap2\n      swap1\n      tag_167\n      jump\t// in\n    tag_166:\n        /* \"contracts/RecoveryPegRate.sol\":2225:2287  uint256 balance = IERC20(refundToken).balanceOf(address(this)) */\n      swap1\n      pop\n        /* \"contracts/RecoveryPegRate.sol\":2316:2317  0 */\n      0x00\n        /* \"contracts/RecoveryPegRate.sol\":2306:2313  balance */\n      dup2\n        /* \"contracts/RecoveryPegRate.sol\":2306:2317  balance > 0 */\n      gt\n        /* \"contracts/RecoveryPegRate.sol\":2298:2329  require(balance > 0, \"No USDC\") */\n      tag_168\n      jumpi\n      mload(0x40)\n      0x08c379a000000000000000000000000000000000000000000000000000000000\n      dup2\n      mstore\n      0x04\n      add\n      tag_169\n      swap1\n      tag_170\n      jump\t// in\n    tag_169:\n      mload(0x40)\n      dup1\n      swap2\n      sub\n      swap1\n      revert\n    tag_168:\n        /* \"contracts/RecoveryPegRate.sol\":2355:2363  _roundId */\n      dup2\n        /* \"contracts/RecoveryPegRate.sol\":2340:2352  currentRound */\n      0x03\n        /* \"contracts/RecoveryPegRate.sol\":2340:2363  currentRound = _roundId */\n      dup2\n      swap1\n      sstore\n      pop\n        /* \"contracts/RecoveryPegRate.sol\":2387:2394  balance */\n      dup1\n        /* \"contracts/RecoveryPegRate.sol\":2374:2384  roundFunds */\n      0x05\n        /* \"contracts/RecoveryPegRate.sol\":2374:2394  roundFunds = balance */\n      dup2\n      swap1\n      sstore\n      pop\n        /* \"contracts/RecoveryPegRate.sol\":1004:1012  24 hours */\n      0x015180\n        /* \"contracts/RecoveryPegRate.sol\":2418:2433  block.timestamp */\n      timestamp\n        /* \"contracts/RecoveryPegRate.sol\":2418:2447  block.timestamp + ROUND_DELAY */\n      tag_171\n      swap2\n      swap1\n      tag_133\n      jump\t// in\n    tag_171:\n        /* \"contracts/RecoveryPegRate.sol\":2405:2415  roundStart */\n      0x04\n        /* \"contracts/RecoveryPegRate.sol\":2405:2447  roundStart = block.timestamp + ROUND_DELAY */\n      dup2\n      swap1\n      sstore\n      pop\n        /* \"contracts/RecoveryPegRate.sol\":2463:2512  NewRoundStarted(_roundId, roundFunds, roundStart) */\n      0xb0b0c60f0267584d50a65485b5eff6babad43c5727703515fde33bb545b19114\n        /* \"contracts/RecoveryPegRate.sol\":2479:2487  _roundId */\n      dup3\n        /* \"contracts/RecoveryPegRate.sol\":2489:2499  roundFunds */\n      sload(0x05)\n        /* \"contracts/RecoveryPegRate.sol\":2501:2511  roundStart */\n      sload(0x04)\n        /* \"contracts/RecoveryPegRate.sol\":2463:2512  NewRoundStarted(_roundId, roundFunds, roundStart) */\n      mload(0x40)\n      tag_172\n      swap4\n      swap3\n      swap2\n      swap1\n      tag_173\n      jump\t// in\n    tag_172:\n      mload(0x40)\n      dup1\n      swap2\n      sub\n      swap1\n      log1\n        /* \"contracts/RecoveryPegRate.sol\":2145:2520  {... */\n      pop\n        /* \"contracts/RecoveryPegRate.sol\":2085:2520  function startNewRound(uint256 _roundId) external onlyOwner {... */\n      pop\n      jump\t// out\n        /* \"contracts/RecoveryPegRate.sol\":1353:1407  mapping(address => uint256) public lastRedeemTimestamp */\n    tag_52:\n      mstore(0x20, 0x08)\n      dup1\n      0x00\n      mstore\n      keccak256(0x00, 0x40)\n      0x00\n      swap2\n      pop\n      swap1\n      pop\n      sload\n      dup2\n      jump\t// out\n        /* \"contracts/RecoveryPegRate.sol\":1084:1110  address public refundToken */\n    tag_55:\n      0x01\n      0x00\n      swap1\n      sload\n      swap1\n      0x0100\n      exp\n      swap1\n      div\n      0xffffffffffffffffffffffffffffffffffffffff\n      and\n      dup2\n      jump\t// out\n        /* \"contracts/RecoveryPegRate.sol\":1215:1240  uint256 public roundFunds */\n    tag_59:\n      sload(0x05)\n      dup2\n      jump\t// out\n        /* \"https://raw.githubusercontent.com/OpenZeppelin/openzeppelin-contracts/refs/tags/v4.9.3/contracts/access/Ownable.sol\":1824:1925  function renounceOwnership() public virtual onlyOwner {... */\n    tag_62:\n        /* \"https://raw.githubusercontent.com/OpenZeppelin/openzeppelin-contracts/refs/tags/v4.9.3/contracts/access/Ownable.sol\":1094:1107  _checkOwner() */\n      tag_175\n        /* \"https://raw.githubusercontent.com/OpenZeppelin/openzeppelin-contracts/refs/tags/v4.9.3/contracts/access/Ownable.sol\":1094:1105  _checkOwner */\n      tag_99\n        /* \"https://raw.githubusercontent.com/OpenZeppelin/openzeppelin-contracts/refs/tags/v4.9.3/contracts/access/Ownable.sol\":1094:1107  _checkOwner() */\n      jump\t// in\n    tag_175:\n        /* \"https://raw.githubusercontent.com/OpenZeppelin/openzeppelin-contracts/refs/tags/v4.9.3/contracts/access/Ownable.sol\":1888:1918  _transferOwnership(address(0)) */\n      tag_177\n        /* \"https://raw.githubusercontent.com/OpenZeppelin/openzeppelin-contracts/refs/tags/v4.9.3/contracts/access/Ownable.sol\":1915:1916  0 */\n      0x00\n        /* \"https://raw.githubusercontent.com/OpenZeppelin/openzeppelin-contracts/refs/tags/v4.9.3/contracts/access/Ownable.sol\":1888:1906  _transferOwnership */\n      tag_178\n        /* \"https://raw.githubusercontent.com/OpenZeppelin/openzeppelin-contracts/refs/tags/v4.9.3/contracts/access/Ownable.sol\":1888:1918  _transferOwnership(address(0)) */\n      jump\t// in\n    tag_177:\n        /* \"https://raw.githubusercontent.com/OpenZeppelin/openzeppelin-contracts/refs/tags/v4.9.3/contracts/access/Ownable.sol\":1824:1925  function renounceOwnership() public virtual onlyOwner {... */\n      jump\t// out\n        /* \"contracts/RecoveryPegRate.sol\":1276:1346  mapping(uint256 => mapping(address => uint256)) public redeemedInRound */\n    tag_66:\n      mstore(0x20, 0x07)\n      dup2\n      0x00\n      mstore\n      mstore(0x20, keccak256(0x00, 0x40))\n      dup1\n      0x00\n      mstore\n      keccak256(0x00, 0x40)\n      0x00\n      swap2\n      pop\n      swap2\n      pop\n      pop\n      sload\n      dup2\n      jump\t// out\n        /* \"contracts/RecoveryPegRate.sol\":1787:1881  function setMerkleRoot(bytes32 _root) external onlyOwner {... */\n    tag_71:\n        /* \"https://raw.githubusercontent.com/OpenZeppelin/openzeppelin-contracts/refs/tags/v4.9.3/contracts/access/Ownable.sol\":1094:1107  _checkOwner() */\n      tag_180\n        /* \"https://raw.githubusercontent.com/OpenZeppelin/openzeppelin-contracts/refs/tags/v4.9.3/contracts/access/Ownable.sol\":1094:1105  _checkOwner */\n      tag_99\n        /* \"https://raw.githubusercontent.com/OpenZeppelin/openzeppelin-contracts/refs/tags/v4.9.3/contracts/access/Ownable.sol\":1094:1107  _checkOwner() */\n      jump\t// in\n    tag_180:\n        /* \"contracts/RecoveryPegRate.sol\":1868:1873  _root */\n      dup1\n        /* \"contracts/RecoveryPegRate.sol\":1855:1865  merkleRoot */\n      0x02\n        /* \"contracts/RecoveryPegRate.sol\":1855:1873  merkleRoot = _root */\n      dup2\n      swap1\n      sstore\n      pop\n        /* \"contracts/RecoveryPegRate.sol\":1787:1881  function setMerkleRoot(bytes32 _root) external onlyOwner {... */\n      pop\n      jump\t// out\n        /* \"contracts/RecoveryPegRate.sol\":1149:1176  uint256 public currentRound */\n    tag_73:\n      sload(0x03)\n      dup2\n      jump\t// out\n        /* \"https://raw.githubusercontent.com/OpenZeppelin/openzeppelin-contracts/refs/tags/v4.9.3/contracts/access/Ownable.sol\":1201:1286  function owner() public view virtual returns (address) {... */\n    tag_76:\n        /* \"https://raw.githubusercontent.com/OpenZeppelin/openzeppelin-contracts/refs/tags/v4.9.3/contracts/access/Ownable.sol\":1247:1254  address */\n      0x00\n        /* \"https://raw.githubusercontent.com/OpenZeppelin/openzeppelin-contracts/refs/tags/v4.9.3/contracts/access/Ownable.sol\":1273:1279  _owner */\n      dup1\n      0x00\n      swap1\n      sload\n      swap1\n      0x0100\n      exp\n      swap1\n      div\n      0xffffffffffffffffffffffffffffffffffffffff\n      and\n        /* \"https://raw.githubusercontent.com/OpenZeppelin/openzeppelin-contracts/refs/tags/v4.9.3/contracts/access/Ownable.sol\":1266:1279  return _owner */\n      swap1\n      pop\n        /* \"https://raw.githubusercontent.com/OpenZeppelin/openzeppelin-contracts/refs/tags/v4.9.3/contracts/access/Ownable.sol\":1201:1286  function owner() public view virtual returns (address) {... */\n      swap1\n      jump\t// out\n        /* \"contracts/RecoveryPegRate.sol\":1247:1267  bool public isLocked */\n    tag_79:\n      0x06\n      0x00\n      swap1\n      sload\n      swap1\n      0x0100\n      exp\n      swap1\n      div\n      0xff\n      and\n      dup2\n      jump\t// out\n        /* \"contracts/RecoveryPegRate.sol\":906:959  uint256 public constant MAX_REDEEM_PER_WALLET = 200e6 */\n    tag_83:\n        /* \"contracts/RecoveryPegRate.sol\":954:959  200e6 */\n      0x0bebc200\n        /* \"contracts/RecoveryPegRate.sol\":906:959  uint256 public constant MAX_REDEEM_PER_WALLET = 200e6 */\n      dup2\n      jump\t// out\n        /* \"contracts/RecoveryPegRate.sol\":966:1012  uint256 public constant ROUND_DELAY = 24 hours */\n    tag_86:\n        /* \"contracts/RecoveryPegRate.sol\":1004:1012  24 hours */\n      0x015180\n        /* \"contracts/RecoveryPegRate.sol\":966:1012  uint256 public constant ROUND_DELAY = 24 hours */\n      dup2\n      jump\t// out\n        /* \"contracts/RecoveryPegRate.sol\":862:899  uint256 public constant FEE_BPS = 100 */\n    tag_89:\n        /* \"contracts/RecoveryPegRate.sol\":896:899  100 */\n      0x64\n        /* \"contracts/RecoveryPegRate.sol\":862:899  uint256 public constant FEE_BPS = 100 */\n      dup2\n      jump\t// out\n        /* \"contracts/RecoveryPegRate.sol\":1889:1985  function setRefundToken(address _usdc) external onlyOwner {... */\n    tag_93:\n        /* \"https://raw.githubusercontent.com/OpenZeppelin/openzeppelin-contracts/refs/tags/v4.9.3/contracts/access/Ownable.sol\":1094:1107  _checkOwner() */\n      tag_184\n        /* \"https://raw.githubusercontent.com/OpenZeppelin/openzeppelin-contracts/refs/tags/v4.9.3/contracts/access/Ownable.sol\":1094:1105  _checkOwner */\n      tag_99\n        /* \"https://raw.githubusercontent.com/OpenZeppelin/openzeppelin-contracts/refs/tags/v4.9.3/contracts/access/Ownable.sol\":1094:1107  _checkOwner() */\n      jump\t// in\n    tag_184:\n        /* \"contracts/RecoveryPegRate.sol\":1972:1977  _usdc */\n      dup1\n        /* \"contracts/RecoveryPegRate.sol\":1958:1969  refundToken */\n      0x01\n      0x00\n        /* \"contracts/RecoveryPegRate.sol\":1958:1977  refundToken = _usdc */\n      0x0100\n      exp\n      dup2\n      sload\n      dup2\n      0xffffffffffffffffffffffffffffffffffffffff\n      mul\n      not\n      and\n      swap1\n      dup4\n      0xffffffffffffffffffffffffffffffffffffffff\n      and\n      mul\n      or\n      swap1\n      sstore\n      pop\n        /* \"contracts/RecoveryPegRate.sol\":1889:1985  function setRefundToken(address _usdc) external onlyOwner {... */\n      pop\n      jump\t// out\n        /* \"https://raw.githubusercontent.com/OpenZeppelin/openzeppelin-contracts/refs/tags/v4.9.3/contracts/access/Ownable.sol\":2074:2272  function transferOwnership(address newOwner) public virtual onlyOwner {... */\n    tag_96:\n        /* \"https://raw.githubusercontent.com/OpenZeppelin/openzeppelin-contracts/refs/tags/v4.9.3/contracts/access/Ownable.sol\":1094:1107  _checkOwner() */\n      tag_187\n        /* \"https://raw.githubusercontent.com/OpenZeppelin/openzeppelin-contracts/refs/tags/v4.9.3/contracts/access/Ownable.sol\":1094:1105  _checkOwner */\n      tag_99\n        /* \"https://raw.githubusercontent.com/OpenZeppelin/openzeppelin-contracts/refs/tags/v4.9.3/contracts/access/Ownable.sol\":1094:1107  _checkOwner() */\n      jump\t// in\n    tag_187:\n        /* \"https://raw.githubusercontent.com/OpenZeppelin/openzeppelin-contracts/refs/tags/v4.9.3/contracts/access/Ownable.sol\":2182:2183  0 */\n      0x00\n        /* \"https://raw.githubusercontent.com/OpenZeppelin/openzeppelin-contracts/refs/tags/v4.9.3/contracts/access/Ownable.sol\":2162:2184  newOwner != address(0) */\n      0xffffffffffffffffffffffffffffffffffffffff\n      and\n        /* \"https://raw.githubusercontent.com/OpenZeppelin/openzeppelin-contracts/refs/tags/v4.9.3/contracts/access/Ownable.sol\":2162:2170  newOwner */\n      dup2\n        /* \"https://raw.githubusercontent.com/OpenZeppelin/openzeppelin-contracts/refs/tags/v4.9.3/contracts/access/Ownable.sol\":2162:2184  newOwner != address(0) */\n      0xffffffffffffffffffffffffffffffffffffffff\n      and\n      sub\n        /* \"https://raw.githubusercontent.com/OpenZeppelin/openzeppelin-contracts/refs/tags/v4.9.3/contracts/access/Ownable.sol\":2154:2227  require(newOwner != address(0), \"Ownable: new owner is the zero address\") */\n      tag_189\n      jumpi\n      mload(0x40)\n      0x08c379a000000000000000000000000000000000000000000000000000000000\n      dup2\n      mstore\n      0x04\n      add\n      tag_190\n      swap1\n      tag_191\n      jump\t// in\n    tag_190:\n      mload(0x40)\n      dup1\n      swap2\n      sub\n      swap1\n      revert\n    tag_189:\n        /* \"https://raw.githubusercontent.com/OpenZeppelin/openzeppelin-contracts/refs/tags/v4.9.3/contracts/access/Ownable.sol\":2237:2265  _transferOwnership(newOwner) */\n      tag_192\n        /* \"https://raw.githubusercontent.com/OpenZeppelin/openzeppelin-contracts/refs/tags/v4.9.3/contracts/access/Ownable.sol\":2256:2264  newOwner */\n      dup2\n        /* \"https://raw.githubusercontent.com/OpenZeppelin/openzeppelin-contracts/refs/tags/v4.9.3/contracts/access/Ownable.sol\":2237:2255  _transferOwnership */\n      tag_178\n        /* \"https://raw.githubusercontent.com/OpenZeppelin/openzeppelin-contracts/refs/tags/v4.9.3/contracts/access/Ownable.sol\":2237:2265  _transferOwnership(newOwner) */\n      jump\t// in\n    tag_192:\n        /* \"https://raw.githubusercontent.com/OpenZeppelin/openzeppelin-contracts/refs/tags/v4.9.3/contracts/access/Ownable.sol\":2074:2272  function transferOwnership(address newOwner) public virtual onlyOwner {... */\n      pop\n      jump\t// out\n        /* \"https://raw.githubusercontent.com/OpenZeppelin/openzeppelin-contracts/refs/tags/v4.9.3/contracts/access/Ownable.sol\":1359:1489  function _checkOwner() internal view virtual {... */\n    tag_99:\n        /* \"https://raw.githubusercontent.com/OpenZeppelin/openzeppelin-contracts/refs/tags/v4.9.3/contracts/access/Ownable.sol\":1433:1445  _msgSender() */\n      tag_194\n        /* \"https://raw.githubusercontent.com/OpenZeppelin/openzeppelin-contracts/refs/tags/v4.9.3/contracts/access/Ownable.sol\":1433:1443  _msgSender */\n      tag_195\n        /* \"https://raw.githubusercontent.com/OpenZeppelin/openzeppelin-contracts/refs/tags/v4.9.3/contracts/access/Ownable.sol\":1433:1445  _msgSender() */\n      jump\t// in\n    tag_194:\n        /* \"https://raw.githubusercontent.com/OpenZeppelin/openzeppelin-contracts/refs/tags/v4.9.3/contracts/access/Ownable.sol\":1422:1445  owner() == _msgSender() */\n      0xffffffffffffffffffffffffffffffffffffffff\n      and\n        /* \"https://raw.githubusercontent.com/OpenZeppelin/openzeppelin-contracts/refs/tags/v4.9.3/contracts/access/Ownable.sol\":1422:1429  owner() */\n      tag_196\n        /* \"https://raw.githubusercontent.com/OpenZeppelin/openzeppelin-contracts/refs/tags/v4.9.3/contracts/access/Ownable.sol\":1422:1427  owner */\n      tag_76\n        /* \"https://raw.githubusercontent.com/OpenZeppelin/openzeppelin-contracts/refs/tags/v4.9.3/contracts/access/Ownable.sol\":1422:1429  owner() */\n      jump\t// in\n    tag_196:\n        /* \"https://raw.githubusercontent.com/OpenZeppelin/openzeppelin-contracts/refs/tags/v4.9.3/contracts/access/Ownable.sol\":1422:1445  owner() == _msgSender() */\n      0xffffffffffffffffffffffffffffffffffffffff\n      and\n      eq\n        /* \"https://raw.githubusercontent.com/OpenZeppelin/openzeppelin-contracts/refs/tags/v4.9.3/contracts/access/Ownable.sol\":1414:1482  require(owner() == _msgSender(), \"Ownable: caller is not the owner\") */\n      tag_197\n      jumpi\n      mload(0x40)\n      0x08c379a000000000000000000000000000000000000000000000000000000000\n      dup2\n      mstore\n      0x04\n      add\n      tag_198\n      swap1\n      tag_199\n      jump\t// in\n    tag_198:\n      mload(0x40)\n      dup1\n      swap2\n      sub\n      swap1\n      revert\n    tag_197:\n        /* \"https://raw.githubusercontent.com/OpenZeppelin/openzeppelin-contracts/refs/tags/v4.9.3/contracts/access/Ownable.sol\":1359:1489  function _checkOwner() internal view virtual {... */\n      jump\t// out\n        /* \"contracts/RecoveryPegRate.sol\":3453:3646  function _verifyWhitelist(address user, bytes32[] calldata proof) internal view returns (bool) {... */\n    tag_113:\n        /* \"contracts/RecoveryPegRate.sol\":3542:3546  bool */\n      0x00\n        /* \"contracts/RecoveryPegRate.sol\":3566:3638  MerkleProof.verify(proof, merkleRoot, keccak256(abi.encodePacked(user))) */\n      tag_201\n        /* \"contracts/RecoveryPegRate.sol\":3585:3590  proof */\n      dup4\n      dup4\n        /* \"contracts/RecoveryPegRate.sol\":3566:3638  MerkleProof.verify(proof, merkleRoot, keccak256(abi.encodePacked(user))) */\n      dup1\n      dup1\n      0x20\n      mul\n      0x20\n      add\n      mload(0x40)\n      swap1\n      dup2\n      add\n      0x40\n      mstore\n      dup1\n      swap4\n      swap3\n      swap2\n      swap1\n      dup2\n      dup2\n      mstore\n      0x20\n      add\n      dup4\n      dup4\n      0x20\n      mul\n      dup1\n      dup3\n      dup5\n      calldatacopy\n      0x00\n      dup2\n      dup5\n      add\n      mstore\n      not(0x1f)\n      0x1f\n      dup3\n      add\n      and\n      swap1\n      pop\n      dup1\n      dup4\n      add\n      swap3\n      pop\n      pop\n      pop\n      pop\n      pop\n      pop\n      pop\n        /* \"contracts/RecoveryPegRate.sol\":3592:3602  merkleRoot */\n      sload(0x02)\n        /* \"contracts/RecoveryPegRate.sol\":3631:3635  user */\n      dup7\n        /* \"contracts/RecoveryPegRate.sol\":3614:3636  abi.encodePacked(user) */\n      add(0x20, mload(0x40))\n      tag_202\n      swap2\n      swap1\n      tag_203\n      jump\t// in\n    tag_202:\n      mload(0x40)\n      0x20\n      dup2\n      dup4\n      sub\n      sub\n      dup2\n      mstore\n      swap1\n      0x40\n      mstore\n        /* \"contracts/RecoveryPegRate.sol\":3604:3637  keccak256(abi.encodePacked(user)) */\n      dup1\n      mload\n      swap1\n      0x20\n      add\n      keccak256\n        /* \"contracts/RecoveryPegRate.sol\":3566:3584  MerkleProof.verify */\n      tag_204\n        /* \"contracts/RecoveryPegRate.sol\":3566:3638  MerkleProof.verify(proof, merkleRoot, keccak256(abi.encodePacked(user))) */\n      jump\t// in\n    tag_201:\n        /* \"contracts/RecoveryPegRate.sol\":3559:3638  return MerkleProof.verify(proof, merkleRoot, keccak256(abi.encodePacked(user))) */\n      swap1\n      pop\n        /* \"contracts/RecoveryPegRate.sol\":3453:3646  function _verifyWhitelist(address user, bytes32[] calldata proof) internal view returns (bool) {... */\n      swap4\n      swap3\n      pop\n      pop\n      pop\n      jump\t// out\n        /* \"contracts/RecoveryPegRate.sol\":3654:3913  function _resetIfNeeded(address user) internal {... */\n    tag_131:\n        /* \"contracts/RecoveryPegRate.sol\":1067:1075  48 hours */\n      0x02a300\n        /* \"contracts/RecoveryPegRate.sol\":3734:3753  lastRedeemTimestamp */\n      0x08\n        /* \"contracts/RecoveryPegRate.sol\":3734:3759  lastRedeemTimestamp[user] */\n      0x00\n        /* \"contracts/RecoveryPegRate.sol\":3754:3758  user */\n      dup4\n        /* \"contracts/RecoveryPegRate.sol\":3734:3759  lastRedeemTimestamp[user] */\n      0xffffffffffffffffffffffffffffffffffffffff\n      and\n      0xffffffffffffffffffffffffffffffffffffffff\n      and\n      dup2\n      mstore\n      0x20\n      add\n      swap1\n      dup2\n      mstore\n      0x20\n      add\n      0x00\n      keccak256\n      sload\n        /* \"contracts/RecoveryPegRate.sol\":3716:3731  block.timestamp */\n      timestamp\n        /* \"contracts/RecoveryPegRate.sol\":3716:3759  block.timestamp - lastRedeemTimestamp[user] */\n      tag_206\n      swap2\n      swap1\n      tag_142\n      jump\t// in\n    tag_206:\n        /* \"contracts/RecoveryPegRate.sol\":3716:3784  block.timestamp - lastRedeemTimestamp[user] >= WALLET_RESET_INTERVAL */\n      lt\n        /* \"contracts/RecoveryPegRate.sol\":3712:3852  if (block.timestamp - lastRedeemTimestamp[user] >= WALLET_RESET_INTERVAL) {... */\n      tag_207\n      jumpi\n        /* \"contracts/RecoveryPegRate.sol\":3839:3840  0 */\n      0x00\n        /* \"contracts/RecoveryPegRate.sol\":3801:3816  redeemedInRound */\n      0x07\n        /* \"contracts/RecoveryPegRate.sol\":3801:3830  redeemedInRound[currentRound] */\n      0x00\n        /* \"contracts/RecoveryPegRate.sol\":3817:3829  currentRound */\n      sload(0x03)\n        /* \"contracts/RecoveryPegRate.sol\":3801:3830  redeemedInRound[currentRound] */\n      dup2\n      mstore\n      0x20\n      add\n      swap1\n      dup2\n      mstore\n      0x20\n      add\n      0x00\n      keccak256\n        /* \"contracts/RecoveryPegRate.sol\":3801:3836  redeemedInRound[currentRound][user] */\n      0x00\n        /* \"contracts/RecoveryPegRate.sol\":3831:3835  user */\n      dup4\n        /* \"contracts/RecoveryPegRate.sol\":3801:3836  redeemedInRound[currentRound][user] */\n      0xffffffffffffffffffffffffffffffffffffffff\n      and\n      0xffffffffffffffffffffffffffffffffffffffff\n      and\n      dup2\n      mstore\n      0x20\n      add\n      swap1\n      dup2\n      mstore\n      0x20\n      add\n      0x00\n      keccak256\n        /* \"contracts/RecoveryPegRate.sol\":3801:3840  redeemedInRound[currentRound][user] = 0 */\n      dup2\n      swap1\n      sstore\n      pop\n        /* \"contracts/RecoveryPegRate.sol\":3712:3852  if (block.timestamp - lastRedeemTimestamp[user] >= WALLET_RESET_INTERVAL) {... */\n    tag_207:\n        /* \"contracts/RecoveryPegRate.sol\":3890:3905  block.timestamp */\n      timestamp\n        /* \"contracts/RecoveryPegRate.sol\":3862:3881  lastRedeemTimestamp */\n      0x08\n        /* \"contracts/RecoveryPegRate.sol\":3862:3887  lastRedeemTimestamp[user] */\n      0x00\n        /* \"contracts/RecoveryPegRate.sol\":3882:3886  user */\n      dup4\n        /* \"contracts/RecoveryPegRate.sol\":3862:3887  lastRedeemTimestamp[user] */\n      0xffffffffffffffffffffffffffffffffffffffff\n      and\n      0xffffffffffffffffffffffffffffffffffffffff\n      and\n      dup2\n      mstore\n      0x20\n      add\n      swap1\n      dup2\n      mstore\n      0x20\n      add\n      0x00\n      keccak256\n        /* \"contracts/RecoveryPegRate.sol\":3862:3905  lastRedeemTimestamp[user] = block.timestamp */\n      dup2\n      swap1\n      sstore\n      pop\n        /* \"contracts/RecoveryPegRate.sol\":3654:3913  function _resetIfNeeded(address user) internal {... */\n      pop\n      jump\t// out\n        /* \"https://raw.githubusercontent.com/OpenZeppelin/openzeppelin-contracts/refs/tags/v4.9.3/contracts/access/Ownable.sol\":2426:2613  function _transferOwnership(address newOwner) internal virtual {... */\n    tag_178:\n        /* \"https://raw.githubusercontent.com/OpenZeppelin/openzeppelin-contracts/refs/tags/v4.9.3/contracts/access/Ownable.sol\":2499:2515  address oldOwner */\n      0x00\n        /* \"https://raw.githubusercontent.com/OpenZeppelin/openzeppelin-contracts/refs/tags/v4.9.3/contracts/access/Ownable.sol\":2518:2524  _owner */\n      dup1\n      0x00\n      swap1\n      sload\n      swap1\n      0x0100\n      exp\n      swap1\n      div\n      0xffffffffffffffffffffffffffffffffffffffff\n      and\n        /* \"https://raw.githubusercontent.com/OpenZeppelin/openzeppelin-contracts/refs/tags/v4.9.3/contracts/access/Ownable.sol\":2499:2524  address oldOwner = _owner */\n      swap1\n      pop\n        /* \"https://raw.githubusercontent.com/OpenZeppelin/openzeppelin-contracts/refs/tags/v4.9.3/contracts/access/Ownable.sol\":2543:2551  newOwner */\n      dup2\n        /* \"https://raw.githubusercontent.com/OpenZeppelin/openzeppelin-contracts/refs/tags/v4.9.3/contracts/access/Ownable.sol\":2534:2540  _owner */\n      0x00\n      dup1\n        /* \"https://raw.githubusercontent.com/OpenZeppelin/openzeppelin-contracts/refs/tags/v4.9.3/contracts/access/Ownable.sol\":2534:2551  _owner = newOwner */\n      0x0100\n      exp\n      dup2\n      sload\n      dup2\n      0xffffffffffffffffffffffffffffffffffffffff\n      mul\n      not\n      and\n      swap1\n      dup4\n      0xffffffffffffffffffffffffffffffffffffffff\n      and\n      mul\n      or\n      swap1\n      sstore\n      pop\n        /* \"https://raw.githubusercontent.com/OpenZeppelin/openzeppelin-contracts/refs/tags/v4.9.3/contracts/access/Ownable.sol\":2597:2605  newOwner */\n      dup2\n        /* \"https://raw.githubusercontent.com/OpenZeppelin/openzeppelin-contracts/refs/tags/v4.9.3/contracts/access/Ownable.sol\":2566:2606  OwnershipTransferred(oldOwner, newOwner) */\n      0xffffffffffffffffffffffffffffffffffffffff\n      and\n        /* \"https://raw.githubusercontent.com/OpenZeppelin/openzeppelin-contracts/refs/tags/v4.9.3/contracts/access/Ownable.sol\":2587:2595  oldOwner */\n      dup2\n        /* \"https://raw.githubusercontent.com/OpenZeppelin/openzeppelin-contracts/refs/tags/v4.9.3/contracts/access/Ownable.sol\":2566:2606  OwnershipTransferred(oldOwner, newOwner) */\n      0xffffffffffffffffffffffffffffffffffffffff\n      and\n      0x8be0079c531659141344cd1fd0a4f28419497f9722a3daafe3b4186f6b6457e0\n      mload(0x40)\n      mload(0x40)\n      dup1\n      swap2\n      sub\n      swap1\n      log3\n        /* \"https://raw.githubusercontent.com/OpenZeppelin/openzeppelin-contracts/refs/tags/v4.9.3/contracts/access/Ownable.sol\":2489:2613  {... */\n      pop\n        /* \"https://raw.githubusercontent.com/OpenZeppelin/openzeppelin-contracts/refs/tags/v4.9.3/contracts/access/Ownable.sol\":2426:2613  function _transferOwnership(address newOwner) internal virtual {... */\n      pop\n      jump\t// out\n        /* \"https://raw.githubusercontent.com/OpenZeppelin/openzeppelin-contracts/refs/tags/v4.9.3/contracts/utils/Context.sol\":640:736  function _msgSender() internal view virtual returns (address) {... */\n    tag_195:\n        /* \"https://raw.githubusercontent.com/OpenZeppelin/openzeppelin-contracts/refs/tags/v4.9.3/contracts/utils/Context.sol\":693:700  address */\n      0x00\n        /* \"https://raw.githubusercontent.com/OpenZeppelin/openzeppelin-contracts/refs/tags/v4.9.3/contracts/utils/Context.sol\":719:729  msg.sender */\n      caller\n        /* \"https://raw.githubusercontent.com/OpenZeppelin/openzeppelin-contracts/refs/tags/v4.9.3/contracts/utils/Context.sol\":712:729  return msg.sender */\n      swap1\n      pop\n        /* \"https://raw.githubusercontent.com/OpenZeppelin/openzeppelin-contracts/refs/tags/v4.9.3/contracts/utils/Context.sol\":640:736  function _msgSender() internal view virtual returns (address) {... */\n      swap1\n      jump\t// out\n        /* \"https://raw.githubusercontent.com/OpenZeppelin/openzeppelin-contracts/refs/tags/v4.9.3/contracts/utils/cryptography/MerkleProof.sol\":1156:1310  function verify(bytes32[] memory proof, bytes32 root, bytes32 leaf) internal pure returns (bool) {... */\n    tag_204:\n        /* \"https://raw.githubusercontent.com/OpenZeppelin/openzeppelin-contracts/refs/tags/v4.9.3/contracts/utils/cryptography/MerkleProof.sol\":1247:1251  bool */\n      0x00\n        /* \"https://raw.githubusercontent.com/OpenZeppelin/openzeppelin-contracts/refs/tags/v4.9.3/contracts/utils/cryptography/MerkleProof.sol\":1299:1303  root */\n      dup3\n        /* \"https://raw.githubusercontent.com/OpenZeppelin/openzeppelin-contracts/refs/tags/v4.9.3/contracts/utils/cryptography/MerkleProof.sol\":1270:1295  processProof(proof, leaf) */\n      tag_211\n        /* \"https://raw.githubusercontent.com/OpenZeppelin/openzeppelin-contracts/refs/tags/v4.9.3/contracts/utils/cryptography/MerkleProof.sol\":1283:1288  proof */\n      dup6\n        /* \"https://raw.githubusercontent.com/OpenZeppelin/openzeppelin-contracts/refs/tags/v4.9.3/contracts/utils/cryptography/MerkleProof.sol\":1290:1294  leaf */\n      dup5\n        /* \"https://raw.githubusercontent.com/OpenZeppelin/openzeppelin-contracts/refs/tags/v4.9.3/contracts/utils/cryptography/MerkleProof.sol\":1270:1282  processProof */\n      tag_212\n        /* \"https://raw.githubusercontent.com/OpenZeppelin/openzeppelin-contracts/refs/tags/v4.9.3/contracts/utils/cryptography/MerkleProof.sol\":1270:1295  processProof(proof, leaf) */\n      jump\t// in\n    tag_211:\n        /* \"https://raw.githubusercontent.com/OpenZeppelin/openzeppelin-contracts/refs/tags/v4.9.3/contracts/utils/cryptography/MerkleProof.sol\":1270:1303  processProof(proof, leaf) == root */\n      eq\n        /* \"https://raw.githubusercontent.com/OpenZeppelin/openzeppelin-contracts/refs/tags/v4.9.3/contracts/utils/cryptography/MerkleProof.sol\":1263:1303  return processProof(proof, leaf) == root */\n      swap1\n      pop\n        /* \"https://raw.githubusercontent.com/OpenZeppelin/openzeppelin-contracts/refs/tags/v4.9.3/contracts/utils/cryptography/MerkleProof.sol\":1156:1310  function verify(bytes32[] memory proof, bytes32 root, bytes32 leaf) internal pure returns (bool) {... */\n      swap4\n      swap3\n      pop\n      pop\n      pop\n      jump\t// out\n        /* \"https://raw.githubusercontent.com/OpenZeppelin/openzeppelin-contracts/refs/tags/v4.9.3/contracts/utils/cryptography/MerkleProof.sol\":1934:2224  function processProof(bytes32[] memory proof, bytes32 leaf) internal pure returns (bytes32) {... */\n    tag_212:\n        /* \"https://raw.githubusercontent.com/OpenZeppelin/openzeppelin-contracts/refs/tags/v4.9.3/contracts/utils/cryptography/MerkleProof.sol\":2017:2024  bytes32 */\n      0x00\n        /* \"https://raw.githubusercontent.com/OpenZeppelin/openzeppelin-contracts/refs/tags/v4.9.3/contracts/utils/cryptography/MerkleProof.sol\":2036:2056  bytes32 computedHash */\n      dup1\n        /* \"https://raw.githubusercontent.com/OpenZeppelin/openzeppelin-contracts/refs/tags/v4.9.3/contracts/utils/cryptography/MerkleProof.sol\":2059:2063  leaf */\n      dup3\n        /* \"https://raw.githubusercontent.com/OpenZeppelin/openzeppelin-contracts/refs/tags/v4.9.3/contracts/utils/cryptography/MerkleProof.sol\":2036:2063  bytes32 computedHash = leaf */\n      swap1\n      pop\n        /* \"https://raw.githubusercontent.com/OpenZeppelin/openzeppelin-contracts/refs/tags/v4.9.3/contracts/utils/cryptography/MerkleProof.sol\":2078:2087  uint256 i */\n      0x00\n        /* \"https://raw.githubusercontent.com/OpenZeppelin/openzeppelin-contracts/refs/tags/v4.9.3/contracts/utils/cryptography/MerkleProof.sol\":2073:2189  for (uint256 i = 0; i < proof.length; i++) {... */\n    tag_214:\n        /* \"https://raw.githubusercontent.com/OpenZeppelin/openzeppelin-contracts/refs/tags/v4.9.3/contracts/utils/cryptography/MerkleProof.sol\":2097:2102  proof */\n      dup5\n        /* \"https://raw.githubusercontent.com/OpenZeppelin/openzeppelin-contracts/refs/tags/v4.9.3/contracts/utils/cryptography/MerkleProof.sol\":2097:2109  proof.length */\n      mload\n        /* \"https://raw.githubusercontent.com/OpenZeppelin/openzeppelin-contracts/refs/tags/v4.9.3/contracts/utils/cryptography/MerkleProof.sol\":2093:2094  i */\n      dup2\n        /* \"https://raw.githubusercontent.com/OpenZeppelin/openzeppelin-contracts/refs/tags/v4.9.3/contracts/utils/cryptography/MerkleProof.sol\":2093:2109  i < proof.length */\n      lt\n        /* \"https://raw.githubusercontent.com/OpenZeppelin/openzeppelin-contracts/refs/tags/v4.9.3/contracts/utils/cryptography/MerkleProof.sol\":2073:2189  for (uint256 i = 0; i < proof.length; i++) {... */\n      iszero\n      tag_215\n      jumpi\n        /* \"https://raw.githubusercontent.com/OpenZeppelin/openzeppelin-contracts/refs/tags/v4.9.3/contracts/utils/cryptography/MerkleProof.sol\":2145:2178  _hashPair(computedHash, proof[i]) */\n      tag_217\n        /* \"https://raw.githubusercontent.com/OpenZeppelin/openzeppelin-contracts/refs/tags/v4.9.3/contracts/utils/cryptography/MerkleProof.sol\":2155:2167  computedHash */\n      dup3\n        /* \"https://raw.githubusercontent.com/OpenZeppelin/openzeppelin-contracts/refs/tags/v4.9.3/contracts/utils/cryptography/MerkleProof.sol\":2169:2174  proof */\n      dup7\n        /* \"https://raw.githubusercontent.com/OpenZeppelin/openzeppelin-contracts/refs/tags/v4.9.3/contracts/utils/cryptography/MerkleProof.sol\":2175:2176  i */\n      dup4\n        /* \"https://raw.githubusercontent.com/OpenZeppelin/openzeppelin-contracts/refs/tags/v4.9.3/contracts/utils/cryptography/MerkleProof.sol\":2169:2177  proof[i] */\n      dup2\n      mload\n      dup2\n      lt\n      tag_218\n      jumpi\n      tag_219\n      tag_220\n      jump\t// in\n    tag_219:\n    tag_218:\n      0x20\n      mul\n      0x20\n      add\n      add\n      mload\n        /* \"https://raw.githubusercontent.com/OpenZeppelin/openzeppelin-contracts/refs/tags/v4.9.3/contracts/utils/cryptography/MerkleProof.sol\":2145:2154  _hashPair */\n      tag_221\n        /* \"https://raw.githubusercontent.com/OpenZeppelin/openzeppelin-contracts/refs/tags/v4.9.3/contracts/utils/cryptography/MerkleProof.sol\":2145:2178  _hashPair(computedHash, proof[i]) */\n      jump\t// in\n    tag_217:\n        /* \"https://raw.githubusercontent.com/OpenZeppelin/openzeppelin-contracts/refs/tags/v4.9.3/contracts/utils/cryptography/MerkleProof.sol\":2130:2178  computedHash = _hashPair(computedHash, proof[i]) */\n      swap2\n      pop\n        /* \"https://raw.githubusercontent.com/OpenZeppelin/openzeppelin-contracts/refs/tags/v4.9.3/contracts/utils/cryptography/MerkleProof.sol\":2111:2114  i++ */\n      dup1\n      dup1\n      tag_222\n      swap1\n      tag_223\n      jump\t// in\n    tag_222:\n      swap2\n      pop\n      pop\n        /* \"https://raw.githubusercontent.com/OpenZeppelin/openzeppelin-contracts/refs/tags/v4.9.3/contracts/utils/cryptography/MerkleProof.sol\":2073:2189  for (uint256 i = 0; i < proof.length; i++) {... */\n      jump(tag_214)\n    tag_215:\n      pop\n        /* \"https://raw.githubusercontent.com/OpenZeppelin/openzeppelin-contracts/refs/tags/v4.9.3/contracts/utils/cryptography/MerkleProof.sol\":2205:2217  computedHash */\n      dup1\n        /* \"https://raw.githubusercontent.com/OpenZeppelin/openzeppelin-contracts/refs/tags/v4.9.3/contracts/utils/cryptography/MerkleProof.sol\":2198:2217  return computedHash */\n      swap2\n      pop\n      pop\n        /* \"https://raw.githubusercontent.com/OpenZeppelin/openzeppelin-contracts/refs/tags/v4.9.3/contracts/utils/cryptography/MerkleProof.sol\":1934:2224  function processProof(bytes32[] memory proof, bytes32 leaf) internal pure returns (bytes32) {... */\n      swap3\n      swap2\n      pop\n      pop\n      jump\t// out\n        /* \"https://raw.githubusercontent.com/OpenZeppelin/openzeppelin-contracts/refs/tags/v4.9.3/contracts/utils/cryptography/MerkleProof.sol\":9205:9352  function _hashPair(bytes32 a, bytes32 b) private pure returns (bytes32) {... */\n    tag_221:\n        /* \"https://raw.githubusercontent.com/OpenZeppelin/openzeppelin-contracts/refs/tags/v4.9.3/contracts/utils/cryptography/MerkleProof.sol\":9268:9275  bytes32 */\n      0x00\n        /* \"https://raw.githubusercontent.com/OpenZeppelin/openzeppelin-contracts/refs/tags/v4.9.3/contracts/utils/cryptography/MerkleProof.sol\":9298:9299  b */\n      dup2\n        /* \"https://raw.githubusercontent.com/OpenZeppelin/openzeppelin-contracts/refs/tags/v4.9.3/contracts/utils/cryptography/MerkleProof.sol\":9294:9295  a */\n      dup4\n        /* \"https://raw.githubusercontent.com/OpenZeppelin/openzeppelin-contracts/refs/tags/v4.9.3/contracts/utils/cryptography/MerkleProof.sol\":9294:9299  a < b */\n      lt\n        /* \"https://raw.githubusercontent.com/OpenZeppelin/openzeppelin-contracts/refs/tags/v4.9.3/contracts/utils/cryptography/MerkleProof.sol\":9294:9345  a < b ? _efficientHash(a, b) : _efficientHash(b, a) */\n      tag_225\n      jumpi\n        /* \"https://raw.githubusercontent.com/OpenZeppelin/openzeppelin-contracts/refs/tags/v4.9.3/contracts/utils/cryptography/MerkleProof.sol\":9325:9345  _efficientHash(b, a) */\n      tag_226\n        /* \"https://raw.githubusercontent.com/OpenZeppelin/openzeppelin-contracts/refs/tags/v4.9.3/contracts/utils/cryptography/MerkleProof.sol\":9340:9341  b */\n      dup3\n        /* \"https://raw.githubusercontent.com/OpenZeppelin/openzeppelin-contracts/refs/tags/v4.9.3/contracts/utils/cryptography/MerkleProof.sol\":9343:9344  a */\n      dup5\n        /* \"https://raw.githubusercontent.com/OpenZeppelin/openzeppelin-contracts/refs/tags/v4.9.3/contracts/utils/cryptography/MerkleProof.sol\":9325:9339  _efficientHash */\n      tag_227\n        /* \"https://raw.githubusercontent.com/OpenZeppelin/openzeppelin-contracts/refs/tags/v4.9.3/contracts/utils/cryptography/MerkleProof.sol\":9325:9345  _efficientHash(b, a) */\n      jump\t// in\n    tag_226:\n        /* \"https://raw.githubusercontent.com/OpenZeppelin/openzeppelin-contracts/refs/tags/v4.9.3/contracts/utils/cryptography/MerkleProof.sol\":9294:9345  a < b ? _efficientHash(a, b) : _efficientHash(b, a) */\n      jump(tag_228)\n    tag_225:\n        /* \"https://raw.githubusercontent.com/OpenZeppelin/openzeppelin-contracts/refs/tags/v4.9.3/contracts/utils/cryptography/MerkleProof.sol\":9302:9322  _efficientHash(a, b) */\n      tag_229\n        /* \"https://raw.githubusercontent.com/OpenZeppelin/openzeppelin-contracts/refs/tags/v4.9.3/contracts/utils/cryptography/MerkleProof.sol\":9317:9318  a */\n      dup4\n        /* \"https://raw.githubusercontent.com/OpenZeppelin/openzeppelin-contracts/refs/tags/v4.9.3/contracts/utils/cryptography/MerkleProof.sol\":9320:9321  b */\n      dup4\n        /* \"https://raw.githubusercontent.com/OpenZeppelin/openzeppelin-contracts/refs/tags/v4.9.3/contracts/utils/cryptography/MerkleProof.sol\":9302:9316  _efficientHash */\n      tag_227\n        /* \"https://raw.githubusercontent.com/OpenZeppelin/openzeppelin-contracts/refs/tags/v4.9.3/contracts/utils/cryptography/MerkleProof.sol\":9302:9322  _efficientHash(a, b) */\n      jump\t// in\n    tag_229:\n        /* \"https://raw.githubusercontent.com/OpenZeppelin/openzeppelin-contracts/refs/tags/v4.9.3/contracts/utils/cryptography/MerkleProof.sol\":9294:9345  a < b ? _efficientHash(a, b) : _efficientHash(b, a) */\n    tag_228:\n        /* \"https://raw.githubusercontent.com/OpenZeppelin/openzeppelin-contracts/refs/tags/v4.9.3/contracts/utils/cryptography/MerkleProof.sol\":9287:9345  return a < b ? _efficientHash(a, b) : _efficientHash(b, a) */\n      swap1\n      pop\n        /* \"https://raw.githubusercontent.com/OpenZeppelin/openzeppelin-contracts/refs/tags/v4.9.3/contracts/utils/cryptography/MerkleProof.sol\":9205:9352  function _hashPair(bytes32 a, bytes32 b) private pure returns (bytes32) {... */\n      swap3\n      swap2\n      pop\n      pop\n      jump\t// out\n        /* \"https://raw.githubusercontent.com/OpenZeppelin/openzeppelin-contracts/refs/tags/v4.9.3/contracts/utils/cryptography/MerkleProof.sol\":9358:9619  function _efficientHash(bytes32 a, bytes32 b) private pure returns (bytes32 value) {... */\n    tag_227:\n        /* \"https://raw.githubusercontent.com/OpenZeppelin/openzeppelin-contracts/refs/tags/v4.9.3/contracts/utils/cryptography/MerkleProof.sol\":9426:9439  bytes32 value */\n      0x00\n        /* \"https://raw.githubusercontent.com/OpenZeppelin/openzeppelin-contracts/refs/tags/v4.9.3/contracts/utils/cryptography/MerkleProof.sol\":9530:9531  a */\n      dup3\n        /* \"https://raw.githubusercontent.com/OpenZeppelin/openzeppelin-contracts/refs/tags/v4.9.3/contracts/utils/cryptography/MerkleProof.sol\":9524:9528  0x00 */\n      0x00\n        /* \"https://raw.githubusercontent.com/OpenZeppelin/openzeppelin-contracts/refs/tags/v4.9.3/contracts/utils/cryptography/MerkleProof.sol\":9517:9532  mstore(0x00, a) */\n      mstore\n        /* \"https://raw.githubusercontent.com/OpenZeppelin/openzeppelin-contracts/refs/tags/v4.9.3/contracts/utils/cryptography/MerkleProof.sol\":9558:9559  b */\n      dup2\n        /* \"https://raw.githubusercontent.com/OpenZeppelin/openzeppelin-contracts/refs/tags/v4.9.3/contracts/utils/cryptography/MerkleProof.sol\":9552:9556  0x20 */\n      0x20\n        /* \"https://raw.githubusercontent.com/OpenZeppelin/openzeppelin-contracts/refs/tags/v4.9.3/contracts/utils/cryptography/MerkleProof.sol\":9545:9560  mstore(0x20, b) */\n      mstore\n        /* \"https://raw.githubusercontent.com/OpenZeppelin/openzeppelin-contracts/refs/tags/v4.9.3/contracts/utils/cryptography/MerkleProof.sol\":9598:9602  0x40 */\n      0x40\n        /* \"https://raw.githubusercontent.com/OpenZeppelin/openzeppelin-contracts/refs/tags/v4.9.3/contracts/utils/cryptography/MerkleProof.sol\":9592:9596  0x00 */\n      0x00\n        /* \"https://raw.githubusercontent.com/OpenZeppelin/openzeppelin-contracts/refs/tags/v4.9.3/contracts/utils/cryptography/MerkleProof.sol\":9582:9603  keccak256(0x00, 0x40) */\n      keccak256\n        /* \"https://raw.githubusercontent.com/OpenZeppelin/openzeppelin-contracts/refs/tags/v4.9.3/contracts/utils/cryptography/MerkleProof.sol\":9573:9603  value := keccak256(0x00, 0x40) */\n      swap1\n      pop\n        /* \"https://raw.githubusercontent.com/OpenZeppelin/openzeppelin-contracts/refs/tags/v4.9.3/contracts/utils/cryptography/MerkleProof.sol\":9358:9619  function _efficientHash(bytes32 a, bytes32 b) private pure returns (bytes32 value) {... */\n      swap3\n      swap2\n      pop\n      pop\n      jump\t// out\n        /* \"#utility.yul\":88:205   */\n    tag_232:\n        /* \"#utility.yul\":197:198   */\n      0x00\n        /* \"#utility.yul\":194:195   */\n      dup1\n        /* \"#utility.yul\":187:199   */\n      revert\n        /* \"#utility.yul\":211:328   */\n    tag_233:\n        /* \"#utility.yul\":320:321   */\n      0x00\n        /* \"#utility.yul\":317:318   */\n      dup1\n        /* \"#utility.yul\":310:322   */\n      revert\n        /* \"#utility.yul\":334:424   */\n    tag_234:\n        /* \"#utility.yul\":368:375   */\n      0x00\n        /* \"#utility.yul\":411:416   */\n      dup2\n        /* \"#utility.yul\":404:417   */\n      iszero\n        /* \"#utility.yul\":397:418   */\n      iszero\n        /* \"#utility.yul\":386:418   */\n      swap1\n      pop\n        /* \"#utility.yul\":334:424   */\n      swap2\n      swap1\n      pop\n      jump\t// out\n        /* \"#utility.yul\":430:546   */\n    tag_235:\n        /* \"#utility.yul\":500:521   */\n      tag_294\n        /* \"#utility.yul\":515:520   */\n      dup2\n        /* \"#utility.yul\":500:521   */\n      tag_234\n      jump\t// in\n    tag_294:\n        /* \"#utility.yul\":493:498   */\n      dup2\n        /* \"#utility.yul\":490:522   */\n      eq\n        /* \"#utility.yul\":480:540   */\n      tag_295\n      jumpi\n        /* \"#utility.yul\":536:537   */\n      0x00\n        /* \"#utility.yul\":533:534   */\n      dup1\n        /* \"#utility.yul\":526:538   */\n      revert\n        /* \"#utility.yul\":480:540   */\n    tag_295:\n        /* \"#utility.yul\":430:546   */\n      pop\n      jump\t// out\n        /* \"#utility.yul\":552:685   */\n    tag_236:\n        /* \"#utility.yul\":595:600   */\n      0x00\n        /* \"#utility.yul\":633:639   */\n      dup2\n        /* \"#utility.yul\":620:640   */\n      calldataload\n        /* \"#utility.yul\":611:640   */\n      swap1\n      pop\n        /* \"#utility.yul\":649:679   */\n      tag_297\n        /* \"#utility.yul\":673:678   */\n      dup2\n        /* \"#utility.yul\":649:679   */\n      tag_235\n      jump\t// in\n    tag_297:\n        /* \"#utility.yul\":552:685   */\n      swap3\n      swap2\n      pop\n      pop\n      jump\t// out\n        /* \"#utility.yul\":691:1014   */\n    tag_28:\n        /* \"#utility.yul\":747:753   */\n      0x00\n        /* \"#utility.yul\":796:798   */\n      0x20\n        /* \"#utility.yul\":784:793   */\n      dup3\n        /* \"#utility.yul\":775:782   */\n      dup5\n        /* \"#utility.yul\":771:794   */\n      sub\n        /* \"#utility.yul\":767:799   */\n      slt\n        /* \"#utility.yul\":764:883   */\n      iszero\n      tag_299\n      jumpi\n        /* \"#utility.yul\":802:881   */\n      tag_300\n      tag_232\n      jump\t// in\n    tag_300:\n        /* \"#utility.yul\":764:883   */\n    tag_299:\n        /* \"#utility.yul\":922:923   */\n      0x00\n        /* \"#utility.yul\":947:997   */\n      tag_301\n        /* \"#utility.yul\":989:996   */\n      dup5\n        /* \"#utility.yul\":980:986   */\n      dup3\n        /* \"#utility.yul\":969:978   */\n      dup6\n        /* \"#utility.yul\":965:987   */\n      add\n        /* \"#utility.yul\":947:997   */\n      tag_236\n      jump\t// in\n    tag_301:\n        /* \"#utility.yul\":937:997   */\n      swap2\n      pop\n        /* \"#utility.yul\":893:1007   */\n      pop\n        /* \"#utility.yul\":691:1014   */\n      swap3\n      swap2\n      pop\n      pop\n      jump\t// out\n        /* \"#utility.yul\":1020:1097   */\n    tag_237:\n        /* \"#utility.yul\":1057:1064   */\n      0x00\n        /* \"#utility.yul\":1086:1091   */\n      dup2\n        /* \"#utility.yul\":1075:1091   */\n      swap1\n      pop\n        /* \"#utility.yul\":1020:1097   */\n      swap2\n      swap1\n      pop\n      jump\t// out\n        /* \"#utility.yul\":1103:1221   */\n    tag_238:\n        /* \"#utility.yul\":1190:1214   */\n      tag_304\n        /* \"#utility.yul\":1208:1213   */\n      dup2\n        /* \"#utility.yul\":1190:1214   */\n      tag_237\n      jump\t// in\n    tag_304:\n        /* \"#utility.yul\":1185:1188   */\n      dup3\n        /* \"#utility.yul\":1178:1215   */\n      mstore\n        /* \"#utility.yul\":1103:1221   */\n      pop\n      pop\n      jump\t// out\n        /* \"#utility.yul\":1227:1449   */\n    tag_33:\n        /* \"#utility.yul\":1320:1324   */\n      0x00\n        /* \"#utility.yul\":1358:1360   */\n      0x20\n        /* \"#utility.yul\":1347:1356   */\n      dup3\n        /* \"#utility.yul\":1343:1361   */\n      add\n        /* \"#utility.yul\":1335:1361   */\n      swap1\n      pop\n        /* \"#utility.yul\":1371:1442   */\n      tag_306\n        /* \"#utility.yul\":1439:1440   */\n      0x00\n        /* \"#utility.yul\":1428:1437   */\n      dup4\n        /* \"#utility.yul\":1424:1441   */\n      add\n        /* \"#utility.yul\":1415:1421   */\n      dup5\n        /* \"#utility.yul\":1371:1442   */\n      tag_238\n      jump\t// in\n    tag_306:\n        /* \"#utility.yul\":1227:1449   */\n      swap3\n      swap2\n      pop\n      pop\n      jump\t// out\n        /* \"#utility.yul\":1455:1581   */\n    tag_239:\n        /* \"#utility.yul\":1492:1499   */\n      0x00\n        /* \"#utility.yul\":1532:1574   */\n      0xffffffffffffffffffffffffffffffffffffffff\n        /* \"#utility.yul\":1525:1530   */\n      dup3\n        /* \"#utility.yul\":1521:1575   */\n      and\n        /* \"#utility.yul\":1510:1575   */\n      swap1\n      pop\n        /* \"#utility.yul\":1455:1581   */\n      swap2\n      swap1\n      pop\n      jump\t// out\n        /* \"#utility.yul\":1587:1683   */\n    tag_240:\n        /* \"#utility.yul\":1624:1631   */\n      0x00\n        /* \"#utility.yul\":1653:1677   */\n      tag_309\n        /* \"#utility.yul\":1671:1676   */\n      dup3\n        /* \"#utility.yul\":1653:1677   */\n      tag_239\n      jump\t// in\n    tag_309:\n        /* \"#utility.yul\":1642:1677   */\n      swap1\n      pop\n        /* \"#utility.yul\":1587:1683   */\n      swap2\n      swap1\n      pop\n      jump\t// out\n        /* \"#utility.yul\":1689:1811   */\n    tag_241:\n        /* \"#utility.yul\":1762:1786   */\n      tag_311\n        /* \"#utility.yul\":1780:1785   */\n      dup2\n        /* \"#utility.yul\":1762:1786   */\n      tag_240\n      jump\t// in\n    tag_311:\n        /* \"#utility.yul\":1755:1760   */\n      dup2\n        /* \"#utility.yul\":1752:1787   */\n      eq\n        /* \"#utility.yul\":1742:1805   */\n      tag_312\n      jumpi\n        /* \"#utility.yul\":1801:1802   */\n      0x00\n        /* \"#utility.yul\":1798:1799   */\n      dup1\n        /* \"#utility.yul\":1791:1803   */\n      revert\n        /* \"#utility.yul\":1742:1805   */\n    tag_312:\n        /* \"#utility.yul\":1689:1811   */\n      pop\n      jump\t// out\n        /* \"#utility.yul\":1817:1956   */\n    tag_242:\n        /* \"#utility.yul\":1863:1868   */\n      0x00\n        /* \"#utility.yul\":1901:1907   */\n      dup2\n        /* \"#utility.yul\":1888:1908   */\n      calldataload\n        /* \"#utility.yul\":1879:1908   */\n      swap1\n      pop\n        /* \"#utility.yul\":1917:1950   */\n      tag_314\n        /* \"#utility.yul\":1944:1949   */\n      dup2\n        /* \"#utility.yul\":1917:1950   */\n      tag_241\n      jump\t// in\n    tag_314:\n        /* \"#utility.yul\":1817:1956   */\n      swap3\n      swap2\n      pop\n      pop\n      jump\t// out\n        /* \"#utility.yul\":1962:2084   */\n    tag_243:\n        /* \"#utility.yul\":2035:2059   */\n      tag_316\n        /* \"#utility.yul\":2053:2058   */\n      dup2\n        /* \"#utility.yul\":2035:2059   */\n      tag_237\n      jump\t// in\n    tag_316:\n        /* \"#utility.yul\":2028:2033   */\n      dup2\n        /* \"#utility.yul\":2025:2060   */\n      eq\n        /* \"#utility.yul\":2015:2078   */\n      tag_317\n      jumpi\n        /* \"#utility.yul\":2074:2075   */\n      0x00\n        /* \"#utility.yul\":2071:2072   */\n      dup1\n        /* \"#utility.yul\":2064:2076   */\n      revert\n        /* \"#utility.yul\":2015:2078   */\n    tag_317:\n        /* \"#utility.yul\":1962:2084   */\n      pop\n      jump\t// out\n        /* \"#utility.yul\":2090:2229   */\n    tag_244:\n        /* \"#utility.yul\":2136:2141   */\n      0x00\n        /* \"#utility.yul\":2174:2180   */\n      dup2\n        /* \"#utility.yul\":2161:2181   */\n      calldataload\n        /* \"#utility.yul\":2152:2181   */\n      swap1\n      pop\n        /* \"#utility.yul\":2190:2223   */\n      tag_319\n        /* \"#utility.yul\":2217:2222   */\n      dup2\n        /* \"#utility.yul\":2190:2223   */\n      tag_243\n      jump\t// in\n    tag_319:\n        /* \"#utility.yul\":2090:2229   */\n      swap3\n      swap2\n      pop\n      pop\n      jump\t// out\n        /* \"#utility.yul\":2235:2352   */\n    tag_245:\n        /* \"#utility.yul\":2344:2345   */\n      0x00\n        /* \"#utility.yul\":2341:2342   */\n      dup1\n        /* \"#utility.yul\":2334:2346   */\n      revert\n        /* \"#utility.yul\":2358:2475   */\n    tag_246:\n        /* \"#utility.yul\":2467:2468   */\n      0x00\n        /* \"#utility.yul\":2464:2465   */\n      dup1\n        /* \"#utility.yul\":2457:2469   */\n      revert\n        /* \"#utility.yul\":2481:2598   */\n    tag_247:\n        /* \"#utility.yul\":2590:2591   */\n      0x00\n        /* \"#utility.yul\":2587:2588   */\n      dup1\n        /* \"#utility.yul\":2580:2592   */\n      revert\n        /* \"#utility.yul\":2621:3189   */\n    tag_248:\n        /* \"#utility.yul\":2694:2702   */\n      0x00\n        /* \"#utility.yul\":2704:2710   */\n      dup1\n        /* \"#utility.yul\":2754:2757   */\n      dup4\n        /* \"#utility.yul\":2747:2751   */\n      0x1f\n        /* \"#utility.yul\":2739:2745   */\n      dup5\n        /* \"#utility.yul\":2735:2752   */\n      add\n        /* \"#utility.yul\":2731:2758   */\n      slt\n        /* \"#utility.yul\":2721:2843   */\n      tag_324\n      jumpi\n        /* \"#utility.yul\":2762:2841   */\n      tag_325\n      tag_245\n      jump\t// in\n    tag_325:\n        /* \"#utility.yul\":2721:2843   */\n    tag_324:\n        /* \"#utility.yul\":2875:2881   */\n      dup3\n        /* \"#utility.yul\":2862:2882   */\n      calldataload\n        /* \"#utility.yul\":2852:2882   */\n      swap1\n      pop\n        /* \"#utility.yul\":2905:2923   */\n      0xffffffffffffffff\n        /* \"#utility.yul\":2897:2903   */\n      dup2\n        /* \"#utility.yul\":2894:2924   */\n      gt\n        /* \"#utility.yul\":2891:3008   */\n      iszero\n      tag_326\n      jumpi\n        /* \"#utility.yul\":2927:3006   */\n      tag_327\n      tag_246\n      jump\t// in\n    tag_327:\n        /* \"#utility.yul\":2891:3008   */\n    tag_326:\n        /* \"#utility.yul\":3041:3045   */\n      0x20\n        /* \"#utility.yul\":3033:3039   */\n      dup4\n        /* \"#utility.yul\":3029:3046   */\n      add\n        /* \"#utility.yul\":3017:3046   */\n      swap2\n      pop\n        /* \"#utility.yul\":3095:3098   */\n      dup4\n        /* \"#utility.yul\":3087:3091   */\n      0x20\n        /* \"#utility.yul\":3079:3085   */\n      dup3\n        /* \"#utility.yul\":3075:3092   */\n      mul\n        /* \"#utility.yul\":3065:3073   */\n      dup4\n        /* \"#utility.yul\":3061:3093   */\n      add\n        /* \"#utility.yul\":3058:3099   */\n      gt\n        /* \"#utility.yul\":3055:3183   */\n      iszero\n      tag_328\n      jumpi\n        /* \"#utility.yul\":3102:3181   */\n      tag_329\n      tag_247\n      jump\t// in\n    tag_329:\n        /* \"#utility.yul\":3055:3183   */\n    tag_328:\n        /* \"#utility.yul\":2621:3189   */\n      swap3\n      pop\n      swap3\n      swap1\n      pop\n      jump\t// out\n        /* \"#utility.yul\":3195:4044   */\n    tag_36:\n        /* \"#utility.yul\":3299:3305   */\n      0x00\n        /* \"#utility.yul\":3307:3313   */\n      dup1\n        /* \"#utility.yul\":3315:3321   */\n      0x00\n        /* \"#utility.yul\":3323:3329   */\n      dup1\n        /* \"#utility.yul\":3372:3374   */\n      0x60\n        /* \"#utility.yul\":3360:3369   */\n      dup6\n        /* \"#utility.yul\":3351:3358   */\n      dup8\n        /* \"#utility.yul\":3347:3370   */\n      sub\n        /* \"#utility.yul\":3343:3375   */\n      slt\n        /* \"#utility.yul\":3340:3459   */\n      iszero\n      tag_331\n      jumpi\n        /* \"#utility.yul\":3378:3457   */\n      tag_332\n      tag_232\n      jump\t// in\n    tag_332:\n        /* \"#utility.yul\":3340:3459   */\n    tag_331:\n        /* \"#utility.yul\":3498:3499   */\n      0x00\n        /* \"#utility.yul\":3523:3576   */\n      tag_333\n        /* \"#utility.yul\":3568:3575   */\n      dup8\n        /* \"#utility.yul\":3559:3565   */\n      dup3\n        /* \"#utility.yul\":3548:3557   */\n      dup9\n        /* \"#utility.yul\":3544:3566   */\n      add\n        /* \"#utility.yul\":3523:3576   */\n      tag_242\n      jump\t// in\n    tag_333:\n        /* \"#utility.yul\":3513:3576   */\n      swap5\n      pop\n        /* \"#utility.yul\":3469:3586   */\n      pop\n        /* \"#utility.yul\":3625:3627   */\n      0x20\n        /* \"#utility.yul\":3651:3704   */\n      tag_334\n        /* \"#utility.yul\":3696:3703   */\n      dup8\n        /* \"#utility.yul\":3687:3693   */\n      dup3\n        /* \"#utility.yul\":3676:3685   */\n      dup9\n        /* \"#utility.yul\":3672:3694   */\n      add\n        /* \"#utility.yul\":3651:3704   */\n      tag_244\n      jump\t// in\n    tag_334:\n        /* \"#utility.yul\":3641:3704   */\n      swap4\n      pop\n        /* \"#utility.yul\":3596:3714   */\n      pop\n        /* \"#utility.yul\":3781:3783   */\n      0x40\n        /* \"#utility.yul\":3770:3779   */\n      dup6\n        /* \"#utility.yul\":3766:3784   */\n      add\n        /* \"#utility.yul\":3753:3785   */\n      calldataload\n        /* \"#utility.yul\":3812:3830   */\n      0xffffffffffffffff\n        /* \"#utility.yul\":3804:3810   */\n      dup2\n        /* \"#utility.yul\":3801:3831   */\n      gt\n        /* \"#utility.yul\":3798:3915   */\n      iszero\n      tag_335\n      jumpi\n        /* \"#utility.yul\":3834:3913   */\n      tag_336\n      tag_233\n      jump\t// in\n    tag_336:\n        /* \"#utility.yul\":3798:3915   */\n    tag_335:\n        /* \"#utility.yul\":3947:4027   */\n      tag_337\n        /* \"#utility.yul\":4019:4026   */\n      dup8\n        /* \"#utility.yul\":4010:4016   */\n      dup3\n        /* \"#utility.yul\":3999:4008   */\n      dup9\n        /* \"#utility.yul\":3995:4017   */\n      add\n        /* \"#utility.yul\":3947:4027   */\n      tag_248\n      jump\t// in\n    tag_337:\n        /* \"#utility.yul\":3929:4027   */\n      swap3\n      pop\n      swap3\n      pop\n        /* \"#utility.yul\":3724:4037   */\n      pop\n        /* \"#utility.yul\":3195:4044   */\n      swap3\n      swap6\n      swap2\n      swap5\n      pop\n      swap3\n      pop\n      jump\t// out\n        /* \"#utility.yul\":4050:4127   */\n    tag_249:\n        /* \"#utility.yul\":4087:4094   */\n      0x00\n        /* \"#utility.yul\":4116:4121   */\n      dup2\n        /* \"#utility.yul\":4105:4121   */\n      swap1\n      pop\n        /* \"#utility.yul\":4050:4127   */\n      swap2\n      swap1\n      pop\n      jump\t// out\n        /* \"#utility.yul\":4133:4251   */\n    tag_250:\n        /* \"#utility.yul\":4220:4244   */\n      tag_340\n        /* \"#utility.yul\":4238:4243   */\n      dup2\n        /* \"#utility.yul\":4220:4244   */\n      tag_249\n      jump\t// in\n    tag_340:\n        /* \"#utility.yul\":4215:4218   */\n      dup3\n        /* \"#utility.yul\":4208:4245   */\n      mstore\n        /* \"#utility.yul\":4133:4251   */\n      pop\n      pop\n      jump\t// out\n        /* \"#utility.yul\":4257:4479   */\n    tag_41:\n        /* \"#utility.yul\":4350:4354   */\n      0x00\n        /* \"#utility.yul\":4388:4390   */\n      0x20\n        /* \"#utility.yul\":4377:4386   */\n      dup3\n        /* \"#utility.yul\":4373:4391   */\n      add\n        /* \"#utility.yul\":4365:4391   */\n      swap1\n      pop\n        /* \"#utility.yul\":4401:4472   */\n      tag_342\n        /* \"#utility.yul\":4469:4470   */\n      0x00\n        /* \"#utility.yul\":4458:4467   */\n      dup4\n        /* \"#utility.yul\":4454:4471   */\n      add\n        /* \"#utility.yul\":4445:4451   */\n      dup5\n        /* \"#utility.yul\":4401:4472   */\n      tag_250\n      jump\t// in\n    tag_342:\n        /* \"#utility.yul\":4257:4479   */\n      swap3\n      swap2\n      pop\n      pop\n      jump\t// out\n        /* \"#utility.yul\":4485:4814   */\n    tag_47:\n        /* \"#utility.yul\":4544:4550   */\n      0x00\n        /* \"#utility.yul\":4593:4595   */\n      0x20\n        /* \"#utility.yul\":4581:4590   */\n      dup3\n        /* \"#utility.yul\":4572:4579   */\n      dup5\n        /* \"#utility.yul\":4568:4591   */\n      sub\n        /* \"#utility.yul\":4564:4596   */\n      slt\n        /* \"#utility.yul\":4561:4680   */\n      iszero\n      tag_344\n      jumpi\n        /* \"#utility.yul\":4599:4678   */\n      tag_345\n      tag_232\n      jump\t// in\n    tag_345:\n        /* \"#utility.yul\":4561:4680   */\n    tag_344:\n        /* \"#utility.yul\":4719:4720   */\n      0x00\n        /* \"#utility.yul\":4744:4797   */\n      tag_346\n        /* \"#utility.yul\":4789:4796   */\n      dup5\n        /* \"#utility.yul\":4780:4786   */\n      dup3\n        /* \"#utility.yul\":4769:4778   */\n      dup6\n        /* \"#utility.yul\":4765:4787   */\n      add\n        /* \"#utility.yul\":4744:4797   */\n      tag_244\n      jump\t// in\n    tag_346:\n        /* \"#utility.yul\":4734:4797   */\n      swap2\n      pop\n        /* \"#utility.yul\":4690:4807   */\n      pop\n        /* \"#utility.yul\":4485:4814   */\n      swap3\n      swap2\n      pop\n      pop\n      jump\t// out\n        /* \"#utility.yul\":4820:5149   */\n    tag_51:\n        /* \"#utility.yul\":4879:4885   */\n      0x00\n        /* \"#utility.yul\":4928:4930   */\n      0x20\n        /* \"#utility.yul\":4916:4925   */\n      dup3\n        /* \"#utility.yul\":4907:4914   */\n      dup5\n        /* \"#utility.yul\":4903:4926   */\n      sub\n        /* \"#utility.yul\":4899:4931   */\n      slt\n        /* \"#utility.yul\":4896:5015   */\n      iszero\n      tag_348\n      jumpi\n        /* \"#utility.yul\":4934:5013   */\n      tag_349\n      tag_232\n      jump\t// in\n    tag_349:\n        /* \"#utility.yul\":4896:5015   */\n    tag_348:\n        /* \"#utility.yul\":5054:5055   */\n      0x00\n        /* \"#utility.yul\":5079:5132   */\n      tag_350\n        /* \"#utility.yul\":5124:5131   */\n      dup5\n        /* \"#utility.yul\":5115:5121   */\n      dup3\n        /* \"#utility.yul\":5104:5113   */\n      dup6\n        /* \"#utility.yul\":5100:5122   */\n      add\n        /* \"#utility.yul\":5079:5132   */\n      tag_242\n      jump\t// in\n    tag_350:\n        /* \"#utility.yul\":5069:5132   */\n      swap2\n      pop\n        /* \"#utility.yul\":5025:5142   */\n      pop\n        /* \"#utility.yul\":4820:5149   */\n      swap3\n      swap2\n      pop\n      pop\n      jump\t// out\n        /* \"#utility.yul\":5155:5273   */\n    tag_251:\n        /* \"#utility.yul\":5242:5266   */\n      tag_352\n        /* \"#utility.yul\":5260:5265   */\n      dup2\n        /* \"#utility.yul\":5242:5266   */\n      tag_240\n      jump\t// in\n    tag_352:\n        /* \"#utility.yul\":5237:5240   */\n      dup3\n        /* \"#utility.yul\":5230:5267   */\n      mstore\n        /* \"#utility.yul\":5155:5273   */\n      pop\n      pop\n      jump\t// out\n        /* \"#utility.yul\":5279:5501   */\n    tag_57:\n        /* \"#utility.yul\":5372:5376   */\n      0x00\n        /* \"#utility.yul\":5410:5412   */\n      0x20\n        /* \"#utility.yul\":5399:5408   */\n      dup3\n        /* \"#utility.yul\":5395:5413   */\n      add\n        /* \"#utility.yul\":5387:5413   */\n      swap1\n      pop\n        /* \"#utility.yul\":5423:5494   */\n      tag_354\n        /* \"#utility.yul\":5491:5492   */\n      0x00\n        /* \"#utility.yul\":5480:5489   */\n      dup4\n        /* \"#utility.yul\":5476:5493   */\n      add\n        /* \"#utility.yul\":5467:5473   */\n      dup5\n        /* \"#utility.yul\":5423:5494   */\n      tag_251\n      jump\t// in\n    tag_354:\n        /* \"#utility.yul\":5279:5501   */\n      swap3\n      swap2\n      pop\n      pop\n      jump\t// out\n        /* \"#utility.yul\":5507:5981   */\n    tag_65:\n        /* \"#utility.yul\":5575:5581   */\n      0x00\n        /* \"#utility.yul\":5583:5589   */\n      dup1\n        /* \"#utility.yul\":5632:5634   */\n      0x40\n        /* \"#utility.yul\":5620:5629   */\n      dup4\n        /* \"#utility.yul\":5611:5618   */\n      dup6\n        /* \"#utility.yul\":5607:5630   */\n      sub\n        /* \"#utility.yul\":5603:5635   */\n      slt\n        /* \"#utility.yul\":5600:5719   */\n      iszero\n      tag_356\n      jumpi\n        /* \"#utility.yul\":5638:5717   */\n      tag_357\n      tag_232\n      jump\t// in\n    tag_357:\n        /* \"#utility.yul\":5600:5719   */\n    tag_356:\n        /* \"#utility.yul\":5758:5759   */\n      0x00\n        /* \"#utility.yul\":5783:5836   */\n      tag_358\n        /* \"#utility.yul\":5828:5835   */\n      dup6\n        /* \"#utility.yul\":5819:5825   */\n      dup3\n        /* \"#utility.yul\":5808:5817   */\n      dup7\n        /* \"#utility.yul\":5804:5826   */\n      add\n        /* \"#utility.yul\":5783:5836   */\n      tag_244\n      jump\t// in\n    tag_358:\n        /* \"#utility.yul\":5773:5836   */\n      swap3\n      pop\n        /* \"#utility.yul\":5729:5846   */\n      pop\n        /* \"#utility.yul\":5885:5887   */\n      0x20\n        /* \"#utility.yul\":5911:5964   */\n      tag_359\n        /* \"#utility.yul\":5956:5963   */\n      dup6\n        /* \"#utility.yul\":5947:5953   */\n      dup3\n        /* \"#utility.yul\":5936:5945   */\n      dup7\n        /* \"#utility.yul\":5932:5954   */\n      add\n        /* \"#utility.yul\":5911:5964   */\n      tag_242\n      jump\t// in\n    tag_359:\n        /* \"#utility.yul\":5901:5964   */\n      swap2\n      pop\n        /* \"#utility.yul\":5856:5974   */\n      pop\n        /* \"#utility.yul\":5507:5981   */\n      swap3\n      pop\n      swap3\n      swap1\n      pop\n      jump\t// out\n        /* \"#utility.yul\":5987:6109   */\n    tag_252:\n        /* \"#utility.yul\":6060:6084   */\n      tag_361\n        /* \"#utility.yul\":6078:6083   */\n      dup2\n        /* \"#utility.yul\":6060:6084   */\n      tag_249\n      jump\t// in\n    tag_361:\n        /* \"#utility.yul\":6053:6058   */\n      dup2\n        /* \"#utility.yul\":6050:6085   */\n      eq\n        /* \"#utility.yul\":6040:6103   */\n      tag_362\n      jumpi\n        /* \"#utility.yul\":6099:6100   */\n      0x00\n        /* \"#utility.yul\":6096:6097   */\n      dup1\n        /* \"#utility.yul\":6089:6101   */\n      revert\n        /* \"#utility.yul\":6040:6103   */\n    tag_362:\n        /* \"#utility.yul\":5987:6109   */\n      pop\n      jump\t// out\n        /* \"#utility.yul\":6115:6254   */\n    tag_253:\n        /* \"#utility.yul\":6161:6166   */\n      0x00\n        /* \"#utility.yul\":6199:6205   */\n      dup2\n        /* \"#utility.yul\":6186:6206   */\n      calldataload\n        /* \"#utility.yul\":6177:6206   */\n      swap1\n      pop\n        /* \"#utility.yul\":6215:6248   */\n      tag_364\n        /* \"#utility.yul\":6242:6247   */\n      dup2\n        /* \"#utility.yul\":6215:6248   */\n      tag_252\n      jump\t// in\n    tag_364:\n        /* \"#utility.yul\":6115:6254   */\n      swap3\n      swap2\n      pop\n      pop\n      jump\t// out\n        /* \"#utility.yul\":6260:6589   */\n    tag_70:\n        /* \"#utility.yul\":6319:6325   */\n      0x00\n        /* \"#utility.yul\":6368:6370   */\n      0x20\n        /* \"#utility.yul\":6356:6365   */\n      dup3\n        /* \"#utility.yul\":6347:6354   */\n      dup5\n        /* \"#utility.yul\":6343:6366   */\n      sub\n        /* \"#utility.yul\":6339:6371   */\n      slt\n        /* \"#utility.yul\":6336:6455   */\n      iszero\n      tag_366\n      jumpi\n        /* \"#utility.yul\":6374:6453   */\n      tag_367\n      tag_232\n      jump\t// in\n    tag_367:\n        /* \"#utility.yul\":6336:6455   */\n    tag_366:\n        /* \"#utility.yul\":6494:6495   */\n      0x00\n        /* \"#utility.yul\":6519:6572   */\n      tag_368\n        /* \"#utility.yul\":6564:6571   */\n      dup5\n        /* \"#utility.yul\":6555:6561   */\n      dup3\n        /* \"#utility.yul\":6544:6553   */\n      dup6\n        /* \"#utility.yul\":6540:6562   */\n      add\n        /* \"#utility.yul\":6519:6572   */\n      tag_253\n      jump\t// in\n    tag_368:\n        /* \"#utility.yul\":6509:6572   */\n      swap2\n      pop\n        /* \"#utility.yul\":6465:6582   */\n      pop\n        /* \"#utility.yul\":6260:6589   */\n      swap3\n      swap2\n      pop\n      pop\n      jump\t// out\n        /* \"#utility.yul\":6595:6704   */\n    tag_254:\n        /* \"#utility.yul\":6676:6697   */\n      tag_370\n        /* \"#utility.yul\":6691:6696   */\n      dup2\n        /* \"#utility.yul\":6676:6697   */\n      tag_234\n      jump\t// in\n    tag_370:\n        /* \"#utility.yul\":6671:6674   */\n      dup3\n        /* \"#utility.yul\":6664:6698   */\n      mstore\n        /* \"#utility.yul\":6595:6704   */\n      pop\n      pop\n      jump\t// out\n        /* \"#utility.yul\":6710:6920   */\n    tag_81:\n        /* \"#utility.yul\":6797:6801   */\n      0x00\n        /* \"#utility.yul\":6835:6837   */\n      0x20\n        /* \"#utility.yul\":6824:6833   */\n      dup3\n        /* \"#utility.yul\":6820:6838   */\n      add\n        /* \"#utility.yul\":6812:6838   */\n      swap1\n      pop\n        /* \"#utility.yul\":6848:6913   */\n      tag_372\n        /* \"#utility.yul\":6910:6911   */\n      0x00\n        /* \"#utility.yul\":6899:6908   */\n      dup4\n        /* \"#utility.yul\":6895:6912   */\n      add\n        /* \"#utility.yul\":6886:6892   */\n      dup5\n        /* \"#utility.yul\":6848:6913   */\n      tag_254\n      jump\t// in\n    tag_372:\n        /* \"#utility.yul\":6710:6920   */\n      swap3\n      swap2\n      pop\n      pop\n      jump\t// out\n        /* \"#utility.yul\":6926:7095   */\n    tag_255:\n        /* \"#utility.yul\":7010:7021   */\n      0x00\n        /* \"#utility.yul\":7044:7050   */\n      dup3\n        /* \"#utility.yul\":7039:7042   */\n      dup3\n        /* \"#utility.yul\":7032:7051   */\n      mstore\n        /* \"#utility.yul\":7084:7088   */\n      0x20\n        /* \"#utility.yul\":7079:7082   */\n      dup3\n        /* \"#utility.yul\":7075:7089   */\n      add\n        /* \"#utility.yul\":7060:7089   */\n      swap1\n      pop\n        /* \"#utility.yul\":6926:7095   */\n      swap3\n      swap2\n      pop\n      pop\n      jump\t// out\n        /* \"#utility.yul\":7101:7269   */\n    tag_256:\n        /* \"#utility.yul\":7241:7261   */\n      0x436f6e7472616374206973206c6f636b65640000000000000000000000000000\n        /* \"#utility.yul\":7237:7238   */\n      0x00\n        /* \"#utility.yul\":7229:7235   */\n      dup3\n        /* \"#utility.yul\":7225:7239   */\n      add\n        /* \"#utility.yul\":7218:7262   */\n      mstore\n        /* \"#utility.yul\":7101:7269   */\n      pop\n      jump\t// out\n        /* \"#utility.yul\":7275:7641   */\n    tag_257:\n        /* \"#utility.yul\":7417:7420   */\n      0x00\n        /* \"#utility.yul\":7438:7505   */\n      tag_376\n        /* \"#utility.yul\":7502:7504   */\n      0x12\n        /* \"#utility.yul\":7497:7500   */\n      dup4\n        /* \"#utility.yul\":7438:7505   */\n      tag_255\n      jump\t// in\n    tag_376:\n        /* \"#utility.yul\":7431:7505   */\n      swap2\n      pop\n        /* \"#utility.yul\":7514:7607   */\n      tag_377\n        /* \"#utility.yul\":7603:7606   */\n      dup3\n        /* \"#utility.yul\":7514:7607   */\n      tag_256\n      jump\t// in\n    tag_377:\n        /* \"#utility.yul\":7632:7634   */\n      0x20\n        /* \"#utility.yul\":7627:7630   */\n      dup3\n        /* \"#utility.yul\":7623:7635   */\n      add\n        /* \"#utility.yul\":7616:7635   */\n      swap1\n      pop\n        /* \"#utility.yul\":7275:7641   */\n      swap2\n      swap1\n      pop\n      jump\t// out\n        /* \"#utility.yul\":7647:8066   */\n    tag_104:\n        /* \"#utility.yul\":7813:7817   */\n      0x00\n        /* \"#utility.yul\":7851:7853   */\n      0x20\n        /* \"#utility.yul\":7840:7849   */\n      dup3\n        /* \"#utility.yul\":7836:7854   */\n      add\n        /* \"#utility.yul\":7828:7854   */\n      swap1\n      pop\n        /* \"#utility.yul\":7900:7909   */\n      dup2\n        /* \"#utility.yul\":7894:7898   */\n      dup2\n        /* \"#utility.yul\":7890:7910   */\n      sub\n        /* \"#utility.yul\":7886:7887   */\n      0x00\n        /* \"#utility.yul\":7875:7884   */\n      dup4\n        /* \"#utility.yul\":7871:7888   */\n      add\n        /* \"#utility.yul\":7864:7911   */\n      mstore\n        /* \"#utility.yul\":7928:8059   */\n      tag_379\n        /* \"#utility.yul\":8054:8058   */\n      dup2\n        /* \"#utility.yul\":7928:8059   */\n      tag_257\n      jump\t// in\n    tag_379:\n        /* \"#utility.yul\":7920:8059   */\n      swap1\n      pop\n        /* \"#utility.yul\":7647:8066   */\n      swap2\n      swap1\n      pop\n      jump\t// out\n        /* \"#utility.yul\":8072:8239   */\n    tag_258:\n        /* \"#utility.yul\":8212:8231   */\n      0x526f756e64206e6f742073746172746564000000000000000000000000000000\n        /* \"#utility.yul\":8208:8209   */\n      0x00\n        /* \"#utility.yul\":8200:8206   */\n      dup3\n        /* \"#utility.yul\":8196:8210   */\n      add\n        /* \"#utility.yul\":8189:8232   */\n      mstore\n        /* \"#utility.yul\":8072:8239   */\n      pop\n      jump\t// out\n        /* \"#utility.yul\":8245:8611   */\n    tag_259:\n        /* \"#utility.yul\":8387:8390   */\n      0x00\n        /* \"#utility.yul\":8408:8475   */\n      tag_382\n        /* \"#utility.yul\":8472:8474   */\n      0x11\n        /* \"#utility.yul\":8467:8470   */\n      dup4\n        /* \"#utility.yul\":8408:8475   */\n      tag_255\n      jump\t// in\n    tag_382:\n        /* \"#utility.yul\":8401:8475   */\n      swap2\n      pop\n        /* \"#utility.yul\":8484:8577   */\n      tag_383\n        /* \"#utility.yul\":8573:8576   */\n      dup3\n        /* \"#utility.yul\":8484:8577   */\n      tag_258\n      jump\t// in\n    tag_383:\n        /* \"#utility.yul\":8602:8604   */\n      0x20\n        /* \"#utility.yul\":8597:8600   */\n      dup3\n        /* \"#utility.yul\":8593:8605   */\n      add\n        /* \"#utility.yul\":8586:8605   */\n      swap1\n      pop\n        /* \"#utility.yul\":8245:8611   */\n      swap2\n      swap1\n      pop\n      jump\t// out\n        /* \"#utility.yul\":8617:9036   */\n    tag_107:\n        /* \"#utility.yul\":8783:8787   */\n      0x00\n        /* \"#utility.yul\":8821:8823   */\n      0x20\n        /* \"#utility.yul\":8810:8819   */\n      dup3\n        /* \"#utility.yul\":8806:8824   */\n      add\n        /* \"#utility.yul\":8798:8824   */\n      swap1\n      pop\n        /* \"#utility.yul\":8870:8879   */\n      dup2\n        /* \"#utility.yul\":8864:8868   */\n      dup2\n        /* \"#utility.yul\":8860:8880   */\n      sub\n        /* \"#utility.yul\":8856:8857   */\n      0x00\n        /* \"#utility.yul\":8845:8854   */\n      dup4\n        /* \"#utility.yul\":8841:8858   */\n      add\n        /* \"#utility.yul\":8834:8881   */\n      mstore\n        /* \"#utility.yul\":8898:9029   */\n      tag_385\n        /* \"#utility.yul\":9024:9028   */\n      dup2\n        /* \"#utility.yul\":8898:9029   */\n      tag_259\n      jump\t// in\n    tag_385:\n        /* \"#utility.yul\":8890:9029   */\n      swap1\n      pop\n        /* \"#utility.yul\":8617:9036   */\n      swap2\n      swap1\n      pop\n      jump\t// out\n        /* \"#utility.yul\":9042:9200   */\n    tag_260:\n        /* \"#utility.yul\":9182:9192   */\n      0x4e6f2066756e6473000000000000000000000000000000000000000000000000\n        /* \"#utility.yul\":9178:9179   */\n      0x00\n        /* \"#utility.yul\":9170:9176   */\n      dup3\n        /* \"#utility.yul\":9166:9180   */\n      add\n        /* \"#utility.yul\":9159:9193   */\n      mstore\n        /* \"#utility.yul\":9042:9200   */\n      pop\n      jump\t// out\n        /* \"#utility.yul\":9206:9571   */\n    tag_261:\n        /* \"#utility.yul\":9348:9351   */\n      0x00\n        /* \"#utility.yul\":9369:9435   */\n      tag_388\n        /* \"#utility.yul\":9433:9434   */\n      0x08\n        /* \"#utility.yul\":9428:9431   */\n      dup4\n        /* \"#utility.yul\":9369:9435   */\n      tag_255\n      jump\t// in\n    tag_388:\n        /* \"#utility.yul\":9362:9435   */\n      swap2\n      pop\n        /* \"#utility.yul\":9444:9537   */\n      tag_389\n        /* \"#utility.yul\":9533:9536   */\n      dup3\n        /* \"#utility.yul\":9444:9537   */\n      tag_260\n      jump\t// in\n    tag_389:\n        /* \"#utility.yul\":9562:9564   */\n      0x20\n        /* \"#utility.yul\":9557:9560   */\n      dup3\n        /* \"#utility.yul\":9553:9565   */\n      add\n        /* \"#utility.yul\":9546:9565   */\n      swap1\n      pop\n        /* \"#utility.yul\":9206:9571   */\n      swap2\n      swap1\n      pop\n      jump\t// out\n        /* \"#utility.yul\":9577:9996   */\n    tag_110:\n        /* \"#utility.yul\":9743:9747   */\n      0x00\n        /* \"#utility.yul\":9781:9783   */\n      0x20\n        /* \"#utility.yul\":9770:9779   */\n      dup3\n        /* \"#utility.yul\":9766:9784   */\n      add\n        /* \"#utility.yul\":9758:9784   */\n      swap1\n      pop\n        /* \"#utility.yul\":9830:9839   */\n      dup2\n        /* \"#utility.yul\":9824:9828   */\n      dup2\n        /* \"#utility.yul\":9820:9840   */\n      sub\n        /* \"#utility.yul\":9816:9817   */\n      0x00\n        /* \"#utility.yul\":9805:9814   */\n      dup4\n        /* \"#utility.yul\":9801:9818   */\n      add\n        /* \"#utility.yul\":9794:9841   */\n      mstore\n        /* \"#utility.yul\":9858:9989   */\n      tag_391\n        /* \"#utility.yul\":9984:9988   */\n      dup2\n        /* \"#utility.yul\":9858:9989   */\n      tag_261\n      jump\t// in\n    tag_391:\n        /* \"#utility.yul\":9850:9989   */\n      swap1\n      pop\n        /* \"#utility.yul\":9577:9996   */\n      swap2\n      swap1\n      pop\n      jump\t// out\n        /* \"#utility.yul\":10002:10167   */\n    tag_262:\n        /* \"#utility.yul\":10142:10159   */\n      0x4e6f742077686974656c69737465640000000000000000000000000000000000\n        /* \"#utility.yul\":10138:10139   */\n      0x00\n        /* \"#utility.yul\":10130:10136   */\n      dup3\n        /* \"#utility.yul\":10126:10140   */\n      add\n        /* \"#utility.yul\":10119:10160   */\n      mstore\n        /* \"#utility.yul\":10002:10167   */\n      pop\n      jump\t// out\n        /* \"#utility.yul\":10173:10539   */\n    tag_263:\n        /* \"#utility.yul\":10315:10318   */\n      0x00\n        /* \"#utility.yul\":10336:10403   */\n      tag_394\n        /* \"#utility.yul\":10400:10402   */\n      0x0f\n        /* \"#utility.yul\":10395:10398   */\n      dup4\n        /* \"#utility.yul\":10336:10403   */\n      tag_255\n      jump\t// in\n    tag_394:\n        /* \"#utility.yul\":10329:10403   */\n      swap2\n      pop\n        /* \"#utility.yul\":10412:10505   */\n      tag_395\n        /* \"#utility.yul\":10501:10504   */\n      dup3\n        /* \"#utility.yul\":10412:10505   */\n      tag_262\n      jump\t// in\n    tag_395:\n        /* \"#utility.yul\":10530:10532   */\n      0x20\n        /* \"#utility.yul\":10525:10528   */\n      dup3\n        /* \"#utility.yul\":10521:10533   */\n      add\n        /* \"#utility.yul\":10514:10533   */\n      swap1\n      pop\n        /* \"#utility.yul\":10173:10539   */\n      swap2\n      swap1\n      pop\n      jump\t// out\n        /* \"#utility.yul\":10545:10964   */\n    tag_116:\n        /* \"#utility.yul\":10711:10715   */\n      0x00\n        /* \"#utility.yul\":10749:10751   */\n      0x20\n        /* \"#utility.yul\":10738:10747   */\n      dup3\n        /* \"#utility.yul\":10734:10752   */\n      add\n        /* \"#utility.yul\":10726:10752   */\n      swap1\n      pop\n        /* \"#utility.yul\":10798:10807   */\n      dup2\n        /* \"#utility.yul\":10792:10796   */\n      dup2\n        /* \"#utility.yul\":10788:10808   */\n      sub\n        /* \"#utility.yul\":10784:10785   */\n      0x00\n        /* \"#utility.yul\":10773:10782   */\n      dup4\n        /* \"#utility.yul\":10769:10786   */\n      add\n        /* \"#utility.yul\":10762:10809   */\n      mstore\n        /* \"#utility.yul\":10826:10957   */\n      tag_397\n        /* \"#utility.yul\":10952:10956   */\n      dup2\n        /* \"#utility.yul\":10826:10957   */\n      tag_263\n      jump\t// in\n    tag_397:\n        /* \"#utility.yul\":10818:10957   */\n      swap1\n      pop\n        /* \"#utility.yul\":10545:10964   */\n      swap2\n      swap1\n      pop\n      jump\t// out\n        /* \"#utility.yul\":10970:11134   */\n    tag_264:\n        /* \"#utility.yul\":11110:11126   */\n      0x496e76616c696420616d6f756e74000000000000000000000000000000000000\n        /* \"#utility.yul\":11106:11107   */\n      0x00\n        /* \"#utility.yul\":11098:11104   */\n      dup3\n        /* \"#utility.yul\":11094:11108   */\n      add\n        /* \"#utility.yul\":11087:11127   */\n      mstore\n        /* \"#utility.yul\":10970:11134   */\n      pop\n      jump\t// out\n        /* \"#utility.yul\":11140:11506   */\n    tag_265:\n        /* \"#utility.yul\":11282:11285   */\n      0x00\n        /* \"#utility.yul\":11303:11370   */\n      tag_400\n        /* \"#utility.yul\":11367:11369   */\n      0x0e\n        /* \"#utility.yul\":11362:11365   */\n      dup4\n        /* \"#utility.yul\":11303:11370   */\n      tag_255\n      jump\t// in\n    tag_400:\n        /* \"#utility.yul\":11296:11370   */\n      swap2\n      pop\n        /* \"#utility.yul\":11379:11472   */\n      tag_401\n        /* \"#utility.yul\":11468:11471   */\n      dup3\n        /* \"#utility.yul\":11379:11472   */\n      tag_264\n      jump\t// in\n    tag_401:\n        /* \"#utility.yul\":11497:11499   */\n      0x20\n        /* \"#utility.yul\":11492:11495   */\n      dup3\n        /* \"#utility.yul\":11488:11500   */\n      add\n        /* \"#utility.yul\":11481:11500   */\n      swap1\n      pop\n        /* \"#utility.yul\":11140:11506   */\n      swap2\n      swap1\n      pop\n      jump\t// out\n        /* \"#utility.yul\":11512:11931   */\n    tag_120:\n        /* \"#utility.yul\":11678:11682   */\n      0x00\n        /* \"#utility.yul\":11716:11718   */\n      0x20\n        /* \"#utility.yul\":11705:11714   */\n      dup3\n        /* \"#utility.yul\":11701:11719   */\n      add\n        /* \"#utility.yul\":11693:11719   */\n      swap1\n      pop\n        /* \"#utility.yul\":11765:11774   */\n      dup2\n        /* \"#utility.yul\":11759:11763   */\n      dup2\n        /* \"#utility.yul\":11755:11775   */\n      sub\n        /* \"#utility.yul\":11751:11752   */\n      0x00\n        /* \"#utility.yul\":11740:11749   */\n      dup4\n        /* \"#utility.yul\":11736:11753   */\n      add\n        /* \"#utility.yul\":11729:11776   */\n      mstore\n        /* \"#utility.yul\":11793:11924   */\n      tag_403\n        /* \"#utility.yul\":11919:11923   */\n      dup2\n        /* \"#utility.yul\":11793:11924   */\n      tag_265\n      jump\t// in\n    tag_403:\n        /* \"#utility.yul\":11785:11924   */\n      swap1\n      pop\n        /* \"#utility.yul\":11512:11931   */\n      swap2\n      swap1\n      pop\n      jump\t// out\n        /* \"#utility.yul\":11937:12379   */\n    tag_122:\n        /* \"#utility.yul\":12086:12090   */\n      0x00\n        /* \"#utility.yul\":12124:12126   */\n      0x60\n        /* \"#utility.yul\":12113:12122   */\n      dup3\n        /* \"#utility.yul\":12109:12127   */\n      add\n        /* \"#utility.yul\":12101:12127   */\n      swap1\n      pop\n        /* \"#utility.yul\":12137:12208   */\n      tag_405\n        /* \"#utility.yul\":12205:12206   */\n      0x00\n        /* \"#utility.yul\":12194:12203   */\n      dup4\n        /* \"#utility.yul\":12190:12207   */\n      add\n        /* \"#utility.yul\":12181:12187   */\n      dup7\n        /* \"#utility.yul\":12137:12208   */\n      tag_251\n      jump\t// in\n    tag_405:\n        /* \"#utility.yul\":12218:12290   */\n      tag_406\n        /* \"#utility.yul\":12286:12288   */\n      0x20\n        /* \"#utility.yul\":12275:12284   */\n      dup4\n        /* \"#utility.yul\":12271:12289   */\n      add\n        /* \"#utility.yul\":12262:12268   */\n      dup6\n        /* \"#utility.yul\":12218:12290   */\n      tag_251\n      jump\t// in\n    tag_406:\n        /* \"#utility.yul\":12300:12372   */\n      tag_407\n        /* \"#utility.yul\":12368:12370   */\n      0x40\n        /* \"#utility.yul\":12357:12366   */\n      dup4\n        /* \"#utility.yul\":12353:12371   */\n      add\n        /* \"#utility.yul\":12344:12350   */\n      dup5\n        /* \"#utility.yul\":12300:12372   */\n      tag_238\n      jump\t// in\n    tag_407:\n        /* \"#utility.yul\":11937:12379   */\n      swap5\n      swap4\n      pop\n      pop\n      pop\n      pop\n      jump\t// out\n        /* \"#utility.yul\":12385:12522   */\n    tag_266:\n        /* \"#utility.yul\":12439:12444   */\n      0x00\n        /* \"#utility.yul\":12470:12476   */\n      dup2\n        /* \"#utility.yul\":12464:12477   */\n      mload\n        /* \"#utility.yul\":12455:12477   */\n      swap1\n      pop\n        /* \"#utility.yul\":12486:12516   */\n      tag_409\n        /* \"#utility.yul\":12510:12515   */\n      dup2\n        /* \"#utility.yul\":12486:12516   */\n      tag_235\n      jump\t// in\n    tag_409:\n        /* \"#utility.yul\":12385:12522   */\n      swap3\n      swap2\n      pop\n      pop\n      jump\t// out\n        /* \"#utility.yul\":12528:12873   */\n    tag_126:\n        /* \"#utility.yul\":12595:12601   */\n      0x00\n        /* \"#utility.yul\":12644:12646   */\n      0x20\n        /* \"#utility.yul\":12632:12641   */\n      dup3\n        /* \"#utility.yul\":12623:12630   */\n      dup5\n        /* \"#utility.yul\":12619:12642   */\n      sub\n        /* \"#utility.yul\":12615:12647   */\n      slt\n        /* \"#utility.yul\":12612:12731   */\n      iszero\n      tag_411\n      jumpi\n        /* \"#utility.yul\":12650:12729   */\n      tag_412\n      tag_232\n      jump\t// in\n    tag_412:\n        /* \"#utility.yul\":12612:12731   */\n    tag_411:\n        /* \"#utility.yul\":12770:12771   */\n      0x00\n        /* \"#utility.yul\":12795:12856   */\n      tag_413\n        /* \"#utility.yul\":12848:12855   */\n      dup5\n        /* \"#utility.yul\":12839:12845   */\n      dup3\n        /* \"#utility.yul\":12828:12837   */\n      dup6\n        /* \"#utility.yul\":12824:12846   */\n      add\n        /* \"#utility.yul\":12795:12856   */\n      tag_266\n      jump\t// in\n    tag_413:\n        /* \"#utility.yul\":12785:12856   */\n      swap2\n      pop\n        /* \"#utility.yul\":12741:12866   */\n      pop\n        /* \"#utility.yul\":12528:12873   */\n      swap3\n      swap2\n      pop\n      pop\n      jump\t// out\n        /* \"#utility.yul\":12879:13044   */\n    tag_267:\n        /* \"#utility.yul\":13019:13036   */\n      0x5472616e73666572206661696c65640000000000000000000000000000000000\n        /* \"#utility.yul\":13015:13016   */\n      0x00\n        /* \"#utility.yul\":13007:13013   */\n      dup3\n        /* \"#utility.yul\":13003:13017   */\n      add\n        /* \"#utility.yul\":12996:13037   */\n      mstore\n        /* \"#utility.yul\":12879:13044   */\n      pop\n      jump\t// out\n        /* \"#utility.yul\":13050:13416   */\n    tag_268:\n        /* \"#utility.yul\":13192:13195   */\n      0x00\n        /* \"#utility.yul\":13213:13280   */\n      tag_416\n        /* \"#utility.yul\":13277:13279   */\n      0x0f\n        /* \"#utility.yul\":13272:13275   */\n      dup4\n        /* \"#utility.yul\":13213:13280   */\n      tag_255\n      jump\t// in\n    tag_416:\n        /* \"#utility.yul\":13206:13280   */\n      swap2\n      pop\n        /* \"#utility.yul\":13289:13382   */\n      tag_417\n        /* \"#utility.yul\":13378:13381   */\n      dup3\n        /* \"#utility.yul\":13289:13382   */\n      tag_267\n      jump\t// in\n    tag_417:\n        /* \"#utility.yul\":13407:13409   */\n      0x20\n        /* \"#utility.yul\":13402:13405   */\n      dup3\n        /* \"#utility.yul\":13398:13410   */\n      add\n        /* \"#utility.yul\":13391:13410   */\n      swap1\n      pop\n        /* \"#utility.yul\":13050:13416   */\n      swap2\n      swap1\n      pop\n      jump\t// out\n        /* \"#utility.yul\":13422:13841   */\n    tag_129:\n        /* \"#utility.yul\":13588:13592   */\n      0x00\n        /* \"#utility.yul\":13626:13628   */\n      0x20\n        /* \"#utility.yul\":13615:13624   */\n      dup3\n        /* \"#utility.yul\":13611:13629   */\n      add\n        /* \"#utility.yul\":13603:13629   */\n      swap1\n      pop\n        /* \"#utility.yul\":13675:13684   */\n      dup2\n        /* \"#utility.yul\":13669:13673   */\n      dup2\n        /* \"#utility.yul\":13665:13685   */\n      sub\n        /* \"#utility.yul\":13661:13662   */\n      0x00\n        /* \"#utility.yul\":13650:13659   */\n      dup4\n        /* \"#utility.yul\":13646:13663   */\n      add\n        /* \"#utility.yul\":13639:13686   */\n      mstore\n        /* \"#utility.yul\":13703:13834   */\n      tag_419\n        /* \"#utility.yul\":13829:13833   */\n      dup2\n        /* \"#utility.yul\":13703:13834   */\n      tag_268\n      jump\t// in\n    tag_419:\n        /* \"#utility.yul\":13695:13834   */\n      swap1\n      pop\n        /* \"#utility.yul\":13422:13841   */\n      swap2\n      swap1\n      pop\n      jump\t// out\n        /* \"#utility.yul\":13847:14027   */\n    tag_269:\n        /* \"#utility.yul\":13895:13972   */\n      0x4e487b7100000000000000000000000000000000000000000000000000000000\n        /* \"#utility.yul\":13892:13893   */\n      0x00\n        /* \"#utility.yul\":13885:13973   */\n      mstore\n        /* \"#utility.yul\":13992:13996   */\n      0x11\n        /* \"#utility.yul\":13989:13990   */\n      0x04\n        /* \"#utility.yul\":13982:13997   */\n      mstore\n        /* \"#utility.yul\":14016:14020   */\n      0x24\n        /* \"#utility.yul\":14013:14014   */\n      0x00\n        /* \"#utility.yul\":14006:14021   */\n      revert\n        /* \"#utility.yul\":14033:14224   */\n    tag_133:\n        /* \"#utility.yul\":14073:14076   */\n      0x00\n        /* \"#utility.yul\":14092:14112   */\n      tag_422\n        /* \"#utility.yul\":14110:14111   */\n      dup3\n        /* \"#utility.yul\":14092:14112   */\n      tag_237\n      jump\t// in\n    tag_422:\n        /* \"#utility.yul\":14087:14112   */\n      swap2\n      pop\n        /* \"#utility.yul\":14126:14146   */\n      tag_423\n        /* \"#utility.yul\":14144:14145   */\n      dup4\n        /* \"#utility.yul\":14126:14146   */\n      tag_237\n      jump\t// in\n    tag_423:\n        /* \"#utility.yul\":14121:14146   */\n      swap3\n      pop\n        /* \"#utility.yul\":14169:14170   */\n      dup3\n        /* \"#utility.yul\":14166:14167   */\n      dup3\n        /* \"#utility.yul\":14162:14171   */\n      add\n        /* \"#utility.yul\":14155:14171   */\n      swap1\n      pop\n        /* \"#utility.yul\":14190:14193   */\n      dup1\n        /* \"#utility.yul\":14187:14188   */\n      dup3\n        /* \"#utility.yul\":14184:14194   */\n      gt\n        /* \"#utility.yul\":14181:14217   */\n      iszero\n      tag_424\n      jumpi\n        /* \"#utility.yul\":14197:14215   */\n      tag_425\n      tag_269\n      jump\t// in\n    tag_425:\n        /* \"#utility.yul\":14181:14217   */\n    tag_424:\n        /* \"#utility.yul\":14033:14224   */\n      swap3\n      swap2\n      pop\n      pop\n      jump\t// out\n        /* \"#utility.yul\":14230:14393   */\n    tag_270:\n        /* \"#utility.yul\":14370:14385   */\n      0x45786365656473206c696d697400000000000000000000000000000000000000\n        /* \"#utility.yul\":14366:14367   */\n      0x00\n        /* \"#utility.yul\":14358:14364   */\n      dup3\n        /* \"#utility.yul\":14354:14368   */\n      add\n        /* \"#utility.yul\":14347:14386   */\n      mstore\n        /* \"#utility.yul\":14230:14393   */\n      pop\n      jump\t// out\n        /* \"#utility.yul\":14399:14765   */\n    tag_271:\n        /* \"#utility.yul\":14541:14544   */\n      0x00\n        /* \"#utility.yul\":14562:14629   */\n      tag_428\n        /* \"#utility.yul\":14626:14628   */\n      0x0d\n        /* \"#utility.yul\":14621:14624   */\n      dup4\n        /* \"#utility.yul\":14562:14629   */\n      tag_255\n      jump\t// in\n    tag_428:\n        /* \"#utility.yul\":14555:14629   */\n      swap2\n      pop\n        /* \"#utility.yul\":14638:14731   */\n      tag_429\n        /* \"#utility.yul\":14727:14730   */\n      dup3\n        /* \"#utility.yul\":14638:14731   */\n      tag_270\n      jump\t// in\n    tag_429:\n        /* \"#utility.yul\":14756:14758   */\n      0x20\n        /* \"#utility.yul\":14751:14754   */\n      dup3\n        /* \"#utility.yul\":14747:14759   */\n      add\n        /* \"#utility.yul\":14740:14759   */\n      swap1\n      pop\n        /* \"#utility.yul\":14399:14765   */\n      swap2\n      swap1\n      pop\n      jump\t// out\n        /* \"#utility.yul\":14771:15190   */\n    tag_136:\n        /* \"#utility.yul\":14937:14941   */\n      0x00\n        /* \"#utility.yul\":14975:14977   */\n      0x20\n        /* \"#utility.yul\":14964:14973   */\n      dup3\n        /* \"#utility.yul\":14960:14978   */\n      add\n        /* \"#utility.yul\":14952:14978   */\n      swap1\n      pop\n        /* \"#utility.yul\":15024:15033   */\n      dup2\n        /* \"#utility.yul\":15018:15022   */\n      dup2\n        /* \"#utility.yul\":15014:15034   */\n      sub\n        /* \"#utility.yul\":15010:15011   */\n      0x00\n        /* \"#utility.yul\":14999:15008   */\n      dup4\n        /* \"#utility.yul\":14995:15012   */\n      add\n        /* \"#utility.yul\":14988:15035   */\n      mstore\n        /* \"#utility.yul\":15052:15183   */\n      tag_431\n        /* \"#utility.yul\":15178:15182   */\n      dup2\n        /* \"#utility.yul\":15052:15183   */\n      tag_271\n      jump\t// in\n    tag_431:\n        /* \"#utility.yul\":15044:15183   */\n      swap1\n      pop\n        /* \"#utility.yul\":14771:15190   */\n      swap2\n      swap1\n      pop\n      jump\t// out\n        /* \"#utility.yul\":15196:15606   */\n    tag_138:\n        /* \"#utility.yul\":15236:15243   */\n      0x00\n        /* \"#utility.yul\":15259:15279   */\n      tag_433\n        /* \"#utility.yul\":15277:15278   */\n      dup3\n        /* \"#utility.yul\":15259:15279   */\n      tag_237\n      jump\t// in\n    tag_433:\n        /* \"#utility.yul\":15254:15279   */\n      swap2\n      pop\n        /* \"#utility.yul\":15293:15313   */\n      tag_434\n        /* \"#utility.yul\":15311:15312   */\n      dup4\n        /* \"#utility.yul\":15293:15313   */\n      tag_237\n      jump\t// in\n    tag_434:\n        /* \"#utility.yul\":15288:15313   */\n      swap3\n      pop\n        /* \"#utility.yul\":15348:15349   */\n      dup3\n        /* \"#utility.yul\":15345:15346   */\n      dup3\n        /* \"#utility.yul\":15341:15350   */\n      mul\n        /* \"#utility.yul\":15370:15400   */\n      tag_435\n        /* \"#utility.yul\":15388:15399   */\n      dup2\n        /* \"#utility.yul\":15370:15400   */\n      tag_237\n      jump\t// in\n    tag_435:\n        /* \"#utility.yul\":15359:15400   */\n      swap2\n      pop\n        /* \"#utility.yul\":15549:15550   */\n      dup3\n        /* \"#utility.yul\":15540:15547   */\n      dup3\n        /* \"#utility.yul\":15536:15551   */\n      div\n        /* \"#utility.yul\":15533:15534   */\n      dup5\n        /* \"#utility.yul\":15530:15552   */\n      eq\n        /* \"#utility.yul\":15510:15511   */\n      dup4\n        /* \"#utility.yul\":15503:15512   */\n      iszero\n        /* \"#utility.yul\":15483:15566   */\n      or\n        /* \"#utility.yul\":15460:15599   */\n      tag_436\n      jumpi\n        /* \"#utility.yul\":15579:15597   */\n      tag_437\n      tag_269\n      jump\t// in\n    tag_437:\n        /* \"#utility.yul\":15460:15599   */\n    tag_436:\n        /* \"#utility.yul\":15244:15606   */\n      pop\n        /* \"#utility.yul\":15196:15606   */\n      swap3\n      swap2\n      pop\n      pop\n      jump\t// out\n        /* \"#utility.yul\":15612:15792   */\n    tag_272:\n        /* \"#utility.yul\":15660:15737   */\n      0x4e487b7100000000000000000000000000000000000000000000000000000000\n        /* \"#utility.yul\":15657:15658   */\n      0x00\n        /* \"#utility.yul\":15650:15738   */\n      mstore\n        /* \"#utility.yul\":15757:15761   */\n      0x12\n        /* \"#utility.yul\":15754:15755   */\n      0x04\n        /* \"#utility.yul\":15747:15762   */\n      mstore\n        /* \"#utility.yul\":15781:15785   */\n      0x24\n        /* \"#utility.yul\":15778:15779   */\n      0x00\n        /* \"#utility.yul\":15771:15786   */\n      revert\n        /* \"#utility.yul\":15798:15983   */\n    tag_140:\n        /* \"#utility.yul\":15838:15839   */\n      0x00\n        /* \"#utility.yul\":15855:15875   */\n      tag_440\n        /* \"#utility.yul\":15873:15874   */\n      dup3\n        /* \"#utility.yul\":15855:15875   */\n      tag_237\n      jump\t// in\n    tag_440:\n        /* \"#utility.yul\":15850:15875   */\n      swap2\n      pop\n        /* \"#utility.yul\":15889:15909   */\n      tag_441\n        /* \"#utility.yul\":15907:15908   */\n      dup4\n        /* \"#utility.yul\":15889:15909   */\n      tag_237\n      jump\t// in\n    tag_441:\n        /* \"#utility.yul\":15884:15909   */\n      swap3\n      pop\n        /* \"#utility.yul\":15928:15929   */\n      dup3\n        /* \"#utility.yul\":15918:15953   */\n      tag_442\n      jumpi\n        /* \"#utility.yul\":15933:15951   */\n      tag_443\n      tag_272\n      jump\t// in\n    tag_443:\n        /* \"#utility.yul\":15918:15953   */\n    tag_442:\n        /* \"#utility.yul\":15975:15976   */\n      dup3\n        /* \"#utility.yul\":15972:15973   */\n      dup3\n        /* \"#utility.yul\":15968:15977   */\n      div\n        /* \"#utility.yul\":15963:15977   */\n      swap1\n      pop\n        /* \"#utility.yul\":15798:15983   */\n      swap3\n      swap2\n      pop\n      pop\n      jump\t// out\n        /* \"#utility.yul\":15989:16183   */\n    tag_142:\n        /* \"#utility.yul\":16029:16033   */\n      0x00\n        /* \"#utility.yul\":16049:16069   */\n      tag_445\n        /* \"#utility.yul\":16067:16068   */\n      dup3\n        /* \"#utility.yul\":16049:16069   */\n      tag_237\n      jump\t// in\n    tag_445:\n        /* \"#utility.yul\":16044:16069   */\n      swap2\n      pop\n        /* \"#utility.yul\":16083:16103   */\n      tag_446\n        /* \"#utility.yul\":16101:16102   */\n      dup4\n        /* \"#utility.yul\":16083:16103   */\n      tag_237\n      jump\t// in\n    tag_446:\n        /* \"#utility.yul\":16078:16103   */\n      swap3\n      pop\n        /* \"#utility.yul\":16127:16128   */\n      dup3\n        /* \"#utility.yul\":16124:16125   */\n      dup3\n        /* \"#utility.yul\":16120:16129   */\n      sub\n        /* \"#utility.yul\":16112:16129   */\n      swap1\n      pop\n        /* \"#utility.yul\":16151:16152   */\n      dup2\n        /* \"#utility.yul\":16145:16149   */\n      dup2\n        /* \"#utility.yul\":16142:16153   */\n      gt\n        /* \"#utility.yul\":16139:16176   */\n      iszero\n      tag_447\n      jumpi\n        /* \"#utility.yul\":16156:16174   */\n      tag_448\n      tag_269\n      jump\t// in\n    tag_448:\n        /* \"#utility.yul\":16139:16176   */\n    tag_447:\n        /* \"#utility.yul\":15989:16183   */\n      swap3\n      swap2\n      pop\n      pop\n      jump\t// out\n        /* \"#utility.yul\":16189:16521   */\n    tag_146:\n        /* \"#utility.yul\":16310:16314   */\n      0x00\n        /* \"#utility.yul\":16348:16350   */\n      0x40\n        /* \"#utility.yul\":16337:16346   */\n      dup3\n        /* \"#utility.yul\":16333:16351   */\n      add\n        /* \"#utility.yul\":16325:16351   */\n      swap1\n      pop\n        /* \"#utility.yul\":16361:16432   */\n      tag_450\n        /* \"#utility.yul\":16429:16430   */\n      0x00\n        /* \"#utility.yul\":16418:16427   */\n      dup4\n        /* \"#utility.yul\":16414:16431   */\n      add\n        /* \"#utility.yul\":16405:16411   */\n      dup6\n        /* \"#utility.yul\":16361:16432   */\n      tag_251\n      jump\t// in\n    tag_450:\n        /* \"#utility.yul\":16442:16514   */\n      tag_451\n        /* \"#utility.yul\":16510:16512   */\n      0x20\n        /* \"#utility.yul\":16499:16508   */\n      dup4\n        /* \"#utility.yul\":16495:16513   */\n      add\n        /* \"#utility.yul\":16486:16492   */\n      dup5\n        /* \"#utility.yul\":16442:16514   */\n      tag_238\n      jump\t// in\n    tag_451:\n        /* \"#utility.yul\":16189:16521   */\n      swap4\n      swap3\n      pop\n      pop\n      pop\n      jump\t// out\n        /* \"#utility.yul\":16527:16690   */\n    tag_273:\n        /* \"#utility.yul\":16667:16682   */\n      0x526566756e64206661696c656400000000000000000000000000000000000000\n        /* \"#utility.yul\":16663:16664   */\n      0x00\n        /* \"#utility.yul\":16655:16661   */\n      dup3\n        /* \"#utility.yul\":16651:16665   */\n      add\n        /* \"#utility.yul\":16644:16683   */\n      mstore\n        /* \"#utility.yul\":16527:16690   */\n      pop\n      jump\t// out\n        /* \"#utility.yul\":16696:17062   */\n    tag_274:\n        /* \"#utility.yul\":16838:16841   */\n      0x00\n        /* \"#utility.yul\":16859:16926   */\n      tag_454\n        /* \"#utility.yul\":16923:16925   */\n      0x0d\n        /* \"#utility.yul\":16918:16921   */\n      dup4\n        /* \"#utility.yul\":16859:16926   */\n      tag_255\n      jump\t// in\n    tag_454:\n        /* \"#utility.yul\":16852:16926   */\n      swap2\n      pop\n        /* \"#utility.yul\":16935:17028   */\n      tag_455\n        /* \"#utility.yul\":17024:17027   */\n      dup3\n        /* \"#utility.yul\":16935:17028   */\n      tag_273\n      jump\t// in\n    tag_455:\n        /* \"#utility.yul\":17053:17055   */\n      0x20\n        /* \"#utility.yul\":17048:17051   */\n      dup3\n        /* \"#utility.yul\":17044:17056   */\n      add\n        /* \"#utility.yul\":17037:17056   */\n      swap1\n      pop\n        /* \"#utility.yul\":16696:17062   */\n      swap2\n      swap1\n      pop\n      jump\t// out\n        /* \"#utility.yul\":17068:17487   */\n    tag_152:\n        /* \"#utility.yul\":17234:17238   */\n      0x00\n        /* \"#utility.yul\":17272:17274   */\n      0x20\n        /* \"#utility.yul\":17261:17270   */\n      dup3\n        /* \"#utility.yul\":17257:17275   */\n      add\n        /* \"#utility.yul\":17249:17275   */\n      swap1\n      pop\n        /* \"#utility.yul\":17321:17330   */\n      dup2\n        /* \"#utility.yul\":17315:17319   */\n      dup2\n        /* \"#utility.yul\":17311:17331   */\n      sub\n        /* \"#utility.yul\":17307:17308   */\n      0x00\n        /* \"#utility.yul\":17296:17305   */\n      dup4\n        /* \"#utility.yul\":17292:17309   */\n      add\n        /* \"#utility.yul\":17285:17332   */\n      mstore\n        /* \"#utility.yul\":17349:17480   */\n      tag_457\n        /* \"#utility.yul\":17475:17479   */\n      dup2\n        /* \"#utility.yul\":17349:17480   */\n      tag_274\n      jump\t// in\n    tag_457:\n        /* \"#utility.yul\":17341:17480   */\n      swap1\n      pop\n        /* \"#utility.yul\":17068:17487   */\n      swap2\n      swap1\n      pop\n      jump\t// out\n        /* \"#utility.yul\":17493:17935   */\n    tag_154:\n        /* \"#utility.yul\":17642:17646   */\n      0x00\n        /* \"#utility.yul\":17680:17682   */\n      0x60\n        /* \"#utility.yul\":17669:17678   */\n      dup3\n        /* \"#utility.yul\":17665:17683   */\n      add\n        /* \"#utility.yul\":17657:17683   */\n      swap1\n      pop\n        /* \"#utility.yul\":17693:17764   */\n      tag_459\n        /* \"#utility.yul\":17761:17762   */\n      0x00\n        /* \"#utility.yul\":17750:17759   */\n      dup4\n        /* \"#utility.yul\":17746:17763   */\n      add\n        /* \"#utility.yul\":17737:17743   */\n      dup7\n        /* \"#utility.yul\":17693:17764   */\n      tag_238\n      jump\t// in\n    tag_459:\n        /* \"#utility.yul\":17774:17846   */\n      tag_460\n        /* \"#utility.yul\":17842:17844   */\n      0x20\n        /* \"#utility.yul\":17831:17840   */\n      dup4\n        /* \"#utility.yul\":17827:17845   */\n      add\n        /* \"#utility.yul\":17818:17824   */\n      dup6\n        /* \"#utility.yul\":17774:17846   */\n      tag_251\n      jump\t// in\n    tag_460:\n        /* \"#utility.yul\":17856:17928   */\n      tag_461\n        /* \"#utility.yul\":17924:17926   */\n      0x40\n        /* \"#utility.yul\":17913:17922   */\n      dup4\n        /* \"#utility.yul\":17909:17927   */\n      add\n        /* \"#utility.yul\":17900:17906   */\n      dup5\n        /* \"#utility.yul\":17856:17928   */\n      tag_238\n      jump\t// in\n    tag_461:\n        /* \"#utility.yul\":17493:17935   */\n      swap5\n      swap4\n      pop\n      pop\n      pop\n      pop\n      jump\t// out\n        /* \"#utility.yul\":17941:18273   */\n    tag_156:\n        /* \"#utility.yul\":18062:18066   */\n      0x00\n        /* \"#utility.yul\":18100:18102   */\n      0x40\n        /* \"#utility.yul\":18089:18098   */\n      dup3\n        /* \"#utility.yul\":18085:18103   */\n      add\n        /* \"#utility.yul\":18077:18103   */\n      swap1\n      pop\n        /* \"#utility.yul\":18113:18184   */\n      tag_463\n        /* \"#utility.yul\":18181:18182   */\n      0x00\n        /* \"#utility.yul\":18170:18179   */\n      dup4\n        /* \"#utility.yul\":18166:18183   */\n      add\n        /* \"#utility.yul\":18157:18163   */\n      dup6\n        /* \"#utility.yul\":18113:18184   */\n      tag_238\n      jump\t// in\n    tag_463:\n        /* \"#utility.yul\":18194:18266   */\n      tag_464\n        /* \"#utility.yul\":18262:18264   */\n      0x20\n        /* \"#utility.yul\":18251:18260   */\n      dup4\n        /* \"#utility.yul\":18247:18265   */\n      add\n        /* \"#utility.yul\":18238:18244   */\n      dup5\n        /* \"#utility.yul\":18194:18266   */\n      tag_238\n      jump\t// in\n    tag_464:\n        /* \"#utility.yul\":17941:18273   */\n      swap4\n      swap3\n      pop\n      pop\n      pop\n      jump\t// out\n        /* \"#utility.yul\":18279:18451   */\n    tag_275:\n        /* \"#utility.yul\":18419:18443   */\n      0x526f756e64204944206d75737420696e63726561736500000000000000000000\n        /* \"#utility.yul\":18415:18416   */\n      0x00\n        /* \"#utility.yul\":18407:18413   */\n      dup3\n        /* \"#utility.yul\":18403:18417   */\n      add\n        /* \"#utility.yul\":18396:18444   */\n      mstore\n        /* \"#utility.yul\":18279:18451   */\n      pop\n      jump\t// out\n        /* \"#utility.yul\":18457:18823   */\n    tag_276:\n        /* \"#utility.yul\":18599:18602   */\n      0x00\n        /* \"#utility.yul\":18620:18687   */\n      tag_467\n        /* \"#utility.yul\":18684:18686   */\n      0x16\n        /* \"#utility.yul\":18679:18682   */\n      dup4\n        /* \"#utility.yul\":18620:18687   */\n      tag_255\n      jump\t// in\n    tag_467:\n        /* \"#utility.yul\":18613:18687   */\n      swap2\n      pop\n        /* \"#utility.yul\":18696:18789   */\n      tag_468\n        /* \"#utility.yul\":18785:18788   */\n      dup3\n        /* \"#utility.yul\":18696:18789   */\n      tag_275\n      jump\t// in\n    tag_468:\n        /* \"#utility.yul\":18814:18816   */\n      0x20\n        /* \"#utility.yul\":18809:18812   */\n      dup3\n        /* \"#utility.yul\":18805:18817   */\n      add\n        /* \"#utility.yul\":18798:18817   */\n      swap1\n      pop\n        /* \"#utility.yul\":18457:18823   */\n      swap2\n      swap1\n      pop\n      jump\t// out\n        /* \"#utility.yul\":18829:19248   */\n    tag_162:\n        /* \"#utility.yul\":18995:18999   */\n      0x00\n        /* \"#utility.yul\":19033:19035   */\n      0x20\n        /* \"#utility.yul\":19022:19031   */\n      dup3\n        /* \"#utility.yul\":19018:19036   */\n      add\n        /* \"#utility.yul\":19010:19036   */\n      swap1\n      pop\n        /* \"#utility.yul\":19082:19091   */\n      dup2\n        /* \"#utility.yul\":19076:19080   */\n      dup2\n        /* \"#utility.yul\":19072:19092   */\n      sub\n        /* \"#utility.yul\":19068:19069   */\n      0x00\n        /* \"#utility.yul\":19057:19066   */\n      dup4\n        /* \"#utility.yul\":19053:19070   */\n      add\n        /* \"#utility.yul\":19046:19093   */\n      mstore\n        /* \"#utility.yul\":19110:19241   */\n      tag_470\n        /* \"#utility.yul\":19236:19240   */\n      dup2\n        /* \"#utility.yul\":19110:19241   */\n      tag_276\n      jump\t// in\n    tag_470:\n        /* \"#utility.yul\":19102:19241   */\n      swap1\n      pop\n        /* \"#utility.yul\":18829:19248   */\n      swap2\n      swap1\n      pop\n      jump\t// out\n        /* \"#utility.yul\":19254:19397   */\n    tag_277:\n        /* \"#utility.yul\":19311:19316   */\n      0x00\n        /* \"#utility.yul\":19342:19348   */\n      dup2\n        /* \"#utility.yul\":19336:19349   */\n      mload\n        /* \"#utility.yul\":19327:19349   */\n      swap1\n      pop\n        /* \"#utility.yul\":19358:19391   */\n      tag_472\n        /* \"#utility.yul\":19385:19390   */\n      dup2\n        /* \"#utility.yul\":19358:19391   */\n      tag_243\n      jump\t// in\n    tag_472:\n        /* \"#utility.yul\":19254:19397   */\n      swap3\n      swap2\n      pop\n      pop\n      jump\t// out\n        /* \"#utility.yul\":19403:19754   */\n    tag_167:\n        /* \"#utility.yul\":19473:19479   */\n      0x00\n        /* \"#utility.yul\":19522:19524   */\n      0x20\n        /* \"#utility.yul\":19510:19519   */\n      dup3\n        /* \"#utility.yul\":19501:19508   */\n      dup5\n        /* \"#utility.yul\":19497:19520   */\n      sub\n        /* \"#utility.yul\":19493:19525   */\n      slt\n        /* \"#utility.yul\":19490:19609   */\n      iszero\n      tag_474\n      jumpi\n        /* \"#utility.yul\":19528:19607   */\n      tag_475\n      tag_232\n      jump\t// in\n    tag_475:\n        /* \"#utility.yul\":19490:19609   */\n    tag_474:\n        /* \"#utility.yul\":19648:19649   */\n      0x00\n        /* \"#utility.yul\":19673:19737   */\n      tag_476\n        /* \"#utility.yul\":19729:19736   */\n      dup5\n        /* \"#utility.yul\":19720:19726   */\n      dup3\n        /* \"#utility.yul\":19709:19718   */\n      dup6\n        /* \"#utility.yul\":19705:19727   */\n      add\n        /* \"#utility.yul\":19673:19737   */\n      tag_277\n      jump\t// in\n    tag_476:\n        /* \"#utility.yul\":19663:19737   */\n      swap2\n      pop\n        /* \"#utility.yul\":19619:19747   */\n      pop\n        /* \"#utility.yul\":19403:19754   */\n      swap3\n      swap2\n      pop\n      pop\n      jump\t// out\n        /* \"#utility.yul\":19760:19917   */\n    tag_278:\n        /* \"#utility.yul\":19900:19909   */\n      0x4e6f205553444300000000000000000000000000000000000000000000000000\n        /* \"#utility.yul\":19896:19897   */\n      0x00\n        /* \"#utility.yul\":19888:19894   */\n      dup3\n        /* \"#utility.yul\":19884:19898   */\n      add\n        /* \"#utility.yul\":19877:19910   */\n      mstore\n        /* \"#utility.yul\":19760:19917   */\n      pop\n      jump\t// out\n        /* \"#utility.yul\":19923:20288   */\n    tag_279:\n        /* \"#utility.yul\":20065:20068   */\n      0x00\n        /* \"#utility.yul\":20086:20152   */\n      tag_479\n        /* \"#utility.yul\":20150:20151   */\n      0x07\n        /* \"#utility.yul\":20145:20148   */\n      dup4\n        /* \"#utility.yul\":20086:20152   */\n      tag_255\n      jump\t// in\n    tag_479:\n        /* \"#utility.yul\":20079:20152   */\n      swap2\n      pop\n        /* \"#utility.yul\":20161:20254   */\n      tag_480\n        /* \"#utility.yul\":20250:20253   */\n      dup3\n        /* \"#utility.yul\":20161:20254   */\n      tag_278\n      jump\t// in\n    tag_480:\n        /* \"#utility.yul\":20279:20281   */\n      0x20\n        /* \"#utility.yul\":20274:20277   */\n      dup3\n        /* \"#utility.yul\":20270:20282   */\n      add\n        /* \"#utility.yul\":20263:20282   */\n      swap1\n      pop\n        /* \"#utility.yul\":19923:20288   */\n      swap2\n      swap1\n      pop\n      jump\t// out\n        /* \"#utility.yul\":20294:20713   */\n    tag_170:\n        /* \"#utility.yul\":20460:20464   */\n      0x00\n        /* \"#utility.yul\":20498:20500   */\n      0x20\n        /* \"#utility.yul\":20487:20496   */\n      dup3\n        /* \"#utility.yul\":20483:20501   */\n      add\n        /* \"#utility.yul\":20475:20501   */\n      swap1\n      pop\n        /* \"#utility.yul\":20547:20556   */\n      dup2\n        /* \"#utility.yul\":20541:20545   */\n      dup2\n        /* \"#utility.yul\":20537:20557   */\n      sub\n        /* \"#utility.yul\":20533:20534   */\n      0x00\n        /* \"#utility.yul\":20522:20531   */\n      dup4\n        /* \"#utility.yul\":20518:20535   */\n      add\n        /* \"#utility.yul\":20511:20558   */\n      mstore\n        /* \"#utility.yul\":20575:20706   */\n      tag_482\n        /* \"#utility.yul\":20701:20705   */\n      dup2\n        /* \"#utility.yul\":20575:20706   */\n      tag_279\n      jump\t// in\n    tag_482:\n        /* \"#utility.yul\":20567:20706   */\n      swap1\n      pop\n        /* \"#utility.yul\":20294:20713   */\n      swap2\n      swap1\n      pop\n      jump\t// out\n        /* \"#utility.yul\":20719:21161   */\n    tag_173:\n        /* \"#utility.yul\":20868:20872   */\n      0x00\n        /* \"#utility.yul\":20906:20908   */\n      0x60\n        /* \"#utility.yul\":20895:20904   */\n      dup3\n        /* \"#utility.yul\":20891:20909   */\n      add\n        /* \"#utility.yul\":20883:20909   */\n      swap1\n      pop\n        /* \"#utility.yul\":20919:20990   */\n      tag_484\n        /* \"#utility.yul\":20987:20988   */\n      0x00\n        /* \"#utility.yul\":20976:20985   */\n      dup4\n        /* \"#utility.yul\":20972:20989   */\n      add\n        /* \"#utility.yul\":20963:20969   */\n      dup7\n        /* \"#utility.yul\":20919:20990   */\n      tag_238\n      jump\t// in\n    tag_484:\n        /* \"#utility.yul\":21000:21072   */\n      tag_485\n        /* \"#utility.yul\":21068:21070   */\n      0x20\n        /* \"#utility.yul\":21057:21066   */\n      dup4\n        /* \"#utility.yul\":21053:21071   */\n      add\n        /* \"#utility.yul\":21044:21050   */\n      dup6\n        /* \"#utility.yul\":21000:21072   */\n      tag_238\n      jump\t// in\n    tag_485:\n        /* \"#utility.yul\":21082:21154   */\n      tag_486\n        /* \"#utility.yul\":21150:21152   */\n      0x40\n        /* \"#utility.yul\":21139:21148   */\n      dup4\n        /* \"#utility.yul\":21135:21153   */\n      add\n        /* \"#utility.yul\":21126:21132   */\n      dup5\n        /* \"#utility.yul\":21082:21154   */\n      tag_238\n      jump\t// in\n    tag_486:\n        /* \"#utility.yul\":20719:21161   */\n      swap5\n      swap4\n      pop\n      pop\n      pop\n      pop\n      jump\t// out\n        /* \"#utility.yul\":21167:21392   */\n    tag_280:\n        /* \"#utility.yul\":21307:21341   */\n      0x4f776e61626c653a206e6577206f776e657220697320746865207a65726f2061\n        /* \"#utility.yul\":21303:21304   */\n      0x00\n        /* \"#utility.yul\":21295:21301   */\n      dup3\n        /* \"#utility.yul\":21291:21305   */\n      add\n        /* \"#utility.yul\":21284:21342   */\n      mstore\n        /* \"#utility.yul\":21376:21384   */\n      0x6464726573730000000000000000000000000000000000000000000000000000\n        /* \"#utility.yul\":21371:21373   */\n      0x20\n        /* \"#utility.yul\":21363:21369   */\n      dup3\n        /* \"#utility.yul\":21359:21374   */\n      add\n        /* \"#utility.yul\":21352:21385   */\n      mstore\n        /* \"#utility.yul\":21167:21392   */\n      pop\n      jump\t// out\n        /* \"#utility.yul\":21398:21764   */\n    tag_281:\n        /* \"#utility.yul\":21540:21543   */\n      0x00\n        /* \"#utility.yul\":21561:21628   */\n      tag_489\n        /* \"#utility.yul\":21625:21627   */\n      0x26\n        /* \"#utility.yul\":21620:21623   */\n      dup4\n        /* \"#utility.yul\":21561:21628   */\n      tag_255\n      jump\t// in\n    tag_489:\n        /* \"#utility.yul\":21554:21628   */\n      swap2\n      pop\n        /* \"#utility.yul\":21637:21730   */\n      tag_490\n        /* \"#utility.yul\":21726:21729   */\n      dup3\n        /* \"#utility.yul\":21637:21730   */\n      tag_280\n      jump\t// in\n    tag_490:\n        /* \"#utility.yul\":21755:21757   */\n      0x40\n        /* \"#utility.yul\":21750:21753   */\n      dup3\n        /* \"#utility.yul\":21746:21758   */\n      add\n        /* \"#utility.yul\":21739:21758   */\n      swap1\n      pop\n        /* \"#utility.yul\":21398:21764   */\n      swap2\n      swap1\n      pop\n      jump\t// out\n        /* \"#utility.yul\":21770:22189   */\n    tag_191:\n        /* \"#utility.yul\":21936:21940   */\n      0x00\n        /* \"#utility.yul\":21974:21976   */\n      0x20\n        /* \"#utility.yul\":21963:21972   */\n      dup3\n        /* \"#utility.yul\":21959:21977   */\n      add\n        /* \"#utility.yul\":21951:21977   */\n      swap1\n      pop\n        /* \"#utility.yul\":22023:22032   */\n      dup2\n        /* \"#utility.yul\":22017:22021   */\n      dup2\n        /* \"#utility.yul\":22013:22033   */\n      sub\n        /* \"#utility.yul\":22009:22010   */\n      0x00\n        /* \"#utility.yul\":21998:22007   */\n      dup4\n        /* \"#utility.yul\":21994:22011   */\n      add\n        /* \"#utility.yul\":21987:22034   */\n      mstore\n        /* \"#utility.yul\":22051:22182   */\n      tag_492\n        /* \"#utility.yul\":22177:22181   */\n      dup2\n        /* \"#utility.yul\":22051:22182   */\n      tag_281\n      jump\t// in\n    tag_492:\n        /* \"#utility.yul\":22043:22182   */\n      swap1\n      pop\n        /* \"#utility.yul\":21770:22189   */\n      swap2\n      swap1\n      pop\n      jump\t// out\n        /* \"#utility.yul\":22195:22377   */\n    tag_282:\n        /* \"#utility.yul\":22335:22369   */\n      0x4f776e61626c653a2063616c6c6572206973206e6f7420746865206f776e6572\n        /* \"#utility.yul\":22331:22332   */\n      0x00\n        /* \"#utility.yul\":22323:22329   */\n      dup3\n        /* \"#utility.yul\":22319:22333   */\n      add\n        /* \"#utility.yul\":22312:22370   */\n      mstore\n        /* \"#utility.yul\":22195:22377   */\n      pop\n      jump\t// out\n        /* \"#utility.yul\":22383:22749   */\n    tag_283:\n        /* \"#utility.yul\":22525:22528   */\n      0x00\n        /* \"#utility.yul\":22546:22613   */\n      tag_495\n        /* \"#utility.yul\":22610:22612   */\n      0x20\n        /* \"#utility.yul\":22605:22608   */\n      dup4\n        /* \"#utility.yul\":22546:22613   */\n      tag_255\n      jump\t// in\n    tag_495:\n        /* \"#utility.yul\":22539:22613   */\n      swap2\n      pop\n        /* \"#utility.yul\":22622:22715   */\n      tag_496\n        /* \"#utility.yul\":22711:22714   */\n      dup3\n        /* \"#utility.yul\":22622:22715   */\n      tag_282\n      jump\t// in\n    tag_496:\n        /* \"#utility.yul\":22740:22742   */\n      0x20\n        /* \"#utility.yul\":22735:22738   */\n      dup3\n        /* \"#utility.yul\":22731:22743   */\n      add\n        /* \"#utility.yul\":22724:22743   */\n      swap1\n      pop\n        /* \"#utility.yul\":22383:22749   */\n      swap2\n      swap1\n      pop\n      jump\t// out\n        /* \"#utility.yul\":22755:23174   */\n    tag_199:\n        /* \"#utility.yul\":22921:22925   */\n      0x00\n        /* \"#utility.yul\":22959:22961   */\n      0x20\n        /* \"#utility.yul\":22948:22957   */\n      dup3\n        /* \"#utility.yul\":22944:22962   */\n      add\n        /* \"#utility.yul\":22936:22962   */\n      swap1\n      pop\n        /* \"#utility.yul\":23008:23017   */\n      dup2\n        /* \"#utility.yul\":23002:23006   */\n      dup2\n        /* \"#utility.yul\":22998:23018   */\n      sub\n        /* \"#utility.yul\":22994:22995   */\n      0x00\n        /* \"#utility.yul\":22983:22992   */\n      dup4\n        /* \"#utility.yul\":22979:22996   */\n      add\n        /* \"#utility.yul\":22972:23019   */\n      mstore\n        /* \"#utility.yul\":23036:23167   */\n      tag_498\n        /* \"#utility.yul\":23162:23166   */\n      dup2\n        /* \"#utility.yul\":23036:23167   */\n      tag_283\n      jump\t// in\n    tag_498:\n        /* \"#utility.yul\":23028:23167   */\n      swap1\n      pop\n        /* \"#utility.yul\":22755:23174   */\n      swap2\n      swap1\n      pop\n      jump\t// out\n        /* \"#utility.yul\":23180:23274   */\n    tag_284:\n        /* \"#utility.yul\":23213:23221   */\n      0x00\n        /* \"#utility.yul\":23261:23266   */\n      dup2\n        /* \"#utility.yul\":23257:23259   */\n      0x60\n        /* \"#utility.yul\":23253:23267   */\n      shl\n        /* \"#utility.yul\":23232:23267   */\n      swap1\n      pop\n        /* \"#utility.yul\":23180:23274   */\n      swap2\n      swap1\n      pop\n      jump\t// out\n        /* \"#utility.yul\":23280:23374   */\n    tag_285:\n        /* \"#utility.yul\":23319:23326   */\n      0x00\n        /* \"#utility.yul\":23348:23368   */\n      tag_501\n        /* \"#utility.yul\":23362:23367   */\n      dup3\n        /* \"#utility.yul\":23348:23368   */\n      tag_284\n      jump\t// in\n    tag_501:\n        /* \"#utility.yul\":23337:23368   */\n      swap1\n      pop\n        /* \"#utility.yul\":23280:23374   */\n      swap2\n      swap1\n      pop\n      jump\t// out\n        /* \"#utility.yul\":23380:23480   */\n    tag_286:\n        /* \"#utility.yul\":23419:23426   */\n      0x00\n        /* \"#utility.yul\":23448:23474   */\n      tag_503\n        /* \"#utility.yul\":23468:23473   */\n      dup3\n        /* \"#utility.yul\":23448:23474   */\n      tag_285\n      jump\t// in\n    tag_503:\n        /* \"#utility.yul\":23437:23474   */\n      swap1\n      pop\n        /* \"#utility.yul\":23380:23480   */\n      swap2\n      swap1\n      pop\n      jump\t// out\n        /* \"#utility.yul\":23486:23643   */\n    tag_287:\n        /* \"#utility.yul\":23591:23636   */\n      tag_505\n        /* \"#utility.yul\":23611:23635   */\n      tag_506\n        /* \"#utility.yul\":23629:23634   */\n      dup3\n        /* \"#utility.yul\":23611:23635   */\n      tag_240\n      jump\t// in\n    tag_506:\n        /* \"#utility.yul\":23591:23636   */\n      tag_286\n      jump\t// in\n    tag_505:\n        /* \"#utility.yul\":23586:23589   */\n      dup3\n        /* \"#utility.yul\":23579:23637   */\n      mstore\n        /* \"#utility.yul\":23486:23643   */\n      pop\n      pop\n      jump\t// out\n        /* \"#utility.yul\":23649:23905   */\n    tag_203:\n        /* \"#utility.yul\":23761:23764   */\n      0x00\n        /* \"#utility.yul\":23776:23851   */\n      tag_508\n        /* \"#utility.yul\":23847:23850   */\n      dup3\n        /* \"#utility.yul\":23838:23844   */\n      dup5\n        /* \"#utility.yul\":23776:23851   */\n      tag_287\n      jump\t// in\n    tag_508:\n        /* \"#utility.yul\":23876:23878   */\n      0x14\n        /* \"#utility.yul\":23871:23874   */\n      dup3\n        /* \"#utility.yul\":23867:23879   */\n      add\n        /* \"#utility.yul\":23860:23879   */\n      swap2\n      pop\n        /* \"#utility.yul\":23896:23899   */\n      dup2\n        /* \"#utility.yul\":23889:23899   */\n      swap1\n      pop\n        /* \"#utility.yul\":23649:23905   */\n      swap3\n      swap2\n      pop\n      pop\n      jump\t// out\n        /* \"#utility.yul\":23911:24091   */\n    tag_220:\n        /* \"#utility.yul\":23959:24036   */\n      0x4e487b7100000000000000000000000000000000000000000000000000000000\n        /* \"#utility.yul\":23956:23957   */\n      0x00\n        /* \"#utility.yul\":23949:24037   */\n      mstore\n        /* \"#utility.yul\":24056:24060   */\n      0x32\n        /* \"#utility.yul\":24053:24054   */\n      0x04\n        /* \"#utility.yul\":24046:24061   */\n      mstore\n        /* \"#utility.yul\":24080:24084   */\n      0x24\n        /* \"#utility.yul\":24077:24078   */\n      0x00\n        /* \"#utility.yul\":24070:24085   */\n      revert\n        /* \"#utility.yul\":24097:24330   */\n    tag_223:\n        /* \"#utility.yul\":24136:24139   */\n      0x00\n        /* \"#utility.yul\":24159:24183   */\n      tag_511\n        /* \"#utility.yul\":24177:24182   */\n      dup3\n        /* \"#utility.yul\":24159:24183   */\n      tag_237\n      jump\t// in\n    tag_511:\n        /* \"#utility.yul\":24150:24183   */\n      swap2\n      pop\n        /* \"#utility.yul\":24205:24271   */\n      0xffffffffffffffffffffffffffffffffffffffffffffffffffffffffffffffff\n        /* \"#utility.yul\":24198:24203   */\n      dup3\n        /* \"#utility.yul\":24195:24272   */\n      sub\n        /* \"#utility.yul\":24192:24295   */\n      tag_512\n      jumpi\n        /* \"#utility.yul\":24275:24293   */\n      tag_513\n      tag_269\n      jump\t// in\n    tag_513:\n        /* \"#utility.yul\":24192:24295   */\n    tag_512:\n        /* \"#utility.yul\":24322:24323   */\n      0x01\n        /* \"#utility.yul\":24315:24320   */\n      dup3\n        /* \"#utility.yul\":24311:24324   */\n      add\n        /* \"#utility.yul\":24304:24324   */\n      swap1\n      pop\n        /* \"#utility.yul\":24097:24330   */\n      swap2\n      swap1\n      pop\n      jump\t// out\n\n    auxdata: 0xa2646970667358221220b5f58d7e8a88970cebf2e6a594b556da0d007709989c94ac8e2e38da4f252efe64736f6c63430008140033\n}\n",
				"bytecode": {
					"linkReferences": {},
					"object": "608060405234801561000f575f80fd5b5061002c61002161003160201b60201c565b61003860201b60201c565b6100f9565b5f33905090565b5f805f9054906101000a900473ffffffffffffffffffffffffffffffffffffffff169050815f806101000a81548173ffffffffffffffffffffffffffffffffffffffff021916908373ffffffffffffffffffffffffffffffffffffffff1602179055508173ffffffffffffffffffffffffffffffffffffffff168173ffffffffffffffffffffffffffffffffffffffff167f8be0079c531659141344cd1fd0a4f28419497f9722a3daafe3b4186f6b6457e060405160405180910390a35050565b611b92806101065f395ff3fe608060405234801561000f575f80fd5b506004361061012a575f3560e01c806373a1a252116100ab578063aa91d81c1161006f578063aa91d81c146102f8578063ad655ef614610316578063bf333f2c14610334578063e10de67814610352578063f2fde38b1461036e5761012a565b806373a1a252146102525780637cb64759146102825780638a19c8bc1461029e5780638da5cb5b146102bc578063a4e2d634146102da5761012a565b80634615102c116100f25780634615102c146101c0578063589db8d4146101dc5780635cb732be1461020c578063620d025c1461022a578063715018a6146102485761012a565b80630dd0a0421461012e5780631073e2a71461014a57806314132f48146101685780632eb4a7ab1461018457806340365852146101a2575b5f80fd5b61014860048036038101906101439190610fbb565b61038a565b005b6101526103ae565b60405161015f9190610ffe565b60405180910390f35b610182600480360381019061017d91906110fc565b6103b5565b005b61018c6108e7565b6040516101999190611185565b60405180910390f35b6101aa6108ed565b6040516101b79190610ffe565b60405180910390f35b6101da60048036038101906101d5919061119e565b6108f3565b005b6101f660048036038101906101f191906111c9565b610a83565b6040516102039190610ffe565b60405180910390f35b610214610a98565b6040516102219190611203565b60405180910390f35b610232610abd565b60405161023f9190610ffe565b60405180910390f35b610250610ac3565b005b61026c6004803603810190610267919061121c565b610ad6565b6040516102799190610ffe565b60405180910390f35b61029c60048036038101906102979190611284565b610af6565b005b6102a6610b08565b6040516102b39190610ffe565b60405180910390f35b6102c4610b0e565b6040516102d19190611203565b60405180910390f35b6102e2610b35565b6040516102ef91906112be565b60405180910390f35b610300610b47565b60405161030d9190610ffe565b60405180910390f35b61031e610b4f565b60405161032b9190610ffe565b60405180910390f35b61033c610b56565b6040516103499190610ffe565b60405180910390f35b61036c600480360381019061036791906111c9565b610b5b565b005b610388600480360381019061038391906111c9565b610ba6565b005b610392610c28565b8060065f6101000a81548160ff02191690831515021790555050565b6202a30081565b60065f9054906101000a900460ff1615610404576040517f08c379a00000000000000000000000000000000000000000000000000000000081526004016103fb90611331565b60405180910390fd5b600454421015610449576040517f08c379a000000000000000000000000000000000000000000000000000000000815260040161044090611399565b60405180910390fd5b5f6005541161048d576040517f08c379a000000000000000000000000000000000000000000000000000000000815260040161048490611401565b60405180910390fd5b818161049a338383610ca6565b6104d9576040517f08c379a00000000000000000000000000000000000000000000000000000000081526004016104d090611469565b60405180910390fd5b5f851161051b576040517f08c379a0000000000000000000000000000000000000000000000000000000008152600401610512906114d1565b60405180910390fd5b8573ffffffffffffffffffffffffffffffffffffffff166323b872dd3330886040518463ffffffff1660e01b8152600401610558939291906114ef565b6020604051808303815f875af1158015610574573d5f803e3d5ffd5b505050506040513d601f19601f820116820180604052508101906105989190611538565b6105d7576040517f08c379a00000000000000000000000000000000000000000000000000000000081526004016105ce906115ad565b60405180910390fd5b6105e033610d23565b630bebc2008560075f60035481526020019081526020015f205f3373ffffffffffffffffffffffffffffffffffffffff1673ffffffffffffffffffffffffffffffffffffffff1681526020019081526020015f205461063f91906115f8565b1115610680576040517f08c379a000000000000000000000000000000000000000000000000000000000815260040161067790611675565b60405180910390fd5b5f6127106064876106919190611693565b61069b9190611701565b90505f81876106aa9190611731565b90508660075f60035481526020019081526020015f205f3373ffffffffffffffffffffffffffffffffffffffff1673ffffffffffffffffffffffffffffffffffffffff1681526020019081526020015f205f82825461070991906115f8565b925050819055508060055f8282546107219190611731565b9250508190555060015f9054906101000a900473ffffffffffffffffffffffffffffffffffffffff1673ffffffffffffffffffffffffffffffffffffffff1663a9059cbb33836040518363ffffffff1660e01b8152600401610784929190611764565b6020604051808303815f875af11580156107a0573d5f803e3d5ffd5b505050506040513d601f19601f820116820180604052508101906107c49190611538565b610803576040517f08c379a00000000000000000000000000000000000000000000000000000000081526004016107fa906117d5565b60405180910390fd5b8773ffffffffffffffffffffffffffffffffffffffff167ff0c71be01e59205b10ea5ae42439ab4504c7e3da732743531ff44e98bd9fd63f8860015f9054906101000a900473ffffffffffffffffffffffffffffffffffffffff168460405161086e939291906117f3565b60405180910390a28773ffffffffffffffffffffffffffffffffffffffff163373ffffffffffffffffffffffffffffffffffffffff167fc7e914640e860fbcf42ef4d9dceced8880d343828101f1fa389c7e1c0607281789846040516108d5929190611828565b60405180910390a35050505050505050565b60025481565b60045481565b6108fb610c28565b600354811161093f576040517f08c379a000000000000000000000000000000000000000000000000000000000815260040161093690611899565b60405180910390fd5b5f60015f9054906101000a900473ffffffffffffffffffffffffffffffffffffffff1673ffffffffffffffffffffffffffffffffffffffff166370a08231306040518263ffffffff1660e01b815260040161099a9190611203565b602060405180830381865afa1580156109b5573d5f803e3d5ffd5b505050506040513d601f19601f820116820180604052508101906109d991906118cb565b90505f8111610a1d576040517f08c379a0000000000000000000000000000000000000000000000000000000008152600401610a1490611940565b60405180910390fd5b81600381905550806005819055506201518042610a3a91906115f8565b6004819055507fb0b0c60f0267584d50a65485b5eff6babad43c5727703515fde33bb545b1911482600554600454604051610a779392919061195e565b60405180910390a15050565b6008602052805f5260405f205f915090505481565b60015f9054906101000a900473ffffffffffffffffffffffffffffffffffffffff1681565b60055481565b610acb610c28565b610ad45f610e0e565b565b6007602052815f5260405f20602052805f5260405f205f91509150505481565b610afe610c28565b8060028190555050565b60035481565b5f805f9054906101000a900473ffffffffffffffffffffffffffffffffffffffff16905090565b60065f9054906101000a900460ff1681565b630bebc20081565b6201518081565b606481565b610b63610c28565b8060015f6101000a81548173ffffffffffffffffffffffffffffffffffffffff021916908373ffffffffffffffffffffffffffffffffffffffff16021790555050565b610bae610c28565b5f73ffffffffffffffffffffffffffffffffffffffff168173ffffffffffffffffffffffffffffffffffffffff1603610c1c576040517f08c379a0000000000000000000000000000000000000000000000000000000008152600401610c1390611a03565b60405180910390fd5b610c2581610e0e565b50565b610c30610ecf565b73ffffffffffffffffffffffffffffffffffffffff16610c4e610b0e565b73ffffffffffffffffffffffffffffffffffffffff1614610ca4576040517f08c379a0000000000000000000000000000000000000000000000000000000008152600401610c9b90611a6b565b60405180910390fd5b565b5f610d1a8383808060200260200160405190810160405280939291908181526020018383602002808284375f81840152601f19601f8201169050808301925050505050505060025486604051602001610cff9190611ace565b60405160208183030381529060405280519060200120610ed6565b90509392505050565b6202a30060085f8373ffffffffffffffffffffffffffffffffffffffff1673ffffffffffffffffffffffffffffffffffffffff1681526020019081526020015f205442610d709190611731565b10610dc9575f60075f60035481526020019081526020015f205f8373ffffffffffffffffffffffffffffffffffffffff1673ffffffffffffffffffffffffffffffffffffffff1681526020019081526020015f20819055505b4260085f8373ffffffffffffffffffffffffffffffffffffffff1673ffffffffffffffffffffffffffffffffffffffff1681526020019081526020015f208190555050565b5f805f9054906101000a900473ffffffffffffffffffffffffffffffffffffffff169050815f806101000a81548173ffffffffffffffffffffffffffffffffffffffff021916908373ffffffffffffffffffffffffffffffffffffffff1602179055508173ffffffffffffffffffffffffffffffffffffffff168173ffffffffffffffffffffffffffffffffffffffff167f8be0079c531659141344cd1fd0a4f28419497f9722a3daafe3b4186f6b6457e060405160405180910390a35050565b5f33905090565b5f82610ee28584610eec565b1490509392505050565b5f808290505f5b8451811015610f3557610f2082868381518110610f1357610f12611ae8565b5b6020026020010151610f40565b91508080610f2d90611b15565b915050610ef3565b508091505092915050565b5f818310610f5757610f528284610f6a565b610f62565b610f618383610f6a565b5b905092915050565b5f825f528160205260405f20905092915050565b5f80fd5b5f80fd5b5f8115159050919050565b610f9a81610f86565b8114610fa4575f80fd5b50565b5f81359050610fb581610f91565b92915050565b5f60208284031215610fd057610fcf610f7e565b5b5f610fdd84828501610fa7565b91505092915050565b5f819050919050565b610ff881610fe6565b82525050565b5f6020820190506110115f830184610fef565b92915050565b5f73ffffffffffffffffffffffffffffffffffffffff82169050919050565b5f61104082611017565b9050919050565b61105081611036565b811461105a575f80fd5b50565b5f8135905061106b81611047565b92915050565b61107a81610fe6565b8114611084575f80fd5b50565b5f8135905061109581611071565b92915050565b5f80fd5b5f80fd5b5f80fd5b5f8083601f8401126110bc576110bb61109b565b5b8235905067ffffffffffffffff8111156110d9576110d861109f565b5b6020830191508360208202830111156110f5576110f46110a3565b5b9250929050565b5f805f806060858703121561111457611113610f7e565b5b5f6111218782880161105d565b945050602061113287828801611087565b935050604085013567ffffffffffffffff81111561115357611152610f82565b5b61115f878288016110a7565b925092505092959194509250565b5f819050919050565b61117f8161116d565b82525050565b5f6020820190506111985f830184611176565b92915050565b5f602082840312156111b3576111b2610f7e565b5b5f6111c084828501611087565b91505092915050565b5f602082840312156111de576111dd610f7e565b5b5f6111eb8482850161105d565b91505092915050565b6111fd81611036565b82525050565b5f6020820190506112165f8301846111f4565b92915050565b5f806040838503121561123257611231610f7e565b5b5f61123f85828601611087565b92505060206112508582860161105d565b9150509250929050565b6112638161116d565b811461126d575f80fd5b50565b5f8135905061127e8161125a565b92915050565b5f6020828403121561129957611298610f7e565b5b5f6112a684828501611270565b91505092915050565b6112b881610f86565b82525050565b5f6020820190506112d15f8301846112af565b92915050565b5f82825260208201905092915050565b7f436f6e7472616374206973206c6f636b656400000000000000000000000000005f82015250565b5f61131b6012836112d7565b9150611326826112e7565b602082019050919050565b5f6020820190508181035f8301526113488161130f565b9050919050565b7f526f756e64206e6f7420737461727465640000000000000000000000000000005f82015250565b5f6113836011836112d7565b915061138e8261134f565b602082019050919050565b5f6020820190508181035f8301526113b081611377565b9050919050565b7f4e6f2066756e64730000000000000000000000000000000000000000000000005f82015250565b5f6113eb6008836112d7565b91506113f6826113b7565b602082019050919050565b5f6020820190508181035f830152611418816113df565b9050919050565b7f4e6f742077686974656c697374656400000000000000000000000000000000005f82015250565b5f611453600f836112d7565b915061145e8261141f565b602082019050919050565b5f6020820190508181035f83015261148081611447565b9050919050565b7f496e76616c696420616d6f756e740000000000000000000000000000000000005f82015250565b5f6114bb600e836112d7565b91506114c682611487565b602082019050919050565b5f6020820190508181035f8301526114e8816114af565b9050919050565b5f6060820190506115025f8301866111f4565b61150f60208301856111f4565b61151c6040830184610fef565b949350505050565b5f8151905061153281610f91565b92915050565b5f6020828403121561154d5761154c610f7e565b5b5f61155a84828501611524565b91505092915050565b7f5472616e73666572206661696c656400000000000000000000000000000000005f82015250565b5f611597600f836112d7565b91506115a282611563565b602082019050919050565b5f6020820190508181035f8301526115c48161158b565b9050919050565b7f4e487b71000000000000000000000000000000000000000000000000000000005f52601160045260245ffd5b5f61160282610fe6565b915061160d83610fe6565b9250828201905080821115611625576116246115cb565b5b92915050565b7f45786365656473206c696d6974000000000000000000000000000000000000005f82015250565b5f61165f600d836112d7565b915061166a8261162b565b602082019050919050565b5f6020820190508181035f83015261168c81611653565b9050919050565b5f61169d82610fe6565b91506116a883610fe6565b92508282026116b681610fe6565b915082820484148315176116cd576116cc6115cb565b5b5092915050565b7f4e487b71000000000000000000000000000000000000000000000000000000005f52601260045260245ffd5b5f61170b82610fe6565b915061171683610fe6565b925082611726576117256116d4565b5b828204905092915050565b5f61173b82610fe6565b915061174683610fe6565b925082820390508181111561175e5761175d6115cb565b5b92915050565b5f6040820190506117775f8301856111f4565b6117846020830184610fef565b9392505050565b7f526566756e64206661696c6564000000000000000000000000000000000000005f82015250565b5f6117bf600d836112d7565b91506117ca8261178b565b602082019050919050565b5f6020820190508181035f8301526117ec816117b3565b9050919050565b5f6060820190506118065f830186610fef565b61181360208301856111f4565b6118206040830184610fef565b949350505050565b5f60408201905061183b5f830185610fef565b6118486020830184610fef565b9392505050565b7f526f756e64204944206d75737420696e637265617365000000000000000000005f82015250565b5f6118836016836112d7565b915061188e8261184f565b602082019050919050565b5f6020820190508181035f8301526118b081611877565b9050919050565b5f815190506118c581611071565b92915050565b5f602082840312156118e0576118df610f7e565b5b5f6118ed848285016118b7565b91505092915050565b7f4e6f2055534443000000000000000000000000000000000000000000000000005f82015250565b5f61192a6007836112d7565b9150611935826118f6565b602082019050919050565b5f6020820190508181035f8301526119578161191e565b9050919050565b5f6060820190506119715f830186610fef565b61197e6020830185610fef565b61198b6040830184610fef565b949350505050565b7f4f776e61626c653a206e6577206f776e657220697320746865207a65726f20615f8201527f6464726573730000000000000000000000000000000000000000000000000000602082015250565b5f6119ed6026836112d7565b91506119f882611993565b604082019050919050565b5f6020820190508181035f830152611a1a816119e1565b9050919050565b7f4f776e61626c653a2063616c6c6572206973206e6f7420746865206f776e65725f82015250565b5f611a556020836112d7565b9150611a6082611a21565b602082019050919050565b5f6020820190508181035f830152611a8281611a49565b9050919050565b5f8160601b9050919050565b5f611a9f82611a89565b9050919050565b5f611ab082611a95565b9050919050565b611ac8611ac382611036565b611aa6565b82525050565b5f611ad98284611ab7565b60148201915081905092915050565b7f4e487b71000000000000000000000000000000000000000000000000000000005f52603260045260245ffd5b5f611b1f82610fe6565b91507fffffffffffffffffffffffffffffffffffffffffffffffffffffffffffffffff8203611b5157611b506115cb565b5b60018201905091905056fea2646970667358221220b5f58d7e8a88970cebf2e6a594b556da0d007709989c94ac8e2e38da4f252efe64736f6c63430008140033",
					"opcodes": "PUSH1 0x80 PUSH1 0x40 MSTORE CALLVALUE DUP1 ISZERO PUSH2 0xF JUMPI PUSH0 DUP1 REVERT JUMPDEST POP PUSH2 0x2C PUSH2 0x21 PUSH2 0x31 PUSH1 0x20 SHL PUSH1 0x20 SHR JUMP JUMPDEST PUSH2 0x38 PUSH1 0x20 SHL PUSH1 0x20 SHR JUMP JUMPDEST PUSH2 0xF9 JUMP JUMPDEST PUSH0 CALLER SWAP1 POP SWAP1 JUMP JUMPDEST PUSH0 DUP1 PUSH0 SWAP1 SLOAD SWAP1 PUSH2 0x100 EXP SWAP1 DIV PUSH20 0xFFFFFFFFFFFFFFFFFFFFFFFFFFFFFFFFFFFFFFFF AND SWAP1 POP DUP2 PUSH0 DUP1 PUSH2 0x100 EXP DUP2 SLOAD DUP2 PUSH20 0xFFFFFFFFFFFFFFFFFFFFFFFFFFFFFFFFFFFFFFFF MUL NOT AND SWAP1 DUP4 PUSH20 0xFFFFFFFFFFFFFFFFFFFFFFFFFFFFFFFFFFFFFFFF AND MUL OR SWAP1 SSTORE POP DUP2 PUSH20 0xFFFFFFFFFFFFFFFFFFFFFFFFFFFFFFFFFFFFFFFF AND DUP2 PUSH20 0xFFFFFFFFFFFFFFFFFFFFFFFFFFFFFFFFFFFFFFFF AND PUSH32 0x8BE0079C531659141344CD1FD0A4F28419497F9722A3DAAFE3B4186F6B6457E0 PUSH1 0x40 MLOAD PUSH1 0x40 MLOAD DUP1 SWAP2 SUB SWAP1 LOG3 POP POP JUMP JUMPDEST PUSH2 0x1B92 DUP1 PUSH2 0x106 PUSH0 CODECOPY PUSH0 RETURN INVALID PUSH1 0x80 PUSH1 0x40 MSTORE CALLVALUE DUP1 ISZERO PUSH2 0xF JUMPI PUSH0 DUP1 REVERT JUMPDEST POP PUSH1 0x4 CALLDATASIZE LT PUSH2 0x12A JUMPI PUSH0 CALLDATALOAD PUSH1 0xE0 SHR DUP1 PUSH4 0x73A1A252 GT PUSH2 0xAB JUMPI DUP1 PUSH4 0xAA91D81C GT PUSH2 0x6F JUMPI DUP1 PUSH4 0xAA91D81C EQ PUSH2 0x2F8 JUMPI DUP1 PUSH4 0xAD655EF6 EQ PUSH2 0x316 JUMPI DUP1 PUSH4 0xBF333F2C EQ PUSH2 0x334 JUMPI DUP1 PUSH4 0xE10DE678 EQ PUSH2 0x352 JUMPI DUP1 PUSH4 0xF2FDE38B EQ PUSH2 0x36E JUMPI PUSH2 0x12A JUMP JUMPDEST DUP1 PUSH4 0x73A1A252 EQ PUSH2 0x252 JUMPI DUP1 PUSH4 0x7CB64759 EQ PUSH2 0x282 JUMPI DUP1 PUSH4 0x8A19C8BC EQ PUSH2 0x29E JUMPI DUP1 PUSH4 0x8DA5CB5B EQ PUSH2 0x2BC JUMPI DUP1 PUSH4 0xA4E2D634 EQ PUSH2 0x2DA JUMPI PUSH2 0x12A JUMP JUMPDEST DUP1 PUSH4 0x4615102C GT PUSH2 0xF2 JUMPI DUP1 PUSH4 0x4615102C EQ PUSH2 0x1C0 JUMPI DUP1 PUSH4 0x589DB8D4 EQ PUSH2 0x1DC JUMPI DUP1 PUSH4 0x5CB732BE EQ PUSH2 0x20C JUMPI DUP1 PUSH4 0x620D025C EQ PUSH2 0x22A JUMPI DUP1 PUSH4 0x715018A6 EQ PUSH2 0x248 JUMPI PUSH2 0x12A JUMP JUMPDEST DUP1 PUSH4 0xDD0A042 EQ PUSH2 0x12E JUMPI DUP1 PUSH4 0x1073E2A7 EQ PUSH2 0x14A JUMPI DUP1 PUSH4 0x14132F48 EQ PUSH2 0x168 JUMPI DUP1 PUSH4 0x2EB4A7AB EQ PUSH2 0x184 JUMPI DUP1 PUSH4 0x40365852 EQ PUSH2 0x1A2 JUMPI JUMPDEST PUSH0 DUP1 REVERT JUMPDEST PUSH2 0x148 PUSH1 0x4 DUP1 CALLDATASIZE SUB DUP2 ADD SWAP1 PUSH2 0x143 SWAP2 SWAP1 PUSH2 0xFBB JUMP JUMPDEST PUSH2 0x38A JUMP JUMPDEST STOP JUMPDEST PUSH2 0x152 PUSH2 0x3AE JUMP JUMPDEST PUSH1 0x40 MLOAD PUSH2 0x15F SWAP2 SWAP1 PUSH2 0xFFE JUMP JUMPDEST PUSH1 0x40 MLOAD DUP1 SWAP2 SUB SWAP1 RETURN JUMPDEST PUSH2 0x182 PUSH1 0x4 DUP1 CALLDATASIZE SUB DUP2 ADD SWAP1 PUSH2 0x17D SWAP2 SWAP1 PUSH2 0x10FC JUMP JUMPDEST PUSH2 0x3B5 JUMP JUMPDEST STOP JUMPDEST PUSH2 0x18C PUSH2 0x8E7 JUMP JUMPDEST PUSH1 0x40 MLOAD PUSH2 0x199 SWAP2 SWAP1 PUSH2 0x1185 JUMP JUMPDEST PUSH1 0x40 MLOAD DUP1 SWAP2 SUB SWAP1 RETURN JUMPDEST PUSH2 0x1AA PUSH2 0x8ED JUMP JUMPDEST PUSH1 0x40 MLOAD PUSH2 0x1B7 SWAP2 SWAP1 PUSH2 0xFFE JUMP JUMPDEST PUSH1 0x40 MLOAD DUP1 SWAP2 SUB SWAP1 RETURN JUMPDEST PUSH2 0x1DA PUSH1 0x4 DUP1 CALLDATASIZE SUB DUP2 ADD SWAP1 PUSH2 0x1D5 SWAP2 SWAP1 PUSH2 0x119E JUMP JUMPDEST PUSH2 0x8F3 JUMP JUMPDEST STOP JUMPDEST PUSH2 0x1F6 PUSH1 0x4 DUP1 CALLDATASIZE SUB DUP2 ADD SWAP1 PUSH2 0x1F1 SWAP2 SWAP1 PUSH2 0x11C9 JUMP JUMPDEST PUSH2 0xA83 JUMP JUMPDEST PUSH1 0x40 MLOAD PUSH2 0x203 SWAP2 SWAP1 PUSH2 0xFFE JUMP JUMPDEST PUSH1 0x40 MLOAD DUP1 SWAP2 SUB SWAP1 RETURN JUMPDEST PUSH2 0x214 PUSH2 0xA98 JUMP JUMPDEST PUSH1 0x40 MLOAD PUSH2 0x221 SWAP2 SWAP1 PUSH2 0x1203 JUMP JUMPDEST PUSH1 0x40 MLOAD DUP1 SWAP2 SUB SWAP1 RETURN JUMPDEST PUSH2 0x232 PUSH2 0xABD JUMP JUMPDEST PUSH1 0x40 MLOAD PUSH2 0x23F SWAP2 SWAP1 PUSH2 0xFFE JUMP JUMPDEST PUSH1 0x40 MLOAD DUP1 SWAP2 SUB SWAP1 RETURN JUMPDEST PUSH2 0x250 PUSH2 0xAC3 JUMP JUMPDEST STOP JUMPDEST PUSH2 0x26C PUSH1 0x4 DUP1 CALLDATASIZE SUB DUP2 ADD SWAP1 PUSH2 0x267 SWAP2 SWAP1 PUSH2 0x121C JUMP JUMPDEST PUSH2 0xAD6 JUMP JUMPDEST PUSH1 0x40 MLOAD PUSH2 0x279 SWAP2 SWAP1 PUSH2 0xFFE JUMP JUMPDEST PUSH1 0x40 MLOAD DUP1 SWAP2 SUB SWAP1 RETURN JUMPDEST PUSH2 0x29C PUSH1 0x4 DUP1 CALLDATASIZE SUB DUP2 ADD SWAP1 PUSH2 0x297 SWAP2 SWAP1 PUSH2 0x1284 JUMP JUMPDEST PUSH2 0xAF6 JUMP JUMPDEST STOP JUMPDEST PUSH2 0x2A6 PUSH2 0xB08 JUMP JUMPDEST PUSH1 0x40 MLOAD PUSH2 0x2B3 SWAP2 SWAP1 PUSH2 0xFFE JUMP JUMPDEST PUSH1 0x40 MLOAD DUP1 SWAP2 SUB SWAP1 RETURN JUMPDEST PUSH2 0x2C4 PUSH2 0xB0E JUMP JUMPDEST PUSH1 0x40 MLOAD PUSH2 0x2D1 SWAP2 SWAP1 PUSH2 0x1203 JUMP JUMPDEST PUSH1 0x40 MLOAD DUP1 SWAP2 SUB SWAP1 RETURN JUMPDEST PUSH2 0x2E2 PUSH2 0xB35 JUMP JUMPDEST PUSH1 0x40 MLOAD PUSH2 0x2EF SWAP2 SWAP1 PUSH2 0x12BE JUMP JUMPDEST PUSH1 0x40 MLOAD DUP1 SWAP2 SUB SWAP1 RETURN JUMPDEST PUSH2 0x300 PUSH2 0xB47 JUMP JUMPDEST PUSH1 0x40 MLOAD PUSH2 0x30D SWAP2 SWAP1 PUSH2 0xFFE JUMP JUMPDEST PUSH1 0x40 MLOAD DUP1 SWAP2 SUB SWAP1 RETURN JUMPDEST PUSH2 0x31E PUSH2 0xB4F JUMP JUMPDEST PUSH1 0x40 MLOAD PUSH2 0x32B SWAP2 SWAP1 PUSH2 0xFFE JUMP JUMPDEST PUSH1 0x40 MLOAD DUP1 SWAP2 SUB SWAP1 RETURN JUMPDEST PUSH2 0x33C PUSH2 0xB56 JUMP JUMPDEST PUSH1 0x40 MLOAD PUSH2 0x349 SWAP2 SWAP1 PUSH2 0xFFE JUMP JUMPDEST PUSH1 0x40 MLOAD DUP1 SWAP2 SUB SWAP1 RETURN JUMPDEST PUSH2 0x36C PUSH1 0x4 DUP1 CALLDATASIZE SUB DUP2 ADD SWAP1 PUSH2 0x367 SWAP2 SWAP1 PUSH2 0x11C9 JUMP JUMPDEST PUSH2 0xB5B JUMP JUMPDEST STOP JUMPDEST PUSH2 0x388 PUSH1 0x4 DUP1 CALLDATASIZE SUB DUP2 ADD SWAP1 PUSH2 0x383 SWAP2 SWAP1 PUSH2 0x11C9 JUMP JUMPDEST PUSH2 0xBA6 JUMP JUMPDEST STOP JUMPDEST PUSH2 0x392 PUSH2 0xC28 JUMP JUMPDEST DUP1 PUSH1 0x6 PUSH0 PUSH2 0x100 EXP DUP2 SLOAD DUP2 PUSH1 0xFF MUL NOT AND SWAP1 DUP4 ISZERO ISZERO MUL OR SWAP1 SSTORE POP POP JUMP JUMPDEST PUSH3 0x2A300 DUP2 JUMP JUMPDEST PUSH1 0x6 PUSH0 SWAP1 SLOAD SWAP1 PUSH2 0x100 EXP SWAP1 DIV PUSH1 0xFF AND ISZERO PUSH2 0x404 JUMPI PUSH1 0x40 MLOAD PUSH32 0x8C379A000000000000000000000000000000000000000000000000000000000 DUP2 MSTORE PUSH1 0x4 ADD PUSH2 0x3FB SWAP1 PUSH2 0x1331 JUMP JUMPDEST PUSH1 0x40 MLOAD DUP1 SWAP2 SUB SWAP1 REVERT JUMPDEST PUSH1 0x4 SLOAD TIMESTAMP LT ISZERO PUSH2 0x449 JUMPI PUSH1 0x40 MLOAD PUSH32 0x8C379A000000000000000000000000000000000000000000000000000000000 DUP2 MSTORE PUSH1 0x4 ADD PUSH2 0x440 SWAP1 PUSH2 0x1399 JUMP JUMPDEST PUSH1 0x40 MLOAD DUP1 SWAP2 SUB SWAP1 REVERT JUMPDEST PUSH0 PUSH1 0x5 SLOAD GT PUSH2 0x48D JUMPI PUSH1 0x40 MLOAD PUSH32 0x8C379A000000000000000000000000000000000000000000000000000000000 DUP2 MSTORE PUSH1 0x4 ADD PUSH2 0x484 SWAP1 PUSH2 0x1401 JUMP JUMPDEST PUSH1 0x40 MLOAD DUP1 SWAP2 SUB SWAP1 REVERT JUMPDEST DUP2 DUP2 PUSH2 0x49A CALLER DUP4 DUP4 PUSH2 0xCA6 JUMP JUMPDEST PUSH2 0x4D9 JUMPI PUSH1 0x40 MLOAD PUSH32 0x8C379A000000000000000000000000000000000000000000000000000000000 DUP2 MSTORE PUSH1 0x4 ADD PUSH2 0x4D0 SWAP1 PUSH2 0x1469 JUMP JUMPDEST PUSH1 0x40 MLOAD DUP1 SWAP2 SUB SWAP1 REVERT JUMPDEST PUSH0 DUP6 GT PUSH2 0x51B JUMPI PUSH1 0x40 MLOAD PUSH32 0x8C379A000000000000000000000000000000000000000000000000000000000 DUP2 MSTORE PUSH1 0x4 ADD PUSH2 0x512 SWAP1 PUSH2 0x14D1 JUMP JUMPDEST PUSH1 0x40 MLOAD DUP1 SWAP2 SUB SWAP1 REVERT JUMPDEST DUP6 PUSH20 0xFFFFFFFFFFFFFFFFFFFFFFFFFFFFFFFFFFFFFFFF AND PUSH4 0x23B872DD CALLER ADDRESS DUP9 PUSH1 0x40 MLOAD DUP5 PUSH4 0xFFFFFFFF AND PUSH1 0xE0 SHL DUP2 MSTORE PUSH1 0x4 ADD PUSH2 0x558 SWAP4 SWAP3 SWAP2 SWAP1 PUSH2 0x14EF JUMP JUMPDEST PUSH1 0x20 PUSH1 0x40 MLOAD DUP1 DUP4 SUB DUP2 PUSH0 DUP8 GAS CALL ISZERO DUP1 ISZERO PUSH2 0x574 JUMPI RETURNDATASIZE PUSH0 DUP1 RETURNDATACOPY RETURNDATASIZE PUSH0 REVERT JUMPDEST POP POP POP POP PUSH1 0x40 MLOAD RETURNDATASIZE PUSH1 0x1F NOT PUSH1 0x1F DUP3 ADD AND DUP3 ADD DUP1 PUSH1 0x40 MSTORE POP DUP2 ADD SWAP1 PUSH2 0x598 SWAP2 SWAP1 PUSH2 0x1538 JUMP JUMPDEST PUSH2 0x5D7 JUMPI PUSH1 0x40 MLOAD PUSH32 0x8C379A000000000000000000000000000000000000000000000000000000000 DUP2 MSTORE PUSH1 0x4 ADD PUSH2 0x5CE SWAP1 PUSH2 0x15AD JUMP JUMPDEST PUSH1 0x40 MLOAD DUP1 SWAP2 SUB SWAP1 REVERT JUMPDEST PUSH2 0x5E0 CALLER PUSH2 0xD23 JUMP JUMPDEST PUSH4 0xBEBC200 DUP6 PUSH1 0x7 PUSH0 PUSH1 0x3 SLOAD DUP2 MSTORE PUSH1 0x20 ADD SWAP1 DUP2 MSTORE PUSH1 0x20 ADD PUSH0 KECCAK256 PUSH0 CALLER PUSH20 0xFFFFFFFFFFFFFFFFFFFFFFFFFFFFFFFFFFFFFFFF AND PUSH20 0xFFFFFFFFFFFFFFFFFFFFFFFFFFFFFFFFFFFFFFFF AND DUP2 MSTORE PUSH1 0x20 ADD SWAP1 DUP2 MSTORE PUSH1 0x20 ADD PUSH0 KECCAK256 SLOAD PUSH2 0x63F SWAP2 SWAP1 PUSH2 0x15F8 JUMP JUMPDEST GT ISZERO PUSH2 0x680 JUMPI PUSH1 0x40 MLOAD PUSH32 0x8C379A000000000000000000000000000000000000000000000000000000000 DUP2 MSTORE PUSH1 0x4 ADD PUSH2 0x677 SWAP1 PUSH2 0x1675 JUMP JUMPDEST PUSH1 0x40 MLOAD DUP1 SWAP2 SUB SWAP1 REVERT JUMPDEST PUSH0 PUSH2 0x2710 PUSH1 0x64 DUP8 PUSH2 0x691 SWAP2 SWAP1 PUSH2 0x1693 JUMP JUMPDEST PUSH2 0x69B SWAP2 SWAP1 PUSH2 0x1701 JUMP JUMPDEST SWAP1 POP PUSH0 DUP2 DUP8 PUSH2 0x6AA SWAP2 SWAP1 PUSH2 0x1731 JUMP JUMPDEST SWAP1 POP DUP7 PUSH1 0x7 PUSH0 PUSH1 0x3 SLOAD DUP2 MSTORE PUSH1 0x20 ADD SWAP1 DUP2 MSTORE PUSH1 0x20 ADD PUSH0 KECCAK256 PUSH0 CALLER PUSH20 0xFFFFFFFFFFFFFFFFFFFFFFFFFFFFFFFFFFFFFFFF AND PUSH20 0xFFFFFFFFFFFFFFFFFFFFFFFFFFFFFFFFFFFFFFFF AND DUP2 MSTORE PUSH1 0x20 ADD SWAP1 DUP2 MSTORE PUSH1 0x20 ADD PUSH0 KECCAK256 PUSH0 DUP3 DUP3 SLOAD PUSH2 0x709 SWAP2 SWAP1 PUSH2 0x15F8 JUMP JUMPDEST SWAP3 POP POP DUP2 SWAP1 SSTORE POP DUP1 PUSH1 0x5 PUSH0 DUP3 DUP3 SLOAD PUSH2 0x721 SWAP2 SWAP1 PUSH2 0x1731 JUMP JUMPDEST SWAP3 POP POP DUP2 SWAP1 SSTORE POP PUSH1 0x1 PUSH0 SWAP1 SLOAD SWAP1 PUSH2 0x100 EXP SWAP1 DIV PUSH20 0xFFFFFFFFFFFFFFFFFFFFFFFFFFFFFFFFFFFFFFFF AND PUSH20 0xFFFFFFFFFFFFFFFFFFFFFFFFFFFFFFFFFFFFFFFF AND PUSH4 0xA9059CBB CALLER DUP4 PUSH1 0x40 MLOAD DUP4 PUSH4 0xFFFFFFFF AND PUSH1 0xE0 SHL DUP2 MSTORE PUSH1 0x4 ADD PUSH2 0x784 SWAP3 SWAP2 SWAP1 PUSH2 0x1764 JUMP JUMPDEST PUSH1 0x20 PUSH1 0x40 MLOAD DUP1 DUP4 SUB DUP2 PUSH0 DUP8 GAS CALL ISZERO DUP1 ISZERO PUSH2 0x7A0 JUMPI RETURNDATASIZE PUSH0 DUP1 RETURNDATACOPY RETURNDATASIZE PUSH0 REVERT JUMPDEST POP POP POP POP PUSH1 0x40 MLOAD RETURNDATASIZE PUSH1 0x1F NOT PUSH1 0x1F DUP3 ADD AND DUP3 ADD DUP1 PUSH1 0x40 MSTORE POP DUP2 ADD SWAP1 PUSH2 0x7C4 SWAP2 SWAP1 PUSH2 0x1538 JUMP JUMPDEST PUSH2 0x803 JUMPI PUSH1 0x40 MLOAD PUSH32 0x8C379A000000000000000000000000000000000000000000000000000000000 DUP2 MSTORE PUSH1 0x4 ADD PUSH2 0x7FA SWAP1 PUSH2 0x17D5 JUMP JUMPDEST PUSH1 0x40 MLOAD DUP1 SWAP2 SUB SWAP1 REVERT JUMPDEST DUP8 PUSH20 0xFFFFFFFFFFFFFFFFFFFFFFFFFFFFFFFFFFFFFFFF AND PUSH32 0xF0C71BE01E59205B10EA5AE42439AB4504C7E3DA732743531FF44E98BD9FD63F DUP9 PUSH1 0x1 PUSH0 SWAP1 SLOAD SWAP1 PUSH2 0x100 EXP SWAP1 DIV PUSH20 0xFFFFFFFFFFFFFFFFFFFFFFFFFFFFFFFFFFFFFFFF AND DUP5 PUSH1 0x40 MLOAD PUSH2 0x86E SWAP4 SWAP3 SWAP2 SWAP1 PUSH2 0x17F3 JUMP JUMPDEST PUSH1 0x40 MLOAD DUP1 SWAP2 SUB SWAP1 LOG2 DUP8 PUSH20 0xFFFFFFFFFFFFFFFFFFFFFFFFFFFFFFFFFFFFFFFF AND CALLER PUSH20 0xFFFFFFFFFFFFFFFFFFFFFFFFFFFFFFFFFFFFFFFF AND PUSH32 0xC7E914640E860FBCF42EF4D9DCECED8880D343828101F1FA389C7E1C06072817 DUP10 DUP5 PUSH1 0x40 MLOAD PUSH2 0x8D5 SWAP3 SWAP2 SWAP1 PUSH2 0x1828 JUMP JUMPDEST PUSH1 0x40 MLOAD DUP1 SWAP2 SUB SWAP1 LOG3 POP POP POP POP POP POP POP POP JUMP JUMPDEST PUSH1 0x2 SLOAD DUP2 JUMP JUMPDEST PUSH1 0x4 SLOAD DUP2 JUMP JUMPDEST PUSH2 0x8FB PUSH2 0xC28 JUMP JUMPDEST PUSH1 0x3 SLOAD DUP2 GT PUSH2 0x93F JUMPI PUSH1 0x40 MLOAD PUSH32 0x8C379A000000000000000000000000000000000000000000000000000000000 DUP2 MSTORE PUSH1 0x4 ADD PUSH2 0x936 SWAP1 PUSH2 0x1899 JUMP JUMPDEST PUSH1 0x40 MLOAD DUP1 SWAP2 SUB SWAP1 REVERT JUMPDEST PUSH0 PUSH1 0x1 PUSH0 SWAP1 SLOAD SWAP1 PUSH2 0x100 EXP SWAP1 DIV PUSH20 0xFFFFFFFFFFFFFFFFFFFFFFFFFFFFFFFFFFFFFFFF AND PUSH20 0xFFFFFFFFFFFFFFFFFFFFFFFFFFFFFFFFFFFFFFFF AND PUSH4 0x70A08231 ADDRESS PUSH1 0x40 MLOAD DUP3 PUSH4 0xFFFFFFFF AND PUSH1 0xE0 SHL DUP2 MSTORE PUSH1 0x4 ADD PUSH2 0x99A SWAP2 SWAP1 PUSH2 0x1203 JUMP JUMPDEST PUSH1 0x20 PUSH1 0x40 MLOAD DUP1 DUP4 SUB DUP2 DUP7 GAS STATICCALL ISZERO DUP1 ISZERO PUSH2 0x9B5 JUMPI RETURNDATASIZE PUSH0 DUP1 RETURNDATACOPY RETURNDATASIZE PUSH0 REVERT JUMPDEST POP POP POP POP PUSH1 0x40 MLOAD RETURNDATASIZE PUSH1 0x1F NOT PUSH1 0x1F DUP3 ADD AND DUP3 ADD DUP1 PUSH1 0x40 MSTORE POP DUP2 ADD SWAP1 PUSH2 0x9D9 SWAP2 SWAP1 PUSH2 0x18CB JUMP JUMPDEST SWAP1 POP PUSH0 DUP2 GT PUSH2 0xA1D JUMPI PUSH1 0x40 MLOAD PUSH32 0x8C379A000000000000000000000000000000000000000000000000000000000 DUP2 MSTORE PUSH1 0x4 ADD PUSH2 0xA14 SWAP1 PUSH2 0x1940 JUMP JUMPDEST PUSH1 0x40 MLOAD DUP1 SWAP2 SUB SWAP1 REVERT JUMPDEST DUP2 PUSH1 0x3 DUP2 SWAP1 SSTORE POP DUP1 PUSH1 0x5 DUP2 SWAP1 SSTORE POP PUSH3 0x15180 TIMESTAMP PUSH2 0xA3A SWAP2 SWAP1 PUSH2 0x15F8 JUMP JUMPDEST PUSH1 0x4 DUP2 SWAP1 SSTORE POP PUSH32 0xB0B0C60F0267584D50A65485B5EFF6BABAD43C5727703515FDE33BB545B19114 DUP3 PUSH1 0x5 SLOAD PUSH1 0x4 SLOAD PUSH1 0x40 MLOAD PUSH2 0xA77 SWAP4 SWAP3 SWAP2 SWAP1 PUSH2 0x195E JUMP JUMPDEST PUSH1 0x40 MLOAD DUP1 SWAP2 SUB SWAP1 LOG1 POP POP JUMP JUMPDEST PUSH1 0x8 PUSH1 0x20 MSTORE DUP1 PUSH0 MSTORE PUSH1 0x40 PUSH0 KECCAK256 PUSH0 SWAP2 POP SWAP1 POP SLOAD DUP2 JUMP JUMPDEST PUSH1 0x1 PUSH0 SWAP1 SLOAD SWAP1 PUSH2 0x100 EXP SWAP1 DIV PUSH20 0xFFFFFFFFFFFFFFFFFFFFFFFFFFFFFFFFFFFFFFFF AND DUP2 JUMP JUMPDEST PUSH1 0x5 SLOAD DUP2 JUMP JUMPDEST PUSH2 0xACB PUSH2 0xC28 JUMP JUMPDEST PUSH2 0xAD4 PUSH0 PUSH2 0xE0E JUMP JUMPDEST JUMP JUMPDEST PUSH1 0x7 PUSH1 0x20 MSTORE DUP2 PUSH0 MSTORE PUSH1 0x40 PUSH0 KECCAK256 PUSH1 0x20 MSTORE DUP1 PUSH0 MSTORE PUSH1 0x40 PUSH0 KECCAK256 PUSH0 SWAP2 POP SWAP2 POP POP SLOAD DUP2 JUMP JUMPDEST PUSH2 0xAFE PUSH2 0xC28 JUMP JUMPDEST DUP1 PUSH1 0x2 DUP2 SWAP1 SSTORE POP POP JUMP JUMPDEST PUSH1 0x3 SLOAD DUP2 JUMP JUMPDEST PUSH0 DUP1 PUSH0 SWAP1 SLOAD SWAP1 PUSH2 0x100 EXP SWAP1 DIV PUSH20 0xFFFFFFFFFFFFFFFFFFFFFFFFFFFFFFFFFFFFFFFF AND SWAP1 POP SWAP1 JUMP JUMPDEST PUSH1 0x6 PUSH0 SWAP1 SLOAD SWAP1 PUSH2 0x100 EXP SWAP1 DIV PUSH1 0xFF AND DUP2 JUMP JUMPDEST PUSH4 0xBEBC200 DUP2 JUMP JUMPDEST PUSH3 0x15180 DUP2 JUMP JUMPDEST PUSH1 0x64 DUP2 JUMP JUMPDEST PUSH2 0xB63 PUSH2 0xC28 JUMP JUMPDEST DUP1 PUSH1 0x1 PUSH0 PUSH2 0x100 EXP DUP2 SLOAD DUP2 PUSH20 0xFFFFFFFFFFFFFFFFFFFFFFFFFFFFFFFFFFFFFFFF MUL NOT AND SWAP1 DUP4 PUSH20 0xFFFFFFFFFFFFFFFFFFFFFFFFFFFFFFFFFFFFFFFF AND MUL OR SWAP1 SSTORE POP POP JUMP JUMPDEST PUSH2 0xBAE PUSH2 0xC28 JUMP JUMPDEST PUSH0 PUSH20 0xFFFFFFFFFFFFFFFFFFFFFFFFFFFFFFFFFFFFFFFF AND DUP2 PUSH20 0xFFFFFFFFFFFFFFFFFFFFFFFFFFFFFFFFFFFFFFFF AND SUB PUSH2 0xC1C JUMPI PUSH1 0x40 MLOAD PUSH32 0x8C379A000000000000000000000000000000000000000000000000000000000 DUP2 MSTORE PUSH1 0x4 ADD PUSH2 0xC13 SWAP1 PUSH2 0x1A03 JUMP JUMPDEST PUSH1 0x40 MLOAD DUP1 SWAP2 SUB SWAP1 REVERT JUMPDEST PUSH2 0xC25 DUP2 PUSH2 0xE0E JUMP JUMPDEST POP JUMP JUMPDEST PUSH2 0xC30 PUSH2 0xECF JUMP JUMPDEST PUSH20 0xFFFFFFFFFFFFFFFFFFFFFFFFFFFFFFFFFFFFFFFF AND PUSH2 0xC4E PUSH2 0xB0E JUMP JUMPDEST PUSH20 0xFFFFFFFFFFFFFFFFFFFFFFFFFFFFFFFFFFFFFFFF AND EQ PUSH2 0xCA4 JUMPI PUSH1 0x40 MLOAD PUSH32 0x8C379A000000000000000000000000000000000000000000000000000000000 DUP2 MSTORE PUSH1 0x4 ADD PUSH2 0xC9B SWAP1 PUSH2 0x1A6B JUMP JUMPDEST PUSH1 0x40 MLOAD DUP1 SWAP2 SUB SWAP1 REVERT JUMPDEST JUMP JUMPDEST PUSH0 PUSH2 0xD1A DUP4 DUP4 DUP1 DUP1 PUSH1 0x20 MUL PUSH1 0x20 ADD PUSH1 0x40 MLOAD SWAP1 DUP2 ADD PUSH1 0x40 MSTORE DUP1 SWAP4 SWAP3 SWAP2 SWAP1 DUP2 DUP2 MSTORE PUSH1 0x20 ADD DUP4 DUP4 PUSH1 0x20 MUL DUP1 DUP3 DUP5 CALLDATACOPY PUSH0 DUP2 DUP5 ADD MSTORE PUSH1 0x1F NOT PUSH1 0x1F DUP3 ADD AND SWAP1 POP DUP1 DUP4 ADD SWAP3 POP POP POP POP POP POP POP PUSH1 0x2 SLOAD DUP7 PUSH1 0x40 MLOAD PUSH1 0x20 ADD PUSH2 0xCFF SWAP2 SWAP1 PUSH2 0x1ACE JUMP JUMPDEST PUSH1 0x40 MLOAD PUSH1 0x20 DUP2 DUP4 SUB SUB DUP2 MSTORE SWAP1 PUSH1 0x40 MSTORE DUP1 MLOAD SWAP1 PUSH1 0x20 ADD KECCAK256 PUSH2 0xED6 JUMP JUMPDEST SWAP1 POP SWAP4 SWAP3 POP POP POP JUMP JUMPDEST PUSH3 0x2A300 PUSH1 0x8 PUSH0 DUP4 PUSH20 0xFFFFFFFFFFFFFFFFFFFFFFFFFFFFFFFFFFFFFFFF AND PUSH20 0xFFFFFFFFFFFFFFFFFFFFFFFFFFFFFFFFFFFFFFFF AND DUP2 MSTORE PUSH1 0x20 ADD SWAP1 DUP2 MSTORE PUSH1 0x20 ADD PUSH0 KECCAK256 SLOAD TIMESTAMP PUSH2 0xD70 SWAP2 SWAP1 PUSH2 0x1731 JUMP JUMPDEST LT PUSH2 0xDC9 JUMPI PUSH0 PUSH1 0x7 PUSH0 PUSH1 0x3 SLOAD DUP2 MSTORE PUSH1 0x20 ADD SWAP1 DUP2 MSTORE PUSH1 0x20 ADD PUSH0 KECCAK256 PUSH0 DUP4 PUSH20 0xFFFFFFFFFFFFFFFFFFFFFFFFFFFFFFFFFFFFFFFF AND PUSH20 0xFFFFFFFFFFFFFFFFFFFFFFFFFFFFFFFFFFFFFFFF AND DUP2 MSTORE PUSH1 0x20 ADD SWAP1 DUP2 MSTORE PUSH1 0x20 ADD PUSH0 KECCAK256 DUP2 SWAP1 SSTORE POP JUMPDEST TIMESTAMP PUSH1 0x8 PUSH0 DUP4 PUSH20 0xFFFFFFFFFFFFFFFFFFFFFFFFFFFFFFFFFFFFFFFF AND PUSH20 0xFFFFFFFFFFFFFFFFFFFFFFFFFFFFFFFFFFFFFFFF AND DUP2 MSTORE PUSH1 0x20 ADD SWAP1 DUP2 MSTORE PUSH1 0x20 ADD PUSH0 KECCAK256 DUP2 SWAP1 SSTORE POP POP JUMP JUMPDEST PUSH0 DUP1 PUSH0 SWAP1 SLOAD SWAP1 PUSH2 0x100 EXP SWAP1 DIV PUSH20 0xFFFFFFFFFFFFFFFFFFFFFFFFFFFFFFFFFFFFFFFF AND SWAP1 POP DUP2 PUSH0 DUP1 PUSH2 0x100 EXP DUP2 SLOAD DUP2 PUSH20 0xFFFFFFFFFFFFFFFFFFFFFFFFFFFFFFFFFFFFFFFF MUL NOT AND SWAP1 DUP4 PUSH20 0xFFFFFFFFFFFFFFFFFFFFFFFFFFFFFFFFFFFFFFFF AND MUL OR SWAP1 SSTORE POP DUP2 PUSH20 0xFFFFFFFFFFFFFFFFFFFFFFFFFFFFFFFFFFFFFFFF AND DUP2 PUSH20 0xFFFFFFFFFFFFFFFFFFFFFFFFFFFFFFFFFFFFFFFF AND PUSH32 0x8BE0079C531659141344CD1FD0A4F28419497F9722A3DAAFE3B4186F6B6457E0 PUSH1 0x40 MLOAD PUSH1 0x40 MLOAD DUP1 SWAP2 SUB SWAP1 LOG3 POP POP JUMP JUMPDEST PUSH0 CALLER SWAP1 POP SWAP1 JUMP JUMPDEST PUSH0 DUP3 PUSH2 0xEE2 DUP6 DUP5 PUSH2 0xEEC JUMP JUMPDEST EQ SWAP1 POP SWAP4 SWAP3 POP POP POP JUMP JUMPDEST PUSH0 DUP1 DUP3 SWAP1 POP PUSH0 JUMPDEST DUP5 MLOAD DUP2 LT ISZERO PUSH2 0xF35 JUMPI PUSH2 0xF20 DUP3 DUP7 DUP4 DUP2 MLOAD DUP2 LT PUSH2 0xF13 JUMPI PUSH2 0xF12 PUSH2 0x1AE8 JUMP JUMPDEST JUMPDEST PUSH1 0x20 MUL PUSH1 0x20 ADD ADD MLOAD PUSH2 0xF40 JUMP JUMPDEST SWAP2 POP DUP1 DUP1 PUSH2 0xF2D SWAP1 PUSH2 0x1B15 JUMP JUMPDEST SWAP2 POP POP PUSH2 0xEF3 JUMP JUMPDEST POP DUP1 SWAP2 POP POP SWAP3 SWAP2 POP POP JUMP JUMPDEST PUSH0 DUP2 DUP4 LT PUSH2 0xF57 JUMPI PUSH2 0xF52 DUP3 DUP5 PUSH2 0xF6A JUMP JUMPDEST PUSH2 0xF62 JUMP JUMPDEST PUSH2 0xF61 DUP4 DUP4 PUSH2 0xF6A JUMP JUMPDEST JUMPDEST SWAP1 POP SWAP3 SWAP2 POP POP JUMP JUMPDEST PUSH0 DUP3 PUSH0 MSTORE DUP2 PUSH1 0x20 MSTORE PUSH1 0x40 PUSH0 KECCAK256 SWAP1 POP SWAP3 SWAP2 POP POP JUMP JUMPDEST PUSH0 DUP1 REVERT JUMPDEST PUSH0 DUP1 REVERT JUMPDEST PUSH0 DUP2 ISZERO ISZERO SWAP1 POP SWAP2 SWAP1 POP JUMP JUMPDEST PUSH2 0xF9A DUP2 PUSH2 0xF86 JUMP JUMPDEST DUP2 EQ PUSH2 0xFA4 JUMPI PUSH0 DUP1 REVERT JUMPDEST POP JUMP JUMPDEST PUSH0 DUP2 CALLDATALOAD SWAP1 POP PUSH2 0xFB5 DUP2 PUSH2 0xF91 JUMP JUMPDEST SWAP3 SWAP2 POP POP JUMP JUMPDEST PUSH0 PUSH1 0x20 DUP3 DUP5 SUB SLT ISZERO PUSH2 0xFD0 JUMPI PUSH2 0xFCF PUSH2 0xF7E JUMP JUMPDEST JUMPDEST PUSH0 PUSH2 0xFDD DUP5 DUP3 DUP6 ADD PUSH2 0xFA7 JUMP JUMPDEST SWAP2 POP POP SWAP3 SWAP2 POP POP JUMP JUMPDEST PUSH0 DUP2 SWAP1 POP SWAP2 SWAP1 POP JUMP JUMPDEST PUSH2 0xFF8 DUP2 PUSH2 0xFE6 JUMP JUMPDEST DUP3 MSTORE POP POP JUMP JUMPDEST PUSH0 PUSH1 0x20 DUP3 ADD SWAP1 POP PUSH2 0x1011 PUSH0 DUP4 ADD DUP5 PUSH2 0xFEF JUMP JUMPDEST SWAP3 SWAP2 POP POP JUMP JUMPDEST PUSH0 PUSH20 0xFFFFFFFFFFFFFFFFFFFFFFFFFFFFFFFFFFFFFFFF DUP3 AND SWAP1 POP SWAP2 SWAP1 POP JUMP JUMPDEST PUSH0 PUSH2 0x1040 DUP3 PUSH2 0x1017 JUMP JUMPDEST SWAP1 POP SWAP2 SWAP1 POP JUMP JUMPDEST PUSH2 0x1050 DUP2 PUSH2 0x1036 JUMP JUMPDEST DUP2 EQ PUSH2 0x105A JUMPI PUSH0 DUP1 REVERT JUMPDEST POP JUMP JUMPDEST PUSH0 DUP2 CALLDATALOAD SWAP1 POP PUSH2 0x106B DUP2 PUSH2 0x1047 JUMP JUMPDEST SWAP3 SWAP2 POP POP JUMP JUMPDEST PUSH2 0x107A DUP2 PUSH2 0xFE6 JUMP JUMPDEST DUP2 EQ PUSH2 0x1084 JUMPI PUSH0 DUP1 REVERT JUMPDEST POP JUMP JUMPDEST PUSH0 DUP2 CALLDATALOAD SWAP1 POP PUSH2 0x1095 DUP2 PUSH2 0x1071 JUMP JUMPDEST SWAP3 SWAP2 POP POP JUMP JUMPDEST PUSH0 DUP1 REVERT JUMPDEST PUSH0 DUP1 REVERT JUMPDEST PUSH0 DUP1 REVERT JUMPDEST PUSH0 DUP1 DUP4 PUSH1 0x1F DUP5 ADD SLT PUSH2 0x10BC JUMPI PUSH2 0x10BB PUSH2 0x109B JUMP JUMPDEST JUMPDEST DUP3 CALLDATALOAD SWAP1 POP PUSH8 0xFFFFFFFFFFFFFFFF DUP2 GT ISZERO PUSH2 0x10D9 JUMPI PUSH2 0x10D8 PUSH2 0x109F JUMP JUMPDEST JUMPDEST PUSH1 0x20 DUP4 ADD SWAP2 POP DUP4 PUSH1 0x20 DUP3 MUL DUP4 ADD GT ISZERO PUSH2 0x10F5 JUMPI PUSH2 0x10F4 PUSH2 0x10A3 JUMP JUMPDEST JUMPDEST SWAP3 POP SWAP3 SWAP1 POP JUMP JUMPDEST PUSH0 DUP1 PUSH0 DUP1 PUSH1 0x60 DUP6 DUP8 SUB SLT ISZERO PUSH2 0x1114 JUMPI PUSH2 0x1113 PUSH2 0xF7E JUMP JUMPDEST JUMPDEST PUSH0 PUSH2 0x1121 DUP8 DUP3 DUP9 ADD PUSH2 0x105D JUMP JUMPDEST SWAP5 POP POP PUSH1 0x20 PUSH2 0x1132 DUP8 DUP3 DUP9 ADD PUSH2 0x1087 JUMP JUMPDEST SWAP4 POP POP PUSH1 0x40 DUP6 ADD CALLDATALOAD PUSH8 0xFFFFFFFFFFFFFFFF DUP2 GT ISZERO PUSH2 0x1153 JUMPI PUSH2 0x1152 PUSH2 0xF82 JUMP JUMPDEST JUMPDEST PUSH2 0x115F DUP8 DUP3 DUP9 ADD PUSH2 0x10A7 JUMP JUMPDEST SWAP3 POP SWAP3 POP POP SWAP3 SWAP6 SWAP2 SWAP5 POP SWAP3 POP JUMP JUMPDEST PUSH0 DUP2 SWAP1 POP SWAP2 SWAP1 POP JUMP JUMPDEST PUSH2 0x117F DUP2 PUSH2 0x116D JUMP JUMPDEST DUP3 MSTORE POP POP JUMP JUMPDEST PUSH0 PUSH1 0x20 DUP3 ADD SWAP1 POP PUSH2 0x1198 PUSH0 DUP4 ADD DUP5 PUSH2 0x1176 JUMP JUMPDEST SWAP3 SWAP2 POP POP JUMP JUMPDEST PUSH0 PUSH1 0x20 DUP3 DUP5 SUB SLT ISZERO PUSH2 0x11B3 JUMPI PUSH2 0x11B2 PUSH2 0xF7E JUMP JUMPDEST JUMPDEST PUSH0 PUSH2 0x11C0 DUP5 DUP3 DUP6 ADD PUSH2 0x1087 JUMP JUMPDEST SWAP2 POP POP SWAP3 SWAP2 POP POP JUMP JUMPDEST PUSH0 PUSH1 0x20 DUP3 DUP5 SUB SLT ISZERO PUSH2 0x11DE JUMPI PUSH2 0x11DD PUSH2 0xF7E JUMP JUMPDEST JUMPDEST PUSH0 PUSH2 0x11EB DUP5 DUP3 DUP6 ADD PUSH2 0x105D JUMP JUMPDEST SWAP2 POP POP SWAP3 SWAP2 POP POP JUMP JUMPDEST PUSH2 0x11FD DUP2 PUSH2 0x1036 JUMP JUMPDEST DUP3 MSTORE POP POP JUMP JUMPDEST PUSH0 PUSH1 0x20 DUP3 ADD SWAP1 POP PUSH2 0x1216 PUSH0 DUP4 ADD DUP5 PUSH2 0x11F4 JUMP JUMPDEST SWAP3 SWAP2 POP POP JUMP JUMPDEST PUSH0 DUP1 PUSH1 0x40 DUP4 DUP6 SUB SLT ISZERO PUSH2 0x1232 JUMPI PUSH2 0x1231 PUSH2 0xF7E JUMP JUMPDEST JUMPDEST PUSH0 PUSH2 0x123F DUP6 DUP3 DUP7 ADD PUSH2 0x1087 JUMP JUMPDEST SWAP3 POP POP PUSH1 0x20 PUSH2 0x1250 DUP6 DUP3 DUP7 ADD PUSH2 0x105D JUMP JUMPDEST SWAP2 POP POP SWAP3 POP SWAP3 SWAP1 POP JUMP JUMPDEST PUSH2 0x1263 DUP2 PUSH2 0x116D JUMP JUMPDEST DUP2 EQ PUSH2 0x126D JUMPI PUSH0 DUP1 REVERT JUMPDEST POP JUMP JUMPDEST PUSH0 DUP2 CALLDATALOAD SWAP1 POP PUSH2 0x127E DUP2 PUSH2 0x125A JUMP JUMPDEST SWAP3 SWAP2 POP POP JUMP JUMPDEST PUSH0 PUSH1 0x20 DUP3 DUP5 SUB SLT ISZERO PUSH2 0x1299 JUMPI PUSH2 0x1298 PUSH2 0xF7E JUMP JUMPDEST JUMPDEST PUSH0 PUSH2 0x12A6 DUP5 DUP3 DUP6 ADD PUSH2 0x1270 JUMP JUMPDEST SWAP2 POP POP SWAP3 SWAP2 POP POP JUMP JUMPDEST PUSH2 0x12B8 DUP2 PUSH2 0xF86 JUMP JUMPDEST DUP3 MSTORE POP POP JUMP JUMPDEST PUSH0 PUSH1 0x20 DUP3 ADD SWAP1 POP PUSH2 0x12D1 PUSH0 DUP4 ADD DUP5 PUSH2 0x12AF JUMP JUMPDEST SWAP3 SWAP2 POP POP JUMP JUMPDEST PUSH0 DUP3 DUP3 MSTORE PUSH1 0x20 DUP3 ADD SWAP1 POP SWAP3 SWAP2 POP POP JUMP JUMPDEST PUSH32 0x436F6E7472616374206973206C6F636B65640000000000000000000000000000 PUSH0 DUP3 ADD MSTORE POP JUMP JUMPDEST PUSH0 PUSH2 0x131B PUSH1 0x12 DUP4 PUSH2 0x12D7 JUMP JUMPDEST SWAP2 POP PUSH2 0x1326 DUP3 PUSH2 0x12E7 JUMP JUMPDEST PUSH1 0x20 DUP3 ADD SWAP1 POP SWAP2 SWAP1 POP JUMP JUMPDEST PUSH0 PUSH1 0x20 DUP3 ADD SWAP1 POP DUP2 DUP2 SUB PUSH0 DUP4 ADD MSTORE PUSH2 0x1348 DUP2 PUSH2 0x130F JUMP JUMPDEST SWAP1 POP SWAP2 SWAP1 POP JUMP JUMPDEST PUSH32 0x526F756E64206E6F742073746172746564000000000000000000000000000000 PUSH0 DUP3 ADD MSTORE POP JUMP JUMPDEST PUSH0 PUSH2 0x1383 PUSH1 0x11 DUP4 PUSH2 0x12D7 JUMP JUMPDEST SWAP2 POP PUSH2 0x138E DUP3 PUSH2 0x134F JUMP JUMPDEST PUSH1 0x20 DUP3 ADD SWAP1 POP SWAP2 SWAP1 POP JUMP JUMPDEST PUSH0 PUSH1 0x20 DUP3 ADD SWAP1 POP DUP2 DUP2 SUB PUSH0 DUP4 ADD MSTORE PUSH2 0x13B0 DUP2 PUSH2 0x1377 JUMP JUMPDEST SWAP1 POP SWAP2 SWAP1 POP JUMP JUMPDEST PUSH32 0x4E6F2066756E6473000000000000000000000000000000000000000000000000 PUSH0 DUP3 ADD MSTORE POP JUMP JUMPDEST PUSH0 PUSH2 0x13EB PUSH1 0x8 DUP4 PUSH2 0x12D7 JUMP JUMPDEST SWAP2 POP PUSH2 0x13F6 DUP3 PUSH2 0x13B7 JUMP JUMPDEST PUSH1 0x20 DUP3 ADD SWAP1 POP SWAP2 SWAP1 POP JUMP JUMPDEST PUSH0 PUSH1 0x20 DUP3 ADD SWAP1 POP DUP2 DUP2 SUB PUSH0 DUP4 ADD MSTORE PUSH2 0x1418 DUP2 PUSH2 0x13DF JUMP JUMPDEST SWAP1 POP SWAP2 SWAP1 POP JUMP JUMPDEST PUSH32 0x4E6F742077686974656C69737465640000000000000000000000000000000000 PUSH0 DUP3 ADD MSTORE POP JUMP JUMPDEST PUSH0 PUSH2 0x1453 PUSH1 0xF DUP4 PUSH2 0x12D7 JUMP JUMPDEST SWAP2 POP PUSH2 0x145E DUP3 PUSH2 0x141F JUMP JUMPDEST PUSH1 0x20 DUP3 ADD SWAP1 POP SWAP2 SWAP1 POP JUMP JUMPDEST PUSH0 PUSH1 0x20 DUP3 ADD SWAP1 POP DUP2 DUP2 SUB PUSH0 DUP4 ADD MSTORE PUSH2 0x1480 DUP2 PUSH2 0x1447 JUMP JUMPDEST SWAP1 POP SWAP2 SWAP1 POP JUMP JUMPDEST PUSH32 0x496E76616C696420616D6F756E74000000000000000000000000000000000000 PUSH0 DUP3 ADD MSTORE POP JUMP JUMPDEST PUSH0 PUSH2 0x14BB PUSH1 0xE DUP4 PUSH2 0x12D7 JUMP JUMPDEST SWAP2 POP PUSH2 0x14C6 DUP3 PUSH2 0x1487 JUMP JUMPDEST PUSH1 0x20 DUP3 ADD SWAP1 POP SWAP2 SWAP1 POP JUMP JUMPDEST PUSH0 PUSH1 0x20 DUP3 ADD SWAP1 POP DUP2 DUP2 SUB PUSH0 DUP4 ADD MSTORE PUSH2 0x14E8 DUP2 PUSH2 0x14AF JUMP JUMPDEST SWAP1 POP SWAP2 SWAP1 POP JUMP JUMPDEST PUSH0 PUSH1 0x60 DUP3 ADD SWAP1 POP PUSH2 0x1502 PUSH0 DUP4 ADD DUP7 PUSH2 0x11F4 JUMP JUMPDEST PUSH2 0x150F PUSH1 0x20 DUP4 ADD DUP6 PUSH2 0x11F4 JUMP JUMPDEST PUSH2 0x151C PUSH1 0x40 DUP4 ADD DUP5 PUSH2 0xFEF JUMP JUMPDEST SWAP5 SWAP4 POP POP POP POP JUMP JUMPDEST PUSH0 DUP2 MLOAD SWAP1 POP PUSH2 0x1532 DUP2 PUSH2 0xF91 JUMP JUMPDEST SWAP3 SWAP2 POP POP JUMP JUMPDEST PUSH0 PUSH1 0x20 DUP3 DUP5 SUB SLT ISZERO PUSH2 0x154D JUMPI PUSH2 0x154C PUSH2 0xF7E JUMP JUMPDEST JUMPDEST PUSH0 PUSH2 0x155A DUP5 DUP3 DUP6 ADD PUSH2 0x1524 JUMP JUMPDEST SWAP2 POP POP SWAP3 SWAP2 POP POP JUMP JUMPDEST PUSH32 0x5472616E73666572206661696C65640000000000000000000000000000000000 PUSH0 DUP3 ADD MSTORE POP JUMP JUMPDEST PUSH0 PUSH2 0x1597 PUSH1 0xF DUP4 PUSH2 0x12D7 JUMP JUMPDEST SWAP2 POP PUSH2 0x15A2 DUP3 PUSH2 0x1563 JUMP JUMPDEST PUSH1 0x20 DUP3 ADD SWAP1 POP SWAP2 SWAP1 POP JUMP JUMPDEST PUSH0 PUSH1 0x20 DUP3 ADD SWAP1 POP DUP2 DUP2 SUB PUSH0 DUP4 ADD MSTORE PUSH2 0x15C4 DUP2 PUSH2 0x158B JUMP JUMPDEST SWAP1 POP SWAP2 SWAP1 POP JUMP JUMPDEST PUSH32 0x4E487B7100000000000000000000000000000000000000000000000000000000 PUSH0 MSTORE PUSH1 0x11 PUSH1 0x4 MSTORE PUSH1 0x24 PUSH0 REVERT JUMPDEST PUSH0 PUSH2 0x1602 DUP3 PUSH2 0xFE6 JUMP JUMPDEST SWAP2 POP PUSH2 0x160D DUP4 PUSH2 0xFE6 JUMP JUMPDEST SWAP3 POP DUP3 DUP3 ADD SWAP1 POP DUP1 DUP3 GT ISZERO PUSH2 0x1625 JUMPI PUSH2 0x1624 PUSH2 0x15CB JUMP JUMPDEST JUMPDEST SWAP3 SWAP2 POP POP JUMP JUMPDEST PUSH32 0x45786365656473206C696D697400000000000000000000000000000000000000 PUSH0 DUP3 ADD MSTORE POP JUMP JUMPDEST PUSH0 PUSH2 0x165F PUSH1 0xD DUP4 PUSH2 0x12D7 JUMP JUMPDEST SWAP2 POP PUSH2 0x166A DUP3 PUSH2 0x162B JUMP JUMPDEST PUSH1 0x20 DUP3 ADD SWAP1 POP SWAP2 SWAP1 POP JUMP JUMPDEST PUSH0 PUSH1 0x20 DUP3 ADD SWAP1 POP DUP2 DUP2 SUB PUSH0 DUP4 ADD MSTORE PUSH2 0x168C DUP2 PUSH2 0x1653 JUMP JUMPDEST SWAP1 POP SWAP2 SWAP1 POP JUMP JUMPDEST PUSH0 PUSH2 0x169D DUP3 PUSH2 0xFE6 JUMP JUMPDEST SWAP2 POP PUSH2 0x16A8 DUP4 PUSH2 0xFE6 JUMP JUMPDEST SWAP3 POP DUP3 DUP3 MUL PUSH2 0x16B6 DUP2 PUSH2 0xFE6 JUMP JUMPDEST SWAP2 POP DUP3 DUP3 DIV DUP5 EQ DUP4 ISZERO OR PUSH2 0x16CD JUMPI PUSH2 0x16CC PUSH2 0x15CB JUMP JUMPDEST JUMPDEST POP SWAP3 SWAP2 POP POP JUMP JUMPDEST PUSH32 0x4E487B7100000000000000000000000000000000000000000000000000000000 PUSH0 MSTORE PUSH1 0x12 PUSH1 0x4 MSTORE PUSH1 0x24 PUSH0 REVERT JUMPDEST PUSH0 PUSH2 0x170B DUP3 PUSH2 0xFE6 JUMP JUMPDEST SWAP2 POP PUSH2 0x1716 DUP4 PUSH2 0xFE6 JUMP JUMPDEST SWAP3 POP DUP3 PUSH2 0x1726 JUMPI PUSH2 0x1725 PUSH2 0x16D4 JUMP JUMPDEST JUMPDEST DUP3 DUP3 DIV SWAP1 POP SWAP3 SWAP2 POP POP JUMP JUMPDEST PUSH0 PUSH2 0x173B DUP3 PUSH2 0xFE6 JUMP JUMPDEST SWAP2 POP PUSH2 0x1746 DUP4 PUSH2 0xFE6 JUMP JUMPDEST SWAP3 POP DUP3 DUP3 SUB SWAP1 POP DUP2 DUP2 GT ISZERO PUSH2 0x175E JUMPI PUSH2 0x175D PUSH2 0x15CB JUMP JUMPDEST JUMPDEST SWAP3 SWAP2 POP POP JUMP JUMPDEST PUSH0 PUSH1 0x40 DUP3 ADD SWAP1 POP PUSH2 0x1777 PUSH0 DUP4 ADD DUP6 PUSH2 0x11F4 JUMP JUMPDEST PUSH2 0x1784 PUSH1 0x20 DUP4 ADD DUP5 PUSH2 0xFEF JUMP JUMPDEST SWAP4 SWAP3 POP POP POP JUMP JUMPDEST PUSH32 0x526566756E64206661696C656400000000000000000000000000000000000000 PUSH0 DUP3 ADD MSTORE POP JUMP JUMPDEST PUSH0 PUSH2 0x17BF PUSH1 0xD DUP4 PUSH2 0x12D7 JUMP JUMPDEST SWAP2 POP PUSH2 0x17CA DUP3 PUSH2 0x178B JUMP JUMPDEST PUSH1 0x20 DUP3 ADD SWAP1 POP SWAP2 SWAP1 POP JUMP JUMPDEST PUSH0 PUSH1 0x20 DUP3 ADD SWAP1 POP DUP2 DUP2 SUB PUSH0 DUP4 ADD MSTORE PUSH2 0x17EC DUP2 PUSH2 0x17B3 JUMP JUMPDEST SWAP1 POP SWAP2 SWAP1 POP JUMP JUMPDEST PUSH0 PUSH1 0x60 DUP3 ADD SWAP1 POP PUSH2 0x1806 PUSH0 DUP4 ADD DUP7 PUSH2 0xFEF JUMP JUMPDEST PUSH2 0x1813 PUSH1 0x20 DUP4 ADD DUP6 PUSH2 0x11F4 JUMP JUMPDEST PUSH2 0x1820 PUSH1 0x40 DUP4 ADD DUP5 PUSH2 0xFEF JUMP JUMPDEST SWAP5 SWAP4 POP POP POP POP JUMP JUMPDEST PUSH0 PUSH1 0x40 DUP3 ADD SWAP1 POP PUSH2 0x183B PUSH0 DUP4 ADD DUP6 PUSH2 0xFEF JUMP JUMPDEST PUSH2 0x1848 PUSH1 0x20 DUP4 ADD DUP5 PUSH2 0xFEF JUMP JUMPDEST SWAP4 SWAP3 POP POP POP JUMP JUMPDEST PUSH32 0x526F756E64204944206D75737420696E63726561736500000000000000000000 PUSH0 DUP3 ADD MSTORE POP JUMP JUMPDEST PUSH0 PUSH2 0x1883 PUSH1 0x16 DUP4 PUSH2 0x12D7 JUMP JUMPDEST SWAP2 POP PUSH2 0x188E DUP3 PUSH2 0x184F JUMP JUMPDEST PUSH1 0x20 DUP3 ADD SWAP1 POP SWAP2 SWAP1 POP JUMP JUMPDEST PUSH0 PUSH1 0x20 DUP3 ADD SWAP1 POP DUP2 DUP2 SUB PUSH0 DUP4 ADD MSTORE PUSH2 0x18B0 DUP2 PUSH2 0x1877 JUMP JUMPDEST SWAP1 POP SWAP2 SWAP1 POP JUMP JUMPDEST PUSH0 DUP2 MLOAD SWAP1 POP PUSH2 0x18C5 DUP2 PUSH2 0x1071 JUMP JUMPDEST SWAP3 SWAP2 POP POP JUMP JUMPDEST PUSH0 PUSH1 0x20 DUP3 DUP5 SUB SLT ISZERO PUSH2 0x18E0 JUMPI PUSH2 0x18DF PUSH2 0xF7E JUMP JUMPDEST JUMPDEST PUSH0 PUSH2 0x18ED DUP5 DUP3 DUP6 ADD PUSH2 0x18B7 JUMP JUMPDEST SWAP2 POP POP SWAP3 SWAP2 POP POP JUMP JUMPDEST PUSH32 0x4E6F205553444300000000000000000000000000000000000000000000000000 PUSH0 DUP3 ADD MSTORE POP JUMP JUMPDEST PUSH0 PUSH2 0x192A PUSH1 0x7 DUP4 PUSH2 0x12D7 JUMP JUMPDEST SWAP2 POP PUSH2 0x1935 DUP3 PUSH2 0x18F6 JUMP JUMPDEST PUSH1 0x20 DUP3 ADD SWAP1 POP SWAP2 SWAP1 POP JUMP JUMPDEST PUSH0 PUSH1 0x20 DUP3 ADD SWAP1 POP DUP2 DUP2 SUB PUSH0 DUP4 ADD MSTORE PUSH2 0x1957 DUP2 PUSH2 0x191E JUMP JUMPDEST SWAP1 POP SWAP2 SWAP1 POP JUMP JUMPDEST PUSH0 PUSH1 0x60 DUP3 ADD SWAP1 POP PUSH2 0x1971 PUSH0 DUP4 ADD DUP7 PUSH2 0xFEF JUMP JUMPDEST PUSH2 0x197E PUSH1 0x20 DUP4 ADD DUP6 PUSH2 0xFEF JUMP JUMPDEST PUSH2 0x198B PUSH1 0x40 DUP4 ADD DUP5 PUSH2 0xFEF JUMP JUMPDEST SWAP5 SWAP4 POP POP POP POP JUMP JUMPDEST PUSH32 0x4F776E61626C653A206E6577206F776E657220697320746865207A65726F2061 PUSH0 DUP3 ADD MSTORE PUSH32 0x6464726573730000000000000000000000000000000000000000000000000000 PUSH1 0x20 DUP3 ADD MSTORE POP JUMP JUMPDEST PUSH0 PUSH2 0x19ED PUSH1 0x26 DUP4 PUSH2 0x12D7 JUMP JUMPDEST SWAP2 POP PUSH2 0x19F8 DUP3 PUSH2 0x1993 JUMP JUMPDEST PUSH1 0x40 DUP3 ADD SWAP1 POP SWAP2 SWAP1 POP JUMP JUMPDEST PUSH0 PUSH1 0x20 DUP3 ADD SWAP1 POP DUP2 DUP2 SUB PUSH0 DUP4 ADD MSTORE PUSH2 0x1A1A DUP2 PUSH2 0x19E1 JUMP JUMPDEST SWAP1 POP SWAP2 SWAP1 POP JUMP JUMPDEST PUSH32 0x4F776E61626C653A2063616C6C6572206973206E6F7420746865206F776E6572 PUSH0 DUP3 ADD MSTORE POP JUMP JUMPDEST PUSH0 PUSH2 0x1A55 PUSH1 0x20 DUP4 PUSH2 0x12D7 JUMP JUMPDEST SWAP2 POP PUSH2 0x1A60 DUP3 PUSH2 0x1A21 JUMP JUMPDEST PUSH1 0x20 DUP3 ADD SWAP1 POP SWAP2 SWAP1 POP JUMP JUMPDEST PUSH0 PUSH1 0x20 DUP3 ADD SWAP1 POP DUP2 DUP2 SUB PUSH0 DUP4 ADD MSTORE PUSH2 0x1A82 DUP2 PUSH2 0x1A49 JUMP JUMPDEST SWAP1 POP SWAP2 SWAP1 POP JUMP JUMPDEST PUSH0 DUP2 PUSH1 0x60 SHL SWAP1 POP SWAP2 SWAP1 POP JUMP JUMPDEST PUSH0 PUSH2 0x1A9F DUP3 PUSH2 0x1A89 JUMP JUMPDEST SWAP1 POP SWAP2 SWAP1 POP JUMP JUMPDEST PUSH0 PUSH2 0x1AB0 DUP3 PUSH2 0x1A95 JUMP JUMPDEST SWAP1 POP SWAP2 SWAP1 POP JUMP JUMPDEST PUSH2 0x1AC8 PUSH2 0x1AC3 DUP3 PUSH2 0x1036 JUMP JUMPDEST PUSH2 0x1AA6 JUMP JUMPDEST DUP3 MSTORE POP POP JUMP JUMPDEST PUSH0 PUSH2 0x1AD9 DUP3 DUP5 PUSH2 0x1AB7 JUMP JUMPDEST PUSH1 0x14 DUP3 ADD SWAP2 POP DUP2 SWAP1 POP SWAP3 SWAP2 POP POP JUMP JUMPDEST PUSH32 0x4E487B7100000000000000000000000000000000000000000000000000000000 PUSH0 MSTORE PUSH1 0x32 PUSH1 0x4 MSTORE PUSH1 0x24 PUSH0 REVERT JUMPDEST PUSH0 PUSH2 0x1B1F DUP3 PUSH2 0xFE6 JUMP JUMPDEST SWAP2 POP PUSH32 0xFFFFFFFFFFFFFFFFFFFFFFFFFFFFFFFFFFFFFFFFFFFFFFFFFFFFFFFFFFFFFFFF DUP3 SUB PUSH2 0x1B51 JUMPI PUSH2 0x1B50 PUSH2 0x15CB JUMP JUMPDEST JUMPDEST PUSH1 0x1 DUP3 ADD SWAP1 POP SWAP2 SWAP1 POP JUMP INVALID LOG2 PUSH5 0x6970667358 0x22 SLT KECCAK256 0xB5 CREATE2 DUP14 PUSH31 0x8A88970CEBF2E6A594B556DA0D007709989C94AC8E2E38DA4F252EFE64736F PUSH13 0x63430008140033000000000000 "
				},
				"gasEstimates": {
					"creation": {
						"codeDepositCost": "1411600",
						"executionCost": "infinite",
						"totalCost": "infinite"
					},
					"external": {
						"FEE_BPS()": "391",
						"MAX_REDEEM_PER_WALLET()": "347",
						"ROUND_DELAY()": "369",
						"WALLET_RESET_INTERVAL()": "371",
						"currentRound()": "2492",
						"isLocked()": "2577",
						"lastRedeemTimestamp(address)": "2847",
						"lock(bool)": "26958",
						"merkleRoot()": "2515",
						"owner()": "2604",
						"redeem(address,uint256,bytes32[])": "infinite",
						"redeemedInRound(uint256,address)": "infinite",
						"refundToken()": "2575",
						"renounceOwnership()": "30501",
						"roundFunds()": "2514",
						"roundStart()": "2537",
						"setMerkleRoot(bytes32)": "24821",
						"setRefundToken(address)": "27064",
						"startNewRound(uint256)": "infinite",
						"transferOwnership(address)": "30841"
					},
					"internal": {
						"_resetIfNeeded(address)": "infinite",
						"_verifyWhitelist(address,bytes32[] calldata)": "infinite"
					}
				},
				"methodIdentifiers": {
					"FEE_BPS()": "bf333f2c",
					"MAX_REDEEM_PER_WALLET()": "aa91d81c",
					"ROUND_DELAY()": "ad655ef6",
					"WALLET_RESET_INTERVAL()": "1073e2a7",
					"currentRound()": "8a19c8bc",
					"isLocked()": "a4e2d634",
					"lastRedeemTimestamp(address)": "589db8d4",
					"lock(bool)": "0dd0a042",
					"merkleRoot()": "2eb4a7ab",
					"owner()": "8da5cb5b",
					"redeem(address,uint256,bytes32[])": "14132f48",
					"redeemedInRound(uint256,address)": "73a1a252",
					"refundToken()": "5cb732be",
					"renounceOwnership()": "715018a6",
					"roundFunds()": "620d025c",
					"roundStart()": "40365852",
					"setMerkleRoot(bytes32)": "7cb64759",
					"setRefundToken(address)": "e10de678",
					"startNewRound(uint256)": "4615102c",
					"transferOwnership(address)": "f2fde38b"
				}
			},
			"storageLayout": {
				"storage": [
					{
						"astId": 379,
						"contract": "contracts/RecoveryPegRate.sol:RecoveryPegRate",
						"label": "_owner",
						"offset": 0,
						"slot": "0",
						"type": "t_address"
					},
					{
						"astId": 51,
						"contract": "contracts/RecoveryPegRate.sol:RecoveryPegRate",
						"label": "refundToken",
						"offset": 0,
						"slot": "1",
						"type": "t_address"
					},
					{
						"astId": 53,
						"contract": "contracts/RecoveryPegRate.sol:RecoveryPegRate",
						"label": "merkleRoot",
						"offset": 0,
						"slot": "2",
						"type": "t_bytes32"
					},
					{
						"astId": 55,
						"contract": "contracts/RecoveryPegRate.sol:RecoveryPegRate",
						"label": "currentRound",
						"offset": 0,
						"slot": "3",
						"type": "t_uint256"
					},
					{
						"astId": 57,
						"contract": "contracts/RecoveryPegRate.sol:RecoveryPegRate",
						"label": "roundStart",
						"offset": 0,
						"slot": "4",
						"type": "t_uint256"
					},
					{
						"astId": 59,
						"contract": "contracts/RecoveryPegRate.sol:RecoveryPegRate",
						"label": "roundFunds",
						"offset": 0,
						"slot": "5",
						"type": "t_uint256"
					},
					{
						"astId": 61,
						"contract": "contracts/RecoveryPegRate.sol:RecoveryPegRate",
						"label": "isLocked",
						"offset": 0,
						"slot": "6",
						"type": "t_bool"
					},
					{
						"astId": 67,
						"contract": "contracts/RecoveryPegRate.sol:RecoveryPegRate",
						"label": "redeemedInRound",
						"offset": 0,
						"slot": "7",
						"type": "t_mapping(t_uint256,t_mapping(t_address,t_uint256))"
					},
					{
						"astId": 71,
						"contract": "contracts/RecoveryPegRate.sol:RecoveryPegRate",
						"label": "lastRedeemTimestamp",
						"offset": 0,
						"slot": "8",
						"type": "t_mapping(t_address,t_uint256)"
					}
				],
				"types": {
					"t_address": {
						"encoding": "inplace",
						"label": "address",
						"numberOfBytes": "20"
					},
					"t_bool": {
						"encoding": "inplace",
						"label": "bool",
						"numberOfBytes": "1"
					},
					"t_bytes32": {
						"encoding": "inplace",
						"label": "bytes32",
						"numberOfBytes": "32"
					},
					"t_mapping(t_address,t_uint256)": {
						"encoding": "mapping",
						"key": "t_address",
						"label": "mapping(address => uint256)",
						"numberOfBytes": "32",
						"value": "t_uint256"
					},
					"t_mapping(t_uint256,t_mapping(t_address,t_uint256))": {
						"encoding": "mapping",
						"key": "t_uint256",
						"label": "mapping(uint256 => mapping(address => uint256))",
						"numberOfBytes": "32",
						"value": "t_mapping(t_address,t_uint256)"
					},
					"t_uint256": {
						"encoding": "inplace",
						"label": "uint256",
						"numberOfBytes": "32"
					}
				}
			},
			"userdoc": {
				"kind": "user",
				"methods": {},
				"version": 1
			}
		}
	}
}