{
	"contracts/RecoveryVault.sol": {
		"RecoveryVault": {
			"abi": [
				{
					"inputs": [
						{
							"internalType": "address",
							"name": "_owner",
							"type": "address"
						},
						{
							"internalType": "address",
							"name": "_devWallet",
							"type": "address"
						},
						{
							"internalType": "address",
							"name": "_rmcWallet",
							"type": "address"
						},
						{
							"internalType": "address[]",
							"name": "_supportedTokens",
							"type": "address[]"
						},
						{
							"internalType": "uint256",
							"name": "_dailyLimitUsd",
							"type": "uint256"
						},
						{
							"internalType": "address",
							"name": "_oracle",
							"type": "address"
						}
					],
					"stateMutability": "nonpayable",
					"type": "constructor"
				},
				{
					"anonymous": false,
					"inputs": [
						{
							"indexed": true,
							"internalType": "address",
							"name": "tokenIn",
							"type": "address"
						},
						{
							"indexed": false,
							"internalType": "uint256",
							"name": "amountIn",
							"type": "uint256"
						},
						{
							"indexed": false,
							"internalType": "address",
							"name": "refundToken",
							"type": "address"
						},
						{
							"indexed": false,
							"internalType": "uint256",
							"name": "amountOut",
							"type": "uint256"
						}
					],
					"name": "BurnToken",
					"type": "event"
				},
				{
					"anonymous": false,
					"inputs": [
						{
							"indexed": false,
							"internalType": "uint256",
							"name": "roundId",
							"type": "uint256"
						},
						{
							"indexed": false,
							"internalType": "uint256",
							"name": "availableFunds",
							"type": "uint256"
						},
						{
							"indexed": false,
							"internalType": "uint256",
							"name": "startTime",
							"type": "uint256"
						}
					],
					"name": "NewRoundStarted",
					"type": "event"
				},
				{
					"anonymous": false,
					"inputs": [
						{
							"indexed": true,
							"internalType": "address",
							"name": "previousOwner",
							"type": "address"
						},
						{
							"indexed": true,
							"internalType": "address",
							"name": "newOwner",
							"type": "address"
						}
					],
					"name": "OwnershipTransferred",
					"type": "event"
				},
				{
					"anonymous": false,
					"inputs": [
						{
							"indexed": true,
							"internalType": "address",
							"name": "user",
							"type": "address"
						},
						{
							"indexed": true,
							"internalType": "address",
							"name": "tokenIn",
							"type": "address"
						},
						{
							"indexed": false,
							"internalType": "uint256",
							"name": "amountIn",
							"type": "uint256"
						},
						{
							"indexed": false,
							"internalType": "uint256",
							"name": "amountOut",
							"type": "uint256"
						}
					],
					"name": "RedeemProcessed",
					"type": "event"
				},
				{
					"anonymous": false,
					"inputs": [
						{
							"indexed": false,
							"internalType": "bool",
							"name": "isPaused",
							"type": "bool"
						}
					],
					"name": "VaultPaused",
					"type": "event"
				},
				{
					"inputs": [],
					"name": "ROUND_DELAY",
					"outputs": [
						{
							"internalType": "uint256",
							"name": "",
							"type": "uint256"
						}
					],
					"stateMutability": "view",
					"type": "function"
				},
				{
					"inputs": [],
					"name": "WALLET_RESET_INTERVAL",
					"outputs": [
						{
							"internalType": "uint256",
							"name": "",
							"type": "uint256"
						}
					],
					"stateMutability": "view",
					"type": "function"
				},
				{
					"inputs": [],
					"name": "currentRound",
					"outputs": [
						{
							"internalType": "uint256",
							"name": "",
							"type": "uint256"
						}
					],
					"stateMutability": "view",
					"type": "function"
				},
				{
					"inputs": [],
					"name": "dailyLimitUsd",
					"outputs": [
						{
							"internalType": "uint256",
							"name": "",
							"type": "uint256"
						}
					],
					"stateMutability": "view",
					"type": "function"
				},
				{
					"inputs": [],
					"name": "devWallet",
					"outputs": [
						{
							"internalType": "address",
							"name": "",
							"type": "address"
						}
					],
					"stateMutability": "view",
					"type": "function"
				},
				{
					"inputs": [
						{
							"internalType": "address",
							"name": "wallet",
							"type": "address"
						}
					],
					"name": "getUserLimit",
					"outputs": [
						{
							"internalType": "uint256",
							"name": "remainingUSD",
							"type": "uint256"
						}
					],
					"stateMutability": "view",
					"type": "function"
				},
				{
					"inputs": [],
					"name": "isLocked",
					"outputs": [
						{
							"internalType": "bool",
							"name": "",
							"type": "bool"
						}
					],
					"stateMutability": "view",
					"type": "function"
				},
				{
					"inputs": [
						{
							"internalType": "address",
							"name": "",
							"type": "address"
						}
					],
					"name": "lastRedeemTimestamp",
					"outputs": [
						{
							"internalType": "uint256",
							"name": "",
							"type": "uint256"
						}
					],
					"stateMutability": "view",
					"type": "function"
				},
				{
					"inputs": [],
					"name": "merkleRoot",
					"outputs": [
						{
							"internalType": "bytes32",
							"name": "",
							"type": "bytes32"
						}
					],
					"stateMutability": "view",
					"type": "function"
				},
				{
					"inputs": [],
					"name": "oracle",
					"outputs": [
						{
							"internalType": "contract IOracle",
							"name": "",
							"type": "address"
						}
					],
					"stateMutability": "view",
					"type": "function"
				},
				{
					"inputs": [],
					"name": "owner",
					"outputs": [
						{
							"internalType": "address",
							"name": "",
							"type": "address"
						}
					],
					"stateMutability": "view",
					"type": "function"
				},
				{
					"inputs": [
						{
							"internalType": "address",
							"name": "tokenIn",
							"type": "address"
						},
						{
							"internalType": "uint256",
							"name": "amountIn",
							"type": "uint256"
						},
						{
							"internalType": "bytes32[]",
							"name": "proof",
							"type": "bytes32[]"
						}
					],
					"name": "redeem",
					"outputs": [],
					"stateMutability": "nonpayable",
					"type": "function"
				},
				{
					"inputs": [
						{
							"internalType": "uint256",
							"name": "",
							"type": "uint256"
						},
						{
							"internalType": "address",
							"name": "",
							"type": "address"
						}
					],
					"name": "redeemedInRound",
					"outputs": [
						{
							"internalType": "uint256",
							"name": "",
							"type": "uint256"
						}
					],
					"stateMutability": "view",
					"type": "function"
				},
				{
					"inputs": [],
					"name": "renounceOwnership",
					"outputs": [],
					"stateMutability": "nonpayable",
					"type": "function"
				},
				{
					"inputs": [],
					"name": "rmcWallet",
					"outputs": [
						{
							"internalType": "address",
							"name": "",
							"type": "address"
						}
					],
					"stateMutability": "view",
					"type": "function"
				},
				{
					"inputs": [],
					"name": "roundFunds",
					"outputs": [
						{
							"internalType": "uint256",
							"name": "",
							"type": "uint256"
						}
					],
					"stateMutability": "view",
					"type": "function"
				},
				{
					"inputs": [],
					"name": "roundStart",
					"outputs": [
						{
							"internalType": "uint256",
							"name": "",
							"type": "uint256"
						}
					],
					"stateMutability": "view",
					"type": "function"
				},
				{
					"inputs": [
						{
							"internalType": "uint256",
							"name": "usdAmount",
							"type": "uint256"
						}
					],
					"name": "setDailyLimit",
					"outputs": [],
					"stateMutability": "nonpayable",
					"type": "function"
				},
				{
					"inputs": [
						{
							"internalType": "bool",
							"name": "_status",
							"type": "bool"
						}
					],
					"name": "setLocked",
					"outputs": [],
					"stateMutability": "nonpayable",
					"type": "function"
				},
				{
					"inputs": [
						{
							"internalType": "bytes32",
							"name": "_root",
							"type": "bytes32"
						}
					],
					"name": "setMerkleRoot",
					"outputs": [],
					"stateMutability": "nonpayable",
					"type": "function"
				},
				{
					"inputs": [
						{
							"internalType": "address",
							"name": "_oracle",
							"type": "address"
						}
					],
					"name": "setOracle",
					"outputs": [],
					"stateMutability": "nonpayable",
					"type": "function"
				},
				{
					"inputs": [
						{
							"internalType": "address",
							"name": "token",
							"type": "address"
						},
						{
							"internalType": "bool",
							"name": "allowed",
							"type": "bool"
						}
					],
					"name": "setSupportedToken",
					"outputs": [],
					"stateMutability": "nonpayable",
					"type": "function"
				},
				{
					"inputs": [
						{
							"internalType": "uint256",
							"name": "_roundId",
							"type": "uint256"
						}
					],
					"name": "startNewRound",
					"outputs": [],
					"stateMutability": "nonpayable",
					"type": "function"
				},
				{
					"inputs": [
						{
							"internalType": "address",
							"name": "",
							"type": "address"
						}
					],
					"name": "supportedToken",
					"outputs": [
						{
							"internalType": "bool",
							"name": "",
							"type": "bool"
						}
					],
					"stateMutability": "view",
					"type": "function"
				},
				{
					"inputs": [
						{
							"internalType": "address",
							"name": "newOwner",
							"type": "address"
						}
					],
					"name": "transferOwnership",
					"outputs": [],
					"stateMutability": "nonpayable",
					"type": "function"
				},
				{
					"inputs": [],
					"name": "wONE",
					"outputs": [
						{
							"internalType": "address",
							"name": "",
							"type": "address"
						}
					],
					"stateMutability": "view",
					"type": "function"
				},
				{
					"inputs": [],
					"name": "withdrawFunds",
					"outputs": [],
					"stateMutability": "nonpayable",
					"type": "function"
				}
			],
			"devdoc": {
				"kind": "dev",
				"methods": {
					"owner()": {
						"details": "Returns the address of the current owner."
					},
					"renounceOwnership()": {
						"details": "Leaves the contract without owner. It will not be possible to call `onlyOwner` functions. Can only be called by the current owner. NOTE: Renouncing ownership will leave the contract without an owner, thereby disabling any functionality that is only available to the owner."
					},
					"transferOwnership(address)": {
						"details": "Transfers ownership of the contract to a new account (`newOwner`). Can only be called by the current owner."
					}
				},
				"version": 1
			},
			"evm": {
				"assembly": "    /* \"contracts/RecoveryVault.sol\":596:6557  contract RecoveryVault is Ownable {... */\n  mstore(0x40, 0xa0)\n    /* \"contracts/RecoveryVault.sol\":1987:2572  constructor(... */\n  callvalue\n  dup1\n  iszero\n  tag_1\n  jumpi\n  0x00\n  dup1\n  revert\ntag_1:\n  pop\n  mload(0x40)\n  sub(codesize, bytecodeSize)\n  dup1\n  bytecodeSize\n  dup4\n  codecopy\n  dup2\n  dup2\n  add\n  0x40\n  mstore\n  dup2\n  add\n  swap1\n  tag_2\n  swap2\n  swap1\n  tag_3\n  jump\t// in\ntag_2:\n    /* \"https://raw.githubusercontent.com/OpenZeppelin/openzeppelin-contracts/refs/tags/v4.9.3/contracts/access/Ownable.sol\":936:968  _transferOwnership(_msgSender()) */\n  tag_7\n    /* \"https://raw.githubusercontent.com/OpenZeppelin/openzeppelin-contracts/refs/tags/v4.9.3/contracts/access/Ownable.sol\":955:967  _msgSender() */\n  tag_8\n    /* \"https://raw.githubusercontent.com/OpenZeppelin/openzeppelin-contracts/refs/tags/v4.9.3/contracts/access/Ownable.sol\":955:965  _msgSender */\n  shl(0x20, tag_9)\n    /* \"https://raw.githubusercontent.com/OpenZeppelin/openzeppelin-contracts/refs/tags/v4.9.3/contracts/access/Ownable.sol\":955:967  _msgSender() */\n  0x20\n  shr\n  jump\t// in\ntag_8:\n    /* \"https://raw.githubusercontent.com/OpenZeppelin/openzeppelin-contracts/refs/tags/v4.9.3/contracts/access/Ownable.sol\":936:954  _transferOwnership */\n  shl(0x20, tag_10)\n    /* \"https://raw.githubusercontent.com/OpenZeppelin/openzeppelin-contracts/refs/tags/v4.9.3/contracts/access/Ownable.sol\":936:968  _transferOwnership(_msgSender()) */\n  0x20\n  shr\n  jump\t// in\ntag_7:\n    /* \"contracts/RecoveryVault.sol\":2203:2229  _transferOwnership(_owner) */\n  tag_12\n    /* \"contracts/RecoveryVault.sol\":2222:2228  _owner */\n  dup7\n    /* \"contracts/RecoveryVault.sol\":2203:2221  _transferOwnership */\n  shl(0x20, tag_10)\n    /* \"contracts/RecoveryVault.sol\":2203:2229  _transferOwnership(_owner) */\n  0x20\n  shr\n  jump\t// in\ntag_12:\n    /* \"contracts/RecoveryVault.sol\":2252:2262  _devWallet */\n  dup5\n    /* \"contracts/RecoveryVault.sol\":2240:2249  devWallet */\n  0x01\n  0x00\n    /* \"contracts/RecoveryVault.sol\":2240:2262  devWallet = _devWallet */\n  0x0100\n  exp\n  dup2\n  sload\n  dup2\n  0xffffffffffffffffffffffffffffffffffffffff\n  mul\n  not\n  and\n  swap1\n  dup4\n  0xffffffffffffffffffffffffffffffffffffffff\n  and\n  mul\n  or\n  swap1\n  sstore\n  pop\n    /* \"contracts/RecoveryVault.sol\":2285:2295  _rmcWallet */\n  dup4\n    /* \"contracts/RecoveryVault.sol\":2273:2282  rmcWallet */\n  0x02\n  0x00\n    /* \"contracts/RecoveryVault.sol\":2273:2295  rmcWallet = _rmcWallet */\n  0x0100\n  exp\n  dup2\n  sload\n  dup2\n  0xffffffffffffffffffffffffffffffffffffffff\n  mul\n  not\n  and\n  swap1\n  dup4\n  0xffffffffffffffffffffffffffffffffffffffff\n  and\n  mul\n  or\n  swap1\n  sstore\n  pop\n    /* \"contracts/RecoveryVault.sol\":2313:2355  0xcF664087a5bB0237a0BAd6742852ec6c8d69A27a */\n  0xcf664087a5bb0237a0bad6742852ec6c8d69a27a\n    /* \"contracts/RecoveryVault.sol\":2306:2355  wONE = 0xcF664087a5bB0237a0BAd6742852ec6c8d69A27a */\n  0xffffffffffffffffffffffffffffffffffffffff\n  and\n  0x80\n  dup2\n  0xffffffffffffffffffffffffffffffffffffffff\n  and\n  dup2\n  mstore\n  pop\n  pop\n    /* \"contracts/RecoveryVault.sol\":2382:2396  _dailyLimitUsd */\n  dup2\n    /* \"contracts/RecoveryVault.sol\":2366:2379  dailyLimitUsd */\n  0x07\n    /* \"contracts/RecoveryVault.sol\":2366:2396  dailyLimitUsd = _dailyLimitUsd */\n  dup2\n  swap1\n  sstore\n  pop\n    /* \"contracts/RecoveryVault.sol\":2424:2431  _oracle */\n  dup1\n    /* \"contracts/RecoveryVault.sol\":2407:2413  oracle */\n  0x08\n  0x01\n    /* \"contracts/RecoveryVault.sol\":2407:2432  oracle = IOracle(_oracle) */\n  0x0100\n  exp\n  dup2\n  sload\n  dup2\n  0xffffffffffffffffffffffffffffffffffffffff\n  mul\n  not\n  and\n  swap1\n  dup4\n  0xffffffffffffffffffffffffffffffffffffffff\n  and\n  mul\n  or\n  swap1\n  sstore\n  pop\n    /* \"contracts/RecoveryVault.sol\":2450:2456  uint i */\n  0x00\n    /* \"contracts/RecoveryVault.sol\":2445:2565  for (uint i = 0; i < _supportedTokens.length; i++) {... */\ntag_13:\n    /* \"contracts/RecoveryVault.sol\":2466:2482  _supportedTokens */\n  dup4\n    /* \"contracts/RecoveryVault.sol\":2466:2489  _supportedTokens.length */\n  mload\n    /* \"contracts/RecoveryVault.sol\":2462:2463  i */\n  dup2\n    /* \"contracts/RecoveryVault.sol\":2462:2489  i < _supportedTokens.length */\n  lt\n    /* \"contracts/RecoveryVault.sol\":2445:2565  for (uint i = 0; i < _supportedTokens.length; i++) {... */\n  iszero\n  tag_14\n  jumpi\n    /* \"contracts/RecoveryVault.sol\":2549:2553  true */\n  0x01\n    /* \"contracts/RecoveryVault.sol\":2511:2525  supportedToken */\n  0x09\n    /* \"contracts/RecoveryVault.sol\":2511:2546  supportedToken[_supportedTokens[i]] */\n  0x00\n    /* \"contracts/RecoveryVault.sol\":2526:2542  _supportedTokens */\n  dup7\n    /* \"contracts/RecoveryVault.sol\":2543:2544  i */\n  dup5\n    /* \"contracts/RecoveryVault.sol\":2526:2545  _supportedTokens[i] */\n  dup2\n  mload\n  dup2\n  lt\n  tag_16\n  jumpi\n  tag_17\n  tag_18\n  jump\t// in\ntag_17:\ntag_16:\n  0x20\n  mul\n  0x20\n  add\n  add\n  mload\n    /* \"contracts/RecoveryVault.sol\":2511:2546  supportedToken[_supportedTokens[i]] */\n  0xffffffffffffffffffffffffffffffffffffffff\n  and\n  0xffffffffffffffffffffffffffffffffffffffff\n  and\n  dup2\n  mstore\n  0x20\n  add\n  swap1\n  dup2\n  mstore\n  0x20\n  add\n  0x00\n  keccak256\n  0x00\n    /* \"contracts/RecoveryVault.sol\":2511:2553  supportedToken[_supportedTokens[i]] = true */\n  0x0100\n  exp\n  dup2\n  sload\n  dup2\n  0xff\n  mul\n  not\n  and\n  swap1\n  dup4\n  iszero\n  iszero\n  mul\n  or\n  swap1\n  sstore\n  pop\n    /* \"contracts/RecoveryVault.sol\":2491:2494  i++ */\n  dup1\n  dup1\n  tag_19\n  swap1\n  tag_20\n  jump\t// in\ntag_19:\n  swap2\n  pop\n  pop\n    /* \"contracts/RecoveryVault.sol\":2445:2565  for (uint i = 0; i < _supportedTokens.length; i++) {... */\n  jump(tag_13)\ntag_14:\n  pop\n    /* \"contracts/RecoveryVault.sol\":1987:2572  constructor(... */\n  pop\n  pop\n  pop\n  pop\n  pop\n  pop\n    /* \"contracts/RecoveryVault.sol\":596:6557  contract RecoveryVault is Ownable {... */\n  jump(tag_21)\n    /* \"https://raw.githubusercontent.com/OpenZeppelin/openzeppelin-contracts/refs/tags/v4.9.3/contracts/utils/Context.sol\":640:736  function _msgSender() internal view virtual returns (address) {... */\ntag_9:\n    /* \"https://raw.githubusercontent.com/OpenZeppelin/openzeppelin-contracts/refs/tags/v4.9.3/contracts/utils/Context.sol\":693:700  address */\n  0x00\n    /* \"https://raw.githubusercontent.com/OpenZeppelin/openzeppelin-contracts/refs/tags/v4.9.3/contracts/utils/Context.sol\":719:729  msg.sender */\n  caller\n    /* \"https://raw.githubusercontent.com/OpenZeppelin/openzeppelin-contracts/refs/tags/v4.9.3/contracts/utils/Context.sol\":712:729  return msg.sender */\n  swap1\n  pop\n    /* \"https://raw.githubusercontent.com/OpenZeppelin/openzeppelin-contracts/refs/tags/v4.9.3/contracts/utils/Context.sol\":640:736  function _msgSender() internal view virtual returns (address) {... */\n  swap1\n  jump\t// out\n    /* \"https://raw.githubusercontent.com/OpenZeppelin/openzeppelin-contracts/refs/tags/v4.9.3/contracts/access/Ownable.sol\":2426:2613  function _transferOwnership(address newOwner) internal virtual {... */\ntag_10:\n    /* \"https://raw.githubusercontent.com/OpenZeppelin/openzeppelin-contracts/refs/tags/v4.9.3/contracts/access/Ownable.sol\":2499:2515  address oldOwner */\n  0x00\n    /* \"https://raw.githubusercontent.com/OpenZeppelin/openzeppelin-contracts/refs/tags/v4.9.3/contracts/access/Ownable.sol\":2518:2524  _owner */\n  dup1\n  0x00\n  swap1\n  sload\n  swap1\n  0x0100\n  exp\n  swap1\n  div\n  0xffffffffffffffffffffffffffffffffffffffff\n  and\n    /* \"https://raw.githubusercontent.com/OpenZeppelin/openzeppelin-contracts/refs/tags/v4.9.3/contracts/access/Ownable.sol\":2499:2524  address oldOwner = _owner */\n  swap1\n  pop\n    /* \"https://raw.githubusercontent.com/OpenZeppelin/openzeppelin-contracts/refs/tags/v4.9.3/contracts/access/Ownable.sol\":2543:2551  newOwner */\n  dup2\n    /* \"https://raw.githubusercontent.com/OpenZeppelin/openzeppelin-contracts/refs/tags/v4.9.3/contracts/access/Ownable.sol\":2534:2540  _owner */\n  0x00\n  dup1\n    /* \"https://raw.githubusercontent.com/OpenZeppelin/openzeppelin-contracts/refs/tags/v4.9.3/contracts/access/Ownable.sol\":2534:2551  _owner = newOwner */\n  0x0100\n  exp\n  dup2\n  sload\n  dup2\n  0xffffffffffffffffffffffffffffffffffffffff\n  mul\n  not\n  and\n  swap1\n  dup4\n  0xffffffffffffffffffffffffffffffffffffffff\n  and\n  mul\n  or\n  swap1\n  sstore\n  pop\n    /* \"https://raw.githubusercontent.com/OpenZeppelin/openzeppelin-contracts/refs/tags/v4.9.3/contracts/access/Ownable.sol\":2597:2605  newOwner */\n  dup2\n    /* \"https://raw.githubusercontent.com/OpenZeppelin/openzeppelin-contracts/refs/tags/v4.9.3/contracts/access/Ownable.sol\":2566:2606  OwnershipTransferred(oldOwner, newOwner) */\n  0xffffffffffffffffffffffffffffffffffffffff\n  and\n    /* \"https://raw.githubusercontent.com/OpenZeppelin/openzeppelin-contracts/refs/tags/v4.9.3/contracts/access/Ownable.sol\":2587:2595  oldOwner */\n  dup2\n    /* \"https://raw.githubusercontent.com/OpenZeppelin/openzeppelin-contracts/refs/tags/v4.9.3/contracts/access/Ownable.sol\":2566:2606  OwnershipTransferred(oldOwner, newOwner) */\n  0xffffffffffffffffffffffffffffffffffffffff\n  and\n  0x8be0079c531659141344cd1fd0a4f28419497f9722a3daafe3b4186f6b6457e0\n  mload(0x40)\n  mload(0x40)\n  dup1\n  swap2\n  sub\n  swap1\n  log3\n    /* \"https://raw.githubusercontent.com/OpenZeppelin/openzeppelin-contracts/refs/tags/v4.9.3/contracts/access/Ownable.sol\":2489:2613  {... */\n  pop\n    /* \"https://raw.githubusercontent.com/OpenZeppelin/openzeppelin-contracts/refs/tags/v4.9.3/contracts/access/Ownable.sol\":2426:2613  function _transferOwnership(address newOwner) internal virtual {... */\n  pop\n  jump\t// out\n    /* \"#utility.yul\":7:82   */\ntag_24:\n    /* \"#utility.yul\":40:46   */\n  0x00\n    /* \"#utility.yul\":73:75   */\n  0x40\n    /* \"#utility.yul\":67:76   */\n  mload\n    /* \"#utility.yul\":57:76   */\n  swap1\n  pop\n    /* \"#utility.yul\":7:82   */\n  swap1\n  jump\t// out\n    /* \"#utility.yul\":88:205   */\ntag_25:\n    /* \"#utility.yul\":197:198   */\n  0x00\n    /* \"#utility.yul\":194:195   */\n  dup1\n    /* \"#utility.yul\":187:199   */\n  revert\n    /* \"#utility.yul\":211:328   */\ntag_26:\n    /* \"#utility.yul\":320:321   */\n  0x00\n    /* \"#utility.yul\":317:318   */\n  dup1\n    /* \"#utility.yul\":310:322   */\n  revert\n    /* \"#utility.yul\":334:460   */\ntag_27:\n    /* \"#utility.yul\":371:378   */\n  0x00\n    /* \"#utility.yul\":411:453   */\n  0xffffffffffffffffffffffffffffffffffffffff\n    /* \"#utility.yul\":404:409   */\n  dup3\n    /* \"#utility.yul\":400:454   */\n  and\n    /* \"#utility.yul\":389:454   */\n  swap1\n  pop\n    /* \"#utility.yul\":334:460   */\n  swap2\n  swap1\n  pop\n  jump\t// out\n    /* \"#utility.yul\":466:562   */\ntag_28:\n    /* \"#utility.yul\":503:510   */\n  0x00\n    /* \"#utility.yul\":532:556   */\n  tag_50\n    /* \"#utility.yul\":550:555   */\n  dup3\n    /* \"#utility.yul\":532:556   */\n  tag_27\n  jump\t// in\ntag_50:\n    /* \"#utility.yul\":521:556   */\n  swap1\n  pop\n    /* \"#utility.yul\":466:562   */\n  swap2\n  swap1\n  pop\n  jump\t// out\n    /* \"#utility.yul\":568:690   */\ntag_29:\n    /* \"#utility.yul\":641:665   */\n  tag_52\n    /* \"#utility.yul\":659:664   */\n  dup2\n    /* \"#utility.yul\":641:665   */\n  tag_28\n  jump\t// in\ntag_52:\n    /* \"#utility.yul\":634:639   */\n  dup2\n    /* \"#utility.yul\":631:666   */\n  eq\n    /* \"#utility.yul\":621:684   */\n  tag_53\n  jumpi\n    /* \"#utility.yul\":680:681   */\n  0x00\n    /* \"#utility.yul\":677:678   */\n  dup1\n    /* \"#utility.yul\":670:682   */\n  revert\n    /* \"#utility.yul\":621:684   */\ntag_53:\n    /* \"#utility.yul\":568:690   */\n  pop\n  jump\t// out\n    /* \"#utility.yul\":696:839   */\ntag_30:\n    /* \"#utility.yul\":753:758   */\n  0x00\n    /* \"#utility.yul\":784:790   */\n  dup2\n    /* \"#utility.yul\":778:791   */\n  mload\n    /* \"#utility.yul\":769:791   */\n  swap1\n  pop\n    /* \"#utility.yul\":800:833   */\n  tag_55\n    /* \"#utility.yul\":827:832   */\n  dup2\n    /* \"#utility.yul\":800:833   */\n  tag_29\n  jump\t// in\ntag_55:\n    /* \"#utility.yul\":696:839   */\n  swap3\n  swap2\n  pop\n  pop\n  jump\t// out\n    /* \"#utility.yul\":845:962   */\ntag_31:\n    /* \"#utility.yul\":954:955   */\n  0x00\n    /* \"#utility.yul\":951:952   */\n  dup1\n    /* \"#utility.yul\":944:956   */\n  revert\n    /* \"#utility.yul\":968:1070   */\ntag_32:\n    /* \"#utility.yul\":1009:1015   */\n  0x00\n    /* \"#utility.yul\":1060:1062   */\n  0x1f\n    /* \"#utility.yul\":1056:1063   */\n  not\n    /* \"#utility.yul\":1051:1053   */\n  0x1f\n    /* \"#utility.yul\":1044:1049   */\n  dup4\n    /* \"#utility.yul\":1040:1054   */\n  add\n    /* \"#utility.yul\":1036:1064   */\n  and\n    /* \"#utility.yul\":1026:1064   */\n  swap1\n  pop\n    /* \"#utility.yul\":968:1070   */\n  swap2\n  swap1\n  pop\n  jump\t// out\n    /* \"#utility.yul\":1076:1256   */\ntag_33:\n    /* \"#utility.yul\":1124:1201   */\n  0x4e487b7100000000000000000000000000000000000000000000000000000000\n    /* \"#utility.yul\":1121:1122   */\n  0x00\n    /* \"#utility.yul\":1114:1202   */\n  mstore\n    /* \"#utility.yul\":1221:1225   */\n  0x41\n    /* \"#utility.yul\":1218:1219   */\n  0x04\n    /* \"#utility.yul\":1211:1226   */\n  mstore\n    /* \"#utility.yul\":1245:1249   */\n  0x24\n    /* \"#utility.yul\":1242:1243   */\n  0x00\n    /* \"#utility.yul\":1235:1250   */\n  revert\n    /* \"#utility.yul\":1262:1543   */\ntag_34:\n    /* \"#utility.yul\":1345:1372   */\n  tag_60\n    /* \"#utility.yul\":1367:1371   */\n  dup3\n    /* \"#utility.yul\":1345:1372   */\n  tag_32\n  jump\t// in\ntag_60:\n    /* \"#utility.yul\":1337:1343   */\n  dup2\n    /* \"#utility.yul\":1333:1373   */\n  add\n    /* \"#utility.yul\":1475:1481   */\n  dup2\n    /* \"#utility.yul\":1463:1473   */\n  dup2\n    /* \"#utility.yul\":1460:1482   */\n  lt\n    /* \"#utility.yul\":1439:1457   */\n  0xffffffffffffffff\n    /* \"#utility.yul\":1427:1437   */\n  dup3\n    /* \"#utility.yul\":1424:1458   */\n  gt\n    /* \"#utility.yul\":1421:1483   */\n  or\n    /* \"#utility.yul\":1418:1506   */\n  iszero\n  tag_61\n  jumpi\n    /* \"#utility.yul\":1486:1504   */\n  tag_62\n  tag_33\n  jump\t// in\ntag_62:\n    /* \"#utility.yul\":1418:1506   */\ntag_61:\n    /* \"#utility.yul\":1526:1536   */\n  dup1\n    /* \"#utility.yul\":1522:1524   */\n  0x40\n    /* \"#utility.yul\":1515:1537   */\n  mstore\n    /* \"#utility.yul\":1305:1543   */\n  pop\n    /* \"#utility.yul\":1262:1543   */\n  pop\n  pop\n  jump\t// out\n    /* \"#utility.yul\":1549:1678   */\ntag_35:\n    /* \"#utility.yul\":1583:1589   */\n  0x00\n    /* \"#utility.yul\":1610:1630   */\n  tag_64\n  tag_24\n  jump\t// in\ntag_64:\n    /* \"#utility.yul\":1600:1630   */\n  swap1\n  pop\n    /* \"#utility.yul\":1639:1672   */\n  tag_65\n    /* \"#utility.yul\":1667:1671   */\n  dup3\n    /* \"#utility.yul\":1659:1665   */\n  dup3\n    /* \"#utility.yul\":1639:1672   */\n  tag_34\n  jump\t// in\ntag_65:\n    /* \"#utility.yul\":1549:1678   */\n  swap2\n  swap1\n  pop\n  jump\t// out\n    /* \"#utility.yul\":1684:1995   */\ntag_36:\n    /* \"#utility.yul\":1761:1765   */\n  0x00\n    /* \"#utility.yul\":1851:1869   */\n  0xffffffffffffffff\n    /* \"#utility.yul\":1843:1849   */\n  dup3\n    /* \"#utility.yul\":1840:1870   */\n  gt\n    /* \"#utility.yul\":1837:1893   */\n  iszero\n  tag_67\n  jumpi\n    /* \"#utility.yul\":1873:1891   */\n  tag_68\n  tag_33\n  jump\t// in\ntag_68:\n    /* \"#utility.yul\":1837:1893   */\ntag_67:\n    /* \"#utility.yul\":1923:1927   */\n  0x20\n    /* \"#utility.yul\":1915:1921   */\n  dup3\n    /* \"#utility.yul\":1911:1928   */\n  mul\n    /* \"#utility.yul\":1903:1928   */\n  swap1\n  pop\n    /* \"#utility.yul\":1983:1987   */\n  0x20\n    /* \"#utility.yul\":1977:1981   */\n  dup2\n    /* \"#utility.yul\":1973:1988   */\n  add\n    /* \"#utility.yul\":1965:1988   */\n  swap1\n  pop\n    /* \"#utility.yul\":1684:1995   */\n  swap2\n  swap1\n  pop\n  jump\t// out\n    /* \"#utility.yul\":2001:2118   */\ntag_37:\n    /* \"#utility.yul\":2110:2111   */\n  0x00\n    /* \"#utility.yul\":2107:2108   */\n  dup1\n    /* \"#utility.yul\":2100:2112   */\n  revert\n    /* \"#utility.yul\":2141:2873   */\ntag_38:\n    /* \"#utility.yul\":2248:2253   */\n  0x00\n    /* \"#utility.yul\":2273:2354   */\n  tag_71\n    /* \"#utility.yul\":2289:2353   */\n  tag_72\n    /* \"#utility.yul\":2346:2352   */\n  dup5\n    /* \"#utility.yul\":2289:2353   */\n  tag_36\n  jump\t// in\ntag_72:\n    /* \"#utility.yul\":2273:2354   */\n  tag_35\n  jump\t// in\ntag_71:\n    /* \"#utility.yul\":2264:2354   */\n  swap1\n  pop\n    /* \"#utility.yul\":2374:2379   */\n  dup1\n    /* \"#utility.yul\":2403:2409   */\n  dup4\n    /* \"#utility.yul\":2396:2401   */\n  dup3\n    /* \"#utility.yul\":2389:2410   */\n  mstore\n    /* \"#utility.yul\":2437:2441   */\n  0x20\n    /* \"#utility.yul\":2430:2435   */\n  dup3\n    /* \"#utility.yul\":2426:2442   */\n  add\n    /* \"#utility.yul\":2419:2442   */\n  swap1\n  pop\n    /* \"#utility.yul\":2490:2494   */\n  0x20\n    /* \"#utility.yul\":2482:2488   */\n  dup5\n    /* \"#utility.yul\":2478:2495   */\n  mul\n    /* \"#utility.yul\":2470:2476   */\n  dup4\n    /* \"#utility.yul\":2466:2496   */\n  add\n    /* \"#utility.yul\":2519:2522   */\n  dup6\n    /* \"#utility.yul\":2511:2517   */\n  dup2\n    /* \"#utility.yul\":2508:2523   */\n  gt\n    /* \"#utility.yul\":2505:2627   */\n  iszero\n  tag_73\n  jumpi\n    /* \"#utility.yul\":2538:2617   */\n  tag_74\n  tag_37\n  jump\t// in\ntag_74:\n    /* \"#utility.yul\":2505:2627   */\ntag_73:\n    /* \"#utility.yul\":2653:2659   */\n  dup4\n    /* \"#utility.yul\":2636:2867   */\ntag_75:\n    /* \"#utility.yul\":2670:2676   */\n  dup2\n    /* \"#utility.yul\":2665:2668   */\n  dup2\n    /* \"#utility.yul\":2662:2677   */\n  lt\n    /* \"#utility.yul\":2636:2867   */\n  iszero\n  tag_77\n  jumpi\n    /* \"#utility.yul\":2745:2748   */\n  dup1\n    /* \"#utility.yul\":2774:2822   */\n  tag_78\n    /* \"#utility.yul\":2818:2821   */\n  dup9\n    /* \"#utility.yul\":2806:2816   */\n  dup3\n    /* \"#utility.yul\":2774:2822   */\n  tag_30\n  jump\t// in\ntag_78:\n    /* \"#utility.yul\":2769:2772   */\n  dup5\n    /* \"#utility.yul\":2762:2823   */\n  mstore\n    /* \"#utility.yul\":2852:2856   */\n  0x20\n    /* \"#utility.yul\":2847:2850   */\n  dup5\n    /* \"#utility.yul\":2843:2857   */\n  add\n    /* \"#utility.yul\":2836:2857   */\n  swap4\n  pop\n    /* \"#utility.yul\":2712:2867   */\n  pop\n    /* \"#utility.yul\":2696:2700   */\n  0x20\n    /* \"#utility.yul\":2691:2694   */\n  dup2\n    /* \"#utility.yul\":2687:2701   */\n  add\n    /* \"#utility.yul\":2680:2701   */\n  swap1\n  pop\n    /* \"#utility.yul\":2636:2867   */\n  jump(tag_75)\ntag_77:\n    /* \"#utility.yul\":2640:2661   */\n  pop\n    /* \"#utility.yul\":2254:2873   */\n  pop\n  pop\n    /* \"#utility.yul\":2141:2873   */\n  swap4\n  swap3\n  pop\n  pop\n  pop\n  jump\t// out\n    /* \"#utility.yul\":2896:3281   */\ntag_39:\n    /* \"#utility.yul\":2978:2983   */\n  0x00\n    /* \"#utility.yul\":3027:3030   */\n  dup3\n    /* \"#utility.yul\":3020:3024   */\n  0x1f\n    /* \"#utility.yul\":3012:3018   */\n  dup4\n    /* \"#utility.yul\":3008:3025   */\n  add\n    /* \"#utility.yul\":3004:3031   */\n  slt\n    /* \"#utility.yul\":2994:3116   */\n  tag_80\n  jumpi\n    /* \"#utility.yul\":3035:3114   */\n  tag_81\n  tag_31\n  jump\t// in\ntag_81:\n    /* \"#utility.yul\":2994:3116   */\ntag_80:\n    /* \"#utility.yul\":3145:3151   */\n  dup2\n    /* \"#utility.yul\":3139:3152   */\n  mload\n    /* \"#utility.yul\":3170:3275   */\n  tag_82\n    /* \"#utility.yul\":3271:3274   */\n  dup5\n    /* \"#utility.yul\":3263:3269   */\n  dup3\n    /* \"#utility.yul\":3256:3260   */\n  0x20\n    /* \"#utility.yul\":3248:3254   */\n  dup7\n    /* \"#utility.yul\":3244:3261   */\n  add\n    /* \"#utility.yul\":3170:3275   */\n  tag_38\n  jump\t// in\ntag_82:\n    /* \"#utility.yul\":3161:3275   */\n  swap2\n  pop\n    /* \"#utility.yul\":2984:3281   */\n  pop\n    /* \"#utility.yul\":2896:3281   */\n  swap3\n  swap2\n  pop\n  pop\n  jump\t// out\n    /* \"#utility.yul\":3287:3364   */\ntag_40:\n    /* \"#utility.yul\":3324:3331   */\n  0x00\n    /* \"#utility.yul\":3353:3358   */\n  dup2\n    /* \"#utility.yul\":3342:3358   */\n  swap1\n  pop\n    /* \"#utility.yul\":3287:3364   */\n  swap2\n  swap1\n  pop\n  jump\t// out\n    /* \"#utility.yul\":3370:3492   */\ntag_41:\n    /* \"#utility.yul\":3443:3467   */\n  tag_85\n    /* \"#utility.yul\":3461:3466   */\n  dup2\n    /* \"#utility.yul\":3443:3467   */\n  tag_40\n  jump\t// in\ntag_85:\n    /* \"#utility.yul\":3436:3441   */\n  dup2\n    /* \"#utility.yul\":3433:3468   */\n  eq\n    /* \"#utility.yul\":3423:3486   */\n  tag_86\n  jumpi\n    /* \"#utility.yul\":3482:3483   */\n  0x00\n    /* \"#utility.yul\":3479:3480   */\n  dup1\n    /* \"#utility.yul\":3472:3484   */\n  revert\n    /* \"#utility.yul\":3423:3486   */\ntag_86:\n    /* \"#utility.yul\":3370:3492   */\n  pop\n  jump\t// out\n    /* \"#utility.yul\":3498:3641   */\ntag_42:\n    /* \"#utility.yul\":3555:3560   */\n  0x00\n    /* \"#utility.yul\":3586:3592   */\n  dup2\n    /* \"#utility.yul\":3580:3593   */\n  mload\n    /* \"#utility.yul\":3571:3593   */\n  swap1\n  pop\n    /* \"#utility.yul\":3602:3635   */\n  tag_88\n    /* \"#utility.yul\":3629:3634   */\n  dup2\n    /* \"#utility.yul\":3602:3635   */\n  tag_41\n  jump\t// in\ntag_88:\n    /* \"#utility.yul\":3498:3641   */\n  swap3\n  swap2\n  pop\n  pop\n  jump\t// out\n    /* \"#utility.yul\":3647:4984   */\ntag_3:\n    /* \"#utility.yul\":3787:3793   */\n  0x00\n    /* \"#utility.yul\":3795:3801   */\n  dup1\n    /* \"#utility.yul\":3803:3809   */\n  0x00\n    /* \"#utility.yul\":3811:3817   */\n  dup1\n    /* \"#utility.yul\":3819:3825   */\n  0x00\n    /* \"#utility.yul\":3827:3833   */\n  dup1\n    /* \"#utility.yul\":3876:3879   */\n  0xc0\n    /* \"#utility.yul\":3864:3873   */\n  dup8\n    /* \"#utility.yul\":3855:3862   */\n  dup10\n    /* \"#utility.yul\":3851:3874   */\n  sub\n    /* \"#utility.yul\":3847:3880   */\n  slt\n    /* \"#utility.yul\":3844:3964   */\n  iszero\n  tag_90\n  jumpi\n    /* \"#utility.yul\":3883:3962   */\n  tag_91\n  tag_25\n  jump\t// in\ntag_91:\n    /* \"#utility.yul\":3844:3964   */\ntag_90:\n    /* \"#utility.yul\":4003:4004   */\n  0x00\n    /* \"#utility.yul\":4028:4092   */\n  tag_92\n    /* \"#utility.yul\":4084:4091   */\n  dup10\n    /* \"#utility.yul\":4075:4081   */\n  dup3\n    /* \"#utility.yul\":4064:4073   */\n  dup11\n    /* \"#utility.yul\":4060:4082   */\n  add\n    /* \"#utility.yul\":4028:4092   */\n  tag_30\n  jump\t// in\ntag_92:\n    /* \"#utility.yul\":4018:4092   */\n  swap7\n  pop\n    /* \"#utility.yul\":3974:4102   */\n  pop\n    /* \"#utility.yul\":4141:4143   */\n  0x20\n    /* \"#utility.yul\":4167:4231   */\n  tag_93\n    /* \"#utility.yul\":4223:4230   */\n  dup10\n    /* \"#utility.yul\":4214:4220   */\n  dup3\n    /* \"#utility.yul\":4203:4212   */\n  dup11\n    /* \"#utility.yul\":4199:4221   */\n  add\n    /* \"#utility.yul\":4167:4231   */\n  tag_30\n  jump\t// in\ntag_93:\n    /* \"#utility.yul\":4157:4231   */\n  swap6\n  pop\n    /* \"#utility.yul\":4112:4241   */\n  pop\n    /* \"#utility.yul\":4280:4282   */\n  0x40\n    /* \"#utility.yul\":4306:4370   */\n  tag_94\n    /* \"#utility.yul\":4362:4369   */\n  dup10\n    /* \"#utility.yul\":4353:4359   */\n  dup3\n    /* \"#utility.yul\":4342:4351   */\n  dup11\n    /* \"#utility.yul\":4338:4360   */\n  add\n    /* \"#utility.yul\":4306:4370   */\n  tag_30\n  jump\t// in\ntag_94:\n    /* \"#utility.yul\":4296:4370   */\n  swap5\n  pop\n    /* \"#utility.yul\":4251:4380   */\n  pop\n    /* \"#utility.yul\":4440:4442   */\n  0x60\n    /* \"#utility.yul\":4429:4438   */\n  dup8\n    /* \"#utility.yul\":4425:4443   */\n  add\n    /* \"#utility.yul\":4419:4444   */\n  mload\n    /* \"#utility.yul\":4471:4489   */\n  0xffffffffffffffff\n    /* \"#utility.yul\":4463:4469   */\n  dup2\n    /* \"#utility.yul\":4460:4490   */\n  gt\n    /* \"#utility.yul\":4457:4574   */\n  iszero\n  tag_95\n  jumpi\n    /* \"#utility.yul\":4493:4572   */\n  tag_96\n  tag_26\n  jump\t// in\ntag_96:\n    /* \"#utility.yul\":4457:4574   */\ntag_95:\n    /* \"#utility.yul\":4598:4687   */\n  tag_97\n    /* \"#utility.yul\":4679:4686   */\n  dup10\n    /* \"#utility.yul\":4670:4676   */\n  dup3\n    /* \"#utility.yul\":4659:4668   */\n  dup11\n    /* \"#utility.yul\":4655:4677   */\n  add\n    /* \"#utility.yul\":4598:4687   */\n  tag_39\n  jump\t// in\ntag_97:\n    /* \"#utility.yul\":4588:4687   */\n  swap4\n  pop\n    /* \"#utility.yul\":4390:4697   */\n  pop\n    /* \"#utility.yul\":4736:4739   */\n  0x80\n    /* \"#utility.yul\":4763:4827   */\n  tag_98\n    /* \"#utility.yul\":4819:4826   */\n  dup10\n    /* \"#utility.yul\":4810:4816   */\n  dup3\n    /* \"#utility.yul\":4799:4808   */\n  dup11\n    /* \"#utility.yul\":4795:4817   */\n  add\n    /* \"#utility.yul\":4763:4827   */\n  tag_42\n  jump\t// in\ntag_98:\n    /* \"#utility.yul\":4753:4827   */\n  swap3\n  pop\n    /* \"#utility.yul\":4707:4837   */\n  pop\n    /* \"#utility.yul\":4876:4879   */\n  0xa0\n    /* \"#utility.yul\":4903:4967   */\n  tag_99\n    /* \"#utility.yul\":4959:4966   */\n  dup10\n    /* \"#utility.yul\":4950:4956   */\n  dup3\n    /* \"#utility.yul\":4939:4948   */\n  dup11\n    /* \"#utility.yul\":4935:4957   */\n  add\n    /* \"#utility.yul\":4903:4967   */\n  tag_30\n  jump\t// in\ntag_99:\n    /* \"#utility.yul\":4893:4967   */\n  swap2\n  pop\n    /* \"#utility.yul\":4847:4977   */\n  pop\n    /* \"#utility.yul\":3647:4984   */\n  swap3\n  swap6\n  pop\n  swap3\n  swap6\n  pop\n  swap3\n  swap6\n  jump\t// out\n    /* \"#utility.yul\":4990:5170   */\ntag_18:\n    /* \"#utility.yul\":5038:5115   */\n  0x4e487b7100000000000000000000000000000000000000000000000000000000\n    /* \"#utility.yul\":5035:5036   */\n  0x00\n    /* \"#utility.yul\":5028:5116   */\n  mstore\n    /* \"#utility.yul\":5135:5139   */\n  0x32\n    /* \"#utility.yul\":5132:5133   */\n  0x04\n    /* \"#utility.yul\":5125:5140   */\n  mstore\n    /* \"#utility.yul\":5159:5163   */\n  0x24\n    /* \"#utility.yul\":5156:5157   */\n  0x00\n    /* \"#utility.yul\":5149:5164   */\n  revert\n    /* \"#utility.yul\":5176:5356   */\ntag_43:\n    /* \"#utility.yul\":5224:5301   */\n  0x4e487b7100000000000000000000000000000000000000000000000000000000\n    /* \"#utility.yul\":5221:5222   */\n  0x00\n    /* \"#utility.yul\":5214:5302   */\n  mstore\n    /* \"#utility.yul\":5321:5325   */\n  0x11\n    /* \"#utility.yul\":5318:5319   */\n  0x04\n    /* \"#utility.yul\":5311:5326   */\n  mstore\n    /* \"#utility.yul\":5345:5349   */\n  0x24\n    /* \"#utility.yul\":5342:5343   */\n  0x00\n    /* \"#utility.yul\":5335:5350   */\n  revert\n    /* \"#utility.yul\":5362:5595   */\ntag_20:\n    /* \"#utility.yul\":5401:5404   */\n  0x00\n    /* \"#utility.yul\":5424:5448   */\n  tag_103\n    /* \"#utility.yul\":5442:5447   */\n  dup3\n    /* \"#utility.yul\":5424:5448   */\n  tag_40\n  jump\t// in\ntag_103:\n    /* \"#utility.yul\":5415:5448   */\n  swap2\n  pop\n    /* \"#utility.yul\":5470:5536   */\n  0xffffffffffffffffffffffffffffffffffffffffffffffffffffffffffffffff\n    /* \"#utility.yul\":5463:5468   */\n  dup3\n    /* \"#utility.yul\":5460:5537   */\n  sub\n    /* \"#utility.yul\":5457:5560   */\n  tag_104\n  jumpi\n    /* \"#utility.yul\":5540:5558   */\n  tag_105\n  tag_43\n  jump\t// in\ntag_105:\n    /* \"#utility.yul\":5457:5560   */\ntag_104:\n    /* \"#utility.yul\":5587:5588   */\n  0x01\n    /* \"#utility.yul\":5580:5585   */\n  dup3\n    /* \"#utility.yul\":5576:5589   */\n  add\n    /* \"#utility.yul\":5569:5589   */\n  swap1\n  pop\n    /* \"#utility.yul\":5362:5595   */\n  swap2\n  swap1\n  pop\n  jump\t// out\n    /* \"contracts/RecoveryVault.sol\":596:6557  contract RecoveryVault is Ownable {... */\ntag_21:\n  mload(0x80)\n  codecopy(0x00, dataOffset(sub_0), dataSize(sub_0))\n  0x00\n  assignImmutable(\"0x6590fa52fa76f967656340b874bc9ca09733c2fddea9886210ebcbbceee04b35\")\n  return(0x00, dataSize(sub_0))\nstop\n\nsub_0: assembly {\n        /* \"contracts/RecoveryVault.sol\":596:6557  contract RecoveryVault is Ownable {... */\n      mstore(0x40, 0x80)\n      callvalue\n      dup1\n      iszero\n      tag_1\n      jumpi\n      0x00\n      dup1\n      revert\n    tag_1:\n      pop\n      jumpi(tag_2, lt(calldatasize, 0x04))\n      shr(0xe0, calldataload(0x00))\n      dup1\n      0x7cb64759\n      gt\n      tag_30\n      jumpi\n      dup1\n      0xb20d30a9\n      gt\n      tag_31\n      jumpi\n      dup1\n      0xe2c6e438\n      gt\n      tag_32\n      jumpi\n      dup1\n      0xe2c6e438\n      eq\n      tag_26\n      jumpi\n      dup1\n      0xe7986466\n      eq\n      tag_27\n      jumpi\n      dup1\n      0xe9587e86\n      eq\n      tag_28\n      jumpi\n      dup1\n      0xf2fde38b\n      eq\n      tag_29\n      jumpi\n      jump(tag_2)\n    tag_32:\n      dup1\n      0xb20d30a9\n      eq\n      tag_23\n      jumpi\n      dup1\n      0xca26c532\n      eq\n      tag_24\n      jumpi\n      dup1\n      0xd6691e47\n      eq\n      tag_25\n      jumpi\n      jump(tag_2)\n    tag_31:\n      dup1\n      0x8da5cb5b\n      gt\n      tag_33\n      jumpi\n      dup1\n      0x8da5cb5b\n      eq\n      tag_19\n      jumpi\n      dup1\n      0x8ea5220f\n      eq\n      tag_20\n      jumpi\n      dup1\n      0xa4e2d634\n      eq\n      tag_21\n      jumpi\n      dup1\n      0xad655ef6\n      eq\n      tag_22\n      jumpi\n      jump(tag_2)\n    tag_33:\n      dup1\n      0x7cb64759\n      eq\n      tag_16\n      jumpi\n      dup1\n      0x7dc0d1d0\n      eq\n      tag_17\n      jumpi\n      dup1\n      0x8a19c8bc\n      eq\n      tag_18\n      jumpi\n      jump(tag_2)\n    tag_30:\n      dup1\n      0x40365852\n      gt\n      tag_34\n      jumpi\n      dup1\n      0x620d025c\n      gt\n      tag_35\n      jumpi\n      dup1\n      0x620d025c\n      eq\n      tag_12\n      jumpi\n      dup1\n      0x715018a6\n      eq\n      tag_13\n      jumpi\n      dup1\n      0x73a1a252\n      eq\n      tag_14\n      jumpi\n      dup1\n      0x7adbf973\n      eq\n      tag_15\n      jumpi\n      jump(tag_2)\n    tag_35:\n      dup1\n      0x40365852\n      eq\n      tag_9\n      jumpi\n      dup1\n      0x4615102c\n      eq\n      tag_10\n      jumpi\n      dup1\n      0x589db8d4\n      eq\n      tag_11\n      jumpi\n      jump(tag_2)\n    tag_34:\n      dup1\n      0x1073e2a7\n      eq\n      tag_3\n      jumpi\n      dup1\n      0x14132f48\n      eq\n      tag_4\n      jumpi\n      dup1\n      0x196b004b\n      eq\n      tag_5\n      jumpi\n      dup1\n      0x211e28b6\n      eq\n      tag_6\n      jumpi\n      dup1\n      0x24600fc3\n      eq\n      tag_7\n      jumpi\n      dup1\n      0x2eb4a7ab\n      eq\n      tag_8\n      jumpi\n    tag_2:\n      0x00\n      dup1\n      revert\n        /* \"contracts/RecoveryVault.sol\":1036:1092  uint256 public constant WALLET_RESET_INTERVAL = 24 hours */\n    tag_3:\n      tag_36\n      tag_37\n      jump\t// in\n    tag_36:\n      mload(0x40)\n      tag_38\n      swap2\n      swap1\n      tag_39\n      jump\t// in\n    tag_38:\n      mload(0x40)\n      dup1\n      swap2\n      sub\n      swap1\n      return\n        /* \"contracts/RecoveryVault.sol\":3865:5117  function redeem(... */\n    tag_4:\n      tag_40\n      0x04\n      dup1\n      calldatasize\n      sub\n      dup2\n      add\n      swap1\n      tag_41\n      swap2\n      swap1\n      tag_42\n      jump\t// in\n    tag_41:\n      tag_43\n      jump\t// in\n    tag_40:\n      stop\n        /* \"contracts/RecoveryVault.sol\":1101:1130  address public immutable wONE */\n    tag_5:\n      tag_44\n      tag_45\n      jump\t// in\n    tag_44:\n      mload(0x40)\n      tag_46\n      swap2\n      swap1\n      tag_47\n      jump\t// in\n    tag_46:\n      mload(0x40)\n      dup1\n      swap2\n      sub\n      swap1\n      return\n        /* \"contracts/RecoveryVault.sol\":2815:2940  function setLocked(bool _status) external onlyOwner {... */\n    tag_6:\n      tag_48\n      0x04\n      dup1\n      calldatasize\n      sub\n      dup2\n      add\n      swap1\n      tag_49\n      swap2\n      swap1\n      tag_50\n      jump\t// in\n    tag_49:\n      tag_51\n      jump\t// in\n    tag_48:\n      stop\n        /* \"contracts/RecoveryVault.sol\":3168:3420  function withdrawFunds() external onlyOwner {... */\n    tag_7:\n      tag_52\n      tag_53\n      jump\t// in\n    tag_52:\n      stop\n        /* \"contracts/RecoveryVault.sol\":1199:1224  bytes32 public merkleRoot */\n    tag_8:\n      tag_54\n      tag_55\n      jump\t// in\n    tag_54:\n      mload(0x40)\n      tag_56\n      swap2\n      swap1\n      tag_57\n      jump\t// in\n    tag_56:\n      mload(0x40)\n      dup1\n      swap2\n      sub\n      swap1\n      return\n        /* \"contracts/RecoveryVault.sol\":1265:1290  uint256 public roundStart */\n    tag_9:\n      tag_58\n      tag_59\n      jump\t// in\n    tag_58:\n      mload(0x40)\n      tag_60\n      swap2\n      swap1\n      tag_39\n      jump\t// in\n    tag_60:\n      mload(0x40)\n      dup1\n      swap2\n      sub\n      swap1\n      return\n        /* \"contracts/RecoveryVault.sol\":3428:3857  function startNewRound(uint256 _roundId) external onlyOwner {... */\n    tag_10:\n      tag_61\n      0x04\n      dup1\n      calldatasize\n      sub\n      dup2\n      add\n      swap1\n      tag_62\n      swap2\n      swap1\n      tag_63\n      jump\t// in\n    tag_62:\n      tag_64\n      jump\t// in\n    tag_61:\n      stop\n        /* \"contracts/RecoveryVault.sol\":1553:1607  mapping(address => uint256) public lastRedeemTimestamp */\n    tag_11:\n      tag_65\n      0x04\n      dup1\n      calldatasize\n      sub\n      dup2\n      add\n      swap1\n      tag_66\n      swap2\n      swap1\n      tag_67\n      jump\t// in\n    tag_66:\n      tag_68\n      jump\t// in\n    tag_65:\n      mload(0x40)\n      tag_69\n      swap2\n      swap1\n      tag_39\n      jump\t// in\n    tag_69:\n      mload(0x40)\n      dup1\n      swap2\n      sub\n      swap1\n      return\n        /* \"contracts/RecoveryVault.sol\":1297:1322  uint256 public roundFunds */\n    tag_12:\n      tag_70\n      tag_71\n      jump\t// in\n    tag_70:\n      mload(0x40)\n      tag_72\n      swap2\n      swap1\n      tag_39\n      jump\t// in\n    tag_72:\n      mload(0x40)\n      dup1\n      swap2\n      sub\n      swap1\n      return\n        /* \"https://raw.githubusercontent.com/OpenZeppelin/openzeppelin-contracts/refs/tags/v4.9.3/contracts/access/Ownable.sol\":1824:1925  function renounceOwnership() public virtual onlyOwner {... */\n    tag_13:\n      tag_73\n      tag_74\n      jump\t// in\n    tag_73:\n      stop\n        /* \"contracts/RecoveryVault.sol\":1476:1546  mapping(uint256 => mapping(address => uint256)) public redeemedInRound */\n    tag_14:\n      tag_75\n      0x04\n      dup1\n      calldatasize\n      sub\n      dup2\n      add\n      swap1\n      tag_76\n      swap2\n      swap1\n      tag_77\n      jump\t// in\n    tag_76:\n      tag_78\n      jump\t// in\n    tag_75:\n      mload(0x40)\n      tag_79\n      swap2\n      swap1\n      tag_39\n      jump\t// in\n    tag_79:\n      mload(0x40)\n      dup1\n      swap2\n      sub\n      swap1\n      return\n        /* \"contracts/RecoveryVault.sol\":3061:3160  function setOracle(address _oracle) external onlyOwner {... */\n    tag_15:\n      tag_80\n      0x04\n      dup1\n      calldatasize\n      sub\n      dup2\n      add\n      swap1\n      tag_81\n      swap2\n      swap1\n      tag_67\n      jump\t// in\n    tag_81:\n      tag_82\n      jump\t// in\n    tag_80:\n      stop\n        /* \"contracts/RecoveryVault.sol\":2580:2674  function setMerkleRoot(bytes32 _root) external onlyOwner {... */\n    tag_16:\n      tag_83\n      0x04\n      dup1\n      calldatasize\n      sub\n      dup2\n      add\n      swap1\n      tag_84\n      swap2\n      swap1\n      tag_85\n      jump\t// in\n    tag_84:\n      tag_86\n      jump\t// in\n    tag_83:\n      stop\n        /* \"contracts/RecoveryVault.sol\":1393:1414  IOracle public oracle */\n    tag_17:\n      tag_87\n      tag_88\n      jump\t// in\n    tag_87:\n      mload(0x40)\n      tag_89\n      swap2\n      swap1\n      tag_90\n      jump\t// in\n    tag_89:\n      mload(0x40)\n      dup1\n      swap2\n      sub\n      swap1\n      return\n        /* \"contracts/RecoveryVault.sol\":1231:1258  uint256 public currentRound */\n    tag_18:\n      tag_91\n      tag_92\n      jump\t// in\n    tag_91:\n      mload(0x40)\n      tag_93\n      swap2\n      swap1\n      tag_39\n      jump\t// in\n    tag_93:\n      mload(0x40)\n      dup1\n      swap2\n      sub\n      swap1\n      return\n        /* \"https://raw.githubusercontent.com/OpenZeppelin/openzeppelin-contracts/refs/tags/v4.9.3/contracts/access/Ownable.sol\":1201:1286  function owner() public view virtual returns (address) {... */\n    tag_19:\n      tag_94\n      tag_95\n      jump\t// in\n    tag_94:\n      mload(0x40)\n      tag_96\n      swap2\n      swap1\n      tag_47\n      jump\t// in\n    tag_96:\n      mload(0x40)\n      dup1\n      swap2\n      sub\n      swap1\n      return\n        /* \"contracts/RecoveryVault.sol\":1137:1161  address public devWallet */\n    tag_20:\n      tag_97\n      tag_98\n      jump\t// in\n    tag_97:\n      mload(0x40)\n      tag_99\n      swap2\n      swap1\n      tag_47\n      jump\t// in\n    tag_99:\n      mload(0x40)\n      dup1\n      swap2\n      sub\n      swap1\n      return\n        /* \"contracts/RecoveryVault.sol\":1364:1384  bool public isLocked */\n    tag_21:\n      tag_100\n      tag_101\n      jump\t// in\n    tag_100:\n      mload(0x40)\n      tag_102\n      swap2\n      swap1\n      tag_103\n      jump\t// in\n    tag_102:\n      mload(0x40)\n      dup1\n      swap2\n      sub\n      swap1\n      return\n        /* \"contracts/RecoveryVault.sol\":983:1029  uint256 public constant ROUND_DELAY = 24 hours */\n    tag_22:\n      tag_104\n      tag_105\n      jump\t// in\n    tag_104:\n      mload(0x40)\n      tag_106\n      swap2\n      swap1\n      tag_39\n      jump\t// in\n    tag_106:\n      mload(0x40)\n      dup1\n      swap2\n      sub\n      swap1\n      return\n        /* \"contracts/RecoveryVault.sol\":2948:3053  function setDailyLimit(uint256 usdAmount) external onlyOwner {... */\n    tag_23:\n      tag_107\n      0x04\n      dup1\n      calldatasize\n      sub\n      dup2\n      add\n      swap1\n      tag_108\n      swap2\n      swap1\n      tag_63\n      jump\t// in\n    tag_108:\n      tag_109\n      jump\t// in\n    tag_107:\n      stop\n        /* \"contracts/RecoveryVault.sol\":1329:1357  uint256 public dailyLimitUsd */\n    tag_24:\n      tag_110\n      tag_111\n      jump\t// in\n    tag_110:\n      mload(0x40)\n      tag_112\n      swap2\n      swap1\n      tag_39\n      jump\t// in\n    tag_112:\n      mload(0x40)\n      dup1\n      swap2\n      sub\n      swap1\n      return\n        /* \"contracts/RecoveryVault.sol\":1168:1192  address public rmcWallet */\n    tag_25:\n      tag_113\n      tag_114\n      jump\t// in\n    tag_113:\n      mload(0x40)\n      tag_115\n      swap2\n      swap1\n      tag_47\n      jump\t// in\n    tag_115:\n      mload(0x40)\n      dup1\n      swap2\n      sub\n      swap1\n      return\n        /* \"contracts/RecoveryVault.sol\":1423:1469  mapping(address => bool) public supportedToken */\n    tag_26:\n      tag_116\n      0x04\n      dup1\n      calldatasize\n      sub\n      dup2\n      add\n      swap1\n      tag_117\n      swap2\n      swap1\n      tag_67\n      jump\t// in\n    tag_117:\n      tag_118\n      jump\t// in\n    tag_116:\n      mload(0x40)\n      tag_119\n      swap2\n      swap1\n      tag_103\n      jump\t// in\n    tag_119:\n      mload(0x40)\n      dup1\n      swap2\n      sub\n      swap1\n      return\n        /* \"contracts/RecoveryVault.sol\":2682:2807  function setSupportedToken(address token, bool allowed) external onlyOwner {... */\n    tag_27:\n      tag_120\n      0x04\n      dup1\n      calldatasize\n      sub\n      dup2\n      add\n      swap1\n      tag_121\n      swap2\n      swap1\n      tag_122\n      jump\t// in\n    tag_121:\n      tag_123\n      jump\t// in\n    tag_120:\n      stop\n        /* \"contracts/RecoveryVault.sol\":5125:5658  function getUserLimit(address wallet) external view returns (uint256 remainingUSD) {... */\n    tag_28:\n      tag_124\n      0x04\n      dup1\n      calldatasize\n      sub\n      dup2\n      add\n      swap1\n      tag_125\n      swap2\n      swap1\n      tag_67\n      jump\t// in\n    tag_125:\n      tag_126\n      jump\t// in\n    tag_124:\n      mload(0x40)\n      tag_127\n      swap2\n      swap1\n      tag_39\n      jump\t// in\n    tag_127:\n      mload(0x40)\n      dup1\n      swap2\n      sub\n      swap1\n      return\n        /* \"https://raw.githubusercontent.com/OpenZeppelin/openzeppelin-contracts/refs/tags/v4.9.3/contracts/access/Ownable.sol\":2074:2272  function transferOwnership(address newOwner) public virtual onlyOwner {... */\n    tag_29:\n      tag_128\n      0x04\n      dup1\n      calldatasize\n      sub\n      dup2\n      add\n      swap1\n      tag_129\n      swap2\n      swap1\n      tag_67\n      jump\t// in\n    tag_129:\n      tag_130\n      jump\t// in\n    tag_128:\n      stop\n        /* \"contracts/RecoveryVault.sol\":1036:1092  uint256 public constant WALLET_RESET_INTERVAL = 24 hours */\n    tag_37:\n        /* \"contracts/RecoveryVault.sol\":1084:1092  24 hours */\n      0x015180\n        /* \"contracts/RecoveryVault.sol\":1036:1092  uint256 public constant WALLET_RESET_INTERVAL = 24 hours */\n      dup2\n      jump\t// out\n        /* \"contracts/RecoveryVault.sol\":3865:5117  function redeem(... */\n    tag_43:\n        /* \"contracts/RecoveryVault.sol\":1812:1820  isLocked */\n      0x08\n      0x00\n      swap1\n      sload\n      swap1\n      0x0100\n      exp\n      swap1\n      div\n      0xff\n      and\n        /* \"contracts/RecoveryVault.sol\":1811:1820  !isLocked */\n      iszero\n        /* \"contracts/RecoveryVault.sol\":1803:1843  require(!isLocked, \"Contract is locked\") */\n      tag_132\n      jumpi\n      mload(0x40)\n      0x08c379a000000000000000000000000000000000000000000000000000000000\n      dup2\n      mstore\n      0x04\n      add\n      tag_133\n      swap1\n      tag_134\n      jump\t// in\n    tag_133:\n      mload(0x40)\n      dup1\n      swap2\n      sub\n      swap1\n      revert\n    tag_132:\n        /* \"contracts/RecoveryVault.sol\":1881:1891  roundStart */\n      sload(0x05)\n        /* \"contracts/RecoveryVault.sol\":1862:1877  block.timestamp */\n      timestamp\n        /* \"contracts/RecoveryVault.sol\":1862:1891  block.timestamp >= roundStart */\n      lt\n      iszero\n        /* \"contracts/RecoveryVault.sol\":1854:1913  require(block.timestamp >= roundStart, \"Round not started\") */\n      tag_135\n      jumpi\n      mload(0x40)\n      0x08c379a000000000000000000000000000000000000000000000000000000000\n      dup2\n      mstore\n      0x04\n      add\n      tag_136\n      swap1\n      tag_137\n      jump\t// in\n    tag_136:\n      mload(0x40)\n      dup1\n      swap2\n      sub\n      swap1\n      revert\n    tag_135:\n        /* \"contracts/RecoveryVault.sol\":1945:1946  0 */\n      0x00\n        /* \"contracts/RecoveryVault.sol\":1932:1942  roundFunds */\n      sload(0x06)\n        /* \"contracts/RecoveryVault.sol\":1932:1946  roundFunds > 0 */\n      gt\n        /* \"contracts/RecoveryVault.sol\":1924:1959  require(roundFunds > 0, \"No funds\") */\n      tag_138\n      jumpi\n      mload(0x40)\n      0x08c379a000000000000000000000000000000000000000000000000000000000\n      dup2\n      mstore\n      0x04\n      add\n      tag_139\n      swap1\n      tag_140\n      jump\t// in\n    tag_139:\n      mload(0x40)\n      dup1\n      swap2\n      sub\n      swap1\n      revert\n    tag_138:\n        /* \"contracts/RecoveryVault.sol\":4013:4018  proof */\n      dup2\n      dup2\n        /* \"contracts/RecoveryVault.sol\":1686:1721  _verifyWhitelist(msg.sender, proof) */\n      tag_142\n        /* \"contracts/RecoveryVault.sol\":1703:1713  msg.sender */\n      caller\n        /* \"contracts/RecoveryVault.sol\":1715:1720  proof */\n      dup4\n      dup4\n        /* \"contracts/RecoveryVault.sol\":1686:1702  _verifyWhitelist */\n      tag_143\n        /* \"contracts/RecoveryVault.sol\":1686:1721  _verifyWhitelist(msg.sender, proof) */\n      jump\t// in\n    tag_142:\n        /* \"contracts/RecoveryVault.sol\":1678:1741  require(_verifyWhitelist(msg.sender, proof), \"Not whitelisted\") */\n      tag_144\n      jumpi\n      mload(0x40)\n      0x08c379a000000000000000000000000000000000000000000000000000000000\n      dup2\n      mstore\n      0x04\n      add\n      tag_145\n      swap1\n      tag_146\n      jump\t// in\n    tag_145:\n      mload(0x40)\n      dup1\n      swap2\n      sub\n      swap1\n      revert\n    tag_144:\n        /* \"contracts/RecoveryVault.sol\":4039:4053  supportedToken */\n      0x09\n        /* \"contracts/RecoveryVault.sol\":4039:4062  supportedToken[tokenIn] */\n      0x00\n        /* \"contracts/RecoveryVault.sol\":4054:4061  tokenIn */\n      dup8\n        /* \"contracts/RecoveryVault.sol\":4039:4062  supportedToken[tokenIn] */\n      0xffffffffffffffffffffffffffffffffffffffff\n      and\n      0xffffffffffffffffffffffffffffffffffffffff\n      and\n      dup2\n      mstore\n      0x20\n      add\n      swap1\n      dup2\n      mstore\n      0x20\n      add\n      0x00\n      keccak256\n      0x00\n      swap1\n      sload\n      swap1\n      0x0100\n      exp\n      swap1\n      div\n      0xff\n      and\n        /* \"contracts/RecoveryVault.sol\":4031:4086  require(supportedToken[tokenIn], \"Token not supported\") */\n      tag_148\n      jumpi\n      mload(0x40)\n      0x08c379a000000000000000000000000000000000000000000000000000000000\n      dup2\n      mstore\n      0x04\n      add\n      tag_149\n      swap1\n      tag_150\n      jump\t// in\n    tag_149:\n      mload(0x40)\n      dup1\n      swap2\n      sub\n      swap1\n      revert\n    tag_148:\n        /* \"contracts/RecoveryVault.sol\":4116:4117  0 */\n      0x00\n        /* \"contracts/RecoveryVault.sol\":4105:4113  amountIn */\n      dup6\n        /* \"contracts/RecoveryVault.sol\":4105:4117  amountIn > 0 */\n      gt\n        /* \"contracts/RecoveryVault.sol\":4097:4136  require(amountIn > 0, \"Invalid amount\") */\n      tag_151\n      jumpi\n      mload(0x40)\n      0x08c379a000000000000000000000000000000000000000000000000000000000\n      dup2\n      mstore\n      0x04\n      add\n      tag_152\n      swap1\n      tag_153\n      jump\t// in\n    tag_152:\n      mload(0x40)\n      dup1\n      swap2\n      sub\n      swap1\n      revert\n    tag_151:\n        /* \"contracts/RecoveryVault.sol\":4162:4169  tokenIn */\n      dup6\n        /* \"contracts/RecoveryVault.sol\":4155:4183  IERC20(tokenIn).transferFrom */\n      0xffffffffffffffffffffffffffffffffffffffff\n      and\n      0x23b872dd\n        /* \"contracts/RecoveryVault.sol\":4184:4194  msg.sender */\n      caller\n        /* \"contracts/RecoveryVault.sol\":4204:4208  this */\n      address\n        /* \"contracts/RecoveryVault.sol\":4211:4219  amountIn */\n      dup9\n        /* \"contracts/RecoveryVault.sol\":4155:4220  IERC20(tokenIn).transferFrom(msg.sender, address(this), amountIn) */\n      mload(0x40)\n      dup5\n      0xffffffff\n      and\n      0xe0\n      shl\n      dup2\n      mstore\n      0x04\n      add\n      tag_154\n      swap4\n      swap3\n      swap2\n      swap1\n      tag_155\n      jump\t// in\n    tag_154:\n      0x20\n      mload(0x40)\n      dup1\n      dup4\n      sub\n      dup2\n      0x00\n      dup8\n      gas\n      call\n      iszero\n      dup1\n      iszero\n      tag_157\n      jumpi\n      returndatasize\n      0x00\n      dup1\n      returndatacopy\n      revert(0x00, returndatasize)\n    tag_157:\n      pop\n      pop\n      pop\n      pop\n      mload(0x40)\n      returndatasize\n      not(0x1f)\n      0x1f\n      dup3\n      add\n      and\n      dup3\n      add\n      dup1\n      0x40\n      mstore\n      pop\n      dup2\n      add\n      swap1\n      tag_158\n      swap2\n      swap1\n      tag_159\n      jump\t// in\n    tag_158:\n        /* \"contracts/RecoveryVault.sol\":4147:4240  require(IERC20(tokenIn).transferFrom(msg.sender, address(this), amountIn), \"Transfer failed\") */\n      tag_160\n      jumpi\n      mload(0x40)\n      0x08c379a000000000000000000000000000000000000000000000000000000000\n      dup2\n      mstore\n      0x04\n      add\n      tag_161\n      swap1\n      tag_162\n      jump\t// in\n    tag_161:\n      mload(0x40)\n      dup1\n      swap2\n      sub\n      swap1\n      revert\n    tag_160:\n        /* \"contracts/RecoveryVault.sol\":4253:4279  _resetIfNeeded(msg.sender) */\n      tag_163\n        /* \"contracts/RecoveryVault.sol\":4268:4278  msg.sender */\n      caller\n        /* \"contracts/RecoveryVault.sol\":4253:4267  _resetIfNeeded */\n      tag_164\n        /* \"contracts/RecoveryVault.sol\":4253:4279  _resetIfNeeded(msg.sender) */\n      jump\t// in\n    tag_163:\n        /* \"contracts/RecoveryVault.sol\":4292:4312  uint256 usdToOneRate */\n      0x00\n        /* \"contracts/RecoveryVault.sol\":4315:4321  oracle */\n      0x08\n      0x01\n      swap1\n      sload\n      swap1\n      0x0100\n      exp\n      swap1\n      div\n      0xffffffffffffffffffffffffffffffffffffffff\n      and\n        /* \"contracts/RecoveryVault.sol\":4315:4330  oracle.getPrice */\n      0xffffffffffffffffffffffffffffffffffffffff\n      and\n      0x98d5fdca\n        /* \"contracts/RecoveryVault.sol\":4315:4332  oracle.getPrice() */\n      mload(0x40)\n      dup2\n      0xffffffff\n      and\n      0xe0\n      shl\n      dup2\n      mstore\n      0x04\n      add\n      0x20\n      mload(0x40)\n      dup1\n      dup4\n      sub\n      dup2\n      dup7\n      gas\n      staticcall\n      iszero\n      dup1\n      iszero\n      tag_166\n      jumpi\n      returndatasize\n      0x00\n      dup1\n      returndatacopy\n      revert(0x00, returndatasize)\n    tag_166:\n      pop\n      pop\n      pop\n      pop\n      mload(0x40)\n      returndatasize\n      not(0x1f)\n      0x1f\n      dup3\n      add\n      and\n      dup3\n      add\n      dup1\n      0x40\n      mstore\n      pop\n      dup2\n      add\n      swap1\n      tag_167\n      swap2\n      swap1\n      tag_168\n      jump\t// in\n    tag_167:\n        /* \"contracts/RecoveryVault.sol\":4292:4332  uint256 usdToOneRate = oracle.getPrice() */\n      swap1\n      pop\n        /* \"contracts/RecoveryVault.sol\":4343:4360  uint256 maxAmount */\n      0x00\n        /* \"contracts/RecoveryVault.sol\":4388:4400  usdToOneRate */\n      dup2\n        /* \"contracts/RecoveryVault.sol\":4380:4384  1e18 */\n      0x0de0b6b3a7640000\n        /* \"contracts/RecoveryVault.sol\":4364:4377  dailyLimitUsd */\n      sload(0x07)\n        /* \"contracts/RecoveryVault.sol\":4364:4384  dailyLimitUsd * 1e18 */\n      tag_169\n      swap2\n      swap1\n      tag_170\n      jump\t// in\n    tag_169:\n        /* \"contracts/RecoveryVault.sol\":4363:4400  (dailyLimitUsd * 1e18) / usdToOneRate */\n      tag_171\n      swap2\n      swap1\n      tag_172\n      jump\t// in\n    tag_171:\n        /* \"contracts/RecoveryVault.sol\":4343:4400  uint256 maxAmount = (dailyLimitUsd * 1e18) / usdToOneRate */\n      swap1\n      pop\n        /* \"contracts/RecoveryVault.sol\":4477:4486  maxAmount */\n      dup1\n        /* \"contracts/RecoveryVault.sol\":4465:4473  amountIn */\n      dup8\n        /* \"contracts/RecoveryVault.sol\":4421:4436  redeemedInRound */\n      0x0a\n        /* \"contracts/RecoveryVault.sol\":4421:4450  redeemedInRound[currentRound] */\n      0x00\n        /* \"contracts/RecoveryVault.sol\":4437:4449  currentRound */\n      sload(0x04)\n        /* \"contracts/RecoveryVault.sol\":4421:4450  redeemedInRound[currentRound] */\n      dup2\n      mstore\n      0x20\n      add\n      swap1\n      dup2\n      mstore\n      0x20\n      add\n      0x00\n      keccak256\n        /* \"contracts/RecoveryVault.sol\":4421:4462  redeemedInRound[currentRound][msg.sender] */\n      0x00\n        /* \"contracts/RecoveryVault.sol\":4451:4461  msg.sender */\n      caller\n        /* \"contracts/RecoveryVault.sol\":4421:4462  redeemedInRound[currentRound][msg.sender] */\n      0xffffffffffffffffffffffffffffffffffffffff\n      and\n      0xffffffffffffffffffffffffffffffffffffffff\n      and\n      dup2\n      mstore\n      0x20\n      add\n      swap1\n      dup2\n      mstore\n      0x20\n      add\n      0x00\n      keccak256\n      sload\n        /* \"contracts/RecoveryVault.sol\":4421:4473  redeemedInRound[currentRound][msg.sender] + amountIn */\n      tag_173\n      swap2\n      swap1\n      tag_174\n      jump\t// in\n    tag_173:\n        /* \"contracts/RecoveryVault.sol\":4421:4486  redeemedInRound[currentRound][msg.sender] + amountIn <= maxAmount */\n      gt\n      iszero\n        /* \"contracts/RecoveryVault.sol\":4413:4510  require(redeemedInRound[currentRound][msg.sender] + amountIn <= maxAmount, \"Exceeds daily limit\") */\n      tag_175\n      jumpi\n      mload(0x40)\n      0x08c379a000000000000000000000000000000000000000000000000000000000\n      dup2\n      mstore\n      0x04\n      add\n      tag_176\n      swap1\n      tag_177\n      jump\t// in\n    tag_176:\n      mload(0x40)\n      dup1\n      swap2\n      sub\n      swap1\n      revert\n    tag_175:\n        /* \"contracts/RecoveryVault.sol\":4523:4534  uint256 fee */\n      0x00\n        /* \"contracts/RecoveryVault.sol\":4537:4574  _calculateFee(amountIn, usdToOneRate) */\n      tag_178\n        /* \"contracts/RecoveryVault.sol\":4551:4559  amountIn */\n      dup9\n        /* \"contracts/RecoveryVault.sol\":4561:4573  usdToOneRate */\n      dup5\n        /* \"contracts/RecoveryVault.sol\":4537:4550  _calculateFee */\n      tag_179\n        /* \"contracts/RecoveryVault.sol\":4537:4574  _calculateFee(amountIn, usdToOneRate) */\n      jump\t// in\n    tag_178:\n        /* \"contracts/RecoveryVault.sol\":4523:4574  uint256 fee = _calculateFee(amountIn, usdToOneRate) */\n      swap1\n      pop\n        /* \"contracts/RecoveryVault.sol\":4585:4605  uint256 refundAmount */\n      0x00\n        /* \"contracts/RecoveryVault.sol\":4619:4622  fee */\n      dup2\n        /* \"contracts/RecoveryVault.sol\":4608:4616  amountIn */\n      dup10\n        /* \"contracts/RecoveryVault.sol\":4608:4622  amountIn - fee */\n      tag_180\n      swap2\n      swap1\n      tag_181\n      jump\t// in\n    tag_180:\n        /* \"contracts/RecoveryVault.sol\":4585:4622  uint256 refundAmount = amountIn - fee */\n      swap1\n      pop\n        /* \"contracts/RecoveryVault.sol\":4659:4669  roundFunds */\n      sload(0x06)\n        /* \"contracts/RecoveryVault.sol\":4643:4655  refundAmount */\n      dup2\n        /* \"contracts/RecoveryVault.sol\":4643:4669  refundAmount <= roundFunds */\n      gt\n      iszero\n        /* \"contracts/RecoveryVault.sol\":4635:4698  require(refundAmount <= roundFunds, \"Insufficient vault funds\") */\n      tag_182\n      jumpi\n      mload(0x40)\n      0x08c379a000000000000000000000000000000000000000000000000000000000\n      dup2\n      mstore\n      0x04\n      add\n      tag_183\n      swap1\n      tag_184\n      jump\t// in\n    tag_183:\n      mload(0x40)\n      dup1\n      swap2\n      sub\n      swap1\n      revert\n    tag_182:\n        /* \"contracts/RecoveryVault.sol\":4756:4764  amountIn */\n      dup9\n        /* \"contracts/RecoveryVault.sol\":4711:4726  redeemedInRound */\n      0x0a\n        /* \"contracts/RecoveryVault.sol\":4711:4740  redeemedInRound[currentRound] */\n      0x00\n        /* \"contracts/RecoveryVault.sol\":4727:4739  currentRound */\n      sload(0x04)\n        /* \"contracts/RecoveryVault.sol\":4711:4740  redeemedInRound[currentRound] */\n      dup2\n      mstore\n      0x20\n      add\n      swap1\n      dup2\n      mstore\n      0x20\n      add\n      0x00\n      keccak256\n        /* \"contracts/RecoveryVault.sol\":4711:4752  redeemedInRound[currentRound][msg.sender] */\n      0x00\n        /* \"contracts/RecoveryVault.sol\":4741:4751  msg.sender */\n      caller\n        /* \"contracts/RecoveryVault.sol\":4711:4752  redeemedInRound[currentRound][msg.sender] */\n      0xffffffffffffffffffffffffffffffffffffffff\n      and\n      0xffffffffffffffffffffffffffffffffffffffff\n      and\n      dup2\n      mstore\n      0x20\n      add\n      swap1\n      dup2\n      mstore\n      0x20\n      add\n      0x00\n      keccak256\n      0x00\n        /* \"contracts/RecoveryVault.sol\":4711:4764  redeemedInRound[currentRound][msg.sender] += amountIn */\n      dup3\n      dup3\n      sload\n      tag_185\n      swap2\n      swap1\n      tag_174\n      jump\t// in\n    tag_185:\n      swap3\n      pop\n      pop\n      dup2\n      swap1\n      sstore\n      pop\n        /* \"contracts/RecoveryVault.sol\":4789:4801  refundAmount */\n      dup1\n        /* \"contracts/RecoveryVault.sol\":4775:4785  roundFunds */\n      0x06\n      0x00\n        /* \"contracts/RecoveryVault.sol\":4775:4801  roundFunds -= refundAmount */\n      dup3\n      dup3\n      sload\n      tag_186\n      swap2\n      swap1\n      tag_181\n      jump\t// in\n    tag_186:\n      swap3\n      pop\n      pop\n      dup2\n      swap1\n      sstore\n      pop\n        /* \"contracts/RecoveryVault.sol\":4829:4833  wONE */\n      immutable(\"0x6590fa52fa76f967656340b874bc9ca09733c2fddea9886210ebcbbceee04b35\")\n        /* \"contracts/RecoveryVault.sol\":4822:4843  IERC20(wONE).transfer */\n      0xffffffffffffffffffffffffffffffffffffffff\n      and\n      0xa9059cbb\n        /* \"contracts/RecoveryVault.sol\":4844:4854  msg.sender */\n      caller\n        /* \"contracts/RecoveryVault.sol\":4856:4868  refundAmount */\n      dup4\n        /* \"contracts/RecoveryVault.sol\":4822:4869  IERC20(wONE).transfer(msg.sender, refundAmount) */\n      mload(0x40)\n      dup4\n      0xffffffff\n      and\n      0xe0\n      shl\n      dup2\n      mstore\n      0x04\n      add\n      tag_187\n      swap3\n      swap2\n      swap1\n      tag_188\n      jump\t// in\n    tag_187:\n      0x20\n      mload(0x40)\n      dup1\n      dup4\n      sub\n      dup2\n      0x00\n      dup8\n      gas\n      call\n      iszero\n      dup1\n      iszero\n      tag_190\n      jumpi\n      returndatasize\n      0x00\n      dup1\n      returndatacopy\n      revert(0x00, returndatasize)\n    tag_190:\n      pop\n      pop\n      pop\n      pop\n      mload(0x40)\n      returndatasize\n      not(0x1f)\n      0x1f\n      dup3\n      add\n      and\n      dup3\n      add\n      dup1\n      0x40\n      mstore\n      pop\n      dup2\n      add\n      swap1\n      tag_191\n      swap2\n      swap1\n      tag_159\n      jump\t// in\n    tag_191:\n        /* \"contracts/RecoveryVault.sol\":4814:4887  require(IERC20(wONE).transfer(msg.sender, refundAmount), \"Refund failed\") */\n      tag_192\n      jumpi\n      mload(0x40)\n      0x08c379a000000000000000000000000000000000000000000000000000000000\n      dup2\n      mstore\n      0x04\n      add\n      tag_193\n      swap1\n      tag_194\n      jump\t// in\n    tag_193:\n      mload(0x40)\n      dup1\n      swap2\n      sub\n      swap1\n      revert\n    tag_192:\n        /* \"contracts/RecoveryVault.sol\":4913:4917  wONE */\n      immutable(\"0x6590fa52fa76f967656340b874bc9ca09733c2fddea9886210ebcbbceee04b35\")\n        /* \"contracts/RecoveryVault.sol\":4906:4927  IERC20(wONE).transfer */\n      0xffffffffffffffffffffffffffffffffffffffff\n      and\n      0xa9059cbb\n        /* \"contracts/RecoveryVault.sol\":4928:4937  devWallet */\n      0x01\n      0x00\n      swap1\n      sload\n      swap1\n      0x0100\n      exp\n      swap1\n      div\n      0xffffffffffffffffffffffffffffffffffffffff\n      and\n        /* \"contracts/RecoveryVault.sol\":4939:4942  fee */\n      dup5\n        /* \"contracts/RecoveryVault.sol\":4906:4943  IERC20(wONE).transfer(devWallet, fee) */\n      mload(0x40)\n      dup4\n      0xffffffff\n      and\n      0xe0\n      shl\n      dup2\n      mstore\n      0x04\n      add\n      tag_195\n      swap3\n      swap2\n      swap1\n      tag_188\n      jump\t// in\n    tag_195:\n      0x20\n      mload(0x40)\n      dup1\n      dup4\n      sub\n      dup2\n      0x00\n      dup8\n      gas\n      call\n      iszero\n      dup1\n      iszero\n      tag_197\n      jumpi\n      returndatasize\n      0x00\n      dup1\n      returndatacopy\n      revert(0x00, returndatasize)\n    tag_197:\n      pop\n      pop\n      pop\n      pop\n      mload(0x40)\n      returndatasize\n      not(0x1f)\n      0x1f\n      dup3\n      add\n      and\n      dup3\n      add\n      dup1\n      0x40\n      mstore\n      pop\n      dup2\n      add\n      swap1\n      tag_198\n      swap2\n      swap1\n      tag_159\n      jump\t// in\n    tag_198:\n        /* \"contracts/RecoveryVault.sol\":4898:4967  require(IERC20(wONE).transfer(devWallet, fee), \"Fee transfer failed\") */\n      tag_199\n      jumpi\n      mload(0x40)\n      0x08c379a000000000000000000000000000000000000000000000000000000000\n      dup2\n      mstore\n      0x04\n      add\n      tag_200\n      swap1\n      tag_201\n      jump\t// in\n    tag_200:\n      mload(0x40)\n      dup1\n      swap2\n      sub\n      swap1\n      revert\n    tag_199:\n        /* \"contracts/RecoveryVault.sol\":4995:5002  tokenIn */\n      dup10\n        /* \"contracts/RecoveryVault.sol\":4985:5033  BurnToken(tokenIn, amountIn, wONE, refundAmount) */\n      0xffffffffffffffffffffffffffffffffffffffff\n      and\n      0xf0c71be01e59205b10ea5ae42439ab4504c7e3da732743531ff44e98bd9fd63f\n        /* \"contracts/RecoveryVault.sol\":5004:5012  amountIn */\n      dup11\n        /* \"contracts/RecoveryVault.sol\":5014:5018  wONE */\n      immutable(\"0x6590fa52fa76f967656340b874bc9ca09733c2fddea9886210ebcbbceee04b35\")\n        /* \"contracts/RecoveryVault.sol\":5020:5032  refundAmount */\n      dup5\n        /* \"contracts/RecoveryVault.sol\":4985:5033  BurnToken(tokenIn, amountIn, wONE, refundAmount) */\n      mload(0x40)\n      tag_202\n      swap4\n      swap3\n      swap2\n      swap1\n      tag_203\n      jump\t// in\n    tag_202:\n      mload(0x40)\n      dup1\n      swap2\n      sub\n      swap1\n      log2\n        /* \"contracts/RecoveryVault.sol\":5077:5084  tokenIn */\n      dup10\n        /* \"contracts/RecoveryVault.sol\":5049:5109  RedeemProcessed(msg.sender, tokenIn, amountIn, refundAmount) */\n      0xffffffffffffffffffffffffffffffffffffffff\n      and\n        /* \"contracts/RecoveryVault.sol\":5065:5075  msg.sender */\n      caller\n        /* \"contracts/RecoveryVault.sol\":5049:5109  RedeemProcessed(msg.sender, tokenIn, amountIn, refundAmount) */\n      0xffffffffffffffffffffffffffffffffffffffff\n      and\n      0xc7e914640e860fbcf42ef4d9dceced8880d343828101f1fa389c7e1c06072817\n        /* \"contracts/RecoveryVault.sol\":5086:5094  amountIn */\n      dup12\n        /* \"contracts/RecoveryVault.sol\":5096:5108  refundAmount */\n      dup5\n        /* \"contracts/RecoveryVault.sol\":5049:5109  RedeemProcessed(msg.sender, tokenIn, amountIn, refundAmount) */\n      mload(0x40)\n      tag_204\n      swap3\n      swap2\n      swap1\n      tag_205\n      jump\t// in\n    tag_204:\n      mload(0x40)\n      dup1\n      swap2\n      sub\n      swap1\n      log3\n        /* \"contracts/RecoveryVault.sol\":4020:5117  {... */\n      pop\n      pop\n      pop\n      pop\n        /* \"contracts/RecoveryVault.sol\":1970:1971  _ */\n      pop\n      pop\n        /* \"contracts/RecoveryVault.sol\":3865:5117  function redeem(... */\n      pop\n      pop\n      pop\n      pop\n      jump\t// out\n        /* \"contracts/RecoveryVault.sol\":1101:1130  address public immutable wONE */\n    tag_45:\n      immutable(\"0x6590fa52fa76f967656340b874bc9ca09733c2fddea9886210ebcbbceee04b35\")\n      dup2\n      jump\t// out\n        /* \"contracts/RecoveryVault.sol\":2815:2940  function setLocked(bool _status) external onlyOwner {... */\n    tag_51:\n        /* \"https://raw.githubusercontent.com/OpenZeppelin/openzeppelin-contracts/refs/tags/v4.9.3/contracts/access/Ownable.sol\":1094:1107  _checkOwner() */\n      tag_207\n        /* \"https://raw.githubusercontent.com/OpenZeppelin/openzeppelin-contracts/refs/tags/v4.9.3/contracts/access/Ownable.sol\":1094:1105  _checkOwner */\n      tag_208\n        /* \"https://raw.githubusercontent.com/OpenZeppelin/openzeppelin-contracts/refs/tags/v4.9.3/contracts/access/Ownable.sol\":1094:1107  _checkOwner() */\n      jump\t// in\n    tag_207:\n        /* \"contracts/RecoveryVault.sol\":2889:2896  _status */\n      dup1\n        /* \"contracts/RecoveryVault.sol\":2878:2886  isLocked */\n      0x08\n      0x00\n        /* \"contracts/RecoveryVault.sol\":2878:2896  isLocked = _status */\n      0x0100\n      exp\n      dup2\n      sload\n      dup2\n      0xff\n      mul\n      not\n      and\n      swap1\n      dup4\n      iszero\n      iszero\n      mul\n      or\n      swap1\n      sstore\n      pop\n        /* \"contracts/RecoveryVault.sol\":2912:2932  VaultPaused(_status) */\n      0x152cbfe4e8597a33181d2da9ed5162e734ca8b263b9eb6105f169287a39908f6\n        /* \"contracts/RecoveryVault.sol\":2924:2931  _status */\n      dup2\n        /* \"contracts/RecoveryVault.sol\":2912:2932  VaultPaused(_status) */\n      mload(0x40)\n      tag_210\n      swap2\n      swap1\n      tag_103\n      jump\t// in\n    tag_210:\n      mload(0x40)\n      dup1\n      swap2\n      sub\n      swap1\n      log1\n        /* \"contracts/RecoveryVault.sol\":2815:2940  function setLocked(bool _status) external onlyOwner {... */\n      pop\n      jump\t// out\n        /* \"contracts/RecoveryVault.sol\":3168:3420  function withdrawFunds() external onlyOwner {... */\n    tag_53:\n        /* \"https://raw.githubusercontent.com/OpenZeppelin/openzeppelin-contracts/refs/tags/v4.9.3/contracts/access/Ownable.sol\":1094:1107  _checkOwner() */\n      tag_212\n        /* \"https://raw.githubusercontent.com/OpenZeppelin/openzeppelin-contracts/refs/tags/v4.9.3/contracts/access/Ownable.sol\":1094:1105  _checkOwner */\n      tag_208\n        /* \"https://raw.githubusercontent.com/OpenZeppelin/openzeppelin-contracts/refs/tags/v4.9.3/contracts/access/Ownable.sol\":1094:1107  _checkOwner() */\n      jump\t// in\n    tag_212:\n        /* \"contracts/RecoveryVault.sol\":3223:3238  uint256 balance */\n      0x00\n        /* \"contracts/RecoveryVault.sol\":3248:3252  wONE */\n      immutable(\"0x6590fa52fa76f967656340b874bc9ca09733c2fddea9886210ebcbbceee04b35\")\n        /* \"contracts/RecoveryVault.sol\":3241:3263  IERC20(wONE).balanceOf */\n      0xffffffffffffffffffffffffffffffffffffffff\n      and\n      0x70a08231\n        /* \"contracts/RecoveryVault.sol\":3272:3276  this */\n      address\n        /* \"contracts/RecoveryVault.sol\":3241:3278  IERC20(wONE).balanceOf(address(this)) */\n      mload(0x40)\n      dup3\n      0xffffffff\n      and\n      0xe0\n      shl\n      dup2\n      mstore\n      0x04\n      add\n      tag_214\n      swap2\n      swap1\n      tag_47\n      jump\t// in\n    tag_214:\n      0x20\n      mload(0x40)\n      dup1\n      dup4\n      sub\n      dup2\n      dup7\n      gas\n      staticcall\n      iszero\n      dup1\n      iszero\n      tag_216\n      jumpi\n      returndatasize\n      0x00\n      dup1\n      returndatacopy\n      revert(0x00, returndatasize)\n    tag_216:\n      pop\n      pop\n      pop\n      pop\n      mload(0x40)\n      returndatasize\n      not(0x1f)\n      0x1f\n      dup3\n      add\n      and\n      dup3\n      add\n      dup1\n      0x40\n      mstore\n      pop\n      dup2\n      add\n      swap1\n      tag_217\n      swap2\n      swap1\n      tag_168\n      jump\t// in\n    tag_217:\n        /* \"contracts/RecoveryVault.sol\":3223:3278  uint256 balance = IERC20(wONE).balanceOf(address(this)) */\n      swap1\n      pop\n        /* \"contracts/RecoveryVault.sol\":3307:3308  0 */\n      0x00\n        /* \"contracts/RecoveryVault.sol\":3297:3304  balance */\n      dup2\n        /* \"contracts/RecoveryVault.sol\":3297:3308  balance > 0 */\n      gt\n        /* \"contracts/RecoveryVault.sol\":3289:3332  require(balance > 0, \"Nothing to withdraw\") */\n      tag_218\n      jumpi\n      mload(0x40)\n      0x08c379a000000000000000000000000000000000000000000000000000000000\n      dup2\n      mstore\n      0x04\n      add\n      tag_219\n      swap1\n      tag_220\n      jump\t// in\n    tag_219:\n      mload(0x40)\n      dup1\n      swap2\n      sub\n      swap1\n      revert\n    tag_218:\n        /* \"contracts/RecoveryVault.sol\":3358:3362  wONE */\n      immutable(\"0x6590fa52fa76f967656340b874bc9ca09733c2fddea9886210ebcbbceee04b35\")\n        /* \"contracts/RecoveryVault.sol\":3351:3372  IERC20(wONE).transfer */\n      0xffffffffffffffffffffffffffffffffffffffff\n      and\n      0xa9059cbb\n        /* \"contracts/RecoveryVault.sol\":3373:3382  rmcWallet */\n      0x02\n      0x00\n      swap1\n      sload\n      swap1\n      0x0100\n      exp\n      swap1\n      div\n      0xffffffffffffffffffffffffffffffffffffffff\n      and\n        /* \"contracts/RecoveryVault.sol\":3384:3391  balance */\n      dup4\n        /* \"contracts/RecoveryVault.sol\":3351:3392  IERC20(wONE).transfer(rmcWallet, balance) */\n      mload(0x40)\n      dup4\n      0xffffffff\n      and\n      0xe0\n      shl\n      dup2\n      mstore\n      0x04\n      add\n      tag_221\n      swap3\n      swap2\n      swap1\n      tag_188\n      jump\t// in\n    tag_221:\n      0x20\n      mload(0x40)\n      dup1\n      dup4\n      sub\n      dup2\n      0x00\n      dup8\n      gas\n      call\n      iszero\n      dup1\n      iszero\n      tag_223\n      jumpi\n      returndatasize\n      0x00\n      dup1\n      returndatacopy\n      revert(0x00, returndatasize)\n    tag_223:\n      pop\n      pop\n      pop\n      pop\n      mload(0x40)\n      returndatasize\n      not(0x1f)\n      0x1f\n      dup3\n      add\n      and\n      dup3\n      add\n      dup1\n      0x40\n      mstore\n      pop\n      dup2\n      add\n      swap1\n      tag_224\n      swap2\n      swap1\n      tag_159\n      jump\t// in\n    tag_224:\n        /* \"contracts/RecoveryVault.sol\":3343:3412  require(IERC20(wONE).transfer(rmcWallet, balance), \"Withdraw failed\") */\n      tag_225\n      jumpi\n      mload(0x40)\n      0x08c379a000000000000000000000000000000000000000000000000000000000\n      dup2\n      mstore\n      0x04\n      add\n      tag_226\n      swap1\n      tag_227\n      jump\t// in\n    tag_226:\n      mload(0x40)\n      dup1\n      swap2\n      sub\n      swap1\n      revert\n    tag_225:\n        /* \"contracts/RecoveryVault.sol\":3212:3420  {... */\n      pop\n        /* \"contracts/RecoveryVault.sol\":3168:3420  function withdrawFunds() external onlyOwner {... */\n      jump\t// out\n        /* \"contracts/RecoveryVault.sol\":1199:1224  bytes32 public merkleRoot */\n    tag_55:\n      sload(0x03)\n      dup2\n      jump\t// out\n        /* \"contracts/RecoveryVault.sol\":1265:1290  uint256 public roundStart */\n    tag_59:\n      sload(0x05)\n      dup2\n      jump\t// out\n        /* \"contracts/RecoveryVault.sol\":3428:3857  function startNewRound(uint256 _roundId) external onlyOwner {... */\n    tag_64:\n        /* \"https://raw.githubusercontent.com/OpenZeppelin/openzeppelin-contracts/refs/tags/v4.9.3/contracts/access/Ownable.sol\":1094:1107  _checkOwner() */\n      tag_229\n        /* \"https://raw.githubusercontent.com/OpenZeppelin/openzeppelin-contracts/refs/tags/v4.9.3/contracts/access/Ownable.sol\":1094:1105  _checkOwner */\n      tag_208\n        /* \"https://raw.githubusercontent.com/OpenZeppelin/openzeppelin-contracts/refs/tags/v4.9.3/contracts/access/Ownable.sol\":1094:1107  _checkOwner() */\n      jump\t// in\n    tag_229:\n        /* \"contracts/RecoveryVault.sol\":3518:3530  currentRound */\n      sload(0x04)\n        /* \"contracts/RecoveryVault.sol\":3507:3515  _roundId */\n      dup2\n        /* \"contracts/RecoveryVault.sol\":3507:3530  _roundId > currentRound */\n      gt\n        /* \"contracts/RecoveryVault.sol\":3499:3557  require(_roundId > currentRound, \"Round ID must increase\") */\n      tag_231\n      jumpi\n      mload(0x40)\n      0x08c379a000000000000000000000000000000000000000000000000000000000\n      dup2\n      mstore\n      0x04\n      add\n      tag_232\n      swap1\n      tag_233\n      jump\t// in\n    tag_232:\n      mload(0x40)\n      dup1\n      swap2\n      sub\n      swap1\n      revert\n    tag_231:\n        /* \"contracts/RecoveryVault.sol\":3568:3583  uint256 balance */\n      0x00\n        /* \"contracts/RecoveryVault.sol\":3593:3597  wONE */\n      immutable(\"0x6590fa52fa76f967656340b874bc9ca09733c2fddea9886210ebcbbceee04b35\")\n        /* \"contracts/RecoveryVault.sol\":3586:3608  IERC20(wONE).balanceOf */\n      0xffffffffffffffffffffffffffffffffffffffff\n      and\n      0x70a08231\n        /* \"contracts/RecoveryVault.sol\":3617:3621  this */\n      address\n        /* \"contracts/RecoveryVault.sol\":3586:3623  IERC20(wONE).balanceOf(address(this)) */\n      mload(0x40)\n      dup3\n      0xffffffff\n      and\n      0xe0\n      shl\n      dup2\n      mstore\n      0x04\n      add\n      tag_234\n      swap2\n      swap1\n      tag_47\n      jump\t// in\n    tag_234:\n      0x20\n      mload(0x40)\n      dup1\n      dup4\n      sub\n      dup2\n      dup7\n      gas\n      staticcall\n      iszero\n      dup1\n      iszero\n      tag_236\n      jumpi\n      returndatasize\n      0x00\n      dup1\n      returndatacopy\n      revert(0x00, returndatasize)\n    tag_236:\n      pop\n      pop\n      pop\n      pop\n      mload(0x40)\n      returndatasize\n      not(0x1f)\n      0x1f\n      dup3\n      add\n      and\n      dup3\n      add\n      dup1\n      0x40\n      mstore\n      pop\n      dup2\n      add\n      swap1\n      tag_237\n      swap2\n      swap1\n      tag_168\n      jump\t// in\n    tag_237:\n        /* \"contracts/RecoveryVault.sol\":3568:3623  uint256 balance = IERC20(wONE).balanceOf(address(this)) */\n      swap1\n      pop\n        /* \"contracts/RecoveryVault.sol\":3652:3653  0 */\n      0x00\n        /* \"contracts/RecoveryVault.sol\":3642:3649  balance */\n      dup2\n        /* \"contracts/RecoveryVault.sol\":3642:3653  balance > 0 */\n      gt\n        /* \"contracts/RecoveryVault.sol\":3634:3666  require(balance > 0, \"No funds\") */\n      tag_238\n      jumpi\n      mload(0x40)\n      0x08c379a000000000000000000000000000000000000000000000000000000000\n      dup2\n      mstore\n      0x04\n      add\n      tag_239\n      swap1\n      tag_140\n      jump\t// in\n    tag_239:\n      mload(0x40)\n      dup1\n      swap2\n      sub\n      swap1\n      revert\n    tag_238:\n        /* \"contracts/RecoveryVault.sol\":3692:3700  _roundId */\n      dup2\n        /* \"contracts/RecoveryVault.sol\":3677:3689  currentRound */\n      0x04\n        /* \"contracts/RecoveryVault.sol\":3677:3700  currentRound = _roundId */\n      dup2\n      swap1\n      sstore\n      pop\n        /* \"contracts/RecoveryVault.sol\":3724:3731  balance */\n      dup1\n        /* \"contracts/RecoveryVault.sol\":3711:3721  roundFunds */\n      0x06\n        /* \"contracts/RecoveryVault.sol\":3711:3731  roundFunds = balance */\n      dup2\n      swap1\n      sstore\n      pop\n        /* \"contracts/RecoveryVault.sol\":1021:1029  24 hours */\n      0x015180\n        /* \"contracts/RecoveryVault.sol\":3755:3770  block.timestamp */\n      timestamp\n        /* \"contracts/RecoveryVault.sol\":3755:3784  block.timestamp + ROUND_DELAY */\n      tag_240\n      swap2\n      swap1\n      tag_174\n      jump\t// in\n    tag_240:\n        /* \"contracts/RecoveryVault.sol\":3742:3752  roundStart */\n      0x05\n        /* \"contracts/RecoveryVault.sol\":3742:3784  roundStart = block.timestamp + ROUND_DELAY */\n      dup2\n      swap1\n      sstore\n      pop\n        /* \"contracts/RecoveryVault.sol\":3800:3849  NewRoundStarted(_roundId, roundFunds, roundStart) */\n      0xb0b0c60f0267584d50a65485b5eff6babad43c5727703515fde33bb545b19114\n        /* \"contracts/RecoveryVault.sol\":3816:3824  _roundId */\n      dup3\n        /* \"contracts/RecoveryVault.sol\":3826:3836  roundFunds */\n      sload(0x06)\n        /* \"contracts/RecoveryVault.sol\":3838:3848  roundStart */\n      sload(0x05)\n        /* \"contracts/RecoveryVault.sol\":3800:3849  NewRoundStarted(_roundId, roundFunds, roundStart) */\n      mload(0x40)\n      tag_241\n      swap4\n      swap3\n      swap2\n      swap1\n      tag_242\n      jump\t// in\n    tag_241:\n      mload(0x40)\n      dup1\n      swap2\n      sub\n      swap1\n      log1\n        /* \"contracts/RecoveryVault.sol\":3488:3857  {... */\n      pop\n        /* \"contracts/RecoveryVault.sol\":3428:3857  function startNewRound(uint256 _roundId) external onlyOwner {... */\n      pop\n      jump\t// out\n        /* \"contracts/RecoveryVault.sol\":1553:1607  mapping(address => uint256) public lastRedeemTimestamp */\n    tag_68:\n      mstore(0x20, 0x0b)\n      dup1\n      0x00\n      mstore\n      keccak256(0x00, 0x40)\n      0x00\n      swap2\n      pop\n      swap1\n      pop\n      sload\n      dup2\n      jump\t// out\n        /* \"contracts/RecoveryVault.sol\":1297:1322  uint256 public roundFunds */\n    tag_71:\n      sload(0x06)\n      dup2\n      jump\t// out\n        /* \"https://raw.githubusercontent.com/OpenZeppelin/openzeppelin-contracts/refs/tags/v4.9.3/contracts/access/Ownable.sol\":1824:1925  function renounceOwnership() public virtual onlyOwner {... */\n    tag_74:\n        /* \"https://raw.githubusercontent.com/OpenZeppelin/openzeppelin-contracts/refs/tags/v4.9.3/contracts/access/Ownable.sol\":1094:1107  _checkOwner() */\n      tag_244\n        /* \"https://raw.githubusercontent.com/OpenZeppelin/openzeppelin-contracts/refs/tags/v4.9.3/contracts/access/Ownable.sol\":1094:1105  _checkOwner */\n      tag_208\n        /* \"https://raw.githubusercontent.com/OpenZeppelin/openzeppelin-contracts/refs/tags/v4.9.3/contracts/access/Ownable.sol\":1094:1107  _checkOwner() */\n      jump\t// in\n    tag_244:\n        /* \"https://raw.githubusercontent.com/OpenZeppelin/openzeppelin-contracts/refs/tags/v4.9.3/contracts/access/Ownable.sol\":1888:1918  _transferOwnership(address(0)) */\n      tag_246\n        /* \"https://raw.githubusercontent.com/OpenZeppelin/openzeppelin-contracts/refs/tags/v4.9.3/contracts/access/Ownable.sol\":1915:1916  0 */\n      0x00\n        /* \"https://raw.githubusercontent.com/OpenZeppelin/openzeppelin-contracts/refs/tags/v4.9.3/contracts/access/Ownable.sol\":1888:1906  _transferOwnership */\n      tag_247\n        /* \"https://raw.githubusercontent.com/OpenZeppelin/openzeppelin-contracts/refs/tags/v4.9.3/contracts/access/Ownable.sol\":1888:1918  _transferOwnership(address(0)) */\n      jump\t// in\n    tag_246:\n        /* \"https://raw.githubusercontent.com/OpenZeppelin/openzeppelin-contracts/refs/tags/v4.9.3/contracts/access/Ownable.sol\":1824:1925  function renounceOwnership() public virtual onlyOwner {... */\n      jump\t// out\n        /* \"contracts/RecoveryVault.sol\":1476:1546  mapping(uint256 => mapping(address => uint256)) public redeemedInRound */\n    tag_78:\n      mstore(0x20, 0x0a)\n      dup2\n      0x00\n      mstore\n      mstore(0x20, keccak256(0x00, 0x40))\n      dup1\n      0x00\n      mstore\n      keccak256(0x00, 0x40)\n      0x00\n      swap2\n      pop\n      swap2\n      pop\n      pop\n      sload\n      dup2\n      jump\t// out\n        /* \"contracts/RecoveryVault.sol\":3061:3160  function setOracle(address _oracle) external onlyOwner {... */\n    tag_82:\n        /* \"https://raw.githubusercontent.com/OpenZeppelin/openzeppelin-contracts/refs/tags/v4.9.3/contracts/access/Ownable.sol\":1094:1107  _checkOwner() */\n      tag_249\n        /* \"https://raw.githubusercontent.com/OpenZeppelin/openzeppelin-contracts/refs/tags/v4.9.3/contracts/access/Ownable.sol\":1094:1105  _checkOwner */\n      tag_208\n        /* \"https://raw.githubusercontent.com/OpenZeppelin/openzeppelin-contracts/refs/tags/v4.9.3/contracts/access/Ownable.sol\":1094:1107  _checkOwner() */\n      jump\t// in\n    tag_249:\n        /* \"contracts/RecoveryVault.sol\":3144:3151  _oracle */\n      dup1\n        /* \"contracts/RecoveryVault.sol\":3127:3133  oracle */\n      0x08\n      0x01\n        /* \"contracts/RecoveryVault.sol\":3127:3152  oracle = IOracle(_oracle) */\n      0x0100\n      exp\n      dup2\n      sload\n      dup2\n      0xffffffffffffffffffffffffffffffffffffffff\n      mul\n      not\n      and\n      swap1\n      dup4\n      0xffffffffffffffffffffffffffffffffffffffff\n      and\n      mul\n      or\n      swap1\n      sstore\n      pop\n        /* \"contracts/RecoveryVault.sol\":3061:3160  function setOracle(address _oracle) external onlyOwner {... */\n      pop\n      jump\t// out\n        /* \"contracts/RecoveryVault.sol\":2580:2674  function setMerkleRoot(bytes32 _root) external onlyOwner {... */\n    tag_86:\n        /* \"https://raw.githubusercontent.com/OpenZeppelin/openzeppelin-contracts/refs/tags/v4.9.3/contracts/access/Ownable.sol\":1094:1107  _checkOwner() */\n      tag_252\n        /* \"https://raw.githubusercontent.com/OpenZeppelin/openzeppelin-contracts/refs/tags/v4.9.3/contracts/access/Ownable.sol\":1094:1105  _checkOwner */\n      tag_208\n        /* \"https://raw.githubusercontent.com/OpenZeppelin/openzeppelin-contracts/refs/tags/v4.9.3/contracts/access/Ownable.sol\":1094:1107  _checkOwner() */\n      jump\t// in\n    tag_252:\n        /* \"contracts/RecoveryVault.sol\":2661:2666  _root */\n      dup1\n        /* \"contracts/RecoveryVault.sol\":2648:2658  merkleRoot */\n      0x03\n        /* \"contracts/RecoveryVault.sol\":2648:2666  merkleRoot = _root */\n      dup2\n      swap1\n      sstore\n      pop\n        /* \"contracts/RecoveryVault.sol\":2580:2674  function setMerkleRoot(bytes32 _root) external onlyOwner {... */\n      pop\n      jump\t// out\n        /* \"contracts/RecoveryVault.sol\":1393:1414  IOracle public oracle */\n    tag_88:\n      0x08\n      0x01\n      swap1\n      sload\n      swap1\n      0x0100\n      exp\n      swap1\n      div\n      0xffffffffffffffffffffffffffffffffffffffff\n      and\n      dup2\n      jump\t// out\n        /* \"contracts/RecoveryVault.sol\":1231:1258  uint256 public currentRound */\n    tag_92:\n      sload(0x04)\n      dup2\n      jump\t// out\n        /* \"https://raw.githubusercontent.com/OpenZeppelin/openzeppelin-contracts/refs/tags/v4.9.3/contracts/access/Ownable.sol\":1201:1286  function owner() public view virtual returns (address) {... */\n    tag_95:\n        /* \"https://raw.githubusercontent.com/OpenZeppelin/openzeppelin-contracts/refs/tags/v4.9.3/contracts/access/Ownable.sol\":1247:1254  address */\n      0x00\n        /* \"https://raw.githubusercontent.com/OpenZeppelin/openzeppelin-contracts/refs/tags/v4.9.3/contracts/access/Ownable.sol\":1273:1279  _owner */\n      dup1\n      0x00\n      swap1\n      sload\n      swap1\n      0x0100\n      exp\n      swap1\n      div\n      0xffffffffffffffffffffffffffffffffffffffff\n      and\n        /* \"https://raw.githubusercontent.com/OpenZeppelin/openzeppelin-contracts/refs/tags/v4.9.3/contracts/access/Ownable.sol\":1266:1279  return _owner */\n      swap1\n      pop\n        /* \"https://raw.githubusercontent.com/OpenZeppelin/openzeppelin-contracts/refs/tags/v4.9.3/contracts/access/Ownable.sol\":1201:1286  function owner() public view virtual returns (address) {... */\n      swap1\n      jump\t// out\n        /* \"contracts/RecoveryVault.sol\":1137:1161  address public devWallet */\n    tag_98:\n      0x01\n      0x00\n      swap1\n      sload\n      swap1\n      0x0100\n      exp\n      swap1\n      div\n      0xffffffffffffffffffffffffffffffffffffffff\n      and\n      dup2\n      jump\t// out\n        /* \"contracts/RecoveryVault.sol\":1364:1384  bool public isLocked */\n    tag_101:\n      0x08\n      0x00\n      swap1\n      sload\n      swap1\n      0x0100\n      exp\n      swap1\n      div\n      0xff\n      and\n      dup2\n      jump\t// out\n        /* \"contracts/RecoveryVault.sol\":983:1029  uint256 public constant ROUND_DELAY = 24 hours */\n    tag_105:\n        /* \"contracts/RecoveryVault.sol\":1021:1029  24 hours */\n      0x015180\n        /* \"contracts/RecoveryVault.sol\":983:1029  uint256 public constant ROUND_DELAY = 24 hours */\n      dup2\n      jump\t// out\n        /* \"contracts/RecoveryVault.sol\":2948:3053  function setDailyLimit(uint256 usdAmount) external onlyOwner {... */\n    tag_109:\n        /* \"https://raw.githubusercontent.com/OpenZeppelin/openzeppelin-contracts/refs/tags/v4.9.3/contracts/access/Ownable.sol\":1094:1107  _checkOwner() */\n      tag_256\n        /* \"https://raw.githubusercontent.com/OpenZeppelin/openzeppelin-contracts/refs/tags/v4.9.3/contracts/access/Ownable.sol\":1094:1105  _checkOwner */\n      tag_208\n        /* \"https://raw.githubusercontent.com/OpenZeppelin/openzeppelin-contracts/refs/tags/v4.9.3/contracts/access/Ownable.sol\":1094:1107  _checkOwner() */\n      jump\t// in\n    tag_256:\n        /* \"contracts/RecoveryVault.sol\":3036:3045  usdAmount */\n      dup1\n        /* \"contracts/RecoveryVault.sol\":3020:3033  dailyLimitUsd */\n      0x07\n        /* \"contracts/RecoveryVault.sol\":3020:3045  dailyLimitUsd = usdAmount */\n      dup2\n      swap1\n      sstore\n      pop\n        /* \"contracts/RecoveryVault.sol\":2948:3053  function setDailyLimit(uint256 usdAmount) external onlyOwner {... */\n      pop\n      jump\t// out\n        /* \"contracts/RecoveryVault.sol\":1329:1357  uint256 public dailyLimitUsd */\n    tag_111:\n      sload(0x07)\n      dup2\n      jump\t// out\n        /* \"contracts/RecoveryVault.sol\":1168:1192  address public rmcWallet */\n    tag_114:\n      0x02\n      0x00\n      swap1\n      sload\n      swap1\n      0x0100\n      exp\n      swap1\n      div\n      0xffffffffffffffffffffffffffffffffffffffff\n      and\n      dup2\n      jump\t// out\n        /* \"contracts/RecoveryVault.sol\":1423:1469  mapping(address => bool) public supportedToken */\n    tag_118:\n      mstore(0x20, 0x09)\n      dup1\n      0x00\n      mstore\n      keccak256(0x00, 0x40)\n      0x00\n      swap2\n      pop\n      sload\n      swap1\n      0x0100\n      exp\n      swap1\n      div\n      0xff\n      and\n      dup2\n      jump\t// out\n        /* \"contracts/RecoveryVault.sol\":2682:2807  function setSupportedToken(address token, bool allowed) external onlyOwner {... */\n    tag_123:\n        /* \"https://raw.githubusercontent.com/OpenZeppelin/openzeppelin-contracts/refs/tags/v4.9.3/contracts/access/Ownable.sol\":1094:1107  _checkOwner() */\n      tag_259\n        /* \"https://raw.githubusercontent.com/OpenZeppelin/openzeppelin-contracts/refs/tags/v4.9.3/contracts/access/Ownable.sol\":1094:1105  _checkOwner */\n      tag_208\n        /* \"https://raw.githubusercontent.com/OpenZeppelin/openzeppelin-contracts/refs/tags/v4.9.3/contracts/access/Ownable.sol\":1094:1107  _checkOwner() */\n      jump\t// in\n    tag_259:\n        /* \"contracts/RecoveryVault.sol\":2792:2799  allowed */\n      dup1\n        /* \"contracts/RecoveryVault.sol\":2768:2782  supportedToken */\n      0x09\n        /* \"contracts/RecoveryVault.sol\":2768:2789  supportedToken[token] */\n      0x00\n        /* \"contracts/RecoveryVault.sol\":2783:2788  token */\n      dup5\n        /* \"contracts/RecoveryVault.sol\":2768:2789  supportedToken[token] */\n      0xffffffffffffffffffffffffffffffffffffffff\n      and\n      0xffffffffffffffffffffffffffffffffffffffff\n      and\n      dup2\n      mstore\n      0x20\n      add\n      swap1\n      dup2\n      mstore\n      0x20\n      add\n      0x00\n      keccak256\n      0x00\n        /* \"contracts/RecoveryVault.sol\":2768:2799  supportedToken[token] = allowed */\n      0x0100\n      exp\n      dup2\n      sload\n      dup2\n      0xff\n      mul\n      not\n      and\n      swap1\n      dup4\n      iszero\n      iszero\n      mul\n      or\n      swap1\n      sstore\n      pop\n        /* \"contracts/RecoveryVault.sol\":2682:2807  function setSupportedToken(address token, bool allowed) external onlyOwner {... */\n      pop\n      pop\n      jump\t// out\n        /* \"contracts/RecoveryVault.sol\":5125:5658  function getUserLimit(address wallet) external view returns (uint256 remainingUSD) {... */\n    tag_126:\n        /* \"contracts/RecoveryVault.sol\":5186:5206  uint256 remainingUSD */\n      0x00\n        /* \"contracts/RecoveryVault.sol\":5219:5239  uint256 usdToOneRate */\n      dup1\n        /* \"contracts/RecoveryVault.sol\":5242:5248  oracle */\n      0x08\n      0x01\n      swap1\n      sload\n      swap1\n      0x0100\n      exp\n      swap1\n      div\n      0xffffffffffffffffffffffffffffffffffffffff\n      and\n        /* \"contracts/RecoveryVault.sol\":5242:5257  oracle.getPrice */\n      0xffffffffffffffffffffffffffffffffffffffff\n      and\n      0x98d5fdca\n        /* \"contracts/RecoveryVault.sol\":5242:5259  oracle.getPrice() */\n      mload(0x40)\n      dup2\n      0xffffffff\n      and\n      0xe0\n      shl\n      dup2\n      mstore\n      0x04\n      add\n      0x20\n      mload(0x40)\n      dup1\n      dup4\n      sub\n      dup2\n      dup7\n      gas\n      staticcall\n      iszero\n      dup1\n      iszero\n      tag_263\n      jumpi\n      returndatasize\n      0x00\n      dup1\n      returndatacopy\n      revert(0x00, returndatasize)\n    tag_263:\n      pop\n      pop\n      pop\n      pop\n      mload(0x40)\n      returndatasize\n      not(0x1f)\n      0x1f\n      dup3\n      add\n      and\n      dup3\n      add\n      dup1\n      0x40\n      mstore\n      pop\n      dup2\n      add\n      swap1\n      tag_264\n      swap2\n      swap1\n      tag_168\n      jump\t// in\n    tag_264:\n        /* \"contracts/RecoveryVault.sol\":5219:5259  uint256 usdToOneRate = oracle.getPrice() */\n      swap1\n      pop\n        /* \"contracts/RecoveryVault.sol\":5270:5287  uint256 maxAmount */\n      0x00\n        /* \"contracts/RecoveryVault.sol\":5315:5327  usdToOneRate */\n      dup2\n        /* \"contracts/RecoveryVault.sol\":5307:5311  1e18 */\n      0x0de0b6b3a7640000\n        /* \"contracts/RecoveryVault.sol\":5291:5304  dailyLimitUsd */\n      sload(0x07)\n        /* \"contracts/RecoveryVault.sol\":5291:5311  dailyLimitUsd * 1e18 */\n      tag_265\n      swap2\n      swap1\n      tag_170\n      jump\t// in\n    tag_265:\n        /* \"contracts/RecoveryVault.sol\":5290:5327  (dailyLimitUsd * 1e18) / usdToOneRate */\n      tag_266\n      swap2\n      swap1\n      tag_172\n      jump\t// in\n    tag_266:\n        /* \"contracts/RecoveryVault.sol\":5270:5327  uint256 maxAmount = (dailyLimitUsd * 1e18) / usdToOneRate */\n      swap1\n      pop\n        /* \"contracts/RecoveryVault.sol\":5338:5354  uint256 redeemed */\n      0x00\n        /* \"contracts/RecoveryVault.sol\":5357:5372  redeemedInRound */\n      0x0a\n        /* \"contracts/RecoveryVault.sol\":5357:5386  redeemedInRound[currentRound] */\n      0x00\n        /* \"contracts/RecoveryVault.sol\":5373:5385  currentRound */\n      sload(0x04)\n        /* \"contracts/RecoveryVault.sol\":5357:5386  redeemedInRound[currentRound] */\n      dup2\n      mstore\n      0x20\n      add\n      swap1\n      dup2\n      mstore\n      0x20\n      add\n      0x00\n      keccak256\n        /* \"contracts/RecoveryVault.sol\":5357:5394  redeemedInRound[currentRound][wallet] */\n      0x00\n        /* \"contracts/RecoveryVault.sol\":5387:5393  wallet */\n      dup7\n        /* \"contracts/RecoveryVault.sol\":5357:5394  redeemedInRound[currentRound][wallet] */\n      0xffffffffffffffffffffffffffffffffffffffff\n      and\n      0xffffffffffffffffffffffffffffffffffffffff\n      and\n      dup2\n      mstore\n      0x20\n      add\n      swap1\n      dup2\n      mstore\n      0x20\n      add\n      0x00\n      keccak256\n      sload\n        /* \"contracts/RecoveryVault.sol\":5338:5394  uint256 redeemed = redeemedInRound[currentRound][wallet] */\n      swap1\n      pop\n        /* \"contracts/RecoveryVault.sol\":1084:1092  24 hours */\n      0x015180\n        /* \"contracts/RecoveryVault.sol\":5429:5448  lastRedeemTimestamp */\n      0x0b\n        /* \"contracts/RecoveryVault.sol\":5429:5456  lastRedeemTimestamp[wallet] */\n      0x00\n        /* \"contracts/RecoveryVault.sol\":5449:5455  wallet */\n      dup8\n        /* \"contracts/RecoveryVault.sol\":5429:5456  lastRedeemTimestamp[wallet] */\n      0xffffffffffffffffffffffffffffffffffffffff\n      and\n      0xffffffffffffffffffffffffffffffffffffffff\n      and\n      dup2\n      mstore\n      0x20\n      add\n      swap1\n      dup2\n      mstore\n      0x20\n      add\n      0x00\n      keccak256\n      sload\n        /* \"contracts/RecoveryVault.sol\":5411:5426  block.timestamp */\n      timestamp\n        /* \"contracts/RecoveryVault.sol\":5411:5456  block.timestamp - lastRedeemTimestamp[wallet] */\n      tag_267\n      swap2\n      swap1\n      tag_181\n      jump\t// in\n    tag_267:\n        /* \"contracts/RecoveryVault.sol\":5411:5481  block.timestamp - lastRedeemTimestamp[wallet] >= WALLET_RESET_INTERVAL */\n      lt\n        /* \"contracts/RecoveryVault.sol\":5407:5522  if (block.timestamp - lastRedeemTimestamp[wallet] >= WALLET_RESET_INTERVAL) {... */\n      tag_268\n      jumpi\n        /* \"contracts/RecoveryVault.sol\":5509:5510  0 */\n      0x00\n        /* \"contracts/RecoveryVault.sol\":5498:5510  redeemed = 0 */\n      swap1\n      pop\n        /* \"contracts/RecoveryVault.sol\":5407:5522  if (block.timestamp - lastRedeemTimestamp[wallet] >= WALLET_RESET_INTERVAL) {... */\n    tag_268:\n        /* \"contracts/RecoveryVault.sol\":5532:5549  uint256 remaining */\n      0x00\n        /* \"contracts/RecoveryVault.sol\":5564:5572  redeemed */\n      dup2\n        /* \"contracts/RecoveryVault.sol\":5552:5561  maxAmount */\n      dup4\n        /* \"contracts/RecoveryVault.sol\":5552:5572  maxAmount > redeemed */\n      gt\n        /* \"contracts/RecoveryVault.sol\":5552:5599  maxAmount > redeemed ? maxAmount - redeemed : 0 */\n      tag_269\n      jumpi\n        /* \"contracts/RecoveryVault.sol\":5598:5599  0 */\n      0x00\n        /* \"contracts/RecoveryVault.sol\":5552:5599  maxAmount > redeemed ? maxAmount - redeemed : 0 */\n      jump(tag_270)\n    tag_269:\n        /* \"contracts/RecoveryVault.sol\":5587:5595  redeemed */\n      dup2\n        /* \"contracts/RecoveryVault.sol\":5575:5584  maxAmount */\n      dup4\n        /* \"contracts/RecoveryVault.sol\":5575:5595  maxAmount - redeemed */\n      tag_271\n      swap2\n      swap1\n      tag_181\n      jump\t// in\n    tag_271:\n        /* \"contracts/RecoveryVault.sol\":5552:5599  maxAmount > redeemed ? maxAmount - redeemed : 0 */\n    tag_270:\n        /* \"contracts/RecoveryVault.sol\":5532:5599  uint256 remaining = maxAmount > redeemed ? maxAmount - redeemed : 0 */\n      swap1\n      pop\n        /* \"contracts/RecoveryVault.sol\":5646:5650  1e18 */\n      0x0de0b6b3a7640000\n        /* \"contracts/RecoveryVault.sol\":5630:5642  usdToOneRate */\n      dup5\n        /* \"contracts/RecoveryVault.sol\":5618:5627  remaining */\n      dup3\n        /* \"contracts/RecoveryVault.sol\":5618:5642  remaining * usdToOneRate */\n      tag_272\n      swap2\n      swap1\n      tag_170\n      jump\t// in\n    tag_272:\n        /* \"contracts/RecoveryVault.sol\":5617:5650  (remaining * usdToOneRate) / 1e18 */\n      tag_273\n      swap2\n      swap1\n      tag_172\n      jump\t// in\n    tag_273:\n        /* \"contracts/RecoveryVault.sol\":5610:5650  return (remaining * usdToOneRate) / 1e18 */\n      swap5\n      pop\n      pop\n      pop\n      pop\n      pop\n        /* \"contracts/RecoveryVault.sol\":5125:5658  function getUserLimit(address wallet) external view returns (uint256 remainingUSD) {... */\n      swap2\n      swap1\n      pop\n      jump\t// out\n        /* \"https://raw.githubusercontent.com/OpenZeppelin/openzeppelin-contracts/refs/tags/v4.9.3/contracts/access/Ownable.sol\":2074:2272  function transferOwnership(address newOwner) public virtual onlyOwner {... */\n    tag_130:\n        /* \"https://raw.githubusercontent.com/OpenZeppelin/openzeppelin-contracts/refs/tags/v4.9.3/contracts/access/Ownable.sol\":1094:1107  _checkOwner() */\n      tag_275\n        /* \"https://raw.githubusercontent.com/OpenZeppelin/openzeppelin-contracts/refs/tags/v4.9.3/contracts/access/Ownable.sol\":1094:1105  _checkOwner */\n      tag_208\n        /* \"https://raw.githubusercontent.com/OpenZeppelin/openzeppelin-contracts/refs/tags/v4.9.3/contracts/access/Ownable.sol\":1094:1107  _checkOwner() */\n      jump\t// in\n    tag_275:\n        /* \"https://raw.githubusercontent.com/OpenZeppelin/openzeppelin-contracts/refs/tags/v4.9.3/contracts/access/Ownable.sol\":2182:2183  0 */\n      0x00\n        /* \"https://raw.githubusercontent.com/OpenZeppelin/openzeppelin-contracts/refs/tags/v4.9.3/contracts/access/Ownable.sol\":2162:2184  newOwner != address(0) */\n      0xffffffffffffffffffffffffffffffffffffffff\n      and\n        /* \"https://raw.githubusercontent.com/OpenZeppelin/openzeppelin-contracts/refs/tags/v4.9.3/contracts/access/Ownable.sol\":2162:2170  newOwner */\n      dup2\n        /* \"https://raw.githubusercontent.com/OpenZeppelin/openzeppelin-contracts/refs/tags/v4.9.3/contracts/access/Ownable.sol\":2162:2184  newOwner != address(0) */\n      0xffffffffffffffffffffffffffffffffffffffff\n      and\n      sub\n        /* \"https://raw.githubusercontent.com/OpenZeppelin/openzeppelin-contracts/refs/tags/v4.9.3/contracts/access/Ownable.sol\":2154:2227  require(newOwner != address(0), \"Ownable: new owner is the zero address\") */\n      tag_277\n      jumpi\n      mload(0x40)\n      0x08c379a000000000000000000000000000000000000000000000000000000000\n      dup2\n      mstore\n      0x04\n      add\n      tag_278\n      swap1\n      tag_279\n      jump\t// in\n    tag_278:\n      mload(0x40)\n      dup1\n      swap2\n      sub\n      swap1\n      revert\n    tag_277:\n        /* \"https://raw.githubusercontent.com/OpenZeppelin/openzeppelin-contracts/refs/tags/v4.9.3/contracts/access/Ownable.sol\":2237:2265  _transferOwnership(newOwner) */\n      tag_280\n        /* \"https://raw.githubusercontent.com/OpenZeppelin/openzeppelin-contracts/refs/tags/v4.9.3/contracts/access/Ownable.sol\":2256:2264  newOwner */\n      dup2\n        /* \"https://raw.githubusercontent.com/OpenZeppelin/openzeppelin-contracts/refs/tags/v4.9.3/contracts/access/Ownable.sol\":2237:2255  _transferOwnership */\n      tag_247\n        /* \"https://raw.githubusercontent.com/OpenZeppelin/openzeppelin-contracts/refs/tags/v4.9.3/contracts/access/Ownable.sol\":2237:2265  _transferOwnership(newOwner) */\n      jump\t// in\n    tag_280:\n        /* \"https://raw.githubusercontent.com/OpenZeppelin/openzeppelin-contracts/refs/tags/v4.9.3/contracts/access/Ownable.sol\":2074:2272  function transferOwnership(address newOwner) public virtual onlyOwner {... */\n      pop\n      jump\t// out\n        /* \"contracts/RecoveryVault.sol\":6094:6287  function _verifyWhitelist(address user, bytes32[] calldata proof) internal view returns (bool) {... */\n    tag_143:\n        /* \"contracts/RecoveryVault.sol\":6183:6187  bool */\n      0x00\n        /* \"contracts/RecoveryVault.sol\":6207:6279  MerkleProof.verify(proof, merkleRoot, keccak256(abi.encodePacked(user))) */\n      tag_282\n        /* \"contracts/RecoveryVault.sol\":6226:6231  proof */\n      dup4\n      dup4\n        /* \"contracts/RecoveryVault.sol\":6207:6279  MerkleProof.verify(proof, merkleRoot, keccak256(abi.encodePacked(user))) */\n      dup1\n      dup1\n      0x20\n      mul\n      0x20\n      add\n      mload(0x40)\n      swap1\n      dup2\n      add\n      0x40\n      mstore\n      dup1\n      swap4\n      swap3\n      swap2\n      swap1\n      dup2\n      dup2\n      mstore\n      0x20\n      add\n      dup4\n      dup4\n      0x20\n      mul\n      dup1\n      dup3\n      dup5\n      calldatacopy\n      0x00\n      dup2\n      dup5\n      add\n      mstore\n      not(0x1f)\n      0x1f\n      dup3\n      add\n      and\n      swap1\n      pop\n      dup1\n      dup4\n      add\n      swap3\n      pop\n      pop\n      pop\n      pop\n      pop\n      pop\n      pop\n        /* \"contracts/RecoveryVault.sol\":6233:6243  merkleRoot */\n      sload(0x03)\n        /* \"contracts/RecoveryVault.sol\":6272:6276  user */\n      dup7\n        /* \"contracts/RecoveryVault.sol\":6255:6277  abi.encodePacked(user) */\n      add(0x20, mload(0x40))\n      tag_283\n      swap2\n      swap1\n      tag_284\n      jump\t// in\n    tag_283:\n      mload(0x40)\n      0x20\n      dup2\n      dup4\n      sub\n      sub\n      dup2\n      mstore\n      swap1\n      0x40\n      mstore\n        /* \"contracts/RecoveryVault.sol\":6245:6278  keccak256(abi.encodePacked(user)) */\n      dup1\n      mload\n      swap1\n      0x20\n      add\n      keccak256\n        /* \"contracts/RecoveryVault.sol\":6207:6225  MerkleProof.verify */\n      tag_285\n        /* \"contracts/RecoveryVault.sol\":6207:6279  MerkleProof.verify(proof, merkleRoot, keccak256(abi.encodePacked(user))) */\n      jump\t// in\n    tag_282:\n        /* \"contracts/RecoveryVault.sol\":6200:6279  return MerkleProof.verify(proof, merkleRoot, keccak256(abi.encodePacked(user))) */\n      swap1\n      pop\n        /* \"contracts/RecoveryVault.sol\":6094:6287  function _verifyWhitelist(address user, bytes32[] calldata proof) internal view returns (bool) {... */\n      swap4\n      swap3\n      pop\n      pop\n      pop\n      jump\t// out\n        /* \"contracts/RecoveryVault.sol\":6295:6554  function _resetIfNeeded(address user) internal {... */\n    tag_164:\n        /* \"contracts/RecoveryVault.sol\":1084:1092  24 hours */\n      0x015180\n        /* \"contracts/RecoveryVault.sol\":6375:6394  lastRedeemTimestamp */\n      0x0b\n        /* \"contracts/RecoveryVault.sol\":6375:6400  lastRedeemTimestamp[user] */\n      0x00\n        /* \"contracts/RecoveryVault.sol\":6395:6399  user */\n      dup4\n        /* \"contracts/RecoveryVault.sol\":6375:6400  lastRedeemTimestamp[user] */\n      0xffffffffffffffffffffffffffffffffffffffff\n      and\n      0xffffffffffffffffffffffffffffffffffffffff\n      and\n      dup2\n      mstore\n      0x20\n      add\n      swap1\n      dup2\n      mstore\n      0x20\n      add\n      0x00\n      keccak256\n      sload\n        /* \"contracts/RecoveryVault.sol\":6357:6372  block.timestamp */\n      timestamp\n        /* \"contracts/RecoveryVault.sol\":6357:6400  block.timestamp - lastRedeemTimestamp[user] */\n      tag_287\n      swap2\n      swap1\n      tag_181\n      jump\t// in\n    tag_287:\n        /* \"contracts/RecoveryVault.sol\":6357:6425  block.timestamp - lastRedeemTimestamp[user] >= WALLET_RESET_INTERVAL */\n      lt\n        /* \"contracts/RecoveryVault.sol\":6353:6493  if (block.timestamp - lastRedeemTimestamp[user] >= WALLET_RESET_INTERVAL) {... */\n      tag_288\n      jumpi\n        /* \"contracts/RecoveryVault.sol\":6480:6481  0 */\n      0x00\n        /* \"contracts/RecoveryVault.sol\":6442:6457  redeemedInRound */\n      0x0a\n        /* \"contracts/RecoveryVault.sol\":6442:6471  redeemedInRound[currentRound] */\n      0x00\n        /* \"contracts/RecoveryVault.sol\":6458:6470  currentRound */\n      sload(0x04)\n        /* \"contracts/RecoveryVault.sol\":6442:6471  redeemedInRound[currentRound] */\n      dup2\n      mstore\n      0x20\n      add\n      swap1\n      dup2\n      mstore\n      0x20\n      add\n      0x00\n      keccak256\n        /* \"contracts/RecoveryVault.sol\":6442:6477  redeemedInRound[currentRound][user] */\n      0x00\n        /* \"contracts/RecoveryVault.sol\":6472:6476  user */\n      dup4\n        /* \"contracts/RecoveryVault.sol\":6442:6477  redeemedInRound[currentRound][user] */\n      0xffffffffffffffffffffffffffffffffffffffff\n      and\n      0xffffffffffffffffffffffffffffffffffffffff\n      and\n      dup2\n      mstore\n      0x20\n      add\n      swap1\n      dup2\n      mstore\n      0x20\n      add\n      0x00\n      keccak256\n        /* \"contracts/RecoveryVault.sol\":6442:6481  redeemedInRound[currentRound][user] = 0 */\n      dup2\n      swap1\n      sstore\n      pop\n        /* \"contracts/RecoveryVault.sol\":6353:6493  if (block.timestamp - lastRedeemTimestamp[user] >= WALLET_RESET_INTERVAL) {... */\n    tag_288:\n        /* \"contracts/RecoveryVault.sol\":6531:6546  block.timestamp */\n      timestamp\n        /* \"contracts/RecoveryVault.sol\":6503:6522  lastRedeemTimestamp */\n      0x0b\n        /* \"contracts/RecoveryVault.sol\":6503:6528  lastRedeemTimestamp[user] */\n      0x00\n        /* \"contracts/RecoveryVault.sol\":6523:6527  user */\n      dup4\n        /* \"contracts/RecoveryVault.sol\":6503:6528  lastRedeemTimestamp[user] */\n      0xffffffffffffffffffffffffffffffffffffffff\n      and\n      0xffffffffffffffffffffffffffffffffffffffff\n      and\n      dup2\n      mstore\n      0x20\n      add\n      swap1\n      dup2\n      mstore\n      0x20\n      add\n      0x00\n      keccak256\n        /* \"contracts/RecoveryVault.sol\":6503:6546  lastRedeemTimestamp[user] = block.timestamp */\n      dup2\n      swap1\n      sstore\n      pop\n        /* \"contracts/RecoveryVault.sol\":6295:6554  function _resetIfNeeded(address user) internal {... */\n      pop\n      jump\t// out\n        /* \"contracts/RecoveryVault.sol\":5666:6086  function _calculateFee(uint256 amountIn, uint256 usdToOneRate) internal pure returns (uint256) {... */\n    tag_179:\n        /* \"contracts/RecoveryVault.sol\":5752:5759  uint256 */\n      0x00\n        /* \"contracts/RecoveryVault.sol\":5772:5788  uint256 usdValue */\n      dup1\n        /* \"contracts/RecoveryVault.sol\":5819:5823  1e18 */\n      0x0de0b6b3a7640000\n        /* \"contracts/RecoveryVault.sol\":5803:5815  usdToOneRate */\n      dup4\n        /* \"contracts/RecoveryVault.sol\":5792:5800  amountIn */\n      dup6\n        /* \"contracts/RecoveryVault.sol\":5792:5815  amountIn * usdToOneRate */\n      tag_290\n      swap2\n      swap1\n      tag_170\n      jump\t// in\n    tag_290:\n        /* \"contracts/RecoveryVault.sol\":5791:5823  (amountIn * usdToOneRate) / 1e18 */\n      tag_291\n      swap2\n      swap1\n      tag_172\n      jump\t// in\n    tag_291:\n        /* \"contracts/RecoveryVault.sol\":5772:5823  uint256 usdValue = (amountIn * usdToOneRate) / 1e18 */\n      swap1\n      pop\n        /* \"contracts/RecoveryVault.sol\":5850:5860  100_000e18 */\n      0x152d02c7e14af6800000\n        /* \"contracts/RecoveryVault.sol\":5838:5846  usdValue */\n      dup2\n        /* \"contracts/RecoveryVault.sol\":5838:5860  usdValue <= 100_000e18 */\n      gt\n        /* \"contracts/RecoveryVault.sol\":5834:5894  if (usdValue <= 100_000e18) return (amountIn * 100) / 10_000 */\n      tag_292\n      jumpi\n        /* \"contracts/RecoveryVault.sol\":5888:5894  10_000 */\n      0x2710\n        /* \"contracts/RecoveryVault.sol\":5881:5884  100 */\n      0x64\n        /* \"contracts/RecoveryVault.sol\":5870:5878  amountIn */\n      dup6\n        /* \"contracts/RecoveryVault.sol\":5870:5884  amountIn * 100 */\n      tag_293\n      swap2\n      swap1\n      tag_170\n      jump\t// in\n    tag_293:\n        /* \"contracts/RecoveryVault.sol\":5869:5894  (amountIn * 100) / 10_000 */\n      tag_294\n      swap2\n      swap1\n      tag_172\n      jump\t// in\n    tag_294:\n        /* \"contracts/RecoveryVault.sol\":5862:5894  return (amountIn * 100) / 10_000 */\n      swap2\n      pop\n      pop\n      jump(tag_289)\n        /* \"contracts/RecoveryVault.sol\":5834:5894  if (usdValue <= 100_000e18) return (amountIn * 100) / 10_000 */\n    tag_292:\n        /* \"contracts/RecoveryVault.sol\":5921:5931  250_000e18 */\n      0x34f086f3b33b68400000\n        /* \"contracts/RecoveryVault.sol\":5909:5917  usdValue */\n      dup2\n        /* \"contracts/RecoveryVault.sol\":5909:5931  usdValue <= 250_000e18 */\n      gt\n        /* \"contracts/RecoveryVault.sol\":5905:5964  if (usdValue <= 250_000e18) return (amountIn * 50) / 10_000 */\n      tag_295\n      jumpi\n        /* \"contracts/RecoveryVault.sol\":5958:5964  10_000 */\n      0x2710\n        /* \"contracts/RecoveryVault.sol\":5952:5954  50 */\n      0x32\n        /* \"contracts/RecoveryVault.sol\":5941:5949  amountIn */\n      dup6\n        /* \"contracts/RecoveryVault.sol\":5941:5954  amountIn * 50 */\n      tag_296\n      swap2\n      swap1\n      tag_170\n      jump\t// in\n    tag_296:\n        /* \"contracts/RecoveryVault.sol\":5940:5964  (amountIn * 50) / 10_000 */\n      tag_297\n      swap2\n      swap1\n      tag_172\n      jump\t// in\n    tag_297:\n        /* \"contracts/RecoveryVault.sol\":5933:5964  return (amountIn * 50) / 10_000 */\n      swap2\n      pop\n      pop\n      jump(tag_289)\n        /* \"contracts/RecoveryVault.sol\":5905:5964  if (usdValue <= 250_000e18) return (amountIn * 50) / 10_000 */\n    tag_295:\n        /* \"contracts/RecoveryVault.sol\":5991:6003  1_000_000e18 */\n      0xd3c21bcecceda1000000\n        /* \"contracts/RecoveryVault.sol\":5979:5987  usdValue */\n      dup2\n        /* \"contracts/RecoveryVault.sol\":5979:6003  usdValue <= 1_000_000e18 */\n      gt\n        /* \"contracts/RecoveryVault.sol\":5975:6036  if (usdValue <= 1_000_000e18) return (amountIn * 25) / 10_000 */\n      tag_298\n      jumpi\n        /* \"contracts/RecoveryVault.sol\":6030:6036  10_000 */\n      0x2710\n        /* \"contracts/RecoveryVault.sol\":6024:6026  25 */\n      0x19\n        /* \"contracts/RecoveryVault.sol\":6013:6021  amountIn */\n      dup6\n        /* \"contracts/RecoveryVault.sol\":6013:6026  amountIn * 25 */\n      tag_299\n      swap2\n      swap1\n      tag_170\n      jump\t// in\n    tag_299:\n        /* \"contracts/RecoveryVault.sol\":6012:6036  (amountIn * 25) / 10_000 */\n      tag_300\n      swap2\n      swap1\n      tag_172\n      jump\t// in\n    tag_300:\n        /* \"contracts/RecoveryVault.sol\":6005:6036  return (amountIn * 25) / 10_000 */\n      swap2\n      pop\n      pop\n      jump(tag_289)\n        /* \"contracts/RecoveryVault.sol\":5975:6036  if (usdValue <= 1_000_000e18) return (amountIn * 25) / 10_000 */\n    tag_298:\n        /* \"contracts/RecoveryVault.sol\":6072:6078  10_000 */\n      0x2710\n        /* \"contracts/RecoveryVault.sol\":6066:6068  10 */\n      0x0a\n        /* \"contracts/RecoveryVault.sol\":6055:6063  amountIn */\n      dup6\n        /* \"contracts/RecoveryVault.sol\":6055:6068  amountIn * 10 */\n      tag_301\n      swap2\n      swap1\n      tag_170\n      jump\t// in\n    tag_301:\n        /* \"contracts/RecoveryVault.sol\":6054:6078  (amountIn * 10) / 10_000 */\n      tag_302\n      swap2\n      swap1\n      tag_172\n      jump\t// in\n    tag_302:\n        /* \"contracts/RecoveryVault.sol\":6047:6078  return (amountIn * 10) / 10_000 */\n      swap2\n      pop\n      pop\n        /* \"contracts/RecoveryVault.sol\":5666:6086  function _calculateFee(uint256 amountIn, uint256 usdToOneRate) internal pure returns (uint256) {... */\n    tag_289:\n      swap3\n      swap2\n      pop\n      pop\n      jump\t// out\n        /* \"https://raw.githubusercontent.com/OpenZeppelin/openzeppelin-contracts/refs/tags/v4.9.3/contracts/access/Ownable.sol\":1359:1489  function _checkOwner() internal view virtual {... */\n    tag_208:\n        /* \"https://raw.githubusercontent.com/OpenZeppelin/openzeppelin-contracts/refs/tags/v4.9.3/contracts/access/Ownable.sol\":1433:1445  _msgSender() */\n      tag_304\n        /* \"https://raw.githubusercontent.com/OpenZeppelin/openzeppelin-contracts/refs/tags/v4.9.3/contracts/access/Ownable.sol\":1433:1443  _msgSender */\n      tag_305\n        /* \"https://raw.githubusercontent.com/OpenZeppelin/openzeppelin-contracts/refs/tags/v4.9.3/contracts/access/Ownable.sol\":1433:1445  _msgSender() */\n      jump\t// in\n    tag_304:\n        /* \"https://raw.githubusercontent.com/OpenZeppelin/openzeppelin-contracts/refs/tags/v4.9.3/contracts/access/Ownable.sol\":1422:1445  owner() == _msgSender() */\n      0xffffffffffffffffffffffffffffffffffffffff\n      and\n        /* \"https://raw.githubusercontent.com/OpenZeppelin/openzeppelin-contracts/refs/tags/v4.9.3/contracts/access/Ownable.sol\":1422:1429  owner() */\n      tag_306\n        /* \"https://raw.githubusercontent.com/OpenZeppelin/openzeppelin-contracts/refs/tags/v4.9.3/contracts/access/Ownable.sol\":1422:1427  owner */\n      tag_95\n        /* \"https://raw.githubusercontent.com/OpenZeppelin/openzeppelin-contracts/refs/tags/v4.9.3/contracts/access/Ownable.sol\":1422:1429  owner() */\n      jump\t// in\n    tag_306:\n        /* \"https://raw.githubusercontent.com/OpenZeppelin/openzeppelin-contracts/refs/tags/v4.9.3/contracts/access/Ownable.sol\":1422:1445  owner() == _msgSender() */\n      0xffffffffffffffffffffffffffffffffffffffff\n      and\n      eq\n        /* \"https://raw.githubusercontent.com/OpenZeppelin/openzeppelin-contracts/refs/tags/v4.9.3/contracts/access/Ownable.sol\":1414:1482  require(owner() == _msgSender(), \"Ownable: caller is not the owner\") */\n      tag_307\n      jumpi\n      mload(0x40)\n      0x08c379a000000000000000000000000000000000000000000000000000000000\n      dup2\n      mstore\n      0x04\n      add\n      tag_308\n      swap1\n      tag_309\n      jump\t// in\n    tag_308:\n      mload(0x40)\n      dup1\n      swap2\n      sub\n      swap1\n      revert\n    tag_307:\n        /* \"https://raw.githubusercontent.com/OpenZeppelin/openzeppelin-contracts/refs/tags/v4.9.3/contracts/access/Ownable.sol\":1359:1489  function _checkOwner() internal view virtual {... */\n      jump\t// out\n        /* \"https://raw.githubusercontent.com/OpenZeppelin/openzeppelin-contracts/refs/tags/v4.9.3/contracts/access/Ownable.sol\":2426:2613  function _transferOwnership(address newOwner) internal virtual {... */\n    tag_247:\n        /* \"https://raw.githubusercontent.com/OpenZeppelin/openzeppelin-contracts/refs/tags/v4.9.3/contracts/access/Ownable.sol\":2499:2515  address oldOwner */\n      0x00\n        /* \"https://raw.githubusercontent.com/OpenZeppelin/openzeppelin-contracts/refs/tags/v4.9.3/contracts/access/Ownable.sol\":2518:2524  _owner */\n      dup1\n      0x00\n      swap1\n      sload\n      swap1\n      0x0100\n      exp\n      swap1\n      div\n      0xffffffffffffffffffffffffffffffffffffffff\n      and\n        /* \"https://raw.githubusercontent.com/OpenZeppelin/openzeppelin-contracts/refs/tags/v4.9.3/contracts/access/Ownable.sol\":2499:2524  address oldOwner = _owner */\n      swap1\n      pop\n        /* \"https://raw.githubusercontent.com/OpenZeppelin/openzeppelin-contracts/refs/tags/v4.9.3/contracts/access/Ownable.sol\":2543:2551  newOwner */\n      dup2\n        /* \"https://raw.githubusercontent.com/OpenZeppelin/openzeppelin-contracts/refs/tags/v4.9.3/contracts/access/Ownable.sol\":2534:2540  _owner */\n      0x00\n      dup1\n        /* \"https://raw.githubusercontent.com/OpenZeppelin/openzeppelin-contracts/refs/tags/v4.9.3/contracts/access/Ownable.sol\":2534:2551  _owner = newOwner */\n      0x0100\n      exp\n      dup2\n      sload\n      dup2\n      0xffffffffffffffffffffffffffffffffffffffff\n      mul\n      not\n      and\n      swap1\n      dup4\n      0xffffffffffffffffffffffffffffffffffffffff\n      and\n      mul\n      or\n      swap1\n      sstore\n      pop\n        /* \"https://raw.githubusercontent.com/OpenZeppelin/openzeppelin-contracts/refs/tags/v4.9.3/contracts/access/Ownable.sol\":2597:2605  newOwner */\n      dup2\n        /* \"https://raw.githubusercontent.com/OpenZeppelin/openzeppelin-contracts/refs/tags/v4.9.3/contracts/access/Ownable.sol\":2566:2606  OwnershipTransferred(oldOwner, newOwner) */\n      0xffffffffffffffffffffffffffffffffffffffff\n      and\n        /* \"https://raw.githubusercontent.com/OpenZeppelin/openzeppelin-contracts/refs/tags/v4.9.3/contracts/access/Ownable.sol\":2587:2595  oldOwner */\n      dup2\n        /* \"https://raw.githubusercontent.com/OpenZeppelin/openzeppelin-contracts/refs/tags/v4.9.3/contracts/access/Ownable.sol\":2566:2606  OwnershipTransferred(oldOwner, newOwner) */\n      0xffffffffffffffffffffffffffffffffffffffff\n      and\n      0x8be0079c531659141344cd1fd0a4f28419497f9722a3daafe3b4186f6b6457e0\n      mload(0x40)\n      mload(0x40)\n      dup1\n      swap2\n      sub\n      swap1\n      log3\n        /* \"https://raw.githubusercontent.com/OpenZeppelin/openzeppelin-contracts/refs/tags/v4.9.3/contracts/access/Ownable.sol\":2489:2613  {... */\n      pop\n        /* \"https://raw.githubusercontent.com/OpenZeppelin/openzeppelin-contracts/refs/tags/v4.9.3/contracts/access/Ownable.sol\":2426:2613  function _transferOwnership(address newOwner) internal virtual {... */\n      pop\n      jump\t// out\n        /* \"https://raw.githubusercontent.com/OpenZeppelin/openzeppelin-contracts/refs/tags/v4.9.3/contracts/utils/cryptography/MerkleProof.sol\":1156:1310  function verify(bytes32[] memory proof, bytes32 root, bytes32 leaf) internal pure returns (bool) {... */\n    tag_285:\n        /* \"https://raw.githubusercontent.com/OpenZeppelin/openzeppelin-contracts/refs/tags/v4.9.3/contracts/utils/cryptography/MerkleProof.sol\":1247:1251  bool */\n      0x00\n        /* \"https://raw.githubusercontent.com/OpenZeppelin/openzeppelin-contracts/refs/tags/v4.9.3/contracts/utils/cryptography/MerkleProof.sol\":1299:1303  root */\n      dup3\n        /* \"https://raw.githubusercontent.com/OpenZeppelin/openzeppelin-contracts/refs/tags/v4.9.3/contracts/utils/cryptography/MerkleProof.sol\":1270:1295  processProof(proof, leaf) */\n      tag_312\n        /* \"https://raw.githubusercontent.com/OpenZeppelin/openzeppelin-contracts/refs/tags/v4.9.3/contracts/utils/cryptography/MerkleProof.sol\":1283:1288  proof */\n      dup6\n        /* \"https://raw.githubusercontent.com/OpenZeppelin/openzeppelin-contracts/refs/tags/v4.9.3/contracts/utils/cryptography/MerkleProof.sol\":1290:1294  leaf */\n      dup5\n        /* \"https://raw.githubusercontent.com/OpenZeppelin/openzeppelin-contracts/refs/tags/v4.9.3/contracts/utils/cryptography/MerkleProof.sol\":1270:1282  processProof */\n      tag_313\n        /* \"https://raw.githubusercontent.com/OpenZeppelin/openzeppelin-contracts/refs/tags/v4.9.3/contracts/utils/cryptography/MerkleProof.sol\":1270:1295  processProof(proof, leaf) */\n      jump\t// in\n    tag_312:\n        /* \"https://raw.githubusercontent.com/OpenZeppelin/openzeppelin-contracts/refs/tags/v4.9.3/contracts/utils/cryptography/MerkleProof.sol\":1270:1303  processProof(proof, leaf) == root */\n      eq\n        /* \"https://raw.githubusercontent.com/OpenZeppelin/openzeppelin-contracts/refs/tags/v4.9.3/contracts/utils/cryptography/MerkleProof.sol\":1263:1303  return processProof(proof, leaf) == root */\n      swap1\n      pop\n        /* \"https://raw.githubusercontent.com/OpenZeppelin/openzeppelin-contracts/refs/tags/v4.9.3/contracts/utils/cryptography/MerkleProof.sol\":1156:1310  function verify(bytes32[] memory proof, bytes32 root, bytes32 leaf) internal pure returns (bool) {... */\n      swap4\n      swap3\n      pop\n      pop\n      pop\n      jump\t// out\n        /* \"https://raw.githubusercontent.com/OpenZeppelin/openzeppelin-contracts/refs/tags/v4.9.3/contracts/utils/Context.sol\":640:736  function _msgSender() internal view virtual returns (address) {... */\n    tag_305:\n        /* \"https://raw.githubusercontent.com/OpenZeppelin/openzeppelin-contracts/refs/tags/v4.9.3/contracts/utils/Context.sol\":693:700  address */\n      0x00\n        /* \"https://raw.githubusercontent.com/OpenZeppelin/openzeppelin-contracts/refs/tags/v4.9.3/contracts/utils/Context.sol\":719:729  msg.sender */\n      caller\n        /* \"https://raw.githubusercontent.com/OpenZeppelin/openzeppelin-contracts/refs/tags/v4.9.3/contracts/utils/Context.sol\":712:729  return msg.sender */\n      swap1\n      pop\n        /* \"https://raw.githubusercontent.com/OpenZeppelin/openzeppelin-contracts/refs/tags/v4.9.3/contracts/utils/Context.sol\":640:736  function _msgSender() internal view virtual returns (address) {... */\n      swap1\n      jump\t// out\n        /* \"https://raw.githubusercontent.com/OpenZeppelin/openzeppelin-contracts/refs/tags/v4.9.3/contracts/utils/cryptography/MerkleProof.sol\":1934:2224  function processProof(bytes32[] memory proof, bytes32 leaf) internal pure returns (bytes32) {... */\n    tag_313:\n        /* \"https://raw.githubusercontent.com/OpenZeppelin/openzeppelin-contracts/refs/tags/v4.9.3/contracts/utils/cryptography/MerkleProof.sol\":2017:2024  bytes32 */\n      0x00\n        /* \"https://raw.githubusercontent.com/OpenZeppelin/openzeppelin-contracts/refs/tags/v4.9.3/contracts/utils/cryptography/MerkleProof.sol\":2036:2056  bytes32 computedHash */\n      dup1\n        /* \"https://raw.githubusercontent.com/OpenZeppelin/openzeppelin-contracts/refs/tags/v4.9.3/contracts/utils/cryptography/MerkleProof.sol\":2059:2063  leaf */\n      dup3\n        /* \"https://raw.githubusercontent.com/OpenZeppelin/openzeppelin-contracts/refs/tags/v4.9.3/contracts/utils/cryptography/MerkleProof.sol\":2036:2063  bytes32 computedHash = leaf */\n      swap1\n      pop\n        /* \"https://raw.githubusercontent.com/OpenZeppelin/openzeppelin-contracts/refs/tags/v4.9.3/contracts/utils/cryptography/MerkleProof.sol\":2078:2087  uint256 i */\n      0x00\n        /* \"https://raw.githubusercontent.com/OpenZeppelin/openzeppelin-contracts/refs/tags/v4.9.3/contracts/utils/cryptography/MerkleProof.sol\":2073:2189  for (uint256 i = 0; i < proof.length; i++) {... */\n    tag_316:\n        /* \"https://raw.githubusercontent.com/OpenZeppelin/openzeppelin-contracts/refs/tags/v4.9.3/contracts/utils/cryptography/MerkleProof.sol\":2097:2102  proof */\n      dup5\n        /* \"https://raw.githubusercontent.com/OpenZeppelin/openzeppelin-contracts/refs/tags/v4.9.3/contracts/utils/cryptography/MerkleProof.sol\":2097:2109  proof.length */\n      mload\n        /* \"https://raw.githubusercontent.com/OpenZeppelin/openzeppelin-contracts/refs/tags/v4.9.3/contracts/utils/cryptography/MerkleProof.sol\":2093:2094  i */\n      dup2\n        /* \"https://raw.githubusercontent.com/OpenZeppelin/openzeppelin-contracts/refs/tags/v4.9.3/contracts/utils/cryptography/MerkleProof.sol\":2093:2109  i < proof.length */\n      lt\n        /* \"https://raw.githubusercontent.com/OpenZeppelin/openzeppelin-contracts/refs/tags/v4.9.3/contracts/utils/cryptography/MerkleProof.sol\":2073:2189  for (uint256 i = 0; i < proof.length; i++) {... */\n      iszero\n      tag_317\n      jumpi\n        /* \"https://raw.githubusercontent.com/OpenZeppelin/openzeppelin-contracts/refs/tags/v4.9.3/contracts/utils/cryptography/MerkleProof.sol\":2145:2178  _hashPair(computedHash, proof[i]) */\n      tag_319\n        /* \"https://raw.githubusercontent.com/OpenZeppelin/openzeppelin-contracts/refs/tags/v4.9.3/contracts/utils/cryptography/MerkleProof.sol\":2155:2167  computedHash */\n      dup3\n        /* \"https://raw.githubusercontent.com/OpenZeppelin/openzeppelin-contracts/refs/tags/v4.9.3/contracts/utils/cryptography/MerkleProof.sol\":2169:2174  proof */\n      dup7\n        /* \"https://raw.githubusercontent.com/OpenZeppelin/openzeppelin-contracts/refs/tags/v4.9.3/contracts/utils/cryptography/MerkleProof.sol\":2175:2176  i */\n      dup4\n        /* \"https://raw.githubusercontent.com/OpenZeppelin/openzeppelin-contracts/refs/tags/v4.9.3/contracts/utils/cryptography/MerkleProof.sol\":2169:2177  proof[i] */\n      dup2\n      mload\n      dup2\n      lt\n      tag_320\n      jumpi\n      tag_321\n      tag_322\n      jump\t// in\n    tag_321:\n    tag_320:\n      0x20\n      mul\n      0x20\n      add\n      add\n      mload\n        /* \"https://raw.githubusercontent.com/OpenZeppelin/openzeppelin-contracts/refs/tags/v4.9.3/contracts/utils/cryptography/MerkleProof.sol\":2145:2154  _hashPair */\n      tag_323\n        /* \"https://raw.githubusercontent.com/OpenZeppelin/openzeppelin-contracts/refs/tags/v4.9.3/contracts/utils/cryptography/MerkleProof.sol\":2145:2178  _hashPair(computedHash, proof[i]) */\n      jump\t// in\n    tag_319:\n        /* \"https://raw.githubusercontent.com/OpenZeppelin/openzeppelin-contracts/refs/tags/v4.9.3/contracts/utils/cryptography/MerkleProof.sol\":2130:2178  computedHash = _hashPair(computedHash, proof[i]) */\n      swap2\n      pop\n        /* \"https://raw.githubusercontent.com/OpenZeppelin/openzeppelin-contracts/refs/tags/v4.9.3/contracts/utils/cryptography/MerkleProof.sol\":2111:2114  i++ */\n      dup1\n      dup1\n      tag_324\n      swap1\n      tag_325\n      jump\t// in\n    tag_324:\n      swap2\n      pop\n      pop\n        /* \"https://raw.githubusercontent.com/OpenZeppelin/openzeppelin-contracts/refs/tags/v4.9.3/contracts/utils/cryptography/MerkleProof.sol\":2073:2189  for (uint256 i = 0; i < proof.length; i++) {... */\n      jump(tag_316)\n    tag_317:\n      pop\n        /* \"https://raw.githubusercontent.com/OpenZeppelin/openzeppelin-contracts/refs/tags/v4.9.3/contracts/utils/cryptography/MerkleProof.sol\":2205:2217  computedHash */\n      dup1\n        /* \"https://raw.githubusercontent.com/OpenZeppelin/openzeppelin-contracts/refs/tags/v4.9.3/contracts/utils/cryptography/MerkleProof.sol\":2198:2217  return computedHash */\n      swap2\n      pop\n      pop\n        /* \"https://raw.githubusercontent.com/OpenZeppelin/openzeppelin-contracts/refs/tags/v4.9.3/contracts/utils/cryptography/MerkleProof.sol\":1934:2224  function processProof(bytes32[] memory proof, bytes32 leaf) internal pure returns (bytes32) {... */\n      swap3\n      swap2\n      pop\n      pop\n      jump\t// out\n        /* \"https://raw.githubusercontent.com/OpenZeppelin/openzeppelin-contracts/refs/tags/v4.9.3/contracts/utils/cryptography/MerkleProof.sol\":9205:9352  function _hashPair(bytes32 a, bytes32 b) private pure returns (bytes32) {... */\n    tag_323:\n        /* \"https://raw.githubusercontent.com/OpenZeppelin/openzeppelin-contracts/refs/tags/v4.9.3/contracts/utils/cryptography/MerkleProof.sol\":9268:9275  bytes32 */\n      0x00\n        /* \"https://raw.githubusercontent.com/OpenZeppelin/openzeppelin-contracts/refs/tags/v4.9.3/contracts/utils/cryptography/MerkleProof.sol\":9298:9299  b */\n      dup2\n        /* \"https://raw.githubusercontent.com/OpenZeppelin/openzeppelin-contracts/refs/tags/v4.9.3/contracts/utils/cryptography/MerkleProof.sol\":9294:9295  a */\n      dup4\n        /* \"https://raw.githubusercontent.com/OpenZeppelin/openzeppelin-contracts/refs/tags/v4.9.3/contracts/utils/cryptography/MerkleProof.sol\":9294:9299  a < b */\n      lt\n        /* \"https://raw.githubusercontent.com/OpenZeppelin/openzeppelin-contracts/refs/tags/v4.9.3/contracts/utils/cryptography/MerkleProof.sol\":9294:9345  a < b ? _efficientHash(a, b) : _efficientHash(b, a) */\n      tag_327\n      jumpi\n        /* \"https://raw.githubusercontent.com/OpenZeppelin/openzeppelin-contracts/refs/tags/v4.9.3/contracts/utils/cryptography/MerkleProof.sol\":9325:9345  _efficientHash(b, a) */\n      tag_328\n        /* \"https://raw.githubusercontent.com/OpenZeppelin/openzeppelin-contracts/refs/tags/v4.9.3/contracts/utils/cryptography/MerkleProof.sol\":9340:9341  b */\n      dup3\n        /* \"https://raw.githubusercontent.com/OpenZeppelin/openzeppelin-contracts/refs/tags/v4.9.3/contracts/utils/cryptography/MerkleProof.sol\":9343:9344  a */\n      dup5\n        /* \"https://raw.githubusercontent.com/OpenZeppelin/openzeppelin-contracts/refs/tags/v4.9.3/contracts/utils/cryptography/MerkleProof.sol\":9325:9339  _efficientHash */\n      tag_329\n        /* \"https://raw.githubusercontent.com/OpenZeppelin/openzeppelin-contracts/refs/tags/v4.9.3/contracts/utils/cryptography/MerkleProof.sol\":9325:9345  _efficientHash(b, a) */\n      jump\t// in\n    tag_328:\n        /* \"https://raw.githubusercontent.com/OpenZeppelin/openzeppelin-contracts/refs/tags/v4.9.3/contracts/utils/cryptography/MerkleProof.sol\":9294:9345  a < b ? _efficientHash(a, b) : _efficientHash(b, a) */\n      jump(tag_330)\n    tag_327:\n        /* \"https://raw.githubusercontent.com/OpenZeppelin/openzeppelin-contracts/refs/tags/v4.9.3/contracts/utils/cryptography/MerkleProof.sol\":9302:9322  _efficientHash(a, b) */\n      tag_331\n        /* \"https://raw.githubusercontent.com/OpenZeppelin/openzeppelin-contracts/refs/tags/v4.9.3/contracts/utils/cryptography/MerkleProof.sol\":9317:9318  a */\n      dup4\n        /* \"https://raw.githubusercontent.com/OpenZeppelin/openzeppelin-contracts/refs/tags/v4.9.3/contracts/utils/cryptography/MerkleProof.sol\":9320:9321  b */\n      dup4\n        /* \"https://raw.githubusercontent.com/OpenZeppelin/openzeppelin-contracts/refs/tags/v4.9.3/contracts/utils/cryptography/MerkleProof.sol\":9302:9316  _efficientHash */\n      tag_329\n        /* \"https://raw.githubusercontent.com/OpenZeppelin/openzeppelin-contracts/refs/tags/v4.9.3/contracts/utils/cryptography/MerkleProof.sol\":9302:9322  _efficientHash(a, b) */\n      jump\t// in\n    tag_331:\n        /* \"https://raw.githubusercontent.com/OpenZeppelin/openzeppelin-contracts/refs/tags/v4.9.3/contracts/utils/cryptography/MerkleProof.sol\":9294:9345  a < b ? _efficientHash(a, b) : _efficientHash(b, a) */\n    tag_330:\n        /* \"https://raw.githubusercontent.com/OpenZeppelin/openzeppelin-contracts/refs/tags/v4.9.3/contracts/utils/cryptography/MerkleProof.sol\":9287:9345  return a < b ? _efficientHash(a, b) : _efficientHash(b, a) */\n      swap1\n      pop\n        /* \"https://raw.githubusercontent.com/OpenZeppelin/openzeppelin-contracts/refs/tags/v4.9.3/contracts/utils/cryptography/MerkleProof.sol\":9205:9352  function _hashPair(bytes32 a, bytes32 b) private pure returns (bytes32) {... */\n      swap3\n      swap2\n      pop\n      pop\n      jump\t// out\n        /* \"https://raw.githubusercontent.com/OpenZeppelin/openzeppelin-contracts/refs/tags/v4.9.3/contracts/utils/cryptography/MerkleProof.sol\":9358:9619  function _efficientHash(bytes32 a, bytes32 b) private pure returns (bytes32 value) {... */\n    tag_329:\n        /* \"https://raw.githubusercontent.com/OpenZeppelin/openzeppelin-contracts/refs/tags/v4.9.3/contracts/utils/cryptography/MerkleProof.sol\":9426:9439  bytes32 value */\n      0x00\n        /* \"https://raw.githubusercontent.com/OpenZeppelin/openzeppelin-contracts/refs/tags/v4.9.3/contracts/utils/cryptography/MerkleProof.sol\":9530:9531  a */\n      dup3\n        /* \"https://raw.githubusercontent.com/OpenZeppelin/openzeppelin-contracts/refs/tags/v4.9.3/contracts/utils/cryptography/MerkleProof.sol\":9524:9528  0x00 */\n      0x00\n        /* \"https://raw.githubusercontent.com/OpenZeppelin/openzeppelin-contracts/refs/tags/v4.9.3/contracts/utils/cryptography/MerkleProof.sol\":9517:9532  mstore(0x00, a) */\n      mstore\n        /* \"https://raw.githubusercontent.com/OpenZeppelin/openzeppelin-contracts/refs/tags/v4.9.3/contracts/utils/cryptography/MerkleProof.sol\":9558:9559  b */\n      dup2\n        /* \"https://raw.githubusercontent.com/OpenZeppelin/openzeppelin-contracts/refs/tags/v4.9.3/contracts/utils/cryptography/MerkleProof.sol\":9552:9556  0x20 */\n      0x20\n        /* \"https://raw.githubusercontent.com/OpenZeppelin/openzeppelin-contracts/refs/tags/v4.9.3/contracts/utils/cryptography/MerkleProof.sol\":9545:9560  mstore(0x20, b) */\n      mstore\n        /* \"https://raw.githubusercontent.com/OpenZeppelin/openzeppelin-contracts/refs/tags/v4.9.3/contracts/utils/cryptography/MerkleProof.sol\":9598:9602  0x40 */\n      0x40\n        /* \"https://raw.githubusercontent.com/OpenZeppelin/openzeppelin-contracts/refs/tags/v4.9.3/contracts/utils/cryptography/MerkleProof.sol\":9592:9596  0x00 */\n      0x00\n        /* \"https://raw.githubusercontent.com/OpenZeppelin/openzeppelin-contracts/refs/tags/v4.9.3/contracts/utils/cryptography/MerkleProof.sol\":9582:9603  keccak256(0x00, 0x40) */\n      keccak256\n        /* \"https://raw.githubusercontent.com/OpenZeppelin/openzeppelin-contracts/refs/tags/v4.9.3/contracts/utils/cryptography/MerkleProof.sol\":9573:9603  value := keccak256(0x00, 0x40) */\n      swap1\n      pop\n        /* \"https://raw.githubusercontent.com/OpenZeppelin/openzeppelin-contracts/refs/tags/v4.9.3/contracts/utils/cryptography/MerkleProof.sol\":9358:9619  function _efficientHash(bytes32 a, bytes32 b) private pure returns (bytes32 value) {... */\n      swap3\n      swap2\n      pop\n      pop\n      jump\t// out\n        /* \"#utility.yul\":7:84   */\n    tag_333:\n        /* \"#utility.yul\":44:51   */\n      0x00\n        /* \"#utility.yul\":73:78   */\n      dup2\n        /* \"#utility.yul\":62:78   */\n      swap1\n      pop\n        /* \"#utility.yul\":7:84   */\n      swap2\n      swap1\n      pop\n      jump\t// out\n        /* \"#utility.yul\":90:208   */\n    tag_334:\n        /* \"#utility.yul\":177:201   */\n      tag_406\n        /* \"#utility.yul\":195:200   */\n      dup2\n        /* \"#utility.yul\":177:201   */\n      tag_333\n      jump\t// in\n    tag_406:\n        /* \"#utility.yul\":172:175   */\n      dup3\n        /* \"#utility.yul\":165:202   */\n      mstore\n        /* \"#utility.yul\":90:208   */\n      pop\n      pop\n      jump\t// out\n        /* \"#utility.yul\":214:436   */\n    tag_39:\n        /* \"#utility.yul\":307:311   */\n      0x00\n        /* \"#utility.yul\":345:347   */\n      0x20\n        /* \"#utility.yul\":334:343   */\n      dup3\n        /* \"#utility.yul\":330:348   */\n      add\n        /* \"#utility.yul\":322:348   */\n      swap1\n      pop\n        /* \"#utility.yul\":358:429   */\n      tag_408\n        /* \"#utility.yul\":426:427   */\n      0x00\n        /* \"#utility.yul\":415:424   */\n      dup4\n        /* \"#utility.yul\":411:428   */\n      add\n        /* \"#utility.yul\":402:408   */\n      dup5\n        /* \"#utility.yul\":358:429   */\n      tag_334\n      jump\t// in\n    tag_408:\n        /* \"#utility.yul\":214:436   */\n      swap3\n      swap2\n      pop\n      pop\n      jump\t// out\n        /* \"#utility.yul\":523:640   */\n    tag_336:\n        /* \"#utility.yul\":632:633   */\n      0x00\n        /* \"#utility.yul\":629:630   */\n      dup1\n        /* \"#utility.yul\":622:634   */\n      revert\n        /* \"#utility.yul\":646:763   */\n    tag_337:\n        /* \"#utility.yul\":755:756   */\n      0x00\n        /* \"#utility.yul\":752:753   */\n      dup1\n        /* \"#utility.yul\":745:757   */\n      revert\n        /* \"#utility.yul\":769:895   */\n    tag_338:\n        /* \"#utility.yul\":806:813   */\n      0x00\n        /* \"#utility.yul\":846:888   */\n      0xffffffffffffffffffffffffffffffffffffffff\n        /* \"#utility.yul\":839:844   */\n      dup3\n        /* \"#utility.yul\":835:889   */\n      and\n        /* \"#utility.yul\":824:889   */\n      swap1\n      pop\n        /* \"#utility.yul\":769:895   */\n      swap2\n      swap1\n      pop\n      jump\t// out\n        /* \"#utility.yul\":901:997   */\n    tag_339:\n        /* \"#utility.yul\":938:945   */\n      0x00\n        /* \"#utility.yul\":967:991   */\n      tag_414\n        /* \"#utility.yul\":985:990   */\n      dup3\n        /* \"#utility.yul\":967:991   */\n      tag_338\n      jump\t// in\n    tag_414:\n        /* \"#utility.yul\":956:991   */\n      swap1\n      pop\n        /* \"#utility.yul\":901:997   */\n      swap2\n      swap1\n      pop\n      jump\t// out\n        /* \"#utility.yul\":1003:1125   */\n    tag_340:\n        /* \"#utility.yul\":1076:1100   */\n      tag_416\n        /* \"#utility.yul\":1094:1099   */\n      dup2\n        /* \"#utility.yul\":1076:1100   */\n      tag_339\n      jump\t// in\n    tag_416:\n        /* \"#utility.yul\":1069:1074   */\n      dup2\n        /* \"#utility.yul\":1066:1101   */\n      eq\n        /* \"#utility.yul\":1056:1119   */\n      tag_417\n      jumpi\n        /* \"#utility.yul\":1115:1116   */\n      0x00\n        /* \"#utility.yul\":1112:1113   */\n      dup1\n        /* \"#utility.yul\":1105:1117   */\n      revert\n        /* \"#utility.yul\":1056:1119   */\n    tag_417:\n        /* \"#utility.yul\":1003:1125   */\n      pop\n      jump\t// out\n        /* \"#utility.yul\":1131:1270   */\n    tag_341:\n        /* \"#utility.yul\":1177:1182   */\n      0x00\n        /* \"#utility.yul\":1215:1221   */\n      dup2\n        /* \"#utility.yul\":1202:1222   */\n      calldataload\n        /* \"#utility.yul\":1193:1222   */\n      swap1\n      pop\n        /* \"#utility.yul\":1231:1264   */\n      tag_419\n        /* \"#utility.yul\":1258:1263   */\n      dup2\n        /* \"#utility.yul\":1231:1264   */\n      tag_340\n      jump\t// in\n    tag_419:\n        /* \"#utility.yul\":1131:1270   */\n      swap3\n      swap2\n      pop\n      pop\n      jump\t// out\n        /* \"#utility.yul\":1276:1398   */\n    tag_342:\n        /* \"#utility.yul\":1349:1373   */\n      tag_421\n        /* \"#utility.yul\":1367:1372   */\n      dup2\n        /* \"#utility.yul\":1349:1373   */\n      tag_333\n      jump\t// in\n    tag_421:\n        /* \"#utility.yul\":1342:1347   */\n      dup2\n        /* \"#utility.yul\":1339:1374   */\n      eq\n        /* \"#utility.yul\":1329:1392   */\n      tag_422\n      jumpi\n        /* \"#utility.yul\":1388:1389   */\n      0x00\n        /* \"#utility.yul\":1385:1386   */\n      dup1\n        /* \"#utility.yul\":1378:1390   */\n      revert\n        /* \"#utility.yul\":1329:1392   */\n    tag_422:\n        /* \"#utility.yul\":1276:1398   */\n      pop\n      jump\t// out\n        /* \"#utility.yul\":1404:1543   */\n    tag_343:\n        /* \"#utility.yul\":1450:1455   */\n      0x00\n        /* \"#utility.yul\":1488:1494   */\n      dup2\n        /* \"#utility.yul\":1475:1495   */\n      calldataload\n        /* \"#utility.yul\":1466:1495   */\n      swap1\n      pop\n        /* \"#utility.yul\":1504:1537   */\n      tag_424\n        /* \"#utility.yul\":1531:1536   */\n      dup2\n        /* \"#utility.yul\":1504:1537   */\n      tag_342\n      jump\t// in\n    tag_424:\n        /* \"#utility.yul\":1404:1543   */\n      swap3\n      swap2\n      pop\n      pop\n      jump\t// out\n        /* \"#utility.yul\":1549:1666   */\n    tag_344:\n        /* \"#utility.yul\":1658:1659   */\n      0x00\n        /* \"#utility.yul\":1655:1656   */\n      dup1\n        /* \"#utility.yul\":1648:1660   */\n      revert\n        /* \"#utility.yul\":1672:1789   */\n    tag_345:\n        /* \"#utility.yul\":1781:1782   */\n      0x00\n        /* \"#utility.yul\":1778:1779   */\n      dup1\n        /* \"#utility.yul\":1771:1783   */\n      revert\n        /* \"#utility.yul\":1795:1912   */\n    tag_346:\n        /* \"#utility.yul\":1904:1905   */\n      0x00\n        /* \"#utility.yul\":1901:1902   */\n      dup1\n        /* \"#utility.yul\":1894:1906   */\n      revert\n        /* \"#utility.yul\":1935:2503   */\n    tag_347:\n        /* \"#utility.yul\":2008:2016   */\n      0x00\n        /* \"#utility.yul\":2018:2024   */\n      dup1\n        /* \"#utility.yul\":2068:2071   */\n      dup4\n        /* \"#utility.yul\":2061:2065   */\n      0x1f\n        /* \"#utility.yul\":2053:2059   */\n      dup5\n        /* \"#utility.yul\":2049:2066   */\n      add\n        /* \"#utility.yul\":2045:2072   */\n      slt\n        /* \"#utility.yul\":2035:2157   */\n      tag_429\n      jumpi\n        /* \"#utility.yul\":2076:2155   */\n      tag_430\n      tag_344\n      jump\t// in\n    tag_430:\n        /* \"#utility.yul\":2035:2157   */\n    tag_429:\n        /* \"#utility.yul\":2189:2195   */\n      dup3\n        /* \"#utility.yul\":2176:2196   */\n      calldataload\n        /* \"#utility.yul\":2166:2196   */\n      swap1\n      pop\n        /* \"#utility.yul\":2219:2237   */\n      0xffffffffffffffff\n        /* \"#utility.yul\":2211:2217   */\n      dup2\n        /* \"#utility.yul\":2208:2238   */\n      gt\n        /* \"#utility.yul\":2205:2322   */\n      iszero\n      tag_431\n      jumpi\n        /* \"#utility.yul\":2241:2320   */\n      tag_432\n      tag_345\n      jump\t// in\n    tag_432:\n        /* \"#utility.yul\":2205:2322   */\n    tag_431:\n        /* \"#utility.yul\":2355:2359   */\n      0x20\n        /* \"#utility.yul\":2347:2353   */\n      dup4\n        /* \"#utility.yul\":2343:2360   */\n      add\n        /* \"#utility.yul\":2331:2360   */\n      swap2\n      pop\n        /* \"#utility.yul\":2409:2412   */\n      dup4\n        /* \"#utility.yul\":2401:2405   */\n      0x20\n        /* \"#utility.yul\":2393:2399   */\n      dup3\n        /* \"#utility.yul\":2389:2406   */\n      mul\n        /* \"#utility.yul\":2379:2387   */\n      dup4\n        /* \"#utility.yul\":2375:2407   */\n      add\n        /* \"#utility.yul\":2372:2413   */\n      gt\n        /* \"#utility.yul\":2369:2497   */\n      iszero\n      tag_433\n      jumpi\n        /* \"#utility.yul\":2416:2495   */\n      tag_434\n      tag_346\n      jump\t// in\n    tag_434:\n        /* \"#utility.yul\":2369:2497   */\n    tag_433:\n        /* \"#utility.yul\":1935:2503   */\n      swap3\n      pop\n      swap3\n      swap1\n      pop\n      jump\t// out\n        /* \"#utility.yul\":2509:3358   */\n    tag_42:\n        /* \"#utility.yul\":2613:2619   */\n      0x00\n        /* \"#utility.yul\":2621:2627   */\n      dup1\n        /* \"#utility.yul\":2629:2635   */\n      0x00\n        /* \"#utility.yul\":2637:2643   */\n      dup1\n        /* \"#utility.yul\":2686:2688   */\n      0x60\n        /* \"#utility.yul\":2674:2683   */\n      dup6\n        /* \"#utility.yul\":2665:2672   */\n      dup8\n        /* \"#utility.yul\":2661:2684   */\n      sub\n        /* \"#utility.yul\":2657:2689   */\n      slt\n        /* \"#utility.yul\":2654:2773   */\n      iszero\n      tag_436\n      jumpi\n        /* \"#utility.yul\":2692:2771   */\n      tag_437\n      tag_336\n      jump\t// in\n    tag_437:\n        /* \"#utility.yul\":2654:2773   */\n    tag_436:\n        /* \"#utility.yul\":2812:2813   */\n      0x00\n        /* \"#utility.yul\":2837:2890   */\n      tag_438\n        /* \"#utility.yul\":2882:2889   */\n      dup8\n        /* \"#utility.yul\":2873:2879   */\n      dup3\n        /* \"#utility.yul\":2862:2871   */\n      dup9\n        /* \"#utility.yul\":2858:2880   */\n      add\n        /* \"#utility.yul\":2837:2890   */\n      tag_341\n      jump\t// in\n    tag_438:\n        /* \"#utility.yul\":2827:2890   */\n      swap5\n      pop\n        /* \"#utility.yul\":2783:2900   */\n      pop\n        /* \"#utility.yul\":2939:2941   */\n      0x20\n        /* \"#utility.yul\":2965:3018   */\n      tag_439\n        /* \"#utility.yul\":3010:3017   */\n      dup8\n        /* \"#utility.yul\":3001:3007   */\n      dup3\n        /* \"#utility.yul\":2990:2999   */\n      dup9\n        /* \"#utility.yul\":2986:3008   */\n      add\n        /* \"#utility.yul\":2965:3018   */\n      tag_343\n      jump\t// in\n    tag_439:\n        /* \"#utility.yul\":2955:3018   */\n      swap4\n      pop\n        /* \"#utility.yul\":2910:3028   */\n      pop\n        /* \"#utility.yul\":3095:3097   */\n      0x40\n        /* \"#utility.yul\":3084:3093   */\n      dup6\n        /* \"#utility.yul\":3080:3098   */\n      add\n        /* \"#utility.yul\":3067:3099   */\n      calldataload\n        /* \"#utility.yul\":3126:3144   */\n      0xffffffffffffffff\n        /* \"#utility.yul\":3118:3124   */\n      dup2\n        /* \"#utility.yul\":3115:3145   */\n      gt\n        /* \"#utility.yul\":3112:3229   */\n      iszero\n      tag_440\n      jumpi\n        /* \"#utility.yul\":3148:3227   */\n      tag_441\n      tag_337\n      jump\t// in\n    tag_441:\n        /* \"#utility.yul\":3112:3229   */\n    tag_440:\n        /* \"#utility.yul\":3261:3341   */\n      tag_442\n        /* \"#utility.yul\":3333:3340   */\n      dup8\n        /* \"#utility.yul\":3324:3330   */\n      dup3\n        /* \"#utility.yul\":3313:3322   */\n      dup9\n        /* \"#utility.yul\":3309:3331   */\n      add\n        /* \"#utility.yul\":3261:3341   */\n      tag_347\n      jump\t// in\n    tag_442:\n        /* \"#utility.yul\":3243:3341   */\n      swap3\n      pop\n      swap3\n      pop\n        /* \"#utility.yul\":3038:3351   */\n      pop\n        /* \"#utility.yul\":2509:3358   */\n      swap3\n      swap6\n      swap2\n      swap5\n      pop\n      swap3\n      pop\n      jump\t// out\n        /* \"#utility.yul\":3364:3482   */\n    tag_348:\n        /* \"#utility.yul\":3451:3475   */\n      tag_444\n        /* \"#utility.yul\":3469:3474   */\n      dup2\n        /* \"#utility.yul\":3451:3475   */\n      tag_339\n      jump\t// in\n    tag_444:\n        /* \"#utility.yul\":3446:3449   */\n      dup3\n        /* \"#utility.yul\":3439:3476   */\n      mstore\n        /* \"#utility.yul\":3364:3482   */\n      pop\n      pop\n      jump\t// out\n        /* \"#utility.yul\":3488:3710   */\n    tag_47:\n        /* \"#utility.yul\":3581:3585   */\n      0x00\n        /* \"#utility.yul\":3619:3621   */\n      0x20\n        /* \"#utility.yul\":3608:3617   */\n      dup3\n        /* \"#utility.yul\":3604:3622   */\n      add\n        /* \"#utility.yul\":3596:3622   */\n      swap1\n      pop\n        /* \"#utility.yul\":3632:3703   */\n      tag_446\n        /* \"#utility.yul\":3700:3701   */\n      0x00\n        /* \"#utility.yul\":3689:3698   */\n      dup4\n        /* \"#utility.yul\":3685:3702   */\n      add\n        /* \"#utility.yul\":3676:3682   */\n      dup5\n        /* \"#utility.yul\":3632:3703   */\n      tag_348\n      jump\t// in\n    tag_446:\n        /* \"#utility.yul\":3488:3710   */\n      swap3\n      swap2\n      pop\n      pop\n      jump\t// out\n        /* \"#utility.yul\":3716:3806   */\n    tag_349:\n        /* \"#utility.yul\":3750:3757   */\n      0x00\n        /* \"#utility.yul\":3793:3798   */\n      dup2\n        /* \"#utility.yul\":3786:3799   */\n      iszero\n        /* \"#utility.yul\":3779:3800   */\n      iszero\n        /* \"#utility.yul\":3768:3800   */\n      swap1\n      pop\n        /* \"#utility.yul\":3716:3806   */\n      swap2\n      swap1\n      pop\n      jump\t// out\n        /* \"#utility.yul\":3812:3928   */\n    tag_350:\n        /* \"#utility.yul\":3882:3903   */\n      tag_449\n        /* \"#utility.yul\":3897:3902   */\n      dup2\n        /* \"#utility.yul\":3882:3903   */\n      tag_349\n      jump\t// in\n    tag_449:\n        /* \"#utility.yul\":3875:3880   */\n      dup2\n        /* \"#utility.yul\":3872:3904   */\n      eq\n        /* \"#utility.yul\":3862:3922   */\n      tag_450\n      jumpi\n        /* \"#utility.yul\":3918:3919   */\n      0x00\n        /* \"#utility.yul\":3915:3916   */\n      dup1\n        /* \"#utility.yul\":3908:3920   */\n      revert\n        /* \"#utility.yul\":3862:3922   */\n    tag_450:\n        /* \"#utility.yul\":3812:3928   */\n      pop\n      jump\t// out\n        /* \"#utility.yul\":3934:4067   */\n    tag_351:\n        /* \"#utility.yul\":3977:3982   */\n      0x00\n        /* \"#utility.yul\":4015:4021   */\n      dup2\n        /* \"#utility.yul\":4002:4022   */\n      calldataload\n        /* \"#utility.yul\":3993:4022   */\n      swap1\n      pop\n        /* \"#utility.yul\":4031:4061   */\n      tag_452\n        /* \"#utility.yul\":4055:4060   */\n      dup2\n        /* \"#utility.yul\":4031:4061   */\n      tag_350\n      jump\t// in\n    tag_452:\n        /* \"#utility.yul\":3934:4067   */\n      swap3\n      swap2\n      pop\n      pop\n      jump\t// out\n        /* \"#utility.yul\":4073:4396   */\n    tag_50:\n        /* \"#utility.yul\":4129:4135   */\n      0x00\n        /* \"#utility.yul\":4178:4180   */\n      0x20\n        /* \"#utility.yul\":4166:4175   */\n      dup3\n        /* \"#utility.yul\":4157:4164   */\n      dup5\n        /* \"#utility.yul\":4153:4176   */\n      sub\n        /* \"#utility.yul\":4149:4181   */\n      slt\n        /* \"#utility.yul\":4146:4265   */\n      iszero\n      tag_454\n      jumpi\n        /* \"#utility.yul\":4184:4263   */\n      tag_455\n      tag_336\n      jump\t// in\n    tag_455:\n        /* \"#utility.yul\":4146:4265   */\n    tag_454:\n        /* \"#utility.yul\":4304:4305   */\n      0x00\n        /* \"#utility.yul\":4329:4379   */\n      tag_456\n        /* \"#utility.yul\":4371:4378   */\n      dup5\n        /* \"#utility.yul\":4362:4368   */\n      dup3\n        /* \"#utility.yul\":4351:4360   */\n      dup6\n        /* \"#utility.yul\":4347:4369   */\n      add\n        /* \"#utility.yul\":4329:4379   */\n      tag_351\n      jump\t// in\n    tag_456:\n        /* \"#utility.yul\":4319:4379   */\n      swap2\n      pop\n        /* \"#utility.yul\":4275:4389   */\n      pop\n        /* \"#utility.yul\":4073:4396   */\n      swap3\n      swap2\n      pop\n      pop\n      jump\t// out\n        /* \"#utility.yul\":4402:4479   */\n    tag_352:\n        /* \"#utility.yul\":4439:4446   */\n      0x00\n        /* \"#utility.yul\":4468:4473   */\n      dup2\n        /* \"#utility.yul\":4457:4473   */\n      swap1\n      pop\n        /* \"#utility.yul\":4402:4479   */\n      swap2\n      swap1\n      pop\n      jump\t// out\n        /* \"#utility.yul\":4485:4603   */\n    tag_353:\n        /* \"#utility.yul\":4572:4596   */\n      tag_459\n        /* \"#utility.yul\":4590:4595   */\n      dup2\n        /* \"#utility.yul\":4572:4596   */\n      tag_352\n      jump\t// in\n    tag_459:\n        /* \"#utility.yul\":4567:4570   */\n      dup3\n        /* \"#utility.yul\":4560:4597   */\n      mstore\n        /* \"#utility.yul\":4485:4603   */\n      pop\n      pop\n      jump\t// out\n        /* \"#utility.yul\":4609:4831   */\n    tag_57:\n        /* \"#utility.yul\":4702:4706   */\n      0x00\n        /* \"#utility.yul\":4740:4742   */\n      0x20\n        /* \"#utility.yul\":4729:4738   */\n      dup3\n        /* \"#utility.yul\":4725:4743   */\n      add\n        /* \"#utility.yul\":4717:4743   */\n      swap1\n      pop\n        /* \"#utility.yul\":4753:4824   */\n      tag_461\n        /* \"#utility.yul\":4821:4822   */\n      0x00\n        /* \"#utility.yul\":4810:4819   */\n      dup4\n        /* \"#utility.yul\":4806:4823   */\n      add\n        /* \"#utility.yul\":4797:4803   */\n      dup5\n        /* \"#utility.yul\":4753:4824   */\n      tag_353\n      jump\t// in\n    tag_461:\n        /* \"#utility.yul\":4609:4831   */\n      swap3\n      swap2\n      pop\n      pop\n      jump\t// out\n        /* \"#utility.yul\":4837:5166   */\n    tag_63:\n        /* \"#utility.yul\":4896:4902   */\n      0x00\n        /* \"#utility.yul\":4945:4947   */\n      0x20\n        /* \"#utility.yul\":4933:4942   */\n      dup3\n        /* \"#utility.yul\":4924:4931   */\n      dup5\n        /* \"#utility.yul\":4920:4943   */\n      sub\n        /* \"#utility.yul\":4916:4948   */\n      slt\n        /* \"#utility.yul\":4913:5032   */\n      iszero\n      tag_463\n      jumpi\n        /* \"#utility.yul\":4951:5030   */\n      tag_464\n      tag_336\n      jump\t// in\n    tag_464:\n        /* \"#utility.yul\":4913:5032   */\n    tag_463:\n        /* \"#utility.yul\":5071:5072   */\n      0x00\n        /* \"#utility.yul\":5096:5149   */\n      tag_465\n        /* \"#utility.yul\":5141:5148   */\n      dup5\n        /* \"#utility.yul\":5132:5138   */\n      dup3\n        /* \"#utility.yul\":5121:5130   */\n      dup6\n        /* \"#utility.yul\":5117:5139   */\n      add\n        /* \"#utility.yul\":5096:5149   */\n      tag_343\n      jump\t// in\n    tag_465:\n        /* \"#utility.yul\":5086:5149   */\n      swap2\n      pop\n        /* \"#utility.yul\":5042:5159   */\n      pop\n        /* \"#utility.yul\":4837:5166   */\n      swap3\n      swap2\n      pop\n      pop\n      jump\t// out\n        /* \"#utility.yul\":5172:5501   */\n    tag_67:\n        /* \"#utility.yul\":5231:5237   */\n      0x00\n        /* \"#utility.yul\":5280:5282   */\n      0x20\n        /* \"#utility.yul\":5268:5277   */\n      dup3\n        /* \"#utility.yul\":5259:5266   */\n      dup5\n        /* \"#utility.yul\":5255:5278   */\n      sub\n        /* \"#utility.yul\":5251:5283   */\n      slt\n        /* \"#utility.yul\":5248:5367   */\n      iszero\n      tag_467\n      jumpi\n        /* \"#utility.yul\":5286:5365   */\n      tag_468\n      tag_336\n      jump\t// in\n    tag_468:\n        /* \"#utility.yul\":5248:5367   */\n    tag_467:\n        /* \"#utility.yul\":5406:5407   */\n      0x00\n        /* \"#utility.yul\":5431:5484   */\n      tag_469\n        /* \"#utility.yul\":5476:5483   */\n      dup5\n        /* \"#utility.yul\":5467:5473   */\n      dup3\n        /* \"#utility.yul\":5456:5465   */\n      dup6\n        /* \"#utility.yul\":5452:5474   */\n      add\n        /* \"#utility.yul\":5431:5484   */\n      tag_341\n      jump\t// in\n    tag_469:\n        /* \"#utility.yul\":5421:5484   */\n      swap2\n      pop\n        /* \"#utility.yul\":5377:5494   */\n      pop\n        /* \"#utility.yul\":5172:5501   */\n      swap3\n      swap2\n      pop\n      pop\n      jump\t// out\n        /* \"#utility.yul\":5507:5981   */\n    tag_77:\n        /* \"#utility.yul\":5575:5581   */\n      0x00\n        /* \"#utility.yul\":5583:5589   */\n      dup1\n        /* \"#utility.yul\":5632:5634   */\n      0x40\n        /* \"#utility.yul\":5620:5629   */\n      dup4\n        /* \"#utility.yul\":5611:5618   */\n      dup6\n        /* \"#utility.yul\":5607:5630   */\n      sub\n        /* \"#utility.yul\":5603:5635   */\n      slt\n        /* \"#utility.yul\":5600:5719   */\n      iszero\n      tag_471\n      jumpi\n        /* \"#utility.yul\":5638:5717   */\n      tag_472\n      tag_336\n      jump\t// in\n    tag_472:\n        /* \"#utility.yul\":5600:5719   */\n    tag_471:\n        /* \"#utility.yul\":5758:5759   */\n      0x00\n        /* \"#utility.yul\":5783:5836   */\n      tag_473\n        /* \"#utility.yul\":5828:5835   */\n      dup6\n        /* \"#utility.yul\":5819:5825   */\n      dup3\n        /* \"#utility.yul\":5808:5817   */\n      dup7\n        /* \"#utility.yul\":5804:5826   */\n      add\n        /* \"#utility.yul\":5783:5836   */\n      tag_343\n      jump\t// in\n    tag_473:\n        /* \"#utility.yul\":5773:5836   */\n      swap3\n      pop\n        /* \"#utility.yul\":5729:5846   */\n      pop\n        /* \"#utility.yul\":5885:5887   */\n      0x20\n        /* \"#utility.yul\":5911:5964   */\n      tag_474\n        /* \"#utility.yul\":5956:5963   */\n      dup6\n        /* \"#utility.yul\":5947:5953   */\n      dup3\n        /* \"#utility.yul\":5936:5945   */\n      dup7\n        /* \"#utility.yul\":5932:5954   */\n      add\n        /* \"#utility.yul\":5911:5964   */\n      tag_341\n      jump\t// in\n    tag_474:\n        /* \"#utility.yul\":5901:5964   */\n      swap2\n      pop\n        /* \"#utility.yul\":5856:5974   */\n      pop\n        /* \"#utility.yul\":5507:5981   */\n      swap3\n      pop\n      swap3\n      swap1\n      pop\n      jump\t// out\n        /* \"#utility.yul\":5987:6109   */\n    tag_354:\n        /* \"#utility.yul\":6060:6084   */\n      tag_476\n        /* \"#utility.yul\":6078:6083   */\n      dup2\n        /* \"#utility.yul\":6060:6084   */\n      tag_352\n      jump\t// in\n    tag_476:\n        /* \"#utility.yul\":6053:6058   */\n      dup2\n        /* \"#utility.yul\":6050:6085   */\n      eq\n        /* \"#utility.yul\":6040:6103   */\n      tag_477\n      jumpi\n        /* \"#utility.yul\":6099:6100   */\n      0x00\n        /* \"#utility.yul\":6096:6097   */\n      dup1\n        /* \"#utility.yul\":6089:6101   */\n      revert\n        /* \"#utility.yul\":6040:6103   */\n    tag_477:\n        /* \"#utility.yul\":5987:6109   */\n      pop\n      jump\t// out\n        /* \"#utility.yul\":6115:6254   */\n    tag_355:\n        /* \"#utility.yul\":6161:6166   */\n      0x00\n        /* \"#utility.yul\":6199:6205   */\n      dup2\n        /* \"#utility.yul\":6186:6206   */\n      calldataload\n        /* \"#utility.yul\":6177:6206   */\n      swap1\n      pop\n        /* \"#utility.yul\":6215:6248   */\n      tag_479\n        /* \"#utility.yul\":6242:6247   */\n      dup2\n        /* \"#utility.yul\":6215:6248   */\n      tag_354\n      jump\t// in\n    tag_479:\n        /* \"#utility.yul\":6115:6254   */\n      swap3\n      swap2\n      pop\n      pop\n      jump\t// out\n        /* \"#utility.yul\":6260:6589   */\n    tag_85:\n        /* \"#utility.yul\":6319:6325   */\n      0x00\n        /* \"#utility.yul\":6368:6370   */\n      0x20\n        /* \"#utility.yul\":6356:6365   */\n      dup3\n        /* \"#utility.yul\":6347:6354   */\n      dup5\n        /* \"#utility.yul\":6343:6366   */\n      sub\n        /* \"#utility.yul\":6339:6371   */\n      slt\n        /* \"#utility.yul\":6336:6455   */\n      iszero\n      tag_481\n      jumpi\n        /* \"#utility.yul\":6374:6453   */\n      tag_482\n      tag_336\n      jump\t// in\n    tag_482:\n        /* \"#utility.yul\":6336:6455   */\n    tag_481:\n        /* \"#utility.yul\":6494:6495   */\n      0x00\n        /* \"#utility.yul\":6519:6572   */\n      tag_483\n        /* \"#utility.yul\":6564:6571   */\n      dup5\n        /* \"#utility.yul\":6555:6561   */\n      dup3\n        /* \"#utility.yul\":6544:6553   */\n      dup6\n        /* \"#utility.yul\":6540:6562   */\n      add\n        /* \"#utility.yul\":6519:6572   */\n      tag_355\n      jump\t// in\n    tag_483:\n        /* \"#utility.yul\":6509:6572   */\n      swap2\n      pop\n        /* \"#utility.yul\":6465:6582   */\n      pop\n        /* \"#utility.yul\":6260:6589   */\n      swap3\n      swap2\n      pop\n      pop\n      jump\t// out\n        /* \"#utility.yul\":6595:6655   */\n    tag_356:\n        /* \"#utility.yul\":6623:6626   */\n      0x00\n        /* \"#utility.yul\":6644:6649   */\n      dup2\n        /* \"#utility.yul\":6637:6649   */\n      swap1\n      pop\n        /* \"#utility.yul\":6595:6655   */\n      swap2\n      swap1\n      pop\n      jump\t// out\n        /* \"#utility.yul\":6661:6803   */\n    tag_357:\n        /* \"#utility.yul\":6711:6720   */\n      0x00\n        /* \"#utility.yul\":6744:6797   */\n      tag_486\n        /* \"#utility.yul\":6762:6796   */\n      tag_487\n        /* \"#utility.yul\":6771:6795   */\n      tag_488\n        /* \"#utility.yul\":6789:6794   */\n      dup5\n        /* \"#utility.yul\":6771:6795   */\n      tag_338\n      jump\t// in\n    tag_488:\n        /* \"#utility.yul\":6762:6796   */\n      tag_356\n      jump\t// in\n    tag_487:\n        /* \"#utility.yul\":6744:6797   */\n      tag_338\n      jump\t// in\n    tag_486:\n        /* \"#utility.yul\":6731:6797   */\n      swap1\n      pop\n        /* \"#utility.yul\":6661:6803   */\n      swap2\n      swap1\n      pop\n      jump\t// out\n        /* \"#utility.yul\":6809:6935   */\n    tag_358:\n        /* \"#utility.yul\":6859:6868   */\n      0x00\n        /* \"#utility.yul\":6892:6929   */\n      tag_490\n        /* \"#utility.yul\":6923:6928   */\n      dup3\n        /* \"#utility.yul\":6892:6929   */\n      tag_357\n      jump\t// in\n    tag_490:\n        /* \"#utility.yul\":6879:6929   */\n      swap1\n      pop\n        /* \"#utility.yul\":6809:6935   */\n      swap2\n      swap1\n      pop\n      jump\t// out\n        /* \"#utility.yul\":6941:7081   */\n    tag_359:\n        /* \"#utility.yul\":7005:7014   */\n      0x00\n        /* \"#utility.yul\":7038:7075   */\n      tag_492\n        /* \"#utility.yul\":7069:7074   */\n      dup3\n        /* \"#utility.yul\":7038:7075   */\n      tag_358\n      jump\t// in\n    tag_492:\n        /* \"#utility.yul\":7025:7075   */\n      swap1\n      pop\n        /* \"#utility.yul\":6941:7081   */\n      swap2\n      swap1\n      pop\n      jump\t// out\n        /* \"#utility.yul\":7087:7246   */\n    tag_360:\n        /* \"#utility.yul\":7188:7239   */\n      tag_494\n        /* \"#utility.yul\":7233:7238   */\n      dup2\n        /* \"#utility.yul\":7188:7239   */\n      tag_359\n      jump\t// in\n    tag_494:\n        /* \"#utility.yul\":7183:7186   */\n      dup3\n        /* \"#utility.yul\":7176:7240   */\n      mstore\n        /* \"#utility.yul\":7087:7246   */\n      pop\n      pop\n      jump\t// out\n        /* \"#utility.yul\":7252:7502   */\n    tag_90:\n        /* \"#utility.yul\":7359:7363   */\n      0x00\n        /* \"#utility.yul\":7397:7399   */\n      0x20\n        /* \"#utility.yul\":7386:7395   */\n      dup3\n        /* \"#utility.yul\":7382:7400   */\n      add\n        /* \"#utility.yul\":7374:7400   */\n      swap1\n      pop\n        /* \"#utility.yul\":7410:7495   */\n      tag_496\n        /* \"#utility.yul\":7492:7493   */\n      0x00\n        /* \"#utility.yul\":7481:7490   */\n      dup4\n        /* \"#utility.yul\":7477:7494   */\n      add\n        /* \"#utility.yul\":7468:7474   */\n      dup5\n        /* \"#utility.yul\":7410:7495   */\n      tag_360\n      jump\t// in\n    tag_496:\n        /* \"#utility.yul\":7252:7502   */\n      swap3\n      swap2\n      pop\n      pop\n      jump\t// out\n        /* \"#utility.yul\":7508:7617   */\n    tag_361:\n        /* \"#utility.yul\":7589:7610   */\n      tag_498\n        /* \"#utility.yul\":7604:7609   */\n      dup2\n        /* \"#utility.yul\":7589:7610   */\n      tag_349\n      jump\t// in\n    tag_498:\n        /* \"#utility.yul\":7584:7587   */\n      dup3\n        /* \"#utility.yul\":7577:7611   */\n      mstore\n        /* \"#utility.yul\":7508:7617   */\n      pop\n      pop\n      jump\t// out\n        /* \"#utility.yul\":7623:7833   */\n    tag_103:\n        /* \"#utility.yul\":7710:7714   */\n      0x00\n        /* \"#utility.yul\":7748:7750   */\n      0x20\n        /* \"#utility.yul\":7737:7746   */\n      dup3\n        /* \"#utility.yul\":7733:7751   */\n      add\n        /* \"#utility.yul\":7725:7751   */\n      swap1\n      pop\n        /* \"#utility.yul\":7761:7826   */\n      tag_500\n        /* \"#utility.yul\":7823:7824   */\n      0x00\n        /* \"#utility.yul\":7812:7821   */\n      dup4\n        /* \"#utility.yul\":7808:7825   */\n      add\n        /* \"#utility.yul\":7799:7805   */\n      dup5\n        /* \"#utility.yul\":7761:7826   */\n      tag_361\n      jump\t// in\n    tag_500:\n        /* \"#utility.yul\":7623:7833   */\n      swap3\n      swap2\n      pop\n      pop\n      jump\t// out\n        /* \"#utility.yul\":7839:8307   */\n    tag_122:\n        /* \"#utility.yul\":7904:7910   */\n      0x00\n        /* \"#utility.yul\":7912:7918   */\n      dup1\n        /* \"#utility.yul\":7961:7963   */\n      0x40\n        /* \"#utility.yul\":7949:7958   */\n      dup4\n        /* \"#utility.yul\":7940:7947   */\n      dup6\n        /* \"#utility.yul\":7936:7959   */\n      sub\n        /* \"#utility.yul\":7932:7964   */\n      slt\n        /* \"#utility.yul\":7929:8048   */\n      iszero\n      tag_502\n      jumpi\n        /* \"#utility.yul\":7967:8046   */\n      tag_503\n      tag_336\n      jump\t// in\n    tag_503:\n        /* \"#utility.yul\":7929:8048   */\n    tag_502:\n        /* \"#utility.yul\":8087:8088   */\n      0x00\n        /* \"#utility.yul\":8112:8165   */\n      tag_504\n        /* \"#utility.yul\":8157:8164   */\n      dup6\n        /* \"#utility.yul\":8148:8154   */\n      dup3\n        /* \"#utility.yul\":8137:8146   */\n      dup7\n        /* \"#utility.yul\":8133:8155   */\n      add\n        /* \"#utility.yul\":8112:8165   */\n      tag_341\n      jump\t// in\n    tag_504:\n        /* \"#utility.yul\":8102:8165   */\n      swap3\n      pop\n        /* \"#utility.yul\":8058:8175   */\n      pop\n        /* \"#utility.yul\":8214:8216   */\n      0x20\n        /* \"#utility.yul\":8240:8290   */\n      tag_505\n        /* \"#utility.yul\":8282:8289   */\n      dup6\n        /* \"#utility.yul\":8273:8279   */\n      dup3\n        /* \"#utility.yul\":8262:8271   */\n      dup7\n        /* \"#utility.yul\":8258:8280   */\n      add\n        /* \"#utility.yul\":8240:8290   */\n      tag_351\n      jump\t// in\n    tag_505:\n        /* \"#utility.yul\":8230:8290   */\n      swap2\n      pop\n        /* \"#utility.yul\":8185:8300   */\n      pop\n        /* \"#utility.yul\":7839:8307   */\n      swap3\n      pop\n      swap3\n      swap1\n      pop\n      jump\t// out\n        /* \"#utility.yul\":8313:8482   */\n    tag_362:\n        /* \"#utility.yul\":8397:8408   */\n      0x00\n        /* \"#utility.yul\":8431:8437   */\n      dup3\n        /* \"#utility.yul\":8426:8429   */\n      dup3\n        /* \"#utility.yul\":8419:8438   */\n      mstore\n        /* \"#utility.yul\":8471:8475   */\n      0x20\n        /* \"#utility.yul\":8466:8469   */\n      dup3\n        /* \"#utility.yul\":8462:8476   */\n      add\n        /* \"#utility.yul\":8447:8476   */\n      swap1\n      pop\n        /* \"#utility.yul\":8313:8482   */\n      swap3\n      swap2\n      pop\n      pop\n      jump\t// out\n        /* \"#utility.yul\":8488:8656   */\n    tag_363:\n        /* \"#utility.yul\":8628:8648   */\n      0x436f6e7472616374206973206c6f636b65640000000000000000000000000000\n        /* \"#utility.yul\":8624:8625   */\n      0x00\n        /* \"#utility.yul\":8616:8622   */\n      dup3\n        /* \"#utility.yul\":8612:8626   */\n      add\n        /* \"#utility.yul\":8605:8649   */\n      mstore\n        /* \"#utility.yul\":8488:8656   */\n      pop\n      jump\t// out\n        /* \"#utility.yul\":8662:9028   */\n    tag_364:\n        /* \"#utility.yul\":8804:8807   */\n      0x00\n        /* \"#utility.yul\":8825:8892   */\n      tag_509\n        /* \"#utility.yul\":8889:8891   */\n      0x12\n        /* \"#utility.yul\":8884:8887   */\n      dup4\n        /* \"#utility.yul\":8825:8892   */\n      tag_362\n      jump\t// in\n    tag_509:\n        /* \"#utility.yul\":8818:8892   */\n      swap2\n      pop\n        /* \"#utility.yul\":8901:8994   */\n      tag_510\n        /* \"#utility.yul\":8990:8993   */\n      dup3\n        /* \"#utility.yul\":8901:8994   */\n      tag_363\n      jump\t// in\n    tag_510:\n        /* \"#utility.yul\":9019:9021   */\n      0x20\n        /* \"#utility.yul\":9014:9017   */\n      dup3\n        /* \"#utility.yul\":9010:9022   */\n      add\n        /* \"#utility.yul\":9003:9022   */\n      swap1\n      pop\n        /* \"#utility.yul\":8662:9028   */\n      swap2\n      swap1\n      pop\n      jump\t// out\n        /* \"#utility.yul\":9034:9453   */\n    tag_134:\n        /* \"#utility.yul\":9200:9204   */\n      0x00\n        /* \"#utility.yul\":9238:9240   */\n      0x20\n        /* \"#utility.yul\":9227:9236   */\n      dup3\n        /* \"#utility.yul\":9223:9241   */\n      add\n        /* \"#utility.yul\":9215:9241   */\n      swap1\n      pop\n        /* \"#utility.yul\":9287:9296   */\n      dup2\n        /* \"#utility.yul\":9281:9285   */\n      dup2\n        /* \"#utility.yul\":9277:9297   */\n      sub\n        /* \"#utility.yul\":9273:9274   */\n      0x00\n        /* \"#utility.yul\":9262:9271   */\n      dup4\n        /* \"#utility.yul\":9258:9275   */\n      add\n        /* \"#utility.yul\":9251:9298   */\n      mstore\n        /* \"#utility.yul\":9315:9446   */\n      tag_512\n        /* \"#utility.yul\":9441:9445   */\n      dup2\n        /* \"#utility.yul\":9315:9446   */\n      tag_364\n      jump\t// in\n    tag_512:\n        /* \"#utility.yul\":9307:9446   */\n      swap1\n      pop\n        /* \"#utility.yul\":9034:9453   */\n      swap2\n      swap1\n      pop\n      jump\t// out\n        /* \"#utility.yul\":9459:9626   */\n    tag_365:\n        /* \"#utility.yul\":9599:9618   */\n      0x526f756e64206e6f742073746172746564000000000000000000000000000000\n        /* \"#utility.yul\":9595:9596   */\n      0x00\n        /* \"#utility.yul\":9587:9593   */\n      dup3\n        /* \"#utility.yul\":9583:9597   */\n      add\n        /* \"#utility.yul\":9576:9619   */\n      mstore\n        /* \"#utility.yul\":9459:9626   */\n      pop\n      jump\t// out\n        /* \"#utility.yul\":9632:9998   */\n    tag_366:\n        /* \"#utility.yul\":9774:9777   */\n      0x00\n        /* \"#utility.yul\":9795:9862   */\n      tag_515\n        /* \"#utility.yul\":9859:9861   */\n      0x11\n        /* \"#utility.yul\":9854:9857   */\n      dup4\n        /* \"#utility.yul\":9795:9862   */\n      tag_362\n      jump\t// in\n    tag_515:\n        /* \"#utility.yul\":9788:9862   */\n      swap2\n      pop\n        /* \"#utility.yul\":9871:9964   */\n      tag_516\n        /* \"#utility.yul\":9960:9963   */\n      dup3\n        /* \"#utility.yul\":9871:9964   */\n      tag_365\n      jump\t// in\n    tag_516:\n        /* \"#utility.yul\":9989:9991   */\n      0x20\n        /* \"#utility.yul\":9984:9987   */\n      dup3\n        /* \"#utility.yul\":9980:9992   */\n      add\n        /* \"#utility.yul\":9973:9992   */\n      swap1\n      pop\n        /* \"#utility.yul\":9632:9998   */\n      swap2\n      swap1\n      pop\n      jump\t// out\n        /* \"#utility.yul\":10004:10423   */\n    tag_137:\n        /* \"#utility.yul\":10170:10174   */\n      0x00\n        /* \"#utility.yul\":10208:10210   */\n      0x20\n        /* \"#utility.yul\":10197:10206   */\n      dup3\n        /* \"#utility.yul\":10193:10211   */\n      add\n        /* \"#utility.yul\":10185:10211   */\n      swap1\n      pop\n        /* \"#utility.yul\":10257:10266   */\n      dup2\n        /* \"#utility.yul\":10251:10255   */\n      dup2\n        /* \"#utility.yul\":10247:10267   */\n      sub\n        /* \"#utility.yul\":10243:10244   */\n      0x00\n        /* \"#utility.yul\":10232:10241   */\n      dup4\n        /* \"#utility.yul\":10228:10245   */\n      add\n        /* \"#utility.yul\":10221:10268   */\n      mstore\n        /* \"#utility.yul\":10285:10416   */\n      tag_518\n        /* \"#utility.yul\":10411:10415   */\n      dup2\n        /* \"#utility.yul\":10285:10416   */\n      tag_366\n      jump\t// in\n    tag_518:\n        /* \"#utility.yul\":10277:10416   */\n      swap1\n      pop\n        /* \"#utility.yul\":10004:10423   */\n      swap2\n      swap1\n      pop\n      jump\t// out\n        /* \"#utility.yul\":10429:10587   */\n    tag_367:\n        /* \"#utility.yul\":10569:10579   */\n      0x4e6f2066756e6473000000000000000000000000000000000000000000000000\n        /* \"#utility.yul\":10565:10566   */\n      0x00\n        /* \"#utility.yul\":10557:10563   */\n      dup3\n        /* \"#utility.yul\":10553:10567   */\n      add\n        /* \"#utility.yul\":10546:10580   */\n      mstore\n        /* \"#utility.yul\":10429:10587   */\n      pop\n      jump\t// out\n        /* \"#utility.yul\":10593:10958   */\n    tag_368:\n        /* \"#utility.yul\":10735:10738   */\n      0x00\n        /* \"#utility.yul\":10756:10822   */\n      tag_521\n        /* \"#utility.yul\":10820:10821   */\n      0x08\n        /* \"#utility.yul\":10815:10818   */\n      dup4\n        /* \"#utility.yul\":10756:10822   */\n      tag_362\n      jump\t// in\n    tag_521:\n        /* \"#utility.yul\":10749:10822   */\n      swap2\n      pop\n        /* \"#utility.yul\":10831:10924   */\n      tag_522\n        /* \"#utility.yul\":10920:10923   */\n      dup3\n        /* \"#utility.yul\":10831:10924   */\n      tag_367\n      jump\t// in\n    tag_522:\n        /* \"#utility.yul\":10949:10951   */\n      0x20\n        /* \"#utility.yul\":10944:10947   */\n      dup3\n        /* \"#utility.yul\":10940:10952   */\n      add\n        /* \"#utility.yul\":10933:10952   */\n      swap1\n      pop\n        /* \"#utility.yul\":10593:10958   */\n      swap2\n      swap1\n      pop\n      jump\t// out\n        /* \"#utility.yul\":10964:11383   */\n    tag_140:\n        /* \"#utility.yul\":11130:11134   */\n      0x00\n        /* \"#utility.yul\":11168:11170   */\n      0x20\n        /* \"#utility.yul\":11157:11166   */\n      dup3\n        /* \"#utility.yul\":11153:11171   */\n      add\n        /* \"#utility.yul\":11145:11171   */\n      swap1\n      pop\n        /* \"#utility.yul\":11217:11226   */\n      dup2\n        /* \"#utility.yul\":11211:11215   */\n      dup2\n        /* \"#utility.yul\":11207:11227   */\n      sub\n        /* \"#utility.yul\":11203:11204   */\n      0x00\n        /* \"#utility.yul\":11192:11201   */\n      dup4\n        /* \"#utility.yul\":11188:11205   */\n      add\n        /* \"#utility.yul\":11181:11228   */\n      mstore\n        /* \"#utility.yul\":11245:11376   */\n      tag_524\n        /* \"#utility.yul\":11371:11375   */\n      dup2\n        /* \"#utility.yul\":11245:11376   */\n      tag_368\n      jump\t// in\n    tag_524:\n        /* \"#utility.yul\":11237:11376   */\n      swap1\n      pop\n        /* \"#utility.yul\":10964:11383   */\n      swap2\n      swap1\n      pop\n      jump\t// out\n        /* \"#utility.yul\":11389:11554   */\n    tag_369:\n        /* \"#utility.yul\":11529:11546   */\n      0x4e6f742077686974656c69737465640000000000000000000000000000000000\n        /* \"#utility.yul\":11525:11526   */\n      0x00\n        /* \"#utility.yul\":11517:11523   */\n      dup3\n        /* \"#utility.yul\":11513:11527   */\n      add\n        /* \"#utility.yul\":11506:11547   */\n      mstore\n        /* \"#utility.yul\":11389:11554   */\n      pop\n      jump\t// out\n        /* \"#utility.yul\":11560:11926   */\n    tag_370:\n        /* \"#utility.yul\":11702:11705   */\n      0x00\n        /* \"#utility.yul\":11723:11790   */\n      tag_527\n        /* \"#utility.yul\":11787:11789   */\n      0x0f\n        /* \"#utility.yul\":11782:11785   */\n      dup4\n        /* \"#utility.yul\":11723:11790   */\n      tag_362\n      jump\t// in\n    tag_527:\n        /* \"#utility.yul\":11716:11790   */\n      swap2\n      pop\n        /* \"#utility.yul\":11799:11892   */\n      tag_528\n        /* \"#utility.yul\":11888:11891   */\n      dup3\n        /* \"#utility.yul\":11799:11892   */\n      tag_369\n      jump\t// in\n    tag_528:\n        /* \"#utility.yul\":11917:11919   */\n      0x20\n        /* \"#utility.yul\":11912:11915   */\n      dup3\n        /* \"#utility.yul\":11908:11920   */\n      add\n        /* \"#utility.yul\":11901:11920   */\n      swap1\n      pop\n        /* \"#utility.yul\":11560:11926   */\n      swap2\n      swap1\n      pop\n      jump\t// out\n        /* \"#utility.yul\":11932:12351   */\n    tag_146:\n        /* \"#utility.yul\":12098:12102   */\n      0x00\n        /* \"#utility.yul\":12136:12138   */\n      0x20\n        /* \"#utility.yul\":12125:12134   */\n      dup3\n        /* \"#utility.yul\":12121:12139   */\n      add\n        /* \"#utility.yul\":12113:12139   */\n      swap1\n      pop\n        /* \"#utility.yul\":12185:12194   */\n      dup2\n        /* \"#utility.yul\":12179:12183   */\n      dup2\n        /* \"#utility.yul\":12175:12195   */\n      sub\n        /* \"#utility.yul\":12171:12172   */\n      0x00\n        /* \"#utility.yul\":12160:12169   */\n      dup4\n        /* \"#utility.yul\":12156:12173   */\n      add\n        /* \"#utility.yul\":12149:12196   */\n      mstore\n        /* \"#utility.yul\":12213:12344   */\n      tag_530\n        /* \"#utility.yul\":12339:12343   */\n      dup2\n        /* \"#utility.yul\":12213:12344   */\n      tag_370\n      jump\t// in\n    tag_530:\n        /* \"#utility.yul\":12205:12344   */\n      swap1\n      pop\n        /* \"#utility.yul\":11932:12351   */\n      swap2\n      swap1\n      pop\n      jump\t// out\n        /* \"#utility.yul\":12357:12526   */\n    tag_371:\n        /* \"#utility.yul\":12497:12518   */\n      0x546f6b656e206e6f7420737570706f7274656400000000000000000000000000\n        /* \"#utility.yul\":12493:12494   */\n      0x00\n        /* \"#utility.yul\":12485:12491   */\n      dup3\n        /* \"#utility.yul\":12481:12495   */\n      add\n        /* \"#utility.yul\":12474:12519   */\n      mstore\n        /* \"#utility.yul\":12357:12526   */\n      pop\n      jump\t// out\n        /* \"#utility.yul\":12532:12898   */\n    tag_372:\n        /* \"#utility.yul\":12674:12677   */\n      0x00\n        /* \"#utility.yul\":12695:12762   */\n      tag_533\n        /* \"#utility.yul\":12759:12761   */\n      0x13\n        /* \"#utility.yul\":12754:12757   */\n      dup4\n        /* \"#utility.yul\":12695:12762   */\n      tag_362\n      jump\t// in\n    tag_533:\n        /* \"#utility.yul\":12688:12762   */\n      swap2\n      pop\n        /* \"#utility.yul\":12771:12864   */\n      tag_534\n        /* \"#utility.yul\":12860:12863   */\n      dup3\n        /* \"#utility.yul\":12771:12864   */\n      tag_371\n      jump\t// in\n    tag_534:\n        /* \"#utility.yul\":12889:12891   */\n      0x20\n        /* \"#utility.yul\":12884:12887   */\n      dup3\n        /* \"#utility.yul\":12880:12892   */\n      add\n        /* \"#utility.yul\":12873:12892   */\n      swap1\n      pop\n        /* \"#utility.yul\":12532:12898   */\n      swap2\n      swap1\n      pop\n      jump\t// out\n        /* \"#utility.yul\":12904:13323   */\n    tag_150:\n        /* \"#utility.yul\":13070:13074   */\n      0x00\n        /* \"#utility.yul\":13108:13110   */\n      0x20\n        /* \"#utility.yul\":13097:13106   */\n      dup3\n        /* \"#utility.yul\":13093:13111   */\n      add\n        /* \"#utility.yul\":13085:13111   */\n      swap1\n      pop\n        /* \"#utility.yul\":13157:13166   */\n      dup2\n        /* \"#utility.yul\":13151:13155   */\n      dup2\n        /* \"#utility.yul\":13147:13167   */\n      sub\n        /* \"#utility.yul\":13143:13144   */\n      0x00\n        /* \"#utility.yul\":13132:13141   */\n      dup4\n        /* \"#utility.yul\":13128:13145   */\n      add\n        /* \"#utility.yul\":13121:13168   */\n      mstore\n        /* \"#utility.yul\":13185:13316   */\n      tag_536\n        /* \"#utility.yul\":13311:13315   */\n      dup2\n        /* \"#utility.yul\":13185:13316   */\n      tag_372\n      jump\t// in\n    tag_536:\n        /* \"#utility.yul\":13177:13316   */\n      swap1\n      pop\n        /* \"#utility.yul\":12904:13323   */\n      swap2\n      swap1\n      pop\n      jump\t// out\n        /* \"#utility.yul\":13329:13493   */\n    tag_373:\n        /* \"#utility.yul\":13469:13485   */\n      0x496e76616c696420616d6f756e74000000000000000000000000000000000000\n        /* \"#utility.yul\":13465:13466   */\n      0x00\n        /* \"#utility.yul\":13457:13463   */\n      dup3\n        /* \"#utility.yul\":13453:13467   */\n      add\n        /* \"#utility.yul\":13446:13486   */\n      mstore\n        /* \"#utility.yul\":13329:13493   */\n      pop\n      jump\t// out\n        /* \"#utility.yul\":13499:13865   */\n    tag_374:\n        /* \"#utility.yul\":13641:13644   */\n      0x00\n        /* \"#utility.yul\":13662:13729   */\n      tag_539\n        /* \"#utility.yul\":13726:13728   */\n      0x0e\n        /* \"#utility.yul\":13721:13724   */\n      dup4\n        /* \"#utility.yul\":13662:13729   */\n      tag_362\n      jump\t// in\n    tag_539:\n        /* \"#utility.yul\":13655:13729   */\n      swap2\n      pop\n        /* \"#utility.yul\":13738:13831   */\n      tag_540\n        /* \"#utility.yul\":13827:13830   */\n      dup3\n        /* \"#utility.yul\":13738:13831   */\n      tag_373\n      jump\t// in\n    tag_540:\n        /* \"#utility.yul\":13856:13858   */\n      0x20\n        /* \"#utility.yul\":13851:13854   */\n      dup3\n        /* \"#utility.yul\":13847:13859   */\n      add\n        /* \"#utility.yul\":13840:13859   */\n      swap1\n      pop\n        /* \"#utility.yul\":13499:13865   */\n      swap2\n      swap1\n      pop\n      jump\t// out\n        /* \"#utility.yul\":13871:14290   */\n    tag_153:\n        /* \"#utility.yul\":14037:14041   */\n      0x00\n        /* \"#utility.yul\":14075:14077   */\n      0x20\n        /* \"#utility.yul\":14064:14073   */\n      dup3\n        /* \"#utility.yul\":14060:14078   */\n      add\n        /* \"#utility.yul\":14052:14078   */\n      swap1\n      pop\n        /* \"#utility.yul\":14124:14133   */\n      dup2\n        /* \"#utility.yul\":14118:14122   */\n      dup2\n        /* \"#utility.yul\":14114:14134   */\n      sub\n        /* \"#utility.yul\":14110:14111   */\n      0x00\n        /* \"#utility.yul\":14099:14108   */\n      dup4\n        /* \"#utility.yul\":14095:14112   */\n      add\n        /* \"#utility.yul\":14088:14135   */\n      mstore\n        /* \"#utility.yul\":14152:14283   */\n      tag_542\n        /* \"#utility.yul\":14278:14282   */\n      dup2\n        /* \"#utility.yul\":14152:14283   */\n      tag_374\n      jump\t// in\n    tag_542:\n        /* \"#utility.yul\":14144:14283   */\n      swap1\n      pop\n        /* \"#utility.yul\":13871:14290   */\n      swap2\n      swap1\n      pop\n      jump\t// out\n        /* \"#utility.yul\":14296:14738   */\n    tag_155:\n        /* \"#utility.yul\":14445:14449   */\n      0x00\n        /* \"#utility.yul\":14483:14485   */\n      0x60\n        /* \"#utility.yul\":14472:14481   */\n      dup3\n        /* \"#utility.yul\":14468:14486   */\n      add\n        /* \"#utility.yul\":14460:14486   */\n      swap1\n      pop\n        /* \"#utility.yul\":14496:14567   */\n      tag_544\n        /* \"#utility.yul\":14564:14565   */\n      0x00\n        /* \"#utility.yul\":14553:14562   */\n      dup4\n        /* \"#utility.yul\":14549:14566   */\n      add\n        /* \"#utility.yul\":14540:14546   */\n      dup7\n        /* \"#utility.yul\":14496:14567   */\n      tag_348\n      jump\t// in\n    tag_544:\n        /* \"#utility.yul\":14577:14649   */\n      tag_545\n        /* \"#utility.yul\":14645:14647   */\n      0x20\n        /* \"#utility.yul\":14634:14643   */\n      dup4\n        /* \"#utility.yul\":14630:14648   */\n      add\n        /* \"#utility.yul\":14621:14627   */\n      dup6\n        /* \"#utility.yul\":14577:14649   */\n      tag_348\n      jump\t// in\n    tag_545:\n        /* \"#utility.yul\":14659:14731   */\n      tag_546\n        /* \"#utility.yul\":14727:14729   */\n      0x40\n        /* \"#utility.yul\":14716:14725   */\n      dup4\n        /* \"#utility.yul\":14712:14730   */\n      add\n        /* \"#utility.yul\":14703:14709   */\n      dup5\n        /* \"#utility.yul\":14659:14731   */\n      tag_334\n      jump\t// in\n    tag_546:\n        /* \"#utility.yul\":14296:14738   */\n      swap5\n      swap4\n      pop\n      pop\n      pop\n      pop\n      jump\t// out\n        /* \"#utility.yul\":14744:14881   */\n    tag_375:\n        /* \"#utility.yul\":14798:14803   */\n      0x00\n        /* \"#utility.yul\":14829:14835   */\n      dup2\n        /* \"#utility.yul\":14823:14836   */\n      mload\n        /* \"#utility.yul\":14814:14836   */\n      swap1\n      pop\n        /* \"#utility.yul\":14845:14875   */\n      tag_548\n        /* \"#utility.yul\":14869:14874   */\n      dup2\n        /* \"#utility.yul\":14845:14875   */\n      tag_350\n      jump\t// in\n    tag_548:\n        /* \"#utility.yul\":14744:14881   */\n      swap3\n      swap2\n      pop\n      pop\n      jump\t// out\n        /* \"#utility.yul\":14887:15232   */\n    tag_159:\n        /* \"#utility.yul\":14954:14960   */\n      0x00\n        /* \"#utility.yul\":15003:15005   */\n      0x20\n        /* \"#utility.yul\":14991:15000   */\n      dup3\n        /* \"#utility.yul\":14982:14989   */\n      dup5\n        /* \"#utility.yul\":14978:15001   */\n      sub\n        /* \"#utility.yul\":14974:15006   */\n      slt\n        /* \"#utility.yul\":14971:15090   */\n      iszero\n      tag_550\n      jumpi\n        /* \"#utility.yul\":15009:15088   */\n      tag_551\n      tag_336\n      jump\t// in\n    tag_551:\n        /* \"#utility.yul\":14971:15090   */\n    tag_550:\n        /* \"#utility.yul\":15129:15130   */\n      0x00\n        /* \"#utility.yul\":15154:15215   */\n      tag_552\n        /* \"#utility.yul\":15207:15214   */\n      dup5\n        /* \"#utility.yul\":15198:15204   */\n      dup3\n        /* \"#utility.yul\":15187:15196   */\n      dup6\n        /* \"#utility.yul\":15183:15205   */\n      add\n        /* \"#utility.yul\":15154:15215   */\n      tag_375\n      jump\t// in\n    tag_552:\n        /* \"#utility.yul\":15144:15215   */\n      swap2\n      pop\n        /* \"#utility.yul\":15100:15225   */\n      pop\n        /* \"#utility.yul\":14887:15232   */\n      swap3\n      swap2\n      pop\n      pop\n      jump\t// out\n        /* \"#utility.yul\":15238:15403   */\n    tag_376:\n        /* \"#utility.yul\":15378:15395   */\n      0x5472616e73666572206661696c65640000000000000000000000000000000000\n        /* \"#utility.yul\":15374:15375   */\n      0x00\n        /* \"#utility.yul\":15366:15372   */\n      dup3\n        /* \"#utility.yul\":15362:15376   */\n      add\n        /* \"#utility.yul\":15355:15396   */\n      mstore\n        /* \"#utility.yul\":15238:15403   */\n      pop\n      jump\t// out\n        /* \"#utility.yul\":15409:15775   */\n    tag_377:\n        /* \"#utility.yul\":15551:15554   */\n      0x00\n        /* \"#utility.yul\":15572:15639   */\n      tag_555\n        /* \"#utility.yul\":15636:15638   */\n      0x0f\n        /* \"#utility.yul\":15631:15634   */\n      dup4\n        /* \"#utility.yul\":15572:15639   */\n      tag_362\n      jump\t// in\n    tag_555:\n        /* \"#utility.yul\":15565:15639   */\n      swap2\n      pop\n        /* \"#utility.yul\":15648:15741   */\n      tag_556\n        /* \"#utility.yul\":15737:15740   */\n      dup3\n        /* \"#utility.yul\":15648:15741   */\n      tag_376\n      jump\t// in\n    tag_556:\n        /* \"#utility.yul\":15766:15768   */\n      0x20\n        /* \"#utility.yul\":15761:15764   */\n      dup3\n        /* \"#utility.yul\":15757:15769   */\n      add\n        /* \"#utility.yul\":15750:15769   */\n      swap1\n      pop\n        /* \"#utility.yul\":15409:15775   */\n      swap2\n      swap1\n      pop\n      jump\t// out\n        /* \"#utility.yul\":15781:16200   */\n    tag_162:\n        /* \"#utility.yul\":15947:15951   */\n      0x00\n        /* \"#utility.yul\":15985:15987   */\n      0x20\n        /* \"#utility.yul\":15974:15983   */\n      dup3\n        /* \"#utility.yul\":15970:15988   */\n      add\n        /* \"#utility.yul\":15962:15988   */\n      swap1\n      pop\n        /* \"#utility.yul\":16034:16043   */\n      dup2\n        /* \"#utility.yul\":16028:16032   */\n      dup2\n        /* \"#utility.yul\":16024:16044   */\n      sub\n        /* \"#utility.yul\":16020:16021   */\n      0x00\n        /* \"#utility.yul\":16009:16018   */\n      dup4\n        /* \"#utility.yul\":16005:16022   */\n      add\n        /* \"#utility.yul\":15998:16045   */\n      mstore\n        /* \"#utility.yul\":16062:16193   */\n      tag_558\n        /* \"#utility.yul\":16188:16192   */\n      dup2\n        /* \"#utility.yul\":16062:16193   */\n      tag_377\n      jump\t// in\n    tag_558:\n        /* \"#utility.yul\":16054:16193   */\n      swap1\n      pop\n        /* \"#utility.yul\":15781:16200   */\n      swap2\n      swap1\n      pop\n      jump\t// out\n        /* \"#utility.yul\":16206:16349   */\n    tag_378:\n        /* \"#utility.yul\":16263:16268   */\n      0x00\n        /* \"#utility.yul\":16294:16300   */\n      dup2\n        /* \"#utility.yul\":16288:16301   */\n      mload\n        /* \"#utility.yul\":16279:16301   */\n      swap1\n      pop\n        /* \"#utility.yul\":16310:16343   */\n      tag_560\n        /* \"#utility.yul\":16337:16342   */\n      dup2\n        /* \"#utility.yul\":16310:16343   */\n      tag_342\n      jump\t// in\n    tag_560:\n        /* \"#utility.yul\":16206:16349   */\n      swap3\n      swap2\n      pop\n      pop\n      jump\t// out\n        /* \"#utility.yul\":16355:16706   */\n    tag_168:\n        /* \"#utility.yul\":16425:16431   */\n      0x00\n        /* \"#utility.yul\":16474:16476   */\n      0x20\n        /* \"#utility.yul\":16462:16471   */\n      dup3\n        /* \"#utility.yul\":16453:16460   */\n      dup5\n        /* \"#utility.yul\":16449:16472   */\n      sub\n        /* \"#utility.yul\":16445:16477   */\n      slt\n        /* \"#utility.yul\":16442:16561   */\n      iszero\n      tag_562\n      jumpi\n        /* \"#utility.yul\":16480:16559   */\n      tag_563\n      tag_336\n      jump\t// in\n    tag_563:\n        /* \"#utility.yul\":16442:16561   */\n    tag_562:\n        /* \"#utility.yul\":16600:16601   */\n      0x00\n        /* \"#utility.yul\":16625:16689   */\n      tag_564\n        /* \"#utility.yul\":16681:16688   */\n      dup5\n        /* \"#utility.yul\":16672:16678   */\n      dup3\n        /* \"#utility.yul\":16661:16670   */\n      dup6\n        /* \"#utility.yul\":16657:16679   */\n      add\n        /* \"#utility.yul\":16625:16689   */\n      tag_378\n      jump\t// in\n    tag_564:\n        /* \"#utility.yul\":16615:16689   */\n      swap2\n      pop\n        /* \"#utility.yul\":16571:16699   */\n      pop\n        /* \"#utility.yul\":16355:16706   */\n      swap3\n      swap2\n      pop\n      pop\n      jump\t// out\n        /* \"#utility.yul\":16712:16892   */\n    tag_379:\n        /* \"#utility.yul\":16760:16837   */\n      0x4e487b7100000000000000000000000000000000000000000000000000000000\n        /* \"#utility.yul\":16757:16758   */\n      0x00\n        /* \"#utility.yul\":16750:16838   */\n      mstore\n        /* \"#utility.yul\":16857:16861   */\n      0x11\n        /* \"#utility.yul\":16854:16855   */\n      0x04\n        /* \"#utility.yul\":16847:16862   */\n      mstore\n        /* \"#utility.yul\":16881:16885   */\n      0x24\n        /* \"#utility.yul\":16878:16879   */\n      0x00\n        /* \"#utility.yul\":16871:16886   */\n      revert\n        /* \"#utility.yul\":16898:17308   */\n    tag_170:\n        /* \"#utility.yul\":16938:16945   */\n      0x00\n        /* \"#utility.yul\":16961:16981   */\n      tag_567\n        /* \"#utility.yul\":16979:16980   */\n      dup3\n        /* \"#utility.yul\":16961:16981   */\n      tag_333\n      jump\t// in\n    tag_567:\n        /* \"#utility.yul\":16956:16981   */\n      swap2\n      pop\n        /* \"#utility.yul\":16995:17015   */\n      tag_568\n        /* \"#utility.yul\":17013:17014   */\n      dup4\n        /* \"#utility.yul\":16995:17015   */\n      tag_333\n      jump\t// in\n    tag_568:\n        /* \"#utility.yul\":16990:17015   */\n      swap3\n      pop\n        /* \"#utility.yul\":17050:17051   */\n      dup3\n        /* \"#utility.yul\":17047:17048   */\n      dup3\n        /* \"#utility.yul\":17043:17052   */\n      mul\n        /* \"#utility.yul\":17072:17102   */\n      tag_569\n        /* \"#utility.yul\":17090:17101   */\n      dup2\n        /* \"#utility.yul\":17072:17102   */\n      tag_333\n      jump\t// in\n    tag_569:\n        /* \"#utility.yul\":17061:17102   */\n      swap2\n      pop\n        /* \"#utility.yul\":17251:17252   */\n      dup3\n        /* \"#utility.yul\":17242:17249   */\n      dup3\n        /* \"#utility.yul\":17238:17253   */\n      div\n        /* \"#utility.yul\":17235:17236   */\n      dup5\n        /* \"#utility.yul\":17232:17254   */\n      eq\n        /* \"#utility.yul\":17212:17213   */\n      dup4\n        /* \"#utility.yul\":17205:17214   */\n      iszero\n        /* \"#utility.yul\":17185:17268   */\n      or\n        /* \"#utility.yul\":17162:17301   */\n      tag_570\n      jumpi\n        /* \"#utility.yul\":17281:17299   */\n      tag_571\n      tag_379\n      jump\t// in\n    tag_571:\n        /* \"#utility.yul\":17162:17301   */\n    tag_570:\n        /* \"#utility.yul\":16946:17308   */\n      pop\n        /* \"#utility.yul\":16898:17308   */\n      swap3\n      swap2\n      pop\n      pop\n      jump\t// out\n        /* \"#utility.yul\":17314:17494   */\n    tag_380:\n        /* \"#utility.yul\":17362:17439   */\n      0x4e487b7100000000000000000000000000000000000000000000000000000000\n        /* \"#utility.yul\":17359:17360   */\n      0x00\n        /* \"#utility.yul\":17352:17440   */\n      mstore\n        /* \"#utility.yul\":17459:17463   */\n      0x12\n        /* \"#utility.yul\":17456:17457   */\n      0x04\n        /* \"#utility.yul\":17449:17464   */\n      mstore\n        /* \"#utility.yul\":17483:17487   */\n      0x24\n        /* \"#utility.yul\":17480:17481   */\n      0x00\n        /* \"#utility.yul\":17473:17488   */\n      revert\n        /* \"#utility.yul\":17500:17685   */\n    tag_172:\n        /* \"#utility.yul\":17540:17541   */\n      0x00\n        /* \"#utility.yul\":17557:17577   */\n      tag_574\n        /* \"#utility.yul\":17575:17576   */\n      dup3\n        /* \"#utility.yul\":17557:17577   */\n      tag_333\n      jump\t// in\n    tag_574:\n        /* \"#utility.yul\":17552:17577   */\n      swap2\n      pop\n        /* \"#utility.yul\":17591:17611   */\n      tag_575\n        /* \"#utility.yul\":17609:17610   */\n      dup4\n        /* \"#utility.yul\":17591:17611   */\n      tag_333\n      jump\t// in\n    tag_575:\n        /* \"#utility.yul\":17586:17611   */\n      swap3\n      pop\n        /* \"#utility.yul\":17630:17631   */\n      dup3\n        /* \"#utility.yul\":17620:17655   */\n      tag_576\n      jumpi\n        /* \"#utility.yul\":17635:17653   */\n      tag_577\n      tag_380\n      jump\t// in\n    tag_577:\n        /* \"#utility.yul\":17620:17655   */\n    tag_576:\n        /* \"#utility.yul\":17677:17678   */\n      dup3\n        /* \"#utility.yul\":17674:17675   */\n      dup3\n        /* \"#utility.yul\":17670:17679   */\n      div\n        /* \"#utility.yul\":17665:17679   */\n      swap1\n      pop\n        /* \"#utility.yul\":17500:17685   */\n      swap3\n      swap2\n      pop\n      pop\n      jump\t// out\n        /* \"#utility.yul\":17691:17882   */\n    tag_174:\n        /* \"#utility.yul\":17731:17734   */\n      0x00\n        /* \"#utility.yul\":17750:17770   */\n      tag_579\n        /* \"#utility.yul\":17768:17769   */\n      dup3\n        /* \"#utility.yul\":17750:17770   */\n      tag_333\n      jump\t// in\n    tag_579:\n        /* \"#utility.yul\":17745:17770   */\n      swap2\n      pop\n        /* \"#utility.yul\":17784:17804   */\n      tag_580\n        /* \"#utility.yul\":17802:17803   */\n      dup4\n        /* \"#utility.yul\":17784:17804   */\n      tag_333\n      jump\t// in\n    tag_580:\n        /* \"#utility.yul\":17779:17804   */\n      swap3\n      pop\n        /* \"#utility.yul\":17827:17828   */\n      dup3\n        /* \"#utility.yul\":17824:17825   */\n      dup3\n        /* \"#utility.yul\":17820:17829   */\n      add\n        /* \"#utility.yul\":17813:17829   */\n      swap1\n      pop\n        /* \"#utility.yul\":17848:17851   */\n      dup1\n        /* \"#utility.yul\":17845:17846   */\n      dup3\n        /* \"#utility.yul\":17842:17852   */\n      gt\n        /* \"#utility.yul\":17839:17875   */\n      iszero\n      tag_581\n      jumpi\n        /* \"#utility.yul\":17855:17873   */\n      tag_582\n      tag_379\n      jump\t// in\n    tag_582:\n        /* \"#utility.yul\":17839:17875   */\n    tag_581:\n        /* \"#utility.yul\":17691:17882   */\n      swap3\n      swap2\n      pop\n      pop\n      jump\t// out\n        /* \"#utility.yul\":17888:18057   */\n    tag_381:\n        /* \"#utility.yul\":18028:18049   */\n      0x45786365656473206461696c79206c696d697400000000000000000000000000\n        /* \"#utility.yul\":18024:18025   */\n      0x00\n        /* \"#utility.yul\":18016:18022   */\n      dup3\n        /* \"#utility.yul\":18012:18026   */\n      add\n        /* \"#utility.yul\":18005:18050   */\n      mstore\n        /* \"#utility.yul\":17888:18057   */\n      pop\n      jump\t// out\n        /* \"#utility.yul\":18063:18429   */\n    tag_382:\n        /* \"#utility.yul\":18205:18208   */\n      0x00\n        /* \"#utility.yul\":18226:18293   */\n      tag_585\n        /* \"#utility.yul\":18290:18292   */\n      0x13\n        /* \"#utility.yul\":18285:18288   */\n      dup4\n        /* \"#utility.yul\":18226:18293   */\n      tag_362\n      jump\t// in\n    tag_585:\n        /* \"#utility.yul\":18219:18293   */\n      swap2\n      pop\n        /* \"#utility.yul\":18302:18395   */\n      tag_586\n        /* \"#utility.yul\":18391:18394   */\n      dup3\n        /* \"#utility.yul\":18302:18395   */\n      tag_381\n      jump\t// in\n    tag_586:\n        /* \"#utility.yul\":18420:18422   */\n      0x20\n        /* \"#utility.yul\":18415:18418   */\n      dup3\n        /* \"#utility.yul\":18411:18423   */\n      add\n        /* \"#utility.yul\":18404:18423   */\n      swap1\n      pop\n        /* \"#utility.yul\":18063:18429   */\n      swap2\n      swap1\n      pop\n      jump\t// out\n        /* \"#utility.yul\":18435:18854   */\n    tag_177:\n        /* \"#utility.yul\":18601:18605   */\n      0x00\n        /* \"#utility.yul\":18639:18641   */\n      0x20\n        /* \"#utility.yul\":18628:18637   */\n      dup3\n        /* \"#utility.yul\":18624:18642   */\n      add\n        /* \"#utility.yul\":18616:18642   */\n      swap1\n      pop\n        /* \"#utility.yul\":18688:18697   */\n      dup2\n        /* \"#utility.yul\":18682:18686   */\n      dup2\n        /* \"#utility.yul\":18678:18698   */\n      sub\n        /* \"#utility.yul\":18674:18675   */\n      0x00\n        /* \"#utility.yul\":18663:18672   */\n      dup4\n        /* \"#utility.yul\":18659:18676   */\n      add\n        /* \"#utility.yul\":18652:18699   */\n      mstore\n        /* \"#utility.yul\":18716:18847   */\n      tag_588\n        /* \"#utility.yul\":18842:18846   */\n      dup2\n        /* \"#utility.yul\":18716:18847   */\n      tag_382\n      jump\t// in\n    tag_588:\n        /* \"#utility.yul\":18708:18847   */\n      swap1\n      pop\n        /* \"#utility.yul\":18435:18854   */\n      swap2\n      swap1\n      pop\n      jump\t// out\n        /* \"#utility.yul\":18860:19054   */\n    tag_181:\n        /* \"#utility.yul\":18900:18904   */\n      0x00\n        /* \"#utility.yul\":18920:18940   */\n      tag_590\n        /* \"#utility.yul\":18938:18939   */\n      dup3\n        /* \"#utility.yul\":18920:18940   */\n      tag_333\n      jump\t// in\n    tag_590:\n        /* \"#utility.yul\":18915:18940   */\n      swap2\n      pop\n        /* \"#utility.yul\":18954:18974   */\n      tag_591\n        /* \"#utility.yul\":18972:18973   */\n      dup4\n        /* \"#utility.yul\":18954:18974   */\n      tag_333\n      jump\t// in\n    tag_591:\n        /* \"#utility.yul\":18949:18974   */\n      swap3\n      pop\n        /* \"#utility.yul\":18998:18999   */\n      dup3\n        /* \"#utility.yul\":18995:18996   */\n      dup3\n        /* \"#utility.yul\":18991:19000   */\n      sub\n        /* \"#utility.yul\":18983:19000   */\n      swap1\n      pop\n        /* \"#utility.yul\":19022:19023   */\n      dup2\n        /* \"#utility.yul\":19016:19020   */\n      dup2\n        /* \"#utility.yul\":19013:19024   */\n      gt\n        /* \"#utility.yul\":19010:19047   */\n      iszero\n      tag_592\n      jumpi\n        /* \"#utility.yul\":19027:19045   */\n      tag_593\n      tag_379\n      jump\t// in\n    tag_593:\n        /* \"#utility.yul\":19010:19047   */\n    tag_592:\n        /* \"#utility.yul\":18860:19054   */\n      swap3\n      swap2\n      pop\n      pop\n      jump\t// out\n        /* \"#utility.yul\":19060:19234   */\n    tag_383:\n        /* \"#utility.yul\":19200:19226   */\n      0x496e73756666696369656e74207661756c742066756e64730000000000000000\n        /* \"#utility.yul\":19196:19197   */\n      0x00\n        /* \"#utility.yul\":19188:19194   */\n      dup3\n        /* \"#utility.yul\":19184:19198   */\n      add\n        /* \"#utility.yul\":19177:19227   */\n      mstore\n        /* \"#utility.yul\":19060:19234   */\n      pop\n      jump\t// out\n        /* \"#utility.yul\":19240:19606   */\n    tag_384:\n        /* \"#utility.yul\":19382:19385   */\n      0x00\n        /* \"#utility.yul\":19403:19470   */\n      tag_596\n        /* \"#utility.yul\":19467:19469   */\n      0x18\n        /* \"#utility.yul\":19462:19465   */\n      dup4\n        /* \"#utility.yul\":19403:19470   */\n      tag_362\n      jump\t// in\n    tag_596:\n        /* \"#utility.yul\":19396:19470   */\n      swap2\n      pop\n        /* \"#utility.yul\":19479:19572   */\n      tag_597\n        /* \"#utility.yul\":19568:19571   */\n      dup3\n        /* \"#utility.yul\":19479:19572   */\n      tag_383\n      jump\t// in\n    tag_597:\n        /* \"#utility.yul\":19597:19599   */\n      0x20\n        /* \"#utility.yul\":19592:19595   */\n      dup3\n        /* \"#utility.yul\":19588:19600   */\n      add\n        /* \"#utility.yul\":19581:19600   */\n      swap1\n      pop\n        /* \"#utility.yul\":19240:19606   */\n      swap2\n      swap1\n      pop\n      jump\t// out\n        /* \"#utility.yul\":19612:20031   */\n    tag_184:\n        /* \"#utility.yul\":19778:19782   */\n      0x00\n        /* \"#utility.yul\":19816:19818   */\n      0x20\n        /* \"#utility.yul\":19805:19814   */\n      dup3\n        /* \"#utility.yul\":19801:19819   */\n      add\n        /* \"#utility.yul\":19793:19819   */\n      swap1\n      pop\n        /* \"#utility.yul\":19865:19874   */\n      dup2\n        /* \"#utility.yul\":19859:19863   */\n      dup2\n        /* \"#utility.yul\":19855:19875   */\n      sub\n        /* \"#utility.yul\":19851:19852   */\n      0x00\n        /* \"#utility.yul\":19840:19849   */\n      dup4\n        /* \"#utility.yul\":19836:19853   */\n      add\n        /* \"#utility.yul\":19829:19876   */\n      mstore\n        /* \"#utility.yul\":19893:20024   */\n      tag_599\n        /* \"#utility.yul\":20019:20023   */\n      dup2\n        /* \"#utility.yul\":19893:20024   */\n      tag_384\n      jump\t// in\n    tag_599:\n        /* \"#utility.yul\":19885:20024   */\n      swap1\n      pop\n        /* \"#utility.yul\":19612:20031   */\n      swap2\n      swap1\n      pop\n      jump\t// out\n        /* \"#utility.yul\":20037:20369   */\n    tag_188:\n        /* \"#utility.yul\":20158:20162   */\n      0x00\n        /* \"#utility.yul\":20196:20198   */\n      0x40\n        /* \"#utility.yul\":20185:20194   */\n      dup3\n        /* \"#utility.yul\":20181:20199   */\n      add\n        /* \"#utility.yul\":20173:20199   */\n      swap1\n      pop\n        /* \"#utility.yul\":20209:20280   */\n      tag_601\n        /* \"#utility.yul\":20277:20278   */\n      0x00\n        /* \"#utility.yul\":20266:20275   */\n      dup4\n        /* \"#utility.yul\":20262:20279   */\n      add\n        /* \"#utility.yul\":20253:20259   */\n      dup6\n        /* \"#utility.yul\":20209:20280   */\n      tag_348\n      jump\t// in\n    tag_601:\n        /* \"#utility.yul\":20290:20362   */\n      tag_602\n        /* \"#utility.yul\":20358:20360   */\n      0x20\n        /* \"#utility.yul\":20347:20356   */\n      dup4\n        /* \"#utility.yul\":20343:20361   */\n      add\n        /* \"#utility.yul\":20334:20340   */\n      dup5\n        /* \"#utility.yul\":20290:20362   */\n      tag_334\n      jump\t// in\n    tag_602:\n        /* \"#utility.yul\":20037:20369   */\n      swap4\n      swap3\n      pop\n      pop\n      pop\n      jump\t// out\n        /* \"#utility.yul\":20375:20538   */\n    tag_385:\n        /* \"#utility.yul\":20515:20530   */\n      0x526566756e64206661696c656400000000000000000000000000000000000000\n        /* \"#utility.yul\":20511:20512   */\n      0x00\n        /* \"#utility.yul\":20503:20509   */\n      dup3\n        /* \"#utility.yul\":20499:20513   */\n      add\n        /* \"#utility.yul\":20492:20531   */\n      mstore\n        /* \"#utility.yul\":20375:20538   */\n      pop\n      jump\t// out\n        /* \"#utility.yul\":20544:20910   */\n    tag_386:\n        /* \"#utility.yul\":20686:20689   */\n      0x00\n        /* \"#utility.yul\":20707:20774   */\n      tag_605\n        /* \"#utility.yul\":20771:20773   */\n      0x0d\n        /* \"#utility.yul\":20766:20769   */\n      dup4\n        /* \"#utility.yul\":20707:20774   */\n      tag_362\n      jump\t// in\n    tag_605:\n        /* \"#utility.yul\":20700:20774   */\n      swap2\n      pop\n        /* \"#utility.yul\":20783:20876   */\n      tag_606\n        /* \"#utility.yul\":20872:20875   */\n      dup3\n        /* \"#utility.yul\":20783:20876   */\n      tag_385\n      jump\t// in\n    tag_606:\n        /* \"#utility.yul\":20901:20903   */\n      0x20\n        /* \"#utility.yul\":20896:20899   */\n      dup3\n        /* \"#utility.yul\":20892:20904   */\n      add\n        /* \"#utility.yul\":20885:20904   */\n      swap1\n      pop\n        /* \"#utility.yul\":20544:20910   */\n      swap2\n      swap1\n      pop\n      jump\t// out\n        /* \"#utility.yul\":20916:21335   */\n    tag_194:\n        /* \"#utility.yul\":21082:21086   */\n      0x00\n        /* \"#utility.yul\":21120:21122   */\n      0x20\n        /* \"#utility.yul\":21109:21118   */\n      dup3\n        /* \"#utility.yul\":21105:21123   */\n      add\n        /* \"#utility.yul\":21097:21123   */\n      swap1\n      pop\n        /* \"#utility.yul\":21169:21178   */\n      dup2\n        /* \"#utility.yul\":21163:21167   */\n      dup2\n        /* \"#utility.yul\":21159:21179   */\n      sub\n        /* \"#utility.yul\":21155:21156   */\n      0x00\n        /* \"#utility.yul\":21144:21153   */\n      dup4\n        /* \"#utility.yul\":21140:21157   */\n      add\n        /* \"#utility.yul\":21133:21180   */\n      mstore\n        /* \"#utility.yul\":21197:21328   */\n      tag_608\n        /* \"#utility.yul\":21323:21327   */\n      dup2\n        /* \"#utility.yul\":21197:21328   */\n      tag_386\n      jump\t// in\n    tag_608:\n        /* \"#utility.yul\":21189:21328   */\n      swap1\n      pop\n        /* \"#utility.yul\":20916:21335   */\n      swap2\n      swap1\n      pop\n      jump\t// out\n        /* \"#utility.yul\":21341:21510   */\n    tag_387:\n        /* \"#utility.yul\":21481:21502   */\n      0x466565207472616e73666572206661696c656400000000000000000000000000\n        /* \"#utility.yul\":21477:21478   */\n      0x00\n        /* \"#utility.yul\":21469:21475   */\n      dup3\n        /* \"#utility.yul\":21465:21479   */\n      add\n        /* \"#utility.yul\":21458:21503   */\n      mstore\n        /* \"#utility.yul\":21341:21510   */\n      pop\n      jump\t// out\n        /* \"#utility.yul\":21516:21882   */\n    tag_388:\n        /* \"#utility.yul\":21658:21661   */\n      0x00\n        /* \"#utility.yul\":21679:21746   */\n      tag_611\n        /* \"#utility.yul\":21743:21745   */\n      0x13\n        /* \"#utility.yul\":21738:21741   */\n      dup4\n        /* \"#utility.yul\":21679:21746   */\n      tag_362\n      jump\t// in\n    tag_611:\n        /* \"#utility.yul\":21672:21746   */\n      swap2\n      pop\n        /* \"#utility.yul\":21755:21848   */\n      tag_612\n        /* \"#utility.yul\":21844:21847   */\n      dup3\n        /* \"#utility.yul\":21755:21848   */\n      tag_387\n      jump\t// in\n    tag_612:\n        /* \"#utility.yul\":21873:21875   */\n      0x20\n        /* \"#utility.yul\":21868:21871   */\n      dup3\n        /* \"#utility.yul\":21864:21876   */\n      add\n        /* \"#utility.yul\":21857:21876   */\n      swap1\n      pop\n        /* \"#utility.yul\":21516:21882   */\n      swap2\n      swap1\n      pop\n      jump\t// out\n        /* \"#utility.yul\":21888:22307   */\n    tag_201:\n        /* \"#utility.yul\":22054:22058   */\n      0x00\n        /* \"#utility.yul\":22092:22094   */\n      0x20\n        /* \"#utility.yul\":22081:22090   */\n      dup3\n        /* \"#utility.yul\":22077:22095   */\n      add\n        /* \"#utility.yul\":22069:22095   */\n      swap1\n      pop\n        /* \"#utility.yul\":22141:22150   */\n      dup2\n        /* \"#utility.yul\":22135:22139   */\n      dup2\n        /* \"#utility.yul\":22131:22151   */\n      sub\n        /* \"#utility.yul\":22127:22128   */\n      0x00\n        /* \"#utility.yul\":22116:22125   */\n      dup4\n        /* \"#utility.yul\":22112:22129   */\n      add\n        /* \"#utility.yul\":22105:22152   */\n      mstore\n        /* \"#utility.yul\":22169:22300   */\n      tag_614\n        /* \"#utility.yul\":22295:22299   */\n      dup2\n        /* \"#utility.yul\":22169:22300   */\n      tag_388\n      jump\t// in\n    tag_614:\n        /* \"#utility.yul\":22161:22300   */\n      swap1\n      pop\n        /* \"#utility.yul\":21888:22307   */\n      swap2\n      swap1\n      pop\n      jump\t// out\n        /* \"#utility.yul\":22313:22755   */\n    tag_203:\n        /* \"#utility.yul\":22462:22466   */\n      0x00\n        /* \"#utility.yul\":22500:22502   */\n      0x60\n        /* \"#utility.yul\":22489:22498   */\n      dup3\n        /* \"#utility.yul\":22485:22503   */\n      add\n        /* \"#utility.yul\":22477:22503   */\n      swap1\n      pop\n        /* \"#utility.yul\":22513:22584   */\n      tag_616\n        /* \"#utility.yul\":22581:22582   */\n      0x00\n        /* \"#utility.yul\":22570:22579   */\n      dup4\n        /* \"#utility.yul\":22566:22583   */\n      add\n        /* \"#utility.yul\":22557:22563   */\n      dup7\n        /* \"#utility.yul\":22513:22584   */\n      tag_334\n      jump\t// in\n    tag_616:\n        /* \"#utility.yul\":22594:22666   */\n      tag_617\n        /* \"#utility.yul\":22662:22664   */\n      0x20\n        /* \"#utility.yul\":22651:22660   */\n      dup4\n        /* \"#utility.yul\":22647:22665   */\n      add\n        /* \"#utility.yul\":22638:22644   */\n      dup6\n        /* \"#utility.yul\":22594:22666   */\n      tag_348\n      jump\t// in\n    tag_617:\n        /* \"#utility.yul\":22676:22748   */\n      tag_618\n        /* \"#utility.yul\":22744:22746   */\n      0x40\n        /* \"#utility.yul\":22733:22742   */\n      dup4\n        /* \"#utility.yul\":22729:22747   */\n      add\n        /* \"#utility.yul\":22720:22726   */\n      dup5\n        /* \"#utility.yul\":22676:22748   */\n      tag_334\n      jump\t// in\n    tag_618:\n        /* \"#utility.yul\":22313:22755   */\n      swap5\n      swap4\n      pop\n      pop\n      pop\n      pop\n      jump\t// out\n        /* \"#utility.yul\":22761:23093   */\n    tag_205:\n        /* \"#utility.yul\":22882:22886   */\n      0x00\n        /* \"#utility.yul\":22920:22922   */\n      0x40\n        /* \"#utility.yul\":22909:22918   */\n      dup3\n        /* \"#utility.yul\":22905:22923   */\n      add\n        /* \"#utility.yul\":22897:22923   */\n      swap1\n      pop\n        /* \"#utility.yul\":22933:23004   */\n      tag_620\n        /* \"#utility.yul\":23001:23002   */\n      0x00\n        /* \"#utility.yul\":22990:22999   */\n      dup4\n        /* \"#utility.yul\":22986:23003   */\n      add\n        /* \"#utility.yul\":22977:22983   */\n      dup6\n        /* \"#utility.yul\":22933:23004   */\n      tag_334\n      jump\t// in\n    tag_620:\n        /* \"#utility.yul\":23014:23086   */\n      tag_621\n        /* \"#utility.yul\":23082:23084   */\n      0x20\n        /* \"#utility.yul\":23071:23080   */\n      dup4\n        /* \"#utility.yul\":23067:23085   */\n      add\n        /* \"#utility.yul\":23058:23064   */\n      dup5\n        /* \"#utility.yul\":23014:23086   */\n      tag_334\n      jump\t// in\n    tag_621:\n        /* \"#utility.yul\":22761:23093   */\n      swap4\n      swap3\n      pop\n      pop\n      pop\n      jump\t// out\n        /* \"#utility.yul\":23099:23268   */\n    tag_389:\n        /* \"#utility.yul\":23239:23260   */\n      0x4e6f7468696e6720746f20776974686472617700000000000000000000000000\n        /* \"#utility.yul\":23235:23236   */\n      0x00\n        /* \"#utility.yul\":23227:23233   */\n      dup3\n        /* \"#utility.yul\":23223:23237   */\n      add\n        /* \"#utility.yul\":23216:23261   */\n      mstore\n        /* \"#utility.yul\":23099:23268   */\n      pop\n      jump\t// out\n        /* \"#utility.yul\":23274:23640   */\n    tag_390:\n        /* \"#utility.yul\":23416:23419   */\n      0x00\n        /* \"#utility.yul\":23437:23504   */\n      tag_624\n        /* \"#utility.yul\":23501:23503   */\n      0x13\n        /* \"#utility.yul\":23496:23499   */\n      dup4\n        /* \"#utility.yul\":23437:23504   */\n      tag_362\n      jump\t// in\n    tag_624:\n        /* \"#utility.yul\":23430:23504   */\n      swap2\n      pop\n        /* \"#utility.yul\":23513:23606   */\n      tag_625\n        /* \"#utility.yul\":23602:23605   */\n      dup3\n        /* \"#utility.yul\":23513:23606   */\n      tag_389\n      jump\t// in\n    tag_625:\n        /* \"#utility.yul\":23631:23633   */\n      0x20\n        /* \"#utility.yul\":23626:23629   */\n      dup3\n        /* \"#utility.yul\":23622:23634   */\n      add\n        /* \"#utility.yul\":23615:23634   */\n      swap1\n      pop\n        /* \"#utility.yul\":23274:23640   */\n      swap2\n      swap1\n      pop\n      jump\t// out\n        /* \"#utility.yul\":23646:24065   */\n    tag_220:\n        /* \"#utility.yul\":23812:23816   */\n      0x00\n        /* \"#utility.yul\":23850:23852   */\n      0x20\n        /* \"#utility.yul\":23839:23848   */\n      dup3\n        /* \"#utility.yul\":23835:23853   */\n      add\n        /* \"#utility.yul\":23827:23853   */\n      swap1\n      pop\n        /* \"#utility.yul\":23899:23908   */\n      dup2\n        /* \"#utility.yul\":23893:23897   */\n      dup2\n        /* \"#utility.yul\":23889:23909   */\n      sub\n        /* \"#utility.yul\":23885:23886   */\n      0x00\n        /* \"#utility.yul\":23874:23883   */\n      dup4\n        /* \"#utility.yul\":23870:23887   */\n      add\n        /* \"#utility.yul\":23863:23910   */\n      mstore\n        /* \"#utility.yul\":23927:24058   */\n      tag_627\n        /* \"#utility.yul\":24053:24057   */\n      dup2\n        /* \"#utility.yul\":23927:24058   */\n      tag_390\n      jump\t// in\n    tag_627:\n        /* \"#utility.yul\":23919:24058   */\n      swap1\n      pop\n        /* \"#utility.yul\":23646:24065   */\n      swap2\n      swap1\n      pop\n      jump\t// out\n        /* \"#utility.yul\":24071:24236   */\n    tag_391:\n        /* \"#utility.yul\":24211:24228   */\n      0x5769746864726177206661696c65640000000000000000000000000000000000\n        /* \"#utility.yul\":24207:24208   */\n      0x00\n        /* \"#utility.yul\":24199:24205   */\n      dup3\n        /* \"#utility.yul\":24195:24209   */\n      add\n        /* \"#utility.yul\":24188:24229   */\n      mstore\n        /* \"#utility.yul\":24071:24236   */\n      pop\n      jump\t// out\n        /* \"#utility.yul\":24242:24608   */\n    tag_392:\n        /* \"#utility.yul\":24384:24387   */\n      0x00\n        /* \"#utility.yul\":24405:24472   */\n      tag_630\n        /* \"#utility.yul\":24469:24471   */\n      0x0f\n        /* \"#utility.yul\":24464:24467   */\n      dup4\n        /* \"#utility.yul\":24405:24472   */\n      tag_362\n      jump\t// in\n    tag_630:\n        /* \"#utility.yul\":24398:24472   */\n      swap2\n      pop\n        /* \"#utility.yul\":24481:24574   */\n      tag_631\n        /* \"#utility.yul\":24570:24573   */\n      dup3\n        /* \"#utility.yul\":24481:24574   */\n      tag_391\n      jump\t// in\n    tag_631:\n        /* \"#utility.yul\":24599:24601   */\n      0x20\n        /* \"#utility.yul\":24594:24597   */\n      dup3\n        /* \"#utility.yul\":24590:24602   */\n      add\n        /* \"#utility.yul\":24583:24602   */\n      swap1\n      pop\n        /* \"#utility.yul\":24242:24608   */\n      swap2\n      swap1\n      pop\n      jump\t// out\n        /* \"#utility.yul\":24614:25033   */\n    tag_227:\n        /* \"#utility.yul\":24780:24784   */\n      0x00\n        /* \"#utility.yul\":24818:24820   */\n      0x20\n        /* \"#utility.yul\":24807:24816   */\n      dup3\n        /* \"#utility.yul\":24803:24821   */\n      add\n        /* \"#utility.yul\":24795:24821   */\n      swap1\n      pop\n        /* \"#utility.yul\":24867:24876   */\n      dup2\n        /* \"#utility.yul\":24861:24865   */\n      dup2\n        /* \"#utility.yul\":24857:24877   */\n      sub\n        /* \"#utility.yul\":24853:24854   */\n      0x00\n        /* \"#utility.yul\":24842:24851   */\n      dup4\n        /* \"#utility.yul\":24838:24855   */\n      add\n        /* \"#utility.yul\":24831:24878   */\n      mstore\n        /* \"#utility.yul\":24895:25026   */\n      tag_633\n        /* \"#utility.yul\":25021:25025   */\n      dup2\n        /* \"#utility.yul\":24895:25026   */\n      tag_392\n      jump\t// in\n    tag_633:\n        /* \"#utility.yul\":24887:25026   */\n      swap1\n      pop\n        /* \"#utility.yul\":24614:25033   */\n      swap2\n      swap1\n      pop\n      jump\t// out\n        /* \"#utility.yul\":25039:25211   */\n    tag_393:\n        /* \"#utility.yul\":25179:25203   */\n      0x526f756e64204944206d75737420696e63726561736500000000000000000000\n        /* \"#utility.yul\":25175:25176   */\n      0x00\n        /* \"#utility.yul\":25167:25173   */\n      dup3\n        /* \"#utility.yul\":25163:25177   */\n      add\n        /* \"#utility.yul\":25156:25204   */\n      mstore\n        /* \"#utility.yul\":25039:25211   */\n      pop\n      jump\t// out\n        /* \"#utility.yul\":25217:25583   */\n    tag_394:\n        /* \"#utility.yul\":25359:25362   */\n      0x00\n        /* \"#utility.yul\":25380:25447   */\n      tag_636\n        /* \"#utility.yul\":25444:25446   */\n      0x16\n        /* \"#utility.yul\":25439:25442   */\n      dup4\n        /* \"#utility.yul\":25380:25447   */\n      tag_362\n      jump\t// in\n    tag_636:\n        /* \"#utility.yul\":25373:25447   */\n      swap2\n      pop\n        /* \"#utility.yul\":25456:25549   */\n      tag_637\n        /* \"#utility.yul\":25545:25548   */\n      dup3\n        /* \"#utility.yul\":25456:25549   */\n      tag_393\n      jump\t// in\n    tag_637:\n        /* \"#utility.yul\":25574:25576   */\n      0x20\n        /* \"#utility.yul\":25569:25572   */\n      dup3\n        /* \"#utility.yul\":25565:25577   */\n      add\n        /* \"#utility.yul\":25558:25577   */\n      swap1\n      pop\n        /* \"#utility.yul\":25217:25583   */\n      swap2\n      swap1\n      pop\n      jump\t// out\n        /* \"#utility.yul\":25589:26008   */\n    tag_233:\n        /* \"#utility.yul\":25755:25759   */\n      0x00\n        /* \"#utility.yul\":25793:25795   */\n      0x20\n        /* \"#utility.yul\":25782:25791   */\n      dup3\n        /* \"#utility.yul\":25778:25796   */\n      add\n        /* \"#utility.yul\":25770:25796   */\n      swap1\n      pop\n        /* \"#utility.yul\":25842:25851   */\n      dup2\n        /* \"#utility.yul\":25836:25840   */\n      dup2\n        /* \"#utility.yul\":25832:25852   */\n      sub\n        /* \"#utility.yul\":25828:25829   */\n      0x00\n        /* \"#utility.yul\":25817:25826   */\n      dup4\n        /* \"#utility.yul\":25813:25830   */\n      add\n        /* \"#utility.yul\":25806:25853   */\n      mstore\n        /* \"#utility.yul\":25870:26001   */\n      tag_639\n        /* \"#utility.yul\":25996:26000   */\n      dup2\n        /* \"#utility.yul\":25870:26001   */\n      tag_394\n      jump\t// in\n    tag_639:\n        /* \"#utility.yul\":25862:26001   */\n      swap1\n      pop\n        /* \"#utility.yul\":25589:26008   */\n      swap2\n      swap1\n      pop\n      jump\t// out\n        /* \"#utility.yul\":26014:26456   */\n    tag_242:\n        /* \"#utility.yul\":26163:26167   */\n      0x00\n        /* \"#utility.yul\":26201:26203   */\n      0x60\n        /* \"#utility.yul\":26190:26199   */\n      dup3\n        /* \"#utility.yul\":26186:26204   */\n      add\n        /* \"#utility.yul\":26178:26204   */\n      swap1\n      pop\n        /* \"#utility.yul\":26214:26285   */\n      tag_641\n        /* \"#utility.yul\":26282:26283   */\n      0x00\n        /* \"#utility.yul\":26271:26280   */\n      dup4\n        /* \"#utility.yul\":26267:26284   */\n      add\n        /* \"#utility.yul\":26258:26264   */\n      dup7\n        /* \"#utility.yul\":26214:26285   */\n      tag_334\n      jump\t// in\n    tag_641:\n        /* \"#utility.yul\":26295:26367   */\n      tag_642\n        /* \"#utility.yul\":26363:26365   */\n      0x20\n        /* \"#utility.yul\":26352:26361   */\n      dup4\n        /* \"#utility.yul\":26348:26366   */\n      add\n        /* \"#utility.yul\":26339:26345   */\n      dup6\n        /* \"#utility.yul\":26295:26367   */\n      tag_334\n      jump\t// in\n    tag_642:\n        /* \"#utility.yul\":26377:26449   */\n      tag_643\n        /* \"#utility.yul\":26445:26447   */\n      0x40\n        /* \"#utility.yul\":26434:26443   */\n      dup4\n        /* \"#utility.yul\":26430:26448   */\n      add\n        /* \"#utility.yul\":26421:26427   */\n      dup5\n        /* \"#utility.yul\":26377:26449   */\n      tag_334\n      jump\t// in\n    tag_643:\n        /* \"#utility.yul\":26014:26456   */\n      swap5\n      swap4\n      pop\n      pop\n      pop\n      pop\n      jump\t// out\n        /* \"#utility.yul\":26462:26687   */\n    tag_395:\n        /* \"#utility.yul\":26602:26636   */\n      0x4f776e61626c653a206e6577206f776e657220697320746865207a65726f2061\n        /* \"#utility.yul\":26598:26599   */\n      0x00\n        /* \"#utility.yul\":26590:26596   */\n      dup3\n        /* \"#utility.yul\":26586:26600   */\n      add\n        /* \"#utility.yul\":26579:26637   */\n      mstore\n        /* \"#utility.yul\":26671:26679   */\n      0x6464726573730000000000000000000000000000000000000000000000000000\n        /* \"#utility.yul\":26666:26668   */\n      0x20\n        /* \"#utility.yul\":26658:26664   */\n      dup3\n        /* \"#utility.yul\":26654:26669   */\n      add\n        /* \"#utility.yul\":26647:26680   */\n      mstore\n        /* \"#utility.yul\":26462:26687   */\n      pop\n      jump\t// out\n        /* \"#utility.yul\":26693:27059   */\n    tag_396:\n        /* \"#utility.yul\":26835:26838   */\n      0x00\n        /* \"#utility.yul\":26856:26923   */\n      tag_646\n        /* \"#utility.yul\":26920:26922   */\n      0x26\n        /* \"#utility.yul\":26915:26918   */\n      dup4\n        /* \"#utility.yul\":26856:26923   */\n      tag_362\n      jump\t// in\n    tag_646:\n        /* \"#utility.yul\":26849:26923   */\n      swap2\n      pop\n        /* \"#utility.yul\":26932:27025   */\n      tag_647\n        /* \"#utility.yul\":27021:27024   */\n      dup3\n        /* \"#utility.yul\":26932:27025   */\n      tag_395\n      jump\t// in\n    tag_647:\n        /* \"#utility.yul\":27050:27052   */\n      0x40\n        /* \"#utility.yul\":27045:27048   */\n      dup3\n        /* \"#utility.yul\":27041:27053   */\n      add\n        /* \"#utility.yul\":27034:27053   */\n      swap1\n      pop\n        /* \"#utility.yul\":26693:27059   */\n      swap2\n      swap1\n      pop\n      jump\t// out\n        /* \"#utility.yul\":27065:27484   */\n    tag_279:\n        /* \"#utility.yul\":27231:27235   */\n      0x00\n        /* \"#utility.yul\":27269:27271   */\n      0x20\n        /* \"#utility.yul\":27258:27267   */\n      dup3\n        /* \"#utility.yul\":27254:27272   */\n      add\n        /* \"#utility.yul\":27246:27272   */\n      swap1\n      pop\n        /* \"#utility.yul\":27318:27327   */\n      dup2\n        /* \"#utility.yul\":27312:27316   */\n      dup2\n        /* \"#utility.yul\":27308:27328   */\n      sub\n        /* \"#utility.yul\":27304:27305   */\n      0x00\n        /* \"#utility.yul\":27293:27302   */\n      dup4\n        /* \"#utility.yul\":27289:27306   */\n      add\n        /* \"#utility.yul\":27282:27329   */\n      mstore\n        /* \"#utility.yul\":27346:27477   */\n      tag_649\n        /* \"#utility.yul\":27472:27476   */\n      dup2\n        /* \"#utility.yul\":27346:27477   */\n      tag_396\n      jump\t// in\n    tag_649:\n        /* \"#utility.yul\":27338:27477   */\n      swap1\n      pop\n        /* \"#utility.yul\":27065:27484   */\n      swap2\n      swap1\n      pop\n      jump\t// out\n        /* \"#utility.yul\":27490:27584   */\n    tag_397:\n        /* \"#utility.yul\":27523:27531   */\n      0x00\n        /* \"#utility.yul\":27571:27576   */\n      dup2\n        /* \"#utility.yul\":27567:27569   */\n      0x60\n        /* \"#utility.yul\":27563:27577   */\n      shl\n        /* \"#utility.yul\":27542:27577   */\n      swap1\n      pop\n        /* \"#utility.yul\":27490:27584   */\n      swap2\n      swap1\n      pop\n      jump\t// out\n        /* \"#utility.yul\":27590:27684   */\n    tag_398:\n        /* \"#utility.yul\":27629:27636   */\n      0x00\n        /* \"#utility.yul\":27658:27678   */\n      tag_652\n        /* \"#utility.yul\":27672:27677   */\n      dup3\n        /* \"#utility.yul\":27658:27678   */\n      tag_397\n      jump\t// in\n    tag_652:\n        /* \"#utility.yul\":27647:27678   */\n      swap1\n      pop\n        /* \"#utility.yul\":27590:27684   */\n      swap2\n      swap1\n      pop\n      jump\t// out\n        /* \"#utility.yul\":27690:27790   */\n    tag_399:\n        /* \"#utility.yul\":27729:27736   */\n      0x00\n        /* \"#utility.yul\":27758:27784   */\n      tag_654\n        /* \"#utility.yul\":27778:27783   */\n      dup3\n        /* \"#utility.yul\":27758:27784   */\n      tag_398\n      jump\t// in\n    tag_654:\n        /* \"#utility.yul\":27747:27784   */\n      swap1\n      pop\n        /* \"#utility.yul\":27690:27790   */\n      swap2\n      swap1\n      pop\n      jump\t// out\n        /* \"#utility.yul\":27796:27953   */\n    tag_400:\n        /* \"#utility.yul\":27901:27946   */\n      tag_656\n        /* \"#utility.yul\":27921:27945   */\n      tag_657\n        /* \"#utility.yul\":27939:27944   */\n      dup3\n        /* \"#utility.yul\":27921:27945   */\n      tag_339\n      jump\t// in\n    tag_657:\n        /* \"#utility.yul\":27901:27946   */\n      tag_399\n      jump\t// in\n    tag_656:\n        /* \"#utility.yul\":27896:27899   */\n      dup3\n        /* \"#utility.yul\":27889:27947   */\n      mstore\n        /* \"#utility.yul\":27796:27953   */\n      pop\n      pop\n      jump\t// out\n        /* \"#utility.yul\":27959:28215   */\n    tag_284:\n        /* \"#utility.yul\":28071:28074   */\n      0x00\n        /* \"#utility.yul\":28086:28161   */\n      tag_659\n        /* \"#utility.yul\":28157:28160   */\n      dup3\n        /* \"#utility.yul\":28148:28154   */\n      dup5\n        /* \"#utility.yul\":28086:28161   */\n      tag_400\n      jump\t// in\n    tag_659:\n        /* \"#utility.yul\":28186:28188   */\n      0x14\n        /* \"#utility.yul\":28181:28184   */\n      dup3\n        /* \"#utility.yul\":28177:28189   */\n      add\n        /* \"#utility.yul\":28170:28189   */\n      swap2\n      pop\n        /* \"#utility.yul\":28206:28209   */\n      dup2\n        /* \"#utility.yul\":28199:28209   */\n      swap1\n      pop\n        /* \"#utility.yul\":27959:28215   */\n      swap3\n      swap2\n      pop\n      pop\n      jump\t// out\n        /* \"#utility.yul\":28221:28403   */\n    tag_401:\n        /* \"#utility.yul\":28361:28395   */\n      0x4f776e61626c653a2063616c6c6572206973206e6f7420746865206f776e6572\n        /* \"#utility.yul\":28357:28358   */\n      0x00\n        /* \"#utility.yul\":28349:28355   */\n      dup3\n        /* \"#utility.yul\":28345:28359   */\n      add\n        /* \"#utility.yul\":28338:28396   */\n      mstore\n        /* \"#utility.yul\":28221:28403   */\n      pop\n      jump\t// out\n        /* \"#utility.yul\":28409:28775   */\n    tag_402:\n        /* \"#utility.yul\":28551:28554   */\n      0x00\n        /* \"#utility.yul\":28572:28639   */\n      tag_662\n        /* \"#utility.yul\":28636:28638   */\n      0x20\n        /* \"#utility.yul\":28631:28634   */\n      dup4\n        /* \"#utility.yul\":28572:28639   */\n      tag_362\n      jump\t// in\n    tag_662:\n        /* \"#utility.yul\":28565:28639   */\n      swap2\n      pop\n        /* \"#utility.yul\":28648:28741   */\n      tag_663\n        /* \"#utility.yul\":28737:28740   */\n      dup3\n        /* \"#utility.yul\":28648:28741   */\n      tag_401\n      jump\t// in\n    tag_663:\n        /* \"#utility.yul\":28766:28768   */\n      0x20\n        /* \"#utility.yul\":28761:28764   */\n      dup3\n        /* \"#utility.yul\":28757:28769   */\n      add\n        /* \"#utility.yul\":28750:28769   */\n      swap1\n      pop\n        /* \"#utility.yul\":28409:28775   */\n      swap2\n      swap1\n      pop\n      jump\t// out\n        /* \"#utility.yul\":28781:29200   */\n    tag_309:\n        /* \"#utility.yul\":28947:28951   */\n      0x00\n        /* \"#utility.yul\":28985:28987   */\n      0x20\n        /* \"#utility.yul\":28974:28983   */\n      dup3\n        /* \"#utility.yul\":28970:28988   */\n      add\n        /* \"#utility.yul\":28962:28988   */\n      swap1\n      pop\n        /* \"#utility.yul\":29034:29043   */\n      dup2\n        /* \"#utility.yul\":29028:29032   */\n      dup2\n        /* \"#utility.yul\":29024:29044   */\n      sub\n        /* \"#utility.yul\":29020:29021   */\n      0x00\n        /* \"#utility.yul\":29009:29018   */\n      dup4\n        /* \"#utility.yul\":29005:29022   */\n      add\n        /* \"#utility.yul\":28998:29045   */\n      mstore\n        /* \"#utility.yul\":29062:29193   */\n      tag_665\n        /* \"#utility.yul\":29188:29192   */\n      dup2\n        /* \"#utility.yul\":29062:29193   */\n      tag_402\n      jump\t// in\n    tag_665:\n        /* \"#utility.yul\":29054:29193   */\n      swap1\n      pop\n        /* \"#utility.yul\":28781:29200   */\n      swap2\n      swap1\n      pop\n      jump\t// out\n        /* \"#utility.yul\":29206:29386   */\n    tag_322:\n        /* \"#utility.yul\":29254:29331   */\n      0x4e487b7100000000000000000000000000000000000000000000000000000000\n        /* \"#utility.yul\":29251:29252   */\n      0x00\n        /* \"#utility.yul\":29244:29332   */\n      mstore\n        /* \"#utility.yul\":29351:29355   */\n      0x32\n        /* \"#utility.yul\":29348:29349   */\n      0x04\n        /* \"#utility.yul\":29341:29356   */\n      mstore\n        /* \"#utility.yul\":29375:29379   */\n      0x24\n        /* \"#utility.yul\":29372:29373   */\n      0x00\n        /* \"#utility.yul\":29365:29380   */\n      revert\n        /* \"#utility.yul\":29392:29625   */\n    tag_325:\n        /* \"#utility.yul\":29431:29434   */\n      0x00\n        /* \"#utility.yul\":29454:29478   */\n      tag_668\n        /* \"#utility.yul\":29472:29477   */\n      dup3\n        /* \"#utility.yul\":29454:29478   */\n      tag_333\n      jump\t// in\n    tag_668:\n        /* \"#utility.yul\":29445:29478   */\n      swap2\n      pop\n        /* \"#utility.yul\":29500:29566   */\n      0xffffffffffffffffffffffffffffffffffffffffffffffffffffffffffffffff\n        /* \"#utility.yul\":29493:29498   */\n      dup3\n        /* \"#utility.yul\":29490:29567   */\n      sub\n        /* \"#utility.yul\":29487:29590   */\n      tag_669\n      jumpi\n        /* \"#utility.yul\":29570:29588   */\n      tag_670\n      tag_379\n      jump\t// in\n    tag_670:\n        /* \"#utility.yul\":29487:29590   */\n    tag_669:\n        /* \"#utility.yul\":29617:29618   */\n      0x01\n        /* \"#utility.yul\":29610:29615   */\n      dup3\n        /* \"#utility.yul\":29606:29619   */\n      add\n        /* \"#utility.yul\":29599:29619   */\n      swap1\n      pop\n        /* \"#utility.yul\":29392:29625   */\n      swap2\n      swap1\n      pop\n      jump\t// out\n\n    auxdata: 0xa2646970667358221220e326373656f0518de33cfd43b1926e566e1915f7ec04818174c5f1901b52630264736f6c63430008120033\n}\n",
				"bytecode": {
					"linkReferences": {},
					"object": "60a06040523480156200001157600080fd5b5060405162002efb38038062002efb833981810160405281019062000037919062000514565b620000576200004b6200021f60201b60201c565b6200022760201b60201c565b62000068866200022760201b60201c565b84600160006101000a81548173ffffffffffffffffffffffffffffffffffffffff021916908373ffffffffffffffffffffffffffffffffffffffff16021790555083600260006101000a81548173ffffffffffffffffffffffffffffffffffffffff021916908373ffffffffffffffffffffffffffffffffffffffff16021790555073cf664087a5bb0237a0bad6742852ec6c8d69a27a73ffffffffffffffffffffffffffffffffffffffff1660808173ffffffffffffffffffffffffffffffffffffffff16815250508160078190555080600860016101000a81548173ffffffffffffffffffffffffffffffffffffffff021916908373ffffffffffffffffffffffffffffffffffffffff16021790555060005b83518110156200021257600160096000868481518110620001a357620001a2620005cf565b5b602002602001015173ffffffffffffffffffffffffffffffffffffffff1673ffffffffffffffffffffffffffffffffffffffff16815260200190815260200160002060006101000a81548160ff021916908315150217905550808062000209906200062d565b9150506200017d565b505050505050506200067a565b600033905090565b60008060009054906101000a900473ffffffffffffffffffffffffffffffffffffffff169050816000806101000a81548173ffffffffffffffffffffffffffffffffffffffff021916908373ffffffffffffffffffffffffffffffffffffffff1602179055508173ffffffffffffffffffffffffffffffffffffffff168173ffffffffffffffffffffffffffffffffffffffff167f8be0079c531659141344cd1fd0a4f28419497f9722a3daafe3b4186f6b6457e060405160405180910390a35050565b6000604051905090565b600080fd5b600080fd5b600073ffffffffffffffffffffffffffffffffffffffff82169050919050565b60006200032c82620002ff565b9050919050565b6200033e816200031f565b81146200034a57600080fd5b50565b6000815190506200035e8162000333565b92915050565b600080fd5b6000601f19601f8301169050919050565b7f4e487b7100000000000000000000000000000000000000000000000000000000600052604160045260246000fd5b620003b48262000369565b810181811067ffffffffffffffff82111715620003d657620003d56200037a565b5b80604052505050565b6000620003eb620002eb565b9050620003f98282620003a9565b919050565b600067ffffffffffffffff8211156200041c576200041b6200037a565b5b602082029050602081019050919050565b600080fd5b6000620004496200044384620003fe565b620003df565b905080838252602082019050602084028301858111156200046f576200046e6200042d565b5b835b818110156200049c57806200048788826200034d565b84526020840193505060208101905062000471565b5050509392505050565b600082601f830112620004be57620004bd62000364565b5b8151620004d084826020860162000432565b91505092915050565b6000819050919050565b620004ee81620004d9565b8114620004fa57600080fd5b50565b6000815190506200050e81620004e3565b92915050565b60008060008060008060c08789031215620005345762000533620002f5565b5b60006200054489828a016200034d565b96505060206200055789828a016200034d565b95505060406200056a89828a016200034d565b945050606087015167ffffffffffffffff8111156200058e576200058d620002fa565b5b6200059c89828a01620004a6565b9350506080620005af89828a01620004fd565b92505060a0620005c289828a016200034d565b9150509295509295509295565b7f4e487b7100000000000000000000000000000000000000000000000000000000600052603260045260246000fd5b7f4e487b7100000000000000000000000000000000000000000000000000000000600052601160045260246000fd5b60006200063a82620004d9565b91507fffffffffffffffffffffffffffffffffffffffffffffffffffffffffffffffff82036200066f576200066e620005fe565b5b600182019050919050565b60805161283b620006c0600039600081816109ed01528181610aca01528181610c0201528181610cae01528181610d3801528181610e170152610f73015261283b6000f3fe608060405234801561001057600080fd5b50600436106101a95760003560e01c80637cb64759116100f9578063b20d30a911610097578063e2c6e43811610071578063e2c6e43814610450578063e798646614610480578063e9587e861461049c578063f2fde38b146104cc576101a9565b8063b20d30a9146103f8578063ca26c53214610414578063d6691e4714610432576101a9565b80638da5cb5b116100d35780638da5cb5b146103805780638ea5220f1461039e578063a4e2d634146103bc578063ad655ef6146103da576101a9565b80637cb64759146103285780637dc0d1d0146103445780638a19c8bc14610362576101a9565b80634036585211610166578063620d025c11610140578063620d025c146102b4578063715018a6146102d257806373a1a252146102dc5780637adbf9731461030c576101a9565b8063403658521461024a5780634615102c14610268578063589db8d414610284576101a9565b80631073e2a7146101ae57806314132f48146101cc578063196b004b146101e8578063211e28b61461020657806324600fc3146102225780632eb4a7ab1461022c575b600080fd5b6101b66104e8565b6040516101c3919061195e565b60405180910390f35b6101e660048036038101906101e19190611a72565b6104ef565b005b6101f0610cac565b6040516101fd9190611af5565b60405180910390f35b610220600480360381019061021b9190611b48565b610cd0565b005b61022a610d2c565b005b610234610f17565b6040516102419190611b8e565b60405180910390f35b610252610f1d565b60405161025f919061195e565b60405180910390f35b610282600480360381019061027d9190611ba9565b610f23565b005b61029e60048036038101906102999190611bd6565b6110b6565b6040516102ab919061195e565b60405180910390f35b6102bc6110ce565b6040516102c9919061195e565b60405180910390f35b6102da6110d4565b005b6102f660048036038101906102f19190611c03565b6110e8565b604051610303919061195e565b60405180910390f35b61032660048036038101906103219190611bd6565b61110d565b005b610342600480360381019061033d9190611c6f565b611159565b005b61034c61116b565b6040516103599190611cfb565b60405180910390f35b61036a611191565b604051610377919061195e565b60405180910390f35b610388611197565b6040516103959190611af5565b60405180910390f35b6103a66111c0565b6040516103b39190611af5565b60405180910390f35b6103c46111e6565b6040516103d19190611d25565b60405180910390f35b6103e26111f9565b6040516103ef919061195e565b60405180910390f35b610412600480360381019061040d9190611ba9565b611200565b005b61041c611212565b604051610429919061195e565b60405180910390f35b61043a611218565b6040516104479190611af5565b60405180910390f35b61046a60048036038101906104659190611bd6565b61123e565b6040516104779190611d25565b60405180910390f35b61049a60048036038101906104959190611d40565b61125e565b005b6104b660048036038101906104b19190611bd6565b6112c1565b6040516104c3919061195e565b60405180910390f35b6104e660048036038101906104e19190611bd6565b611475565b005b6201518081565b600860009054906101000a900460ff161561053f576040517f08c379a000000000000000000000000000000000000000000000000000000000815260040161053690611ddd565b60405180910390fd5b600554421015610584576040517f08c379a000000000000000000000000000000000000000000000000000000000815260040161057b90611e49565b60405180910390fd5b6000600654116105c9576040517f08c379a00000000000000000000000000000000000000000000000000000000081526004016105c090611eb5565b60405180910390fd5b81816105d63383836114f8565b610615576040517f08c379a000000000000000000000000000000000000000000000000000000000815260040161060c90611f21565b60405180910390fd5b600960008773ffffffffffffffffffffffffffffffffffffffff1673ffffffffffffffffffffffffffffffffffffffff16815260200190815260200160002060009054906101000a900460ff166106a1576040517f08c379a000000000000000000000000000000000000000000000000000000000815260040161069890611f8d565b60405180910390fd5b600085116106e4576040517f08c379a00000000000000000000000000000000000000000000000000000000081526004016106db90611ff9565b60405180910390fd5b8573ffffffffffffffffffffffffffffffffffffffff166323b872dd3330886040518463ffffffff1660e01b815260040161072193929190612019565b6020604051808303816000875af1158015610740573d6000803e3d6000fd5b505050506040513d601f19601f820116820180604052508101906107649190612065565b6107a3576040517f08c379a000000000000000000000000000000000000000000000000000000000815260040161079a906120de565b60405180910390fd5b6107ac33611577565b6000600860019054906101000a900473ffffffffffffffffffffffffffffffffffffffff1673ffffffffffffffffffffffffffffffffffffffff166398d5fdca6040518163ffffffff1660e01b8152600401602060405180830381865afa15801561081b573d6000803e3d6000fd5b505050506040513d601f19601f8201168201806040525081019061083f9190612113565b9050600081670de0b6b3a764000060075461085a919061216f565b61086491906121e0565b90508087600a6000600454815260200190815260200160002060003373ffffffffffffffffffffffffffffffffffffffff1673ffffffffffffffffffffffffffffffffffffffff168152602001908152602001600020546108c59190612211565b1115610906576040517f08c379a00000000000000000000000000000000000000000000000000000000081526004016108fd90612291565b60405180910390fd5b6000610912888461166b565b90506000818961092291906122b1565b9050600654811115610969576040517f08c379a000000000000000000000000000000000000000000000000000000000815260040161096090612331565b60405180910390fd5b88600a6000600454815260200190815260200160002060003373ffffffffffffffffffffffffffffffffffffffff1673ffffffffffffffffffffffffffffffffffffffff16815260200190815260200160002060008282546109cb9190612211565b9250508190555080600660008282546109e491906122b1565b925050819055507f000000000000000000000000000000000000000000000000000000000000000073ffffffffffffffffffffffffffffffffffffffff1663a9059cbb33836040518363ffffffff1660e01b8152600401610a46929190612351565b6020604051808303816000875af1158015610a65573d6000803e3d6000fd5b505050506040513d601f19601f82011682018060405250810190610a899190612065565b610ac8576040517f08c379a0000000000000000000000000000000000000000000000000000000008152600401610abf906123c6565b60405180910390fd5b7f000000000000000000000000000000000000000000000000000000000000000073ffffffffffffffffffffffffffffffffffffffff1663a9059cbb600160009054906101000a900473ffffffffffffffffffffffffffffffffffffffff16846040518363ffffffff1660e01b8152600401610b45929190612351565b6020604051808303816000875af1158015610b64573d6000803e3d6000fd5b505050506040513d601f19601f82011682018060405250810190610b889190612065565b610bc7576040517f08c379a0000000000000000000000000000000000000000000000000000000008152600401610bbe90612432565b60405180910390fd5b8973ffffffffffffffffffffffffffffffffffffffff167ff0c71be01e59205b10ea5ae42439ab4504c7e3da732743531ff44e98bd9fd63f8a7f000000000000000000000000000000000000000000000000000000000000000084604051610c3193929190612452565b60405180910390a28973ffffffffffffffffffffffffffffffffffffffff163373ffffffffffffffffffffffffffffffffffffffff167fc7e914640e860fbcf42ef4d9dceced8880d343828101f1fa389c7e1c060728178b84604051610c98929190612489565b60405180910390a350505050505050505050565b7f000000000000000000000000000000000000000000000000000000000000000081565b610cd861174c565b80600860006101000a81548160ff0219169083151502179055507f152cbfe4e8597a33181d2da9ed5162e734ca8b263b9eb6105f169287a39908f681604051610d219190611d25565b60405180910390a150565b610d3461174c565b60007f000000000000000000000000000000000000000000000000000000000000000073ffffffffffffffffffffffffffffffffffffffff166370a08231306040518263ffffffff1660e01b8152600401610d8f9190611af5565b602060405180830381865afa158015610dac573d6000803e3d6000fd5b505050506040513d601f19601f82011682018060405250810190610dd09190612113565b905060008111610e15576040517f08c379a0000000000000000000000000000000000000000000000000000000008152600401610e0c906124fe565b60405180910390fd5b7f000000000000000000000000000000000000000000000000000000000000000073ffffffffffffffffffffffffffffffffffffffff1663a9059cbb600260009054906101000a900473ffffffffffffffffffffffffffffffffffffffff16836040518363ffffffff1660e01b8152600401610e92929190612351565b6020604051808303816000875af1158015610eb1573d6000803e3d6000fd5b505050506040513d601f19601f82011682018060405250810190610ed59190612065565b610f14576040517f08c379a0000000000000000000000000000000000000000000000000000000008152600401610f0b9061256a565b60405180910390fd5b50565b60035481565b60055481565b610f2b61174c565b6004548111610f6f576040517f08c379a0000000000000000000000000000000000000000000000000000000008152600401610f66906125d6565b60405180910390fd5b60007f000000000000000000000000000000000000000000000000000000000000000073ffffffffffffffffffffffffffffffffffffffff166370a08231306040518263ffffffff1660e01b8152600401610fca9190611af5565b602060405180830381865afa158015610fe7573d6000803e3d6000fd5b505050506040513d601f19601f8201168201806040525081019061100b9190612113565b905060008111611050576040517f08c379a000000000000000000000000000000000000000000000000000000000815260040161104790611eb5565b60405180910390fd5b8160048190555080600681905550620151804261106d9190612211565b6005819055507fb0b0c60f0267584d50a65485b5eff6babad43c5727703515fde33bb545b19114826006546005546040516110aa939291906125f6565b60405180910390a15050565b600b6020528060005260406000206000915090505481565b60065481565b6110dc61174c565b6110e660006117ca565b565b600a602052816000526040600020602052806000526040600020600091509150505481565b61111561174c565b80600860016101000a81548173ffffffffffffffffffffffffffffffffffffffff021916908373ffffffffffffffffffffffffffffffffffffffff16021790555050565b61116161174c565b8060038190555050565b600860019054906101000a900473ffffffffffffffffffffffffffffffffffffffff1681565b60045481565b60008060009054906101000a900473ffffffffffffffffffffffffffffffffffffffff16905090565b600160009054906101000a900473ffffffffffffffffffffffffffffffffffffffff1681565b600860009054906101000a900460ff1681565b6201518081565b61120861174c565b8060078190555050565b60075481565b600260009054906101000a900473ffffffffffffffffffffffffffffffffffffffff1681565b60096020528060005260406000206000915054906101000a900460ff1681565b61126661174c565b80600960008473ffffffffffffffffffffffffffffffffffffffff1673ffffffffffffffffffffffffffffffffffffffff16815260200190815260200160002060006101000a81548160ff0219169083151502179055505050565b600080600860019054906101000a900473ffffffffffffffffffffffffffffffffffffffff1673ffffffffffffffffffffffffffffffffffffffff166398d5fdca6040518163ffffffff1660e01b8152600401602060405180830381865afa158015611331573d6000803e3d6000fd5b505050506040513d601f19601f820116820180604052508101906113559190612113565b9050600081670de0b6b3a7640000600754611370919061216f565b61137a91906121e0565b90506000600a6000600454815260200190815260200160002060008673ffffffffffffffffffffffffffffffffffffffff1673ffffffffffffffffffffffffffffffffffffffff16815260200190815260200160002054905062015180600b60008773ffffffffffffffffffffffffffffffffffffffff1673ffffffffffffffffffffffffffffffffffffffff168152602001908152602001600020544261142291906122b1565b1061142c57600090505b600081831161143c576000611449565b818361144891906122b1565b5b9050670de0b6b3a76400008482611460919061216f565b61146a91906121e0565b945050505050919050565b61147d61174c565b600073ffffffffffffffffffffffffffffffffffffffff168173ffffffffffffffffffffffffffffffffffffffff16036114ec576040517f08c379a00000000000000000000000000000000000000000000000000000000081526004016114e39061269f565b60405180910390fd5b6114f5816117ca565b50565b600061156e838380806020026020016040519081016040528093929190818152602001838360200280828437600081840152601f19601f82011690508083019250505050505050600354866040516020016115539190612707565b6040516020818303038152906040528051906020012061188e565b90509392505050565b62015180600b60008373ffffffffffffffffffffffffffffffffffffffff1673ffffffffffffffffffffffffffffffffffffffff16815260200190815260200160002054426115c691906122b1565b10611624576000600a6000600454815260200190815260200160002060008373ffffffffffffffffffffffffffffffffffffffff1673ffffffffffffffffffffffffffffffffffffffff168152602001908152602001600020819055505b42600b60008373ffffffffffffffffffffffffffffffffffffffff1673ffffffffffffffffffffffffffffffffffffffff1681526020019081526020016000208190555050565b600080670de0b6b3a76400008385611683919061216f565b61168d91906121e0565b905069152d02c7e14af680000081116116c2576127106064856116b0919061216f565b6116ba91906121e0565b915050611746565b6934f086f3b33b6840000081116116f5576127106032856116e3919061216f565b6116ed91906121e0565b915050611746565b69d3c21bcecceda1000000811161172857612710601985611716919061216f565b61172091906121e0565b915050611746565b612710600a85611738919061216f565b61174291906121e0565b9150505b92915050565b6117546118a5565b73ffffffffffffffffffffffffffffffffffffffff16611772611197565b73ffffffffffffffffffffffffffffffffffffffff16146117c8576040517f08c379a00000000000000000000000000000000000000000000000000000000081526004016117bf9061276e565b60405180910390fd5b565b60008060009054906101000a900473ffffffffffffffffffffffffffffffffffffffff169050816000806101000a81548173ffffffffffffffffffffffffffffffffffffffff021916908373ffffffffffffffffffffffffffffffffffffffff1602179055508173ffffffffffffffffffffffffffffffffffffffff168173ffffffffffffffffffffffffffffffffffffffff167f8be0079c531659141344cd1fd0a4f28419497f9722a3daafe3b4186f6b6457e060405160405180910390a35050565b60008261189b85846118ad565b1490509392505050565b600033905090565b60008082905060005b84518110156118f8576118e3828683815181106118d6576118d561278e565b5b6020026020010151611903565b915080806118f0906127bd565b9150506118b6565b508091505092915050565b600081831061191b57611916828461192e565b611926565b611925838361192e565b5b905092915050565b600082600052816020526040600020905092915050565b6000819050919050565b61195881611945565b82525050565b6000602082019050611973600083018461194f565b92915050565b600080fd5b600080fd5b600073ffffffffffffffffffffffffffffffffffffffff82169050919050565b60006119ae82611983565b9050919050565b6119be816119a3565b81146119c957600080fd5b50565b6000813590506119db816119b5565b92915050565b6119ea81611945565b81146119f557600080fd5b50565b600081359050611a07816119e1565b92915050565b600080fd5b600080fd5b600080fd5b60008083601f840112611a3257611a31611a0d565b5b8235905067ffffffffffffffff811115611a4f57611a4e611a12565b5b602083019150836020820283011115611a6b57611a6a611a17565b5b9250929050565b60008060008060608587031215611a8c57611a8b611979565b5b6000611a9a878288016119cc565b9450506020611aab878288016119f8565b935050604085013567ffffffffffffffff811115611acc57611acb61197e565b5b611ad887828801611a1c565b925092505092959194509250565b611aef816119a3565b82525050565b6000602082019050611b0a6000830184611ae6565b92915050565b60008115159050919050565b611b2581611b10565b8114611b3057600080fd5b50565b600081359050611b4281611b1c565b92915050565b600060208284031215611b5e57611b5d611979565b5b6000611b6c84828501611b33565b91505092915050565b6000819050919050565b611b8881611b75565b82525050565b6000602082019050611ba36000830184611b7f565b92915050565b600060208284031215611bbf57611bbe611979565b5b6000611bcd848285016119f8565b91505092915050565b600060208284031215611bec57611beb611979565b5b6000611bfa848285016119cc565b91505092915050565b60008060408385031215611c1a57611c19611979565b5b6000611c28858286016119f8565b9250506020611c39858286016119cc565b9150509250929050565b611c4c81611b75565b8114611c5757600080fd5b50565b600081359050611c6981611c43565b92915050565b600060208284031215611c8557611c84611979565b5b6000611c9384828501611c5a565b91505092915050565b6000819050919050565b6000611cc1611cbc611cb784611983565b611c9c565b611983565b9050919050565b6000611cd382611ca6565b9050919050565b6000611ce582611cc8565b9050919050565b611cf581611cda565b82525050565b6000602082019050611d106000830184611cec565b92915050565b611d1f81611b10565b82525050565b6000602082019050611d3a6000830184611d16565b92915050565b60008060408385031215611d5757611d56611979565b5b6000611d65858286016119cc565b9250506020611d7685828601611b33565b9150509250929050565b600082825260208201905092915050565b7f436f6e7472616374206973206c6f636b65640000000000000000000000000000600082015250565b6000611dc7601283611d80565b9150611dd282611d91565b602082019050919050565b60006020820190508181036000830152611df681611dba565b9050919050565b7f526f756e64206e6f742073746172746564000000000000000000000000000000600082015250565b6000611e33601183611d80565b9150611e3e82611dfd565b602082019050919050565b60006020820190508181036000830152611e6281611e26565b9050919050565b7f4e6f2066756e6473000000000000000000000000000000000000000000000000600082015250565b6000611e9f600883611d80565b9150611eaa82611e69565b602082019050919050565b60006020820190508181036000830152611ece81611e92565b9050919050565b7f4e6f742077686974656c69737465640000000000000000000000000000000000600082015250565b6000611f0b600f83611d80565b9150611f1682611ed5565b602082019050919050565b60006020820190508181036000830152611f3a81611efe565b9050919050565b7f546f6b656e206e6f7420737570706f7274656400000000000000000000000000600082015250565b6000611f77601383611d80565b9150611f8282611f41565b602082019050919050565b60006020820190508181036000830152611fa681611f6a565b9050919050565b7f496e76616c696420616d6f756e74000000000000000000000000000000000000600082015250565b6000611fe3600e83611d80565b9150611fee82611fad565b602082019050919050565b6000602082019050818103600083015261201281611fd6565b9050919050565b600060608201905061202e6000830186611ae6565b61203b6020830185611ae6565b612048604083018461194f565b949350505050565b60008151905061205f81611b1c565b92915050565b60006020828403121561207b5761207a611979565b5b600061208984828501612050565b91505092915050565b7f5472616e73666572206661696c65640000000000000000000000000000000000600082015250565b60006120c8600f83611d80565b91506120d382612092565b602082019050919050565b600060208201905081810360008301526120f7816120bb565b9050919050565b60008151905061210d816119e1565b92915050565b60006020828403121561212957612128611979565b5b6000612137848285016120fe565b91505092915050565b7f4e487b7100000000000000000000000000000000000000000000000000000000600052601160045260246000fd5b600061217a82611945565b915061218583611945565b925082820261219381611945565b915082820484148315176121aa576121a9612140565b5b5092915050565b7f4e487b7100000000000000000000000000000000000000000000000000000000600052601260045260246000fd5b60006121eb82611945565b91506121f683611945565b925082612206576122056121b1565b5b828204905092915050565b600061221c82611945565b915061222783611945565b925082820190508082111561223f5761223e612140565b5b92915050565b7f45786365656473206461696c79206c696d697400000000000000000000000000600082015250565b600061227b601383611d80565b915061228682612245565b602082019050919050565b600060208201905081810360008301526122aa8161226e565b9050919050565b60006122bc82611945565b91506122c783611945565b92508282039050818111156122df576122de612140565b5b92915050565b7f496e73756666696369656e74207661756c742066756e64730000000000000000600082015250565b600061231b601883611d80565b9150612326826122e5565b602082019050919050565b6000602082019050818103600083015261234a8161230e565b9050919050565b60006040820190506123666000830185611ae6565b612373602083018461194f565b9392505050565b7f526566756e64206661696c656400000000000000000000000000000000000000600082015250565b60006123b0600d83611d80565b91506123bb8261237a565b602082019050919050565b600060208201905081810360008301526123df816123a3565b9050919050565b7f466565207472616e73666572206661696c656400000000000000000000000000600082015250565b600061241c601383611d80565b9150612427826123e6565b602082019050919050565b6000602082019050818103600083015261244b8161240f565b9050919050565b6000606082019050612467600083018661194f565b6124746020830185611ae6565b612481604083018461194f565b949350505050565b600060408201905061249e600083018561194f565b6124ab602083018461194f565b9392505050565b7f4e6f7468696e6720746f20776974686472617700000000000000000000000000600082015250565b60006124e8601383611d80565b91506124f3826124b2565b602082019050919050565b60006020820190508181036000830152612517816124db565b9050919050565b7f5769746864726177206661696c65640000000000000000000000000000000000600082015250565b6000612554600f83611d80565b915061255f8261251e565b602082019050919050565b6000602082019050818103600083015261258381612547565b9050919050565b7f526f756e64204944206d75737420696e63726561736500000000000000000000600082015250565b60006125c0601683611d80565b91506125cb8261258a565b602082019050919050565b600060208201905081810360008301526125ef816125b3565b9050919050565b600060608201905061260b600083018661194f565b612618602083018561194f565b612625604083018461194f565b949350505050565b7f4f776e61626c653a206e6577206f776e657220697320746865207a65726f206160008201527f6464726573730000000000000000000000000000000000000000000000000000602082015250565b6000612689602683611d80565b91506126948261262d565b604082019050919050565b600060208201905081810360008301526126b88161267c565b9050919050565b60008160601b9050919050565b60006126d7826126bf565b9050919050565b60006126e9826126cc565b9050919050565b6127016126fc826119a3565b6126de565b82525050565b600061271382846126f0565b60148201915081905092915050565b7f4f776e61626c653a2063616c6c6572206973206e6f7420746865206f776e6572600082015250565b6000612758602083611d80565b915061276382612722565b602082019050919050565b600060208201905081810360008301526127878161274b565b9050919050565b7f4e487b7100000000000000000000000000000000000000000000000000000000600052603260045260246000fd5b60006127c882611945565b91507fffffffffffffffffffffffffffffffffffffffffffffffffffffffffffffffff82036127fa576127f9612140565b5b60018201905091905056fea2646970667358221220e326373656f0518de33cfd43b1926e566e1915f7ec04818174c5f1901b52630264736f6c63430008120033",
					"opcodes": "PUSH1 0xA0 PUSH1 0x40 MSTORE CALLVALUE DUP1 ISZERO PUSH3 0x11 JUMPI PUSH1 0x0 DUP1 REVERT JUMPDEST POP PUSH1 0x40 MLOAD PUSH3 0x2EFB CODESIZE SUB DUP1 PUSH3 0x2EFB DUP4 CODECOPY DUP2 DUP2 ADD PUSH1 0x40 MSTORE DUP2 ADD SWAP1 PUSH3 0x37 SWAP2 SWAP1 PUSH3 0x514 JUMP JUMPDEST PUSH3 0x57 PUSH3 0x4B PUSH3 0x21F PUSH1 0x20 SHL PUSH1 0x20 SHR JUMP JUMPDEST PUSH3 0x227 PUSH1 0x20 SHL PUSH1 0x20 SHR JUMP JUMPDEST PUSH3 0x68 DUP7 PUSH3 0x227 PUSH1 0x20 SHL PUSH1 0x20 SHR JUMP JUMPDEST DUP5 PUSH1 0x1 PUSH1 0x0 PUSH2 0x100 EXP DUP2 SLOAD DUP2 PUSH20 0xFFFFFFFFFFFFFFFFFFFFFFFFFFFFFFFFFFFFFFFF MUL NOT AND SWAP1 DUP4 PUSH20 0xFFFFFFFFFFFFFFFFFFFFFFFFFFFFFFFFFFFFFFFF AND MUL OR SWAP1 SSTORE POP DUP4 PUSH1 0x2 PUSH1 0x0 PUSH2 0x100 EXP DUP2 SLOAD DUP2 PUSH20 0xFFFFFFFFFFFFFFFFFFFFFFFFFFFFFFFFFFFFFFFF MUL NOT AND SWAP1 DUP4 PUSH20 0xFFFFFFFFFFFFFFFFFFFFFFFFFFFFFFFFFFFFFFFF AND MUL OR SWAP1 SSTORE POP PUSH20 0xCF664087A5BB0237A0BAD6742852EC6C8D69A27A PUSH20 0xFFFFFFFFFFFFFFFFFFFFFFFFFFFFFFFFFFFFFFFF AND PUSH1 0x80 DUP2 PUSH20 0xFFFFFFFFFFFFFFFFFFFFFFFFFFFFFFFFFFFFFFFF AND DUP2 MSTORE POP POP DUP2 PUSH1 0x7 DUP2 SWAP1 SSTORE POP DUP1 PUSH1 0x8 PUSH1 0x1 PUSH2 0x100 EXP DUP2 SLOAD DUP2 PUSH20 0xFFFFFFFFFFFFFFFFFFFFFFFFFFFFFFFFFFFFFFFF MUL NOT AND SWAP1 DUP4 PUSH20 0xFFFFFFFFFFFFFFFFFFFFFFFFFFFFFFFFFFFFFFFF AND MUL OR SWAP1 SSTORE POP PUSH1 0x0 JUMPDEST DUP4 MLOAD DUP2 LT ISZERO PUSH3 0x212 JUMPI PUSH1 0x1 PUSH1 0x9 PUSH1 0x0 DUP7 DUP5 DUP2 MLOAD DUP2 LT PUSH3 0x1A3 JUMPI PUSH3 0x1A2 PUSH3 0x5CF JUMP JUMPDEST JUMPDEST PUSH1 0x20 MUL PUSH1 0x20 ADD ADD MLOAD PUSH20 0xFFFFFFFFFFFFFFFFFFFFFFFFFFFFFFFFFFFFFFFF AND PUSH20 0xFFFFFFFFFFFFFFFFFFFFFFFFFFFFFFFFFFFFFFFF AND DUP2 MSTORE PUSH1 0x20 ADD SWAP1 DUP2 MSTORE PUSH1 0x20 ADD PUSH1 0x0 KECCAK256 PUSH1 0x0 PUSH2 0x100 EXP DUP2 SLOAD DUP2 PUSH1 0xFF MUL NOT AND SWAP1 DUP4 ISZERO ISZERO MUL OR SWAP1 SSTORE POP DUP1 DUP1 PUSH3 0x209 SWAP1 PUSH3 0x62D JUMP JUMPDEST SWAP2 POP POP PUSH3 0x17D JUMP JUMPDEST POP POP POP POP POP POP POP PUSH3 0x67A JUMP JUMPDEST PUSH1 0x0 CALLER SWAP1 POP SWAP1 JUMP JUMPDEST PUSH1 0x0 DUP1 PUSH1 0x0 SWAP1 SLOAD SWAP1 PUSH2 0x100 EXP SWAP1 DIV PUSH20 0xFFFFFFFFFFFFFFFFFFFFFFFFFFFFFFFFFFFFFFFF AND SWAP1 POP DUP2 PUSH1 0x0 DUP1 PUSH2 0x100 EXP DUP2 SLOAD DUP2 PUSH20 0xFFFFFFFFFFFFFFFFFFFFFFFFFFFFFFFFFFFFFFFF MUL NOT AND SWAP1 DUP4 PUSH20 0xFFFFFFFFFFFFFFFFFFFFFFFFFFFFFFFFFFFFFFFF AND MUL OR SWAP1 SSTORE POP DUP2 PUSH20 0xFFFFFFFFFFFFFFFFFFFFFFFFFFFFFFFFFFFFFFFF AND DUP2 PUSH20 0xFFFFFFFFFFFFFFFFFFFFFFFFFFFFFFFFFFFFFFFF AND PUSH32 0x8BE0079C531659141344CD1FD0A4F28419497F9722A3DAAFE3B4186F6B6457E0 PUSH1 0x40 MLOAD PUSH1 0x40 MLOAD DUP1 SWAP2 SUB SWAP1 LOG3 POP POP JUMP JUMPDEST PUSH1 0x0 PUSH1 0x40 MLOAD SWAP1 POP SWAP1 JUMP JUMPDEST PUSH1 0x0 DUP1 REVERT JUMPDEST PUSH1 0x0 DUP1 REVERT JUMPDEST PUSH1 0x0 PUSH20 0xFFFFFFFFFFFFFFFFFFFFFFFFFFFFFFFFFFFFFFFF DUP3 AND SWAP1 POP SWAP2 SWAP1 POP JUMP JUMPDEST PUSH1 0x0 PUSH3 0x32C DUP3 PUSH3 0x2FF JUMP JUMPDEST SWAP1 POP SWAP2 SWAP1 POP JUMP JUMPDEST PUSH3 0x33E DUP2 PUSH3 0x31F JUMP JUMPDEST DUP2 EQ PUSH3 0x34A JUMPI PUSH1 0x0 DUP1 REVERT JUMPDEST POP JUMP JUMPDEST PUSH1 0x0 DUP2 MLOAD SWAP1 POP PUSH3 0x35E DUP2 PUSH3 0x333 JUMP JUMPDEST SWAP3 SWAP2 POP POP JUMP JUMPDEST PUSH1 0x0 DUP1 REVERT JUMPDEST PUSH1 0x0 PUSH1 0x1F NOT PUSH1 0x1F DUP4 ADD AND SWAP1 POP SWAP2 SWAP1 POP JUMP JUMPDEST PUSH32 0x4E487B7100000000000000000000000000000000000000000000000000000000 PUSH1 0x0 MSTORE PUSH1 0x41 PUSH1 0x4 MSTORE PUSH1 0x24 PUSH1 0x0 REVERT JUMPDEST PUSH3 0x3B4 DUP3 PUSH3 0x369 JUMP JUMPDEST DUP2 ADD DUP2 DUP2 LT PUSH8 0xFFFFFFFFFFFFFFFF DUP3 GT OR ISZERO PUSH3 0x3D6 JUMPI PUSH3 0x3D5 PUSH3 0x37A JUMP JUMPDEST JUMPDEST DUP1 PUSH1 0x40 MSTORE POP POP POP JUMP JUMPDEST PUSH1 0x0 PUSH3 0x3EB PUSH3 0x2EB JUMP JUMPDEST SWAP1 POP PUSH3 0x3F9 DUP3 DUP3 PUSH3 0x3A9 JUMP JUMPDEST SWAP2 SWAP1 POP JUMP JUMPDEST PUSH1 0x0 PUSH8 0xFFFFFFFFFFFFFFFF DUP3 GT ISZERO PUSH3 0x41C JUMPI PUSH3 0x41B PUSH3 0x37A JUMP JUMPDEST JUMPDEST PUSH1 0x20 DUP3 MUL SWAP1 POP PUSH1 0x20 DUP2 ADD SWAP1 POP SWAP2 SWAP1 POP JUMP JUMPDEST PUSH1 0x0 DUP1 REVERT JUMPDEST PUSH1 0x0 PUSH3 0x449 PUSH3 0x443 DUP5 PUSH3 0x3FE JUMP JUMPDEST PUSH3 0x3DF JUMP JUMPDEST SWAP1 POP DUP1 DUP4 DUP3 MSTORE PUSH1 0x20 DUP3 ADD SWAP1 POP PUSH1 0x20 DUP5 MUL DUP4 ADD DUP6 DUP2 GT ISZERO PUSH3 0x46F JUMPI PUSH3 0x46E PUSH3 0x42D JUMP JUMPDEST JUMPDEST DUP4 JUMPDEST DUP2 DUP2 LT ISZERO PUSH3 0x49C JUMPI DUP1 PUSH3 0x487 DUP9 DUP3 PUSH3 0x34D JUMP JUMPDEST DUP5 MSTORE PUSH1 0x20 DUP5 ADD SWAP4 POP POP PUSH1 0x20 DUP2 ADD SWAP1 POP PUSH3 0x471 JUMP JUMPDEST POP POP POP SWAP4 SWAP3 POP POP POP JUMP JUMPDEST PUSH1 0x0 DUP3 PUSH1 0x1F DUP4 ADD SLT PUSH3 0x4BE JUMPI PUSH3 0x4BD PUSH3 0x364 JUMP JUMPDEST JUMPDEST DUP2 MLOAD PUSH3 0x4D0 DUP5 DUP3 PUSH1 0x20 DUP7 ADD PUSH3 0x432 JUMP JUMPDEST SWAP2 POP POP SWAP3 SWAP2 POP POP JUMP JUMPDEST PUSH1 0x0 DUP2 SWAP1 POP SWAP2 SWAP1 POP JUMP JUMPDEST PUSH3 0x4EE DUP2 PUSH3 0x4D9 JUMP JUMPDEST DUP2 EQ PUSH3 0x4FA JUMPI PUSH1 0x0 DUP1 REVERT JUMPDEST POP JUMP JUMPDEST PUSH1 0x0 DUP2 MLOAD SWAP1 POP PUSH3 0x50E DUP2 PUSH3 0x4E3 JUMP JUMPDEST SWAP3 SWAP2 POP POP JUMP JUMPDEST PUSH1 0x0 DUP1 PUSH1 0x0 DUP1 PUSH1 0x0 DUP1 PUSH1 0xC0 DUP8 DUP10 SUB SLT ISZERO PUSH3 0x534 JUMPI PUSH3 0x533 PUSH3 0x2F5 JUMP JUMPDEST JUMPDEST PUSH1 0x0 PUSH3 0x544 DUP10 DUP3 DUP11 ADD PUSH3 0x34D JUMP JUMPDEST SWAP7 POP POP PUSH1 0x20 PUSH3 0x557 DUP10 DUP3 DUP11 ADD PUSH3 0x34D JUMP JUMPDEST SWAP6 POP POP PUSH1 0x40 PUSH3 0x56A DUP10 DUP3 DUP11 ADD PUSH3 0x34D JUMP JUMPDEST SWAP5 POP POP PUSH1 0x60 DUP8 ADD MLOAD PUSH8 0xFFFFFFFFFFFFFFFF DUP2 GT ISZERO PUSH3 0x58E JUMPI PUSH3 0x58D PUSH3 0x2FA JUMP JUMPDEST JUMPDEST PUSH3 0x59C DUP10 DUP3 DUP11 ADD PUSH3 0x4A6 JUMP JUMPDEST SWAP4 POP POP PUSH1 0x80 PUSH3 0x5AF DUP10 DUP3 DUP11 ADD PUSH3 0x4FD JUMP JUMPDEST SWAP3 POP POP PUSH1 0xA0 PUSH3 0x5C2 DUP10 DUP3 DUP11 ADD PUSH3 0x34D JUMP JUMPDEST SWAP2 POP POP SWAP3 SWAP6 POP SWAP3 SWAP6 POP SWAP3 SWAP6 JUMP JUMPDEST PUSH32 0x4E487B7100000000000000000000000000000000000000000000000000000000 PUSH1 0x0 MSTORE PUSH1 0x32 PUSH1 0x4 MSTORE PUSH1 0x24 PUSH1 0x0 REVERT JUMPDEST PUSH32 0x4E487B7100000000000000000000000000000000000000000000000000000000 PUSH1 0x0 MSTORE PUSH1 0x11 PUSH1 0x4 MSTORE PUSH1 0x24 PUSH1 0x0 REVERT JUMPDEST PUSH1 0x0 PUSH3 0x63A DUP3 PUSH3 0x4D9 JUMP JUMPDEST SWAP2 POP PUSH32 0xFFFFFFFFFFFFFFFFFFFFFFFFFFFFFFFFFFFFFFFFFFFFFFFFFFFFFFFFFFFFFFFF DUP3 SUB PUSH3 0x66F JUMPI PUSH3 0x66E PUSH3 0x5FE JUMP JUMPDEST JUMPDEST PUSH1 0x1 DUP3 ADD SWAP1 POP SWAP2 SWAP1 POP JUMP JUMPDEST PUSH1 0x80 MLOAD PUSH2 0x283B PUSH3 0x6C0 PUSH1 0x0 CODECOPY PUSH1 0x0 DUP2 DUP2 PUSH2 0x9ED ADD MSTORE DUP2 DUP2 PUSH2 0xACA ADD MSTORE DUP2 DUP2 PUSH2 0xC02 ADD MSTORE DUP2 DUP2 PUSH2 0xCAE ADD MSTORE DUP2 DUP2 PUSH2 0xD38 ADD MSTORE DUP2 DUP2 PUSH2 0xE17 ADD MSTORE PUSH2 0xF73 ADD MSTORE PUSH2 0x283B PUSH1 0x0 RETURN INVALID PUSH1 0x80 PUSH1 0x40 MSTORE CALLVALUE DUP1 ISZERO PUSH2 0x10 JUMPI PUSH1 0x0 DUP1 REVERT JUMPDEST POP PUSH1 0x4 CALLDATASIZE LT PUSH2 0x1A9 JUMPI PUSH1 0x0 CALLDATALOAD PUSH1 0xE0 SHR DUP1 PUSH4 0x7CB64759 GT PUSH2 0xF9 JUMPI DUP1 PUSH4 0xB20D30A9 GT PUSH2 0x97 JUMPI DUP1 PUSH4 0xE2C6E438 GT PUSH2 0x71 JUMPI DUP1 PUSH4 0xE2C6E438 EQ PUSH2 0x450 JUMPI DUP1 PUSH4 0xE7986466 EQ PUSH2 0x480 JUMPI DUP1 PUSH4 0xE9587E86 EQ PUSH2 0x49C JUMPI DUP1 PUSH4 0xF2FDE38B EQ PUSH2 0x4CC JUMPI PUSH2 0x1A9 JUMP JUMPDEST DUP1 PUSH4 0xB20D30A9 EQ PUSH2 0x3F8 JUMPI DUP1 PUSH4 0xCA26C532 EQ PUSH2 0x414 JUMPI DUP1 PUSH4 0xD6691E47 EQ PUSH2 0x432 JUMPI PUSH2 0x1A9 JUMP JUMPDEST DUP1 PUSH4 0x8DA5CB5B GT PUSH2 0xD3 JUMPI DUP1 PUSH4 0x8DA5CB5B EQ PUSH2 0x380 JUMPI DUP1 PUSH4 0x8EA5220F EQ PUSH2 0x39E JUMPI DUP1 PUSH4 0xA4E2D634 EQ PUSH2 0x3BC JUMPI DUP1 PUSH4 0xAD655EF6 EQ PUSH2 0x3DA JUMPI PUSH2 0x1A9 JUMP JUMPDEST DUP1 PUSH4 0x7CB64759 EQ PUSH2 0x328 JUMPI DUP1 PUSH4 0x7DC0D1D0 EQ PUSH2 0x344 JUMPI DUP1 PUSH4 0x8A19C8BC EQ PUSH2 0x362 JUMPI PUSH2 0x1A9 JUMP JUMPDEST DUP1 PUSH4 0x40365852 GT PUSH2 0x166 JUMPI DUP1 PUSH4 0x620D025C GT PUSH2 0x140 JUMPI DUP1 PUSH4 0x620D025C EQ PUSH2 0x2B4 JUMPI DUP1 PUSH4 0x715018A6 EQ PUSH2 0x2D2 JUMPI DUP1 PUSH4 0x73A1A252 EQ PUSH2 0x2DC JUMPI DUP1 PUSH4 0x7ADBF973 EQ PUSH2 0x30C JUMPI PUSH2 0x1A9 JUMP JUMPDEST DUP1 PUSH4 0x40365852 EQ PUSH2 0x24A JUMPI DUP1 PUSH4 0x4615102C EQ PUSH2 0x268 JUMPI DUP1 PUSH4 0x589DB8D4 EQ PUSH2 0x284 JUMPI PUSH2 0x1A9 JUMP JUMPDEST DUP1 PUSH4 0x1073E2A7 EQ PUSH2 0x1AE JUMPI DUP1 PUSH4 0x14132F48 EQ PUSH2 0x1CC JUMPI DUP1 PUSH4 0x196B004B EQ PUSH2 0x1E8 JUMPI DUP1 PUSH4 0x211E28B6 EQ PUSH2 0x206 JUMPI DUP1 PUSH4 0x24600FC3 EQ PUSH2 0x222 JUMPI DUP1 PUSH4 0x2EB4A7AB EQ PUSH2 0x22C JUMPI JUMPDEST PUSH1 0x0 DUP1 REVERT JUMPDEST PUSH2 0x1B6 PUSH2 0x4E8 JUMP JUMPDEST PUSH1 0x40 MLOAD PUSH2 0x1C3 SWAP2 SWAP1 PUSH2 0x195E JUMP JUMPDEST PUSH1 0x40 MLOAD DUP1 SWAP2 SUB SWAP1 RETURN JUMPDEST PUSH2 0x1E6 PUSH1 0x4 DUP1 CALLDATASIZE SUB DUP2 ADD SWAP1 PUSH2 0x1E1 SWAP2 SWAP1 PUSH2 0x1A72 JUMP JUMPDEST PUSH2 0x4EF JUMP JUMPDEST STOP JUMPDEST PUSH2 0x1F0 PUSH2 0xCAC JUMP JUMPDEST PUSH1 0x40 MLOAD PUSH2 0x1FD SWAP2 SWAP1 PUSH2 0x1AF5 JUMP JUMPDEST PUSH1 0x40 MLOAD DUP1 SWAP2 SUB SWAP1 RETURN JUMPDEST PUSH2 0x220 PUSH1 0x4 DUP1 CALLDATASIZE SUB DUP2 ADD SWAP1 PUSH2 0x21B SWAP2 SWAP1 PUSH2 0x1B48 JUMP JUMPDEST PUSH2 0xCD0 JUMP JUMPDEST STOP JUMPDEST PUSH2 0x22A PUSH2 0xD2C JUMP JUMPDEST STOP JUMPDEST PUSH2 0x234 PUSH2 0xF17 JUMP JUMPDEST PUSH1 0x40 MLOAD PUSH2 0x241 SWAP2 SWAP1 PUSH2 0x1B8E JUMP JUMPDEST PUSH1 0x40 MLOAD DUP1 SWAP2 SUB SWAP1 RETURN JUMPDEST PUSH2 0x252 PUSH2 0xF1D JUMP JUMPDEST PUSH1 0x40 MLOAD PUSH2 0x25F SWAP2 SWAP1 PUSH2 0x195E JUMP JUMPDEST PUSH1 0x40 MLOAD DUP1 SWAP2 SUB SWAP1 RETURN JUMPDEST PUSH2 0x282 PUSH1 0x4 DUP1 CALLDATASIZE SUB DUP2 ADD SWAP1 PUSH2 0x27D SWAP2 SWAP1 PUSH2 0x1BA9 JUMP JUMPDEST PUSH2 0xF23 JUMP JUMPDEST STOP JUMPDEST PUSH2 0x29E PUSH1 0x4 DUP1 CALLDATASIZE SUB DUP2 ADD SWAP1 PUSH2 0x299 SWAP2 SWAP1 PUSH2 0x1BD6 JUMP JUMPDEST PUSH2 0x10B6 JUMP JUMPDEST PUSH1 0x40 MLOAD PUSH2 0x2AB SWAP2 SWAP1 PUSH2 0x195E JUMP JUMPDEST PUSH1 0x40 MLOAD DUP1 SWAP2 SUB SWAP1 RETURN JUMPDEST PUSH2 0x2BC PUSH2 0x10CE JUMP JUMPDEST PUSH1 0x40 MLOAD PUSH2 0x2C9 SWAP2 SWAP1 PUSH2 0x195E JUMP JUMPDEST PUSH1 0x40 MLOAD DUP1 SWAP2 SUB SWAP1 RETURN JUMPDEST PUSH2 0x2DA PUSH2 0x10D4 JUMP JUMPDEST STOP JUMPDEST PUSH2 0x2F6 PUSH1 0x4 DUP1 CALLDATASIZE SUB DUP2 ADD SWAP1 PUSH2 0x2F1 SWAP2 SWAP1 PUSH2 0x1C03 JUMP JUMPDEST PUSH2 0x10E8 JUMP JUMPDEST PUSH1 0x40 MLOAD PUSH2 0x303 SWAP2 SWAP1 PUSH2 0x195E JUMP JUMPDEST PUSH1 0x40 MLOAD DUP1 SWAP2 SUB SWAP1 RETURN JUMPDEST PUSH2 0x326 PUSH1 0x4 DUP1 CALLDATASIZE SUB DUP2 ADD SWAP1 PUSH2 0x321 SWAP2 SWAP1 PUSH2 0x1BD6 JUMP JUMPDEST PUSH2 0x110D JUMP JUMPDEST STOP JUMPDEST PUSH2 0x342 PUSH1 0x4 DUP1 CALLDATASIZE SUB DUP2 ADD SWAP1 PUSH2 0x33D SWAP2 SWAP1 PUSH2 0x1C6F JUMP JUMPDEST PUSH2 0x1159 JUMP JUMPDEST STOP JUMPDEST PUSH2 0x34C PUSH2 0x116B JUMP JUMPDEST PUSH1 0x40 MLOAD PUSH2 0x359 SWAP2 SWAP1 PUSH2 0x1CFB JUMP JUMPDEST PUSH1 0x40 MLOAD DUP1 SWAP2 SUB SWAP1 RETURN JUMPDEST PUSH2 0x36A PUSH2 0x1191 JUMP JUMPDEST PUSH1 0x40 MLOAD PUSH2 0x377 SWAP2 SWAP1 PUSH2 0x195E JUMP JUMPDEST PUSH1 0x40 MLOAD DUP1 SWAP2 SUB SWAP1 RETURN JUMPDEST PUSH2 0x388 PUSH2 0x1197 JUMP JUMPDEST PUSH1 0x40 MLOAD PUSH2 0x395 SWAP2 SWAP1 PUSH2 0x1AF5 JUMP JUMPDEST PUSH1 0x40 MLOAD DUP1 SWAP2 SUB SWAP1 RETURN JUMPDEST PUSH2 0x3A6 PUSH2 0x11C0 JUMP JUMPDEST PUSH1 0x40 MLOAD PUSH2 0x3B3 SWAP2 SWAP1 PUSH2 0x1AF5 JUMP JUMPDEST PUSH1 0x40 MLOAD DUP1 SWAP2 SUB SWAP1 RETURN JUMPDEST PUSH2 0x3C4 PUSH2 0x11E6 JUMP JUMPDEST PUSH1 0x40 MLOAD PUSH2 0x3D1 SWAP2 SWAP1 PUSH2 0x1D25 JUMP JUMPDEST PUSH1 0x40 MLOAD DUP1 SWAP2 SUB SWAP1 RETURN JUMPDEST PUSH2 0x3E2 PUSH2 0x11F9 JUMP JUMPDEST PUSH1 0x40 MLOAD PUSH2 0x3EF SWAP2 SWAP1 PUSH2 0x195E JUMP JUMPDEST PUSH1 0x40 MLOAD DUP1 SWAP2 SUB SWAP1 RETURN JUMPDEST PUSH2 0x412 PUSH1 0x4 DUP1 CALLDATASIZE SUB DUP2 ADD SWAP1 PUSH2 0x40D SWAP2 SWAP1 PUSH2 0x1BA9 JUMP JUMPDEST PUSH2 0x1200 JUMP JUMPDEST STOP JUMPDEST PUSH2 0x41C PUSH2 0x1212 JUMP JUMPDEST PUSH1 0x40 MLOAD PUSH2 0x429 SWAP2 SWAP1 PUSH2 0x195E JUMP JUMPDEST PUSH1 0x40 MLOAD DUP1 SWAP2 SUB SWAP1 RETURN JUMPDEST PUSH2 0x43A PUSH2 0x1218 JUMP JUMPDEST PUSH1 0x40 MLOAD PUSH2 0x447 SWAP2 SWAP1 PUSH2 0x1AF5 JUMP JUMPDEST PUSH1 0x40 MLOAD DUP1 SWAP2 SUB SWAP1 RETURN JUMPDEST PUSH2 0x46A PUSH1 0x4 DUP1 CALLDATASIZE SUB DUP2 ADD SWAP1 PUSH2 0x465 SWAP2 SWAP1 PUSH2 0x1BD6 JUMP JUMPDEST PUSH2 0x123E JUMP JUMPDEST PUSH1 0x40 MLOAD PUSH2 0x477 SWAP2 SWAP1 PUSH2 0x1D25 JUMP JUMPDEST PUSH1 0x40 MLOAD DUP1 SWAP2 SUB SWAP1 RETURN JUMPDEST PUSH2 0x49A PUSH1 0x4 DUP1 CALLDATASIZE SUB DUP2 ADD SWAP1 PUSH2 0x495 SWAP2 SWAP1 PUSH2 0x1D40 JUMP JUMPDEST PUSH2 0x125E JUMP JUMPDEST STOP JUMPDEST PUSH2 0x4B6 PUSH1 0x4 DUP1 CALLDATASIZE SUB DUP2 ADD SWAP1 PUSH2 0x4B1 SWAP2 SWAP1 PUSH2 0x1BD6 JUMP JUMPDEST PUSH2 0x12C1 JUMP JUMPDEST PUSH1 0x40 MLOAD PUSH2 0x4C3 SWAP2 SWAP1 PUSH2 0x195E JUMP JUMPDEST PUSH1 0x40 MLOAD DUP1 SWAP2 SUB SWAP1 RETURN JUMPDEST PUSH2 0x4E6 PUSH1 0x4 DUP1 CALLDATASIZE SUB DUP2 ADD SWAP1 PUSH2 0x4E1 SWAP2 SWAP1 PUSH2 0x1BD6 JUMP JUMPDEST PUSH2 0x1475 JUMP JUMPDEST STOP JUMPDEST PUSH3 0x15180 DUP2 JUMP JUMPDEST PUSH1 0x8 PUSH1 0x0 SWAP1 SLOAD SWAP1 PUSH2 0x100 EXP SWAP1 DIV PUSH1 0xFF AND ISZERO PUSH2 0x53F JUMPI PUSH1 0x40 MLOAD PUSH32 0x8C379A000000000000000000000000000000000000000000000000000000000 DUP2 MSTORE PUSH1 0x4 ADD PUSH2 0x536 SWAP1 PUSH2 0x1DDD JUMP JUMPDEST PUSH1 0x40 MLOAD DUP1 SWAP2 SUB SWAP1 REVERT JUMPDEST PUSH1 0x5 SLOAD TIMESTAMP LT ISZERO PUSH2 0x584 JUMPI PUSH1 0x40 MLOAD PUSH32 0x8C379A000000000000000000000000000000000000000000000000000000000 DUP2 MSTORE PUSH1 0x4 ADD PUSH2 0x57B SWAP1 PUSH2 0x1E49 JUMP JUMPDEST PUSH1 0x40 MLOAD DUP1 SWAP2 SUB SWAP1 REVERT JUMPDEST PUSH1 0x0 PUSH1 0x6 SLOAD GT PUSH2 0x5C9 JUMPI PUSH1 0x40 MLOAD PUSH32 0x8C379A000000000000000000000000000000000000000000000000000000000 DUP2 MSTORE PUSH1 0x4 ADD PUSH2 0x5C0 SWAP1 PUSH2 0x1EB5 JUMP JUMPDEST PUSH1 0x40 MLOAD DUP1 SWAP2 SUB SWAP1 REVERT JUMPDEST DUP2 DUP2 PUSH2 0x5D6 CALLER DUP4 DUP4 PUSH2 0x14F8 JUMP JUMPDEST PUSH2 0x615 JUMPI PUSH1 0x40 MLOAD PUSH32 0x8C379A000000000000000000000000000000000000000000000000000000000 DUP2 MSTORE PUSH1 0x4 ADD PUSH2 0x60C SWAP1 PUSH2 0x1F21 JUMP JUMPDEST PUSH1 0x40 MLOAD DUP1 SWAP2 SUB SWAP1 REVERT JUMPDEST PUSH1 0x9 PUSH1 0x0 DUP8 PUSH20 0xFFFFFFFFFFFFFFFFFFFFFFFFFFFFFFFFFFFFFFFF AND PUSH20 0xFFFFFFFFFFFFFFFFFFFFFFFFFFFFFFFFFFFFFFFF AND DUP2 MSTORE PUSH1 0x20 ADD SWAP1 DUP2 MSTORE PUSH1 0x20 ADD PUSH1 0x0 KECCAK256 PUSH1 0x0 SWAP1 SLOAD SWAP1 PUSH2 0x100 EXP SWAP1 DIV PUSH1 0xFF AND PUSH2 0x6A1 JUMPI PUSH1 0x40 MLOAD PUSH32 0x8C379A000000000000000000000000000000000000000000000000000000000 DUP2 MSTORE PUSH1 0x4 ADD PUSH2 0x698 SWAP1 PUSH2 0x1F8D JUMP JUMPDEST PUSH1 0x40 MLOAD DUP1 SWAP2 SUB SWAP1 REVERT JUMPDEST PUSH1 0x0 DUP6 GT PUSH2 0x6E4 JUMPI PUSH1 0x40 MLOAD PUSH32 0x8C379A000000000000000000000000000000000000000000000000000000000 DUP2 MSTORE PUSH1 0x4 ADD PUSH2 0x6DB SWAP1 PUSH2 0x1FF9 JUMP JUMPDEST PUSH1 0x40 MLOAD DUP1 SWAP2 SUB SWAP1 REVERT JUMPDEST DUP6 PUSH20 0xFFFFFFFFFFFFFFFFFFFFFFFFFFFFFFFFFFFFFFFF AND PUSH4 0x23B872DD CALLER ADDRESS DUP9 PUSH1 0x40 MLOAD DUP5 PUSH4 0xFFFFFFFF AND PUSH1 0xE0 SHL DUP2 MSTORE PUSH1 0x4 ADD PUSH2 0x721 SWAP4 SWAP3 SWAP2 SWAP1 PUSH2 0x2019 JUMP JUMPDEST PUSH1 0x20 PUSH1 0x40 MLOAD DUP1 DUP4 SUB DUP2 PUSH1 0x0 DUP8 GAS CALL ISZERO DUP1 ISZERO PUSH2 0x740 JUMPI RETURNDATASIZE PUSH1 0x0 DUP1 RETURNDATACOPY RETURNDATASIZE PUSH1 0x0 REVERT JUMPDEST POP POP POP POP PUSH1 0x40 MLOAD RETURNDATASIZE PUSH1 0x1F NOT PUSH1 0x1F DUP3 ADD AND DUP3 ADD DUP1 PUSH1 0x40 MSTORE POP DUP2 ADD SWAP1 PUSH2 0x764 SWAP2 SWAP1 PUSH2 0x2065 JUMP JUMPDEST PUSH2 0x7A3 JUMPI PUSH1 0x40 MLOAD PUSH32 0x8C379A000000000000000000000000000000000000000000000000000000000 DUP2 MSTORE PUSH1 0x4 ADD PUSH2 0x79A SWAP1 PUSH2 0x20DE JUMP JUMPDEST PUSH1 0x40 MLOAD DUP1 SWAP2 SUB SWAP1 REVERT JUMPDEST PUSH2 0x7AC CALLER PUSH2 0x1577 JUMP JUMPDEST PUSH1 0x0 PUSH1 0x8 PUSH1 0x1 SWAP1 SLOAD SWAP1 PUSH2 0x100 EXP SWAP1 DIV PUSH20 0xFFFFFFFFFFFFFFFFFFFFFFFFFFFFFFFFFFFFFFFF AND PUSH20 0xFFFFFFFFFFFFFFFFFFFFFFFFFFFFFFFFFFFFFFFF AND PUSH4 0x98D5FDCA PUSH1 0x40 MLOAD DUP2 PUSH4 0xFFFFFFFF AND PUSH1 0xE0 SHL DUP2 MSTORE PUSH1 0x4 ADD PUSH1 0x20 PUSH1 0x40 MLOAD DUP1 DUP4 SUB DUP2 DUP7 GAS STATICCALL ISZERO DUP1 ISZERO PUSH2 0x81B JUMPI RETURNDATASIZE PUSH1 0x0 DUP1 RETURNDATACOPY RETURNDATASIZE PUSH1 0x0 REVERT JUMPDEST POP POP POP POP PUSH1 0x40 MLOAD RETURNDATASIZE PUSH1 0x1F NOT PUSH1 0x1F DUP3 ADD AND DUP3 ADD DUP1 PUSH1 0x40 MSTORE POP DUP2 ADD SWAP1 PUSH2 0x83F SWAP2 SWAP1 PUSH2 0x2113 JUMP JUMPDEST SWAP1 POP PUSH1 0x0 DUP2 PUSH8 0xDE0B6B3A7640000 PUSH1 0x7 SLOAD PUSH2 0x85A SWAP2 SWAP1 PUSH2 0x216F JUMP JUMPDEST PUSH2 0x864 SWAP2 SWAP1 PUSH2 0x21E0 JUMP JUMPDEST SWAP1 POP DUP1 DUP8 PUSH1 0xA PUSH1 0x0 PUSH1 0x4 SLOAD DUP2 MSTORE PUSH1 0x20 ADD SWAP1 DUP2 MSTORE PUSH1 0x20 ADD PUSH1 0x0 KECCAK256 PUSH1 0x0 CALLER PUSH20 0xFFFFFFFFFFFFFFFFFFFFFFFFFFFFFFFFFFFFFFFF AND PUSH20 0xFFFFFFFFFFFFFFFFFFFFFFFFFFFFFFFFFFFFFFFF AND DUP2 MSTORE PUSH1 0x20 ADD SWAP1 DUP2 MSTORE PUSH1 0x20 ADD PUSH1 0x0 KECCAK256 SLOAD PUSH2 0x8C5 SWAP2 SWAP1 PUSH2 0x2211 JUMP JUMPDEST GT ISZERO PUSH2 0x906 JUMPI PUSH1 0x40 MLOAD PUSH32 0x8C379A000000000000000000000000000000000000000000000000000000000 DUP2 MSTORE PUSH1 0x4 ADD PUSH2 0x8FD SWAP1 PUSH2 0x2291 JUMP JUMPDEST PUSH1 0x40 MLOAD DUP1 SWAP2 SUB SWAP1 REVERT JUMPDEST PUSH1 0x0 PUSH2 0x912 DUP9 DUP5 PUSH2 0x166B JUMP JUMPDEST SWAP1 POP PUSH1 0x0 DUP2 DUP10 PUSH2 0x922 SWAP2 SWAP1 PUSH2 0x22B1 JUMP JUMPDEST SWAP1 POP PUSH1 0x6 SLOAD DUP2 GT ISZERO PUSH2 0x969 JUMPI PUSH1 0x40 MLOAD PUSH32 0x8C379A000000000000000000000000000000000000000000000000000000000 DUP2 MSTORE PUSH1 0x4 ADD PUSH2 0x960 SWAP1 PUSH2 0x2331 JUMP JUMPDEST PUSH1 0x40 MLOAD DUP1 SWAP2 SUB SWAP1 REVERT JUMPDEST DUP9 PUSH1 0xA PUSH1 0x0 PUSH1 0x4 SLOAD DUP2 MSTORE PUSH1 0x20 ADD SWAP1 DUP2 MSTORE PUSH1 0x20 ADD PUSH1 0x0 KECCAK256 PUSH1 0x0 CALLER PUSH20 0xFFFFFFFFFFFFFFFFFFFFFFFFFFFFFFFFFFFFFFFF AND PUSH20 0xFFFFFFFFFFFFFFFFFFFFFFFFFFFFFFFFFFFFFFFF AND DUP2 MSTORE PUSH1 0x20 ADD SWAP1 DUP2 MSTORE PUSH1 0x20 ADD PUSH1 0x0 KECCAK256 PUSH1 0x0 DUP3 DUP3 SLOAD PUSH2 0x9CB SWAP2 SWAP1 PUSH2 0x2211 JUMP JUMPDEST SWAP3 POP POP DUP2 SWAP1 SSTORE POP DUP1 PUSH1 0x6 PUSH1 0x0 DUP3 DUP3 SLOAD PUSH2 0x9E4 SWAP2 SWAP1 PUSH2 0x22B1 JUMP JUMPDEST SWAP3 POP POP DUP2 SWAP1 SSTORE POP PUSH32 0x0 PUSH20 0xFFFFFFFFFFFFFFFFFFFFFFFFFFFFFFFFFFFFFFFF AND PUSH4 0xA9059CBB CALLER DUP4 PUSH1 0x40 MLOAD DUP4 PUSH4 0xFFFFFFFF AND PUSH1 0xE0 SHL DUP2 MSTORE PUSH1 0x4 ADD PUSH2 0xA46 SWAP3 SWAP2 SWAP1 PUSH2 0x2351 JUMP JUMPDEST PUSH1 0x20 PUSH1 0x40 MLOAD DUP1 DUP4 SUB DUP2 PUSH1 0x0 DUP8 GAS CALL ISZERO DUP1 ISZERO PUSH2 0xA65 JUMPI RETURNDATASIZE PUSH1 0x0 DUP1 RETURNDATACOPY RETURNDATASIZE PUSH1 0x0 REVERT JUMPDEST POP POP POP POP PUSH1 0x40 MLOAD RETURNDATASIZE PUSH1 0x1F NOT PUSH1 0x1F DUP3 ADD AND DUP3 ADD DUP1 PUSH1 0x40 MSTORE POP DUP2 ADD SWAP1 PUSH2 0xA89 SWAP2 SWAP1 PUSH2 0x2065 JUMP JUMPDEST PUSH2 0xAC8 JUMPI PUSH1 0x40 MLOAD PUSH32 0x8C379A000000000000000000000000000000000000000000000000000000000 DUP2 MSTORE PUSH1 0x4 ADD PUSH2 0xABF SWAP1 PUSH2 0x23C6 JUMP JUMPDEST PUSH1 0x40 MLOAD DUP1 SWAP2 SUB SWAP1 REVERT JUMPDEST PUSH32 0x0 PUSH20 0xFFFFFFFFFFFFFFFFFFFFFFFFFFFFFFFFFFFFFFFF AND PUSH4 0xA9059CBB PUSH1 0x1 PUSH1 0x0 SWAP1 SLOAD SWAP1 PUSH2 0x100 EXP SWAP1 DIV PUSH20 0xFFFFFFFFFFFFFFFFFFFFFFFFFFFFFFFFFFFFFFFF AND DUP5 PUSH1 0x40 MLOAD DUP4 PUSH4 0xFFFFFFFF AND PUSH1 0xE0 SHL DUP2 MSTORE PUSH1 0x4 ADD PUSH2 0xB45 SWAP3 SWAP2 SWAP1 PUSH2 0x2351 JUMP JUMPDEST PUSH1 0x20 PUSH1 0x40 MLOAD DUP1 DUP4 SUB DUP2 PUSH1 0x0 DUP8 GAS CALL ISZERO DUP1 ISZERO PUSH2 0xB64 JUMPI RETURNDATASIZE PUSH1 0x0 DUP1 RETURNDATACOPY RETURNDATASIZE PUSH1 0x0 REVERT JUMPDEST POP POP POP POP PUSH1 0x40 MLOAD RETURNDATASIZE PUSH1 0x1F NOT PUSH1 0x1F DUP3 ADD AND DUP3 ADD DUP1 PUSH1 0x40 MSTORE POP DUP2 ADD SWAP1 PUSH2 0xB88 SWAP2 SWAP1 PUSH2 0x2065 JUMP JUMPDEST PUSH2 0xBC7 JUMPI PUSH1 0x40 MLOAD PUSH32 0x8C379A000000000000000000000000000000000000000000000000000000000 DUP2 MSTORE PUSH1 0x4 ADD PUSH2 0xBBE SWAP1 PUSH2 0x2432 JUMP JUMPDEST PUSH1 0x40 MLOAD DUP1 SWAP2 SUB SWAP1 REVERT JUMPDEST DUP10 PUSH20 0xFFFFFFFFFFFFFFFFFFFFFFFFFFFFFFFFFFFFFFFF AND PUSH32 0xF0C71BE01E59205B10EA5AE42439AB4504C7E3DA732743531FF44E98BD9FD63F DUP11 PUSH32 0x0 DUP5 PUSH1 0x40 MLOAD PUSH2 0xC31 SWAP4 SWAP3 SWAP2 SWAP1 PUSH2 0x2452 JUMP JUMPDEST PUSH1 0x40 MLOAD DUP1 SWAP2 SUB SWAP1 LOG2 DUP10 PUSH20 0xFFFFFFFFFFFFFFFFFFFFFFFFFFFFFFFFFFFFFFFF AND CALLER PUSH20 0xFFFFFFFFFFFFFFFFFFFFFFFFFFFFFFFFFFFFFFFF AND PUSH32 0xC7E914640E860FBCF42EF4D9DCECED8880D343828101F1FA389C7E1C06072817 DUP12 DUP5 PUSH1 0x40 MLOAD PUSH2 0xC98 SWAP3 SWAP2 SWAP1 PUSH2 0x2489 JUMP JUMPDEST PUSH1 0x40 MLOAD DUP1 SWAP2 SUB SWAP1 LOG3 POP POP POP POP POP POP POP POP POP POP JUMP JUMPDEST PUSH32 0x0 DUP2 JUMP JUMPDEST PUSH2 0xCD8 PUSH2 0x174C JUMP JUMPDEST DUP1 PUSH1 0x8 PUSH1 0x0 PUSH2 0x100 EXP DUP2 SLOAD DUP2 PUSH1 0xFF MUL NOT AND SWAP1 DUP4 ISZERO ISZERO MUL OR SWAP1 SSTORE POP PUSH32 0x152CBFE4E8597A33181D2DA9ED5162E734CA8B263B9EB6105F169287A39908F6 DUP2 PUSH1 0x40 MLOAD PUSH2 0xD21 SWAP2 SWAP1 PUSH2 0x1D25 JUMP JUMPDEST PUSH1 0x40 MLOAD DUP1 SWAP2 SUB SWAP1 LOG1 POP JUMP JUMPDEST PUSH2 0xD34 PUSH2 0x174C JUMP JUMPDEST PUSH1 0x0 PUSH32 0x0 PUSH20 0xFFFFFFFFFFFFFFFFFFFFFFFFFFFFFFFFFFFFFFFF AND PUSH4 0x70A08231 ADDRESS PUSH1 0x40 MLOAD DUP3 PUSH4 0xFFFFFFFF AND PUSH1 0xE0 SHL DUP2 MSTORE PUSH1 0x4 ADD PUSH2 0xD8F SWAP2 SWAP1 PUSH2 0x1AF5 JUMP JUMPDEST PUSH1 0x20 PUSH1 0x40 MLOAD DUP1 DUP4 SUB DUP2 DUP7 GAS STATICCALL ISZERO DUP1 ISZERO PUSH2 0xDAC JUMPI RETURNDATASIZE PUSH1 0x0 DUP1 RETURNDATACOPY RETURNDATASIZE PUSH1 0x0 REVERT JUMPDEST POP POP POP POP PUSH1 0x40 MLOAD RETURNDATASIZE PUSH1 0x1F NOT PUSH1 0x1F DUP3 ADD AND DUP3 ADD DUP1 PUSH1 0x40 MSTORE POP DUP2 ADD SWAP1 PUSH2 0xDD0 SWAP2 SWAP1 PUSH2 0x2113 JUMP JUMPDEST SWAP1 POP PUSH1 0x0 DUP2 GT PUSH2 0xE15 JUMPI PUSH1 0x40 MLOAD PUSH32 0x8C379A000000000000000000000000000000000000000000000000000000000 DUP2 MSTORE PUSH1 0x4 ADD PUSH2 0xE0C SWAP1 PUSH2 0x24FE JUMP JUMPDEST PUSH1 0x40 MLOAD DUP1 SWAP2 SUB SWAP1 REVERT JUMPDEST PUSH32 0x0 PUSH20 0xFFFFFFFFFFFFFFFFFFFFFFFFFFFFFFFFFFFFFFFF AND PUSH4 0xA9059CBB PUSH1 0x2 PUSH1 0x0 SWAP1 SLOAD SWAP1 PUSH2 0x100 EXP SWAP1 DIV PUSH20 0xFFFFFFFFFFFFFFFFFFFFFFFFFFFFFFFFFFFFFFFF AND DUP4 PUSH1 0x40 MLOAD DUP4 PUSH4 0xFFFFFFFF AND PUSH1 0xE0 SHL DUP2 MSTORE PUSH1 0x4 ADD PUSH2 0xE92 SWAP3 SWAP2 SWAP1 PUSH2 0x2351 JUMP JUMPDEST PUSH1 0x20 PUSH1 0x40 MLOAD DUP1 DUP4 SUB DUP2 PUSH1 0x0 DUP8 GAS CALL ISZERO DUP1 ISZERO PUSH2 0xEB1 JUMPI RETURNDATASIZE PUSH1 0x0 DUP1 RETURNDATACOPY RETURNDATASIZE PUSH1 0x0 REVERT JUMPDEST POP POP POP POP PUSH1 0x40 MLOAD RETURNDATASIZE PUSH1 0x1F NOT PUSH1 0x1F DUP3 ADD AND DUP3 ADD DUP1 PUSH1 0x40 MSTORE POP DUP2 ADD SWAP1 PUSH2 0xED5 SWAP2 SWAP1 PUSH2 0x2065 JUMP JUMPDEST PUSH2 0xF14 JUMPI PUSH1 0x40 MLOAD PUSH32 0x8C379A000000000000000000000000000000000000000000000000000000000 DUP2 MSTORE PUSH1 0x4 ADD PUSH2 0xF0B SWAP1 PUSH2 0x256A JUMP JUMPDEST PUSH1 0x40 MLOAD DUP1 SWAP2 SUB SWAP1 REVERT JUMPDEST POP JUMP JUMPDEST PUSH1 0x3 SLOAD DUP2 JUMP JUMPDEST PUSH1 0x5 SLOAD DUP2 JUMP JUMPDEST PUSH2 0xF2B PUSH2 0x174C JUMP JUMPDEST PUSH1 0x4 SLOAD DUP2 GT PUSH2 0xF6F JUMPI PUSH1 0x40 MLOAD PUSH32 0x8C379A000000000000000000000000000000000000000000000000000000000 DUP2 MSTORE PUSH1 0x4 ADD PUSH2 0xF66 SWAP1 PUSH2 0x25D6 JUMP JUMPDEST PUSH1 0x40 MLOAD DUP1 SWAP2 SUB SWAP1 REVERT JUMPDEST PUSH1 0x0 PUSH32 0x0 PUSH20 0xFFFFFFFFFFFFFFFFFFFFFFFFFFFFFFFFFFFFFFFF AND PUSH4 0x70A08231 ADDRESS PUSH1 0x40 MLOAD DUP3 PUSH4 0xFFFFFFFF AND PUSH1 0xE0 SHL DUP2 MSTORE PUSH1 0x4 ADD PUSH2 0xFCA SWAP2 SWAP1 PUSH2 0x1AF5 JUMP JUMPDEST PUSH1 0x20 PUSH1 0x40 MLOAD DUP1 DUP4 SUB DUP2 DUP7 GAS STATICCALL ISZERO DUP1 ISZERO PUSH2 0xFE7 JUMPI RETURNDATASIZE PUSH1 0x0 DUP1 RETURNDATACOPY RETURNDATASIZE PUSH1 0x0 REVERT JUMPDEST POP POP POP POP PUSH1 0x40 MLOAD RETURNDATASIZE PUSH1 0x1F NOT PUSH1 0x1F DUP3 ADD AND DUP3 ADD DUP1 PUSH1 0x40 MSTORE POP DUP2 ADD SWAP1 PUSH2 0x100B SWAP2 SWAP1 PUSH2 0x2113 JUMP JUMPDEST SWAP1 POP PUSH1 0x0 DUP2 GT PUSH2 0x1050 JUMPI PUSH1 0x40 MLOAD PUSH32 0x8C379A000000000000000000000000000000000000000000000000000000000 DUP2 MSTORE PUSH1 0x4 ADD PUSH2 0x1047 SWAP1 PUSH2 0x1EB5 JUMP JUMPDEST PUSH1 0x40 MLOAD DUP1 SWAP2 SUB SWAP1 REVERT JUMPDEST DUP2 PUSH1 0x4 DUP2 SWAP1 SSTORE POP DUP1 PUSH1 0x6 DUP2 SWAP1 SSTORE POP PUSH3 0x15180 TIMESTAMP PUSH2 0x106D SWAP2 SWAP1 PUSH2 0x2211 JUMP JUMPDEST PUSH1 0x5 DUP2 SWAP1 SSTORE POP PUSH32 0xB0B0C60F0267584D50A65485B5EFF6BABAD43C5727703515FDE33BB545B19114 DUP3 PUSH1 0x6 SLOAD PUSH1 0x5 SLOAD PUSH1 0x40 MLOAD PUSH2 0x10AA SWAP4 SWAP3 SWAP2 SWAP1 PUSH2 0x25F6 JUMP JUMPDEST PUSH1 0x40 MLOAD DUP1 SWAP2 SUB SWAP1 LOG1 POP POP JUMP JUMPDEST PUSH1 0xB PUSH1 0x20 MSTORE DUP1 PUSH1 0x0 MSTORE PUSH1 0x40 PUSH1 0x0 KECCAK256 PUSH1 0x0 SWAP2 POP SWAP1 POP SLOAD DUP2 JUMP JUMPDEST PUSH1 0x6 SLOAD DUP2 JUMP JUMPDEST PUSH2 0x10DC PUSH2 0x174C JUMP JUMPDEST PUSH2 0x10E6 PUSH1 0x0 PUSH2 0x17CA JUMP JUMPDEST JUMP JUMPDEST PUSH1 0xA PUSH1 0x20 MSTORE DUP2 PUSH1 0x0 MSTORE PUSH1 0x40 PUSH1 0x0 KECCAK256 PUSH1 0x20 MSTORE DUP1 PUSH1 0x0 MSTORE PUSH1 0x40 PUSH1 0x0 KECCAK256 PUSH1 0x0 SWAP2 POP SWAP2 POP POP SLOAD DUP2 JUMP JUMPDEST PUSH2 0x1115 PUSH2 0x174C JUMP JUMPDEST DUP1 PUSH1 0x8 PUSH1 0x1 PUSH2 0x100 EXP DUP2 SLOAD DUP2 PUSH20 0xFFFFFFFFFFFFFFFFFFFFFFFFFFFFFFFFFFFFFFFF MUL NOT AND SWAP1 DUP4 PUSH20 0xFFFFFFFFFFFFFFFFFFFFFFFFFFFFFFFFFFFFFFFF AND MUL OR SWAP1 SSTORE POP POP JUMP JUMPDEST PUSH2 0x1161 PUSH2 0x174C JUMP JUMPDEST DUP1 PUSH1 0x3 DUP2 SWAP1 SSTORE POP POP JUMP JUMPDEST PUSH1 0x8 PUSH1 0x1 SWAP1 SLOAD SWAP1 PUSH2 0x100 EXP SWAP1 DIV PUSH20 0xFFFFFFFFFFFFFFFFFFFFFFFFFFFFFFFFFFFFFFFF AND DUP2 JUMP JUMPDEST PUSH1 0x4 SLOAD DUP2 JUMP JUMPDEST PUSH1 0x0 DUP1 PUSH1 0x0 SWAP1 SLOAD SWAP1 PUSH2 0x100 EXP SWAP1 DIV PUSH20 0xFFFFFFFFFFFFFFFFFFFFFFFFFFFFFFFFFFFFFFFF AND SWAP1 POP SWAP1 JUMP JUMPDEST PUSH1 0x1 PUSH1 0x0 SWAP1 SLOAD SWAP1 PUSH2 0x100 EXP SWAP1 DIV PUSH20 0xFFFFFFFFFFFFFFFFFFFFFFFFFFFFFFFFFFFFFFFF AND DUP2 JUMP JUMPDEST PUSH1 0x8 PUSH1 0x0 SWAP1 SLOAD SWAP1 PUSH2 0x100 EXP SWAP1 DIV PUSH1 0xFF AND DUP2 JUMP JUMPDEST PUSH3 0x15180 DUP2 JUMP JUMPDEST PUSH2 0x1208 PUSH2 0x174C JUMP JUMPDEST DUP1 PUSH1 0x7 DUP2 SWAP1 SSTORE POP POP JUMP JUMPDEST PUSH1 0x7 SLOAD DUP2 JUMP JUMPDEST PUSH1 0x2 PUSH1 0x0 SWAP1 SLOAD SWAP1 PUSH2 0x100 EXP SWAP1 DIV PUSH20 0xFFFFFFFFFFFFFFFFFFFFFFFFFFFFFFFFFFFFFFFF AND DUP2 JUMP JUMPDEST PUSH1 0x9 PUSH1 0x20 MSTORE DUP1 PUSH1 0x0 MSTORE PUSH1 0x40 PUSH1 0x0 KECCAK256 PUSH1 0x0 SWAP2 POP SLOAD SWAP1 PUSH2 0x100 EXP SWAP1 DIV PUSH1 0xFF AND DUP2 JUMP JUMPDEST PUSH2 0x1266 PUSH2 0x174C JUMP JUMPDEST DUP1 PUSH1 0x9 PUSH1 0x0 DUP5 PUSH20 0xFFFFFFFFFFFFFFFFFFFFFFFFFFFFFFFFFFFFFFFF AND PUSH20 0xFFFFFFFFFFFFFFFFFFFFFFFFFFFFFFFFFFFFFFFF AND DUP2 MSTORE PUSH1 0x20 ADD SWAP1 DUP2 MSTORE PUSH1 0x20 ADD PUSH1 0x0 KECCAK256 PUSH1 0x0 PUSH2 0x100 EXP DUP2 SLOAD DUP2 PUSH1 0xFF MUL NOT AND SWAP1 DUP4 ISZERO ISZERO MUL OR SWAP1 SSTORE POP POP POP JUMP JUMPDEST PUSH1 0x0 DUP1 PUSH1 0x8 PUSH1 0x1 SWAP1 SLOAD SWAP1 PUSH2 0x100 EXP SWAP1 DIV PUSH20 0xFFFFFFFFFFFFFFFFFFFFFFFFFFFFFFFFFFFFFFFF AND PUSH20 0xFFFFFFFFFFFFFFFFFFFFFFFFFFFFFFFFFFFFFFFF AND PUSH4 0x98D5FDCA PUSH1 0x40 MLOAD DUP2 PUSH4 0xFFFFFFFF AND PUSH1 0xE0 SHL DUP2 MSTORE PUSH1 0x4 ADD PUSH1 0x20 PUSH1 0x40 MLOAD DUP1 DUP4 SUB DUP2 DUP7 GAS STATICCALL ISZERO DUP1 ISZERO PUSH2 0x1331 JUMPI RETURNDATASIZE PUSH1 0x0 DUP1 RETURNDATACOPY RETURNDATASIZE PUSH1 0x0 REVERT JUMPDEST POP POP POP POP PUSH1 0x40 MLOAD RETURNDATASIZE PUSH1 0x1F NOT PUSH1 0x1F DUP3 ADD AND DUP3 ADD DUP1 PUSH1 0x40 MSTORE POP DUP2 ADD SWAP1 PUSH2 0x1355 SWAP2 SWAP1 PUSH2 0x2113 JUMP JUMPDEST SWAP1 POP PUSH1 0x0 DUP2 PUSH8 0xDE0B6B3A7640000 PUSH1 0x7 SLOAD PUSH2 0x1370 SWAP2 SWAP1 PUSH2 0x216F JUMP JUMPDEST PUSH2 0x137A SWAP2 SWAP1 PUSH2 0x21E0 JUMP JUMPDEST SWAP1 POP PUSH1 0x0 PUSH1 0xA PUSH1 0x0 PUSH1 0x4 SLOAD DUP2 MSTORE PUSH1 0x20 ADD SWAP1 DUP2 MSTORE PUSH1 0x20 ADD PUSH1 0x0 KECCAK256 PUSH1 0x0 DUP7 PUSH20 0xFFFFFFFFFFFFFFFFFFFFFFFFFFFFFFFFFFFFFFFF AND PUSH20 0xFFFFFFFFFFFFFFFFFFFFFFFFFFFFFFFFFFFFFFFF AND DUP2 MSTORE PUSH1 0x20 ADD SWAP1 DUP2 MSTORE PUSH1 0x20 ADD PUSH1 0x0 KECCAK256 SLOAD SWAP1 POP PUSH3 0x15180 PUSH1 0xB PUSH1 0x0 DUP8 PUSH20 0xFFFFFFFFFFFFFFFFFFFFFFFFFFFFFFFFFFFFFFFF AND PUSH20 0xFFFFFFFFFFFFFFFFFFFFFFFFFFFFFFFFFFFFFFFF AND DUP2 MSTORE PUSH1 0x20 ADD SWAP1 DUP2 MSTORE PUSH1 0x20 ADD PUSH1 0x0 KECCAK256 SLOAD TIMESTAMP PUSH2 0x1422 SWAP2 SWAP1 PUSH2 0x22B1 JUMP JUMPDEST LT PUSH2 0x142C JUMPI PUSH1 0x0 SWAP1 POP JUMPDEST PUSH1 0x0 DUP2 DUP4 GT PUSH2 0x143C JUMPI PUSH1 0x0 PUSH2 0x1449 JUMP JUMPDEST DUP2 DUP4 PUSH2 0x1448 SWAP2 SWAP1 PUSH2 0x22B1 JUMP JUMPDEST JUMPDEST SWAP1 POP PUSH8 0xDE0B6B3A7640000 DUP5 DUP3 PUSH2 0x1460 SWAP2 SWAP1 PUSH2 0x216F JUMP JUMPDEST PUSH2 0x146A SWAP2 SWAP1 PUSH2 0x21E0 JUMP JUMPDEST SWAP5 POP POP POP POP POP SWAP2 SWAP1 POP JUMP JUMPDEST PUSH2 0x147D PUSH2 0x174C JUMP JUMPDEST PUSH1 0x0 PUSH20 0xFFFFFFFFFFFFFFFFFFFFFFFFFFFFFFFFFFFFFFFF AND DUP2 PUSH20 0xFFFFFFFFFFFFFFFFFFFFFFFFFFFFFFFFFFFFFFFF AND SUB PUSH2 0x14EC JUMPI PUSH1 0x40 MLOAD PUSH32 0x8C379A000000000000000000000000000000000000000000000000000000000 DUP2 MSTORE PUSH1 0x4 ADD PUSH2 0x14E3 SWAP1 PUSH2 0x269F JUMP JUMPDEST PUSH1 0x40 MLOAD DUP1 SWAP2 SUB SWAP1 REVERT JUMPDEST PUSH2 0x14F5 DUP2 PUSH2 0x17CA JUMP JUMPDEST POP JUMP JUMPDEST PUSH1 0x0 PUSH2 0x156E DUP4 DUP4 DUP1 DUP1 PUSH1 0x20 MUL PUSH1 0x20 ADD PUSH1 0x40 MLOAD SWAP1 DUP2 ADD PUSH1 0x40 MSTORE DUP1 SWAP4 SWAP3 SWAP2 SWAP1 DUP2 DUP2 MSTORE PUSH1 0x20 ADD DUP4 DUP4 PUSH1 0x20 MUL DUP1 DUP3 DUP5 CALLDATACOPY PUSH1 0x0 DUP2 DUP5 ADD MSTORE PUSH1 0x1F NOT PUSH1 0x1F DUP3 ADD AND SWAP1 POP DUP1 DUP4 ADD SWAP3 POP POP POP POP POP POP POP PUSH1 0x3 SLOAD DUP7 PUSH1 0x40 MLOAD PUSH1 0x20 ADD PUSH2 0x1553 SWAP2 SWAP1 PUSH2 0x2707 JUMP JUMPDEST PUSH1 0x40 MLOAD PUSH1 0x20 DUP2 DUP4 SUB SUB DUP2 MSTORE SWAP1 PUSH1 0x40 MSTORE DUP1 MLOAD SWAP1 PUSH1 0x20 ADD KECCAK256 PUSH2 0x188E JUMP JUMPDEST SWAP1 POP SWAP4 SWAP3 POP POP POP JUMP JUMPDEST PUSH3 0x15180 PUSH1 0xB PUSH1 0x0 DUP4 PUSH20 0xFFFFFFFFFFFFFFFFFFFFFFFFFFFFFFFFFFFFFFFF AND PUSH20 0xFFFFFFFFFFFFFFFFFFFFFFFFFFFFFFFFFFFFFFFF AND DUP2 MSTORE PUSH1 0x20 ADD SWAP1 DUP2 MSTORE PUSH1 0x20 ADD PUSH1 0x0 KECCAK256 SLOAD TIMESTAMP PUSH2 0x15C6 SWAP2 SWAP1 PUSH2 0x22B1 JUMP JUMPDEST LT PUSH2 0x1624 JUMPI PUSH1 0x0 PUSH1 0xA PUSH1 0x0 PUSH1 0x4 SLOAD DUP2 MSTORE PUSH1 0x20 ADD SWAP1 DUP2 MSTORE PUSH1 0x20 ADD PUSH1 0x0 KECCAK256 PUSH1 0x0 DUP4 PUSH20 0xFFFFFFFFFFFFFFFFFFFFFFFFFFFFFFFFFFFFFFFF AND PUSH20 0xFFFFFFFFFFFFFFFFFFFFFFFFFFFFFFFFFFFFFFFF AND DUP2 MSTORE PUSH1 0x20 ADD SWAP1 DUP2 MSTORE PUSH1 0x20 ADD PUSH1 0x0 KECCAK256 DUP2 SWAP1 SSTORE POP JUMPDEST TIMESTAMP PUSH1 0xB PUSH1 0x0 DUP4 PUSH20 0xFFFFFFFFFFFFFFFFFFFFFFFFFFFFFFFFFFFFFFFF AND PUSH20 0xFFFFFFFFFFFFFFFFFFFFFFFFFFFFFFFFFFFFFFFF AND DUP2 MSTORE PUSH1 0x20 ADD SWAP1 DUP2 MSTORE PUSH1 0x20 ADD PUSH1 0x0 KECCAK256 DUP2 SWAP1 SSTORE POP POP JUMP JUMPDEST PUSH1 0x0 DUP1 PUSH8 0xDE0B6B3A7640000 DUP4 DUP6 PUSH2 0x1683 SWAP2 SWAP1 PUSH2 0x216F JUMP JUMPDEST PUSH2 0x168D SWAP2 SWAP1 PUSH2 0x21E0 JUMP JUMPDEST SWAP1 POP PUSH10 0x152D02C7E14AF6800000 DUP2 GT PUSH2 0x16C2 JUMPI PUSH2 0x2710 PUSH1 0x64 DUP6 PUSH2 0x16B0 SWAP2 SWAP1 PUSH2 0x216F JUMP JUMPDEST PUSH2 0x16BA SWAP2 SWAP1 PUSH2 0x21E0 JUMP JUMPDEST SWAP2 POP POP PUSH2 0x1746 JUMP JUMPDEST PUSH10 0x34F086F3B33B68400000 DUP2 GT PUSH2 0x16F5 JUMPI PUSH2 0x2710 PUSH1 0x32 DUP6 PUSH2 0x16E3 SWAP2 SWAP1 PUSH2 0x216F JUMP JUMPDEST PUSH2 0x16ED SWAP2 SWAP1 PUSH2 0x21E0 JUMP JUMPDEST SWAP2 POP POP PUSH2 0x1746 JUMP JUMPDEST PUSH10 0xD3C21BCECCEDA1000000 DUP2 GT PUSH2 0x1728 JUMPI PUSH2 0x2710 PUSH1 0x19 DUP6 PUSH2 0x1716 SWAP2 SWAP1 PUSH2 0x216F JUMP JUMPDEST PUSH2 0x1720 SWAP2 SWAP1 PUSH2 0x21E0 JUMP JUMPDEST SWAP2 POP POP PUSH2 0x1746 JUMP JUMPDEST PUSH2 0x2710 PUSH1 0xA DUP6 PUSH2 0x1738 SWAP2 SWAP1 PUSH2 0x216F JUMP JUMPDEST PUSH2 0x1742 SWAP2 SWAP1 PUSH2 0x21E0 JUMP JUMPDEST SWAP2 POP POP JUMPDEST SWAP3 SWAP2 POP POP JUMP JUMPDEST PUSH2 0x1754 PUSH2 0x18A5 JUMP JUMPDEST PUSH20 0xFFFFFFFFFFFFFFFFFFFFFFFFFFFFFFFFFFFFFFFF AND PUSH2 0x1772 PUSH2 0x1197 JUMP JUMPDEST PUSH20 0xFFFFFFFFFFFFFFFFFFFFFFFFFFFFFFFFFFFFFFFF AND EQ PUSH2 0x17C8 JUMPI PUSH1 0x40 MLOAD PUSH32 0x8C379A000000000000000000000000000000000000000000000000000000000 DUP2 MSTORE PUSH1 0x4 ADD PUSH2 0x17BF SWAP1 PUSH2 0x276E JUMP JUMPDEST PUSH1 0x40 MLOAD DUP1 SWAP2 SUB SWAP1 REVERT JUMPDEST JUMP JUMPDEST PUSH1 0x0 DUP1 PUSH1 0x0 SWAP1 SLOAD SWAP1 PUSH2 0x100 EXP SWAP1 DIV PUSH20 0xFFFFFFFFFFFFFFFFFFFFFFFFFFFFFFFFFFFFFFFF AND SWAP1 POP DUP2 PUSH1 0x0 DUP1 PUSH2 0x100 EXP DUP2 SLOAD DUP2 PUSH20 0xFFFFFFFFFFFFFFFFFFFFFFFFFFFFFFFFFFFFFFFF MUL NOT AND SWAP1 DUP4 PUSH20 0xFFFFFFFFFFFFFFFFFFFFFFFFFFFFFFFFFFFFFFFF AND MUL OR SWAP1 SSTORE POP DUP2 PUSH20 0xFFFFFFFFFFFFFFFFFFFFFFFFFFFFFFFFFFFFFFFF AND DUP2 PUSH20 0xFFFFFFFFFFFFFFFFFFFFFFFFFFFFFFFFFFFFFFFF AND PUSH32 0x8BE0079C531659141344CD1FD0A4F28419497F9722A3DAAFE3B4186F6B6457E0 PUSH1 0x40 MLOAD PUSH1 0x40 MLOAD DUP1 SWAP2 SUB SWAP1 LOG3 POP POP JUMP JUMPDEST PUSH1 0x0 DUP3 PUSH2 0x189B DUP6 DUP5 PUSH2 0x18AD JUMP JUMPDEST EQ SWAP1 POP SWAP4 SWAP3 POP POP POP JUMP JUMPDEST PUSH1 0x0 CALLER SWAP1 POP SWAP1 JUMP JUMPDEST PUSH1 0x0 DUP1 DUP3 SWAP1 POP PUSH1 0x0 JUMPDEST DUP5 MLOAD DUP2 LT ISZERO PUSH2 0x18F8 JUMPI PUSH2 0x18E3 DUP3 DUP7 DUP4 DUP2 MLOAD DUP2 LT PUSH2 0x18D6 JUMPI PUSH2 0x18D5 PUSH2 0x278E JUMP JUMPDEST JUMPDEST PUSH1 0x20 MUL PUSH1 0x20 ADD ADD MLOAD PUSH2 0x1903 JUMP JUMPDEST SWAP2 POP DUP1 DUP1 PUSH2 0x18F0 SWAP1 PUSH2 0x27BD JUMP JUMPDEST SWAP2 POP POP PUSH2 0x18B6 JUMP JUMPDEST POP DUP1 SWAP2 POP POP SWAP3 SWAP2 POP POP JUMP JUMPDEST PUSH1 0x0 DUP2 DUP4 LT PUSH2 0x191B JUMPI PUSH2 0x1916 DUP3 DUP5 PUSH2 0x192E JUMP JUMPDEST PUSH2 0x1926 JUMP JUMPDEST PUSH2 0x1925 DUP4 DUP4 PUSH2 0x192E JUMP JUMPDEST JUMPDEST SWAP1 POP SWAP3 SWAP2 POP POP JUMP JUMPDEST PUSH1 0x0 DUP3 PUSH1 0x0 MSTORE DUP2 PUSH1 0x20 MSTORE PUSH1 0x40 PUSH1 0x0 KECCAK256 SWAP1 POP SWAP3 SWAP2 POP POP JUMP JUMPDEST PUSH1 0x0 DUP2 SWAP1 POP SWAP2 SWAP1 POP JUMP JUMPDEST PUSH2 0x1958 DUP2 PUSH2 0x1945 JUMP JUMPDEST DUP3 MSTORE POP POP JUMP JUMPDEST PUSH1 0x0 PUSH1 0x20 DUP3 ADD SWAP1 POP PUSH2 0x1973 PUSH1 0x0 DUP4 ADD DUP5 PUSH2 0x194F JUMP JUMPDEST SWAP3 SWAP2 POP POP JUMP JUMPDEST PUSH1 0x0 DUP1 REVERT JUMPDEST PUSH1 0x0 DUP1 REVERT JUMPDEST PUSH1 0x0 PUSH20 0xFFFFFFFFFFFFFFFFFFFFFFFFFFFFFFFFFFFFFFFF DUP3 AND SWAP1 POP SWAP2 SWAP1 POP JUMP JUMPDEST PUSH1 0x0 PUSH2 0x19AE DUP3 PUSH2 0x1983 JUMP JUMPDEST SWAP1 POP SWAP2 SWAP1 POP JUMP JUMPDEST PUSH2 0x19BE DUP2 PUSH2 0x19A3 JUMP JUMPDEST DUP2 EQ PUSH2 0x19C9 JUMPI PUSH1 0x0 DUP1 REVERT JUMPDEST POP JUMP JUMPDEST PUSH1 0x0 DUP2 CALLDATALOAD SWAP1 POP PUSH2 0x19DB DUP2 PUSH2 0x19B5 JUMP JUMPDEST SWAP3 SWAP2 POP POP JUMP JUMPDEST PUSH2 0x19EA DUP2 PUSH2 0x1945 JUMP JUMPDEST DUP2 EQ PUSH2 0x19F5 JUMPI PUSH1 0x0 DUP1 REVERT JUMPDEST POP JUMP JUMPDEST PUSH1 0x0 DUP2 CALLDATALOAD SWAP1 POP PUSH2 0x1A07 DUP2 PUSH2 0x19E1 JUMP JUMPDEST SWAP3 SWAP2 POP POP JUMP JUMPDEST PUSH1 0x0 DUP1 REVERT JUMPDEST PUSH1 0x0 DUP1 REVERT JUMPDEST PUSH1 0x0 DUP1 REVERT JUMPDEST PUSH1 0x0 DUP1 DUP4 PUSH1 0x1F DUP5 ADD SLT PUSH2 0x1A32 JUMPI PUSH2 0x1A31 PUSH2 0x1A0D JUMP JUMPDEST JUMPDEST DUP3 CALLDATALOAD SWAP1 POP PUSH8 0xFFFFFFFFFFFFFFFF DUP2 GT ISZERO PUSH2 0x1A4F JUMPI PUSH2 0x1A4E PUSH2 0x1A12 JUMP JUMPDEST JUMPDEST PUSH1 0x20 DUP4 ADD SWAP2 POP DUP4 PUSH1 0x20 DUP3 MUL DUP4 ADD GT ISZERO PUSH2 0x1A6B JUMPI PUSH2 0x1A6A PUSH2 0x1A17 JUMP JUMPDEST JUMPDEST SWAP3 POP SWAP3 SWAP1 POP JUMP JUMPDEST PUSH1 0x0 DUP1 PUSH1 0x0 DUP1 PUSH1 0x60 DUP6 DUP8 SUB SLT ISZERO PUSH2 0x1A8C JUMPI PUSH2 0x1A8B PUSH2 0x1979 JUMP JUMPDEST JUMPDEST PUSH1 0x0 PUSH2 0x1A9A DUP8 DUP3 DUP9 ADD PUSH2 0x19CC JUMP JUMPDEST SWAP5 POP POP PUSH1 0x20 PUSH2 0x1AAB DUP8 DUP3 DUP9 ADD PUSH2 0x19F8 JUMP JUMPDEST SWAP4 POP POP PUSH1 0x40 DUP6 ADD CALLDATALOAD PUSH8 0xFFFFFFFFFFFFFFFF DUP2 GT ISZERO PUSH2 0x1ACC JUMPI PUSH2 0x1ACB PUSH2 0x197E JUMP JUMPDEST JUMPDEST PUSH2 0x1AD8 DUP8 DUP3 DUP9 ADD PUSH2 0x1A1C JUMP JUMPDEST SWAP3 POP SWAP3 POP POP SWAP3 SWAP6 SWAP2 SWAP5 POP SWAP3 POP JUMP JUMPDEST PUSH2 0x1AEF DUP2 PUSH2 0x19A3 JUMP JUMPDEST DUP3 MSTORE POP POP JUMP JUMPDEST PUSH1 0x0 PUSH1 0x20 DUP3 ADD SWAP1 POP PUSH2 0x1B0A PUSH1 0x0 DUP4 ADD DUP5 PUSH2 0x1AE6 JUMP JUMPDEST SWAP3 SWAP2 POP POP JUMP JUMPDEST PUSH1 0x0 DUP2 ISZERO ISZERO SWAP1 POP SWAP2 SWAP1 POP JUMP JUMPDEST PUSH2 0x1B25 DUP2 PUSH2 0x1B10 JUMP JUMPDEST DUP2 EQ PUSH2 0x1B30 JUMPI PUSH1 0x0 DUP1 REVERT JUMPDEST POP JUMP JUMPDEST PUSH1 0x0 DUP2 CALLDATALOAD SWAP1 POP PUSH2 0x1B42 DUP2 PUSH2 0x1B1C JUMP JUMPDEST SWAP3 SWAP2 POP POP JUMP JUMPDEST PUSH1 0x0 PUSH1 0x20 DUP3 DUP5 SUB SLT ISZERO PUSH2 0x1B5E JUMPI PUSH2 0x1B5D PUSH2 0x1979 JUMP JUMPDEST JUMPDEST PUSH1 0x0 PUSH2 0x1B6C DUP5 DUP3 DUP6 ADD PUSH2 0x1B33 JUMP JUMPDEST SWAP2 POP POP SWAP3 SWAP2 POP POP JUMP JUMPDEST PUSH1 0x0 DUP2 SWAP1 POP SWAP2 SWAP1 POP JUMP JUMPDEST PUSH2 0x1B88 DUP2 PUSH2 0x1B75 JUMP JUMPDEST DUP3 MSTORE POP POP JUMP JUMPDEST PUSH1 0x0 PUSH1 0x20 DUP3 ADD SWAP1 POP PUSH2 0x1BA3 PUSH1 0x0 DUP4 ADD DUP5 PUSH2 0x1B7F JUMP JUMPDEST SWAP3 SWAP2 POP POP JUMP JUMPDEST PUSH1 0x0 PUSH1 0x20 DUP3 DUP5 SUB SLT ISZERO PUSH2 0x1BBF JUMPI PUSH2 0x1BBE PUSH2 0x1979 JUMP JUMPDEST JUMPDEST PUSH1 0x0 PUSH2 0x1BCD DUP5 DUP3 DUP6 ADD PUSH2 0x19F8 JUMP JUMPDEST SWAP2 POP POP SWAP3 SWAP2 POP POP JUMP JUMPDEST PUSH1 0x0 PUSH1 0x20 DUP3 DUP5 SUB SLT ISZERO PUSH2 0x1BEC JUMPI PUSH2 0x1BEB PUSH2 0x1979 JUMP JUMPDEST JUMPDEST PUSH1 0x0 PUSH2 0x1BFA DUP5 DUP3 DUP6 ADD PUSH2 0x19CC JUMP JUMPDEST SWAP2 POP POP SWAP3 SWAP2 POP POP JUMP JUMPDEST PUSH1 0x0 DUP1 PUSH1 0x40 DUP4 DUP6 SUB SLT ISZERO PUSH2 0x1C1A JUMPI PUSH2 0x1C19 PUSH2 0x1979 JUMP JUMPDEST JUMPDEST PUSH1 0x0 PUSH2 0x1C28 DUP6 DUP3 DUP7 ADD PUSH2 0x19F8 JUMP JUMPDEST SWAP3 POP POP PUSH1 0x20 PUSH2 0x1C39 DUP6 DUP3 DUP7 ADD PUSH2 0x19CC JUMP JUMPDEST SWAP2 POP POP SWAP3 POP SWAP3 SWAP1 POP JUMP JUMPDEST PUSH2 0x1C4C DUP2 PUSH2 0x1B75 JUMP JUMPDEST DUP2 EQ PUSH2 0x1C57 JUMPI PUSH1 0x0 DUP1 REVERT JUMPDEST POP JUMP JUMPDEST PUSH1 0x0 DUP2 CALLDATALOAD SWAP1 POP PUSH2 0x1C69 DUP2 PUSH2 0x1C43 JUMP JUMPDEST SWAP3 SWAP2 POP POP JUMP JUMPDEST PUSH1 0x0 PUSH1 0x20 DUP3 DUP5 SUB SLT ISZERO PUSH2 0x1C85 JUMPI PUSH2 0x1C84 PUSH2 0x1979 JUMP JUMPDEST JUMPDEST PUSH1 0x0 PUSH2 0x1C93 DUP5 DUP3 DUP6 ADD PUSH2 0x1C5A JUMP JUMPDEST SWAP2 POP POP SWAP3 SWAP2 POP POP JUMP JUMPDEST PUSH1 0x0 DUP2 SWAP1 POP SWAP2 SWAP1 POP JUMP JUMPDEST PUSH1 0x0 PUSH2 0x1CC1 PUSH2 0x1CBC PUSH2 0x1CB7 DUP5 PUSH2 0x1983 JUMP JUMPDEST PUSH2 0x1C9C JUMP JUMPDEST PUSH2 0x1983 JUMP JUMPDEST SWAP1 POP SWAP2 SWAP1 POP JUMP JUMPDEST PUSH1 0x0 PUSH2 0x1CD3 DUP3 PUSH2 0x1CA6 JUMP JUMPDEST SWAP1 POP SWAP2 SWAP1 POP JUMP JUMPDEST PUSH1 0x0 PUSH2 0x1CE5 DUP3 PUSH2 0x1CC8 JUMP JUMPDEST SWAP1 POP SWAP2 SWAP1 POP JUMP JUMPDEST PUSH2 0x1CF5 DUP2 PUSH2 0x1CDA JUMP JUMPDEST DUP3 MSTORE POP POP JUMP JUMPDEST PUSH1 0x0 PUSH1 0x20 DUP3 ADD SWAP1 POP PUSH2 0x1D10 PUSH1 0x0 DUP4 ADD DUP5 PUSH2 0x1CEC JUMP JUMPDEST SWAP3 SWAP2 POP POP JUMP JUMPDEST PUSH2 0x1D1F DUP2 PUSH2 0x1B10 JUMP JUMPDEST DUP3 MSTORE POP POP JUMP JUMPDEST PUSH1 0x0 PUSH1 0x20 DUP3 ADD SWAP1 POP PUSH2 0x1D3A PUSH1 0x0 DUP4 ADD DUP5 PUSH2 0x1D16 JUMP JUMPDEST SWAP3 SWAP2 POP POP JUMP JUMPDEST PUSH1 0x0 DUP1 PUSH1 0x40 DUP4 DUP6 SUB SLT ISZERO PUSH2 0x1D57 JUMPI PUSH2 0x1D56 PUSH2 0x1979 JUMP JUMPDEST JUMPDEST PUSH1 0x0 PUSH2 0x1D65 DUP6 DUP3 DUP7 ADD PUSH2 0x19CC JUMP JUMPDEST SWAP3 POP POP PUSH1 0x20 PUSH2 0x1D76 DUP6 DUP3 DUP7 ADD PUSH2 0x1B33 JUMP JUMPDEST SWAP2 POP POP SWAP3 POP SWAP3 SWAP1 POP JUMP JUMPDEST PUSH1 0x0 DUP3 DUP3 MSTORE PUSH1 0x20 DUP3 ADD SWAP1 POP SWAP3 SWAP2 POP POP JUMP JUMPDEST PUSH32 0x436F6E7472616374206973206C6F636B65640000000000000000000000000000 PUSH1 0x0 DUP3 ADD MSTORE POP JUMP JUMPDEST PUSH1 0x0 PUSH2 0x1DC7 PUSH1 0x12 DUP4 PUSH2 0x1D80 JUMP JUMPDEST SWAP2 POP PUSH2 0x1DD2 DUP3 PUSH2 0x1D91 JUMP JUMPDEST PUSH1 0x20 DUP3 ADD SWAP1 POP SWAP2 SWAP1 POP JUMP JUMPDEST PUSH1 0x0 PUSH1 0x20 DUP3 ADD SWAP1 POP DUP2 DUP2 SUB PUSH1 0x0 DUP4 ADD MSTORE PUSH2 0x1DF6 DUP2 PUSH2 0x1DBA JUMP JUMPDEST SWAP1 POP SWAP2 SWAP1 POP JUMP JUMPDEST PUSH32 0x526F756E64206E6F742073746172746564000000000000000000000000000000 PUSH1 0x0 DUP3 ADD MSTORE POP JUMP JUMPDEST PUSH1 0x0 PUSH2 0x1E33 PUSH1 0x11 DUP4 PUSH2 0x1D80 JUMP JUMPDEST SWAP2 POP PUSH2 0x1E3E DUP3 PUSH2 0x1DFD JUMP JUMPDEST PUSH1 0x20 DUP3 ADD SWAP1 POP SWAP2 SWAP1 POP JUMP JUMPDEST PUSH1 0x0 PUSH1 0x20 DUP3 ADD SWAP1 POP DUP2 DUP2 SUB PUSH1 0x0 DUP4 ADD MSTORE PUSH2 0x1E62 DUP2 PUSH2 0x1E26 JUMP JUMPDEST SWAP1 POP SWAP2 SWAP1 POP JUMP JUMPDEST PUSH32 0x4E6F2066756E6473000000000000000000000000000000000000000000000000 PUSH1 0x0 DUP3 ADD MSTORE POP JUMP JUMPDEST PUSH1 0x0 PUSH2 0x1E9F PUSH1 0x8 DUP4 PUSH2 0x1D80 JUMP JUMPDEST SWAP2 POP PUSH2 0x1EAA DUP3 PUSH2 0x1E69 JUMP JUMPDEST PUSH1 0x20 DUP3 ADD SWAP1 POP SWAP2 SWAP1 POP JUMP JUMPDEST PUSH1 0x0 PUSH1 0x20 DUP3 ADD SWAP1 POP DUP2 DUP2 SUB PUSH1 0x0 DUP4 ADD MSTORE PUSH2 0x1ECE DUP2 PUSH2 0x1E92 JUMP JUMPDEST SWAP1 POP SWAP2 SWAP1 POP JUMP JUMPDEST PUSH32 0x4E6F742077686974656C69737465640000000000000000000000000000000000 PUSH1 0x0 DUP3 ADD MSTORE POP JUMP JUMPDEST PUSH1 0x0 PUSH2 0x1F0B PUSH1 0xF DUP4 PUSH2 0x1D80 JUMP JUMPDEST SWAP2 POP PUSH2 0x1F16 DUP3 PUSH2 0x1ED5 JUMP JUMPDEST PUSH1 0x20 DUP3 ADD SWAP1 POP SWAP2 SWAP1 POP JUMP JUMPDEST PUSH1 0x0 PUSH1 0x20 DUP3 ADD SWAP1 POP DUP2 DUP2 SUB PUSH1 0x0 DUP4 ADD MSTORE PUSH2 0x1F3A DUP2 PUSH2 0x1EFE JUMP JUMPDEST SWAP1 POP SWAP2 SWAP1 POP JUMP JUMPDEST PUSH32 0x546F6B656E206E6F7420737570706F7274656400000000000000000000000000 PUSH1 0x0 DUP3 ADD MSTORE POP JUMP JUMPDEST PUSH1 0x0 PUSH2 0x1F77 PUSH1 0x13 DUP4 PUSH2 0x1D80 JUMP JUMPDEST SWAP2 POP PUSH2 0x1F82 DUP3 PUSH2 0x1F41 JUMP JUMPDEST PUSH1 0x20 DUP3 ADD SWAP1 POP SWAP2 SWAP1 POP JUMP JUMPDEST PUSH1 0x0 PUSH1 0x20 DUP3 ADD SWAP1 POP DUP2 DUP2 SUB PUSH1 0x0 DUP4 ADD MSTORE PUSH2 0x1FA6 DUP2 PUSH2 0x1F6A JUMP JUMPDEST SWAP1 POP SWAP2 SWAP1 POP JUMP JUMPDEST PUSH32 0x496E76616C696420616D6F756E74000000000000000000000000000000000000 PUSH1 0x0 DUP3 ADD MSTORE POP JUMP JUMPDEST PUSH1 0x0 PUSH2 0x1FE3 PUSH1 0xE DUP4 PUSH2 0x1D80 JUMP JUMPDEST SWAP2 POP PUSH2 0x1FEE DUP3 PUSH2 0x1FAD JUMP JUMPDEST PUSH1 0x20 DUP3 ADD SWAP1 POP SWAP2 SWAP1 POP JUMP JUMPDEST PUSH1 0x0 PUSH1 0x20 DUP3 ADD SWAP1 POP DUP2 DUP2 SUB PUSH1 0x0 DUP4 ADD MSTORE PUSH2 0x2012 DUP2 PUSH2 0x1FD6 JUMP JUMPDEST SWAP1 POP SWAP2 SWAP1 POP JUMP JUMPDEST PUSH1 0x0 PUSH1 0x60 DUP3 ADD SWAP1 POP PUSH2 0x202E PUSH1 0x0 DUP4 ADD DUP7 PUSH2 0x1AE6 JUMP JUMPDEST PUSH2 0x203B PUSH1 0x20 DUP4 ADD DUP6 PUSH2 0x1AE6 JUMP JUMPDEST PUSH2 0x2048 PUSH1 0x40 DUP4 ADD DUP5 PUSH2 0x194F JUMP JUMPDEST SWAP5 SWAP4 POP POP POP POP JUMP JUMPDEST PUSH1 0x0 DUP2 MLOAD SWAP1 POP PUSH2 0x205F DUP2 PUSH2 0x1B1C JUMP JUMPDEST SWAP3 SWAP2 POP POP JUMP JUMPDEST PUSH1 0x0 PUSH1 0x20 DUP3 DUP5 SUB SLT ISZERO PUSH2 0x207B JUMPI PUSH2 0x207A PUSH2 0x1979 JUMP JUMPDEST JUMPDEST PUSH1 0x0 PUSH2 0x2089 DUP5 DUP3 DUP6 ADD PUSH2 0x2050 JUMP JUMPDEST SWAP2 POP POP SWAP3 SWAP2 POP POP JUMP JUMPDEST PUSH32 0x5472616E73666572206661696C65640000000000000000000000000000000000 PUSH1 0x0 DUP3 ADD MSTORE POP JUMP JUMPDEST PUSH1 0x0 PUSH2 0x20C8 PUSH1 0xF DUP4 PUSH2 0x1D80 JUMP JUMPDEST SWAP2 POP PUSH2 0x20D3 DUP3 PUSH2 0x2092 JUMP JUMPDEST PUSH1 0x20 DUP3 ADD SWAP1 POP SWAP2 SWAP1 POP JUMP JUMPDEST PUSH1 0x0 PUSH1 0x20 DUP3 ADD SWAP1 POP DUP2 DUP2 SUB PUSH1 0x0 DUP4 ADD MSTORE PUSH2 0x20F7 DUP2 PUSH2 0x20BB JUMP JUMPDEST SWAP1 POP SWAP2 SWAP1 POP JUMP JUMPDEST PUSH1 0x0 DUP2 MLOAD SWAP1 POP PUSH2 0x210D DUP2 PUSH2 0x19E1 JUMP JUMPDEST SWAP3 SWAP2 POP POP JUMP JUMPDEST PUSH1 0x0 PUSH1 0x20 DUP3 DUP5 SUB SLT ISZERO PUSH2 0x2129 JUMPI PUSH2 0x2128 PUSH2 0x1979 JUMP JUMPDEST JUMPDEST PUSH1 0x0 PUSH2 0x2137 DUP5 DUP3 DUP6 ADD PUSH2 0x20FE JUMP JUMPDEST SWAP2 POP POP SWAP3 SWAP2 POP POP JUMP JUMPDEST PUSH32 0x4E487B7100000000000000000000000000000000000000000000000000000000 PUSH1 0x0 MSTORE PUSH1 0x11 PUSH1 0x4 MSTORE PUSH1 0x24 PUSH1 0x0 REVERT JUMPDEST PUSH1 0x0 PUSH2 0x217A DUP3 PUSH2 0x1945 JUMP JUMPDEST SWAP2 POP PUSH2 0x2185 DUP4 PUSH2 0x1945 JUMP JUMPDEST SWAP3 POP DUP3 DUP3 MUL PUSH2 0x2193 DUP2 PUSH2 0x1945 JUMP JUMPDEST SWAP2 POP DUP3 DUP3 DIV DUP5 EQ DUP4 ISZERO OR PUSH2 0x21AA JUMPI PUSH2 0x21A9 PUSH2 0x2140 JUMP JUMPDEST JUMPDEST POP SWAP3 SWAP2 POP POP JUMP JUMPDEST PUSH32 0x4E487B7100000000000000000000000000000000000000000000000000000000 PUSH1 0x0 MSTORE PUSH1 0x12 PUSH1 0x4 MSTORE PUSH1 0x24 PUSH1 0x0 REVERT JUMPDEST PUSH1 0x0 PUSH2 0x21EB DUP3 PUSH2 0x1945 JUMP JUMPDEST SWAP2 POP PUSH2 0x21F6 DUP4 PUSH2 0x1945 JUMP JUMPDEST SWAP3 POP DUP3 PUSH2 0x2206 JUMPI PUSH2 0x2205 PUSH2 0x21B1 JUMP JUMPDEST JUMPDEST DUP3 DUP3 DIV SWAP1 POP SWAP3 SWAP2 POP POP JUMP JUMPDEST PUSH1 0x0 PUSH2 0x221C DUP3 PUSH2 0x1945 JUMP JUMPDEST SWAP2 POP PUSH2 0x2227 DUP4 PUSH2 0x1945 JUMP JUMPDEST SWAP3 POP DUP3 DUP3 ADD SWAP1 POP DUP1 DUP3 GT ISZERO PUSH2 0x223F JUMPI PUSH2 0x223E PUSH2 0x2140 JUMP JUMPDEST JUMPDEST SWAP3 SWAP2 POP POP JUMP JUMPDEST PUSH32 0x45786365656473206461696C79206C696D697400000000000000000000000000 PUSH1 0x0 DUP3 ADD MSTORE POP JUMP JUMPDEST PUSH1 0x0 PUSH2 0x227B PUSH1 0x13 DUP4 PUSH2 0x1D80 JUMP JUMPDEST SWAP2 POP PUSH2 0x2286 DUP3 PUSH2 0x2245 JUMP JUMPDEST PUSH1 0x20 DUP3 ADD SWAP1 POP SWAP2 SWAP1 POP JUMP JUMPDEST PUSH1 0x0 PUSH1 0x20 DUP3 ADD SWAP1 POP DUP2 DUP2 SUB PUSH1 0x0 DUP4 ADD MSTORE PUSH2 0x22AA DUP2 PUSH2 0x226E JUMP JUMPDEST SWAP1 POP SWAP2 SWAP1 POP JUMP JUMPDEST PUSH1 0x0 PUSH2 0x22BC DUP3 PUSH2 0x1945 JUMP JUMPDEST SWAP2 POP PUSH2 0x22C7 DUP4 PUSH2 0x1945 JUMP JUMPDEST SWAP3 POP DUP3 DUP3 SUB SWAP1 POP DUP2 DUP2 GT ISZERO PUSH2 0x22DF JUMPI PUSH2 0x22DE PUSH2 0x2140 JUMP JUMPDEST JUMPDEST SWAP3 SWAP2 POP POP JUMP JUMPDEST PUSH32 0x496E73756666696369656E74207661756C742066756E64730000000000000000 PUSH1 0x0 DUP3 ADD MSTORE POP JUMP JUMPDEST PUSH1 0x0 PUSH2 0x231B PUSH1 0x18 DUP4 PUSH2 0x1D80 JUMP JUMPDEST SWAP2 POP PUSH2 0x2326 DUP3 PUSH2 0x22E5 JUMP JUMPDEST PUSH1 0x20 DUP3 ADD SWAP1 POP SWAP2 SWAP1 POP JUMP JUMPDEST PUSH1 0x0 PUSH1 0x20 DUP3 ADD SWAP1 POP DUP2 DUP2 SUB PUSH1 0x0 DUP4 ADD MSTORE PUSH2 0x234A DUP2 PUSH2 0x230E JUMP JUMPDEST SWAP1 POP SWAP2 SWAP1 POP JUMP JUMPDEST PUSH1 0x0 PUSH1 0x40 DUP3 ADD SWAP1 POP PUSH2 0x2366 PUSH1 0x0 DUP4 ADD DUP6 PUSH2 0x1AE6 JUMP JUMPDEST PUSH2 0x2373 PUSH1 0x20 DUP4 ADD DUP5 PUSH2 0x194F JUMP JUMPDEST SWAP4 SWAP3 POP POP POP JUMP JUMPDEST PUSH32 0x526566756E64206661696C656400000000000000000000000000000000000000 PUSH1 0x0 DUP3 ADD MSTORE POP JUMP JUMPDEST PUSH1 0x0 PUSH2 0x23B0 PUSH1 0xD DUP4 PUSH2 0x1D80 JUMP JUMPDEST SWAP2 POP PUSH2 0x23BB DUP3 PUSH2 0x237A JUMP JUMPDEST PUSH1 0x20 DUP3 ADD SWAP1 POP SWAP2 SWAP1 POP JUMP JUMPDEST PUSH1 0x0 PUSH1 0x20 DUP3 ADD SWAP1 POP DUP2 DUP2 SUB PUSH1 0x0 DUP4 ADD MSTORE PUSH2 0x23DF DUP2 PUSH2 0x23A3 JUMP JUMPDEST SWAP1 POP SWAP2 SWAP1 POP JUMP JUMPDEST PUSH32 0x466565207472616E73666572206661696C656400000000000000000000000000 PUSH1 0x0 DUP3 ADD MSTORE POP JUMP JUMPDEST PUSH1 0x0 PUSH2 0x241C PUSH1 0x13 DUP4 PUSH2 0x1D80 JUMP JUMPDEST SWAP2 POP PUSH2 0x2427 DUP3 PUSH2 0x23E6 JUMP JUMPDEST PUSH1 0x20 DUP3 ADD SWAP1 POP SWAP2 SWAP1 POP JUMP JUMPDEST PUSH1 0x0 PUSH1 0x20 DUP3 ADD SWAP1 POP DUP2 DUP2 SUB PUSH1 0x0 DUP4 ADD MSTORE PUSH2 0x244B DUP2 PUSH2 0x240F JUMP JUMPDEST SWAP1 POP SWAP2 SWAP1 POP JUMP JUMPDEST PUSH1 0x0 PUSH1 0x60 DUP3 ADD SWAP1 POP PUSH2 0x2467 PUSH1 0x0 DUP4 ADD DUP7 PUSH2 0x194F JUMP JUMPDEST PUSH2 0x2474 PUSH1 0x20 DUP4 ADD DUP6 PUSH2 0x1AE6 JUMP JUMPDEST PUSH2 0x2481 PUSH1 0x40 DUP4 ADD DUP5 PUSH2 0x194F JUMP JUMPDEST SWAP5 SWAP4 POP POP POP POP JUMP JUMPDEST PUSH1 0x0 PUSH1 0x40 DUP3 ADD SWAP1 POP PUSH2 0x249E PUSH1 0x0 DUP4 ADD DUP6 PUSH2 0x194F JUMP JUMPDEST PUSH2 0x24AB PUSH1 0x20 DUP4 ADD DUP5 PUSH2 0x194F JUMP JUMPDEST SWAP4 SWAP3 POP POP POP JUMP JUMPDEST PUSH32 0x4E6F7468696E6720746F20776974686472617700000000000000000000000000 PUSH1 0x0 DUP3 ADD MSTORE POP JUMP JUMPDEST PUSH1 0x0 PUSH2 0x24E8 PUSH1 0x13 DUP4 PUSH2 0x1D80 JUMP JUMPDEST SWAP2 POP PUSH2 0x24F3 DUP3 PUSH2 0x24B2 JUMP JUMPDEST PUSH1 0x20 DUP3 ADD SWAP1 POP SWAP2 SWAP1 POP JUMP JUMPDEST PUSH1 0x0 PUSH1 0x20 DUP3 ADD SWAP1 POP DUP2 DUP2 SUB PUSH1 0x0 DUP4 ADD MSTORE PUSH2 0x2517 DUP2 PUSH2 0x24DB JUMP JUMPDEST SWAP1 POP SWAP2 SWAP1 POP JUMP JUMPDEST PUSH32 0x5769746864726177206661696C65640000000000000000000000000000000000 PUSH1 0x0 DUP3 ADD MSTORE POP JUMP JUMPDEST PUSH1 0x0 PUSH2 0x2554 PUSH1 0xF DUP4 PUSH2 0x1D80 JUMP JUMPDEST SWAP2 POP PUSH2 0x255F DUP3 PUSH2 0x251E JUMP JUMPDEST PUSH1 0x20 DUP3 ADD SWAP1 POP SWAP2 SWAP1 POP JUMP JUMPDEST PUSH1 0x0 PUSH1 0x20 DUP3 ADD SWAP1 POP DUP2 DUP2 SUB PUSH1 0x0 DUP4 ADD MSTORE PUSH2 0x2583 DUP2 PUSH2 0x2547 JUMP JUMPDEST SWAP1 POP SWAP2 SWAP1 POP JUMP JUMPDEST PUSH32 0x526F756E64204944206D75737420696E63726561736500000000000000000000 PUSH1 0x0 DUP3 ADD MSTORE POP JUMP JUMPDEST PUSH1 0x0 PUSH2 0x25C0 PUSH1 0x16 DUP4 PUSH2 0x1D80 JUMP JUMPDEST SWAP2 POP PUSH2 0x25CB DUP3 PUSH2 0x258A JUMP JUMPDEST PUSH1 0x20 DUP3 ADD SWAP1 POP SWAP2 SWAP1 POP JUMP JUMPDEST PUSH1 0x0 PUSH1 0x20 DUP3 ADD SWAP1 POP DUP2 DUP2 SUB PUSH1 0x0 DUP4 ADD MSTORE PUSH2 0x25EF DUP2 PUSH2 0x25B3 JUMP JUMPDEST SWAP1 POP SWAP2 SWAP1 POP JUMP JUMPDEST PUSH1 0x0 PUSH1 0x60 DUP3 ADD SWAP1 POP PUSH2 0x260B PUSH1 0x0 DUP4 ADD DUP7 PUSH2 0x194F JUMP JUMPDEST PUSH2 0x2618 PUSH1 0x20 DUP4 ADD DUP6 PUSH2 0x194F JUMP JUMPDEST PUSH2 0x2625 PUSH1 0x40 DUP4 ADD DUP5 PUSH2 0x194F JUMP JUMPDEST SWAP5 SWAP4 POP POP POP POP JUMP JUMPDEST PUSH32 0x4F776E61626C653A206E6577206F776E657220697320746865207A65726F2061 PUSH1 0x0 DUP3 ADD MSTORE PUSH32 0x6464726573730000000000000000000000000000000000000000000000000000 PUSH1 0x20 DUP3 ADD MSTORE POP JUMP JUMPDEST PUSH1 0x0 PUSH2 0x2689 PUSH1 0x26 DUP4 PUSH2 0x1D80 JUMP JUMPDEST SWAP2 POP PUSH2 0x2694 DUP3 PUSH2 0x262D JUMP JUMPDEST PUSH1 0x40 DUP3 ADD SWAP1 POP SWAP2 SWAP1 POP JUMP JUMPDEST PUSH1 0x0 PUSH1 0x20 DUP3 ADD SWAP1 POP DUP2 DUP2 SUB PUSH1 0x0 DUP4 ADD MSTORE PUSH2 0x26B8 DUP2 PUSH2 0x267C JUMP JUMPDEST SWAP1 POP SWAP2 SWAP1 POP JUMP JUMPDEST PUSH1 0x0 DUP2 PUSH1 0x60 SHL SWAP1 POP SWAP2 SWAP1 POP JUMP JUMPDEST PUSH1 0x0 PUSH2 0x26D7 DUP3 PUSH2 0x26BF JUMP JUMPDEST SWAP1 POP SWAP2 SWAP1 POP JUMP JUMPDEST PUSH1 0x0 PUSH2 0x26E9 DUP3 PUSH2 0x26CC JUMP JUMPDEST SWAP1 POP SWAP2 SWAP1 POP JUMP JUMPDEST PUSH2 0x2701 PUSH2 0x26FC DUP3 PUSH2 0x19A3 JUMP JUMPDEST PUSH2 0x26DE JUMP JUMPDEST DUP3 MSTORE POP POP JUMP JUMPDEST PUSH1 0x0 PUSH2 0x2713 DUP3 DUP5 PUSH2 0x26F0 JUMP JUMPDEST PUSH1 0x14 DUP3 ADD SWAP2 POP DUP2 SWAP1 POP SWAP3 SWAP2 POP POP JUMP JUMPDEST PUSH32 0x4F776E61626C653A2063616C6C6572206973206E6F7420746865206F776E6572 PUSH1 0x0 DUP3 ADD MSTORE POP JUMP JUMPDEST PUSH1 0x0 PUSH2 0x2758 PUSH1 0x20 DUP4 PUSH2 0x1D80 JUMP JUMPDEST SWAP2 POP PUSH2 0x2763 DUP3 PUSH2 0x2722 JUMP JUMPDEST PUSH1 0x20 DUP3 ADD SWAP1 POP SWAP2 SWAP1 POP JUMP JUMPDEST PUSH1 0x0 PUSH1 0x20 DUP3 ADD SWAP1 POP DUP2 DUP2 SUB PUSH1 0x0 DUP4 ADD MSTORE PUSH2 0x2787 DUP2 PUSH2 0x274B JUMP JUMPDEST SWAP1 POP SWAP2 SWAP1 POP JUMP JUMPDEST PUSH32 0x4E487B7100000000000000000000000000000000000000000000000000000000 PUSH1 0x0 MSTORE PUSH1 0x32 PUSH1 0x4 MSTORE PUSH1 0x24 PUSH1 0x0 REVERT JUMPDEST PUSH1 0x0 PUSH2 0x27C8 DUP3 PUSH2 0x1945 JUMP JUMPDEST SWAP2 POP PUSH32 0xFFFFFFFFFFFFFFFFFFFFFFFFFFFFFFFFFFFFFFFFFFFFFFFFFFFFFFFFFFFFFFFF DUP3 SUB PUSH2 0x27FA JUMPI PUSH2 0x27F9 PUSH2 0x2140 JUMP JUMPDEST JUMPDEST PUSH1 0x1 DUP3 ADD SWAP1 POP SWAP2 SWAP1 POP JUMP INVALID LOG2 PUSH5 0x6970667358 0x22 SLT KECCAK256 0xE3 0x26 CALLDATACOPY CALLDATASIZE JUMP CREATE MLOAD DUP14 0xE3 EXTCODECOPY REVERT NUMBER 0xB1 SWAP3 PUSH15 0x566E1915F7EC04818174C5F1901B52 PUSH4 0x264736F PUSH13 0x63430008120033000000000000 "
				},
				"gasEstimates": {
					"creation": {
						"codeDepositCost": "2059800",
						"executionCost": "infinite",
						"totalCost": "infinite"
					},
					"external": {
						"ROUND_DELAY()": "440",
						"WALLET_RESET_INTERVAL()": "353",
						"currentRound()": "2519",
						"dailyLimitUsd()": "2496",
						"devWallet()": "2581",
						"getUserLimit(address)": "infinite",
						"isLocked()": "2560",
						"lastRedeemTimestamp(address)": "2904",
						"merkleRoot()": "2563",
						"oracle()": "infinite",
						"owner()": "2567",
						"redeem(address,uint256,bytes32[])": "infinite",
						"redeemedInRound(uint256,address)": "infinite",
						"renounceOwnership()": "30465",
						"rmcWallet()": "2603",
						"roundFunds()": "2474",
						"roundStart()": "2475",
						"setDailyLimit(uint256)": "24829",
						"setLocked(bool)": "infinite",
						"setMerkleRoot(bytes32)": "24830",
						"setOracle(address)": "27147",
						"setSupportedToken(address,bool)": "27321",
						"startNewRound(uint256)": "infinite",
						"supportedToken(address)": "2889",
						"transferOwnership(address)": "30854",
						"wONE()": "infinite",
						"withdrawFunds()": "infinite"
					},
					"internal": {
						"_calculateFee(uint256,uint256)": "infinite",
						"_resetIfNeeded(address)": "infinite",
						"_verifyWhitelist(address,bytes32[] calldata)": "infinite"
					}
				},
				"methodIdentifiers": {
					"ROUND_DELAY()": "ad655ef6",
					"WALLET_RESET_INTERVAL()": "1073e2a7",
					"currentRound()": "8a19c8bc",
					"dailyLimitUsd()": "ca26c532",
					"devWallet()": "8ea5220f",
					"getUserLimit(address)": "e9587e86",
					"isLocked()": "a4e2d634",
					"lastRedeemTimestamp(address)": "589db8d4",
					"merkleRoot()": "2eb4a7ab",
					"oracle()": "7dc0d1d0",
					"owner()": "8da5cb5b",
					"redeem(address,uint256,bytes32[])": "14132f48",
					"redeemedInRound(uint256,address)": "73a1a252",
					"renounceOwnership()": "715018a6",
					"rmcWallet()": "d6691e47",
					"roundFunds()": "620d025c",
					"roundStart()": "40365852",
					"setDailyLimit(uint256)": "b20d30a9",
					"setLocked(bool)": "211e28b6",
					"setMerkleRoot(bytes32)": "7cb64759",
					"setOracle(address)": "7adbf973",
					"setSupportedToken(address,bool)": "e7986466",
					"startNewRound(uint256)": "4615102c",
					"supportedToken(address)": "e2c6e438",
					"transferOwnership(address)": "f2fde38b",
					"wONE()": "196b004b",
					"withdrawFunds()": "24600fc3"
				}
			},
			"storageLayout": {
				"storage": [
					{
						"astId": 690,
						"contract": "contracts/RecoveryVault.sol:RecoveryVault",
						"label": "_owner",
						"offset": 0,
						"slot": "0",
						"type": "t_address"
					},
					{
						"astId": 57,
						"contract": "contracts/RecoveryVault.sol:RecoveryVault",
						"label": "devWallet",
						"offset": 0,
						"slot": "1",
						"type": "t_address"
					},
					{
						"astId": 59,
						"contract": "contracts/RecoveryVault.sol:RecoveryVault",
						"label": "rmcWallet",
						"offset": 0,
						"slot": "2",
						"type": "t_address"
					},
					{
						"astId": 61,
						"contract": "contracts/RecoveryVault.sol:RecoveryVault",
						"label": "merkleRoot",
						"offset": 0,
						"slot": "3",
						"type": "t_bytes32"
					},
					{
						"astId": 63,
						"contract": "contracts/RecoveryVault.sol:RecoveryVault",
						"label": "currentRound",
						"offset": 0,
						"slot": "4",
						"type": "t_uint256"
					},
					{
						"astId": 65,
						"contract": "contracts/RecoveryVault.sol:RecoveryVault",
						"label": "roundStart",
						"offset": 0,
						"slot": "5",
						"type": "t_uint256"
					},
					{
						"astId": 67,
						"contract": "contracts/RecoveryVault.sol:RecoveryVault",
						"label": "roundFunds",
						"offset": 0,
						"slot": "6",
						"type": "t_uint256"
					},
					{
						"astId": 69,
						"contract": "contracts/RecoveryVault.sol:RecoveryVault",
						"label": "dailyLimitUsd",
						"offset": 0,
						"slot": "7",
						"type": "t_uint256"
					},
					{
						"astId": 71,
						"contract": "contracts/RecoveryVault.sol:RecoveryVault",
						"label": "isLocked",
						"offset": 0,
						"slot": "8",
						"type": "t_bool"
					},
					{
						"astId": 74,
						"contract": "contracts/RecoveryVault.sol:RecoveryVault",
						"label": "oracle",
						"offset": 1,
						"slot": "8",
						"type": "t_contract(IOracle)13"
					},
					{
						"astId": 78,
						"contract": "contracts/RecoveryVault.sol:RecoveryVault",
						"label": "supportedToken",
						"offset": 0,
						"slot": "9",
						"type": "t_mapping(t_address,t_bool)"
					},
					{
						"astId": 84,
						"contract": "contracts/RecoveryVault.sol:RecoveryVault",
						"label": "redeemedInRound",
						"offset": 0,
						"slot": "10",
						"type": "t_mapping(t_uint256,t_mapping(t_address,t_uint256))"
					},
					{
						"astId": 88,
						"contract": "contracts/RecoveryVault.sol:RecoveryVault",
						"label": "lastRedeemTimestamp",
						"offset": 0,
						"slot": "11",
						"type": "t_mapping(t_address,t_uint256)"
					}
				],
				"types": {
					"t_address": {
						"encoding": "inplace",
						"label": "address",
						"numberOfBytes": "20"
					},
					"t_bool": {
						"encoding": "inplace",
						"label": "bool",
						"numberOfBytes": "1"
					},
					"t_bytes32": {
						"encoding": "inplace",
						"label": "bytes32",
						"numberOfBytes": "32"
					},
					"t_contract(IOracle)13": {
						"encoding": "inplace",
						"label": "contract IOracle",
						"numberOfBytes": "20"
					},
					"t_mapping(t_address,t_bool)": {
						"encoding": "mapping",
						"key": "t_address",
						"label": "mapping(address => bool)",
						"numberOfBytes": "32",
						"value": "t_bool"
					},
					"t_mapping(t_address,t_uint256)": {
						"encoding": "mapping",
						"key": "t_address",
						"label": "mapping(address => uint256)",
						"numberOfBytes": "32",
						"value": "t_uint256"
					},
					"t_mapping(t_uint256,t_mapping(t_address,t_uint256))": {
						"encoding": "mapping",
						"key": "t_uint256",
						"label": "mapping(uint256 => mapping(address => uint256))",
						"numberOfBytes": "32",
						"value": "t_mapping(t_address,t_uint256)"
					},
					"t_uint256": {
						"encoding": "inplace",
						"label": "uint256",
						"numberOfBytes": "32"
					}
				}
			},
			"userdoc": {
				"kind": "user",
				"methods": {},
				"version": 1
			}
		}
	}
}