{
  "_format": "hh-sol-artifact-1",
  "contractName": "RecoveryVault",
  "sourceName": "contracts/RecoveryVault.sol",
  "abi": [
    {
      "inputs": [
        {
          "internalType": "address",
          "name": "_owner",
          "type": "address"
        },
        {
          "internalType": "address",
          "name": "_devWallet",
          "type": "address"
        },
        {
          "internalType": "address",
          "name": "_rmcWallet",
          "type": "address"
        },
        {
          "internalType": "address",
          "name": "_wone",
          "type": "address"
        },
        {
          "internalType": "address",
          "name": "_usdc",
          "type": "address"
        },
        {
          "internalType": "address[]",
          "name": "_supportedTokens",
          "type": "address[]"
        },
        {
          "internalType": "uint256",
          "name": "_dailyLimitUsd18",
          "type": "uint256"
        },
        {
          "internalType": "address",
          "name": "_oracle",
          "type": "address"
        }
      ],
      "stateMutability": "nonpayable",
      "type": "constructor"
    },
    {
      "anonymous": false,
      "inputs": [
        {
          "indexed": true,
          "internalType": "address",
          "name": "tokenIn",
          "type": "address"
        },
        {
          "indexed": false,
          "internalType": "uint256",
          "name": "amountIn",
          "type": "uint256"
        },
        {
          "indexed": false,
          "internalType": "address",
          "name": "outputToken",
          "type": "address"
        },
        {
          "indexed": false,
          "internalType": "uint256",
          "name": "amountOut",
          "type": "uint256"
        }
      ],
      "name": "BurnToken",
      "type": "event"
    },
    {
      "anonymous": false,
      "inputs": [
        {
          "indexed": false,
          "internalType": "uint256[]",
          "name": "thresholds",
          "type": "uint256[]"
        },
        {
          "indexed": false,
          "internalType": "uint16[]",
          "name": "bps",
          "type": "uint16[]"
        }
      ],
      "name": "FeeTiersUpdated",
      "type": "event"
    },
    {
      "anonymous": false,
      "inputs": [
        {
          "indexed": false,
          "internalType": "uint256",
          "name": "roundId",
          "type": "uint256"
        },
        {
          "indexed": false,
          "internalType": "uint256",
          "name": "woneBalance",
          "type": "uint256"
        },
        {
          "indexed": false,
          "internalType": "uint256",
          "name": "usdcBalance",
          "type": "uint256"
        },
        {
          "indexed": false,
          "internalType": "uint256",
          "name": "startTime",
          "type": "uint256"
        }
      ],
      "name": "NewRoundStarted",
      "type": "event"
    },
    {
      "anonymous": false,
      "inputs": [
        {
          "indexed": true,
          "internalType": "address",
          "name": "previousOwner",
          "type": "address"
        },
        {
          "indexed": true,
          "internalType": "address",
          "name": "newOwner",
          "type": "address"
        }
      ],
      "name": "OwnershipTransferred",
      "type": "event"
    },
    {
      "anonymous": false,
      "inputs": [
        {
          "indexed": true,
          "internalType": "address",
          "name": "user",
          "type": "address"
        },
        {
          "indexed": true,
          "internalType": "address",
          "name": "tokenIn",
          "type": "address"
        },
        {
          "indexed": false,
          "internalType": "uint256",
          "name": "amountIn",
          "type": "uint256"
        },
        {
          "indexed": false,
          "internalType": "uint256",
          "name": "amountOut",
          "type": "uint256"
        }
      ],
      "name": "RedeemProcessed",
      "type": "event"
    },
    {
      "anonymous": false,
      "inputs": [
        {
          "indexed": true,
          "internalType": "address",
          "name": "user",
          "type": "address"
        },
        {
          "indexed": true,
          "internalType": "address",
          "name": "tokenIn",
          "type": "address"
        },
        {
          "indexed": false,
          "internalType": "uint256",
          "name": "usdIn18",
          "type": "uint256"
        },
        {
          "indexed": false,
          "internalType": "uint256",
          "name": "usdNet18",
          "type": "uint256"
        },
        {
          "indexed": false,
          "internalType": "uint256",
          "name": "remainingBefore18",
          "type": "uint256"
        },
        {
          "indexed": false,
          "internalType": "uint256",
          "name": "remainingAfter18",
          "type": "uint256"
        }
      ],
      "name": "RedeemValuationUSD18",
      "type": "event"
    },
    {
      "anonymous": false,
      "inputs": [
        {
          "indexed": false,
          "internalType": "bool",
          "name": "enabled",
          "type": "bool"
        }
      ],
      "name": "RoundDelayToggled",
      "type": "event"
    },
    {
      "anonymous": false,
      "inputs": [
        {
          "indexed": true,
          "internalType": "uint256",
          "name": "roundId",
          "type": "uint256"
        },
        {
          "indexed": false,
          "internalType": "uint16",
          "name": "bps",
          "type": "uint16"
        },
        {
          "indexed": false,
          "internalType": "uint256",
          "name": "basisUsd",
          "type": "uint256"
        }
      ],
      "name": "RoundFeeLocked",
      "type": "event"
    },
    {
      "anonymous": false,
      "inputs": [
        {
          "indexed": false,
          "internalType": "address",
          "name": "token",
          "type": "address"
        },
        {
          "indexed": false,
          "internalType": "bool",
          "name": "allowed",
          "type": "bool"
        }
      ],
      "name": "SupportedTokenUpdated",
      "type": "event"
    },
    {
      "anonymous": false,
      "inputs": [
        {
          "indexed": true,
          "internalType": "address",
          "name": "token",
          "type": "address"
        },
        {
          "indexed": false,
          "internalType": "uint256",
          "name": "amount",
          "type": "uint256"
        }
      ],
      "name": "TokenSinkFallback",
      "type": "event"
    },
    {
      "anonymous": false,
      "inputs": [
        {
          "indexed": false,
          "internalType": "bool",
          "name": "isPaused",
          "type": "bool"
        }
      ],
      "name": "VaultPaused",
      "type": "event"
    },
    {
      "inputs": [],
      "name": "DEAD_BURN_ADDRESS",
      "outputs": [
        {
          "internalType": "address",
          "name": "",
          "type": "address"
        }
      ],
      "stateMutability": "view",
      "type": "function"
    },
    {
      "inputs": [],
      "name": "ROUND_DELAY",
      "outputs": [
        {
          "internalType": "uint256",
          "name": "",
          "type": "uint256"
        }
      ],
      "stateMutability": "view",
      "type": "function"
    },
    {
      "inputs": [],
      "name": "USDC_DECIMALS",
      "outputs": [
        {
          "internalType": "uint8",
          "name": "",
          "type": "uint8"
        }
      ],
      "stateMutability": "view",
      "type": "function"
    },
    {
      "inputs": [],
      "name": "WALLET_RESET_INTERVAL",
      "outputs": [
        {
          "internalType": "uint256",
          "name": "",
          "type": "uint256"
        }
      ],
      "stateMutability": "view",
      "type": "function"
    },
    {
      "inputs": [],
      "name": "WONE_DECIMALS",
      "outputs": [
        {
          "internalType": "uint8",
          "name": "",
          "type": "uint8"
        }
      ],
      "stateMutability": "view",
      "type": "function"
    },
    {
      "inputs": [],
      "name": "currentRound",
      "outputs": [
        {
          "internalType": "uint256",
          "name": "",
          "type": "uint256"
        }
      ],
      "stateMutability": "view",
      "type": "function"
    },
    {
      "inputs": [],
      "name": "dailyLimitUsd",
      "outputs": [
        {
          "internalType": "uint256",
          "name": "",
          "type": "uint256"
        }
      ],
      "stateMutability": "view",
      "type": "function"
    },
    {
      "inputs": [],
      "name": "devWallet",
      "outputs": [
        {
          "internalType": "address",
          "name": "",
          "type": "address"
        }
      ],
      "stateMutability": "view",
      "type": "function"
    },
    {
      "inputs": [
        {
          "internalType": "uint256",
          "name": "",
          "type": "uint256"
        }
      ],
      "name": "feeBps",
      "outputs": [
        {
          "internalType": "uint16",
          "name": "",
          "type": "uint16"
        }
      ],
      "stateMutability": "view",
      "type": "function"
    },
    {
      "inputs": [
        {
          "internalType": "uint256",
          "name": "",
          "type": "uint256"
        }
      ],
      "name": "feeThresholds",
      "outputs": [
        {
          "internalType": "uint256",
          "name": "",
          "type": "uint256"
        }
      ],
      "stateMutability": "view",
      "type": "function"
    },
    {
      "inputs": [
        {
          "internalType": "address",
          "name": "",
          "type": "address"
        }
      ],
      "name": "fixedUsdPrice",
      "outputs": [
        {
          "internalType": "uint256",
          "name": "",
          "type": "uint256"
        }
      ],
      "stateMutability": "view",
      "type": "function"
    },
    {
      "inputs": [],
      "name": "getFeeTiers",
      "outputs": [
        {
          "internalType": "uint256[]",
          "name": "thresholds",
          "type": "uint256[]"
        },
        {
          "internalType": "uint16[]",
          "name": "bps",
          "type": "uint16[]"
        }
      ],
      "stateMutability": "view",
      "type": "function"
    },
    {
      "inputs": [
        {
          "internalType": "address",
          "name": "user",
          "type": "address"
        }
      ],
      "name": "getLastRedeemTimestamp",
      "outputs": [
        {
          "internalType": "uint256",
          "name": "",
          "type": "uint256"
        }
      ],
      "stateMutability": "view",
      "type": "function"
    },
    {
      "inputs": [],
      "name": "getRoundInfo",
      "outputs": [
        {
          "internalType": "uint256",
          "name": "roundId",
          "type": "uint256"
        },
        {
          "internalType": "uint256",
          "name": "startTime",
          "type": "uint256"
        },
        {
          "internalType": "bool",
          "name": "isActive",
          "type": "bool"
        },
        {
          "internalType": "bool",
          "name": "paused",
          "type": "bool"
        },
        {
          "internalType": "uint256",
          "name": "limitUsd",
          "type": "uint256"
        },
        {
          "internalType": "bool",
          "name": "delayEnabled",
          "type": "bool"
        },
        {
          "internalType": "uint16",
          "name": "roundFeeBps",
          "type": "uint16"
        },
        {
          "internalType": "uint256",
          "name": "roundFeeBasis",
          "type": "uint256"
        }
      ],
      "stateMutability": "view",
      "type": "function"
    },
    {
      "inputs": [],
      "name": "getSupportedTokens",
      "outputs": [
        {
          "internalType": "address[]",
          "name": "",
          "type": "address[]"
        }
      ],
      "stateMutability": "view",
      "type": "function"
    },
    {
      "inputs": [
        {
          "internalType": "address",
          "name": "wallet",
          "type": "address"
        }
      ],
      "name": "getUserLimit",
      "outputs": [
        {
          "internalType": "uint256",
          "name": "remainingUSD18",
          "type": "uint256"
        }
      ],
      "stateMutability": "view",
      "type": "function"
    },
    {
      "inputs": [],
      "name": "getVaultBalances",
      "outputs": [
        {
          "internalType": "uint256",
          "name": "woneBalance",
          "type": "uint256"
        },
        {
          "internalType": "uint256",
          "name": "usdcBalance",
          "type": "uint256"
        }
      ],
      "stateMutability": "view",
      "type": "function"
    },
    {
      "inputs": [],
      "name": "isLocked",
      "outputs": [
        {
          "internalType": "bool",
          "name": "",
          "type": "bool"
        }
      ],
      "stateMutability": "view",
      "type": "function"
    },
    {
      "inputs": [
        {
          "internalType": "address",
          "name": "",
          "type": "address"
        }
      ],
      "name": "lastRedeemTimestamp",
      "outputs": [
        {
          "internalType": "uint256",
          "name": "",
          "type": "uint256"
        }
      ],
      "stateMutability": "view",
      "type": "function"
    },
    {
      "inputs": [
        {
          "internalType": "address",
          "name": "",
          "type": "address"
        }
      ],
      "name": "limitUnlockAt",
      "outputs": [
        {
          "internalType": "uint256",
          "name": "",
          "type": "uint256"
        }
      ],
      "stateMutability": "view",
      "type": "function"
    },
    {
      "inputs": [],
      "name": "merkleRoot",
      "outputs": [
        {
          "internalType": "bytes32",
          "name": "",
          "type": "bytes32"
        }
      ],
      "stateMutability": "view",
      "type": "function"
    },
    {
      "inputs": [],
      "name": "oracle",
      "outputs": [
        {
          "internalType": "contract IOracle",
          "name": "",
          "type": "address"
        }
      ],
      "stateMutability": "view",
      "type": "function"
    },
    {
      "inputs": [],
      "name": "owner",
      "outputs": [
        {
          "internalType": "address",
          "name": "",
          "type": "address"
        }
      ],
      "stateMutability": "view",
      "type": "function"
    },
    {
      "inputs": [
        {
          "internalType": "address",
          "name": "",
          "type": "address"
        }
      ],
      "name": "periodStart",
      "outputs": [
        {
          "internalType": "uint256",
          "name": "",
          "type": "uint256"
        }
      ],
      "stateMutability": "view",
      "type": "function"
    },
    {
      "inputs": [
        {
          "internalType": "address",
          "name": "user",
          "type": "address"
        },
        {
          "internalType": "address",
          "name": "tokenIn",
          "type": "address"
        },
        {
          "internalType": "uint256",
          "name": "amountIn",
          "type": "uint256"
        },
        {
          "internalType": "address",
          "name": "redeemIn",
          "type": "address"
        },
        {
          "internalType": "bytes32[]",
          "name": "proof",
          "type": "bytes32[]"
        }
      ],
      "name": "quoteRedeem",
      "outputs": [
        {
          "internalType": "bool",
          "name": "whitelisted",
          "type": "bool"
        },
        {
          "internalType": "bool",
          "name": "roundIsActive",
          "type": "bool"
        },
        {
          "internalType": "uint256",
          "name": "feeAmountInTokenIn",
          "type": "uint256"
        },
        {
          "internalType": "uint256",
          "name": "burnAmountInTokenIn",
          "type": "uint256"
        },
        {
          "internalType": "uint256",
          "name": "userLimitUsdBefore",
          "type": "uint256"
        },
        {
          "internalType": "uint256",
          "name": "userLimitUsdAfter",
          "type": "uint256"
        },
        {
          "internalType": "uint256",
          "name": "usdValueIn",
          "type": "uint256"
        },
        {
          "internalType": "uint8",
          "name": "tokenInDecimals",
          "type": "uint8"
        },
        {
          "internalType": "uint8",
          "name": "redeemInDecimals",
          "type": "uint8"
        },
        {
          "internalType": "uint256",
          "name": "oraclePrice",
          "type": "uint256"
        },
        {
          "internalType": "uint8",
          "name": "oracleDecimals",
          "type": "uint8"
        },
        {
          "internalType": "uint256",
          "name": "amountOutRedeemToken",
          "type": "uint256"
        }
      ],
      "stateMutability": "view",
      "type": "function"
    },
    {
      "inputs": [
        {
          "internalType": "address",
          "name": "tokenIn",
          "type": "address"
        },
        {
          "internalType": "uint256",
          "name": "amountIn",
          "type": "uint256"
        },
        {
          "internalType": "address",
          "name": "redeemIn",
          "type": "address"
        },
        {
          "internalType": "bytes32[]",
          "name": "proof",
          "type": "bytes32[]"
        }
      ],
      "name": "redeem",
      "outputs": [],
      "stateMutability": "payable",
      "type": "function"
    },
    {
      "inputs": [
        {
          "internalType": "uint256",
          "name": "",
          "type": "uint256"
        },
        {
          "internalType": "address",
          "name": "",
          "type": "address"
        }
      ],
      "name": "redeemedInRound",
      "outputs": [
        {
          "internalType": "uint256",
          "name": "",
          "type": "uint256"
        }
      ],
      "stateMutability": "view",
      "type": "function"
    },
    {
      "inputs": [],
      "name": "renounceOwnership",
      "outputs": [],
      "stateMutability": "nonpayable",
      "type": "function"
    },
    {
      "inputs": [],
      "name": "rmcWallet",
      "outputs": [
        {
          "internalType": "address",
          "name": "",
          "type": "address"
        }
      ],
      "stateMutability": "view",
      "type": "function"
    },
    {
      "inputs": [],
      "name": "roundBps",
      "outputs": [
        {
          "internalType": "uint16",
          "name": "",
          "type": "uint16"
        }
      ],
      "stateMutability": "view",
      "type": "function"
    },
    {
      "inputs": [],
      "name": "roundDelayEnabled",
      "outputs": [
        {
          "internalType": "bool",
          "name": "",
          "type": "bool"
        }
      ],
      "stateMutability": "view",
      "type": "function"
    },
    {
      "inputs": [],
      "name": "roundFeeBasisUsd",
      "outputs": [
        {
          "internalType": "uint256",
          "name": "",
          "type": "uint256"
        }
      ],
      "stateMutability": "view",
      "type": "function"
    },
    {
      "inputs": [],
      "name": "roundFeeLocked",
      "outputs": [
        {
          "internalType": "bool",
          "name": "",
          "type": "bool"
        }
      ],
      "stateMutability": "view",
      "type": "function"
    },
    {
      "inputs": [],
      "name": "roundStart",
      "outputs": [
        {
          "internalType": "uint256",
          "name": "",
          "type": "uint256"
        }
      ],
      "stateMutability": "view",
      "type": "function"
    },
    {
      "inputs": [
        {
          "internalType": "uint256",
          "name": "usdAmount18",
          "type": "uint256"
        }
      ],
      "name": "setDailyLimit",
      "outputs": [],
      "stateMutability": "nonpayable",
      "type": "function"
    },
    {
      "inputs": [
        {
          "internalType": "address",
          "name": "wallet",
          "type": "address"
        }
      ],
      "name": "setDevWallet",
      "outputs": [],
      "stateMutability": "nonpayable",
      "type": "function"
    },
    {
      "inputs": [
        {
          "internalType": "uint256[]",
          "name": "thresholds",
          "type": "uint256[]"
        },
        {
          "internalType": "uint16[]",
          "name": "bps",
          "type": "uint16[]"
        }
      ],
      "name": "setFeeTiers",
      "outputs": [],
      "stateMutability": "nonpayable",
      "type": "function"
    },
    {
      "inputs": [
        {
          "internalType": "address",
          "name": "token",
          "type": "address"
        },
        {
          "internalType": "uint256",
          "name": "usdPrice18",
          "type": "uint256"
        }
      ],
      "name": "setFixedUsdPrice",
      "outputs": [],
      "stateMutability": "nonpayable",
      "type": "function"
    },
    {
      "inputs": [
        {
          "internalType": "bool",
          "name": "_status",
          "type": "bool"
        }
      ],
      "name": "setLocked",
      "outputs": [],
      "stateMutability": "nonpayable",
      "type": "function"
    },
    {
      "inputs": [
        {
          "internalType": "bytes32",
          "name": "_root",
          "type": "bytes32"
        }
      ],
      "name": "setMerkleRoot",
      "outputs": [],
      "stateMutability": "nonpayable",
      "type": "function"
    },
    {
      "inputs": [
        {
          "internalType": "address",
          "name": "_oracle",
          "type": "address"
        }
      ],
      "name": "setOracle",
      "outputs": [],
      "stateMutability": "nonpayable",
      "type": "function"
    },
    {
      "inputs": [
        {
          "internalType": "address",
          "name": "wallet",
          "type": "address"
        }
      ],
      "name": "setRmcWallet",
      "outputs": [],
      "stateMutability": "nonpayable",
      "type": "function"
    },
    {
      "inputs": [
        {
          "internalType": "bool",
          "name": "enabled",
          "type": "bool"
        }
      ],
      "name": "setRoundDelayEnabled",
      "outputs": [],
      "stateMutability": "nonpayable",
      "type": "function"
    },
    {
      "inputs": [
        {
          "internalType": "address",
          "name": "token",
          "type": "address"
        },
        {
          "internalType": "bool",
          "name": "allowed",
          "type": "bool"
        }
      ],
      "name": "setSupportedToken",
      "outputs": [],
      "stateMutability": "nonpayable",
      "type": "function"
    },
    {
      "inputs": [
        {
          "internalType": "uint256",
          "name": "_roundId",
          "type": "uint256"
        }
      ],
      "name": "startNewRound",
      "outputs": [],
      "stateMutability": "nonpayable",
      "type": "function"
    },
    {
      "inputs": [
        {
          "internalType": "address",
          "name": "",
          "type": "address"
        }
      ],
      "name": "supportedToken",
      "outputs": [
        {
          "internalType": "bool",
          "name": "",
          "type": "bool"
        }
      ],
      "stateMutability": "view",
      "type": "function"
    },
    {
      "inputs": [
        {
          "internalType": "uint256",
          "name": "",
          "type": "uint256"
        }
      ],
      "name": "supportedTokenList",
      "outputs": [
        {
          "internalType": "address",
          "name": "",
          "type": "address"
        }
      ],
      "stateMutability": "view",
      "type": "function"
    },
    {
      "inputs": [
        {
          "internalType": "address",
          "name": "newOwner",
          "type": "address"
        }
      ],
      "name": "transferOwnership",
      "outputs": [],
      "stateMutability": "nonpayable",
      "type": "function"
    },
    {
      "inputs": [],
      "name": "usdc",
      "outputs": [
        {
          "internalType": "address",
          "name": "",
          "type": "address"
        }
      ],
      "stateMutability": "view",
      "type": "function"
    },
    {
      "inputs": [],
      "name": "wONE",
      "outputs": [
        {
          "internalType": "address",
          "name": "",
          "type": "address"
        }
      ],
      "stateMutability": "view",
      "type": "function"
    },
    {
      "inputs": [
        {
          "internalType": "address",
          "name": "token",
          "type": "address"
        }
      ],
      "name": "withdrawFunds",
      "outputs": [],
      "stateMutability": "nonpayable",
      "type": "function"
    }
  ],
  "bytecode": "0x610100604052346200014657620000296200001962000312565b96959095949194939293620008cd565b6040516148bc62000c8d82396080518181816105400152818161177c015281816117ba0152818161181f0152818161191e01528181611b230152818161200e01528181612059015281816125d40152818161375601528181613a0e01528181613c820152613e15015260a0518181816108bb01528181611a3301528181611e1901528181611f64015281816120d9015281816123c7015281816124970152818161265b0152818161383401528181613a5701528181613cec0152613dc5015260c05181818161091b0152818161194f01528181611ddd015281816120b10152818161239901526139ec015260e051818181610d8401528181611a6401528181611e4e01528181612115015281816123fb0152613a3501526148bc90f35b600080fd5b634e487b7160e01b600052604160045260246000fd5b90601f01601f191681019081106001600160401b038211176200018357604052565b6200014b565b90620001a06200019860405190565b928362000161565b565b6001600160a01b031690565b90565b6001600160a01b0381165b036200014657565b90505190620001a082620001b1565b6001600160401b038111620001835760208091020190565b9092919262000204620001fe82620001d3565b62000189565b93818552602080860192028301928184116200014657915b8383106200022a5750505050565b602080916200023a8486620001c4565b8152019201916200021c565b9080601f8301121562000146578151620001ae92602001620001eb565b80620001bc565b90505190620001a08262000263565b610100818303126200014657620002918282620001c4565b92620002a18360208401620001c4565b92604090620002b381838601620001c4565b93620002c38260608301620001c4565b93620002d38360808401620001c4565b9360018060a0850151921b0381116200014657620002f884620001ae92850162000246565b93620003088160c086016200026a565b9360e001620001c4565b620003356200554980380380620003298162000189565b92833981019062000279565b9091929394959697565b9061ff009060081b5b9181191691161790565b9062000365620001ae6200036d92151590565b82546200033f565b9055565b6001600160401b038111620001835760200290565b620001fe620001ae9162000371565b620003a5620001ae620001ae9290565b61ffff1690565b634e487b7160e01b600052601160045260246000fd5b9160001960089290920291821b911b62000348565b921b90565b620001ae620001ae620001ae9290565b919062000401620001ae6200036d93620003dc565b908354620003c2565b620001a091600091620003ec565b81811062000424575050565b806200043460006001936200040a565b0162000418565b906200044f90600019906020036008021c90565b8154169055565b90918281106200046557505050565b620001a092906200047d905b92600052602060002090565b908101910162000418565b90680100000000000000008111620001835781620004a8620001a0935490565b9082815562000456565b600391620004cc62000471600192620001ae868662000488565b92049160005b838110620004e05750505050565b6001906020620004f6620001ae865161ffff1690565b9401938184015501620004d2565b90620001a091620004b2565b62000520620001ae620001ae9290565b60ff1690565b81811062000532575050565b806200054260006001936200040a565b0162000526565b9190918282106200055957505050565b620001a092600290601090600f01819004620005816010600f87010494600052602060002090565b9384019301930602600081116200059a575b5062000526565b620005a990600183036200043b565b3862000593565b90680100000000000000008111620001835781620005d0620001a0935490565b9082815562000549565b9190600862000348910291620003d761ffff841b90565b90600490620004716200060a91620001ae8486620005b0565b601082049160005b8381106200068157506010830290036000811162000631575b50505050565b92600093845b8181106200064e575050500155388080806200062b565b9091946020620006766001926200066a620001ae8a5160ff1690565b908560020290620005da565b960192910162000637565b6000805b601081106200069c57508382015560010162000612565b95906020620006c3600192620006b7620001ae865160ff1690565b908a60020290620005da565b9201960162000685565b90620001a091620005f1565b906001600160a01b039062000348565b620001ae90620001a2906001600160a01b031682565b620001ae90620006e9565b620001ae90620006ff565b9062000729620001ae6200036d926200070a565b8254620006d9565b906000199062000348565b9062000750620001ae6200036d92620003dc565b825462000731565b60ff8116620001bc565b90505190620001a08262000758565b906020828203126200014657620001ae9162000762565b6040513d6000823e3d90fd5b6000198114620007a45760010190565b620003ac565b634e487b7160e01b600052603260045260246000fd5b90620007ca825190565b811015620007dc576020809102010190565b620007aa565b90620007ee906200070a565b600052602052604060002090565b9060ff9062000348565b9062000819620001ae6200036d92151590565b8254620007fc565b8054821015620007dc576200083d600191600052602060002090565b91020190600090565b916001600160a01b0360089290920291821b911b62000348565b919062000875620001ae6200036d936200070a565b90835462000846565b9081549168010000000000000000831015620001835782620008aa916001620001a09501815562000821565b9062000860565b6001600160a01b03919091168152901515602082015260400190565b9293949691959095620008df62000be8565b600196620008ef88600862000352565b620008fb600362000386565b946064956200090a8762000395565b61ffff1681526200091c60fa62000395565b61ffff166020820152620009326103e862000395565b61ffff1660408201526200094890601262000504565b62000954600462000386565b95620009609062000510565b60ff16865262000971603262000510565b60ff16602087015262000985601962000510565b60ff166040870152600a956200099b8762000510565b60ff166060820152620009b0906013620006cd565b620009bb9062000c2a565b620009c890600262000715565b620009d590600362000715565b836080528460a052620009ea9060076200073c565b620009f5906200070a565b62000a009162000715565b62000a0b906200070a565b62000a16906200070a565b9063313ce56762000a2660405190565b9262000a328260e01b90565b8452836004815a93602094fa801562000bb45762000a6960209362000a6f9262000a7b9660009162000bba575b5060c0526200070a565b6200070a565b60405193849260e01b90565b825260049082905afa90811562000bb45760009162000b7f575b5060e0528062000aa66000620003dc565b905b62000ab257505050565b62000abf620001ae845190565b81101562000b7a5762000b73829162000b028362000afc600b62000af562000ae8868b620007c0565b516001600160a01b031690565b90620007e2565b62000806565b62000b1f600c62000b1862000ae88489620007c0565b906200087e565b62000b2f62000ae88287620007c0565b837f24ac9305f628cc42ffe7a95d02adb6df8eaf4bd42d00b25165abd72d06bcfd159162000b6a62000b6060405190565b92839283620008b1565b0390a162000794565b9062000aa8565b505050565b62000ba5915060203d811162000bac575b62000b9c818362000161565b81019062000771565b3862000a95565b503d62000b90565b62000788565b62000bd59150863d811162000bac5762000b9c818362000161565b3862000a5f565b620001ae6001620003dc565b62000bf262000c08565b620001a062000c0062000bdc565b60016200073c565b620001a03362000c2a565b620001ae90620001a2565b620001ae905462000c13565b62000c36600062000c1e565b9062000c4481600062000715565b62000c7b62000c747f8be0079c531659141344cd1fd0a4f28419497f9722a3daafe3b4186f6b6457e0936200070a565b916200070a565b9162000c8660405190565b600090a356fe60e0604052600436101561001257600080fd5b60003560e01c80631073e2a714610298578063178906bf1461033d578063196b004b146103385780631efb1aa6146103335780631f53ac021461032e578063211e28b61461032957806322370685146103245780632b60c8221461031f5780632eb4a7ab1461031a57806337425fa014610315578063378580ea14610310578063392405ab1461030b5780633e413bee1461030657806340365852146103015780634614a261146102fc5780634615102c146102f7578063589db8d4146102f2578063659590c5146102ed57806368742da6146102e857806369c5b5e6146102e3578063715018a6146102de57806373a1a252146102d95780637adbf973146102d45780637cb64759146102cf5780637dc0d1d0146102ca57806384bc76a6146102c55780638a19c8bc146102c05780638da5cb5b146102bb5780638ea5220f146102b65780639aa1f78e146102b15780639eee94a8146102ac578063a060cc21146102a7578063a27e91a8146102a2578063a4e2d6341461029d578063ad655ef614610298578063b11d97f814610293578063b20d30a91461028e578063c1265f2414610289578063c1419def14610284578063c69f84451461027f578063ca26c5321461027a578063d3c7c2c714610275578063d656c29c14610270578063d6691e471461026b578063e236300614610266578063e2c6e43814610261578063e79864661461025c578063e9587e8614610257578063e9a4d24f14610252578063f2fde38b1461024d5763fe531ab40361034d5761109b565b611083565b611055565b610f95565b610f7c565b610f3e565b610f0c565b610edf565b610eba565b610e70565b610de1565b610dba565b610d6f565b610d54565b610d30565b610d15565b61037c565b610cfa565b610cd6565b610cbb565b610c4f565b610bea565b610bc3565b610b9c565b610b81565b610b00565b610ad9565b610a9c565b610a84565b610a68565b610a09565b6109ee565b6109af565b610994565b610979565b61094f565b610906565b6108eb565b6108a6565b610876565b610821565b6107e0565b610770565b610733565b61066a565b61063b565b6105fa565b6105ca565b61052b565b6104e7565b600091031261034d57565b600080fd5b90565b6103526103526103529290565b61035262015180610355565b610352610362565b9052565b565b3461034d5761038c366004610342565b6103a861039761036e565b6040515b9182918290815260200190565b0390f35b6001600160a01b031690565b6001600160a01b0381165b0361034d57565b9050359061037a826103b8565b806103c3565b9050359061037a826103d7565b909182601f8301121561034d5781359167ffffffffffffffff831161034d57602001926020830284011161034d57565b91909160a08184031261034d5761043183826103ca565b9261043f81602084016103ca565b9261044d82604085016103dd565b9261045b83606083016103ca565b92608082013567ffffffffffffffff811161034d5761047a92016103ea565b9091565b99979593919c9b9a98969492909c6101808b019d60008c016104a09115159052565b151560208b015260408a01526060890152608088015260a087015260c086015260ff1660e085015260ff1661010084015261012083015260ff166101408201526101600152565b3461034d576103a86105096104fd36600461041a565b94939093929192611fd4565b986105229c9a9c98919897929796939695949560405190565b9c8d9c8d61047e565b3461034d5761053b366004610342565b6103a87f00000000000000000000000000000000000000000000000000000000000000005b604051918291826001600160a01b03909116815260200190565b9060808282031261034d5761058f81836103ca565b9261059d82602085016103dd565b926105ab83604083016103ca565b92606082013567ffffffffffffffff811161034d5761047a92016103ea565b6105e16105d836600461057a565b93929092611fb0565b604051005b9060208282031261034d57610352916103ca565b3461034d576105e161060d3660046105e6565b613127565b8015156103c3565b9050359061037a82610612565b9060208282031261034d576103529161061a565b3461034d576105e161064e366004610627565b613094565b90815260408101929161037a9160200152565b0152565b3461034d5761067a366004610342565b6106826125cc565b906103a861068f60405190565b92839283610653565b9060208282031261034d57610352916103dd565b634e487b7160e01b600052603260045260246000fd5b80548210156106e5576106dc600191600052602060002090565b91020190600090565b6106ac565b610352916008021c6001600160a01b031690565b9061035291546106ea565b600c6000610715825490565b83101561073057506103529161072a916106c2565b906106fe565b80fd5b3461034d576103a8610560610749366004610698565b610709565b610352916008021c81565b90610352915461074e565b61035260006004610759565b3461034d57610780366004610342565b6103a8610397610764565b610352906103ac906001600160a01b031682565b6103529061078b565b6103529061079f565b906107bb906107a8565b600052602052604060002090565b610352906107db6010916000926107b1565b610759565b3461034d576103a86103976107f63660046105e6565b6107c9565b610352916008021c5b60ff1690565b9061035291546107fb565b6103526001600861080a565b3461034d57610831366004610342565b6103a861083c610815565b6040515b91829182901515815260200190565b610352916008021c5b61ffff1690565b90610352915461084f565b6103526002600861085f565b3461034d57610886366004610342565b6103a861089161086a565b6040519182918261ffff909116815260200190565b3461034d576108b6366004610342565b6103a87f0000000000000000000000000000000000000000000000000000000000000000610560565b61035260006006610759565b3461034d576108fb366004610342565b6103a86103976108df565b3461034d57610916366004610342565b6103a87f00000000000000000000000000000000000000000000000000000000000000005b6040519182918260ff909116815260200190565b3461034d576105e1610962366004610698565b613b7e565b610352906107db600e916000926107b1565b3461034d576103a861039761098f3660046105e6565b610967565b3461034d576103a86103976109aa3660046105e6565b611fbd565b3461034d576105e16109c23660046105e6565b61385c565b601260006109d3825490565b8310156107305750610352916109e8916106c2565b90610759565b3461034d576103a8610397610a04366004610698565b6109c7565b3461034d57610a19366004610342565b6105e1614202565b919060408382031261034d5761035290610a3b81856103dd565b936020016103ca565b906107bb90610355565b6107db61035292610a63600d93600094610a44565b6107b1565b3461034d576103a8610397610a7e366004610a21565b90610a4e565b3461034d576105e1610a973660046105e6565b613107565b3461034d576105e1610aaf366004610698565b612e04565b6103526000600a6106fe565b610376906107a8565b60208101929161037a9190610ac0565b3461034d57610ae9366004610342565b6103a8610af4610ab4565b60405191829182610ac9565b3461034d57610b10366004610342565b6103a8610b1b612724565b94610b2e98969894919493929360405190565b98899889908152610100810198979690959094909390929091602087015215156040860152151560608501526080840152151560a083015261ffff1660c082015260e00152565b61035260006005610759565b3461034d57610b91366004610342565b6103a8610397610b75565b3461034d57610bac366004610342565b6103a861056061416e565b610352600060026106fe565b3461034d57610bd3366004610342565b6103a8610560610bb7565b61035260006009610759565b3461034d57610bfa366004610342565b6103a8610397610bde565b909160408284031261034d57813567ffffffffffffffff811161034d5783610c2e9184016103ea565b929093602082013567ffffffffffffffff811161034d5761047a92016103ea565b3461034d576105e1610c62366004610c05565b929190916135b7565b80549192918310156106e5576010610c8a600292600052602060002090565b8185040193060290565b60136000610ca0825490565b831015610730575061035291610cb591610c6b565b9061085f565b3461034d576103a8610891610cd1366004610698565b610c94565b3461034d576105e1610ce9366004610627565b6136ae565b6103526000600861080a565b3461034d57610d0a366004610342565b6103a861083c610cee565b3461034d57610d25366004610342565b6103a861dead610560565b3461034d576105e1610d43366004610698565b6130b4565b6103526004600861080a565b3461034d57610d64366004610342565b6103a861083c610d48565b3461034d57610d7f366004610342565b6103a87f000000000000000000000000000000000000000000000000000000000000000061093b565b610352906107db600f916000926107b1565b3461034d576103a8610397610dd03660046105e6565b610da8565b61035260006007610759565b3461034d57610df1366004610342565b6103a8610397610dd5565b0190565b90610e20610e19610e0f845190565b8084529260200190565b9260200190565b9060005b818110610e315750505090565b909192610e57610e5060019286516001600160a01b0316815260200190565b9460200190565b929101610e24565b602080825261035292910190610e00565b3461034d57610e80366004610342565b6103a8610e8b61288e565b60405191829182610e5f565b919060408382031261034d5761035290610eb181856103ca565b936020016103dd565b3461034d576105e1610ecd366004610e97565b90613636565b610352600060036106fe565b3461034d57610eef366004610342565b6103a8610560610ed3565b610352906107db6011916000926107b1565b3461034d576103a8610397610f223660046105e6565b610efa565b61035290610f39600b916000926107b1565b61080a565b3461034d576103a861083c610f543660046105e6565b610f27565b919060408382031261034d5761035290610f7381856103ca565b9360200161061a565b3461034d576105e1610f8f366004610f59565b90613045565b3461034d576103a8610397610fab3660046105e6565b6124e2565b90610fbf610e19610e0f845190565b9060005b818110610fd05750505090565b909192610fe6610e506001928651815260200190565b929101610fc3565b90610ffd610e19610e0f845190565b9060005b81811061100e5750505090565b909192611028610e50600192865161ffff16815260200190565b929101611001565b604080825261035293919261104791840190610fb0565b916020818403910152610fee565b3461034d57611065366004610342565b61106d612dc4565b906103a861107a60405190565b92839283611030565b3461034d576105e16110963660046105e6565b61429b565b3461034d576105e16110ae3660046105e6565b613147565b906110c8949392916110c3614354565b6111f4565b61037a614386565b6103529081565b61035290546110d0565b156110e857565b60405162461bcd60e51b8152602060048201526015602482015274149bdd5b99081b9bdd081a5b9a5d1a585b1a5e9959605a1b6044820152606490fd5b0390fd5b61035290610804565b6103529054611129565b1561114357565b60405162461bcd60e51b815260206004820152601260248201527110dbdb9d1c9858dd081a5cc81b1bd8dad95960721b6044820152606490fd5b1561118457565b60405162461bcd60e51b8152602060048201526011602482015270149bdd5b99081b9bdd081cdd185c9d1959607a1b6044820152606490fd5b156111c457565b60405162461bcd60e51b81526020600482015260086024820152674e6f2066756e647360c01b6044820152606490fd5b9061037a9493929161127e61120960056110d7565b61122560009161121f61121b84610355565b9190565b116110e1565b61123e6112396112356008611132565b1590565b61113c565b6112594261125261121b61035260066110d7565b101561117d565b6112616125cc565b9061126e61121b84610355565b11918215611283575b50506111bd565b6112d8565b61129291925061121b90610355565b113880611277565b156112a157565b60405162461bcd60e51b815260206004820152600f60248201526e139bdd081dda1a5d195b1a5cdd1959608a1b6044820152606490fd5b9061037a949392916112f36112ee868633613f47565b61129a565b61174b565b6103ac6103526103529290565b610352906112f8565b1561131557565b60405162461bcd60e51b815260206004820152601a60248201527f446f206e6f742073656e64204f4e4520776974682045524332300000000000006044820152606490fd5b1561136157565b60405162461bcd60e51b8152602060048201526013602482015272135a5cdb585d18da0813d39148185b5bdd5b9d606a1b6044820152606490fd5b156113a357565b60405162461bcd60e51b81526020600482015260136024820152721dd3d391481b9bdd0818dbdb999a59dd5c9959606a1b6044820152606490fd5b156113e557565b60405162461bcd60e51b8152602060048201526013602482015272151bdad95b881b9bdd081cdd5c1c1bdc9d1959606a1b6044820152606490fd5b1561142757565b60405162461bcd60e51b815260206004820152602160248201527f52656465656d20746f6b656e206d75737420626520774f4e45206f72205553446044820152604360f81b6064820152608490fd5b1561147d57565b60405162461bcd60e51b815260206004820152601260248201527111185a5b1e481b1a5b5a5d081b1bd8dad95960721b6044820152606490fd5b90600019905b9181191691161790565b906114d76103526114de92610355565b82546114b7565b9055565b610352906103ac565b61035290546114e2565b634e487b7160e01b600052604160045260246000fd5b90601f01601f1916810190811067ffffffffffffffff82111761152d57604052565b6114f5565b9050519061037a826103d7565b60ff81166103c3565b9050519061037a8261153f565b919060408382031261034d576103529061156f8185611532565b93602001611548565b6040513d6000823e3d90fd5b1561158b57565b60405162461bcd60e51b815260206004820152600e60248201526d496e76616c6964206f7261636c6560901b6044820152606490fd5b9060208282031261034d5761035291611548565b634e487b7160e01b600052601160045260246000fd5b91906115f6565b9290565b820391821161160157565b6115d5565b1561160d57565b60405162461bcd60e51b8152602060048201526013602482015272115e18d959591cc819185a5b1e481b1a5b5a5d606a1b6044820152606490fd5b634e487b7160e01b600052601260045260246000fd5b8115611668570490565b611648565b60ff16604d811161160157600a0a90565b8181029291811591840414171561160157565b9060208282031261034d5761035291611532565b156116ac57565b60405162461bcd60e51b8152602060048201526016602482015275496e73756666696369656e74206c697175696469747960501b6044820152606490fd5b9190820180921161160157565b90815260608101939261037a929091604091610666905b6001600160a01b03166020830152565b61066661037a9461174460609498979561173d608086019a6000870152565b6020850152565b6040830152565b91925092506118d661175d6000611305565b936001600160a01b0385166001600160a01b03841614938415611fa9577f0000000000000000000000000000000000000000000000000000000000000000955b8515611f8c576117fa906117b284341461135a565b6117f36117e67f0000000000000000000000000000000000000000000000000000000000000000926001600160a01b031690565b916001600160a01b031690565b141561139c565b61181561181061180b88600b6107b1565b611132565b6113de565b6001600160a01b037f0000000000000000000000000000000000000000000000000000000000000000166001600160a01b038216148015611f56575b61185a90611420565b61186d61186833600f6107b1565b6110d7565b61187a61121b6000610355565b03611f32575b61188933613fa8565b6118976118683360106107b1565b6118a461121b6000610355565b14611f1e575b60406118be6118b9600a6114eb565b6107a8565b63a3e6ba94906118cd60405190565b95869260e01b90565b825260049082905afa938415611d765786946000948591611ee5575b509061191385939261190e6119076000610355565b8213611584565b610355565b936001600160a01b037f0000000000000000000000000000000000000000000000000000000000000000166001600160a01b03881603611e0b577f00000000000000000000000000000000000000000000000000000000000000005b61197c858783858c613c73565b978689976119a161186861199a61199360056110d7565b600d610a44565b33906107b1565b936119ac60076110d7565b600090861015611e025750846119c260076110d7565b906119cc916115eb565b9b611a8b611a28611a219b8f96611a9795611a19611a13611a91976119fc6119f4611a9c9d90565b821115611606565b611a0d670de0b6b3a7640000610355565b9061165e565b8d613bae565b9e8f8d6115eb565b809a613c73565b9c6001600160a01b037f0000000000000000000000000000000000000000000000000000000000000000166001600160a01b038c1603611ddb577f0000000000000000000000000000000000000000000000000000000000000000945b8b613db8565b9261166d565b8b61167e565b61165e565b99611aa6866107a8565b94611ad6611ab3876107a8565b60206370a08231611ac3306107a8565b92611acd60405190565b94859260e01b90565b82526001600160a01b038416600483015260249082905afa928315611d76578f92948f958d95611b1191600091611dad575b508711156116a5565b15611d7b575050505050611b476118b97f00000000000000000000000000000000000000000000000000000000000000006107a8565b9163d0e30db092803b1561034d57611b65936000916118cd60405190565b8252600490829088905af18015611d76578b8096611bb48f958c96611baf611cdd9d611bc09a611bbb98611d50575b505b611b9f836107a8565b611ba960026114eb565b906143d4565b61409d565b33906143d4565b6116ea565b92611bda84611bd561199a61199360056110d7565b6114c7565b611be761035260076110d7565b8414611cf1575b611bfd42611bd533600e6107b1565b611c277ff0c71be01e59205b10ea5ae42439ab4504c7e3da732743531ff44e98bd9fd63f9a6107a8565b998a938492611c42611c3860405190565b92839287846116f7565b0390a27fc7e914640e860fbcf42ef4d9dceced8880d343828101f1fa389c7e1c06072817611c6f336107a8565b988992611c7e61068f60405190565b0390a3611c8b60076110d7565b600090821015611ce25750611ca990611ca460076110d7565b6115eb565b7f6150b0c0e0147233a3c4fcdece2c7f00253c80386e9a7af27493a02e9b2497e894611cd460405190565b9485948561171e565b0390a3565b611cec9150610355565b611ca9565b611cff6118683360106107b1565b611d0c61121b6000610355565b03611d3757611d32611d27425b611d21610362565b906116ea565b611bd533600f6107b1565b611bee565b611d32611d27611d4b6118683360106107b1565b611d19565b611d699060005b611d61818361150b565b810190610342565b38611b94565b503d611d57565b611578565b611bbb939585999293611baf611cdd9d611da88c611bc09c9a98611da1611bb4986107a8565b3390614441565b611b96565b611dce915060203d8111611dd4575b611dc6818361150b565b810190611691565b38611b08565b503d611dbc565b7f000000000000000000000000000000000000000000000000000000000000000094611a85565b6119cc90610355565b919250906001600160a01b037f0000000000000000000000000000000000000000000000000000000000000000166001600160a01b03871603611e7257908492917f000000000000000000000000000000000000000000000000000000000000000061196f565b94906020611e866118b9611e9595946107a8565b63313ce567906118cd60405190565b825260049082905afa958615611d765788968694600091611eb7575b5061196f565b611ed8915060203d8111611ede575b611ed0818361150b565b8101906115c1565b38611eb1565b503d611ec6565b6119139550611f0e915060409392933d8111611f17575b611f06818361150b565b810190611555565b949291926118f2565b503d611efc565b611f2d42611bd53360106107b1565b6118aa565b611f5142611f4a61121b61035261186833600f6107b1565b1015611476565b611880565b506001600160a01b038181167f000000000000000000000000000000000000000000000000000000000000000090911614611851565b50611fa434611f9e61121b6000610355565b1461130e565b6117fa565b839561179d565b9061037a949392916110b3565b61186861035291611fcc600090565b50600e6107b1565b60c05260a0529093929091611fec919060c051613f47565b9283611ffb6103ac6000611305565b60a0516001600160a01b0316036124da577f00000000000000000000000000000000000000000000000000000000000000005b61203b6112356008611132565b94856124bf575b8561205461181061180b85600b6107b1565b61209d7f00000000000000000000000000000000000000000000000000000000000000006001600160a01b0381166001600160a01b038816148015612489575b6103ac90611420565b6001600160a01b038416036123bd5761215e7f0000000000000000000000000000000000000000000000000000000000000000945b85966121047f00000000000000000000000000000000000000000000000000000000000000006001600160a01b031690565b6001600160a01b03821603612397577f00000000000000000000000000000000000000000000000000000000000000005b809460406121466118b9600a6114eb565b63a3e6ba949061215560405190565b97889260e01b90565b825260049082905afa8015611d76578b9589958b92600092839161236e575b508261219361219e9261190e6119076000610355565b8095819b839b613c73565b9b6121c36118686121ba600d6121b460056110d7565b90610a44565b60c051906107b1565b60106121d461186860c051836107b1565b6121e161121b6000610355565b1415908161234a575b5061233a575b6121fa60076110d7565b60009082101561232a575061221390611ca460076110d7565b955b600f61222661186860c051836107b1565b61223361121b6000610355565b1415908161230a575b508015612301575b6122d3575050505050508383928a969594838b949b612262916115eb565b998d612275670de0b6b3a7640000610355565b61227f908761165e565b61228891613bae565b60805281846080519f60805161229d916115eb565b9e8f6122a894613c73565b926122b292613db8565b906122bc8661166d565b6122c59161167e565b906122cf9161165e565b9095565b9950999b9a509b509b509b509b50505050506122ef6000610355565b94979685968680968196959493929190565b50868e11612244565b905061232361121b610352611868429460c051906107b1565b103861223c565b6123349150610355565b95612215565b506123456000610355565b6121f0565b905061236661121b610352611d19611868429560c051906107b1565b1015386121ea565b612193935061219e915061238f9060403d8111611f1757611f06818361150b565b93509061217d565b7f0000000000000000000000000000000000000000000000000000000000000000612135565b6001600160a01b037f0000000000000000000000000000000000000000000000000000000000000000166001600160a01b038416036124215761215e7f00000000000000000000000000000000000000000000000000000000000000005b946120d2565b61244a60206124326118b9866107a8565b63313ce5679061244160405190565b93849260e01b90565b825260049082905afa8015611d765761215e9160009161246b575b5061241b565b612483915060203d8111611ede57611ed0818361150b565b38612465565b506001600160a01b038781167f000000000000000000000000000000000000000000000000000000000000000090911614612094565b9450426124d261121b61035260066110d7565b101594612042565b60a05161202e565b600f6124f161186883836107b1565b9060009161250161121b84610355565b141590816125af575b506125715761252561186883610a63600d6121b460056110d7565b91601061253561186883836107b1565b61254161121b85610355565b1415918261258c575b505061257b575b61255b60076110d7565b821015612571575061035290611ca460076110d7565b6103529150610355565b905061258681610355565b90612551565b6125a6919250610352611d1961186861121b9342966107b1565b1015388061254a565b90506125c561121b6103526118688642956107b1565b103861250a565b6125f86118b97f00000000000000000000000000000000000000000000000000000000000000006107a8565b906370a0823191612608306107a8565b90602061261460405190565b80926126208760e01b90565b82526001600160a01b038516600483015260249082905afa918215611d76576126ad926020926000916126db575b509461269661267f6118b97f00000000000000000000000000000000000000000000000000000000000000006107a8565b9161268960405190565b9586948593849360e01b90565b83526001600160a01b031660048301526024820190565b03915afa908115611d76576000916126c3575090565b610352915060203d8111611dd457611dc6818361150b565b6126f29150833d8111611dd457611dc6818361150b565b3861264e565b6103529060081c610804565b61035290546126f8565b6103529060101c610858565b610352905461270e565b61272c6125cc565b909161273860056110d7565b9061274360066110d7565b936127516112356008611132565b93846127de575b846127a1575b505061276a6008611132565b9161277560076110d7565b916127806008612704565b9161278b600861271a565b9161279660096110d7565b919796959493929190565b909193506000916127b461121b84610355565b119182156127c7575b505091388061275e565b6127d691925061121b90610355565b1138806127bd565b9350426127f161121b61035260066110d7565b101593612758565b90612814612808610e0f845490565b92600052602060002090565b9060005b8181106128255750505090565b90919261285261284b60019261283a876114eb565b6001600160a01b0316815260200190565b9460010190565b929101612818565b90610352916127f9565b9061037a61287e9261287560405190565b9384809261285a565b038361150b565b61035290612864565b610352600c612885565b906128a7612808610e0f845490565b9060005b8181106128b85750505090565b9091926128d561284b6001926128cd876110d7565b815260200190565b9291016128ab565b9061035291612898565b9061037a61287e926128f860405190565b938480926128dd565b610352906128e7565b61035290610858565b6103529060201c610858565b6103529060301c610858565b6103529060401c610858565b6103529060501c610858565b6103529060601c610858565b6103529060701c610858565b6103529060801c610858565b6103529060901c610858565b6103529060a01c610858565b6103529060b01c610858565b6103529060c01c610858565b6103529060d01c610858565b6103529060e01c610858565b6103529060f01c610858565b906001906129d96129cd610e0f855490565b93600052602060002090565b600092612c4a575b6129ec565b50505090565b5490808310612c2d575b808310612c10575b808310612bf3575b808310612bd6575b808310612bb9575b808310612b9c575b808310612b7f575b808310612b62575b808310612b45575b808310612b28575b808310612b0b575b808310612aee575b808310612ad1575b808310612ab4575b808310612a97575b8210612a73575b806129e6565b82612a8e60019394612a866020946129af565b61ffff169052565b01910138612a6d565b9192602081612aab600193612a86866129a3565b01930191612a66565b9192602081612ac8600193612a8686612997565b01930191612a5e565b9192602081612ae5600193612a868661298b565b01930191612a56565b9192602081612b02600193612a868661297f565b01930191612a4e565b9192602081612b1f600193612a8686612973565b01930191612a46565b9192602081612b3c600193612a8686612967565b01930191612a3e565b9192602081612b59600193612a868661295b565b01930191612a36565b9192602081612b76600193612a868661294f565b01930191612a2e565b9192602081612b93600193612a8686612943565b01930191612a26565b9192602081612bb0600193612a8686612937565b01930191612a1e565b9192602081612bcd600193612a868661292b565b01930191612a16565b9192602081612bea600193612a868661291f565b01930191612a0e565b9192602081612c07600193612a8686612913565b01930191612a06565b9192602081612c24600193612a868661270e565b019301916129fe565b9192602081612c41600193612a868661290a565b019301916129f6565b600f83018211156129e1579283549080612c638361290a565b61ffff16905260200180612c768361270e565b61ffff16905260200180612c8983612913565b61ffff16905260200180612c9c8361291f565b61ffff16905260200180612caf8361292b565b61ffff16905260200180612cc283612937565b61ffff16905260200180612cd583612943565b61ffff16905260200180612ce88361294f565b61ffff16905260200180612cfb8361295b565b61ffff16905260200180612d0e83612967565b61ffff16905260200180612d2183612973565b61ffff16905260200180612d348361297f565b61ffff16905260200180612d478361298b565b61ffff16905260200180612d5a83612997565b61ffff16905260200180612d6d836129a3565b61ffff169052602001612d8081926129af565b61ffff169052602001926001019160100191612c4a565b90610352916129bb565b9061037a61287e92612db260405190565b93848092612d97565b61035290612da1565b601390610352612dd46012612901565b92612dbb565b61037a90612de66141c8565b612df9565b906114d76103526114de9290565b61037a906004612deb565b61037a90612dda565b9061037a91612e1a6141c8565b612ef8565b9060ff906114bd565b90612e386103526114de92151590565b8254612e1f565b60001981146116015760010190565b916001600160a01b0360089290920291821b911b6114bd565b921b90565b9190612e7d6103526114de936107a8565b908354612e4e565b634e487b7160e01b600052603160045260246000fd5b61037a91600091612e6c565b80548015612eca576000190190612ec7612ec183836106c2565b90612e9b565b55565b612e85565b90815491600160401b83101561152d5782612ef291600161037a950181556106c2565b90612e6c565b612f0c82612f0783600b6107b1565b612e28565b600091612f196000610355565b600c612f26610352825490565b82101561303957612f3a61072a83836106c2565b612f4c6001600160a01b0386166117e6565b14612f605750612f5b90612e3f565b612f19565b9293509091612f7d916001918291908515612ff1575b5050501590565b80612fea575b612fda575b7f24ac9305f628cc42ffe7a95d02adb6df8eaf4bd42d00b25165abd72d06bcfd1591612fd5612fb660405190565b6001600160a01b03909216825291151560208201529081906040820190565b0390a1565b612fe582600c612ecf565b612f88565b5080612f83565b61035261302c92612ef261302561072a61301f61303198613019613013895490565b91610355565b906115eb565b866106c2565b91846106c2565b612ea7565b388080612f76565b50509091612f7d901590565b9061037a91612e0d565b61037a9061305b6141c8565b613066816008612e28565b612fd57f152cbfe4e8597a33181d2da9ed5162e734ca8b263b9eb6105f169287a39908f69161084060405190565b61037a9061304f565b61037a906130a96141c8565b61037a9060076114c7565b61037a9061309d565b61037a906130c96141c8565b6130f4565b906001600160a01b03906114bd565b906130ed6103526114de926107a8565b82546130ce565b61310061037a916107a8565b600a6130dd565b61037a906130bd565b61037a9061311c6141c8565b61037a9060026130dd565b61037a90613110565b61037a9061313c6141c8565b61037a9060036130dd565b61037a90613130565b9061037a93929161315f6141c8565b61353e565b1561316b57565b60405162461bcd60e51b8152602060048201526012602482015271496e76616c69642066656520636f6e66696760701b6044820152606490fd5b9160001960089290920291821b911b6114bd565b91906131ca6103526114de93610355565b9083546131a5565b61037a916000916131b9565b8181106131e9575050565b806131f760006001936131d2565b016131de565b9061321090600019906020036008021c90565b8154169055565b909182811061322557505050565b61037a929061323390612808565b90810191016131de565b90600160401b811161152d578161325561037a935490565b90828155613217565b35610352816103d7565b9067ffffffffffffffff831161152d5761328b612808600192610352868661323d565b92049160005b83811061329e5750505050565b60019060206132af6103528661325e565b9401938184015501613291565b9061037a9291613268565b8181106132d2575050565b806132e060006001936131d2565b016132c7565b9190918282106132f557505050565b61037a92600290601090600f0181900461331b6010600f87010494600052602060002090565b938401930193060260008111613332575b506132c7565b61333f90600183036131fd565b3861332c565b90600160401b811161152d578161335d61037a935490565b908281556132e6565b61ffff81166103c3565b3561035281613366565b919060086114bd910291612e6761ffff841b90565b6108586103526103529261ffff1690565b919067ffffffffffffffff821161152d576128086133c2916103528486613345565b601082049160005b83811061342e5750601083029003600081116133e7575b50505050565b92600093845b818110613402575050500155388080806133e1565b90919460206134246001926134196103528a613370565b90856002029061337a565b96019291016133ed565b6000805b601081106134475750838201556001016133ca565b9590602061346860019261345d61035286613370565b908a6002029061337a565b92019601613432565b9061037a92916133a0565b9037565b8183529091602001916001600160fb1b03811161034d5782916020610dfc920293849161347c565b9050359061037a82613366565b506103529060208101906134a8565b818352602090920191906000825b8282106134e0575050505090565b9091929361350a6135036001926134f788866134b5565b61ffff16815260200190565b9560200190565b939201906134d2565b929061353090610352959360408601918683036000880152613480565b9260208185039101526134c4565b909192612fd59061356b61355c6135528690565b611d216001610355565b6135658361121b565b14613164565b613577848460126132bc565b61358381866013613471565b7f24c55ad2a025115594fa08832ae03860656fa82ab5a4b4fd2360f6eb8ef2717b946135ae60405190565b94859485613513565b9061037a939291613150565b9061037a916135d06141c8565b613611565b156135dc57565b60405162461bcd60e51b815260206004820152600d60248201526c139bdd081cdd5c1c1bdc9d1959609a1b6044820152606490fd5b90611bd561037a9261362f61362a61180b83600b6107b1565b6135d5565b60116107b1565b9061037a916135c3565b61037a9061364c6141c8565b613675565b9061ff009060081b6114bd565b9061366e6103526114de92151590565b8254613651565b61368081600861365e565b612fd57ff6ee9fe93f292c45a3307220efbeeb1a744895ca22e3bee59a77e8077dbb9b3b9161084060405190565b61037a90613640565b61037a906136c36141c8565b61374a565b156136cf57565b60405162461bcd60e51b8152602060048201526011602482015270151bdad95b881b9bdd08185b1b1bddd959607a1b6044820152606490fd5b1561370f57565b60405162461bcd60e51b81526020600482015260136024820152724e6f7468696e6720746f20776974686472617760681b6044820152606490fd5b61379c6137d0916137817f00000000000000000000000000000000000000000000000000000000000000006001600160a01b031690565b6001600160a01b038216148015613826575b6118b9906136c8565b60206137a7826107a8565b6370a08231906126966137b9306107a8565b926137c360405190565b9687948593849360e01b90565b03915afa908115611d765761037a92600092613806575b506137fc6137f56000610355565b8311613708565b611ba960036114eb565b61381f91925060203d8111611dd457611dc6818361150b565b90386137e7565b506001600160a01b038181167f000000000000000000000000000000000000000000000000000000000000000090911614613793565b61037a906136b7565b61037a906138716141c8565b613920565b1561387d57565b60405162461bcd60e51b8152602060048201526016602482015275526f756e64204944206d75737420696e63726561736560501b6044820152606490fd5b9063ffff00009060101b6114bd565b906138da6103526114de9261338f565b82546138bb565b9064ff000000009060201b6114bd565b906139016103526114de92151590565b82546138e1565b61ffff909116815260408101929161037a9160200152565b61393761393061035260056110d7565b8211613876565b61393f6125cc565b916139ae600061394e81610355565b84118015613b68575b613960906111bd565b61396b8360056114c7565b6139906139894261397c6008612704565b15613b5f57611d21610362565b60066114c7565b604061399f6118b9600a6114eb565b63a3e6ba9490611acd60405190565b825260049082905afa918215611d7657613a7b926119fc926000928392613b2c575b50611d219161190e6119076139e493610355565b91613a3281847f00000000000000000000000000000000000000000000000000000000000000008a7f0000000000000000000000000000000000000000000000000000000000000000613c73565b927f0000000000000000000000000000000000000000000000000000000000000000897f0000000000000000000000000000000000000000000000000000000000000000613c73565b613a8e613a8782613bfa565b60086138ca565b613a998160096114c7565b613aa5600160086138f1565b613aaf600861271a565b907ff121f4a7f16537a53a88f6bdceb7f1d8e6d6afb2a0ddae0ad3d241960a31cb2390613adb84610355565b92613af1613ae860405190565b92839283613908565b0390a2612fd5613b0160066110d7565b7f1a1ee66c2455254feac7d7ae83f4704fb8cbe6a92ad835371c69dfaa7b48ed9294611cd460405190565b6119079350611d2192509061190e613b546139e49360403d8111611f1757611f06818361150b565b9550935050906139d0565b611d2184610355565b50613960613b7582610355565b86119050613957565b61037a90613865565b6103529060201c610804565b6103529054613b87565b6103526103526103529261ffff1690565b613be79061035292613bbe600090565b50613bc96008613b93565b15613bf25750613be1613bdc600861271a565b613b9d565b9061167e565b611a0d612710610355565b613bdc613be1915b613c046000610355565b6012613c11610352825490565b821015613c4d576103526109e883613c28936106c2565b821115613c3d57613c3890612e3f565b613c04565b6103529150610cb5906013610c6b565b505050610352610cb56013613c6d613c63825490565b6130196001610355565b90610c6b565b90939291906001600160a01b037f0000000000000000000000000000000000000000000000000000000000000000166001600160a01b03821603613ce35750611a0d91613cde613cd892611a0d613cd861035298613be1670de0b6b3a7640000610355565b9161166d565b61167e565b91509150613d177f00000000000000000000000000000000000000000000000000000000000000006001600160a01b031690565b6001600160a01b03821603613d425750611a0d613cd861035293613be1670de0b6b3a7640000610355565b6011613d5161186883836107b1565b613d5e61121b6000610355565b1115613d7b5761035293613be1611868611a0d94613cd8946107b1565b60405162461bcd60e51b81526020600482015260156024820152742ab739bab83837b93a32b2103b30b63ab0ba34b7b760591b6044820152606490fd5b9091906001600160a01b037f0000000000000000000000000000000000000000000000000000000000000000166001600160a01b03821603613e0857505050610352670de0b6b3a7640000610355565b613e3a6001600160a01b037f0000000000000000000000000000000000000000000000000000000000000000166117e6565b03613e5a57611a0d613cd861035293613be1670de0b6b3a7640000610355565b60405162461bcd60e51b815260206004820152601860248201527f556e737570706f727465642072656465656d20746f6b656e00000000000000006044820152606490fd5b610376906001600160a01b031660601b90565b610dfc81601493613e9f565b9061037a613ecb60405190565b928361150b565b67ffffffffffffffff811161152d5760208091020190565b90929192613eff613efa82613ed2565b613ebe565b938185526020808601920283019281841161034d57915b838310613f235750505050565b60208091613f3184866103dd565b815201920191613f16565b610352913691613eea565b613fa361035293613f56600090565b50613f6160046110d7565b92613f8a613f6e60405190565b8092613f7e602083019182613eb2565b9081038252038261150b565b613f9c613f95825190565b9160200190565b2093613f3c565b6147d3565b600f613fb761186883836107b1565b90600091613fc761121b84610355565b141580614081575b6140485750601090613fe461186884846107b1565b613ff061121b83610355565b141580614029575b61400157505050565b61037a92614011611bd592610355565b92610a6384611bd584610a63600d6121b460056110d7565b504261404161121b610352611d1961186888886107b1565b1015613ff8565b8261407a611bd592611bd561406061037a9796610355565b958692610a6384611bd584610a63600d6121b460056110d7565b60106107b1565b504261409661121b61035261186887866107b1565b1015613fcf565b60006140a881610355565b8314614169576140ba6118b9836107a8565b906342966c6891803b1561034d576140d7928291611acd60405190565b825260048201879052602490829084905af1918261414c575b5050156140fb575050565b61411082614108836107a8565b61dead611ba9565b61414761413d7fa398d5f9f871dba811072f1e7c36829d2ccca834f3d7fb05ab4e64563c645d32926107a8565b9261039b60405190565b0390a2565b8161416292903d10611d6f57611d61818361150b565b38806140f0565b505050565b61035260006114eb565b1561417f57565b60405162461bcd60e51b815280611125600482016020808252818101527f4f776e61626c653a2063616c6c6572206973206e6f7420746865206f776e6572604082015260600190565b61037a6141d361416e565b6141df6117e6336103ac565b14614178565b6141ed6141c8565b61037a61037a6141fd6000611305565b6142a4565b61037a6141e5565b61037a906142166141c8565b614276565b1561422257565b60405162461bcd60e51b815260206004820152602660248201527f4f776e61626c653a206e6577206f776e657220697320746865207a65726f206160448201526564647265737360d01b6064820152608490fd5b61037a906141fd61428a6103ac6000611305565b6001600160a01b038316141561421b565b61037a9061420a565b6142ae60006114eb565b906142ba8160006130dd565b6142ed6142e77f8be0079c531659141344cd1fd0a4f28419497f9722a3daafe3b4186f6b6457e0936107a8565b916107a8565b916142f760405190565b8080611cdd565b6103526002610355565b1561430f57565b60405162461bcd60e51b815260206004820152601f60248201527f5265656e7472616e637947756172643a207265656e7472616e742063616c6c006044820152606490fd5b61037a61436160016110d7565b61437561436c6142fe565b91821415614308565b60016114c7565b6103526001610355565b61037a61437561437c565b6143aa6143a46103529263ffffffff1690565b60e01b90565b6001600160e01b03191690565b6001600160a01b03909116815260408101929161037a9160200152565b61441760049261440861037a956143ee63a9059cbb614391565b926143f860405190565b96879460208601908152016143b7565b6020820181038252038361150b565b614561565b6001600160a01b03909116815260608101939261037a9290916040916106669061170e565b906144179061440861037a9560049561445d6323b872dd614391565b9361446760405190565b978895602087019081520161441c565b67ffffffffffffffff811161152d57602090601f01601f19160190565b906144a1613efa83614477565b918252565b6144b06020614494565b7f5361666545524332303a206c6f772d6c6576656c2063616c6c206661696c6564602082015290565b6103526144a6565b9050519061037a82610612565b9060208282031261034d57610352916144e1565b1561450957565b60405162461bcd60e51b815260206004820152602a60248201527f5361666545524332303a204552433230206f7065726174696f6e20646964206e6044820152691bdd081cdd58d8d9595960b21b6064820152608490fd5b61037a91614571614580926107a8565b9061457a6144d9565b916145be565b805161458f61121b6000610355565b1490811561459e575b50614502565b6145b8915060206145ad825190565b8183010191016144ee565b38614598565b61035292916145cd6000610355565b9161464d565b156145da57565b60405162461bcd60e51b815260206004820152602660248201527f416464726573733a20696e73756666696369656e742062616c616e636520666f6044820152651c8818d85b1b60d21b6064820152608490fd5b3d156146485761463d3d614494565b903d6000602084013e565b606090565b9060006103529493819261465f606090565b5061467661466c306107a8565b83903110156145d3565b60208101905191855af161468861462e565b916146da565b1561469557565b60405162461bcd60e51b815260206004820152601d60248201527f416464726573733a2063616c6c20746f206e6f6e2d636f6e74726163740000006044820152606490fd5b9192901561470c575081516146f261121b6000610355565b146146fb575090565b61470761035291614712565b61468e565b8261478c565b3b61472061121b6000610355565b1190565b60005b8381106147375750506000910152565b8181015183820152602001614727565b614768614771602093610dfc9361475c815190565b80835293849260200190565b95869101614724565b601f01601f191690565b602080825261035292910190614747565b90614795825190565b6147a261121b6000610355565b11156147b15750805190602001fd5b611125906147be60405190565b62461bcd60e51b81529182916004830161477b565b6115f26147ed929361121b926147e7600090565b5061480b565b1490565b906147fa825190565b8110156106e5576020809102010190565b6148156000610355565b915b614822610352835190565b8310156148535761484761484d9161484161483d86866147f1565b5190565b90614859565b92612e3f565b91614817565b91505090565b81811015614874579061035291600052602052604060002090565b6103529160005260205260406000209056fea264697066735822122042cfb48c71c9e74bc2e7f997f87b9da417e00cedd1d9b770dc2a15463892360064736f6c63430008120033",
  "linkReferences": {},
  "deployedLinkReferences": {}
}