{
  "_format": "hh-sol-artifact-1",
  "contractName": "RecoveryVault",
  "sourceName": "contracts/RecoveryVault.sol",
  "abi": [
    {
      "inputs": [
        {
          "internalType": "address",
          "name": "_owner",
          "type": "address"
        },
        {
          "internalType": "address",
          "name": "_devWallet",
          "type": "address"
        },
        {
          "internalType": "address",
          "name": "_rmcWallet",
          "type": "address"
        },
        {
          "internalType": "address",
          "name": "_wone",
          "type": "address"
        },
        {
          "internalType": "address",
          "name": "_usdc",
          "type": "address"
        },
        {
          "internalType": "address[]",
          "name": "_supportedTokens",
          "type": "address[]"
        },
        {
          "internalType": "uint256",
          "name": "_dailyLimitUsd",
          "type": "uint256"
        },
        {
          "internalType": "address",
          "name": "_oracle",
          "type": "address"
        }
      ],
      "stateMutability": "nonpayable",
      "type": "constructor"
    },
    {
      "anonymous": false,
      "inputs": [
        {
          "indexed": true,
          "internalType": "address",
          "name": "tokenIn",
          "type": "address"
        },
        {
          "indexed": false,
          "internalType": "uint256",
          "name": "amountIn",
          "type": "uint256"
        },
        {
          "indexed": false,
          "internalType": "address",
          "name": "refundToken",
          "type": "address"
        },
        {
          "indexed": false,
          "internalType": "uint256",
          "name": "amountOut",
          "type": "uint256"
        }
      ],
      "name": "BurnToken",
      "type": "event"
    },
    {
      "anonymous": false,
      "inputs": [
        {
          "indexed": false,
          "internalType": "uint256[]",
          "name": "thresholds",
          "type": "uint256[]"
        },
        {
          "indexed": false,
          "internalType": "uint16[]",
          "name": "bps",
          "type": "uint16[]"
        }
      ],
      "name": "FeeTiersUpdated",
      "type": "event"
    },
    {
      "anonymous": false,
      "inputs": [
        {
          "indexed": false,
          "internalType": "uint256",
          "name": "roundId",
          "type": "uint256"
        },
        {
          "indexed": false,
          "internalType": "uint256",
          "name": "woneBalance",
          "type": "uint256"
        },
        {
          "indexed": false,
          "internalType": "uint256",
          "name": "usdcBalance",
          "type": "uint256"
        },
        {
          "indexed": false,
          "internalType": "uint256",
          "name": "startTime",
          "type": "uint256"
        }
      ],
      "name": "NewRoundStarted",
      "type": "event"
    },
    {
      "anonymous": false,
      "inputs": [
        {
          "indexed": true,
          "internalType": "address",
          "name": "previousOwner",
          "type": "address"
        },
        {
          "indexed": true,
          "internalType": "address",
          "name": "newOwner",
          "type": "address"
        }
      ],
      "name": "OwnershipTransferred",
      "type": "event"
    },
    {
      "anonymous": false,
      "inputs": [
        {
          "indexed": true,
          "internalType": "address",
          "name": "user",
          "type": "address"
        },
        {
          "indexed": true,
          "internalType": "address",
          "name": "tokenIn",
          "type": "address"
        },
        {
          "indexed": false,
          "internalType": "uint256",
          "name": "amountIn",
          "type": "uint256"
        },
        {
          "indexed": false,
          "internalType": "uint256",
          "name": "amountOut",
          "type": "uint256"
        }
      ],
      "name": "RedeemProcessed",
      "type": "event"
    },
    {
      "anonymous": false,
      "inputs": [
        {
          "indexed": false,
          "internalType": "address",
          "name": "token",
          "type": "address"
        },
        {
          "indexed": false,
          "internalType": "bool",
          "name": "allowed",
          "type": "bool"
        }
      ],
      "name": "SupportedTokenUpdated",
      "type": "event"
    },
    {
      "anonymous": false,
      "inputs": [
        {
          "indexed": false,
          "internalType": "bool",
          "name": "isPaused",
          "type": "bool"
        }
      ],
      "name": "VaultPaused",
      "type": "event"
    },
    {
      "inputs": [],
      "name": "ROUND_DELAY",
      "outputs": [
        {
          "internalType": "uint256",
          "name": "",
          "type": "uint256"
        }
      ],
      "stateMutability": "view",
      "type": "function"
    },
    {
      "inputs": [],
      "name": "WALLET_RESET_INTERVAL",
      "outputs": [
        {
          "internalType": "uint256",
          "name": "",
          "type": "uint256"
        }
      ],
      "stateMutability": "view",
      "type": "function"
    },
    {
      "inputs": [],
      "name": "currentRound",
      "outputs": [
        {
          "internalType": "uint256",
          "name": "",
          "type": "uint256"
        }
      ],
      "stateMutability": "view",
      "type": "function"
    },
    {
      "inputs": [],
      "name": "dailyLimitUsd",
      "outputs": [
        {
          "internalType": "uint256",
          "name": "",
          "type": "uint256"
        }
      ],
      "stateMutability": "view",
      "type": "function"
    },
    {
      "inputs": [],
      "name": "devWallet",
      "outputs": [
        {
          "internalType": "address",
          "name": "",
          "type": "address"
        }
      ],
      "stateMutability": "view",
      "type": "function"
    },
    {
      "inputs": [
        {
          "internalType": "uint256",
          "name": "",
          "type": "uint256"
        }
      ],
      "name": "feeBps",
      "outputs": [
        {
          "internalType": "uint16",
          "name": "",
          "type": "uint16"
        }
      ],
      "stateMutability": "view",
      "type": "function"
    },
    {
      "inputs": [
        {
          "internalType": "uint256",
          "name": "",
          "type": "uint256"
        }
      ],
      "name": "feeThresholds",
      "outputs": [
        {
          "internalType": "uint256",
          "name": "",
          "type": "uint256"
        }
      ],
      "stateMutability": "view",
      "type": "function"
    },
    {
      "inputs": [],
      "name": "getFeeTiers",
      "outputs": [
        {
          "internalType": "uint256[]",
          "name": "thresholds",
          "type": "uint256[]"
        },
        {
          "internalType": "uint16[]",
          "name": "bpsOut",
          "type": "uint16[]"
        }
      ],
      "stateMutability": "view",
      "type": "function"
    },
    {
      "inputs": [],
      "name": "getRoundInfo",
      "outputs": [
        {
          "internalType": "uint256",
          "name": "roundId",
          "type": "uint256"
        },
        {
          "internalType": "uint256",
          "name": "startTime",
          "type": "uint256"
        },
        {
          "internalType": "bool",
          "name": "isActive",
          "type": "bool"
        },
        {
          "internalType": "bool",
          "name": "paused",
          "type": "bool"
        },
        {
          "internalType": "uint256",
          "name": "limitUsd",
          "type": "uint256"
        }
      ],
      "stateMutability": "view",
      "type": "function"
    },
    {
      "inputs": [],
      "name": "getSupportedTokens",
      "outputs": [
        {
          "internalType": "address[]",
          "name": "",
          "type": "address[]"
        }
      ],
      "stateMutability": "view",
      "type": "function"
    },
    {
      "inputs": [
        {
          "internalType": "address",
          "name": "wallet",
          "type": "address"
        }
      ],
      "name": "getUserLimit",
      "outputs": [
        {
          "internalType": "uint256",
          "name": "remainingUSD",
          "type": "uint256"
        }
      ],
      "stateMutability": "view",
      "type": "function"
    },
    {
      "inputs": [],
      "name": "getVaultBalances",
      "outputs": [
        {
          "internalType": "uint256",
          "name": "woneBalance",
          "type": "uint256"
        },
        {
          "internalType": "uint256",
          "name": "usdcBalance",
          "type": "uint256"
        }
      ],
      "stateMutability": "view",
      "type": "function"
    },
    {
      "inputs": [],
      "name": "isLocked",
      "outputs": [
        {
          "internalType": "bool",
          "name": "",
          "type": "bool"
        }
      ],
      "stateMutability": "view",
      "type": "function"
    },
    {
      "inputs": [
        {
          "internalType": "address",
          "name": "",
          "type": "address"
        }
      ],
      "name": "lastRedeemTimestamp",
      "outputs": [
        {
          "internalType": "uint256",
          "name": "",
          "type": "uint256"
        }
      ],
      "stateMutability": "view",
      "type": "function"
    },
    {
      "inputs": [],
      "name": "merkleRoot",
      "outputs": [
        {
          "internalType": "bytes32",
          "name": "",
          "type": "bytes32"
        }
      ],
      "stateMutability": "view",
      "type": "function"
    },
    {
      "inputs": [],
      "name": "oracle",
      "outputs": [
        {
          "internalType": "contract IOracle",
          "name": "",
          "type": "address"
        }
      ],
      "stateMutability": "view",
      "type": "function"
    },
    {
      "inputs": [],
      "name": "owner",
      "outputs": [
        {
          "internalType": "address",
          "name": "",
          "type": "address"
        }
      ],
      "stateMutability": "view",
      "type": "function"
    },
    {
      "inputs": [
        {
          "internalType": "address",
          "name": "user",
          "type": "address"
        },
        {
          "internalType": "address",
          "name": "tokenIn",
          "type": "address"
        },
        {
          "internalType": "uint256",
          "name": "amountIn",
          "type": "uint256"
        },
        {
          "internalType": "address",
          "name": "redeemIn",
          "type": "address"
        },
        {
          "internalType": "bytes32[]",
          "name": "proof",
          "type": "bytes32[]"
        }
      ],
      "name": "quoteRedeem",
      "outputs": [
        {
          "internalType": "bool",
          "name": "whitelisted",
          "type": "bool"
        },
        {
          "internalType": "bool",
          "name": "roundIsActive",
          "type": "bool"
        },
        {
          "internalType": "uint256",
          "name": "feeAmount",
          "type": "uint256"
        },
        {
          "internalType": "uint256",
          "name": "refundAmount",
          "type": "uint256"
        },
        {
          "internalType": "uint256",
          "name": "userLimitUsdBefore",
          "type": "uint256"
        },
        {
          "internalType": "uint256",
          "name": "userLimitUsdAfter",
          "type": "uint256"
        },
        {
          "internalType": "uint256",
          "name": "usdValue",
          "type": "uint256"
        },
        {
          "internalType": "uint8",
          "name": "tokenInDecimals",
          "type": "uint8"
        },
        {
          "internalType": "uint8",
          "name": "redeemInDecimals",
          "type": "uint8"
        },
        {
          "internalType": "uint256",
          "name": "oraclePrice",
          "type": "uint256"
        },
        {
          "internalType": "uint8",
          "name": "oracleDecimals",
          "type": "uint8"
        }
      ],
      "stateMutability": "view",
      "type": "function"
    },
    {
      "inputs": [
        {
          "internalType": "address",
          "name": "tokenIn",
          "type": "address"
        },
        {
          "internalType": "uint256",
          "name": "amountIn",
          "type": "uint256"
        },
        {
          "internalType": "address",
          "name": "redeemIn",
          "type": "address"
        },
        {
          "internalType": "bytes32[]",
          "name": "proof",
          "type": "bytes32[]"
        }
      ],
      "name": "redeem",
      "outputs": [],
      "stateMutability": "nonpayable",
      "type": "function"
    },
    {
      "inputs": [
        {
          "internalType": "uint256",
          "name": "",
          "type": "uint256"
        },
        {
          "internalType": "address",
          "name": "",
          "type": "address"
        }
      ],
      "name": "redeemedInRound",
      "outputs": [
        {
          "internalType": "uint256",
          "name": "",
          "type": "uint256"
        }
      ],
      "stateMutability": "view",
      "type": "function"
    },
    {
      "inputs": [],
      "name": "renounceOwnership",
      "outputs": [],
      "stateMutability": "nonpayable",
      "type": "function"
    },
    {
      "inputs": [],
      "name": "rmcWallet",
      "outputs": [
        {
          "internalType": "address",
          "name": "",
          "type": "address"
        }
      ],
      "stateMutability": "view",
      "type": "function"
    },
    {
      "inputs": [],
      "name": "roundStart",
      "outputs": [
        {
          "internalType": "uint256",
          "name": "",
          "type": "uint256"
        }
      ],
      "stateMutability": "view",
      "type": "function"
    },
    {
      "inputs": [
        {
          "internalType": "uint256",
          "name": "usdAmount",
          "type": "uint256"
        }
      ],
      "name": "setDailyLimit",
      "outputs": [],
      "stateMutability": "nonpayable",
      "type": "function"
    },
    {
      "inputs": [
        {
          "internalType": "address",
          "name": "wallet",
          "type": "address"
        }
      ],
      "name": "setDevWallet",
      "outputs": [],
      "stateMutability": "nonpayable",
      "type": "function"
    },
    {
      "inputs": [
        {
          "internalType": "uint256[]",
          "name": "thresholds",
          "type": "uint256[]"
        },
        {
          "internalType": "uint16[]",
          "name": "bps",
          "type": "uint16[]"
        }
      ],
      "name": "setFeeTiers",
      "outputs": [],
      "stateMutability": "nonpayable",
      "type": "function"
    },
    {
      "inputs": [
        {
          "internalType": "bool",
          "name": "_status",
          "type": "bool"
        }
      ],
      "name": "setLocked",
      "outputs": [],
      "stateMutability": "nonpayable",
      "type": "function"
    },
    {
      "inputs": [
        {
          "internalType": "bytes32",
          "name": "_root",
          "type": "bytes32"
        }
      ],
      "name": "setMerkleRoot",
      "outputs": [],
      "stateMutability": "nonpayable",
      "type": "function"
    },
    {
      "inputs": [
        {
          "internalType": "address",
          "name": "_oracle",
          "type": "address"
        }
      ],
      "name": "setOracle",
      "outputs": [],
      "stateMutability": "nonpayable",
      "type": "function"
    },
    {
      "inputs": [
        {
          "internalType": "address",
          "name": "wallet",
          "type": "address"
        }
      ],
      "name": "setRmcWallet",
      "outputs": [],
      "stateMutability": "nonpayable",
      "type": "function"
    },
    {
      "inputs": [
        {
          "internalType": "address",
          "name": "token",
          "type": "address"
        },
        {
          "internalType": "bool",
          "name": "allowed",
          "type": "bool"
        }
      ],
      "name": "setSupportedToken",
      "outputs": [],
      "stateMutability": "nonpayable",
      "type": "function"
    },
    {
      "inputs": [
        {
          "internalType": "uint256",
          "name": "_roundId",
          "type": "uint256"
        }
      ],
      "name": "startNewRound",
      "outputs": [],
      "stateMutability": "nonpayable",
      "type": "function"
    },
    {
      "inputs": [
        {
          "internalType": "address",
          "name": "",
          "type": "address"
        }
      ],
      "name": "supportedToken",
      "outputs": [
        {
          "internalType": "bool",
          "name": "",
          "type": "bool"
        }
      ],
      "stateMutability": "view",
      "type": "function"
    },
    {
      "inputs": [
        {
          "internalType": "uint256",
          "name": "",
          "type": "uint256"
        }
      ],
      "name": "supportedTokenList",
      "outputs": [
        {
          "internalType": "address",
          "name": "",
          "type": "address"
        }
      ],
      "stateMutability": "view",
      "type": "function"
    },
    {
      "inputs": [
        {
          "internalType": "address",
          "name": "newOwner",
          "type": "address"
        }
      ],
      "name": "transferOwnership",
      "outputs": [],
      "stateMutability": "nonpayable",
      "type": "function"
    },
    {
      "inputs": [],
      "name": "usdc",
      "outputs": [
        {
          "internalType": "address",
          "name": "",
          "type": "address"
        }
      ],
      "stateMutability": "view",
      "type": "function"
    },
    {
      "inputs": [],
      "name": "wONE",
      "outputs": [
        {
          "internalType": "address",
          "name": "",
          "type": "address"
        }
      ],
      "stateMutability": "view",
      "type": "function"
    },
    {
      "inputs": [
        {
          "internalType": "address",
          "name": "token",
          "type": "address"
        }
      ],
      "name": "withdrawFunds",
      "outputs": [],
      "stateMutability": "nonpayable",
      "type": "function"
    }
  ],
  "bytecode": "0x60c0604052346200006857620000286200001862000234565b96959095949194939293620007c9565b60405161337862000a9e8239608051818181610480015281816117a8015261232c015260a0518181816106d7015281816118a401526123b0015261337890f35b600080fd5b634e487b7160e01b600052604160045260246000fd5b90601f01601f191681019081106001600160401b03821117620000a557604052565b6200006d565b90620000c2620000ba60405190565b928362000083565b565b6001600160a01b031690565b90565b6001600160a01b0381165b036200006857565b90505190620000c282620000d3565b6001600160401b038111620000a55760208091020190565b90929192620001266200012082620000f5565b620000ab565b93818552602080860192028301928184116200006857915b8383106200014c5750505050565b602080916200015c8486620000e6565b8152019201916200013e565b9080601f8301121562000068578151620000d0926020016200010d565b80620000de565b90505190620000c28262000185565b610100818303126200006857620001b38282620000e6565b92620001c38360208401620000e6565b92604090620001d581838601620000e6565b93620001e58260608301620000e6565b93620001f58360808401620000e6565b9360018060a0850151921b03811162000068576200021a84620000d092850162000168565b936200022a8160c086016200018c565b9360e001620000e6565b6200025762003e16803803806200024b81620000ab565b9283398101906200019b565b9091929394959697565b6001600160401b038111620000a55760200290565b62000120620000d09162000261565b62000295620000d0620000d09290565b6001600160501b031690565b634e487b7160e01b600052601160045260246000fd5b9160001960089290920291821b911b620002d1565b921b90565b9181191691161790565b620000d0620000d0620000d09290565b919062000300620000d06200030993620002db565b908354620002b7565b9055565b620000c291600091620002eb565b81811062000327575050565b806200033760006001936200030d565b016200031b565b906200035290600019906020036008021c90565b8154169055565b90918281106200036857505050565b620000c2929062000380905b92600052602060002090565b90810191016200031b565b90680100000000000000008111620000a55781620003ab620000c2935490565b9082815562000359565b600391620003cf62000374600192620000d086866200038b565b92049160005b838110620003e35750505050565b6001906020620003fe620000d086516001600160501b031690565b9401938184015501620003d5565b90620000c291620003b5565b62000428620000d0620000d09290565b60ff1690565b8181106200043a575050565b806200044a60006001936200030d565b016200042e565b9190918282106200046157505050565b620000c292600290601090600f01819004620004896010600f87010494600052602060002090565b938401930193060260008111620004a2575b506200042e565b620004b190600183036200033e565b386200049b565b90680100000000000000008111620000a55781620004d8620000c2935490565b9082815562000451565b91906008620002d1910291620002cc61ffff841b90565b90600490620003746200051291620000d08486620004b8565b601082049160005b8381106200058957506010830290036000811162000539575b50505050565b92600093845b818110620005565750505001553880808062000533565b90919460206200057e60019262000572620000d08a5160ff1690565b908560020290620004e2565b96019291016200053f565b6000805b60108110620005a45750838201556001016200051a565b95906020620005cb600192620005bf620000d0865160ff1690565b908a60020290620004e2565b920196016200058d565b90620000c291620004f9565b906001600160a01b0390620002d1565b620000d090620000c4906001600160a01b031682565b620000d090620005f1565b620000d09062000607565b9062000631620000d0620003099262000612565b8254620005e1565b9060001990620002d1565b9062000658620000d06200030992620002db565b825462000639565b90610100600160a81b039060081b620002d1565b9062000688620000d0620003099262000612565b825462000660565b6000198114620006a05760010190565b620002a1565b634e487b7160e01b600052603260045260246000fd5b90620006c6825190565b811015620006d8576020809102010190565b620006a6565b90620006ea9062000612565b600052602052604060002090565b9060ff90620002d1565b9062000715620000d06200030992151590565b8254620006f8565b8054821015620006d85762000739600191600052602060002090565b91020190600090565b916001600160a01b0360089290920291821b911b620002d1565b919062000771620000d0620003099362000612565b90835462000742565b9081549168010000000000000000831015620000a55782620007a6916001620000c2950181556200071d565b906200075c565b6001600160a01b03919091168152901515602082015260400190565b959392919097969497620007dc620009f9565b620007e8600362000276565b620007fd69152d02c7e14af680000062000285565b6001600160501b031681526200081d6934f086f3b33b6840000062000285565b6001600160501b031660208201526200084069d3c21bcecceda100000062000285565b6001600160501b031660408201526200085b90600d6200040c565b62000867600462000276565b9662000874606462000418565b60ff16885262000885603262000418565b60ff16602089015262000899601962000418565b60ff166040890152600a97620008af8962000418565b60ff166060820152620008c490600e620005d5565b620008cf9062000a3b565b620008dc9060026200061d565b620008e99060036200061d565b60805260a052620008fc90600762000644565b620009079062000612565b6200091490600862000674565b620009206000620002db565b6200092d620000d0855190565b811015620009e757620009e190600162000971816200096b60096200096462000957878c620006bc565b516001600160a01b031690565b90620006de565b62000702565b6200098d846200098662000957858a620006bc565b906200077a565b6200099d620009578388620006bc565b907f24ac9305f628cc42ffe7a95d02adb6df8eaf4bd42d00b25165abd72d06bcfd1591620009d8620009ce60405190565b92839283620007ad565b0390a162000690565b62000920565b50509050565b620000d06001620002db565b62000a0362000a19565b620000c262000a11620009ed565b600162000644565b620000c23362000a3b565b620000d090620000c4565b620000d0905462000a24565b62000a47600062000a2f565b9062000a558160006200061d565b62000a8c62000a857f8be0079c531659141344cd1fd0a4f28419497f9722a3daafe3b4186f6b6457e09362000612565b9162000612565b9162000a9760405190565b600090a356fe6080604052600436101561001257600080fd5b60003560e01c80631073e2a7146101eb578063178906bf1461026d578063196b004b146102685780631efb1aa6146102635780631f53ac021461025e578063211e28b61461025957806322370685146102545780632b60c8221461024f5780632eb4a7ab1461024a5780633e413bee1461024557806340365852146102405780634615102c1461023b578063589db8d41461023657806368742da61461023157806369c5b5e61461022c578063715018a61461022757806373a1a252146102225780637adbf9731461021d5780637cb64759146102185780637dc0d1d01461021357806384bc76a61461020e5780638a19c8bc146102095780638da5cb5b146102045780638ea5220f146101ff5780639eee94a8146101fa578063a060cc21146101f5578063a4e2d634146101f0578063ad655ef6146101eb578063b20d30a9146101e6578063ca26c532146101e1578063d3c7c2c7146101dc578063d6691e47146101d7578063e2c6e438146101d2578063e7986466146101cd578063e9587e86146101c8578063e9a4d24f146101c3578063f2fde38b146101be5763fe531ab40361027d57610d9d565b610d85565b610d57565b610c97565b610c7e565b610c40565b610c0e565b610bdb565b610b4b565b610b27565b6102ac565b610af9565b610aa3565b610a1c565b6109b7565b610990565b610975565b610938565b6108d4565b610897565b61087f565b610863565b610804565b6107e9565b6107aa565b61078f565b610722565b610707565b6106c2565b6106a7565b61066a565b6105a1565b610572565b610531565b6104fc565b61046b565b610411565b600091031261027d57565b600080fd5b61028f61028f61028f9290565b90565b61028f62015180610282565b61028f610292565b9052565b565b3461027d576102bc366004610272565b6102d76102c761029e565b6040519182918290815260200190565b0390f35b6001600160a01b031690565b6102f0816102db565b0361027d57565b905035906102aa826102e7565b806102f0565b905035906102aa82610304565b909182601f8301121561027d5781359167ffffffffffffffff831161027d57602001926020830284011161027d57565b91909160a08184031261027d5761035e83826102f7565b9261036c81602084016102f7565b9261037a826040850161030a565b9261038883606083016102f7565b92608082013567ffffffffffffffff811161027d576103a79201610317565b9091565b98969492909b9a99979593916101608a019c60008b016103cb9115159052565b151560208a015260408901526060880152608087015260a086015260c085015260ff1660e084015260ff16610100830152610120820152610140016102aa9160ff169052565b3461027d576102d7610433610427366004610347565b94939093929192611eb0565b976104499b999b97919796929695939560405190565b9b8c9b8c6103ab565b6102a6906102db565b6020810192916102aa9190610452565b3461027d5761047b366004610272565b6102d77f00000000000000000000000000000000000000000000000000000000000000005b6040519182918261045b565b9060808282031261027d576104c181836102f7565b926104cf826020850161030a565b926104dd83604083016102f7565b92606082013567ffffffffffffffff811161027d576103a79201610317565b3461027d5761051861050f3660046104ac565b93929092611d75565b604051005b9060208282031261027d5761028f916102f7565b3461027d5761051861054436600461051d565b6111c7565b8015156102f0565b905035906102aa82610549565b9060208282031261027d5761028f91610551565b3461027d5761051861058536600461055e565b6110f0565b9081526040810192916102aa9160200152565b0152565b3461027d576105b1366004610272565b6105b9612324565b906102d76105c660405190565b9283928361058a565b9060208282031261027d5761028f9161030a565b634e487b7160e01b600052603260045260246000fd5b805482101561061c57610613600191600052602060002090565b91020190600090565b6105e3565b61028f916008021c6001600160a01b031690565b9061028f9154610621565b600a600061064c825490565b831015610667575061028f91610661916105f9565b90610635565b80fd5b3461027d576102d76104a06106803660046105cf565b610640565b61028f916008021c81565b9061028f9154610685565b61028f60006004610690565b3461027d576106b7366004610272565b6102d76102c761069b565b3461027d576106d2366004610272565b6102d77f00000000000000000000000000000000000000000000000000000000000000006104a0565b61028f60006006610690565b3461027d57610717366004610272565b6102d76102c76106fb565b3461027d576105186107353660046105cf565b611a75565b61028f906102db906001600160a01b031682565b61028f9061073a565b61028f9061074e565b9061076a90610757565b600052602052604060002090565b61028f9061078a600c91600092610760565b610690565b3461027d576102d76102c76107a536600461051d565b610778565b3461027d576105186107bd36600461051d565b6118d9565b600d60006107ce825490565b831015610667575061028f916107e3916105f9565b90610690565b3461027d576102d76102c76107ff3660046105cf565b6107c2565b3461027d57610814366004610272565b610518612c8a565b919060408382031261027d5761028f90610836818561030a565b936020016102f7565b9061076a90610282565b61078a61028f9261085e600b9360009461083f565b610760565b3461027d576102d76102c761087936600461081c565b90610849565b3461027d5761051861089236600461051d565b61117c565b3461027d576105186108aa3660046105cf565b610e01565b61028f60016008610635565b6102a690610757565b6020810192916102aa91906108bb565b3461027d576108e4366004610272565b6102d76108ef6108af565b604051918291826108c4565b909594926102aa9461092f61059d9261092660809661091f60a088019c6000890152565b6020870152565b15156040850152565b15156060830152565b3461027d57610948366004610272565b6102d7610953612436565b9161096095939560405190565b958695866108fb565b61028f60006005610690565b3461027d57610985366004610272565b6102d76102c7610969565b3461027d576109a0366004610272565b6102d76104a0612bd1565b61028f60006002610635565b3461027d576109c7366004610272565b6102d76104a06109ab565b909160408284031261027d57813567ffffffffffffffff811161027d57836109fb918401610317565b929093602082013567ffffffffffffffff811161027d576103a79201610317565b3461027d57610518610a2f3660046109d2565b92919091611685565b805491929183101561061c576010610a57600292600052602060002090565b8185040193060290565b61028f916008021c5b61ffff1690565b9061028f9154610a61565b600e6000610a88825490565b831015610667575061028f91610a9d91610a38565b90610a71565b3461027d576102d7610abe610ab93660046105cf565b610a7c565b6040519182918261ffff909116815260200190565b61028f916008021c5b60ff1690565b9061028f9154610ad3565b61028f60006008610ae2565b3461027d57610b09366004610272565b6102d7610b14610aed565b6040515b91829182901515815260200190565b3461027d57610518610b3a3660046105cf565b611125565b61028f60006007610690565b3461027d57610b5b366004610272565b6102d76102c7610b3f565b90610b7381602093610452565b0190565b90610b97610b90610b86845190565b8084529260200190565b9260200190565b9060005b818110610ba85750505090565b909192610bc2610bbb6001928651610b66565b9460200190565b929101610b9b565b602080825261028f92910190610b77565b3461027d57610beb366004610272565b6102d7610bf6612563565b60405191829182610bca565b61028f60006003610635565b3461027d57610c1e366004610272565b6102d76104a0610c02565b61028f90610c3b600991600092610760565b610ae2565b3461027d576102d7610b14610c5636600461051d565b610c29565b919060408382031261027d5761028f90610c7581856102f7565b93602001610551565b3461027d57610518610c91366004610c5b565b906110a1565b3461027d576102d76102c7610cad36600461051d565b61217e565b90610cc1610b90610b86845190565b9060005b818110610cd25750505090565b909192610ce8610bbb6001928651815260200190565b929101610cc5565b90610cff610b90610b86845190565b9060005b818110610d105750505090565b909192610d2a610bbb600192865161ffff16815260200190565b929101610d03565b604080825261028f939192610d4991840190610cb2565b916020818403910152610cf0565b3461027d57610d67366004610272565b610d6f612aa5565b906102d7610d7c60405190565b92839283610d32565b3461027d57610518610d9836600461051d565b612d2d565b3461027d57610518610db036600461051d565b6111e7565b6102aa90610dc1612c30565b610df6565b90600019905b9181191691161790565b90610deb610de6610df29261028f565b61028f565b8254610dc6565b9055565b6102aa906004610dd6565b6102aa90610db5565b906102aa91610e17612c30565b610f69565b9060ff90610dcc565b151590565b90610e3a61028f610df292610e25565b8254610e1c565b634e487b7160e01b600052601160045260246000fd5b6000198114610e665760010190565b610e41565b9190610e76565b9290565b8203918211610e6657565b916001600160a01b0360089290920291821b911b610dcc565b921b90565b9190610eb061028f610df293610757565b908354610e81565b634e487b7160e01b600052603160045260246000fd5b6102aa91600091610e9f565b80548015610efd576000190190610efa610ef483836105f9565b90610ece565b55565b610eb8565b634e487b7160e01b600052604160045260246000fd5b90815491600160401b831015610f415782610f3b9160016102aa950181556105f9565b90610e9f565b610f02565b9160206102aa929493610f6160408201966000830190610452565b019015159052565b610f7d82610f78836009610760565b610e2a565b600091610f8a6000610282565b600a610f9761028f825490565b82101561109557610fab61066183836105f9565b610fbd610fb7866102db565b916102db565b14610fd15750610fcc90610e57565b610f8a565b9293509091610fef91600191829190851561104d575b5050505b1590565b80611046575b611036575b7f24ac9305f628cc42ffe7a95d02adb6df8eaf4bd42d00b25165abd72d06bcfd159161103161102860405190565b92839283610f46565b0390a1565b61104182600a610f18565b610ffa565b5080610ff5565b61028f61108892610f3b61108161066161107b61108d9861107561106f895490565b91610282565b90610e6b565b866105f9565b91846105f9565b610eda565b388080610fe7565b50509091610fef901590565b906102aa91610e0a565b6102aa906110b7612c30565b6110c2816008610e2a565b6110317f152cbfe4e8597a33181d2da9ed5162e734ca8b263b9eb6105f169287a39908f691610b1860405190565b6102aa906110ab565b6102aa90611105612c30565b61111a565b90610deb61028f610df292610282565b6102aa90600761110a565b6102aa906110f9565b6102aa9061113a612c30565b611169565b90610100600160a81b039060081b610dcc565b9061116261028f610df292610757565b825461113f565b6111756102aa91610757565b6008611152565b6102aa9061112e565b6102aa90611191612c30565b6111bc565b906001600160a01b0390610dcc565b906111b561028f610df292610757565b8254611196565b6102aa9060026111a5565b6102aa90611185565b6102aa906111dc612c30565b6102aa9060036111a5565b6102aa906111d0565b906102aa9392916111ff612c30565b611604565b91908201809211610e6657565b602080825260129082015271496e76616c69642066656520636f6e66696760701b604082015260600190565b1561124457565b60405162461bcd60e51b81528061125d60048201611211565b0390fd5b81810292918115918404141715610e6657565b9160001960089290920291821b911b610dcc565b919061129961028f610df293610282565b908354611274565b6102aa91600091611288565b8181106112b8575050565b806112c660006001936112a1565b016112ad565b906112df90600019906020036008021c90565b8154169055565b90918281106112f457505050565b6102aa929061130a905b92600052602060002090565b90810191016112ad565b90600160401b8111610f41578161132c6102aa935490565b908281556112e6565b3561028f81610304565b9067ffffffffffffffff8311610f41576113626112fe60019261028f8686611314565b92049160005b8381106113755750505050565b600190602061138661028f86611335565b9401938184015501611368565b906102aa929161133f565b8181106113a9575050565b806113b760006001936112a1565b0161139e565b9190918282106113cc57505050565b6102aa92600290601090600f018190046113f26010600f87010494600052602060002090565b938401930193060260008111611409575b5061139e565b61141690600183036112cc565b38611403565b90600160401b8111610f4157816114346102aa935490565b908281556113bd565b61ffff81166102f0565b3561028f8161143d565b91906008610dcc910291610e9a61ffff841b90565b919067ffffffffffffffff8211610f41576112fe6114889161028f848661141c565b601082049160005b8381106114f45750601083029003600081116114ad575b50505050565b92600093845b8181106114c8575050500155388080806114a7565b90919460206114ea6001926114df61028f8a611447565b908560020290611451565b96019291016114b3565b6000805b6010811061150d575083820155600101611490565b9590602061152e60019261152361028f86611447565b908a60020290611451565b920196016114f8565b906102aa9291611466565b9037565b8183529091602001916001600160fb1b03811161027d5782916020610b739202938491611542565b905035906102aa8261143d565b5061028f90602081019061156e565b818352602090920191906000825b8282106115a6575050505090565b909192936115d06115c96001926115bd888661157b565b61ffff16815260200190565b9560200190565b93920190611598565b92906115f69061028f959360408601918683036000880152611546565b92602081850391015261158a565b909192611031906116396116286116188690565b6116226001610282565b90611204565b8290611633565b9190565b1461123d565b6116458484600d611393565b6116518186600e611537565b7f24c55ad2a025115594fa08832ae03860656fa82ab5a4b4fd2360f6eb8ef2717b9461167c60405190565b948594856115d9565b906102aa9392916111f0565b6102aa9061169d612c30565b61179c565b602080825260119082015270151bdad95b881b9bdd08185b1b1bddd959607a1b604082015260600190565b156116d457565b60405162461bcd60e51b81528061125d600482016116a2565b90601f01601f1916810190811067ffffffffffffffff821117610f4157604052565b905051906102aa82610304565b9060208282031261027d5761028f9161170f565b6040513d6000823e3d90fd5b6020808252601390820152724e6f7468696e6720746f20776974686472617760681b604082015260600190565b1561177057565b60405162461bcd60e51b81528061125d6004820161173c565b61028f906102db565b61028f9054611789565b6117eb61182a916117cc7f00000000000000000000000000000000000000000000000000000000000000006102db565b6117d5826102db565b14801561189b575b6117e6906116cd565b610757565b60206117f682610757565b6370a082319061181f61180830610757565b9261181260405190565b9687948593849360e01b90565b83526004830161045b565b03915afa908115611896576102aa92600092611866575b5061185661184f6000610282565b8311611769565b6118606003611792565b90612e6f565b61188891925060203d811161188f575b61188081836116ed565b81019061171c565b9038611841565b503d611876565b611730565b506117e66118c87f00000000000000000000000000000000000000000000000000000000000000006102db565b6118d1836102db565b1490506117dd565b6102aa90611691565b6102aa906118ee612c30565b6119c3565b61028f9081565b61028f90546118f3565b602080825260169082015275526f756e64204944206d75737420696e63726561736560501b604082015260600190565b1561193b57565b60405162461bcd60e51b81528061125d60048201611904565b6020808252600890820152674e6f2066756e647360c01b604082015260600190565b1561197d57565b60405162461bcd60e51b81528061125d60048201611954565b61059d6102aa946119bc6060949897956119b5608086019a6000870152565b6020850152565b6040830152565b6119da6119d361028f60056118fa565b8211611934565b6119e2612324565b91611a0160006119f181610282565b8411908115611a63575b50611976565b611a0c81600561110a565b611a22611a1b42611622610292565b600661110a565b611031611a2f60066118fa565b7f1a1ee66c2455254feac7d7ae83f4704fb8cbe6a92ad835371c69dfaa7b48ed9294611a5a60405190565b94859485611996565b611a6d9150610282565b8411386119fb565b6102aa906118e2565b90611a9394939291611a8e612df1565b611b45565b6102aa612e23565b61028f90610adc565b61028f9054611a9b565b60208082526012908201527110dbdb9d1c9858dd081a5cc81b1bd8dad95960721b604082015260600190565b15611ae157565b60405162461bcd60e51b81528061125d60048201611aae565b602080825260119082015270149bdd5b99081b9bdd081cdd185c9d1959607a1b604082015260600190565b15611b2c57565b60405162461bcd60e51b81528061125d60048201611afa565b906102aa94939291611b62611b5d610feb6008611aa4565b611ada565b611b7d42611b7661162f61028f60066118fa565b1015611b25565b611ba7611b88612324565b600091611b9761162f84610282565b11918215611bac575b5050611976565b611c0c565b611bbb91925061162f90610282565b113880611ba0565b6020808252600f908201526e139bdd081dda1a5d195b1a5cdd1959608a1b604082015260600190565b15611bf357565b60405162461bcd60e51b81528061125d60048201611bc3565b906102aa94939291611c27611c22868633612b70565b611bec565b611c4d565b9081526060810193926102aa92909160409161059d905b6020830190610452565b909291611cc7611c65611cf396339584888789611eb0565b5050505095505050505050611ca4611c8c8661085e600b611c8660056118fa565b9061083f565b611c9e88611c99836118fa565b611204565b9061110a565b611cc186611cb186610757565b87611cbb30610757565b91612ed7565b85612286565b91611cd28386610e6b565b958693611cde84610757565b611ce9868883612e6f565b6118606002611792565b611d1d7ff0c71be01e59205b10ea5ae42439ab4504c7e3da732743531ff44e98bd9fd63f91610757565b958692611d36611d2c60405190565b9283928984611c2c565b0390a2611d637fc7e914640e860fbcf42ef4d9dceced8880d343828101f1fa389c7e1c0607281792610757565b92611d706105c660405190565b0390a3565b906102aa94939291611a7e565b60ff81166102f0565b905051906102aa82611d82565b9060208282031261027d5761028f91611d8b565b61028f9060081c6102db565b61028f9054611dac565b919060408382031261027d5761028f90611ddc818561170f565b93602001611d8b565b6020808252600e908201526d496e76616c6964206f7261636c6560901b604082015260600190565b15611e1457565b60405162461bcd60e51b81528061125d60048201611de5565b60ff16604d8111610e6657600a0a90565b634e487b7160e01b600052601260045260246000fd5b8115611e5e570490565b611e3e565b602080825260139082015272115e18d959591cc819185a5b1e481b1a5b5a5d606a1b604082015260600190565b15611e9757565b60405162461bcd60e51b81528061125d60048201611e63565b9592919394611ec99195611ec2600090565b5087612b70565b94611ed7610feb6008611aa4565b8061215c575b6117e6611eea9196610757565b9163313ce567906020611efc60405190565b8095611f088560e01b90565b825260049082905afa91821561189657611f419460009361213a575b50602090611f356117e68594610757565b60405196879260e01b90565b825260049082905afa9384156118965760009461210a575b5083611f856040611f6d6117e66008611db8565b63a3e6ba9490611f7c60405190565b93849260e01b90565b825260049082905afa938415611896576000809290956120d7575b50611fbf600095611fba611fb388610282565b8213611e0d565b610282565b9190611ff0670de0b6b3a764000091611fea611fe48d611fde86610282565b90611261565b91611e2d565b90611e54565b96879661202161201161200c8461085e600b611c8660056118fa565b6118fa565b9261107561200c4292600c610760565b61202f61162f61028f610292565b10156120c7575b5061204160076118fa565b6000908210156120b7575061205f9061205a60076118fa565b610e6b565b975b888861206f82821115611e90565b61207891610e6b565b978061208391612286565b9061208d90611e2d565b61209691611261565b906120a090610282565b6120a991611e54565b98896120b491610e6b565b97565b6120c19150610282565b97612061565b6120d19150610282565b38612036565b9094506120fb915060403d8111612103575b6120f381836116ed565b810190611dc2565b909338611fa0565b503d6120e9565b61212c91945060203d8111612133575b61212481836116ed565b810190611d98565b9238611f59565b503d61211a565b602091935061215590823d81116121335761212481836116ed565b9290611f24565b50611eea6117e64261217461162f61028f60066118fa565b1015915050611edd565b6121906040611f6d6117e66008611db8565b825260049082905afa9182156118965761028f92600092839161224a575b50611fea91611fe4916121c9600091611fba611fb384610282565b916121e9836121e46121db60076118fa565b611fde8a611e2d565b611e54565b61220261201161200c8461085e600b611c8660056118fa565b61221061162f61028f610292565b1015612239575b8181111561222e576122299250610e6b565b611261565b505061222990610282565b905061224482610282565b90612217565b611fea929350611fe4915061226c9060403d8111612103576120f381836116ed565b939250906121ae565b61028f61028f61028f9261ffff1690565b6122906000610282565b600d61229d61028f825490565b8210156122f35761028f6107e3836122b4936105f9565b8311156122c9576122c490610e57565b612290565b61028f925090611fde6122e3610a9d6122e894600e610a38565b612275565b611fea612710610282565b505061028f91506122e890611fde6122e3610a9d600e61231e612314825490565b6110756001610282565b90610a38565b6123506117e67f0000000000000000000000000000000000000000000000000000000000000000610757565b906370a082319161236030610757565b90602061236c60405190565b80926123788760e01b90565b82528180612389876004830161045b565b03915afa918215611896576123eb92602092600091612419575b509461181f6123d46117e67f0000000000000000000000000000000000000000000000000000000000000000610757565b916123de60405190565b9586948593849360e01b90565b03915afa90811561189657600091612401575090565b61028f915060203d811161188f5761188081836116ed565b6124309150833d811161188f5761188081836116ed565b386123a3565b61243e612324565b909161244a60056118fa565b61245460066118fa565b93612462610feb6008611aa4565b93846124cb575b8461248e575b505061247b6008611aa4565b9161248660076118fa565b919493929190565b909193506000916124a161162f84610282565b119182156124b4575b505091388061246f565b6124c391925061162f90610282565b1138806124aa565b9350426124de61162f61028f60066118fa565b101593612469565b906124f56112fe610b86845490565b9060005b8181106125065750505090565b90919261252761252060019261251b87611792565b610b66565b9460010190565b9291016124f9565b9061028f916124e6565b906102aa6125539261254a60405190565b9384809261252f565b03836116ed565b61028f90612539565b61028f600a61255a565b9061257c6112fe610b86845490565b9060005b81811061258d5750505090565b9091926125aa6125206001926125a2876118fa565b815260200190565b929101612580565b9061028f9161256d565b906102aa612553926125cd60405190565b938480926125b2565b61028f906125bc565b61028f90610a6a565b61028f9060101c610a6a565b61028f9060201c610a6a565b61028f9060301c610a6a565b61028f9060401c610a6a565b61028f9060501c610a6a565b61028f9060601c610a6a565b61028f9060701c610a6a565b61028f9060801c610a6a565b61028f9060901c610a6a565b61028f9060a01c610a6a565b61028f9060b01c610a6a565b61028f9060c01c610a6a565b61028f9060d01c610a6a565b61028f9060e01c610a6a565b61028f9060f01c610a6a565b906001906126ba6126ae610b86855490565b93600052602060002090565b60009261292b575b6126cd565b50505090565b549080831061290e575b8083106128f1575b8083106128d4575b8083106128b7575b80831061289a575b80831061287d575b808310612860575b808310612843575b808310612826575b808310612809575b8083106127ec575b8083106127cf575b8083106127b2575b808310612795575b808310612778575b8210612754575b806126c7565b8261276f60019394612767602094612690565b61ffff169052565b0191013861274e565b919260208161278c60019361276786612684565b01930191612747565b91926020816127a960019361276786612678565b0193019161273f565b91926020816127c66001936127678661266c565b01930191612737565b91926020816127e360019361276786612660565b0193019161272f565b919260208161280060019361276786612654565b01930191612727565b919260208161281d60019361276786612648565b0193019161271f565b919260208161283a6001936127678661263c565b01930191612717565b919260208161285760019361276786612630565b0193019161270f565b919260208161287460019361276786612624565b01930191612707565b919260208161289160019361276786612618565b019301916126ff565b91926020816128ae6001936127678661260c565b019301916126f7565b91926020816128cb60019361276786612600565b019301916126ef565b91926020816128e8600193612767866125f4565b019301916126e7565b9192602081612905600193612767866125e8565b019301916126df565b9192602081612922600193612767866125df565b019301916126d7565b600f83018211156126c2579283549080612944836125df565b61ffff16905260200180612957836125e8565b61ffff1690526020018061296a836125f4565b61ffff1690526020018061297d83612600565b61ffff169052602001806129908361260c565b61ffff169052602001806129a383612618565b61ffff169052602001806129b683612624565b61ffff169052602001806129c983612630565b61ffff169052602001806129dc8361263c565b61ffff169052602001806129ef83612648565b61ffff16905260200180612a0283612654565b61ffff16905260200180612a1583612660565b61ffff16905260200180612a288361266c565b61ffff16905260200180612a3b83612678565b61ffff16905260200180612a4e83612684565b61ffff169052602001612a618192612690565b61ffff16905260200192600101916010019161292b565b9061028f9161269c565b906102aa61255392612a9360405190565b93848092612a78565b61028f90612a82565b600e9061028f612ab5600d6125d6565b92612a9c565b60601b90565b61028f90612abb565b612ad66102a6916102db565b612ac1565b610b7381601493612aca565b906102aa612af460405190565b92836116ed565b67ffffffffffffffff8111610f415760208091020190565b90929192612b28612b2382612afb565b612ae7565b938185526020808601920283019281841161027d57915b838310612b4c5750505050565b60208091612b5a848661030a565b815201920191612b3f565b61028f913691612b13565b612bcc61028f93612b7f600090565b50612b8a60046118fa565b92612bb3612b9760405190565b8092612ba7602083019182612adb565b908103825203826116ed565b612bc5612bbe825190565b9160200190565b2093612b65565b61328a565b61028f6000611792565b6020808252818101527f4f776e61626c653a2063616c6c6572206973206e6f7420746865206f776e6572604082015260600190565b15612c1757565b60405162461bcd60e51b81528061125d60048201612bdb565b6102aa612c3b612bd1565b612c4c610fb7336102db565b6102db565b14612c10565b612c5a612c30565b6102aa612c78565b6102db61028f61028f9290565b61028f90612c62565b6102aa612c856000612c6f565b612d36565b6102aa612c52565b6102aa90612c9e612c30565b612d09565b60208082526026908201527f4f776e61626c653a206e6577206f776e657220697320746865207a65726f206160408201526564647265737360d01b606082015260800190565b15612cf057565b60405162461bcd60e51b81528061125d60048201612ca3565b6102aa90612c85612d1d612c476000612c6f565b612d26836102db565b1415612ce9565b6102aa90612c92565b612d406000611792565b90612d4c8160006111a5565b612d7f612d797f8be0079c531659141344cd1fd0a4f28419497f9722a3daafe3b4186f6b6457e093610757565b91610757565b91612d8960405190565b8080611d70565b61028f6002610282565b6020808252601f908201527f5265656e7472616e637947756172643a207265656e7472616e742063616c6c00604082015260600190565b15612dd857565b60405162461bcd60e51b81528061125d60048201612d9a565b6102aa612dfe60016118fa565b612e12612e09612d90565b91821415612dd1565b600161110a565b61028f6001610282565b6102aa612e12612e19565b612e47612e4161028f9263ffffffff1690565b60e01b90565b6001600160e01b03191690565b9160206102aa92949361059d60408201966000830190610452565b612eb2600492612ea36102aa95612e8963a9059cbb612e2e565b92612e9360405190565b9687946020860190815201612e54565b602082018103825203836116ed565b613002565b60409061059d6102aa9496959396611c4360608401986000850190610452565b90612eb290612ea36102aa95600495612ef36323b872dd612e2e565b93612efd60405190565b9788956020870190815201612eb7565b67ffffffffffffffff8111610f4157602090601f01601f19160190565b90612f37612b2383612f0d565b918252565b612f466020612f2a565b7f5361666545524332303a206c6f772d6c6576656c2063616c6c206661696c6564602082015290565b61028f612f3c565b905051906102aa82610549565b9060208282031261027d5761028f91612f77565b6020808252602a908201527f5361666545524332303a204552433230206f7065726174696f6e20646964206e6040820152691bdd081cdd58d8d9595960b21b606082015260800190565b15612fe957565b60405162461bcd60e51b81528061125d60048201612f98565b6102aa9161301261302192610757565b9061301b612f6f565b9161305f565b805161303061162f6000610282565b1490811561303f575b50612fe2565b6130599150602061304e825190565b818301019101612f84565b38613039565b61028f929161306e6000610282565b916130f9565b60208082526026908201527f416464726573733a20696e73756666696369656e742062616c616e636520666f6040820152651c8818d85b1b60d21b606082015260800190565b156130c157565b60405162461bcd60e51b81528061125d60048201613074565b3d156130f4576130e93d612f2a565b903d6000602084013e565b606090565b90600061028f9493819261310b606090565b5061312261311830610757565b83903110156130ba565b60208101905191855af16131346130da565b91613191565b6020808252601d908201527f416464726573733a2063616c6c20746f206e6f6e2d636f6e7472616374000000604082015260600190565b1561317857565b60405162461bcd60e51b81528061125d6004820161313a565b919290156131c3575081516131a961162f6000610282565b146131b2575090565b6131be61028f916131c9565b613171565b82613243565b3b6131d761162f6000610282565b1190565b60005b8381106131ee5750506000910152565b81810151838201526020016131de565b61321f613228602093610b7393613213815190565b80835293849260200190565b958691016131db565b601f01601f191690565b602080825261028f929101906131fe565b9061324c825190565b61325961162f6000610282565b11156132685750805190602001fd5b61125d9061327560405190565b62461bcd60e51b815291829160048301613232565b610e726132a4929361162f9261329e600090565b506132c6565b1490565b906132b1825190565b81101561061c576020809102010190565b5190565b6132d06000610282565b915b6132dd61028f835190565b83101561330f57613303613309916132fd6132f886866132a8565b6132c2565b90613315565b92610e57565b916132d2565b91505090565b81811015613330579061028f91600052602052604060002090565b61028f9160005260205260406000209056fea26469706673582212203d169490b610bf7c2a65087c2d04c0e68cc8418bb561a114e69a8fd5a8d575c864736f6c63430008120033",
  "linkReferences": {},
  "deployedLinkReferences": {}
}