{
  "_format": "hh-sol-artifact-1",
  "contractName": "RecoveryVault",
  "sourceName": "contracts/RecoveryVault.sol",
  "abi": [
    {
      "inputs": [
        {
          "internalType": "address",
          "name": "_owner",
          "type": "address"
        },
        {
          "internalType": "address",
          "name": "_devWallet",
          "type": "address"
        },
        {
          "internalType": "address",
          "name": "_rmcWallet",
          "type": "address"
        },
        {
          "internalType": "address",
          "name": "_wone",
          "type": "address"
        },
        {
          "internalType": "address",
          "name": "_usdc",
          "type": "address"
        },
        {
          "internalType": "address[]",
          "name": "_supportedTokens",
          "type": "address[]"
        },
        {
          "internalType": "uint256",
          "name": "_dailyLimitUsd",
          "type": "uint256"
        },
        {
          "internalType": "address",
          "name": "_oracle",
          "type": "address"
        }
      ],
      "stateMutability": "nonpayable",
      "type": "constructor"
    },
    {
      "anonymous": false,
      "inputs": [
        {
          "indexed": true,
          "internalType": "address",
          "name": "tokenIn",
          "type": "address"
        },
        {
          "indexed": false,
          "internalType": "uint256",
          "name": "amountIn",
          "type": "uint256"
        },
        {
          "indexed": false,
          "internalType": "address",
          "name": "refundToken",
          "type": "address"
        },
        {
          "indexed": false,
          "internalType": "uint256",
          "name": "amountOut",
          "type": "uint256"
        }
      ],
      "name": "BurnToken",
      "type": "event"
    },
    {
      "anonymous": false,
      "inputs": [
        {
          "indexed": false,
          "internalType": "uint256[]",
          "name": "thresholds",
          "type": "uint256[]"
        },
        {
          "indexed": false,
          "internalType": "uint16[]",
          "name": "bps",
          "type": "uint16[]"
        }
      ],
      "name": "FeeTiersUpdated",
      "type": "event"
    },
    {
      "anonymous": false,
      "inputs": [
        {
          "indexed": false,
          "internalType": "uint256",
          "name": "roundId",
          "type": "uint256"
        },
        {
          "indexed": false,
          "internalType": "uint256",
          "name": "woneBalance",
          "type": "uint256"
        },
        {
          "indexed": false,
          "internalType": "uint256",
          "name": "usdcBalance",
          "type": "uint256"
        },
        {
          "indexed": false,
          "internalType": "uint256",
          "name": "startTime",
          "type": "uint256"
        }
      ],
      "name": "NewRoundStarted",
      "type": "event"
    },
    {
      "anonymous": false,
      "inputs": [
        {
          "indexed": true,
          "internalType": "address",
          "name": "previousOwner",
          "type": "address"
        },
        {
          "indexed": true,
          "internalType": "address",
          "name": "newOwner",
          "type": "address"
        }
      ],
      "name": "OwnershipTransferred",
      "type": "event"
    },
    {
      "anonymous": false,
      "inputs": [
        {
          "indexed": true,
          "internalType": "address",
          "name": "user",
          "type": "address"
        },
        {
          "indexed": true,
          "internalType": "address",
          "name": "tokenIn",
          "type": "address"
        },
        {
          "indexed": false,
          "internalType": "uint256",
          "name": "amountIn",
          "type": "uint256"
        },
        {
          "indexed": false,
          "internalType": "uint256",
          "name": "amountOut",
          "type": "uint256"
        }
      ],
      "name": "RedeemProcessed",
      "type": "event"
    },
    {
      "anonymous": false,
      "inputs": [
        {
          "indexed": false,
          "internalType": "bool",
          "name": "enabled",
          "type": "bool"
        }
      ],
      "name": "RoundDelayToggled",
      "type": "event"
    },
    {
      "anonymous": false,
      "inputs": [
        {
          "indexed": true,
          "internalType": "uint256",
          "name": "roundId",
          "type": "uint256"
        },
        {
          "indexed": false,
          "internalType": "uint16",
          "name": "bps",
          "type": "uint16"
        },
        {
          "indexed": false,
          "internalType": "uint256",
          "name": "basisUsd",
          "type": "uint256"
        }
      ],
      "name": "RoundFeeLocked",
      "type": "event"
    },
    {
      "anonymous": false,
      "inputs": [
        {
          "indexed": false,
          "internalType": "address",
          "name": "token",
          "type": "address"
        },
        {
          "indexed": false,
          "internalType": "bool",
          "name": "allowed",
          "type": "bool"
        }
      ],
      "name": "SupportedTokenUpdated",
      "type": "event"
    },
    {
      "anonymous": false,
      "inputs": [
        {
          "indexed": false,
          "internalType": "bool",
          "name": "isPaused",
          "type": "bool"
        }
      ],
      "name": "VaultPaused",
      "type": "event"
    },
    {
      "inputs": [],
      "name": "DEAD_BURN_ADDRESS",
      "outputs": [
        {
          "internalType": "address",
          "name": "",
          "type": "address"
        }
      ],
      "stateMutability": "view",
      "type": "function"
    },
    {
      "inputs": [],
      "name": "ROUND_DELAY",
      "outputs": [
        {
          "internalType": "uint256",
          "name": "",
          "type": "uint256"
        }
      ],
      "stateMutability": "view",
      "type": "function"
    },
    {
      "inputs": [],
      "name": "USDC_DECIMALS",
      "outputs": [
        {
          "internalType": "uint8",
          "name": "",
          "type": "uint8"
        }
      ],
      "stateMutability": "view",
      "type": "function"
    },
    {
      "inputs": [],
      "name": "WALLET_RESET_INTERVAL",
      "outputs": [
        {
          "internalType": "uint256",
          "name": "",
          "type": "uint256"
        }
      ],
      "stateMutability": "view",
      "type": "function"
    },
    {
      "inputs": [],
      "name": "WONE_DECIMALS",
      "outputs": [
        {
          "internalType": "uint8",
          "name": "",
          "type": "uint8"
        }
      ],
      "stateMutability": "view",
      "type": "function"
    },
    {
      "inputs": [],
      "name": "currentRound",
      "outputs": [
        {
          "internalType": "uint256",
          "name": "",
          "type": "uint256"
        }
      ],
      "stateMutability": "view",
      "type": "function"
    },
    {
      "inputs": [],
      "name": "dailyLimitUsd",
      "outputs": [
        {
          "internalType": "uint256",
          "name": "",
          "type": "uint256"
        }
      ],
      "stateMutability": "view",
      "type": "function"
    },
    {
      "inputs": [],
      "name": "devWallet",
      "outputs": [
        {
          "internalType": "address",
          "name": "",
          "type": "address"
        }
      ],
      "stateMutability": "view",
      "type": "function"
    },
    {
      "inputs": [
        {
          "internalType": "uint256",
          "name": "",
          "type": "uint256"
        }
      ],
      "name": "feeBps",
      "outputs": [
        {
          "internalType": "uint16",
          "name": "",
          "type": "uint16"
        }
      ],
      "stateMutability": "view",
      "type": "function"
    },
    {
      "inputs": [
        {
          "internalType": "uint256",
          "name": "",
          "type": "uint256"
        }
      ],
      "name": "feeThresholds",
      "outputs": [
        {
          "internalType": "uint256",
          "name": "",
          "type": "uint256"
        }
      ],
      "stateMutability": "view",
      "type": "function"
    },
    {
      "inputs": [
        {
          "internalType": "address",
          "name": "",
          "type": "address"
        }
      ],
      "name": "fixedUsdPrice",
      "outputs": [
        {
          "internalType": "uint256",
          "name": "",
          "type": "uint256"
        }
      ],
      "stateMutability": "view",
      "type": "function"
    },
    {
      "inputs": [],
      "name": "getFeeTiers",
      "outputs": [
        {
          "internalType": "uint256[]",
          "name": "thresholds",
          "type": "uint256[]"
        },
        {
          "internalType": "uint16[]",
          "name": "bps",
          "type": "uint16[]"
        }
      ],
      "stateMutability": "view",
      "type": "function"
    },
    {
      "inputs": [
        {
          "internalType": "address",
          "name": "user",
          "type": "address"
        }
      ],
      "name": "getLastRedeemTimestamp",
      "outputs": [
        {
          "internalType": "uint256",
          "name": "",
          "type": "uint256"
        }
      ],
      "stateMutability": "view",
      "type": "function"
    },
    {
      "inputs": [],
      "name": "getRoundInfo",
      "outputs": [
        {
          "internalType": "uint256",
          "name": "roundId",
          "type": "uint256"
        },
        {
          "internalType": "uint256",
          "name": "startTime",
          "type": "uint256"
        },
        {
          "internalType": "bool",
          "name": "isActive",
          "type": "bool"
        },
        {
          "internalType": "bool",
          "name": "paused",
          "type": "bool"
        },
        {
          "internalType": "uint256",
          "name": "limitUsd",
          "type": "uint256"
        },
        {
          "internalType": "bool",
          "name": "delayEnabled",
          "type": "bool"
        },
        {
          "internalType": "uint16",
          "name": "roundFeeBps",
          "type": "uint16"
        },
        {
          "internalType": "uint256",
          "name": "roundFeeBasis",
          "type": "uint256"
        }
      ],
      "stateMutability": "view",
      "type": "function"
    },
    {
      "inputs": [],
      "name": "getSupportedTokens",
      "outputs": [
        {
          "internalType": "address[]",
          "name": "",
          "type": "address[]"
        }
      ],
      "stateMutability": "view",
      "type": "function"
    },
    {
      "inputs": [
        {
          "internalType": "address",
          "name": "wallet",
          "type": "address"
        }
      ],
      "name": "getUserLimit",
      "outputs": [
        {
          "internalType": "uint256",
          "name": "remainingUSD",
          "type": "uint256"
        }
      ],
      "stateMutability": "view",
      "type": "function"
    },
    {
      "inputs": [],
      "name": "getVaultBalances",
      "outputs": [
        {
          "internalType": "uint256",
          "name": "woneBalance",
          "type": "uint256"
        },
        {
          "internalType": "uint256",
          "name": "usdcBalance",
          "type": "uint256"
        }
      ],
      "stateMutability": "view",
      "type": "function"
    },
    {
      "inputs": [],
      "name": "isLocked",
      "outputs": [
        {
          "internalType": "bool",
          "name": "",
          "type": "bool"
        }
      ],
      "stateMutability": "view",
      "type": "function"
    },
    {
      "inputs": [
        {
          "internalType": "address",
          "name": "",
          "type": "address"
        }
      ],
      "name": "lastRedeemTimestamp",
      "outputs": [
        {
          "internalType": "uint256",
          "name": "",
          "type": "uint256"
        }
      ],
      "stateMutability": "view",
      "type": "function"
    },
    {
      "inputs": [
        {
          "internalType": "address",
          "name": "",
          "type": "address"
        }
      ],
      "name": "limitUnlockAt",
      "outputs": [
        {
          "internalType": "uint256",
          "name": "",
          "type": "uint256"
        }
      ],
      "stateMutability": "view",
      "type": "function"
    },
    {
      "inputs": [],
      "name": "merkleRoot",
      "outputs": [
        {
          "internalType": "bytes32",
          "name": "",
          "type": "bytes32"
        }
      ],
      "stateMutability": "view",
      "type": "function"
    },
    {
      "inputs": [],
      "name": "oracle",
      "outputs": [
        {
          "internalType": "contract IOracle",
          "name": "",
          "type": "address"
        }
      ],
      "stateMutability": "view",
      "type": "function"
    },
    {
      "inputs": [],
      "name": "owner",
      "outputs": [
        {
          "internalType": "address",
          "name": "",
          "type": "address"
        }
      ],
      "stateMutability": "view",
      "type": "function"
    },
    {
      "inputs": [
        {
          "internalType": "address",
          "name": "",
          "type": "address"
        }
      ],
      "name": "periodStart",
      "outputs": [
        {
          "internalType": "uint256",
          "name": "",
          "type": "uint256"
        }
      ],
      "stateMutability": "view",
      "type": "function"
    },
    {
      "inputs": [
        {
          "internalType": "address",
          "name": "user",
          "type": "address"
        },
        {
          "internalType": "address",
          "name": "tokenIn",
          "type": "address"
        },
        {
          "internalType": "uint256",
          "name": "amountIn",
          "type": "uint256"
        },
        {
          "internalType": "address",
          "name": "redeemIn",
          "type": "address"
        },
        {
          "internalType": "bytes32[]",
          "name": "proof",
          "type": "bytes32[]"
        }
      ],
      "name": "quoteRedeem",
      "outputs": [
        {
          "internalType": "bool",
          "name": "whitelisted",
          "type": "bool"
        },
        {
          "internalType": "bool",
          "name": "roundIsActive",
          "type": "bool"
        },
        {
          "internalType": "uint256",
          "name": "feeAmountInTokenIn",
          "type": "uint256"
        },
        {
          "internalType": "uint256",
          "name": "burnAmountInTokenIn",
          "type": "uint256"
        },
        {
          "internalType": "uint256",
          "name": "userLimitUsdBefore",
          "type": "uint256"
        },
        {
          "internalType": "uint256",
          "name": "userLimitUsdAfter",
          "type": "uint256"
        },
        {
          "internalType": "uint256",
          "name": "usdValueIn",
          "type": "uint256"
        },
        {
          "internalType": "uint8",
          "name": "tokenInDecimals",
          "type": "uint8"
        },
        {
          "internalType": "uint8",
          "name": "redeemInDecimals",
          "type": "uint8"
        },
        {
          "internalType": "uint256",
          "name": "oraclePrice",
          "type": "uint256"
        },
        {
          "internalType": "uint8",
          "name": "oracleDecimals",
          "type": "uint8"
        },
        {
          "internalType": "uint256",
          "name": "amountOutRedeemToken",
          "type": "uint256"
        }
      ],
      "stateMutability": "view",
      "type": "function"
    },
    {
      "inputs": [
        {
          "internalType": "address",
          "name": "tokenIn",
          "type": "address"
        },
        {
          "internalType": "uint256",
          "name": "amountIn",
          "type": "uint256"
        },
        {
          "internalType": "address",
          "name": "redeemIn",
          "type": "address"
        },
        {
          "internalType": "bytes32[]",
          "name": "proof",
          "type": "bytes32[]"
        }
      ],
      "name": "redeem",
      "outputs": [],
      "stateMutability": "payable",
      "type": "function"
    },
    {
      "inputs": [
        {
          "internalType": "uint256",
          "name": "",
          "type": "uint256"
        },
        {
          "internalType": "address",
          "name": "",
          "type": "address"
        }
      ],
      "name": "redeemedInRound",
      "outputs": [
        {
          "internalType": "uint256",
          "name": "",
          "type": "uint256"
        }
      ],
      "stateMutability": "view",
      "type": "function"
    },
    {
      "inputs": [],
      "name": "renounceOwnership",
      "outputs": [],
      "stateMutability": "nonpayable",
      "type": "function"
    },
    {
      "inputs": [],
      "name": "rmcWallet",
      "outputs": [
        {
          "internalType": "address",
          "name": "",
          "type": "address"
        }
      ],
      "stateMutability": "view",
      "type": "function"
    },
    {
      "inputs": [],
      "name": "roundBps",
      "outputs": [
        {
          "internalType": "uint16",
          "name": "",
          "type": "uint16"
        }
      ],
      "stateMutability": "view",
      "type": "function"
    },
    {
      "inputs": [],
      "name": "roundDelayEnabled",
      "outputs": [
        {
          "internalType": "bool",
          "name": "",
          "type": "bool"
        }
      ],
      "stateMutability": "view",
      "type": "function"
    },
    {
      "inputs": [],
      "name": "roundFeeBasisUsd",
      "outputs": [
        {
          "internalType": "uint256",
          "name": "",
          "type": "uint256"
        }
      ],
      "stateMutability": "view",
      "type": "function"
    },
    {
      "inputs": [],
      "name": "roundFeeLocked",
      "outputs": [
        {
          "internalType": "bool",
          "name": "",
          "type": "bool"
        }
      ],
      "stateMutability": "view",
      "type": "function"
    },
    {
      "inputs": [],
      "name": "roundStart",
      "outputs": [
        {
          "internalType": "uint256",
          "name": "",
          "type": "uint256"
        }
      ],
      "stateMutability": "view",
      "type": "function"
    },
    {
      "inputs": [
        {
          "internalType": "uint256",
          "name": "usdAmount",
          "type": "uint256"
        }
      ],
      "name": "setDailyLimit",
      "outputs": [],
      "stateMutability": "nonpayable",
      "type": "function"
    },
    {
      "inputs": [
        {
          "internalType": "address",
          "name": "wallet",
          "type": "address"
        }
      ],
      "name": "setDevWallet",
      "outputs": [],
      "stateMutability": "nonpayable",
      "type": "function"
    },
    {
      "inputs": [
        {
          "internalType": "uint256[]",
          "name": "thresholds",
          "type": "uint256[]"
        },
        {
          "internalType": "uint16[]",
          "name": "bps",
          "type": "uint16[]"
        }
      ],
      "name": "setFeeTiers",
      "outputs": [],
      "stateMutability": "nonpayable",
      "type": "function"
    },
    {
      "inputs": [
        {
          "internalType": "address",
          "name": "token",
          "type": "address"
        },
        {
          "internalType": "uint256",
          "name": "usdPrice18",
          "type": "uint256"
        }
      ],
      "name": "setFixedUsdPrice",
      "outputs": [],
      "stateMutability": "nonpayable",
      "type": "function"
    },
    {
      "inputs": [
        {
          "internalType": "bool",
          "name": "_status",
          "type": "bool"
        }
      ],
      "name": "setLocked",
      "outputs": [],
      "stateMutability": "nonpayable",
      "type": "function"
    },
    {
      "inputs": [
        {
          "internalType": "bytes32",
          "name": "_root",
          "type": "bytes32"
        }
      ],
      "name": "setMerkleRoot",
      "outputs": [],
      "stateMutability": "nonpayable",
      "type": "function"
    },
    {
      "inputs": [
        {
          "internalType": "address",
          "name": "_oracle",
          "type": "address"
        }
      ],
      "name": "setOracle",
      "outputs": [],
      "stateMutability": "nonpayable",
      "type": "function"
    },
    {
      "inputs": [
        {
          "internalType": "address",
          "name": "wallet",
          "type": "address"
        }
      ],
      "name": "setRmcWallet",
      "outputs": [],
      "stateMutability": "nonpayable",
      "type": "function"
    },
    {
      "inputs": [
        {
          "internalType": "bool",
          "name": "enabled",
          "type": "bool"
        }
      ],
      "name": "setRoundDelayEnabled",
      "outputs": [],
      "stateMutability": "nonpayable",
      "type": "function"
    },
    {
      "inputs": [
        {
          "internalType": "address",
          "name": "token",
          "type": "address"
        },
        {
          "internalType": "bool",
          "name": "allowed",
          "type": "bool"
        }
      ],
      "name": "setSupportedToken",
      "outputs": [],
      "stateMutability": "nonpayable",
      "type": "function"
    },
    {
      "inputs": [
        {
          "internalType": "uint256",
          "name": "_roundId",
          "type": "uint256"
        }
      ],
      "name": "startNewRound",
      "outputs": [],
      "stateMutability": "nonpayable",
      "type": "function"
    },
    {
      "inputs": [
        {
          "internalType": "address",
          "name": "",
          "type": "address"
        }
      ],
      "name": "supportedToken",
      "outputs": [
        {
          "internalType": "bool",
          "name": "",
          "type": "bool"
        }
      ],
      "stateMutability": "view",
      "type": "function"
    },
    {
      "inputs": [
        {
          "internalType": "uint256",
          "name": "",
          "type": "uint256"
        }
      ],
      "name": "supportedTokenList",
      "outputs": [
        {
          "internalType": "address",
          "name": "",
          "type": "address"
        }
      ],
      "stateMutability": "view",
      "type": "function"
    },
    {
      "inputs": [
        {
          "internalType": "address",
          "name": "newOwner",
          "type": "address"
        }
      ],
      "name": "transferOwnership",
      "outputs": [],
      "stateMutability": "nonpayable",
      "type": "function"
    },
    {
      "inputs": [],
      "name": "usdc",
      "outputs": [
        {
          "internalType": "address",
          "name": "",
          "type": "address"
        }
      ],
      "stateMutability": "view",
      "type": "function"
    },
    {
      "inputs": [],
      "name": "wONE",
      "outputs": [
        {
          "internalType": "address",
          "name": "",
          "type": "address"
        }
      ],
      "stateMutability": "view",
      "type": "function"
    },
    {
      "inputs": [
        {
          "internalType": "address",
          "name": "token",
          "type": "address"
        }
      ],
      "name": "withdrawFunds",
      "outputs": [],
      "stateMutability": "nonpayable",
      "type": "function"
    }
  ],
  "bytecode": "0x610100604052346200013f5762000029620000196200030b565b96959095949194939293620008c6565b60405161478162000c86823960805181818161053f0152818161174d0152818161178b015281816117f0015281816118ec01528181611add01528181611f58015281816124c4015281816136460152818161392601528181613ba40152613d39015260a0518181816108ba015281816119d401528181611d5701528181611e9f01528181611fdc015281816122c10152818161238f0152818161254b015281816137240152818161396f01528181613c140152613ce9015260c05181818161091a0152818161191d01528181611d1c01528181611faf015281816122930152613904015260e051818181610d8301528181611a1e01528181611d8801528181612010015281816122f4015261394d015261478190f35b600080fd5b634e487b7160e01b600052604160045260246000fd5b90601f01601f191681019081106001600160401b038211176200017c57604052565b62000144565b90620001996200019160405190565b92836200015a565b565b6001600160a01b031690565b90565b6001600160a01b0381165b036200013f57565b905051906200019982620001aa565b6001600160401b0381116200017c5760208091020190565b90929192620001fd620001f782620001cc565b62000182565b93818552602080860192028301928184116200013f57915b838310620002235750505050565b60208091620002338486620001bd565b81520192019162000215565b9080601f830112156200013f578151620001a792602001620001e4565b80620001b5565b9050519062000199826200025c565b610100818303126200013f576200028a8282620001bd565b926200029a8360208401620001bd565b92604090620002ac81838601620001bd565b93620002bc8260608301620001bd565b93620002cc8360808401620001bd565b9360018060a0850151921b0381116200013f57620002f184620001a79285016200023f565b93620003018160c0860162000263565b9360e001620001bd565b6200032e6200540780380380620003228162000182565b92833981019062000272565b9091929394959697565b9061ff009060081b5b9181191691161790565b906200035e620001a76200036692151590565b825462000338565b9055565b6001600160401b0381116200017c5760200290565b620001f7620001a7916200036a565b6200039e620001a7620001a79290565b61ffff1690565b634e487b7160e01b600052601160045260246000fd5b9160001960089290920291821b911b62000341565b921b90565b620001a7620001a7620001a79290565b9190620003fa620001a76200036693620003d5565b908354620003bb565b6200019991600091620003e5565b8181106200041d575050565b806200042d600060019362000403565b0162000411565b906200044890600019906020036008021c90565b8154169055565b90918281106200045e57505050565b62000199929062000476905b92600052602060002090565b908101910162000411565b906801000000000000000081116200017c5781620004a162000199935490565b908281556200044f565b600391620004c56200046a600192620001a7868662000481565b92049160005b838110620004d95750505050565b6001906020620004ef620001a7865161ffff1690565b9401938184015501620004cb565b906200019991620004ab565b62000519620001a7620001a79290565b60ff1690565b8181106200052b575050565b806200053b600060019362000403565b016200051f565b9190918282106200055257505050565b6200019992600290601090600f018190046200057a6010600f87010494600052602060002090565b93840193019306026000811162000593575b506200051f565b620005a2906001830362000434565b386200058c565b906801000000000000000081116200017c5781620005c962000199935490565b9082815562000542565b9190600862000341910291620003d061ffff841b90565b906004906200046a6200060391620001a78486620005a9565b601082049160005b8381106200067a5750601083029003600081116200062a575b50505050565b92600093845b818110620006475750505001553880808062000624565b90919460206200066f60019262000663620001a78a5160ff1690565b908560020290620005d3565b960192910162000630565b6000805b60108110620006955750838201556001016200060b565b95906020620006bc600192620006b0620001a7865160ff1690565b908a60020290620005d3565b920196016200067e565b906200019991620005ea565b906001600160a01b039062000341565b620001a7906200019b906001600160a01b031682565b620001a790620006e2565b620001a790620006f8565b9062000722620001a7620003669262000703565b8254620006d2565b906000199062000341565b9062000749620001a76200036692620003d5565b82546200072a565b60ff8116620001b5565b90505190620001998262000751565b906020828203126200013f57620001a7916200075b565b6040513d6000823e3d90fd5b60001981146200079d5760010190565b620003a5565b634e487b7160e01b600052603260045260246000fd5b90620007c3825190565b811015620007d5576020809102010190565b620007a3565b90620007e79062000703565b600052602052604060002090565b9060ff9062000341565b9062000812620001a76200036692151590565b8254620007f5565b8054821015620007d55762000836600191600052602060002090565b91020190600090565b916001600160a01b0360089290920291821b911b62000341565b91906200086e620001a7620003669362000703565b9083546200083f565b90815491680100000000000000008310156200017c5782620008a391600162000199950181556200081a565b9062000859565b6001600160a01b03919091168152901515602082015260400190565b9293949691959095620008d862000be1565b600196620008e88860086200034b565b620008f460036200037f565b9460649562000903876200038e565b61ffff1681526200091560fa6200038e565b61ffff1660208201526200092b6103e86200038e565b61ffff16604082015262000941906012620004fd565b6200094d60046200037f565b95620009599062000509565b60ff1686526200096a603262000509565b60ff1660208701526200097e601962000509565b60ff166040870152600a95620009948762000509565b60ff166060820152620009a9906013620006c6565b620009b49062000c23565b620009c19060026200070e565b620009ce9060036200070e565b836080528460a052620009e390600762000735565b620009ee9062000703565b620009f9916200070e565b62000a049062000703565b62000a0f9062000703565b9063313ce56762000a1f60405190565b9262000a2b8260e01b90565b8452836004815a93602094fa801562000bad5762000a6260209362000a689262000a749660009162000bb3575b5060c05262000703565b62000703565b60405193849260e01b90565b825260049082905afa90811562000bad5760009162000b78575b5060e0528062000a9f6000620003d5565b905b62000aab57505050565b62000ab8620001a7845190565b81101562000b735762000b6c829162000afb8362000af5600b62000aee62000ae1868b620007b9565b516001600160a01b031690565b90620007db565b620007ff565b62000b18600c62000b1162000ae18489620007b9565b9062000877565b62000b2862000ae18287620007b9565b837f24ac9305f628cc42ffe7a95d02adb6df8eaf4bd42d00b25165abd72d06bcfd159162000b6362000b5960405190565b92839283620008aa565b0390a16200078d565b9062000aa1565b505050565b62000b9e915060203d811162000ba5575b62000b9581836200015a565b8101906200076a565b3862000a8e565b503d62000b89565b62000781565b62000bce9150863d811162000ba55762000b9581836200015a565b3862000a58565b620001a76001620003d5565b62000beb62000c01565b6200019962000bf962000bd5565b600162000735565b620001993362000c23565b620001a7906200019b565b620001a7905462000c0c565b62000c2f600062000c17565b9062000c3d8160006200070e565b62000c7462000c6d7f8be0079c531659141344cd1fd0a4f28419497f9722a3daafe3b4186f6b6457e09362000703565b9162000703565b9162000c7f60405190565b600090a356fe60e0604052600436101561001257600080fd5b60003560e01c80631073e2a714610298578063178906bf1461033d578063196b004b146103385780631efb1aa6146103335780631f53ac021461032e578063211e28b61461032957806322370685146103245780632b60c8221461031f5780632eb4a7ab1461031a57806337425fa014610315578063378580ea14610310578063392405ab1461030b5780633e413bee1461030657806340365852146103015780634614a261146102fc5780634615102c146102f7578063589db8d4146102f2578063659590c5146102ed57806368742da6146102e857806369c5b5e6146102e3578063715018a6146102de57806373a1a252146102d95780637adbf973146102d45780637cb64759146102cf5780637dc0d1d0146102ca57806384bc76a6146102c55780638a19c8bc146102c05780638da5cb5b146102bb5780638ea5220f146102b65780639aa1f78e146102b15780639eee94a8146102ac578063a060cc21146102a7578063a27e91a8146102a2578063a4e2d6341461029d578063ad655ef614610298578063b11d97f814610293578063b20d30a91461028e578063c1265f2414610289578063c1419def14610284578063c69f84451461027f578063ca26c5321461027a578063d3c7c2c714610275578063d656c29c14610270578063d6691e471461026b578063e236300614610266578063e2c6e43814610261578063e79864661461025c578063e9587e8614610257578063e9a4d24f14610252578063f2fde38b1461024d5763fe531ab40361034d5761109a565b611082565b611054565b610f94565b610f7b565b610f3d565b610f0b565b610ede565b610eb9565b610e6f565b610de0565b610db9565b610d6e565b610d53565b610d2f565b610d14565b61037c565b610cf9565b610cd5565b610cba565b610c4e565b610be9565b610bc2565b610b9b565b610b80565b610aff565b610ad8565b610a9b565b610a83565b610a67565b610a08565b6109ed565b6109ae565b610993565b610978565b61094e565b610905565b6108ea565b6108a5565b610875565b610820565b6107df565b61076f565b610732565b610669565b61063a565b6105f9565b6105c9565b61052a565b6104e6565b600091031261034d57565b600080fd5b90565b6103526103526103529290565b61035262015180610355565b610352610362565b9052565b565b3461034d5761038c366004610342565b6103a761039761036e565b6040519182918290815260200190565b0390f35b6001600160a01b031690565b6001600160a01b0381165b0361034d57565b9050359061037a826103b7565b806103c2565b9050359061037a826103d6565b909182601f8301121561034d5781359167ffffffffffffffff831161034d57602001926020830284011161034d57565b91909160a08184031261034d5761043083826103c9565b9261043e81602084016103c9565b9261044c82604085016103dc565b9261045a83606083016103c9565b92608082013567ffffffffffffffff811161034d5761047992016103e9565b9091565b99979593919c9b9a98969492909c6101808b019d60008c0161049f9115159052565b151560208b015260408a01526060890152608088015260a087015260c086015260ff1660e085015260ff1661010084015261012083015260ff166101408201526101600152565b3461034d576103a76105086104fc366004610419565b94939093929192611f0f565b986105219c9a9c98919897929796939695949560405190565b9c8d9c8d61047d565b3461034d5761053a366004610342565b6103a77f00000000000000000000000000000000000000000000000000000000000000005b604051918291826001600160a01b03909116815260200190565b9060808282031261034d5761058e81836103c9565b9261059c82602085016103dc565b926105aa83604083016103c9565b92606082013567ffffffffffffffff811161034d5761047992016103e9565b6105e06105d7366004610579565b93929092611eeb565b604051005b9060208282031261034d57610352916103c9565b3461034d576105e061060c3660046105e5565b613017565b8015156103c2565b9050359061037a82610611565b9060208282031261034d5761035291610619565b3461034d576105e061064d366004610626565b612f84565b90815260408101929161037a9160200152565b0152565b3461034d57610679366004610342565b6106816124bc565b906103a761068e60405190565b92839283610652565b9060208282031261034d57610352916103dc565b634e487b7160e01b600052603260045260246000fd5b80548210156106e4576106db600191600052602060002090565b91020190600090565b6106ab565b610352916008021c6001600160a01b031690565b9061035291546106e9565b600c6000610714825490565b83101561072f575061035291610729916106c1565b906106fd565b80fd5b3461034d576103a761055f610748366004610697565b610708565b610352916008021c81565b90610352915461074d565b61035260006004610758565b3461034d5761077f366004610342565b6103a7610397610763565b610352906103ab906001600160a01b031682565b6103529061078a565b6103529061079e565b906107ba906107a7565b600052602052604060002090565b610352906107da6010916000926107b0565b610758565b3461034d576103a76103976107f53660046105e5565b6107c8565b610352916008021c5b60ff1690565b9061035291546107fa565b61035260016008610809565b3461034d57610830366004610342565b6103a761083b610814565b6040515b91829182901515815260200190565b610352916008021c5b61ffff1690565b90610352915461084e565b6103526002600861085e565b3461034d57610885366004610342565b6103a7610890610869565b6040519182918261ffff909116815260200190565b3461034d576108b5366004610342565b6103a77f000000000000000000000000000000000000000000000000000000000000000061055f565b61035260006006610758565b3461034d576108fa366004610342565b6103a76103976108de565b3461034d57610915366004610342565b6103a77f00000000000000000000000000000000000000000000000000000000000000005b6040519182918260ff909116815260200190565b3461034d576105e0610961366004610697565b613a9f565b610352906107da600e916000926107b0565b3461034d576103a761039761098e3660046105e5565b610966565b3461034d576103a76103976109a93660046105e5565b611ef8565b3461034d576105e06109c13660046105e5565b61374c565b601260006109d2825490565b83101561072f5750610352916109e7916106c1565b90610758565b3461034d576103a7610397610a03366004610697565b6109c6565b3461034d57610a18366004610342565b6105e0614115565b919060408382031261034d5761035290610a3a81856103dc565b936020016103c9565b906107ba90610355565b6107da61035292610a62600d93600094610a43565b6107b0565b3461034d576103a7610397610a7d366004610a20565b90610a4d565b3461034d576105e0610a963660046105e5565b612ff7565b3461034d576105e0610aae366004610697565b612cf4565b6103526000600a6106fd565b610376906107a7565b60208101929161037a9190610abf565b3461034d57610ae8366004610342565b6103a7610af3610ab3565b60405191829182610ac8565b3461034d57610b0f366004610342565b6103a7610b1a612614565b94610b2d98969894919493929360405190565b98899889908152610100810198979690959094909390929091602087015215156040860152151560608501526080840152151560a083015261ffff1660c082015260e00152565b61035260006005610758565b3461034d57610b90366004610342565b6103a7610397610b74565b3461034d57610bab366004610342565b6103a761055f614081565b610352600060026106fd565b3461034d57610bd2366004610342565b6103a761055f610bb6565b61035260006009610758565b3461034d57610bf9366004610342565b6103a7610397610bdd565b909160408284031261034d57813567ffffffffffffffff811161034d5783610c2d9184016103e9565b929093602082013567ffffffffffffffff811161034d5761047992016103e9565b3461034d576105e0610c61366004610c04565b929190916134a7565b80549192918310156106e4576010610c89600292600052602060002090565b8185040193060290565b60136000610c9f825490565b83101561072f575061035291610cb491610c6a565b9061085e565b3461034d576103a7610890610cd0366004610697565b610c93565b3461034d576105e0610ce8366004610626565b61359e565b61035260006008610809565b3461034d57610d09366004610342565b6103a761083b610ced565b3461034d57610d24366004610342565b6103a761dead61055f565b3461034d576105e0610d42366004610697565b612fa4565b61035260046008610809565b3461034d57610d63366004610342565b6103a761083b610d47565b3461034d57610d7e366004610342565b6103a77f000000000000000000000000000000000000000000000000000000000000000061093a565b610352906107da600f916000926107b0565b3461034d576103a7610397610dcf3660046105e5565b610da7565b61035260006007610758565b3461034d57610df0366004610342565b6103a7610397610dd4565b0190565b90610e1f610e18610e0e845190565b8084529260200190565b9260200190565b9060005b818110610e305750505090565b909192610e56610e4f60019286516001600160a01b0316815260200190565b9460200190565b929101610e23565b602080825261035292910190610dff565b3461034d57610e7f366004610342565b6103a7610e8a61277e565b60405191829182610e5e565b919060408382031261034d5761035290610eb081856103c9565b936020016103dc565b3461034d576105e0610ecc366004610e96565b90613526565b610352600060036106fd565b3461034d57610eee366004610342565b6103a761055f610ed2565b610352906107da6011916000926107b0565b3461034d576103a7610397610f213660046105e5565b610ef9565b61035290610f38600b916000926107b0565b610809565b3461034d576103a761083b610f533660046105e5565b610f26565b919060408382031261034d5761035290610f7281856103c9565b93602001610619565b3461034d576105e0610f8e366004610f58565b90612f35565b3461034d576103a7610397610faa3660046105e5565b6123d2565b90610fbe610e18610e0e845190565b9060005b818110610fcf5750505090565b909192610fe5610e4f6001928651815260200190565b929101610fc2565b90610ffc610e18610e0e845190565b9060005b81811061100d5750505090565b909192611027610e4f600192865161ffff16815260200190565b929101611000565b604080825261035293919261104691840190610faf565b916020818403910152610fed565b3461034d57611064366004610342565b61106c612cb4565b906103a761107960405190565b9283928361102f565b3461034d576105e06110953660046105e5565b6141ae565b3461034d576105e06110ad3660046105e5565b613037565b906110c7949392916110c2614267565b6111f3565b61037a614299565b6103529081565b61035290546110cf565b156110e757565b60405162461bcd60e51b8152602060048201526015602482015274149bdd5b99081b9bdd081a5b9a5d1a585b1a5e9959605a1b6044820152606490fd5b0390fd5b61035290610803565b6103529054611128565b1561114257565b60405162461bcd60e51b815260206004820152601260248201527110dbdb9d1c9858dd081a5cc81b1bd8dad95960721b6044820152606490fd5b1561118357565b60405162461bcd60e51b8152602060048201526011602482015270149bdd5b99081b9bdd081cdd185c9d1959607a1b6044820152606490fd5b156111c357565b60405162461bcd60e51b81526020600482015260086024820152674e6f2066756e647360c01b6044820152606490fd5b9061037a9493929161127d61120860056110d6565b61122460009161121e61121a84610355565b9190565b116110e0565b61123d6112386112346008611131565b1590565b61113b565b6112584261125161121a61035260066110d6565b101561117c565b6112606124bc565b9061126d61121a84610355565b11918215611282575b50506111bc565b6112d7565b61129191925061121a90610355565b113880611276565b156112a057565b60405162461bcd60e51b815260206004820152600f60248201526e139bdd081dda1a5d195b1a5cdd1959608a1b6044820152606490fd5b9061037a949392916112f26112ed868633613e6b565b611299565b61171d565b6103ab6103526103529290565b610352906112f7565b1561131457565b60405162461bcd60e51b815260206004820152601a60248201527f446f206e6f742073656e64204f4e4520776974682045524332300000000000006044820152606490fd5b1561136057565b60405162461bcd60e51b8152602060048201526013602482015272135a5cdb585d18da0813d39148185b5bdd5b9d606a1b6044820152606490fd5b156113a257565b60405162461bcd60e51b81526020600482015260136024820152721dd3d391481b9bdd0818dbdb999a59dd5c9959606a1b6044820152606490fd5b156113e457565b60405162461bcd60e51b8152602060048201526013602482015272151bdad95b881b9bdd081cdd5c1c1bdc9d1959606a1b6044820152606490fd5b1561142657565b60405162461bcd60e51b815260206004820152602160248201527f52656465656d20746f6b656e206d75737420626520774f4e45206f72205553446044820152604360f81b6064820152608490fd5b1561147c57565b60405162461bcd60e51b815260206004820152601260248201527111185a5b1e481b1a5b5a5d081b1bd8dad95960721b6044820152606490fd5b90600019905b9181191691161790565b906114d66103526114dd92610355565b82546114b6565b9055565b610352906103ab565b61035290546114e1565b634e487b7160e01b600052604160045260246000fd5b90601f01601f1916810190811067ffffffffffffffff82111761152c57604052565b6114f4565b9050519061037a826103d6565b60ff81166103c2565b9050519061037a8261153e565b919060408382031261034d576103529061156e8185611531565b93602001611547565b6040513d6000823e3d90fd5b1561158a57565b60405162461bcd60e51b815260206004820152600e60248201526d496e76616c6964206f7261636c6560901b6044820152606490fd5b9060208282031261034d5761035291611547565b634e487b7160e01b600052601160045260246000fd5b91906115f5565b9290565b820391821161160057565b6115d4565b1561160c57565b60405162461bcd60e51b8152602060048201526013602482015272115e18d959591cc819185a5b1e481b1a5b5a5d606a1b6044820152606490fd5b8181029291811591840414171561160057565b60ff16604d811161160057600a0a90565b634e487b7160e01b600052601260045260246000fd5b811561168b570490565b61166b565b9060208282031261034d5761035291611531565b156116ab57565b60405162461bcd60e51b8152602060048201526016602482015275496e73756666696369656e74206c697175696469747960501b6044820152606490fd5b9190820180921161160057565b90815260608101939261037a929091604091610665905b6001600160a01b03166020830152565b935091506118a79061172f6000611304565b6001600160a01b0381166001600160a01b03861614948515611ee4577f0000000000000000000000000000000000000000000000000000000000000000915b8615611ec7576117cb90611783873414611359565b6117c46117b77f0000000000000000000000000000000000000000000000000000000000000000926001600160a01b031690565b916001600160a01b031690565b141561139b565b6117e66117e16117dc84600b6107b0565b611131565b6113dd565b6001600160a01b037f0000000000000000000000000000000000000000000000000000000000000000166001600160a01b038416148015611e91575b61182b9061141f565b61183e61183933600f6107b0565b6110d6565b61184b61121a6000610355565b03611e6d575b61185a33613ecc565b6118686118393360106107b0565b61187561121a6000610355565b14611e59575b604061188f61188a600a6114ea565b6107a7565b63a3e6ba949061189e60405190565b96879260e01b90565b825260049082905afa938415611cbd5785946000918291611e26575b506118e1906118dc6118d56000610355565b8213611583565b610355565b916001600160a01b037f0000000000000000000000000000000000000000000000000000000000000000166001600160a01b03851603611d4d577f0000000000000000000000000000000000000000000000000000000000000000905b8561194c8486858b8a613b94565b938561196f61183961196861196160056110d6565b600d610a43565b33906107b0565b9461197a60076110d6565b600090871015611d41575061199b6103528761199660076110d6565b6115ea565b8711156119a790611605565b826119b2888d613acf565b9b8c6119bd916115ea565b986119c9928a8c613b94565b906001600160a01b037f0000000000000000000000000000000000000000000000000000000000000000166001600160a01b0385161460001493611a55611a5b611a43611a6696611a6195611a9599611d1a577f000000000000000000000000000000000000000000000000000000000000000095613cdc565b94611a55670de0b6b3a7640000610355565b90611647565b9161165a565b611681565b99611a70886107a7565b92611a7a846107a7565b9060206370a08231611a8b306107a7565b9361189e60405190565b82526001600160a01b038516600483015260249082905afa928315611cbd57611acc8d948f96600091611cec575b508611156116a4565b15611cc25750505050611b0161188a7f00000000000000000000000000000000000000000000000000000000000000006107a7565b9663d0e30db097803b1561034d57611b2898600091611b1f60405190565b9a8b9260e01b90565b825260049082908d905af1918215611cbd57611b73611b7f96611b6d8d9b948c95611b7a97611c9f575b505b611b5d8b6107a7565b611b6760026114ea565b906142e7565b8861400f565b33906142e7565b6116e9565b611b9881611b9361196861196160056110d6565b6114c6565b611ba861121a61035260076110d6565b14611c40575b611bbd42611b9333600e6107b0565b611be77ff0c71be01e59205b10ea5ae42439ab4504c7e3da732743531ff44e98bd9fd63f916107a7565b948592611c00611bf660405190565b92839288846116f6565b0390a27fc7e914640e860fbcf42ef4d9dceced8880d343828101f1fa389c7e1c0607281790611c2e336107a7565b92611c3b61068e60405190565b0390a3565b611c4e6118393360106107b0565b611c5b61121a6000610355565b03611c8657611c81611c76425b611c70610362565b906116e9565b611b9333600f6107b0565b611bae565b611c81611c76611c9a6118393360106107b0565b611c68565b611cb7906000611caf818361150a565b810190610342565b38611b52565b611577565b96611b6d849b611ce7611b7a9795611b7395611ce0611b7f9d6107a7565b3390614354565b611b54565b611d0d915060203d8111611d13575b611d05818361150a565b810190611690565b38611ac3565b503d611cfb565b7f000000000000000000000000000000000000000000000000000000000000000095613cdc565b61035261199b91610355565b6001600160a01b037f0000000000000000000000000000000000000000000000000000000000000000166001600160a01b03851603611dae577f00000000000000000000000000000000000000000000000000000000000000005b9061193e565b611dd995506020611dc161188a866107a7565b63313ce56790611dd060405190565b98899260e01b90565b825260049082905afa8015611cbd578796600091611df8575b50611da8565b611e19915060203d8111611e1f575b611e11818361150a565b8101906115c0565b38611df2565b503d611e07565b6118e19250611e4c915060403d8111611e52575b611e44818361150a565b810190611554565b916118c3565b503d611e3a565b611e6842611b933360106107b0565b61187b565b611e8c42611e8561121a61035261183933600f6107b0565b1015611475565b611851565b506001600160a01b038381167f000000000000000000000000000000000000000000000000000000000000000090911614611822565b50611edf34611ed961121a6000610355565b1461130d565b6117cb565b809161176e565b9061037a949392916110b2565b61183961035291611f07600090565b50600e6107b0565b60c05260a05290929091611f26919060c051613e6b565b918293611f366112346008611131565b90816123b7575b8194611f536117e16117dc600b60a051906107b0565b611f9c7f00000000000000000000000000000000000000000000000000000000000000006001600160a01b0381166001600160a01b038716148015612381575b6103ab9061141f565b60a0516001600160a01b0316036122b7577f0000000000000000000000000000000000000000000000000000000000000000925b83916001600160a01b037f0000000000000000000000000000000000000000000000000000000000000000166001600160a01b0387160361228e576120597f00000000000000000000000000000000000000000000000000000000000000005b8093604061204161188a600a6114ea565b63a3e6ba949061205060405190565b95869260e01b90565b825260049082905afa928315611cbd578a93600091829161226b575b50612087906118dc6118d56000610355565b90819561209a82848d829960a051613b94565b809b6120c06118396120b7600d6120b160056110d6565b90610a43565b60c051906107b0565b60106120d161183960c051836107b0565b6120de61121a6000610355565b14159081612247575b50612237575b6120f760076110d6565b60009082101561222757506121109061199660076110d6565b965b600f61212361183960c051836107b0565b61213061121a6000610355565b14159081612207575b5080156121fe575b6121d05750505050505050908187959493929761215d916115ea565b95612168868b613acf565b608052826080519a60805161217c916115ea565b99838b81848a60a0519361218f94613b94565b9261219992613cdc565b906121ab670de0b6b3a7640000610355565b6121b491611647565b6121bd8661165a565b6121c691611647565b9061035291611681565b99509950999a509a509a509a509a505050506121ec6000610355565b94979685968680968196959493929190565b50878311612141565b905061222061121a610352611839429460c051906107b0565b1038612139565b6122319150610355565b96612112565b506122426000610355565b6120ed565b905061226361121a610352611c68611839429560c051906107b0565b1015386120e7565b6120879250612288915060403d8111611e5257611e44818361150a565b91612075565b6120597f0000000000000000000000000000000000000000000000000000000000000000612030565b6001600160a01b037f00000000000000000000000000000000000000000000000000000000000000001660a0516001600160a01b03160361231a577f00000000000000000000000000000000000000000000000000000000000000005b92611fd0565b612345602061232d61188a60a0516107a7565b63313ce5679061233c60405190565b93849260e01b90565b825260049082905afa908115611cbd57600091612363575b50612314565b61237b915060203d8111611e1f57611e11818361150a565b3861235d565b506001600160a01b038681167f000000000000000000000000000000000000000000000000000000000000000090911614611f93565b9050426123ca61121a61035260066110d6565b101590611f3d565b600f6123e161183983836107b0565b906000916123f161121a84610355565b1415908161249f575b506124615761241561183983610a62600d6120b160056110d6565b91601061242561183983836107b0565b61243161121a85610355565b1415918261247c575b505061246b575b61244b60076110d6565b82101561246157506103529061199660076110d6565b6103529150610355565b905061247681610355565b90612441565b612496919250610352611c6861183961121a9342966107b0565b1015388061243a565b90506124b561121a6103526118398642956107b0565b10386123fa565b6124e861188a7f00000000000000000000000000000000000000000000000000000000000000006107a7565b906370a08231916124f8306107a7565b90602061250460405190565b80926125108760e01b90565b82526001600160a01b038516600483015260249082905afa918215611cbd5761259d926020926000916125cb575b509461258661256f61188a7f00000000000000000000000000000000000000000000000000000000000000006107a7565b9161257960405190565b9586948593849360e01b90565b83526001600160a01b031660048301526024820190565b03915afa908115611cbd576000916125b3575090565b610352915060203d8111611d1357611d05818361150a565b6125e29150833d8111611d1357611d05818361150a565b3861253e565b6103529060081c610803565b61035290546125e8565b6103529060101c610857565b61035290546125fe565b61261c6124bc565b909161262860056110d6565b9061263360066110d6565b936126416112346008611131565b93846126ce575b84612691575b505061265a6008611131565b9161266560076110d6565b9161267060086125f4565b9161267b600861260a565b9161268660096110d6565b919796959493929190565b909193506000916126a461121a84610355565b119182156126b7575b505091388061264e565b6126c691925061121a90610355565b1138806126ad565b9350426126e161121a61035260066110d6565b101593612648565b906127046126f8610e0e845490565b92600052602060002090565b9060005b8181106127155750505090565b90919261274261273b60019261272a876114ea565b6001600160a01b0316815260200190565b9460010190565b929101612708565b90610352916126e9565b9061037a61276e9261276560405190565b9384809261274a565b038361150a565b61035290612754565b610352600c612775565b906127976126f8610e0e845490565b9060005b8181106127a85750505090565b9091926127c561273b6001926127bd876110d6565b815260200190565b92910161279b565b9061035291612788565b9061037a61276e926127e860405190565b938480926127cd565b610352906127d7565b61035290610857565b6103529060201c610857565b6103529060301c610857565b6103529060401c610857565b6103529060501c610857565b6103529060601c610857565b6103529060701c610857565b6103529060801c610857565b6103529060901c610857565b6103529060a01c610857565b6103529060b01c610857565b6103529060c01c610857565b6103529060d01c610857565b6103529060e01c610857565b6103529060f01c610857565b906001906128c96128bd610e0e855490565b93600052602060002090565b600092612b3a575b6128dc565b50505090565b5490808310612b1d575b808310612b00575b808310612ae3575b808310612ac6575b808310612aa9575b808310612a8c575b808310612a6f575b808310612a52575b808310612a35575b808310612a18575b8083106129fb575b8083106129de575b8083106129c1575b8083106129a4575b808310612987575b8210612963575b806128d6565b8261297e6001939461297660209461289f565b61ffff169052565b0191013861295d565b919260208161299b60019361297686612893565b01930191612956565b91926020816129b860019361297686612887565b0193019161294e565b91926020816129d56001936129768661287b565b01930191612946565b91926020816129f26001936129768661286f565b0193019161293e565b9192602081612a0f60019361297686612863565b01930191612936565b9192602081612a2c60019361297686612857565b0193019161292e565b9192602081612a496001936129768661284b565b01930191612926565b9192602081612a666001936129768661283f565b0193019161291e565b9192602081612a8360019361297686612833565b01930191612916565b9192602081612aa060019361297686612827565b0193019161290e565b9192602081612abd6001936129768661281b565b01930191612906565b9192602081612ada6001936129768661280f565b019301916128fe565b9192602081612af760019361297686612803565b019301916128f6565b9192602081612b14600193612976866125fe565b019301916128ee565b9192602081612b31600193612976866127fa565b019301916128e6565b600f83018211156128d1579283549080612b53836127fa565b61ffff16905260200180612b66836125fe565b61ffff16905260200180612b7983612803565b61ffff16905260200180612b8c8361280f565b61ffff16905260200180612b9f8361281b565b61ffff16905260200180612bb283612827565b61ffff16905260200180612bc583612833565b61ffff16905260200180612bd88361283f565b61ffff16905260200180612beb8361284b565b61ffff16905260200180612bfe83612857565b61ffff16905260200180612c1183612863565b61ffff16905260200180612c248361286f565b61ffff16905260200180612c378361287b565b61ffff16905260200180612c4a83612887565b61ffff16905260200180612c5d83612893565b61ffff169052602001612c70819261289f565b61ffff169052602001926001019160100191612b3a565b90610352916128ab565b9061037a61276e92612ca260405190565b93848092612c87565b61035290612c91565b601390610352612cc460126127f1565b92612cab565b61037a90612cd66140db565b612ce9565b906114d66103526114dd9290565b61037a906004612cdb565b61037a90612cca565b9061037a91612d0a6140db565b612de8565b9060ff906114bc565b90612d286103526114dd92151590565b8254612d0f565b60001981146116005760010190565b916001600160a01b0360089290920291821b911b6114bc565b921b90565b9190612d6d6103526114dd936107a7565b908354612d3e565b634e487b7160e01b600052603160045260246000fd5b61037a91600091612d5c565b80548015612dba576000190190612db7612db183836106c1565b90612d8b565b55565b612d75565b90815491600160401b83101561152c5782612de291600161037a950181556106c1565b90612d5c565b612dfc82612df783600b6107b0565b612d18565b600091612e096000610355565b600c612e16610352825490565b821015612f2957612e2a61072983836106c1565b612e3c6001600160a01b0386166117b7565b14612e505750612e4b90612d2f565b612e09565b9293509091612e6d916001918291908515612ee1575b5050501590565b80612eda575b612eca575b7f24ac9305f628cc42ffe7a95d02adb6df8eaf4bd42d00b25165abd72d06bcfd1591612ec5612ea660405190565b6001600160a01b03909216825291151560208201529081906040820190565b0390a1565b612ed582600c612dbf565b612e78565b5080612e73565b610352612f1c92612de2612f15610729612f0f612f2198612f09612f03895490565b91610355565b906115ea565b866106c1565b91846106c1565b612d97565b388080612e66565b50509091612e6d901590565b9061037a91612cfd565b61037a90612f4b6140db565b612f56816008612d18565b612ec57f152cbfe4e8597a33181d2da9ed5162e734ca8b263b9eb6105f169287a39908f69161083f60405190565b61037a90612f3f565b61037a90612f996140db565b61037a9060076114c6565b61037a90612f8d565b61037a90612fb96140db565b612fe4565b906001600160a01b03906114bc565b90612fdd6103526114dd926107a7565b8254612fbe565b612ff061037a916107a7565b600a612fcd565b61037a90612fad565b61037a9061300c6140db565b61037a906002612fcd565b61037a90613000565b61037a9061302c6140db565b61037a906003612fcd565b61037a90613020565b9061037a93929161304f6140db565b61342e565b1561305b57565b60405162461bcd60e51b8152602060048201526012602482015271496e76616c69642066656520636f6e66696760701b6044820152606490fd5b9160001960089290920291821b911b6114bc565b91906130ba6103526114dd93610355565b908354613095565b61037a916000916130a9565b8181106130d9575050565b806130e760006001936130c2565b016130ce565b9061310090600019906020036008021c90565b8154169055565b909182811061311557505050565b61037a9290613123906126f8565b90810191016130ce565b90600160401b811161152c578161314561037a935490565b90828155613107565b35610352816103d6565b9067ffffffffffffffff831161152c5761317b6126f8600192610352868661312d565b92049160005b83811061318e5750505050565b600190602061319f6103528661314e565b9401938184015501613181565b9061037a9291613158565b8181106131c2575050565b806131d060006001936130c2565b016131b7565b9190918282106131e557505050565b61037a92600290601090600f0181900461320b6010600f87010494600052602060002090565b938401930193060260008111613222575b506131b7565b61322f90600183036130ed565b3861321c565b90600160401b811161152c578161324d61037a935490565b908281556131d6565b61ffff81166103c2565b3561035281613256565b919060086114bc910291612d5761ffff841b90565b6108576103526103529261ffff1690565b919067ffffffffffffffff821161152c576126f86132b2916103528486613235565b601082049160005b83811061331e5750601083029003600081116132d7575b50505050565b92600093845b8181106132f2575050500155388080806132d1565b90919460206133146001926133096103528a613260565b90856002029061326a565b96019291016132dd565b6000805b601081106133375750838201556001016132ba565b9590602061335860019261334d61035286613260565b908a6002029061326a565b92019601613322565b9061037a9291613290565b9037565b8183529091602001916001600160fb1b03811161034d5782916020610dfb920293849161336c565b9050359061037a82613256565b50610352906020810190613398565b818352602090920191906000825b8282106133d0575050505090565b909192936133fa6133f36001926133e788866133a5565b61ffff16815260200190565b9560200190565b939201906133c2565b929061342090610352959360408601918683036000880152613370565b9260208185039101526133b4565b909192612ec59061345b61344c6134428690565b611c706001610355565b6134558361121a565b14613054565b613467848460126131ac565b61347381866013613361565b7f24c55ad2a025115594fa08832ae03860656fa82ab5a4b4fd2360f6eb8ef2717b9461349e60405190565b94859485613403565b9061037a939291613040565b9061037a916134c06140db565b613501565b156134cc57565b60405162461bcd60e51b815260206004820152600d60248201526c139bdd081cdd5c1c1bdc9d1959609a1b6044820152606490fd5b90611b9361037a9261351f61351a6117dc83600b6107b0565b6134c5565b60116107b0565b9061037a916134b3565b61037a9061353c6140db565b613565565b9061ff009060081b6114bc565b9061355e6103526114dd92151590565b8254613541565b61357081600861354e565b612ec57ff6ee9fe93f292c45a3307220efbeeb1a744895ca22e3bee59a77e8077dbb9b3b9161083f60405190565b61037a90613530565b61037a906135b36140db565b61363a565b156135bf57565b60405162461bcd60e51b8152602060048201526011602482015270151bdad95b881b9bdd08185b1b1bddd959607a1b6044820152606490fd5b156135ff57565b60405162461bcd60e51b81526020600482015260136024820152724e6f7468696e6720746f20776974686472617760681b6044820152606490fd5b61368c6136c0916136717f00000000000000000000000000000000000000000000000000000000000000006001600160a01b031690565b6001600160a01b038216148015613716575b61188a906135b8565b6020613697826107a7565b6370a08231906125866136a9306107a7565b926136b360405190565b9687948593849360e01b90565b03915afa908115611cbd5761037a926000926136f6575b506136ec6136e56000610355565b83116135f8565b611b6760036114ea565b61370f91925060203d8111611d1357611d05818361150a565b90386136d7565b506001600160a01b038181167f000000000000000000000000000000000000000000000000000000000000000090911614613683565b61037a906135a7565b61037a906137616140db565b61383d565b1561376d57565b60405162461bcd60e51b8152602060048201526016602482015275526f756e64204944206d75737420696e63726561736560501b6044820152606490fd5b9063ffff00009060101b6114bc565b906137ca6103526114dd9261327f565b82546137ab565b9064ff000000009060201b6114bc565b906137f16103526114dd92151590565b82546137d1565b61ffff909116815260408101929161037a9160200152565b61066561037a9461383660609498979561382f608086019a6000870152565b6020850152565b6040830152565b61385461384d61035260056110d6565b8211613766565b61385c6124bc565b91600061386881610355565b83118015613a89575b61387a906111bc565b6138858260056114c6565b6138aa6138a34261389660086125f4565b15613a8057611c70610362565b60066114c6565b6138cb60406138bc61188a600a6114ea565b63a3e6ba949061233c60405190565b825260049082905afa8015611cbd57613993926000928392613a4d575b50611c70916118dc6118d56138fc93610355565b9161394a81847f0000000000000000000000000000000000000000000000000000000000000000897f0000000000000000000000000000000000000000000000000000000000000000613b94565b927f0000000000000000000000000000000000000000000000000000000000000000887f0000000000000000000000000000000000000000000000000000000000000000613b94565b6139a661399f82613b1b565b60086137ba565b6139b18160096114c6565b6139bd600160086137e1565b6139c7600861260a565b907ff121f4a7f16537a53a88f6bdceb7f1d8e6d6afb2a0ddae0ad3d241960a31cb23906139f384610355565b92613a09613a0060405190565b928392836137f8565b0390a2612ec5613a1960066110d6565b7f1a1ee66c2455254feac7d7ae83f4704fb8cbe6a92ad835371c69dfaa7b48ed9294613a4460405190565b94859485613810565b6118d59350611c709250906118dc613a756138fc9360403d8111611e5257611e44818361150a565b9550935050906138e8565b611c7084610355565b5061387a613a9682610355565b85119050613871565b61037a90613755565b6103529060201c610803565b6103529054613aa8565b6103526103526103529261ffff1690565b613b029061035292613adf600090565b50613aea6008613ab4565b15613b135750611a55613afd600861260a565b613abe565b613b0d612710610355565b90611681565b613afd611a55915b613b256000610355565b6012613b32610352825490565b821015613b6e576103526109e783613b49936106c1565b821115613b5e57613b5990612d2f565b613b25565b6103529150610cb4906013610c6a565b505050610352610cb46013613b8e613b84825490565b612f096001610355565b90610c6a565b9193909290916001600160a01b037f0000000000000000000000000000000000000000000000000000000000000000166001600160a01b03821603613c075750613b0d91613b0d611a5b612f0393613c0261035298613b0d611a5b670de0b6b3a76400009a611a558c610355565b611647565b9150506001600160a01b037f0000000000000000000000000000000000000000000000000000000000000000166001600160a01b03821603613c505750613b0d6103529261165a565b91601192613c6161183982866107b0565b613c6e61121a6000610355565b1115613c9f57611a5b613c8e93611a55611839613b0d94610352986107b0565b613b0d670de0b6b3a7640000610355565b60405162461bcd60e51b81526020600482015260156024820152742ab739bab83837b93a32b2103b30b63ab0ba34b7b760591b6044820152606490fd5b9091906001600160a01b037f0000000000000000000000000000000000000000000000000000000000000000166001600160a01b03821603613d2c57505050610352670de0b6b3a7640000610355565b613d5e6001600160a01b037f0000000000000000000000000000000000000000000000000000000000000000166117b7565b03613d7e57613b0d611a5b61035293611a55670de0b6b3a7640000610355565b60405162461bcd60e51b815260206004820152601860248201527f556e737570706f727465642072656465656d20746f6b656e00000000000000006044820152606490fd5b610376906001600160a01b031660601b90565b610dfb81601493613dc3565b9061037a613def60405190565b928361150a565b67ffffffffffffffff811161152c5760208091020190565b90929192613e23613e1e82613df6565b613de2565b938185526020808601920283019281841161034d57915b838310613e475750505050565b60208091613e5584866103dc565b815201920191613e3a565b610352913691613e0e565b613ec761035293613e7a600090565b50613e8560046110d6565b92613eae613e9260405190565b8092613ea2602083019182613dd6565b9081038252038261150a565b613ec0613eb9825190565b9160200190565b2093613e60565b614698565b600f613edb61183983836107b0565b90600091613eeb61121a84610355565b141580613fa5575b613f6c5750601090613f0861183984846107b0565b613f1461121a83610355565b141580613f4d575b613f2557505050565b61037a92613f35611b9392610355565b92610a6284611b9384610a62600d6120b160056110d6565b5042613f6561121a610352611c6861183988886107b0565b1015613f1c565b82613f9e611b9392611b93613f8461037a9796610355565b958692610a6284611b9384610a62600d6120b160056110d6565b60106107b0565b5042613fba61121a61035261183987866107b0565b1015613ef3565b67ffffffffffffffff811161152c57602090601f01601f19160190565b90613feb613e1e83613fc1565b918252565b3d1561400a57613fff3d613fde565b903d6000602084013e565b606090565b90600061401b81610355565b821461407c578061402b60405190565b630852cd8d60e31b60208201526024808201859052815261404d60448261150a565b80519060200182865af161405f613ff0565b506140785761407061037a926107a7565b61dead611b67565b5050565b505050565b61035260006114ea565b1561409257565b60405162461bcd60e51b815280611124600482016020808252818101527f4f776e61626c653a2063616c6c6572206973206e6f7420746865206f776e6572604082015260600190565b61037a6140e6614081565b6140f26117b7336103ab565b1461408b565b6141006140db565b61037a61037a6141106000611304565b6141b7565b61037a6140f8565b61037a906141296140db565b614189565b1561413557565b60405162461bcd60e51b815260206004820152602660248201527f4f776e61626c653a206e6577206f776e657220697320746865207a65726f206160448201526564647265737360d01b6064820152608490fd5b61037a9061411061419d6103ab6000611304565b6001600160a01b038316141561412e565b61037a9061411d565b6141c160006114ea565b906141cd816000612fcd565b6142006141fa7f8be0079c531659141344cd1fd0a4f28419497f9722a3daafe3b4186f6b6457e0936107a7565b916107a7565b9161420a60405190565b8080611c3b565b6103526002610355565b1561422257565b60405162461bcd60e51b815260206004820152601f60248201527f5265656e7472616e637947756172643a207265656e7472616e742063616c6c006044820152606490fd5b61037a61427460016110d6565b61428861427f614211565b9182141561421b565b60016114c6565b6103526001610355565b61037a61428861428f565b6142bd6142b76103529263ffffffff1690565b60e01b90565b6001600160e01b03191690565b6001600160a01b03909116815260408101929161037a9160200152565b61432a60049261431b61037a9561430163a9059cbb6142a4565b9261430b60405190565b96879460208601908152016142ca565b6020820181038252038361150a565b614445565b6001600160a01b03909116815260608101939261037a9290916040916106659061170d565b9061432a9061431b61037a956004956143706323b872dd6142a4565b9361437a60405190565b978895602087019081520161432f565b6143946020613fde565b7f5361666545524332303a206c6f772d6c6576656c2063616c6c206661696c6564602082015290565b61035261438a565b9050519061037a82610611565b9060208282031261034d57610352916143c5565b156143ed57565b60405162461bcd60e51b815260206004820152602a60248201527f5361666545524332303a204552433230206f7065726174696f6e20646964206e6044820152691bdd081cdd58d8d9595960b21b6064820152608490fd5b61037a91614455614464926107a7565b9061445e6143bd565b916144a2565b805161447361121a6000610355565b14908115614482575b506143e6565b61449c91506020614491825190565b8183010191016143d2565b3861447c565b61035292916144b16000610355565b91614512565b156144be57565b60405162461bcd60e51b815260206004820152602660248201527f416464726573733a20696e73756666696369656e742062616c616e636520666f6044820152651c8818d85b1b60d21b6064820152608490fd5b90600061035294938192614524606090565b5061453b614531306107a7565b83903110156144b7565b60208101905191855af161454d613ff0565b9161459f565b1561455a57565b60405162461bcd60e51b815260206004820152601d60248201527f416464726573733a2063616c6c20746f206e6f6e2d636f6e74726163740000006044820152606490fd5b919290156145d1575081516145b761121a6000610355565b146145c0575090565b6145cc610352916145d7565b614553565b82614651565b3b6145e561121a6000610355565b1190565b60005b8381106145fc5750506000910152565b81810151838201526020016145ec565b61462d614636602093610dfb93614621815190565b80835293849260200190565b958691016145e9565b601f01601f191690565b60208082526103529291019061460c565b9061465a825190565b61466761121a6000610355565b11156146765750805190602001fd5b6111249061468360405190565b62461bcd60e51b815291829160048301614640565b6115f16146b2929361121a926146ac600090565b506146d0565b1490565b906146bf825190565b8110156106e4576020809102010190565b6146da6000610355565b915b6146e7610352835190565b8310156147185761470c6147129161470661470286866146b6565b5190565b9061471e565b92612d2f565b916146dc565b91505090565b81811015614739579061035291600052602052604060002090565b6103529160005260205260406000209056fea26469706673582212200d5f8dc474c6159147508ade437bf53762f0e5f9dc4d73fcc21a814a85e0b88364736f6c63430008120033",
  "linkReferences": {},
  "deployedLinkReferences": {}
}