{
  "_format": "hh-sol-artifact-1",
  "contractName": "RecoveryVault",
  "sourceName": "contracts/RecoveryVault.sol",
  "abi": [
    {
      "inputs": [
        {
          "internalType": "address",
          "name": "_owner",
          "type": "address"
        },
        {
          "internalType": "address",
          "name": "_devWallet",
          "type": "address"
        },
        {
          "internalType": "address",
          "name": "_rmcWallet",
          "type": "address"
        },
        {
          "internalType": "address",
          "name": "_wone",
          "type": "address"
        },
        {
          "internalType": "address",
          "name": "_usdc",
          "type": "address"
        },
        {
          "internalType": "address[]",
          "name": "_supportedTokens",
          "type": "address[]"
        },
        {
          "internalType": "uint256",
          "name": "_dailyLimitUsd",
          "type": "uint256"
        },
        {
          "internalType": "address",
          "name": "_oracle",
          "type": "address"
        }
      ],
      "stateMutability": "nonpayable",
      "type": "constructor"
    },
    {
      "anonymous": false,
      "inputs": [
        {
          "indexed": true,
          "internalType": "address",
          "name": "tokenIn",
          "type": "address"
        },
        {
          "indexed": false,
          "internalType": "uint256",
          "name": "amountIn",
          "type": "uint256"
        },
        {
          "indexed": false,
          "internalType": "address",
          "name": "refundToken",
          "type": "address"
        },
        {
          "indexed": false,
          "internalType": "uint256",
          "name": "amountOut",
          "type": "uint256"
        }
      ],
      "name": "BurnToken",
      "type": "event"
    },
    {
      "anonymous": false,
      "inputs": [
        {
          "indexed": false,
          "internalType": "uint256[]",
          "name": "thresholds",
          "type": "uint256[]"
        },
        {
          "indexed": false,
          "internalType": "uint16[]",
          "name": "bps",
          "type": "uint16[]"
        }
      ],
      "name": "FeeTiersUpdated",
      "type": "event"
    },
    {
      "anonymous": false,
      "inputs": [
        {
          "indexed": false,
          "internalType": "uint256",
          "name": "roundId",
          "type": "uint256"
        },
        {
          "indexed": false,
          "internalType": "uint256",
          "name": "woneBalance",
          "type": "uint256"
        },
        {
          "indexed": false,
          "internalType": "uint256",
          "name": "usdcBalance",
          "type": "uint256"
        },
        {
          "indexed": false,
          "internalType": "uint256",
          "name": "startTime",
          "type": "uint256"
        }
      ],
      "name": "NewRoundStarted",
      "type": "event"
    },
    {
      "anonymous": false,
      "inputs": [
        {
          "indexed": true,
          "internalType": "address",
          "name": "previousOwner",
          "type": "address"
        },
        {
          "indexed": true,
          "internalType": "address",
          "name": "newOwner",
          "type": "address"
        }
      ],
      "name": "OwnershipTransferred",
      "type": "event"
    },
    {
      "anonymous": false,
      "inputs": [
        {
          "indexed": true,
          "internalType": "address",
          "name": "user",
          "type": "address"
        },
        {
          "indexed": true,
          "internalType": "address",
          "name": "tokenIn",
          "type": "address"
        },
        {
          "indexed": false,
          "internalType": "uint256",
          "name": "amountIn",
          "type": "uint256"
        },
        {
          "indexed": false,
          "internalType": "uint256",
          "name": "amountOut",
          "type": "uint256"
        }
      ],
      "name": "RedeemProcessed",
      "type": "event"
    },
    {
      "anonymous": false,
      "inputs": [
        {
          "indexed": false,
          "internalType": "address",
          "name": "token",
          "type": "address"
        },
        {
          "indexed": false,
          "internalType": "bool",
          "name": "allowed",
          "type": "bool"
        }
      ],
      "name": "SupportedTokenUpdated",
      "type": "event"
    },
    {
      "anonymous": false,
      "inputs": [
        {
          "indexed": false,
          "internalType": "bool",
          "name": "isPaused",
          "type": "bool"
        }
      ],
      "name": "VaultPaused",
      "type": "event"
    },
    {
      "inputs": [],
      "name": "ROUND_DELAY",
      "outputs": [
        {
          "internalType": "uint256",
          "name": "",
          "type": "uint256"
        }
      ],
      "stateMutability": "view",
      "type": "function"
    },
    {
      "inputs": [],
      "name": "WALLET_RESET_INTERVAL",
      "outputs": [
        {
          "internalType": "uint256",
          "name": "",
          "type": "uint256"
        }
      ],
      "stateMutability": "view",
      "type": "function"
    },
    {
      "inputs": [],
      "name": "currentRound",
      "outputs": [
        {
          "internalType": "uint256",
          "name": "",
          "type": "uint256"
        }
      ],
      "stateMutability": "view",
      "type": "function"
    },
    {
      "inputs": [],
      "name": "dailyLimitUsd",
      "outputs": [
        {
          "internalType": "uint256",
          "name": "",
          "type": "uint256"
        }
      ],
      "stateMutability": "view",
      "type": "function"
    },
    {
      "inputs": [],
      "name": "devWallet",
      "outputs": [
        {
          "internalType": "address",
          "name": "",
          "type": "address"
        }
      ],
      "stateMutability": "view",
      "type": "function"
    },
    {
      "inputs": [
        {
          "internalType": "uint256",
          "name": "",
          "type": "uint256"
        }
      ],
      "name": "feeBps",
      "outputs": [
        {
          "internalType": "uint16",
          "name": "",
          "type": "uint16"
        }
      ],
      "stateMutability": "view",
      "type": "function"
    },
    {
      "inputs": [
        {
          "internalType": "uint256",
          "name": "",
          "type": "uint256"
        }
      ],
      "name": "feeThresholds",
      "outputs": [
        {
          "internalType": "uint256",
          "name": "",
          "type": "uint256"
        }
      ],
      "stateMutability": "view",
      "type": "function"
    },
    {
      "inputs": [
        {
          "internalType": "address",
          "name": "",
          "type": "address"
        }
      ],
      "name": "fixedUsdPrice",
      "outputs": [
        {
          "internalType": "uint256",
          "name": "",
          "type": "uint256"
        }
      ],
      "stateMutability": "view",
      "type": "function"
    },
    {
      "inputs": [],
      "name": "getFeeTiers",
      "outputs": [
        {
          "internalType": "uint256[]",
          "name": "thresholds",
          "type": "uint256[]"
        },
        {
          "internalType": "uint16[]",
          "name": "bps",
          "type": "uint16[]"
        }
      ],
      "stateMutability": "view",
      "type": "function"
    },
    {
      "inputs": [
        {
          "internalType": "address",
          "name": "user",
          "type": "address"
        }
      ],
      "name": "getLastRedeemTimestamp",
      "outputs": [
        {
          "internalType": "uint256",
          "name": "",
          "type": "uint256"
        }
      ],
      "stateMutability": "view",
      "type": "function"
    },
    {
      "inputs": [],
      "name": "getRoundInfo",
      "outputs": [
        {
          "internalType": "uint256",
          "name": "roundId",
          "type": "uint256"
        },
        {
          "internalType": "uint256",
          "name": "startTime",
          "type": "uint256"
        },
        {
          "internalType": "bool",
          "name": "isActive",
          "type": "bool"
        },
        {
          "internalType": "bool",
          "name": "paused",
          "type": "bool"
        },
        {
          "internalType": "uint256",
          "name": "limitUsd",
          "type": "uint256"
        }
      ],
      "stateMutability": "view",
      "type": "function"
    },
    {
      "inputs": [],
      "name": "getSupportedTokens",
      "outputs": [
        {
          "internalType": "address[]",
          "name": "",
          "type": "address[]"
        }
      ],
      "stateMutability": "view",
      "type": "function"
    },
    {
      "inputs": [
        {
          "internalType": "address",
          "name": "wallet",
          "type": "address"
        }
      ],
      "name": "getUserLimit",
      "outputs": [
        {
          "internalType": "uint256",
          "name": "remainingUSD",
          "type": "uint256"
        }
      ],
      "stateMutability": "view",
      "type": "function"
    },
    {
      "inputs": [],
      "name": "getVaultBalances",
      "outputs": [
        {
          "internalType": "uint256",
          "name": "woneBalance",
          "type": "uint256"
        },
        {
          "internalType": "uint256",
          "name": "usdcBalance",
          "type": "uint256"
        }
      ],
      "stateMutability": "view",
      "type": "function"
    },
    {
      "inputs": [],
      "name": "isLocked",
      "outputs": [
        {
          "internalType": "bool",
          "name": "",
          "type": "bool"
        }
      ],
      "stateMutability": "view",
      "type": "function"
    },
    {
      "inputs": [
        {
          "internalType": "address",
          "name": "",
          "type": "address"
        }
      ],
      "name": "lastRedeemTimestamp",
      "outputs": [
        {
          "internalType": "uint256",
          "name": "",
          "type": "uint256"
        }
      ],
      "stateMutability": "view",
      "type": "function"
    },
    {
      "inputs": [],
      "name": "merkleRoot",
      "outputs": [
        {
          "internalType": "bytes32",
          "name": "",
          "type": "bytes32"
        }
      ],
      "stateMutability": "view",
      "type": "function"
    },
    {
      "inputs": [],
      "name": "oracle",
      "outputs": [
        {
          "internalType": "contract IOracle",
          "name": "",
          "type": "address"
        }
      ],
      "stateMutability": "view",
      "type": "function"
    },
    {
      "inputs": [],
      "name": "owner",
      "outputs": [
        {
          "internalType": "address",
          "name": "",
          "type": "address"
        }
      ],
      "stateMutability": "view",
      "type": "function"
    },
    {
      "inputs": [
        {
          "internalType": "address",
          "name": "user",
          "type": "address"
        },
        {
          "internalType": "address",
          "name": "tokenIn",
          "type": "address"
        },
        {
          "internalType": "uint256",
          "name": "amountIn",
          "type": "uint256"
        },
        {
          "internalType": "address",
          "name": "redeemIn",
          "type": "address"
        },
        {
          "internalType": "bytes32[]",
          "name": "proof",
          "type": "bytes32[]"
        }
      ],
      "name": "quoteRedeem",
      "outputs": [
        {
          "internalType": "bool",
          "name": "whitelisted",
          "type": "bool"
        },
        {
          "internalType": "bool",
          "name": "roundIsActive",
          "type": "bool"
        },
        {
          "internalType": "uint256",
          "name": "feeAmountInTokenIn",
          "type": "uint256"
        },
        {
          "internalType": "uint256",
          "name": "burnAmountInTokenIn",
          "type": "uint256"
        },
        {
          "internalType": "uint256",
          "name": "userLimitUsdBefore",
          "type": "uint256"
        },
        {
          "internalType": "uint256",
          "name": "userLimitUsdAfter",
          "type": "uint256"
        },
        {
          "internalType": "uint256",
          "name": "usdValueIn",
          "type": "uint256"
        },
        {
          "internalType": "uint8",
          "name": "tokenInDecimals",
          "type": "uint8"
        },
        {
          "internalType": "uint8",
          "name": "redeemInDecimals",
          "type": "uint8"
        },
        {
          "internalType": "uint256",
          "name": "oraclePrice",
          "type": "uint256"
        },
        {
          "internalType": "uint8",
          "name": "oracleDecimals",
          "type": "uint8"
        },
        {
          "internalType": "uint256",
          "name": "amountOutRedeemToken",
          "type": "uint256"
        }
      ],
      "stateMutability": "view",
      "type": "function"
    },
    {
      "inputs": [
        {
          "internalType": "address",
          "name": "tokenIn",
          "type": "address"
        },
        {
          "internalType": "uint256",
          "name": "amountIn",
          "type": "uint256"
        },
        {
          "internalType": "address",
          "name": "redeemIn",
          "type": "address"
        },
        {
          "internalType": "bytes32[]",
          "name": "proof",
          "type": "bytes32[]"
        }
      ],
      "name": "redeem",
      "outputs": [],
      "stateMutability": "payable",
      "type": "function"
    },
    {
      "inputs": [
        {
          "internalType": "uint256",
          "name": "",
          "type": "uint256"
        },
        {
          "internalType": "address",
          "name": "",
          "type": "address"
        }
      ],
      "name": "redeemedInRound",
      "outputs": [
        {
          "internalType": "uint256",
          "name": "",
          "type": "uint256"
        }
      ],
      "stateMutability": "view",
      "type": "function"
    },
    {
      "inputs": [],
      "name": "renounceOwnership",
      "outputs": [],
      "stateMutability": "nonpayable",
      "type": "function"
    },
    {
      "inputs": [],
      "name": "rmcWallet",
      "outputs": [
        {
          "internalType": "address",
          "name": "",
          "type": "address"
        }
      ],
      "stateMutability": "view",
      "type": "function"
    },
    {
      "inputs": [],
      "name": "roundStart",
      "outputs": [
        {
          "internalType": "uint256",
          "name": "",
          "type": "uint256"
        }
      ],
      "stateMutability": "view",
      "type": "function"
    },
    {
      "inputs": [
        {
          "internalType": "uint256",
          "name": "usdAmount",
          "type": "uint256"
        }
      ],
      "name": "setDailyLimit",
      "outputs": [],
      "stateMutability": "nonpayable",
      "type": "function"
    },
    {
      "inputs": [
        {
          "internalType": "address",
          "name": "wallet",
          "type": "address"
        }
      ],
      "name": "setDevWallet",
      "outputs": [],
      "stateMutability": "nonpayable",
      "type": "function"
    },
    {
      "inputs": [
        {
          "internalType": "uint256[]",
          "name": "thresholds",
          "type": "uint256[]"
        },
        {
          "internalType": "uint16[]",
          "name": "bps",
          "type": "uint16[]"
        }
      ],
      "name": "setFeeTiers",
      "outputs": [],
      "stateMutability": "nonpayable",
      "type": "function"
    },
    {
      "inputs": [
        {
          "internalType": "address",
          "name": "token",
          "type": "address"
        },
        {
          "internalType": "uint256",
          "name": "usdPrice18",
          "type": "uint256"
        }
      ],
      "name": "setFixedUsdPrice",
      "outputs": [],
      "stateMutability": "nonpayable",
      "type": "function"
    },
    {
      "inputs": [
        {
          "internalType": "bool",
          "name": "_status",
          "type": "bool"
        }
      ],
      "name": "setLocked",
      "outputs": [],
      "stateMutability": "nonpayable",
      "type": "function"
    },
    {
      "inputs": [
        {
          "internalType": "bytes32",
          "name": "_root",
          "type": "bytes32"
        }
      ],
      "name": "setMerkleRoot",
      "outputs": [],
      "stateMutability": "nonpayable",
      "type": "function"
    },
    {
      "inputs": [
        {
          "internalType": "address",
          "name": "_oracle",
          "type": "address"
        }
      ],
      "name": "setOracle",
      "outputs": [],
      "stateMutability": "nonpayable",
      "type": "function"
    },
    {
      "inputs": [
        {
          "internalType": "address",
          "name": "wallet",
          "type": "address"
        }
      ],
      "name": "setRmcWallet",
      "outputs": [],
      "stateMutability": "nonpayable",
      "type": "function"
    },
    {
      "inputs": [
        {
          "internalType": "address",
          "name": "token",
          "type": "address"
        },
        {
          "internalType": "bool",
          "name": "allowed",
          "type": "bool"
        }
      ],
      "name": "setSupportedToken",
      "outputs": [],
      "stateMutability": "nonpayable",
      "type": "function"
    },
    {
      "inputs": [
        {
          "internalType": "uint256",
          "name": "_roundId",
          "type": "uint256"
        }
      ],
      "name": "startNewRound",
      "outputs": [],
      "stateMutability": "nonpayable",
      "type": "function"
    },
    {
      "inputs": [
        {
          "internalType": "address",
          "name": "",
          "type": "address"
        }
      ],
      "name": "supportedToken",
      "outputs": [
        {
          "internalType": "bool",
          "name": "",
          "type": "bool"
        }
      ],
      "stateMutability": "view",
      "type": "function"
    },
    {
      "inputs": [
        {
          "internalType": "uint256",
          "name": "",
          "type": "uint256"
        }
      ],
      "name": "supportedTokenList",
      "outputs": [
        {
          "internalType": "address",
          "name": "",
          "type": "address"
        }
      ],
      "stateMutability": "view",
      "type": "function"
    },
    {
      "inputs": [
        {
          "internalType": "address",
          "name": "newOwner",
          "type": "address"
        }
      ],
      "name": "transferOwnership",
      "outputs": [],
      "stateMutability": "nonpayable",
      "type": "function"
    },
    {
      "inputs": [],
      "name": "usdc",
      "outputs": [
        {
          "internalType": "address",
          "name": "",
          "type": "address"
        }
      ],
      "stateMutability": "view",
      "type": "function"
    },
    {
      "inputs": [],
      "name": "wONE",
      "outputs": [
        {
          "internalType": "address",
          "name": "",
          "type": "address"
        }
      ],
      "stateMutability": "view",
      "type": "function"
    },
    {
      "inputs": [
        {
          "internalType": "address",
          "name": "token",
          "type": "address"
        }
      ],
      "name": "withdrawFunds",
      "outputs": [],
      "stateMutability": "nonpayable",
      "type": "function"
    }
  ],
  "bytecode": "0x60c060405234620000a757620000286200001862000273565b96959095949194939293620007fe565b604051613d5062000aac823960805181818161049f0152818161140f015281816114c10152818161195401528181611cbc01528181612d850152818161308801526133a1015260a0518181816106ff015281816117e501528181611bf801528181611d4301528181612e59015281816131be01526133530152613d5090f35b600080fd5b634e487b7160e01b600052604160045260246000fd5b90601f01601f191681019081106001600160401b03821117620000e457604052565b620000ac565b9062000101620000f960405190565b9283620000c2565b565b6001600160a01b031690565b90565b6001600160a01b0381165b03620000a757565b90505190620001018262000112565b6001600160401b038111620000e45760208091020190565b90929192620001656200015f8262000134565b620000ea565b9381855260208086019202830192818411620000a757915b8383106200018b5750505050565b602080916200019b848662000125565b8152019201916200017d565b9080601f83011215620000a75781516200010f926020016200014c565b806200011d565b905051906200010182620001c4565b61010081830312620000a757620001f2828262000125565b9262000202836020840162000125565b92604090620002148183860162000125565b9362000224826060830162000125565b9362000234836080840162000125565b9360018060a0850151921b038111620000a75762000259846200010f928501620001a7565b93620002698160c08601620001cb565b9360e00162000125565b62000296620047fc803803806200028a81620000ea565b928339810190620001da565b9091929394959697565b6001600160401b038111620000e45760200290565b6200015f6200010f91620002a0565b620002d46200010f6200010f9290565b61ffff1690565b634e487b7160e01b600052601160045260246000fd5b9160001960089290920291821b911b6200030b565b921b90565b9181191691161790565b6200010f6200010f6200010f9290565b91906200033a6200010f620003439362000315565b908354620002f1565b9055565b620001019160009162000325565b81811062000361575050565b8062000371600060019362000347565b0162000355565b906200038c90600019906020036008021c90565b8154169055565b9091828110620003a257505050565b620001019290620003ba905b92600052602060002090565b908101910162000355565b90680100000000000000008111620000e45781620003e562000101935490565b9082815562000393565b60039162000409620003ae6001926200010f8686620003c5565b92049160005b8381106200041d5750505050565b6001906020620004336200010f865161ffff1690565b94019381840155016200040f565b906200010191620003ef565b6200045d6200010f6200010f9290565b60ff1690565b8181106200046f575050565b806200047f600060019362000347565b0162000463565b9190918282106200049657505050565b6200010192600290601090600f01819004620004be6010600f87010494600052602060002090565b938401930193060260008111620004d7575b5062000463565b620004e6906001830362000378565b38620004d0565b90680100000000000000008111620000e457816200050d62000101935490565b9082815562000486565b919060086200030b9102916200030661ffff841b90565b90600490620003ae62000547916200010f8486620004ed565b601082049160005b838110620005be5750601083029003600081116200056e575b50505050565b92600093845b8181106200058b5750505001553880808062000568565b9091946020620005b3600192620005a76200010f8a5160ff1690565b90856002029062000517565b960192910162000574565b6000805b60108110620005d95750838201556001016200054f565b9590602062000600600192620005f46200010f865160ff1690565b908a6002029062000517565b92019601620005c2565b9062000101916200052e565b906001600160a01b03906200030b565b6200010f9062000103906001600160a01b031682565b6200010f9062000626565b6200010f906200063c565b90620006666200010f620003439262000647565b825462000616565b90600019906200030b565b906200068d6200010f620003439262000315565b82546200066e565b90610100600160a81b039060081b6200030b565b90620006bd6200010f620003439262000647565b825462000695565b6000198114620006d55760010190565b620002db565b634e487b7160e01b600052603260045260246000fd5b90620006fb825190565b8110156200070d576020809102010190565b620006db565b906200071f9062000647565b600052602052604060002090565b9060ff906200030b565b906200074a6200010f6200034392151590565b82546200072d565b80548210156200070d576200076e600191600052602060002090565b91020190600090565b916001600160a01b0360089290920291821b911b6200030b565b9190620007a66200010f620003439362000647565b90835462000777565b9081549168010000000000000000831015620000e45782620007db916001620001019501815562000752565b9062000791565b6001600160a01b03919091168152901515602082015260400190565b9593929190979694976200081162000a07565b6200081d6003620002b5565b966064976200082c89620002c4565b61ffff1681526200083e60fa620002c4565b61ffff166020820152620008546103e8620002c4565b61ffff1660408201526200086a90600e62000441565b620008766004620002b5565b9762000882906200044d565b60ff1688526200089360326200044d565b60ff166020890152620008a760196200044d565b60ff166040890152600a97620008bd896200044d565b60ff166060820152620008d290600f6200060a565b620008dd9062000a49565b620008ea90600262000652565b620008f790600362000652565b60805260a0526200090a90600762000679565b620009159062000647565b62000922906008620006a9565b6200092e600062000315565b6200093b6200010f855190565b811015620009f557620009ef9060016200097f816200097960096200097262000965878c620006f1565b516001600160a01b031690565b9062000713565b62000737565b6200099b846200099462000965858a620006f1565b90620007af565b620009ab620009658388620006f1565b907f24ac9305f628cc42ffe7a95d02adb6df8eaf4bd42d00b25165abd72d06bcfd1591620009e6620009dc60405190565b92839283620007e2565b0390a1620006c5565b6200092e565b50509050565b6200010f600162000315565b62000a1162000a27565b6200010162000a1f620009fb565b600162000679565b620001013362000a49565b6200010f9062000103565b6200010f905462000a32565b62000a55600062000a3d565b9062000a6381600062000652565b62000a9a62000a937f8be0079c531659141344cd1fd0a4f28419497f9722a3daafe3b4186f6b6457e09362000647565b9162000647565b9162000aa560405190565b600090a356fe6080604052600436101561001257600080fd5b60003560e01c80631073e2a714610216578063178906bf1461029d578063196b004b146102985780631efb1aa6146102935780631f53ac021461028e578063211e28b61461028957806322370685146102845780632b60c8221461027f5780632eb4a7ab1461027a5780633e413bee1461027557806340365852146102705780634615102c1461026b578063589db8d414610266578063659590c51461026157806368742da61461025c57806369c5b5e614610257578063715018a61461025257806373a1a2521461024d5780637adbf973146102485780637cb64759146102435780637dc0d1d01461023e57806384bc76a6146102395780638a19c8bc146102345780638da5cb5b1461022f5780638ea5220f1461022a5780639eee94a814610225578063a060cc2114610220578063a4e2d6341461021b578063ad655ef614610216578063b20d30a914610211578063ca26c5321461020c578063d3c7c2c714610207578063d656c29c14610202578063d6691e47146101fd578063e2363006146101f8578063e2c6e438146101f3578063e7986466146101ee578063e9587e86146101e9578063e9a4d24f146101e4578063f2fde38b146101df5763fe531ab4036102ad57610e48565b610e30565b610e02565b610d42565b610d29565b610ceb565b610cb9565b610c8c565b610c67565b610c1d565b610b8e565b610b6a565b6102dc565b610b3c565b610ae6565b610a5f565b6109fa565b6109d3565b6109b8565b61097b565b610917565b6108da565b6108c2565b6108a6565b610847565b61082c565b6107ed565b6107d2565b6107b7565b61074a565b61072f565b6106ea565b6106cf565b610692565b6105c9565b61059a565b610559565b610529565b61048a565b610446565b60009103126102ad57565b600080fd5b90565b6102b26102b26102b29290565b6102b2620151806102b5565b6102b26102c2565b9052565b565b346102ad576102ec3660046102a2565b6103076102f76102ce565b6040519182918290815260200190565b0390f35b6001600160a01b031690565b6001600160a01b0381165b036102ad57565b905035906102da82610317565b80610322565b905035906102da82610336565b909182601f830112156102ad5781359167ffffffffffffffff83116102ad5760200192602083028401116102ad57565b91909160a0818403126102ad576103908382610329565b9261039e8160208401610329565b926103ac826040850161033c565b926103ba8360608301610329565b92608082013567ffffffffffffffff81116102ad576103d99201610349565b9091565b99979593919c9b9a98969492909c6101808b019d60008c016103ff9115159052565b151560208b015260408a01526060890152608088015260a087015260c086015260ff1660e085015260ff1661010084015261012083015260ff166101408201526101600152565b346102ad5761030761046861045c366004610379565b9493909392919261190c565b986104819c9a9c98919897929796939695949560405190565b9c8d9c8d6103dd565b346102ad5761049a3660046102a2565b6103077f00000000000000000000000000000000000000000000000000000000000000005b604051918291826001600160a01b03909116815260200190565b906080828203126102ad576104ee8183610329565b926104fc826020850161033c565b9261050a8360408301610329565b92606082013567ffffffffffffffff81116102ad576103d99201610349565b6105406105373660046104d9565b93929092611872565b604051005b906020828203126102ad576102b291610329565b346102ad5761054061056c366004610545565b6127d8565b801515610322565b905035906102da82610571565b906020828203126102ad576102b291610579565b346102ad576105406105ad366004610586565b612716565b9081526040810192916102da9160200152565b0152565b346102ad576105d93660046102a2565b6105e1611cb4565b906103076105ee60405190565b928392836105b2565b906020828203126102ad576102b29161033c565b634e487b7160e01b600052603260045260246000fd5b80548210156106445761063b600191600052602060002090565b91020190600090565b61060b565b6102b2916008021c6001600160a01b031690565b906102b29154610649565b600a6000610674825490565b83101561068f57506102b29161068991610621565b9061065d565b80fd5b346102ad576103076104bf6106a83660046105f7565b610668565b6102b2916008021c81565b906102b291546106ad565b6102b2600060046106b8565b346102ad576106df3660046102a2565b6103076102f76106c3565b346102ad576106fa3660046102a2565b6103077f00000000000000000000000000000000000000000000000000000000000000006104bf565b6102b2600060066106b8565b346102ad5761073f3660046102a2565b6103076102f7610723565b346102ad5761054061075d3660046105f7565b612fbf565b6102b29061030b906001600160a01b031682565b6102b290610762565b6102b290610776565b906107929061077f565b600052602052604060002090565b6102b2906107b2600c91600092610788565b6106b8565b346102ad576103076102f76107cd366004610545565b6107a0565b346102ad576103076102f76107e8366004610545565b61187f565b346102ad57610540610800366004610545565b612e81565b600e6000610811825490565b83101561068f57506102b29161082691610621565b906106b8565b346102ad576103076102f76108423660046105f7565b610805565b346102ad576108573660046102a2565b610540613696565b91906040838203126102ad576102b290610879818561033c565b93602001610329565b90610792906102b5565b6107b26102b2926108a1600b93600094610882565b610788565b346102ad576103076102f76108bc36600461085f565b9061088c565b346102ad576105406108d5366004610545565b61278d565b346102ad576105406108ed3660046105f7565b612483565b6102b26001600861065d565b6102d69061077f565b6020810192916102da91906108fe565b346102ad576109273660046102a2565b6103076109326108f2565b60405191829182610907565b909594926102da946109726105c59261096960809661096260a088019c6000890152565b6020870152565b15156040850152565b15156060830152565b346102ad5761098b3660046102a2565b610307610996611dbc565b916109a395939560405190565b9586958661093e565b6102b2600060056106b8565b346102ad576109c83660046102a2565b6103076102f76109ac565b346102ad576109e33660046102a2565b6103076104bf613602565b6102b26000600261065d565b346102ad57610a0a3660046102a2565b6103076104bf6109ee565b90916040828403126102ad57813567ffffffffffffffff81116102ad5783610a3e918401610349565b929093602082013567ffffffffffffffff81116102ad576103d99201610349565b346102ad57610540610a72366004610a15565b92919091612c5d565b8054919291831015610644576010610a9a600292600052602060002090565b8185040193060290565b6102b2916008021c5b61ffff1690565b906102b29154610aa4565b600f6000610acb825490565b83101561068f57506102b291610ae091610a7b565b90610ab4565b346102ad57610307610b01610afc3660046105f7565b610abf565b6040519182918261ffff909116815260200190565b6102b2916008021c5b60ff1690565b906102b29154610b16565b6102b260006008610b25565b346102ad57610b4c3660046102a2565b610307610b57610b30565b6040515b91829182901515815260200190565b346102ad57610540610b7d3660046105f7565b612736565b6102b2600060076106b8565b346102ad57610b9e3660046102a2565b6103076102f7610b82565b0190565b90610bcd610bc6610bbc845190565b8084529260200190565b9260200190565b9060005b818110610bde5750505090565b909192610c04610bfd60019286516001600160a01b0316815260200190565b9460200190565b929101610bd1565b60208082526102b292910190610bad565b346102ad57610c2d3660046102a2565b610307610c38611f01565b60405191829182610c0c565b91906040838203126102ad576102b290610c5e8185610329565b9360200161033c565b346102ad57610540610c7a366004610c44565b90612cdc565b6102b26000600361065d565b346102ad57610c9c3660046102a2565b6103076104bf610c80565b6102b2906107b2600d91600092610788565b346102ad576103076102f7610ccf366004610545565b610ca7565b6102b290610ce6600991600092610788565b610b25565b346102ad57610307610b57610d01366004610545565b610cd4565b91906040838203126102ad576102b290610d208185610329565b93602001610579565b346102ad57610540610d3c366004610d06565b906126c7565b346102ad576103076102f7610d58366004610545565b611c39565b90610d6c610bc6610bbc845190565b9060005b818110610d7d5750505090565b909192610d93610bfd6001928651815260200190565b929101610d70565b90610daa610bc6610bbc845190565b9060005b818110610dbb5750505090565b909192610dd5610bfd600192865161ffff16815260200190565b929101610dae565b60408082526102b2939192610df491840190610d5d565b916020818403910152610d9b565b346102ad57610e123660046102a2565b610e1a612443565b90610307610e2760405190565b92839283610ddd565b346102ad57610540610e43366004610545565b61372f565b346102ad57610540610e5b366004610545565b6127f8565b90610e7594939291610e706137e8565b610f5d565b6102da61381a565b6102b290610b1f565b6102b29054610e7d565b15610e9757565b60405162461bcd60e51b815260206004820152601260248201527110dbdb9d1c9858dd081a5cc81b1bd8dad95960721b6044820152606490fd5b0390fd5b6102b29081565b6102b29054610ed5565b15610eed57565b60405162461bcd60e51b8152602060048201526011602482015270149bdd5b99081b9bdd081cdd185c9d1959607a1b6044820152606490fd5b15610f2d57565b60405162461bcd60e51b81526020600482015260086024820152674e6f2066756e647360c01b6044820152606490fd5b906102da94939291610f7e610f79610f756008610e86565b1590565b610e90565b610f9d42610f96610f926102b26006610edc565b9190565b1015610ee6565b610fc7610fa8611cb4565b600091610fb7610f92846102b5565b11918215610fcc575b5050610f26565b611021565b610fdb919250610f92906102b5565b113880610fc0565b15610fea57565b60405162461bcd60e51b815260206004820152600f60248201526e139bdd081dda1a5d195b1a5cdd1959608a1b6044820152606490fd5b906102da9493929161103c61103786863361354d565b610fe3565b6113c6565b61030b6102b26102b29290565b6102b290611041565b1561105e57565b60405162461bcd60e51b815260206004820152601a60248201527f446f206e6f742073656e64204f4e4520776974682045524332300000000000006044820152606490fd5b156110aa57565b60405162461bcd60e51b8152602060048201526013602482015272135a5cdb585d18da0813d39148185b5bdd5b9d606a1b6044820152606490fd5b156110ec57565b60405162461bcd60e51b81526020600482015260136024820152721dd3d391481b9bdd0818dbdb999a59dd5c9959606a1b6044820152606490fd5b634e487b7160e01b600052604160045260246000fd5b90601f01601f1916810190811067ffffffffffffffff82111761115f57604052565b611127565b6040513d6000823e3d90fd5b1561117757565b60405162461bcd60e51b8152602060048201526013602482015272151bdad95b881b9bdd081cdd5c1c1bdc9d1959606a1b6044820152606490fd5b156111b957565b60405162461bcd60e51b815260206004820152602160248201527f52656465656d20746f6b656e206d75737420626520774f4e45206f72205553446044820152604360f81b6064820152608490fd5b634e487b7160e01b600052601160045260246000fd5b9190611229565b9290565b820391821161123457565b611208565b1561124057565b60405162461bcd60e51b8152602060048201526013602482015272115e18d959591cc819185a5b1e481b1a5b5a5d606a1b6044820152606490fd5b9190820180921161123457565b90600019905b9181191691161790565b906112a86102b26112af926102b5565b8254611288565b9055565b60ff8116610322565b905051906102da826112b3565b906020828203126102ad576102b2916112bc565b8181029291811591840414171561123457565b60ff16604d811161123457600a0a90565b634e487b7160e01b600052601260045260246000fd5b8115611321570490565b611301565b905051906102da82610336565b906020828203126102ad576102b291611326565b1561134e57565b60405162461bcd60e51b8152602060048201526016602482015275496e73756666696369656e74206c697175696469747960501b6044820152606490fd5b6102b29061030b565b6102b2905461138c565b9081526060810193926102da9290916040916105c5905b6001600160a01b03166020830152565b91935091506000816113d78261104e565b926001600160a01b0384166001600160a01b0382160361183a57505061140734611401610f928690565b146110a3565b61144c61143b7f0000000000000000000000000000000000000000000000000000000000000000936001600160a01b031690565b6001600160a01b03841614156110e5565b61145d6114588361077f565b61077f565b63d0e30db090803b156102ad5761148291839161147960405190565b93849260e01b90565b8252600490829088905af180156117955761180d575b5050915b6114b76114b26114ad856009610788565b610e86565b611170565b6001600160a01b037f0000000000000000000000000000000000000000000000000000000000000000166001600160a01b0382161480156117d7575b6114fc906111b2565b611506828461307d565b9061159b3392611515846135ae565b611595600b611590866108a161157f8661154461153f856108a16115396005610edc565b8a610882565b610edc565b61154e6007610edc565b6000908210156117c8575061157a6115726102b28361156d6007610edc565b61121e565b831115611239565b61127b565b9361158a6005610edc565b90610882565b611298565b84612fd9565b906115a6828561121e565b946115da6115b4878361307d565b60206115c26114588661077f565b63313ce567906115d160405190565b94859260e01b90565b825260049082905afa9182156117955761162d926116289160009161179a575b5061161c61162261160a88613349565b9461161c670de0b6b3a76400006102b5565b906112dd565b916112f0565b611317565b956116378361077f565b9361168660206116468761077f565b6370a082319061166f6116583061077f565b9261166260405190565b9586948593849360e01b90565b83526001600160a01b031660048301526024820190565b03915afa958615611795576116e06116e5948b98946116b38a968c96600091611767575b50871115611347565b6116d06116bf8961077f565b916116ca6002611395565b83613868565b6116da6003611395565b90613868565b613868565b61170f7ff0c71be01e59205b10ea5ae42439ab4504c7e3da732743531ff44e98bd9fd63f9161077f565b95869261172861171e60405190565b928392898461139f565b0390a26117557fc7e914640e860fbcf42ef4d9dceced8880d343828101f1fa389c7e1c060728179261077f565b926117626105ee60405190565b0390a3565b611788915060203d811161178e575b611780818361113d565b810190611333565b386116aa565b503d611776565b611164565b6117bb915060203d81116117c1575b6117b3818361113d565b8101906112c9565b386115fa565b503d6117a9565b6115726102b261157a926102b5565b506001600160a01b038181167f0000000000000000000000000000000000000000000000000000000000000000909116146114f3565b8161182c92903d10611833575b611824818361113d565b8101906102a2565b3880611498565b503d61181a565b849195935061185d9061145861186d94611857610f9234926102b5565b14611057565b336118673061077f565b916138d5565b61149c565b906102da94939291610e60565b61153f6102b29161188e600090565b50600c610788565b6102b29060081c61030b565b6102b29054611896565b91906040838203126102ad576102b2906118c68185611326565b936020016112bc565b156118d657565b60405162461bcd60e51b815260206004820152600e60248201526d496e76616c6964206f7261636c6560901b6044820152606490fd5b95946119249193929461191d600090565b508761354d565b94611932610f756008610e86565b80611c20575b9461194a6114b26114ad866009610788565b6001600160a01b037f0000000000000000000000000000000000000000000000000000000000000000166001600160a01b038416148015611bea575b61198f906111b2565b61199b6114588561077f565b9263313ce5679060206119ad60405190565b80966119b98560e01b90565b825260049082905afa948515611795576119f295602091600091611bcd575b50926119e66114588461077f565b60405197889260e01b90565b825260049082905afa94851561179557600095611bad575b50611a2e85916040611a1f61145860086118a2565b63a3e6ba94906115d160405190565b825260049082905afa94851561179557600080939096611b78575b50611a68600096611a63611a5c896102b5565b82136118cf565b6102b5565b9291611a748b8b61307d565b978897611aa6611a9061153f846108a1600b61158a6005610edc565b92611aa061153f4292600c610788565b9061121e565b611ab4610f926102b26102c2565b1015611b67575b611ac56007610edc565b821015611b575750611adb9061156d6007610edc565b985b8989611aeb82821115611239565b611af49161121e565b98611aff908d612fd9565b9b8c611b0a9161121e565b9a8b611b159161307d565b91611b1f90613349565b91611b31670de0b6b3a76400006102b5565b611b3a916112dd565b90611b44906112f0565b611b4d916112dd565b906102b291611317565b611b6191506102b5565b98611add565b9050611b72816102b5565b90611abb565b909550611b9d91925060403d8111611ba6575b611b95818361113d565b8101906118ac565b91909438611a49565b503d611b8b565b611bc691955060203d81116117c1576117b3818361113d565b9338611a0a565b611be49150823d81116117c1576117b3818361113d565b386119d8565b506001600160a01b038381167f000000000000000000000000000000000000000000000000000000000000000090911614611986565b5042611c32610f926102b26006610edc565b1015611938565b611c62611c5261153f836108a1600b61158a6005610edc565b91611aa061153f4292600c610788565b611c70610f926102b26102c2565b1015611ca4575b611c816007610edc565b600090821015611c9a57506102b29061156d6007610edc565b6102b291506102b5565b50611caf60006102b5565b611c77565b611ce06114587f000000000000000000000000000000000000000000000000000000000000000061077f565b906370a0823191611cf03061077f565b906020611cfc60405190565b8092611d088760e01b90565b82526001600160a01b038516600483015260249082905afa91821561179557611d7192602092600091611d9f575b509461166f611d676114587f000000000000000000000000000000000000000000000000000000000000000061077f565b9161166260405190565b03915afa90811561179557600091611d87575090565b6102b2915060203d811161178e57611780818361113d565b611db69150833d811161178e57611780818361113d565b38611d36565b611dc4611cb4565b9091611dd06005610edc565b611dda6006610edc565b93611de8610f756008610e86565b9384611e51575b84611e14575b5050611e016008610e86565b91611e0c6007610edc565b919493929190565b90919350600091611e27610f92846102b5565b11918215611e3a575b5050913880611df5565b611e49919250610f92906102b5565b113880611e30565b935042611e64610f926102b26006610edc565b101593611def565b90611e87611e7b610bbc845490565b92600052602060002090565b9060005b818110611e985750505090565b909192611ec5611ebe600192611ead87611395565b6001600160a01b0316815260200190565b9460010190565b929101611e8b565b906102b291611e6c565b906102da611ef192611ee860405190565b93848092611ecd565b038361113d565b6102b290611ed7565b6102b2600a611ef8565b90611f1a611e7b610bbc845490565b9060005b818110611f2b5750505090565b909192611f48611ebe600192611f4087610edc565b815260200190565b929101611f1e565b906102b291611f0b565b906102da611ef192611f6b60405190565b93848092611f50565b6102b290611f5a565b6102b290610aad565b6102b29060101c610aad565b6102b29060201c610aad565b6102b29060301c610aad565b6102b29060401c610aad565b6102b29060501c610aad565b6102b29060601c610aad565b6102b29060701c610aad565b6102b29060801c610aad565b6102b29060901c610aad565b6102b29060a01c610aad565b6102b29060b01c610aad565b6102b29060c01c610aad565b6102b29060d01c610aad565b6102b29060e01c610aad565b6102b29060f01c610aad565b9060019061205861204c610bbc855490565b93600052602060002090565b6000926122c9575b61206b565b50505090565b54908083106122ac575b80831061228f575b808310612272575b808310612255575b808310612238575b80831061221b575b8083106121fe575b8083106121e1575b8083106121c4575b8083106121a7575b80831061218a575b80831061216d575b808310612150575b808310612133575b808310612116575b82106120f2575b80612065565b8261210d6001939461210560209461202e565b61ffff169052565b019101386120ec565b919260208161212a60019361210586612022565b019301916120e5565b919260208161214760019361210586612016565b019301916120dd565b91926020816121646001936121058661200a565b019301916120d5565b919260208161218160019361210586611ffe565b019301916120cd565b919260208161219e60019361210586611ff2565b019301916120c5565b91926020816121bb60019361210586611fe6565b019301916120bd565b91926020816121d860019361210586611fda565b019301916120b5565b91926020816121f560019361210586611fce565b019301916120ad565b919260208161221260019361210586611fc2565b019301916120a5565b919260208161222f60019361210586611fb6565b0193019161209d565b919260208161224c60019361210586611faa565b01930191612095565b919260208161226960019361210586611f9e565b0193019161208d565b919260208161228660019361210586611f92565b01930191612085565b91926020816122a360019361210586611f86565b0193019161207d565b91926020816122c060019361210586611f7d565b01930191612075565b600f83018211156120605792835490806122e283611f7d565b61ffff169052602001806122f583611f86565b61ffff1690526020018061230883611f92565b61ffff1690526020018061231b83611f9e565b61ffff1690526020018061232e83611faa565b61ffff1690526020018061234183611fb6565b61ffff1690526020018061235483611fc2565b61ffff1690526020018061236783611fce565b61ffff1690526020018061237a83611fda565b61ffff1690526020018061238d83611fe6565b61ffff169052602001806123a083611ff2565b61ffff169052602001806123b383611ffe565b61ffff169052602001806123c68361200a565b61ffff169052602001806123d983612016565b61ffff169052602001806123ec83612022565b61ffff1690526020016123ff819261202e565b61ffff1690526020019260010191601001916122c9565b906102b29161203a565b906102da611ef19261243160405190565b93848092612416565b6102b290612420565b600f906102b2612453600e611f74565b9261243a565b6102da9061246561365c565b612478565b906112a86102b26112af9290565b6102da90600461246a565b6102da90612459565b906102da9161249961365c565b612577565b9060ff9061128e565b906124b76102b26112af92151590565b825461249e565b60001981146112345760010190565b916001600160a01b0360089290920291821b911b61128e565b921b90565b91906124fc6102b26112af9361077f565b9083546124cd565b634e487b7160e01b600052603160045260246000fd5b6102da916000916124eb565b805480156125495760001901906125466125408383610621565b9061251a565b55565b612504565b90815491600160401b83101561115f57826125719160016102da95018155610621565b906124eb565b61258b82612586836009610788565b6124a7565b60009161259860006102b5565b600a6125a56102b2825490565b8210156126bb576125b96106898383610621565b6125d46001600160a01b0386165b916001600160a01b031690565b146125e857506125e3906124be565b612598565b9293509091612605916001918291908515612679575b5050501590565b80612672575b612662575b7f24ac9305f628cc42ffe7a95d02adb6df8eaf4bd42d00b25165abd72d06bcfd159161265d61263e60405190565b6001600160a01b03909216825291151560208201529081906040820190565b0390a1565b61266d82600a61254e565b612610565b508061260b565b6102b26126ae926125716126a76106896126a16126b398611aa061269b895490565b916102b5565b86610621565b9184610621565b612526565b3880806125fe565b50509091612605901590565b906102da9161248c565b6102da906126dd61365c565b6126e88160086124a7565b61265d7f152cbfe4e8597a33181d2da9ed5162e734ca8b263b9eb6105f169287a39908f691610b5b60405190565b6102da906126d1565b6102da9061272b61365c565b6102da906007611298565b6102da9061271f565b6102da9061274b61365c565b61277a565b90610100600160a81b039060081b61128e565b906127736102b26112af9261077f565b8254612750565b6127866102da9161077f565b6008612763565b6102da9061273f565b6102da906127a261365c565b6127cd565b906001600160a01b039061128e565b906127c66102b26112af9261077f565b82546127a7565b6102da9060026127b6565b6102da90612796565b6102da906127ed61365c565b6102da9060036127b6565b6102da906127e1565b906102da93929161281061365c565b612bde565b1561281c57565b60405162461bcd60e51b8152602060048201526012602482015271496e76616c69642066656520636f6e66696760701b6044820152606490fd5b9160001960089290920291821b911b61128e565b919061287b6102b26112af936102b5565b908354612856565b6102da9160009161286a565b81811061289a575050565b806128a86000600193612883565b0161288f565b906128c190600019906020036008021c90565b8154169055565b90918281106128d657505050565b6102da92906128e490611e7b565b908101910161288f565b90600160401b811161115f57816129066102da935490565b908281556128c8565b356102b281610336565b9067ffffffffffffffff831161115f5761293c611e7b6001926102b286866128ee565b92049160005b83811061294f5750505050565b60019060206129606102b28661290f565b9401938184015501612942565b906102da9291612919565b818110612983575050565b806129916000600193612883565b01612978565b9190918282106129a657505050565b6102da92600290601090600f018190046129cc6010600f87010494600052602060002090565b9384019301930602600081116129e3575b50612978565b6129f090600183036128ae565b386129dd565b90600160401b811161115f5781612a0e6102da935490565b90828155612997565b61ffff8116610322565b356102b281612a17565b9190600861128e9102916124e661ffff841b90565b919067ffffffffffffffff821161115f57611e7b612a62916102b284866129f6565b601082049160005b838110612ace575060108302900360008111612a87575b50505050565b92600093845b818110612aa257505050015538808080612a81565b9091946020612ac4600192612ab96102b28a612a21565b908560020290612a2b565b9601929101612a8d565b6000805b60108110612ae7575083820155600101612a6a565b95906020612b08600192612afd6102b286612a21565b908a60020290612a2b565b92019601612ad2565b906102da9291612a40565b9037565b8183529091602001916001600160fb1b0381116102ad5782916020610ba99202938491612b1c565b905035906102da82612a17565b506102b2906020810190612b48565b818352602090920191906000825b828210612b80575050505090565b90919293612baa612ba3600192612b978886612b55565b61ffff16815260200190565b9560200190565b93920190612b72565b9290612bd0906102b2959360408601918683036000880152612b20565b926020818503910152612b64565b90919261265d90612c11612c02612bf28690565b612bfc60016102b5565b9061127b565b612c0b83610f92565b14612815565b612c1d8484600e61296d565b612c298186600f612b11565b7f24c55ad2a025115594fa08832ae03860656fa82ab5a4b4fd2360f6eb8ef2717b94612c5460405190565b94859485612bb3565b906102da939291612801565b906102da91612c7661365c565b612cb7565b15612c8257565b60405162461bcd60e51b815260206004820152600d60248201526c139bdd081cdd5c1c1bdc9d1959609a1b6044820152606490fd5b906115906102da92612cd5612cd06114ad836009610788565b612c7b565b600d610788565b906102da91612c69565b6102da90612cf261365c565b612d79565b15612cfe57565b60405162461bcd60e51b8152602060048201526011602482015270151bdad95b881b9bdd08185b1b1bddd959607a1b6044820152606490fd5b15612d3e57565b60405162461bcd60e51b81526020600482015260136024820152724e6f7468696e6720746f20776974686472617760681b6044820152606490fd5b612dcb612dff91612db07f00000000000000000000000000000000000000000000000000000000000000006001600160a01b031690565b6001600160a01b038216148015612e4b575b61145890612cf7565b6020612dd68261077f565b6370a082319061166f612de83061077f565b92612df260405190565b9687948593849360e01b90565b03915afa908115611795576102da92600092612e2b575b506116d0612e2460006102b5565b8311612d37565b612e4491925060203d811161178e57611780818361113d565b9038612e16565b506001600160a01b038181167f000000000000000000000000000000000000000000000000000000000000000090911614612dc2565b6102da90612ce6565b6102da90612e9661365c565b612f0d565b15612ea257565b60405162461bcd60e51b8152602060048201526016602482015275526f756e64204944206d75737420696e63726561736560501b6044820152606490fd5b6105c56102da94612f06606094989795612eff608086019a6000870152565b6020850152565b6040830152565b612f24612f1d6102b26005610edc565b8211612e9b565b612f2c611cb4565b91612f4b6000612f3b816102b5565b8411908115612fad575b50610f26565b612f56816005611298565b612f6c612f6542612bfc6102c2565b6006611298565b61265d612f796006610edc565b7f1a1ee66c2455254feac7d7ae83f4704fb8cbe6a92ad835371c69dfaa7b48ed9294612fa460405190565b94859485612ee0565b612fb791506102b5565b841138612f45565b6102da90612e8a565b6102b26102b26102b29261ffff1690565b612fe360006102b5565b600e612ff06102b2825490565b82101561304c576102b26108268361300793610621565b83111561301c57613017906124be565b612fe3565b6102b292509061161c613036610ae061303b94600f610a7b565b612fc8565b6130466127106102b5565b90611317565b50506102b2915061303b9061161c613036610ae0600f61307761306d825490565b611aa060016102b5565b90610a7b565b906001600160a01b037f0000000000000000000000000000000000000000000000000000000000000000166001600160a01b038316036131bc5760206115c26114586130c89461077f565b825260049082905afa80156117955761310b9260009161319e575b5060406130f361145860086118a2565b63a3e6ba949061310260405190565b95869260e01b90565b825260049082905afa8015611795576102b2936130469261269b92600092839161316b575b506130469161316661314c61162293611a63611a5c60006102b5565b91613046611622670de0b6b3a76400009a61161c8c6102b5565b6112dd565b61314c93506116229150916131666131936130469460403d8111611ba657611b95818361113d565b955092505091613130565b6131b6915060203d81116117c1576117b3818361113d565b386130e3565b7f0000000000000000000000000000000000000000000000000000000000000000916001600160a01b0383166001600160a01b0382160361324d575060206115c26114586132099461077f565b825260049082905afa918215611795576102b2926130469160009161322f575b506112f0565b613247915060203d81116117c1576117b3818361113d565b38613229565b600d925061325e61153f8285610788565b61326b610f9260006102b5565b111561330c576132929160206132836114588461077f565b63313ce5679061310260405190565b825260049082905afa918215611795576102b2946132c7946000946132d8575b509161161c61153f6116229361304695610788565b613046670de0b6b3a76400006102b5565b6130469391945061153f6116229361330061161c9360203d81116117c1576117b3818361113d565b969395509350506132b2565b60405162461bcd60e51b81526020600482015260156024820152742ab739bab83837b93a32b2103b30b63ab0ba34b7b760591b6044820152606490fd5b6001600160a01b037f0000000000000000000000000000000000000000000000000000000000000000166001600160a01b0382160361339457506102b2670de0b6b3a76400006102b5565b6133c66001600160a01b037f0000000000000000000000000000000000000000000000000000000000000000166125c7565b03613460576133ec60406133dd61145860086118a2565b63a3e6ba949061147960405190565b825260049082905afa908115611795576102b2916000918291613433575b5061162261342261304692611a63611a5c60006102b5565b61161c670de0b6b3a76400006102b5565b613422925061304691506134576116229160403d8111611ba657611b95818361113d565b9350915061340a565b60405162461bcd60e51b815260206004820152601860248201527f556e737570706f727465642072656465656d20746f6b656e00000000000000006044820152606490fd5b6102d6906001600160a01b031660601b90565b610ba9816014936134a5565b906102da6134d160405190565b928361113d565b67ffffffffffffffff811161115f5760208091020190565b90929192613505613500826134d8565b6134c4565b93818552602080860192028301928184116102ad57915b8383106135295750505050565b60208091613537848661033c565b81520192019161351c565b6102b29136916134f0565b6135a96102b29361355c600090565b506135676004610edc565b9261359061357460405190565b80926135846020830191826134b8565b9081038252038261113d565b6135a261359b825190565b9160200190565b2093613542565b613c67565b6102da906115904291600c6135cf6135c961153f8484610788565b8561121e565b6135dd610f926102b26102c2565b10610788576108a16135ef60006102b5565b611590846108a1600b61158a6005610edc565b6102b26000611395565b1561361357565b60405162461bcd60e51b815280610ed1600482016020808252818101527f4f776e61626c653a2063616c6c6572206973206e6f7420746865206f776e6572604082015260600190565b6102da613667613602565b6136736125c73361030b565b1461360c565b61368161365c565b6102da6102da613691600061104e565b613738565b6102da613679565b6102da906136aa61365c565b61370a565b156136b657565b60405162461bcd60e51b815260206004820152602660248201527f4f776e61626c653a206e6577206f776e657220697320746865207a65726f206160448201526564647265737360d01b6064820152608490fd5b6102da9061369161371e61030b600061104e565b6001600160a01b03831614156136af565b6102da9061369e565b6137426000611395565b9061374e8160006127b6565b61378161377b7f8be0079c531659141344cd1fd0a4f28419497f9722a3daafe3b4186f6b6457e09361077f565b9161077f565b9161378b60405190565b8080611762565b6102b260026102b5565b156137a357565b60405162461bcd60e51b815260206004820152601f60248201527f5265656e7472616e637947756172643a207265656e7472616e742063616c6c006044820152606490fd5b6102da6137f56001610edc565b613809613800613792565b9182141561379c565b6001611298565b6102b260016102b5565b6102da613809613810565b61383e6138386102b29263ffffffff1690565b60e01b90565b6001600160e01b03191690565b6001600160a01b0390911681526040810192916102da9160200152565b6138ab60049261389c6102da9561388263a9059cbb613825565b9261388c60405190565b968794602086019081520161384b565b6020820181038252038361113d565b6139f5565b6001600160a01b0390911681526060810193926102da9290916040916105c5906113b6565b906138ab9061389c6102da956004956138f16323b872dd613825565b936138fb60405190565b97889560208701908152016138b0565b67ffffffffffffffff811161115f57602090601f01601f19160190565b906139356135008361390b565b918252565b6139446020613928565b7f5361666545524332303a206c6f772d6c6576656c2063616c6c206661696c6564602082015290565b6102b261393a565b905051906102da82610571565b906020828203126102ad576102b291613975565b1561399d57565b60405162461bcd60e51b815260206004820152602a60248201527f5361666545524332303a204552433230206f7065726174696f6e20646964206e6044820152691bdd081cdd58d8d9595960b21b6064820152608490fd5b6102da91613a05613a149261077f565b90613a0e61396d565b91613a52565b8051613a23610f9260006102b5565b14908115613a32575b50613996565b613a4c91506020613a41825190565b818301019101613982565b38613a2c565b6102b29291613a6160006102b5565b91613ae1565b15613a6e57565b60405162461bcd60e51b815260206004820152602660248201527f416464726573733a20696e73756666696369656e742062616c616e636520666f6044820152651c8818d85b1b60d21b6064820152608490fd5b3d15613adc57613ad13d613928565b903d6000602084013e565b606090565b9060006102b294938192613af3606090565b50613b0a613b003061077f565b8390311015613a67565b60208101905191855af1613b1c613ac2565b91613b6e565b15613b2957565b60405162461bcd60e51b815260206004820152601d60248201527f416464726573733a2063616c6c20746f206e6f6e2d636f6e74726163740000006044820152606490fd5b91929015613ba057508151613b86610f9260006102b5565b14613b8f575090565b613b9b6102b291613ba6565b613b22565b82613c20565b3b613bb4610f9260006102b5565b1190565b60005b838110613bcb5750506000910152565b8181015183820152602001613bbb565b613bfc613c05602093610ba993613bf0815190565b80835293849260200190565b95869101613bb8565b601f01601f191690565b60208082526102b292910190613bdb565b90613c29825190565b613c36610f9260006102b5565b1115613c455750805190602001fd5b610ed190613c5260405190565b62461bcd60e51b815291829160048301613c0f565b611225613c819293610f9292613c7b600090565b50613c9f565b1490565b90613c8e825190565b811015610644576020809102010190565b613ca960006102b5565b915b613cb66102b2835190565b831015613ce757613cdb613ce191613cd5613cd18686613c85565b5190565b90613ced565b926124be565b91613cab565b91505090565b81811015613d0857906102b291600052602052604060002090565b6102b29160005260205260406000209056fea2646970667358221220b0a7059434efdba525547186f25f369308f9e435941b7f41b60d8dcd1753af4864736f6c63430008120033",
  "linkReferences": {},
  "deployedLinkReferences": {}
}