{
  "_format": "hh-sol-artifact-1",
  "contractName": "RecoveryVault",
  "sourceName": "contracts/RecoveryVault.sol",
  "abi": [
    {
      "inputs": [
        {
          "internalType": "address",
          "name": "_owner",
          "type": "address"
        },
        {
          "internalType": "address",
          "name": "_devWallet",
          "type": "address"
        },
        {
          "internalType": "address",
          "name": "_rmcWallet",
          "type": "address"
        },
        {
          "internalType": "address",
          "name": "_wone",
          "type": "address"
        },
        {
          "internalType": "address",
          "name": "_usdc",
          "type": "address"
        },
        {
          "internalType": "address[]",
          "name": "_supportedTokens",
          "type": "address[]"
        },
        {
          "internalType": "uint256",
          "name": "_dailyLimitUsd",
          "type": "uint256"
        },
        {
          "internalType": "address",
          "name": "_oracle",
          "type": "address"
        }
      ],
      "stateMutability": "nonpayable",
      "type": "constructor"
    },
    {
      "anonymous": false,
      "inputs": [
        {
          "indexed": true,
          "internalType": "address",
          "name": "tokenIn",
          "type": "address"
        },
        {
          "indexed": false,
          "internalType": "uint256",
          "name": "amountIn",
          "type": "uint256"
        },
        {
          "indexed": false,
          "internalType": "address",
          "name": "refundToken",
          "type": "address"
        },
        {
          "indexed": false,
          "internalType": "uint256",
          "name": "amountOut",
          "type": "uint256"
        }
      ],
      "name": "BurnToken",
      "type": "event"
    },
    {
      "anonymous": false,
      "inputs": [
        {
          "indexed": false,
          "internalType": "uint256[]",
          "name": "thresholds",
          "type": "uint256[]"
        },
        {
          "indexed": false,
          "internalType": "uint16[]",
          "name": "bps",
          "type": "uint16[]"
        }
      ],
      "name": "FeeTiersUpdated",
      "type": "event"
    },
    {
      "anonymous": false,
      "inputs": [
        {
          "indexed": false,
          "internalType": "uint256",
          "name": "roundId",
          "type": "uint256"
        },
        {
          "indexed": false,
          "internalType": "uint256",
          "name": "woneBalance",
          "type": "uint256"
        },
        {
          "indexed": false,
          "internalType": "uint256",
          "name": "usdcBalance",
          "type": "uint256"
        },
        {
          "indexed": false,
          "internalType": "uint256",
          "name": "startTime",
          "type": "uint256"
        }
      ],
      "name": "NewRoundStarted",
      "type": "event"
    },
    {
      "anonymous": false,
      "inputs": [
        {
          "indexed": true,
          "internalType": "address",
          "name": "previousOwner",
          "type": "address"
        },
        {
          "indexed": true,
          "internalType": "address",
          "name": "newOwner",
          "type": "address"
        }
      ],
      "name": "OwnershipTransferred",
      "type": "event"
    },
    {
      "anonymous": false,
      "inputs": [
        {
          "indexed": true,
          "internalType": "address",
          "name": "user",
          "type": "address"
        },
        {
          "indexed": true,
          "internalType": "address",
          "name": "tokenIn",
          "type": "address"
        },
        {
          "indexed": false,
          "internalType": "uint256",
          "name": "amountIn",
          "type": "uint256"
        },
        {
          "indexed": false,
          "internalType": "uint256",
          "name": "amountOut",
          "type": "uint256"
        }
      ],
      "name": "RedeemProcessed",
      "type": "event"
    },
    {
      "anonymous": false,
      "inputs": [
        {
          "indexed": false,
          "internalType": "address",
          "name": "token",
          "type": "address"
        },
        {
          "indexed": false,
          "internalType": "bool",
          "name": "allowed",
          "type": "bool"
        }
      ],
      "name": "SupportedTokenUpdated",
      "type": "event"
    },
    {
      "anonymous": false,
      "inputs": [
        {
          "indexed": false,
          "internalType": "bool",
          "name": "isPaused",
          "type": "bool"
        }
      ],
      "name": "VaultPaused",
      "type": "event"
    },
    {
      "inputs": [],
      "name": "ROUND_DELAY",
      "outputs": [
        {
          "internalType": "uint256",
          "name": "",
          "type": "uint256"
        }
      ],
      "stateMutability": "view",
      "type": "function"
    },
    {
      "inputs": [],
      "name": "WALLET_RESET_INTERVAL",
      "outputs": [
        {
          "internalType": "uint256",
          "name": "",
          "type": "uint256"
        }
      ],
      "stateMutability": "view",
      "type": "function"
    },
    {
      "inputs": [],
      "name": "currentRound",
      "outputs": [
        {
          "internalType": "uint256",
          "name": "",
          "type": "uint256"
        }
      ],
      "stateMutability": "view",
      "type": "function"
    },
    {
      "inputs": [],
      "name": "dailyLimitUsd",
      "outputs": [
        {
          "internalType": "uint256",
          "name": "",
          "type": "uint256"
        }
      ],
      "stateMutability": "view",
      "type": "function"
    },
    {
      "inputs": [],
      "name": "devWallet",
      "outputs": [
        {
          "internalType": "address",
          "name": "",
          "type": "address"
        }
      ],
      "stateMutability": "view",
      "type": "function"
    },
    {
      "inputs": [
        {
          "internalType": "uint256",
          "name": "",
          "type": "uint256"
        }
      ],
      "name": "feeBps",
      "outputs": [
        {
          "internalType": "uint16",
          "name": "",
          "type": "uint16"
        }
      ],
      "stateMutability": "view",
      "type": "function"
    },
    {
      "inputs": [
        {
          "internalType": "uint256",
          "name": "",
          "type": "uint256"
        }
      ],
      "name": "feeThresholds",
      "outputs": [
        {
          "internalType": "uint256",
          "name": "",
          "type": "uint256"
        }
      ],
      "stateMutability": "view",
      "type": "function"
    },
    {
      "inputs": [
        {
          "internalType": "address",
          "name": "",
          "type": "address"
        }
      ],
      "name": "fixedUsdPrice",
      "outputs": [
        {
          "internalType": "uint256",
          "name": "",
          "type": "uint256"
        }
      ],
      "stateMutability": "view",
      "type": "function"
    },
    {
      "inputs": [],
      "name": "getFeeTiers",
      "outputs": [
        {
          "internalType": "uint256[]",
          "name": "thresholds",
          "type": "uint256[]"
        },
        {
          "internalType": "uint16[]",
          "name": "bpsOut",
          "type": "uint16[]"
        }
      ],
      "stateMutability": "view",
      "type": "function"
    },
    {
      "inputs": [
        {
          "internalType": "address",
          "name": "user",
          "type": "address"
        }
      ],
      "name": "getLastRedeemTimestamp",
      "outputs": [
        {
          "internalType": "uint256",
          "name": "",
          "type": "uint256"
        }
      ],
      "stateMutability": "view",
      "type": "function"
    },
    {
      "inputs": [],
      "name": "getRoundInfo",
      "outputs": [
        {
          "internalType": "uint256",
          "name": "roundId",
          "type": "uint256"
        },
        {
          "internalType": "uint256",
          "name": "startTime",
          "type": "uint256"
        },
        {
          "internalType": "bool",
          "name": "isActive",
          "type": "bool"
        },
        {
          "internalType": "bool",
          "name": "paused",
          "type": "bool"
        },
        {
          "internalType": "uint256",
          "name": "limitUsd",
          "type": "uint256"
        }
      ],
      "stateMutability": "view",
      "type": "function"
    },
    {
      "inputs": [],
      "name": "getSupportedTokens",
      "outputs": [
        {
          "internalType": "address[]",
          "name": "",
          "type": "address[]"
        }
      ],
      "stateMutability": "view",
      "type": "function"
    },
    {
      "inputs": [
        {
          "internalType": "address",
          "name": "wallet",
          "type": "address"
        }
      ],
      "name": "getUserLimit",
      "outputs": [
        {
          "internalType": "uint256",
          "name": "remainingUSD",
          "type": "uint256"
        }
      ],
      "stateMutability": "view",
      "type": "function"
    },
    {
      "inputs": [],
      "name": "getVaultBalances",
      "outputs": [
        {
          "internalType": "uint256",
          "name": "woneBalance",
          "type": "uint256"
        },
        {
          "internalType": "uint256",
          "name": "usdcBalance",
          "type": "uint256"
        }
      ],
      "stateMutability": "view",
      "type": "function"
    },
    {
      "inputs": [],
      "name": "isLocked",
      "outputs": [
        {
          "internalType": "bool",
          "name": "",
          "type": "bool"
        }
      ],
      "stateMutability": "view",
      "type": "function"
    },
    {
      "inputs": [
        {
          "internalType": "address",
          "name": "",
          "type": "address"
        }
      ],
      "name": "lastRedeemTimestamp",
      "outputs": [
        {
          "internalType": "uint256",
          "name": "",
          "type": "uint256"
        }
      ],
      "stateMutability": "view",
      "type": "function"
    },
    {
      "inputs": [],
      "name": "merkleRoot",
      "outputs": [
        {
          "internalType": "bytes32",
          "name": "",
          "type": "bytes32"
        }
      ],
      "stateMutability": "view",
      "type": "function"
    },
    {
      "inputs": [],
      "name": "oracle",
      "outputs": [
        {
          "internalType": "contract IOracle",
          "name": "",
          "type": "address"
        }
      ],
      "stateMutability": "view",
      "type": "function"
    },
    {
      "inputs": [],
      "name": "owner",
      "outputs": [
        {
          "internalType": "address",
          "name": "",
          "type": "address"
        }
      ],
      "stateMutability": "view",
      "type": "function"
    },
    {
      "inputs": [
        {
          "internalType": "address",
          "name": "user",
          "type": "address"
        },
        {
          "internalType": "address",
          "name": "tokenIn",
          "type": "address"
        },
        {
          "internalType": "uint256",
          "name": "amountIn",
          "type": "uint256"
        },
        {
          "internalType": "address",
          "name": "redeemIn",
          "type": "address"
        },
        {
          "internalType": "bytes32[]",
          "name": "proof",
          "type": "bytes32[]"
        }
      ],
      "name": "quoteRedeem",
      "outputs": [
        {
          "internalType": "bool",
          "name": "whitelisted",
          "type": "bool"
        },
        {
          "internalType": "bool",
          "name": "roundIsActive",
          "type": "bool"
        },
        {
          "internalType": "uint256",
          "name": "feeAmount",
          "type": "uint256"
        },
        {
          "internalType": "uint256",
          "name": "refundAmount",
          "type": "uint256"
        },
        {
          "internalType": "uint256",
          "name": "userLimitUsdBefore",
          "type": "uint256"
        },
        {
          "internalType": "uint256",
          "name": "userLimitUsdAfter",
          "type": "uint256"
        },
        {
          "internalType": "uint256",
          "name": "usdValue",
          "type": "uint256"
        },
        {
          "internalType": "uint8",
          "name": "tokenInDecimals",
          "type": "uint8"
        },
        {
          "internalType": "uint8",
          "name": "redeemInDecimals",
          "type": "uint8"
        },
        {
          "internalType": "uint256",
          "name": "oraclePrice",
          "type": "uint256"
        },
        {
          "internalType": "uint8",
          "name": "oracleDecimals",
          "type": "uint8"
        }
      ],
      "stateMutability": "view",
      "type": "function"
    },
    {
      "inputs": [
        {
          "internalType": "address",
          "name": "tokenIn",
          "type": "address"
        },
        {
          "internalType": "uint256",
          "name": "amountIn",
          "type": "uint256"
        },
        {
          "internalType": "address",
          "name": "redeemIn",
          "type": "address"
        },
        {
          "internalType": "bytes32[]",
          "name": "proof",
          "type": "bytes32[]"
        }
      ],
      "name": "redeem",
      "outputs": [],
      "stateMutability": "payable",
      "type": "function"
    },
    {
      "inputs": [
        {
          "internalType": "uint256",
          "name": "",
          "type": "uint256"
        },
        {
          "internalType": "address",
          "name": "",
          "type": "address"
        }
      ],
      "name": "redeemedInRound",
      "outputs": [
        {
          "internalType": "uint256",
          "name": "",
          "type": "uint256"
        }
      ],
      "stateMutability": "view",
      "type": "function"
    },
    {
      "inputs": [],
      "name": "renounceOwnership",
      "outputs": [],
      "stateMutability": "nonpayable",
      "type": "function"
    },
    {
      "inputs": [],
      "name": "rmcWallet",
      "outputs": [
        {
          "internalType": "address",
          "name": "",
          "type": "address"
        }
      ],
      "stateMutability": "view",
      "type": "function"
    },
    {
      "inputs": [],
      "name": "roundStart",
      "outputs": [
        {
          "internalType": "uint256",
          "name": "",
          "type": "uint256"
        }
      ],
      "stateMutability": "view",
      "type": "function"
    },
    {
      "inputs": [
        {
          "internalType": "uint256",
          "name": "usdAmount",
          "type": "uint256"
        }
      ],
      "name": "setDailyLimit",
      "outputs": [],
      "stateMutability": "nonpayable",
      "type": "function"
    },
    {
      "inputs": [
        {
          "internalType": "address",
          "name": "wallet",
          "type": "address"
        }
      ],
      "name": "setDevWallet",
      "outputs": [],
      "stateMutability": "nonpayable",
      "type": "function"
    },
    {
      "inputs": [
        {
          "internalType": "uint256[]",
          "name": "thresholds",
          "type": "uint256[]"
        },
        {
          "internalType": "uint16[]",
          "name": "bps",
          "type": "uint16[]"
        }
      ],
      "name": "setFeeTiers",
      "outputs": [],
      "stateMutability": "nonpayable",
      "type": "function"
    },
    {
      "inputs": [
        {
          "internalType": "address",
          "name": "token",
          "type": "address"
        },
        {
          "internalType": "uint256",
          "name": "usdPrice18",
          "type": "uint256"
        }
      ],
      "name": "setFixedUsdPrice",
      "outputs": [],
      "stateMutability": "nonpayable",
      "type": "function"
    },
    {
      "inputs": [
        {
          "internalType": "bool",
          "name": "_status",
          "type": "bool"
        }
      ],
      "name": "setLocked",
      "outputs": [],
      "stateMutability": "nonpayable",
      "type": "function"
    },
    {
      "inputs": [
        {
          "internalType": "bytes32",
          "name": "_root",
          "type": "bytes32"
        }
      ],
      "name": "setMerkleRoot",
      "outputs": [],
      "stateMutability": "nonpayable",
      "type": "function"
    },
    {
      "inputs": [
        {
          "internalType": "address",
          "name": "_oracle",
          "type": "address"
        }
      ],
      "name": "setOracle",
      "outputs": [],
      "stateMutability": "nonpayable",
      "type": "function"
    },
    {
      "inputs": [
        {
          "internalType": "address",
          "name": "wallet",
          "type": "address"
        }
      ],
      "name": "setRmcWallet",
      "outputs": [],
      "stateMutability": "nonpayable",
      "type": "function"
    },
    {
      "inputs": [
        {
          "internalType": "address",
          "name": "token",
          "type": "address"
        },
        {
          "internalType": "bool",
          "name": "allowed",
          "type": "bool"
        }
      ],
      "name": "setSupportedToken",
      "outputs": [],
      "stateMutability": "nonpayable",
      "type": "function"
    },
    {
      "inputs": [
        {
          "internalType": "uint256",
          "name": "_roundId",
          "type": "uint256"
        }
      ],
      "name": "startNewRound",
      "outputs": [],
      "stateMutability": "nonpayable",
      "type": "function"
    },
    {
      "inputs": [
        {
          "internalType": "address",
          "name": "",
          "type": "address"
        }
      ],
      "name": "supportedToken",
      "outputs": [
        {
          "internalType": "bool",
          "name": "",
          "type": "bool"
        }
      ],
      "stateMutability": "view",
      "type": "function"
    },
    {
      "inputs": [
        {
          "internalType": "uint256",
          "name": "",
          "type": "uint256"
        }
      ],
      "name": "supportedTokenList",
      "outputs": [
        {
          "internalType": "address",
          "name": "",
          "type": "address"
        }
      ],
      "stateMutability": "view",
      "type": "function"
    },
    {
      "inputs": [
        {
          "internalType": "address",
          "name": "newOwner",
          "type": "address"
        }
      ],
      "name": "transferOwnership",
      "outputs": [],
      "stateMutability": "nonpayable",
      "type": "function"
    },
    {
      "inputs": [],
      "name": "usdc",
      "outputs": [
        {
          "internalType": "address",
          "name": "",
          "type": "address"
        }
      ],
      "stateMutability": "view",
      "type": "function"
    },
    {
      "inputs": [],
      "name": "wONE",
      "outputs": [
        {
          "internalType": "address",
          "name": "",
          "type": "address"
        }
      ],
      "stateMutability": "view",
      "type": "function"
    },
    {
      "inputs": [
        {
          "internalType": "address",
          "name": "token",
          "type": "address"
        }
      ],
      "name": "withdrawFunds",
      "outputs": [],
      "stateMutability": "nonpayable",
      "type": "function"
    }
  ],
  "bytecode": "0x60c0604052346200007d57620000286200001862000249565b96959095949194939293620007d4565b6040516138f262000a8282396080518181816104b0015281816112fc015281816117fa01528181611c990152612da4015260a0518181816107020152818161193d01528181611d1d0152612e7501526138f290f35b600080fd5b634e487b7160e01b600052604160045260246000fd5b90601f01601f191681019081106001600160401b03821117620000ba57604052565b62000082565b90620000d7620000cf60405190565b928362000098565b565b6001600160a01b031690565b90565b6001600160a01b0381165b036200007d57565b90505190620000d782620000e8565b6001600160401b038111620000ba5760208091020190565b909291926200013b62000135826200010a565b620000c0565b93818552602080860192028301928184116200007d57915b838310620001615750505050565b60208091620001718486620000fb565b81520192019162000153565b9080601f830112156200007d578151620000e59260200162000122565b80620000f3565b90505190620000d7826200019a565b610100818303126200007d57620001c88282620000fb565b92620001d88360208401620000fb565b92604090620001ea81838601620000fb565b93620001fa8260608301620000fb565b936200020a8360808401620000fb565b9360018060a0850151921b0381116200007d576200022f84620000e59285016200017d565b936200023f8160c08601620001a1565b9360e001620000fb565b6200026c62004374803803806200026081620000c0565b928339810190620001b0565b9091929394959697565b6001600160401b038111620000ba5760200290565b62000135620000e59162000276565b620002aa620000e5620000e59290565b61ffff1690565b634e487b7160e01b600052601160045260246000fd5b9160001960089290920291821b911b620002e1565b921b90565b9181191691161790565b620000e5620000e5620000e59290565b919062000310620000e56200031993620002eb565b908354620002c7565b9055565b620000d791600091620002fb565b81811062000337575050565b806200034760006001936200031d565b016200032b565b906200036290600019906020036008021c90565b8154169055565b90918281106200037857505050565b620000d7929062000390905b92600052602060002090565b90810191016200032b565b90680100000000000000008111620000ba5781620003bb620000d7935490565b9082815562000369565b600391620003df62000384600192620000e586866200039b565b92049160005b838110620003f35750505050565b600190602062000409620000e5865161ffff1690565b9401938184015501620003e5565b90620000d791620003c5565b62000433620000e5620000e59290565b60ff1690565b81811062000445575050565b806200045560006001936200031d565b0162000439565b9190918282106200046c57505050565b620000d792600290601090600f01819004620004946010600f87010494600052602060002090565b938401930193060260008111620004ad575b5062000439565b620004bc90600183036200034e565b38620004a6565b90680100000000000000008111620000ba5781620004e3620000d7935490565b908281556200045c565b91906008620002e1910291620002dc61ffff841b90565b90600490620003846200051d91620000e58486620004c3565b601082049160005b8381106200059457506010830290036000811162000544575b50505050565b92600093845b81811062000561575050500155388080806200053e565b9091946020620005896001926200057d620000e58a5160ff1690565b908560020290620004ed565b96019291016200054a565b6000805b60108110620005af57508382015560010162000525565b95906020620005d6600192620005ca620000e5865160ff1690565b908a60020290620004ed565b9201960162000598565b90620000d79162000504565b906001600160a01b0390620002e1565b620000e590620000d9906001600160a01b031682565b620000e590620005fc565b620000e59062000612565b906200063c620000e562000319926200061d565b8254620005ec565b9060001990620002e1565b9062000663620000e56200031992620002eb565b825462000644565b90610100600160a81b039060081b620002e1565b9062000693620000e562000319926200061d565b82546200066b565b6000198114620006ab5760010190565b620002b1565b634e487b7160e01b600052603260045260246000fd5b90620006d1825190565b811015620006e3576020809102010190565b620006b1565b90620006f5906200061d565b600052602052604060002090565b9060ff90620002e1565b9062000720620000e56200031992151590565b825462000703565b8054821015620006e35762000744600191600052602060002090565b91020190600090565b916001600160a01b0360089290920291821b911b620002e1565b91906200077c620000e562000319936200061d565b9083546200074d565b9081549168010000000000000000831015620000ba5782620007b1916001620000d79501815562000728565b9062000767565b6001600160a01b03919091168152901515602082015260400190565b959392919097969497620007e7620009dd565b620007f360036200028b565b9660649762000802896200029a565b61ffff1681526200081460fa6200029a565b61ffff1660208201526200082a6103e86200029a565b61ffff1660408201526200084090600e62000417565b6200084c60046200028b565b97620008589062000423565b60ff16885262000869603262000423565b60ff1660208901526200087d601962000423565b60ff166040890152600a97620008938962000423565b60ff166060820152620008a890600f620005e0565b620008b39062000a1f565b620008c090600262000628565b620008cd90600362000628565b60805260a052620008e09060076200064f565b620008eb906200061d565b620008f89060086200067f565b620009046000620002eb565b62000911620000e5855190565b811015620009cb57620009c590600162000955816200094f6009620009486200093b878c620006c7565b516001600160a01b031690565b90620006e9565b6200070d565b62000971846200096a6200093b858a620006c7565b9062000785565b620009816200093b8388620006c7565b907f24ac9305f628cc42ffe7a95d02adb6df8eaf4bd42d00b25165abd72d06bcfd1591620009bc620009b260405190565b92839283620007b8565b0390a16200069b565b62000904565b50509050565b620000e56001620002eb565b620009e7620009fd565b620000d7620009f5620009d1565b60016200064f565b620000d73362000a1f565b620000e590620000d9565b620000e5905462000a08565b62000a2b600062000a13565b9062000a3981600062000628565b62000a7062000a697f8be0079c531659141344cd1fd0a4f28419497f9722a3daafe3b4186f6b6457e0936200061d565b916200061d565b9162000a7b60405190565b600090a356fe6080604052600436101561001257600080fd5b60003560e01c80631073e2a714610216578063178906bf1461029d578063196b004b146102985780631efb1aa6146102935780631f53ac021461028e578063211e28b61461028957806322370685146102845780632b60c8221461027f5780632eb4a7ab1461027a5780633e413bee1461027557806340365852146102705780634615102c1461026b578063589db8d414610266578063659590c51461026157806368742da61461025c57806369c5b5e614610257578063715018a61461025257806373a1a2521461024d5780637adbf973146102485780637cb64759146102435780637dc0d1d01461023e57806384bc76a6146102395780638a19c8bc146102345780638da5cb5b1461022f5780638ea5220f1461022a5780639eee94a814610225578063a060cc2114610220578063a4e2d6341461021b578063ad655ef614610216578063b20d30a914610211578063ca26c5321461020c578063d3c7c2c714610207578063d656c29c14610202578063d6691e47146101fd578063e2363006146101f8578063e2c6e438146101f3578063e7986466146101ee578063e9587e86146101e9578063e9a4d24f146101e4578063f2fde38b146101df5763fe531ab4036102ad57610e4c565b610e34565b610e06565b610d46565b610d2d565b610cef565b610cbd565b610c90565b610c6b565b610c21565b610b91565b610b6d565b6102dc565b610b3f565b610ae9565b610a62565b6109fd565b6109d6565b6109bb565b61097e565b61091a565b6108dd565b6108c5565b6108a9565b61084a565b61082f565b6107f0565b6107d5565b6107ba565b61074d565b610732565b6106ed565b6106d2565b610695565b6105cc565b61059d565b61055c565b61052c565b61049b565b610441565b60009103126102ad57565b600080fd5b6102bf6102bf6102bf9290565b90565b6102bf620151806102b2565b6102bf6102c2565b9052565b565b346102ad576102ec3660046102a2565b6103076102f76102ce565b6040519182918290815260200190565b0390f35b6001600160a01b031690565b6103208161030b565b036102ad57565b905035906102da82610317565b80610320565b905035906102da82610334565b909182601f830112156102ad5781359167ffffffffffffffff83116102ad5760200192602083028401116102ad57565b91909160a0818403126102ad5761038e8382610327565b9261039c8160208401610327565b926103aa826040850161033a565b926103b88360608301610327565b92608082013567ffffffffffffffff81116102ad576103d79201610347565b9091565b98969492909b9a99979593916101608a019c60008b016103fb9115159052565b151560208a015260408901526060880152608087015260a086015260c085015260ff1660e084015260ff16610100830152610120820152610140016102da9160ff169052565b346102ad57610307610463610457366004610377565b949390939291926116e5565b976104799b999b97919796929695939560405190565b9b8c9b8c6103db565b6102d69061030b565b6020810192916102da9190610482565b346102ad576104ab3660046102a2565b6103077f00000000000000000000000000000000000000000000000000000000000000005b6040519182918261048b565b906080828203126102ad576104f18183610327565b926104ff826020850161033a565b9261050d8360408301610327565b92606082013567ffffffffffffffff81116102ad576103d79201610347565b61054361053a3660046104dc565b9392909261152a565b604051005b906020828203126102ad576102bf91610327565b346102ad5761054361056f366004610548565b6127c9565b801515610320565b905035906102da82610574565b906020828203126102ad576102bf9161057c565b346102ad576105436105b0366004610589565b612707565b9081526040810192916102da9160200152565b0152565b346102ad576105dc3660046102a2565b6105e4611c91565b906103076105f160405190565b928392836105b5565b906020828203126102ad576102bf9161033a565b634e487b7160e01b600052603260045260246000fd5b80548210156106475761063e600191600052602060002090565b91020190600090565b61060e565b6102bf916008021c6001600160a01b031690565b906102bf915461064c565b600a6000610677825490565b83101561069257506102bf9161068c91610624565b90610660565b80fd5b346102ad576103076104d06106ab3660046105fa565b61066b565b6102bf916008021c81565b906102bf91546106b0565b6102bf600060046106bb565b346102ad576106e23660046102a2565b6103076102f76106c6565b346102ad576106fd3660046102a2565b6103077f00000000000000000000000000000000000000000000000000000000000000006104d0565b6102bf600060066106bb565b346102ad576107423660046102a2565b6103076102f7610726565b346102ad576105436107603660046105fa565b612ff3565b6102bf9061030b906001600160a01b031682565b6102bf90610765565b6102bf90610779565b9061079590610782565b600052602052604060002090565b6102bf906107b5600c9160009261078b565b6106bb565b346102ad576103076102f76107d0366004610548565b6107a3565b346102ad576103076102f76107eb366004610548565b611537565b346102ad57610543610803366004610548565b612eaa565b600e6000610814825490565b83101561069257506102bf9161082991610624565b906106bb565b346102ad576103076102f76108453660046105fa565b610808565b346102ad5761085a3660046102a2565b610543613204565b91906040838203126102ad576102bf9061087c818561033a565b93602001610327565b90610795906102b2565b6107b56102bf926108a4600b93600094610885565b61078b565b346102ad576103076102f76108bf366004610862565b9061088f565b346102ad576105436108d8366004610548565b61277e565b346102ad576105436108f03660046105fa565b612480565b6102bf60016008610660565b6102d690610782565b6020810192916102da9190610901565b346102ad5761092a3660046102a2565b6103076109356108f5565b6040519182918261090a565b909594926102da946109756105c89261096c60809661096560a088019c6000890152565b6020870152565b15156040850152565b15156060830152565b346102ad5761098e3660046102a2565b610307610999611dbe565b916109a695939560405190565b95869586610941565b6102bf600060056106bb565b346102ad576109cb3660046102a2565b6103076102f76109af565b346102ad576109e63660046102a2565b6103076104d0613166565b6102bf60006002610660565b346102ad57610a0d3660046102a2565b6103076104d06109f1565b90916040828403126102ad57813567ffffffffffffffff81116102ad5783610a41918401610347565b929093602082013567ffffffffffffffff81116102ad576103d79201610347565b346102ad57610543610a75366004610a18565b92919091612c51565b8054919291831015610647576010610a9d600292600052602060002090565b8185040193060290565b6102bf916008021c5b61ffff1690565b906102bf9154610aa7565b600f6000610ace825490565b83101561069257506102bf91610ae391610a7e565b90610ab7565b346102ad57610307610b04610aff3660046105fa565b610ac2565b6040519182918261ffff909116815260200190565b6102bf916008021c5b60ff1690565b906102bf9154610b19565b6102bf60006008610b28565b346102ad57610b4f3660046102a2565b610307610b5a610b33565b6040515b91829182901515815260200190565b346102ad57610543610b803660046105fa565b612727565b6102bf600060076106bb565b346102ad57610ba13660046102a2565b6103076102f7610b85565b90610bb981602093610482565b0190565b90610bdd610bd6610bcc845190565b8084529260200190565b9260200190565b9060005b818110610bee5750505090565b909192610c08610c016001928651610bac565b9460200190565b929101610be1565b60208082526102bf92910190610bbd565b346102ad57610c313660046102a2565b610307610c3c611ef7565b60405191829182610c10565b91906040838203126102ad576102bf90610c628185610327565b9360200161033a565b346102ad57610543610c7e366004610c48565b90612ce5565b6102bf60006003610660565b346102ad57610ca03660046102a2565b6103076104d0610c84565b6102bf906107b5600d9160009261078b565b346102ad576103076102f7610cd3366004610548565b610cab565b6102bf90610cea60099160009261078b565b610b28565b346102ad57610307610b5a610d05366004610548565b610cd8565b91906040838203126102ad576102bf90610d248185610327565b9360200161057c565b346102ad57610543610d40366004610d0a565b906126b8565b346102ad576103076102f7610d5c366004610548565b611b44565b90610d70610bd6610bcc845190565b9060005b818110610d815750505090565b909192610d97610c016001928651815260200190565b929101610d74565b90610dae610bd6610bcc845190565b9060005b818110610dbf5750505090565b909192610dd9610c01600192865161ffff16815260200190565b929101610db2565b60408082526102bf939192610df891840190610d61565b916020818403910152610d9f565b346102ad57610e163660046102a2565b610e1e612439565b90610307610e2b60405190565b92839283610de1565b346102ad57610543610e47366004610548565b6132a7565b346102ad57610543610e5f366004610548565b6127e9565b90610e7994939291610e7461336b565b610f82565b6102da61339d565b6102bf90610b22565b6102bf9054610e81565b60208082526012908201527110dbdb9d1c9858dd081a5cc81b1bd8dad95960721b604082015260600190565b15610ec757565b60405162461bcd60e51b815280610ee060048201610e94565b0390fd5b6102bf9081565b6102bf9054610ee4565b602080825260119082015270149bdd5b99081b9bdd081cdd185c9d1959607a1b604082015260600190565b15610f2757565b60405162461bcd60e51b815280610ee060048201610ef5565b6020808252600890820152674e6f2066756e647360c01b604082015260600190565b15610f6957565b60405162461bcd60e51b815280610ee060048201610f40565b906102da94939291610fa3610f9e610f9a6008610e8a565b1590565b610ec0565b610fc242610fbb610fb76102bf6006610eeb565b9190565b1015610f20565b610fec610fcd611c91565b600091610fdc610fb7846102b2565b11918215610ff1575b5050610f62565b611051565b611000919250610fb7906102b2565b113880610fe5565b6020808252600f908201526e139bdd081dda1a5d195b1a5cdd1959608a1b604082015260600190565b1561103857565b60405162461bcd60e51b815280610ee060048201611008565b906102da9493929161106c6110678686336130b1565b611031565b6112b5565b61030b6102bf6102bf9290565b6102bf90611071565b6020808252601a908201527f446f206e6f742073656e64204f4e452077697468204552433230000000000000604082015260600190565b156110c557565b60405162461bcd60e51b815280610ee060048201611087565b602080825260139082015272135a5cdb585d18da0813d39148185b5bdd5b9d606a1b604082015260600190565b1561111257565b60405162461bcd60e51b815280610ee0600482016110de565b6020808252601390820152721dd3d391481b9bdd0818dbdb999a59dd5c9959606a1b604082015260600190565b1561115f57565b60405162461bcd60e51b815280610ee06004820161112b565b634e487b7160e01b600052604160045260246000fd5b90601f01601f1916810190811067ffffffffffffffff8211176111b057604052565b611178565b6040513d6000823e3d90fd5b60208082526019908201527f4f6e6c7920313a312072656465656d20737570706f7274656400000000000000604082015260600190565b156111ff57565b60405162461bcd60e51b815280610ee0600482016111c1565b634e487b7160e01b600052601160045260246000fd5b9190611239565b9290565b820180921161124457565b611218565b90600019905b9181191691161790565b906112696102bf611270926102b2565b8254611249565b9055565b9190820391821161124457565b6102bf9061030b565b6102bf9054611281565b9081526060810193926102da9290916040916105c8905b6020830190610482565b93909291846000956112c68761107e565b916112d08361030b565b6112d98261030b565b036114e95750506112f4346112ee610fb78890565b1461110b565b6113316113217f00000000000000000000000000000000000000000000000000000000000000009261030b565b61132a8361030b565b1415611158565b61134261133d82610782565b610782565b9063d0e30db091803b156102ad5761136892889161135f60405190565b94859260e01b90565b825260049082908a905af19081156114e457611435976114039361139a936114b7575b5050935b3395848887896116e5565b50505050955050505050506113c06113b18561030b565b6113ba8561030b565b146111f8565b6113c985613112565b6113fd6113e5866108a4600b6113df6005610eeb565b90610885565b6113f7836113f283610eeb565b61122e565b90611259565b85611bdf565b9161140e8386611274565b95869361141a84610782565b6114258688836133e9565b61142f600261128a565b906133e9565b61145f7ff0c71be01e59205b10ea5ae42439ab4504c7e3da732743531ff44e98bd9fd63f91610782565b95869261147861146e60405190565b9283928984611294565b0390a26114a57fc7e914640e860fbcf42ef4d9dceced8880d343828101f1fa389c7e1c0607281792610782565b926114b26105f160405190565b0390a3565b816114d692903d106114dd575b6114ce818361118e565b8101906102a2565b388061138b565b503d6114c4565b6111b5565b6114039250936115258761151561139a949761133d6114359c61150f610fb734926102b2565b146110be565b3361151f30610782565b91613451565b61138f565b906102da94939291610e64565b61154e6102bf91611546600090565b50600c61078b565b610eeb565b60ff8116610320565b905051906102da82611553565b906020828203126102ad576102bf9161155c565b6102bf9060081c61030b565b6102bf905461157d565b905051906102da82610334565b91906040838203126102ad576102bf906115ba8185611593565b9360200161155c565b6020808252600e908201526d496e76616c6964206f7261636c6560901b604082015260600190565b156115f257565b60405162461bcd60e51b815280610ee0600482016115c3565b6020808252601590820152742ab739bab83837b93a32b2103b30b63ab0ba34b7b760591b604082015260600190565b6102bf6102bf6102bf9260ff1690565b8181029291811591840414171561124457565b604d811161124457600a0a90565b634e487b7160e01b600052601260045260246000fd5b811561168b570490565b61166b565b60ff1661165d565b602080825260139082015272115e18d959591cc819185a5b1e481b1a5b5a5d606a1b604082015260600190565b156116cc57565b60405162461bcd60e51b815280610ee060048201611698565b9193946116fe919693956116f7600090565b50836130b1565b9461170c610f9a6008610e8a565b80611b2b575b9461171f61133d83610782565b9063313ce5679361172f60405190565b9061173a8660e01b90565b8252602082600481875afa9182156114e457600092611b0b575b5061176261133d8394610782565b602061176d60405190565b80926117798a60e01b90565b825260049082905afa80156114e4576117b491600091611aed575b509260406117a561133d6008611589565b63a3e6ba949061135f60405190565b825260049082905afa9586156114e4578a91600080949098611ab8575b506117f06000986117eb6117e48b6102b2565b82136115eb565b6102b2565b91829a859a61181e7f000000000000000000000000000000000000000000000000000000000000000061030b565b6118278261030b565b036119345750505061187a936118696118636118699461186f61187495611869611863670de0b6b3a76400009a61185d8c6102b2565b9061164a565b91611690565b90611681565b61164a565b916102b2565b935b6118ab61189561154e846108a4600b6113df6005610eeb565b926118a561154e4292600c61078b565b90611274565b6118b9610fb76102bf6102c2565b1015611924575b506118cb6007610eeb565b60009082101561191457506118e9906118e46007610eeb565b611274565b945b6118fc84876118e4818311156116c5565b9461191161190a868b611bdf565b809a611274565b97565b61191e91506102b2565b946118eb565b61192e91506102b2565b386118c0565b935093509350507f0000000000000000000000000000000000000000000000000000000000000000926119668461030b565b61196f8361030b565b036119f457505060209061198861133d61199494610782565b60405193849260e01b90565b825260049082905afa9081156114e4576119c0916119ba916000916119c6575b50611690565b89611681565b9361187c565b6119e7915060203d81116119ed575b6119df818361118e565b810190611569565b386119b4565b503d6119d5565b909250600d90611a0761154e858461078b565b611a13610fb78a6102b2565b1115611a9f57611a299260209161135f60405190565b825260049082905afa80156114e457611a6a611a6461154e6119c096611a5e61186995611a7098600091611a81575b5061163a565b9561078b565b8d61164a565b9161165d565b611869670de0b6b3a76400006102b2565b611a99915060203d81116119ed576119df818361118e565b38611a58565b60405162461bcd60e51b815280610ee06004820161160b565b909750611add91935060403d8111611ae6575b611ad5818361118e565b8101906115a0565b929096386117d1565b503d611acb565b611b05915060203d81116119ed576119df818361118e565b38611794565b611b2491925060203d81116119ed576119df818361118e565b9038611754565b5042611b3d610fb76102bf6006610eeb565b1015611712565b611b6d611b5d61154e836108a4600b6113df6005610eeb565b916118a561154e4292600c61078b565b611b7b610fb76102bf6102c2565b1015611baf575b611b8c6007610eeb565b600090821015611ba557506102bf906118e46007610eeb565b6102bf91506102b2565b50611bba60006102b2565b611b82565b60001981146112445760010190565b6102bf6102bf6102bf9261ffff1690565b611be960006102b2565b600e611bf66102bf825490565b821015611c4c576102bf61082983611c0d93610624565b831115611c2257611c1d90611bbf565b611be9565b6102bf92509061185d611c3c610ae3611c4194600f610a7e565b611bce565b6118696127106102b2565b50506102bf9150611c419061185d611c3c610ae3600f611c77611c6d825490565b6118a560016102b2565b90610a7e565b906020828203126102ad576102bf91611593565b611cbd61133d7f0000000000000000000000000000000000000000000000000000000000000000610782565b906370a0823191611ccd30610782565b906020611cd960405190565b8092611ce58760e01b90565b82528180611cf6876004830161048b565b03915afa9182156114e457611d6392602092600091611da1575b5094611d58611d4161133d7f0000000000000000000000000000000000000000000000000000000000000000610782565b91611d4b60405190565b9586948593849360e01b90565b83526004830161048b565b03915afa9081156114e457600091611d79575090565b6102bf915060203d8111611d9a575b611d92818361118e565b810190611c7d565b503d611d88565b611db89150833d8111611d9a57611d92818361118e565b38611d10565b611dc6611c91565b9091611dd26005610eeb565b611ddc6006610eeb565b93611dea610f9a6008610e8a565b9384611e53575b84611e16575b5050611e036008610e8a565b91611e0e6007610eeb565b919493929190565b90919350600091611e29610fb7846102b2565b11918215611e3c575b5050913880611df7565b611e4b919250610fb7906102b2565b113880611e32565b935042611e66610fb76102bf6006610eeb565b101593611df1565b90611e89611e7d610bcc845490565b92600052602060002090565b9060005b818110611e9a5750505090565b909192611ebb611eb4600192611eaf8761128a565b610bac565b9460010190565b929101611e8d565b906102bf91611e6e565b906102da611ee792611ede60405190565b93848092611ec3565b038361118e565b6102bf90611ecd565b6102bf600a611eee565b90611f10611e7d610bcc845490565b9060005b818110611f215750505090565b909192611f3e611eb4600192611f3687610eeb565b815260200190565b929101611f14565b906102bf91611f01565b906102da611ee792611f6160405190565b93848092611f46565b6102bf90611f50565b6102bf90610ab0565b6102bf9060101c610ab0565b6102bf9060201c610ab0565b6102bf9060301c610ab0565b6102bf9060401c610ab0565b6102bf9060501c610ab0565b6102bf9060601c610ab0565b6102bf9060701c610ab0565b6102bf9060801c610ab0565b6102bf9060901c610ab0565b6102bf9060a01c610ab0565b6102bf9060b01c610ab0565b6102bf9060c01c610ab0565b6102bf9060d01c610ab0565b6102bf9060e01c610ab0565b6102bf9060f01c610ab0565b9060019061204e612042610bcc855490565b93600052602060002090565b6000926122bf575b612061565b50505090565b54908083106122a2575b808310612285575b808310612268575b80831061224b575b80831061222e575b808310612211575b8083106121f4575b8083106121d7575b8083106121ba575b80831061219d575b808310612180575b808310612163575b808310612146575b808310612129575b80831061210c575b82106120e8575b8061205b565b82612103600193946120fb602094612024565b61ffff169052565b019101386120e2565b91926020816121206001936120fb86612018565b019301916120db565b919260208161213d6001936120fb8661200c565b019301916120d3565b919260208161215a6001936120fb86612000565b019301916120cb565b91926020816121776001936120fb86611ff4565b019301916120c3565b91926020816121946001936120fb86611fe8565b019301916120bb565b91926020816121b16001936120fb86611fdc565b019301916120b3565b91926020816121ce6001936120fb86611fd0565b019301916120ab565b91926020816121eb6001936120fb86611fc4565b019301916120a3565b91926020816122086001936120fb86611fb8565b0193019161209b565b91926020816122256001936120fb86611fac565b01930191612093565b91926020816122426001936120fb86611fa0565b0193019161208b565b919260208161225f6001936120fb86611f94565b01930191612083565b919260208161227c6001936120fb86611f88565b0193019161207b565b91926020816122996001936120fb86611f7c565b01930191612073565b91926020816122b66001936120fb86611f73565b0193019161206b565b600f83018211156120565792835490806122d883611f73565b61ffff169052602001806122eb83611f7c565b61ffff169052602001806122fe83611f88565b61ffff1690526020018061231183611f94565b61ffff1690526020018061232483611fa0565b61ffff1690526020018061233783611fac565b61ffff1690526020018061234a83611fb8565b61ffff1690526020018061235d83611fc4565b61ffff1690526020018061237083611fd0565b61ffff1690526020018061238383611fdc565b61ffff1690526020018061239683611fe8565b61ffff169052602001806123a983611ff4565b61ffff169052602001806123bc83612000565b61ffff169052602001806123cf8361200c565b61ffff169052602001806123e283612018565b61ffff1690526020016123f58192612024565b61ffff1690526020019260010191601001916122bf565b906102bf91612030565b906102da611ee79261242760405190565b9384809261240c565b6102bf90612416565b600f906102bf612449600e611f6a565b92612430565b6102da9061245b6131c5565b612475565b90611269612470611270926102bf565b6102bf565b6102da906004612460565b6102da9061244f565b906102da916124966131c5565b61258d565b9060ff9061124f565b151590565b906124b96102bf611270926124a4565b825461249b565b916001600160a01b0360089290920291821b911b61124f565b921b90565b91906124ef6102bf61127093610782565b9083546124c0565b634e487b7160e01b600052603160045260246000fd5b6102da916000916124de565b8054801561253c5760001901906125396125338383610624565b9061250d565b55565b6124f7565b90815491600160401b8310156111b057826125649160016102da95018155610624565b906124de565b9160206102da92949361258560408201966000830190610482565b019015159052565b6125a18261259c83600961078b565b6124a9565b6000916125ae60006102b2565b600a6125bb6102bf825490565b8210156126ac576125cf61068c8383610624565b6125e16125db8661030b565b9161030b565b146125f557506125f090611bbf565b6125ae565b9293509091612612916001918291908515612670575b5050501590565b80612669575b612659575b7f24ac9305f628cc42ffe7a95d02adb6df8eaf4bd42d00b25165abd72d06bcfd159161265461264b60405190565b9283928361256a565b0390a1565b61266482600a612541565b61261d565b5080612618565b6102bf61269f9261256461269861068c6126926126a4986118a5611874895490565b86610624565b9184610624565b612519565b38808061260b565b50509091612612901590565b906102da91612489565b6102da906126ce6131c5565b6126d98160086124a9565b6126547f152cbfe4e8597a33181d2da9ed5162e734ca8b263b9eb6105f169287a39908f691610b5e60405190565b6102da906126c2565b6102da9061271c6131c5565b6102da906007611259565b6102da90612710565b6102da9061273c6131c5565b61276b565b90610100600160a81b039060081b61124f565b906127646102bf61127092610782565b8254612741565b6127776102da91610782565b6008612754565b6102da90612730565b6102da906127936131c5565b6127be565b906001600160a01b039061124f565b906127b76102bf61127092610782565b8254612798565b6102da9060026127a7565b6102da90612787565b6102da906127de6131c5565b6102da9060036127a7565b6102da906127d2565b906102da9392916128016131c5565b612bda565b602080825260129082015271496e76616c69642066656520636f6e66696760701b604082015260600190565b1561283957565b60405162461bcd60e51b815280610ee060048201612806565b9160001960089290920291821b911b61124f565b91906128776102bf611270936102b2565b908354612852565b6102da91600091612866565b818110612896575050565b806128a4600060019361287f565b0161288b565b906128bd90600019906020036008021c90565b8154169055565b90918281106128d257505050565b6102da92906128e090611e7d565b908101910161288b565b90600160401b81116111b057816129026102da935490565b908281556128c4565b356102bf81610334565b9067ffffffffffffffff83116111b057612938611e7d6001926102bf86866128ea565b92049160005b83811061294b5750505050565b600190602061295c6102bf8661290b565b940193818401550161293e565b906102da9291612915565b81811061297f575050565b8061298d600060019361287f565b01612974565b9190918282106129a257505050565b6102da92600290601090600f018190046129c86010600f87010494600052602060002090565b9384019301930602600081116129df575b50612974565b6129ec90600183036128aa565b386129d9565b90600160401b81116111b05781612a0a6102da935490565b90828155612993565b61ffff8116610320565b356102bf81612a13565b9190600861124f9102916124d961ffff841b90565b919067ffffffffffffffff82116111b057611e7d612a5e916102bf84866129f2565b601082049160005b838110612aca575060108302900360008111612a83575b50505050565b92600093845b818110612a9e57505050015538808080612a7d565b9091946020612ac0600192612ab56102bf8a612a1d565b908560020290612a27565b9601929101612a89565b6000805b60108110612ae3575083820155600101612a66565b95906020612b04600192612af96102bf86612a1d565b908a60020290612a27565b92019601612ace565b906102da9291612a3c565b9037565b8183529091602001916001600160fb1b0381116102ad5782916020610bb99202938491612b18565b905035906102da82612a13565b506102bf906020810190612b44565b818352602090920191906000825b828210612b7c575050505090565b90919293612ba6612b9f600192612b938886612b51565b61ffff16815260200190565b9560200190565b93920190612b6e565b9290612bcc906102bf959360408601918683036000880152612b1c565b926020818503910152612b60565b90919261265490612c05612bfe612bee8690565b612bf860016102b2565b9061122e565b8214612832565b612c118484600e612969565b612c1d8186600f612b0d565b7f24c55ad2a025115594fa08832ae03860656fa82ab5a4b4fd2360f6eb8ef2717b94612c4860405190565b94859485612baf565b906102da9392916127f2565b906102da91612c6a6131c5565b612cb6565b6020808252600d908201526c139bdd081cdd5c1c1bdc9d1959609a1b604082015260600190565b15612c9d57565b60405162461bcd60e51b815280610ee060048201612c6f565b90612ce06102da92612cd9612cd4612ccf83600961078b565b610e8a565b612c96565b600d61078b565b611259565b906102da91612c5d565b6102da90612cfb6131c5565b612d98565b602080825260119082015270151bdad95b881b9bdd08185b1b1bddd959607a1b604082015260600190565b15612d3257565b60405162461bcd60e51b815280610ee060048201612d00565b6020808252601390820152724e6f7468696e6720746f20776974686472617760681b604082015260600190565b15612d7f57565b60405162461bcd60e51b815280610ee060048201612d4b565b612de2612e1691612dc87f000000000000000000000000000000000000000000000000000000000000000061030b565b612dd18261030b565b148015612e6c575b61133d90612d2b565b6020612ded82610782565b6370a0823190611d58612dff30610782565b92612e0960405190565b9687948593849360e01b90565b03915afa9081156114e4576102da92600092612e4c575b50612e42612e3b60006102b2565b8311612d78565b61142f600361128a565b612e6591925060203d8111611d9a57611d92818361118e565b9038612e2d565b5061133d612e997f000000000000000000000000000000000000000000000000000000000000000061030b565b612ea28361030b565b149050612dd9565b6102da90612cef565b6102da90612ebf6131c5565b612f41565b602080825260169082015275526f756e64204944206d75737420696e63726561736560501b604082015260600190565b15612efb57565b60405162461bcd60e51b815280610ee060048201612ec4565b6105c86102da94612f3a606094989795612f33608086019a6000870152565b6020850152565b6040830152565b612f58612f516102bf6005610eeb565b8211612ef4565b612f60611c91565b91612f7f6000612f6f816102b2565b8411908115612fe1575b50610f62565b612f8a816005611259565b612fa0612f9942612bf86102c2565b6006611259565b612654612fad6006610eeb565b7f1a1ee66c2455254feac7d7ae83f4704fb8cbe6a92ad835371c69dfaa7b48ed9294612fd860405190565b94859485612f14565b612feb91506102b2565b841138612f79565b6102da90612eb3565b60601b90565b6102bf90612ffc565b6130176102d69161030b565b613002565b610bb98160149361300b565b906102da61303560405190565b928361118e565b67ffffffffffffffff81116111b05760208091020190565b909291926130696130648261303c565b613028565b93818552602080860192028301928184116102ad57915b83831061308d5750505050565b6020809161309b848661033a565b815201920191613080565b6102bf913691613054565b61310d6102bf936130c0600090565b506130cb6004610eeb565b926130f46130d860405190565b80926130e860208301918261301c565b9081038252038261118e565b6131066130ff825190565b9160200190565b20936130a6565b613804565b6102da90612ce04291600c61313361312d61154e848461078b565b85611274565b613141610fb76102bf6102c2565b1061078b576108a461315360006102b2565b612ce0846108a4600b6113df6005610eeb565b6102bf600061128a565b6020808252818101527f4f776e61626c653a2063616c6c6572206973206e6f7420746865206f776e6572604082015260600190565b156131ac57565b60405162461bcd60e51b815280610ee060048201613170565b6102da6131d0613166565b6131e16125db3361030b565b61030b565b146131a5565b6131ef6131c5565b6102da6102da6131ff600061107e565b6132b0565b6102da6131e7565b6102da906132186131c5565b613283565b60208082526026908201527f4f776e61626c653a206e6577206f776e657220697320746865207a65726f206160408201526564647265737360d01b606082015260800190565b1561326a57565b60405162461bcd60e51b815280610ee06004820161321d565b6102da906131ff6132976131dc600061107e565b6132a08361030b565b1415613263565b6102da9061320c565b6132ba600061128a565b906132c68160006127a7565b6132f96132f37f8be0079c531659141344cd1fd0a4f28419497f9722a3daafe3b4186f6b6457e093610782565b91610782565b9161330360405190565b80806114b2565b6102bf60026102b2565b6020808252601f908201527f5265656e7472616e637947756172643a207265656e7472616e742063616c6c00604082015260600190565b1561335257565b60405162461bcd60e51b815280610ee060048201613314565b6102da6133786001610eeb565b61338c61338361330a565b9182141561334b565b6001611259565b6102bf60016102b2565b6102da61338c613393565b6133c16133bb6102bf9263ffffffff1690565b60e01b90565b6001600160e01b03191690565b9160206102da9294936105c860408201966000830190610482565b61342c60049261341d6102da9561340363a9059cbb6133a8565b9261340d60405190565b96879460208601908152016133ce565b6020820181038252038361118e565b61357c565b6040906105c86102da94969593966112ab60608401986000850190610482565b9061342c9061341d6102da9560049561346d6323b872dd6133a8565b9361347760405190565b9788956020870190815201613431565b67ffffffffffffffff81116111b057602090601f01601f19160190565b906134b161306483613487565b918252565b6134c060206134a4565b7f5361666545524332303a206c6f772d6c6576656c2063616c6c206661696c6564602082015290565b6102bf6134b6565b905051906102da82610574565b906020828203126102ad576102bf916134f1565b6020808252602a908201527f5361666545524332303a204552433230206f7065726174696f6e20646964206e6040820152691bdd081cdd58d8d9595960b21b606082015260800190565b1561356357565b60405162461bcd60e51b815280610ee060048201613512565b6102da9161358c61359b92610782565b906135956134e9565b916135d9565b80516135aa610fb760006102b2565b149081156135b9575b5061355c565b6135d3915060206135c8825190565b8183010191016134fe565b386135b3565b6102bf92916135e860006102b2565b91613673565b60208082526026908201527f416464726573733a20696e73756666696369656e742062616c616e636520666f6040820152651c8818d85b1b60d21b606082015260800190565b1561363b57565b60405162461bcd60e51b815280610ee0600482016135ee565b3d1561366e576136633d6134a4565b903d6000602084013e565b606090565b9060006102bf94938192613685606090565b5061369c61369230610782565b8390311015613634565b60208101905191855af16136ae613654565b9161370b565b6020808252601d908201527f416464726573733a2063616c6c20746f206e6f6e2d636f6e7472616374000000604082015260600190565b156136f257565b60405162461bcd60e51b815280610ee0600482016136b4565b9192901561373d57508151613723610fb760006102b2565b1461372c575090565b6137386102bf91613743565b6136eb565b826137bd565b3b613751610fb760006102b2565b1190565b60005b8381106137685750506000910152565b8181015183820152602001613758565b6137996137a2602093610bb99361378d815190565b80835293849260200190565b95869101613755565b601f01601f191690565b60208082526102bf92910190613778565b906137c6825190565b6137d3610fb760006102b2565b11156137e25750805190602001fd5b610ee0906137ef60405190565b62461bcd60e51b8152918291600483016137ac565b61123561381e9293610fb792613818600090565b50613840565b1490565b9061382b825190565b811015610647576020809102010190565b5190565b61384a60006102b2565b915b6138576102bf835190565b8310156138895761387d613883916138776138728686613822565b61383c565b9061388f565b92611bbf565b9161384c565b91505090565b818110156138aa57906102bf91600052602052604060002090565b6102bf9160005260205260406000209056fea264697066735822122040ae195245ec8921d2d259a44ff9df38edbf7f7285a4da04ce71f55bc88628cb64736f6c63430008120033",
  "linkReferences": {},
  "deployedLinkReferences": {}
}